{
  "contractName": "DEXWrap",
  "abi": [
    {
      "inputs": [
        {
          "internalType": "address",
          "name": "_stakerAddress",
          "type": "address"
        },
        {
          "internalType": "address",
          "name": "_nativeTokenAddress",
          "type": "address"
        },
        {
          "internalType": "address",
          "name": "_idoTokenAddress",
          "type": "address"
        },
        {
          "internalType": "uint256",
          "name": "_idoAmount",
          "type": "uint256"
        },
        {
          "internalType": "uint256",
          "name": "_price",
          "type": "uint256"
        },
        {
          "internalType": "uint256",
          "name": "_tokensToLiquidity",
          "type": "uint256"
        },
        {
          "internalType": "uint256",
          "name": "_softCapETH",
          "type": "uint256"
        },
        {
          "internalType": "uint256",
          "name": "_lpLockPeriod",
          "type": "uint256"
        }
      ],
      "stateMutability": "nonpayable",
      "type": "constructor"
    },
    {
      "anonymous": false,
      "inputs": [
        {
          "indexed": false,
          "internalType": "uint256",
          "name": "regStart",
          "type": "uint256"
        },
        {
          "indexed": false,
          "internalType": "uint256",
          "name": "saleStart",
          "type": "uint256"
        },
        {
          "indexed": false,
          "internalType": "uint256",
          "name": "fcfsStart",
          "type": "uint256"
        }
      ],
      "name": "Initialization",
      "type": "event"
    },
    {
      "anonymous": false,
      "inputs": [
        {
          "indexed": true,
          "internalType": "address",
          "name": "previousOwner",
          "type": "address"
        },
        {
          "indexed": true,
          "internalType": "address",
          "name": "newOwner",
          "type": "address"
        }
      ],
      "name": "OwnershipTransferred",
      "type": "event"
    },
    {
      "anonymous": false,
      "inputs": [
        {
          "indexed": true,
          "internalType": "address",
          "name": "",
          "type": "address"
        },
        {
          "indexed": false,
          "internalType": "uint256",
          "name": "tokens",
          "type": "uint256"
        },
        {
          "indexed": false,
          "internalType": "uint256",
          "name": "price",
          "type": "uint256"
        }
      ],
      "name": "Purchase",
      "type": "event"
    },
    {
      "anonymous": false,
      "inputs": [
        {
          "indexed": false,
          "internalType": "address",
          "name": "account",
          "type": "address"
        },
        {
          "indexed": false,
          "internalType": "uint256",
          "name": "eth",
          "type": "uint256"
        }
      ],
      "name": "Received",
      "type": "event"
    },
    {
      "anonymous": false,
      "inputs": [
        {
          "indexed": true,
          "internalType": "address",
          "name": "account",
          "type": "address"
        },
        {
          "indexed": false,
          "internalType": "uint256",
          "name": "poolNo",
          "type": "uint256"
        }
      ],
      "name": "Registration",
      "type": "event"
    },
    {
      "inputs": [],
      "name": "RAFFLE_POOL",
      "outputs": [
        {
          "internalType": "uint256",
          "name": "",
          "type": "uint256"
        }
      ],
      "stateMutability": "view",
      "type": "function"
    },
    {
      "inputs": [
        {
          "internalType": "address",
          "name": "",
          "type": "address"
        }
      ],
      "name": "addressToTicketCount",
      "outputs": [
        {
          "internalType": "uint256",
          "name": "",
          "type": "uint256"
        }
      ],
      "stateMutability": "view",
      "type": "function"
    },
    {
      "inputs": [
        {
          "internalType": "address",
          "name": "",
          "type": "address"
        },
        {
          "internalType": "uint256",
          "name": "",
          "type": "uint256"
        }
      ],
      "name": "addressToTicketsOwned",
      "outputs": [
        {
          "internalType": "uint256",
          "name": "",
          "type": "uint256"
        }
      ],
      "stateMutability": "view",
      "type": "function"
    },
    {
      "inputs": [
        {
          "internalType": "address",
          "name": "account",
          "type": "address"
        }
      ],
      "name": "allocationByAddress",
      "outputs": [
        {
          "internalType": "uint256",
          "name": "tokens",
          "type": "uint256"
        },
        {
          "internalType": "uint256",
          "name": "price",
          "type": "uint256"
        }
      ],
      "stateMutability": "view",
      "type": "function"
    },
    {
      "inputs": [],
      "name": "buyNow",
      "outputs": [],
      "stateMutability": "payable",
      "type": "function"
    },
    {
      "inputs": [
        {
          "internalType": "uint256",
          "name": "_noOfTickets",
          "type": "uint256"
        }
      ],
      "name": "buyTickets",
      "outputs": [],
      "stateMutability": "nonpayable",
      "type": "function"
    },
    {
      "inputs": [],
      "name": "fcfsDuration",
      "outputs": [
        {
          "internalType": "uint256",
          "name": "",
          "type": "uint256"
        }
      ],
      "stateMutability": "view",
      "type": "function"
    },
    {
      "inputs": [],
      "name": "fcfsStarts",
      "outputs": [
        {
          "internalType": "uint256",
          "name": "",
          "type": "uint256"
        }
      ],
      "stateMutability": "view",
      "type": "function"
    },
    {
      "inputs": [],
      "name": "genRandom",
      "outputs": [],
      "stateMutability": "nonpayable",
      "type": "function"
    },
    {
      "inputs": [
        {
          "internalType": "address",
          "name": "account",
          "type": "address"
        }
      ],
      "name": "getPoolNo",
      "outputs": [
        {
          "internalType": "uint256",
          "name": "",
          "type": "uint256"
        }
      ],
      "stateMutability": "view",
      "type": "function"
    },
    {
      "inputs": [
        {
          "internalType": "address",
          "name": "account",
          "type": "address"
        }
      ],
      "name": "getRegistrationStatus",
      "outputs": [
        {
          "internalType": "bool",
          "name": "",
          "type": "bool"
        }
      ],
      "stateMutability": "view",
      "type": "function"
    },
    {
      "inputs": [],
      "name": "getTicketsWon",
      "outputs": [
        {
          "internalType": "uint256[]",
          "name": "",
          "type": "uint256[]"
        }
      ],
      "stateMutability": "view",
      "type": "function"
    },
    {
      "inputs": [],
      "name": "getWinners",
      "outputs": [
        {
          "internalType": "address[]",
          "name": "",
          "type": "address[]"
        }
      ],
      "stateMutability": "view",
      "type": "function"
    },
    {
      "inputs": [
        {
          "internalType": "address",
          "name": "",
          "type": "address"
        }
      ],
      "name": "hasWonRaffle",
      "outputs": [
        {
          "internalType": "bool",
          "name": "",
          "type": "bool"
        }
      ],
      "stateMutability": "view",
      "type": "function"
    },
    {
      "inputs": [],
      "name": "iStaker",
      "outputs": [
        {
          "internalType": "contract IStaker",
          "name": "",
          "type": "address"
        }
      ],
      "stateMutability": "view",
      "type": "function"
    },
    {
      "inputs": [],
      "name": "idoToken",
      "outputs": [
        {
          "internalType": "contract IERC20Metadata",
          "name": "",
          "type": "address"
        }
      ],
      "stateMutability": "view",
      "type": "function"
    },
    {
      "inputs": [],
      "name": "idoTokenSum",
      "outputs": [
        {
          "internalType": "uint256",
          "name": "",
          "type": "uint256"
        }
      ],
      "stateMutability": "view",
      "type": "function"
    },
    {
      "inputs": [],
      "name": "idoTotalPrice",
      "outputs": [
        {
          "internalType": "uint256",
          "name": "",
          "type": "uint256"
        }
      ],
      "stateMutability": "view",
      "type": "function"
    },
    {
      "inputs": [],
      "name": "isFulfilled",
      "outputs": [
        {
          "internalType": "bool",
          "name": "",
          "type": "bool"
        }
      ],
      "stateMutability": "view",
      "type": "function"
    },
    {
      "inputs": [],
      "name": "isInitialized",
      "outputs": [
        {
          "internalType": "bool",
          "name": "",
          "type": "bool"
        }
      ],
      "stateMutability": "view",
      "type": "function"
    },
    {
      "inputs": [
        {
          "internalType": "address",
          "name": "account",
          "type": "address"
        }
      ],
      "name": "isRaffleEligible",
      "outputs": [
        {
          "internalType": "bool",
          "name": "",
          "type": "bool"
        }
      ],
      "stateMutability": "view",
      "type": "function"
    },
    {
      "inputs": [],
      "name": "isSoftLiquidityAdded",
      "outputs": [
        {
          "internalType": "bool",
          "name": "",
          "type": "bool"
        }
      ],
      "stateMutability": "view",
      "type": "function"
    },
    {
      "inputs": [],
      "name": "liquidity",
      "outputs": [
        {
          "internalType": "uint256",
          "name": "",
          "type": "uint256"
        }
      ],
      "stateMutability": "view",
      "type": "function"
    },
    {
      "inputs": [],
      "name": "lockDuration",
      "outputs": [
        {
          "internalType": "uint256",
          "name": "",
          "type": "uint256"
        }
      ],
      "stateMutability": "view",
      "type": "function"
    },
    {
      "inputs": [],
      "name": "lpLockPeriod",
      "outputs": [
        {
          "internalType": "uint256",
          "name": "",
          "type": "uint256"
        }
      ],
      "stateMutability": "view",
      "type": "function"
    },
    {
      "inputs": [],
      "name": "lpLockedTill",
      "outputs": [
        {
          "internalType": "uint256",
          "name": "",
          "type": "uint256"
        }
      ],
      "stateMutability": "view",
      "type": "function"
    },
    {
      "inputs": [],
      "name": "nativeToken",
      "outputs": [
        {
          "internalType": "contract IERC20Metadata",
          "name": "",
          "type": "address"
        }
      ],
      "stateMutability": "view",
      "type": "function"
    },
    {
      "inputs": [],
      "name": "noOfParticipants",
      "outputs": [
        {
          "internalType": "uint256",
          "name": "",
          "type": "uint256"
        }
      ],
      "stateMutability": "view",
      "type": "function"
    },
    {
      "inputs": [],
      "name": "owner",
      "outputs": [
        {
          "internalType": "address",
          "name": "",
          "type": "address"
        }
      ],
      "stateMutability": "view",
      "type": "function"
    },
    {
      "inputs": [],
      "name": "pairAddress",
      "outputs": [
        {
          "internalType": "address",
          "name": "",
          "type": "address"
        }
      ],
      "stateMutability": "view",
      "type": "function"
    },
    {
      "inputs": [
        {
          "internalType": "uint256",
          "name": "",
          "type": "uint256"
        }
      ],
      "name": "participantList",
      "outputs": [
        {
          "internalType": "address",
          "name": "",
          "type": "address"
        }
      ],
      "stateMutability": "view",
      "type": "function"
    },
    {
      "inputs": [
        {
          "internalType": "uint256",
          "name": "",
          "type": "uint256"
        }
      ],
      "name": "pools",
      "outputs": [
        {
          "internalType": "string",
          "name": "name",
          "type": "string"
        },
        {
          "internalType": "uint256",
          "name": "minNativeToken",
          "type": "uint256"
        },
        {
          "internalType": "uint256",
          "name": "weight",
          "type": "uint256"
        },
        {
          "internalType": "uint256",
          "name": "participants",
          "type": "uint256"
        }
      ],
      "stateMutability": "view",
      "type": "function"
    },
    {
      "inputs": [],
      "name": "randomResult",
      "outputs": [
        {
          "internalType": "uint256",
          "name": "",
          "type": "uint256"
        }
      ],
      "stateMutability": "view",
      "type": "function"
    },
    {
      "inputs": [
        {
          "internalType": "bytes32",
          "name": "requestId",
          "type": "bytes32"
        },
        {
          "internalType": "uint256",
          "name": "randomness",
          "type": "uint256"
        }
      ],
      "name": "rawFulfillRandomness",
      "outputs": [],
      "stateMutability": "nonpayable",
      "type": "function"
    },
    {
      "inputs": [],
      "name": "regDuration",
      "outputs": [
        {
          "internalType": "uint256",
          "name": "",
          "type": "uint256"
        }
      ],
      "stateMutability": "view",
      "type": "function"
    },
    {
      "inputs": [],
      "name": "regStarts",
      "outputs": [
        {
          "internalType": "uint256",
          "name": "",
          "type": "uint256"
        }
      ],
      "stateMutability": "view",
      "type": "function"
    },
    {
      "inputs": [
        {
          "internalType": "uint256",
          "name": "_poolNo",
          "type": "uint256"
        }
      ],
      "name": "register",
      "outputs": [],
      "stateMutability": "nonpayable",
      "type": "function"
    },
    {
      "inputs": [],
      "name": "remainingIDOTokens",
      "outputs": [
        {
          "internalType": "uint256",
          "name": "",
          "type": "uint256"
        }
      ],
      "stateMutability": "view",
      "type": "function"
    },
    {
      "inputs": [],
      "name": "renounceOwnership",
      "outputs": [],
      "stateMutability": "nonpayable",
      "type": "function"
    },
    {
      "inputs": [],
      "name": "reqId",
      "outputs": [
        {
          "internalType": "bytes32",
          "name": "",
          "type": "bytes32"
        }
      ],
      "stateMutability": "view",
      "type": "function"
    },
    {
      "inputs": [],
      "name": "router",
      "outputs": [
        {
          "internalType": "contract RouterInterface",
          "name": "",
          "type": "address"
        }
      ],
      "stateMutability": "view",
      "type": "function"
    },
    {
      "inputs": [],
      "name": "saleDuration",
      "outputs": [
        {
          "internalType": "uint256",
          "name": "",
          "type": "uint256"
        }
      ],
      "stateMutability": "view",
      "type": "function"
    },
    {
      "inputs": [],
      "name": "saleStarts",
      "outputs": [
        {
          "internalType": "uint256",
          "name": "",
          "type": "uint256"
        }
      ],
      "stateMutability": "view",
      "type": "function"
    },
    {
      "inputs": [],
      "name": "saleStartsAfter",
      "outputs": [
        {
          "internalType": "uint256",
          "name": "",
          "type": "uint256"
        }
      ],
      "stateMutability": "view",
      "type": "function"
    },
    {
      "inputs": [],
      "name": "softCapETH",
      "outputs": [
        {
          "internalType": "uint256",
          "name": "",
          "type": "uint256"
        }
      ],
      "stateMutability": "view",
      "type": "function"
    },
    {
      "inputs": [],
      "name": "ticketPrice",
      "outputs": [
        {
          "internalType": "uint256",
          "name": "",
          "type": "uint256"
        }
      ],
      "stateMutability": "view",
      "type": "function"
    },
    {
      "inputs": [
        {
          "internalType": "uint256",
          "name": "",
          "type": "uint256"
        }
      ],
      "name": "ticketToOwner",
      "outputs": [
        {
          "internalType": "address",
          "name": "",
          "type": "address"
        }
      ],
      "stateMutability": "view",
      "type": "function"
    },
    {
      "inputs": [],
      "name": "ticketsSold",
      "outputs": [
        {
          "internalType": "uint256",
          "name": "",
          "type": "uint256"
        }
      ],
      "stateMutability": "view",
      "type": "function"
    },
    {
      "inputs": [
        {
          "internalType": "uint256",
          "name": "_poolNo",
          "type": "uint256"
        }
      ],
      "name": "tokensAndPriceByPoolNo",
      "outputs": [
        {
          "internalType": "uint256",
          "name": "",
          "type": "uint256"
        },
        {
          "internalType": "uint256",
          "name": "",
          "type": "uint256"
        }
      ],
      "stateMutability": "view",
      "type": "function"
    },
    {
      "inputs": [],
      "name": "tokensToLiquidity",
      "outputs": [
        {
          "internalType": "uint256",
          "name": "",
          "type": "uint256"
        }
      ],
      "stateMutability": "view",
      "type": "function"
    },
    {
      "inputs": [],
      "name": "totalWeight",
      "outputs": [
        {
          "internalType": "uint256",
          "name": "",
          "type": "uint256"
        }
      ],
      "stateMutability": "view",
      "type": "function"
    },
    {
      "inputs": [
        {
          "internalType": "address",
          "name": "newOwner",
          "type": "address"
        }
      ],
      "name": "transferOwnership",
      "outputs": [],
      "stateMutability": "nonpayable",
      "type": "function"
    },
    {
      "inputs": [],
      "name": "unit",
      "outputs": [
        {
          "internalType": "uint256",
          "name": "",
          "type": "uint256"
        }
      ],
      "stateMutability": "view",
      "type": "function"
    },
    {
      "inputs": [
        {
          "internalType": "address",
          "name": "",
          "type": "address"
        }
      ],
      "name": "userlog",
      "outputs": [
        {
          "internalType": "bool",
          "name": "isRegistered",
          "type": "bool"
        },
        {
          "internalType": "uint256",
          "name": "registeredPool",
          "type": "uint256"
        },
        {
          "internalType": "bool",
          "name": "purchased",
          "type": "bool"
        }
      ],
      "stateMutability": "view",
      "type": "function"
    },
    {
      "stateMutability": "payable",
      "type": "receive"
    },
    {
      "inputs": [
        {
          "internalType": "uint256",
          "name": "time",
          "type": "uint256"
        }
      ],
      "name": "initialize",
      "outputs": [],
      "stateMutability": "nonpayable",
      "type": "function"
    },
    {
      "inputs": [],
      "name": "isFCFSNeeded",
      "outputs": [
        {
          "internalType": "bool",
          "name": "",
          "type": "bool"
        }
      ],
      "stateMutability": "view",
      "type": "function"
    },
    {
      "inputs": [
        {
          "internalType": "uint256",
          "name": "amount",
          "type": "uint256"
        }
      ],
      "name": "swapPrice",
      "outputs": [
        {
          "internalType": "uint256",
          "name": "price",
          "type": "uint256"
        }
      ],
      "stateMutability": "view",
      "type": "function"
    },
    {
      "inputs": [
        {
          "internalType": "uint256",
          "name": "amount",
          "type": "uint256"
        }
      ],
      "name": "fcfsBuy",
      "outputs": [],
      "stateMutability": "payable",
      "type": "function"
    },
    {
      "inputs": [
        {
          "internalType": "address",
          "name": "to",
          "type": "address"
        }
      ],
      "name": "recoverEth",
      "outputs": [],
      "stateMutability": "nonpayable",
      "type": "function"
    },
    {
      "inputs": [
        {
          "internalType": "address",
          "name": "tokenAddress",
          "type": "address"
        },
        {
          "internalType": "address",
          "name": "to",
          "type": "address"
        }
      ],
      "name": "recoverERC20",
      "outputs": [],
      "stateMutability": "nonpayable",
      "type": "function"
    },
    {
      "inputs": [],
      "name": "isAfterFCFS",
      "outputs": [
        {
          "internalType": "bool",
          "name": "",
          "type": "bool"
        }
      ],
      "stateMutability": "view",
      "type": "function"
    }
  ],
  "bytecode": "0x60c06040526000601560016101000a81548160ff02191690831515021790555060006020553480156200003157600080fd5b5060405162006e9b38038062006e9b833981810160405281019062000057919062000ecb565b878787878773b3dccb4cf7a26f6cf6b120cf5a73875b7bbc655b7301be23585060835e02b77ef475b0cc51aa1e0709868686868660006200009d62000da260201b60201c565b9050806000806101000a81548173ffffffffffffffffffffffffffffffffffffffff021916908373ffffffffffffffffffffffffffffffffffffffff1602179055508073ffffffffffffffffffffffffffffffffffffffff16600073ffffffffffffffffffffffffffffffffffffffff167f8be0079c531659141344cd1fd0a4f28419497f9722a3daafe3b4186f6b6457e060405160405180910390a3506001808190555084600260006101000a81548173ffffffffffffffffffffffffffffffffffffffff021916908373ffffffffffffffffffffffffffffffffffffffff16021790555083600360006101000a81548173ffffffffffffffffffffffffffffffffffffffff021916908373ffffffffffffffffffffffffffffffffffffffff16021790555082600460006101000a81548173ffffffffffffffffffffffffffffffffffffffff021916908373ffffffffffffffffffffffffffffffffffffffff16021790555081600581905550806006819055506005546007819055506000600360009054906101000a900473ffffffffffffffffffffffffffffffffffffffff1673ffffffffffffffffffffffffffffffffffffffff1663313ce5676040518163ffffffff1660e01b815260040160206040518083038186803b1580156200028757600080fd5b505afa1580156200029c573d6000803e3d6000fd5b505050506040513d601f19601f82011682018060405250810190620002c2919062000f8e565b60ff169050600e60405180608001604052806040518060400160405280600481526020017f4e756c6c00000000000000000000000000000000000000000000000000000000815250815260200160008152602001600081526020016000815250908060018154018082558091505060019003906000526020600020906004020160009091909190915060008201518160000190805190602001906200036992919062000daa565b506020820151816001015560408201518160020155606082015181600301555050600e60405180608001604052806040518060400160405280600681526020017f4b6e696768740000000000000000000000000000000000000000000000000000815250815260200183600a620003e1919062001053565b6103e8620003f0919062001190565b8152602001600181526020016000815250908060018154018082558091505060019003906000526020600020906004020160009091909190915060008201518160000190805190602001906200044892919062000daa565b506020820151816001015560408201518160020155606082015181600301555050600e60405180608001604052806040518060400160405280600681526020017f426973686f700000000000000000000000000000000000000000000000000000815250815260200183600a620004c0919062001053565b6105dc620004cf919062001190565b8152602001600481526020016000815250908060018154018082558091505060019003906000526020600020906004020160009091909190915060008201518160000190805190602001906200052792919062000daa565b506020820151816001015560408201518160020155606082015181600301555050600e60405180608001604052806040518060400160405280600481526020017f526f6f6b00000000000000000000000000000000000000000000000000000000815250815260200183600a6200059f919062001053565b610bb8620005ae919062001190565b8152602001600881526020016000815250908060018154018082558091505060019003906000526020600020906004020160009091909190915060008201518160000190805190602001906200060692919062000daa565b506020820151816001015560408201518160020155606082015181600301555050600e60405180608001604052806040518060400160405280600481526020017f4b696e6700000000000000000000000000000000000000000000000000000000815250815260200183600a6200067e919062001053565b6117706200068d919062001190565b815260200160108152602001600081525090806001815401808255809150506001900390600052602060002090600402016000909190919091506000820151816000019080519060200190620006e592919062000daa565b506020820151816001015560408201518160020155606082015181600301555050600e60405180608001604052806040518060400160405280600581526020017f517565656e000000000000000000000000000000000000000000000000000000815250815260200183600a6200075d919062001053565b6123286200076c919062001190565b815260200160158152602001600081525090806001815401808255809150506001900390600052602060002090600402016000909190919091506000820151816000019080519060200190620007c492919062000daa565b5060208201518160010155604082015181600201556060820151816003015550506032600f819055505050505050508173ffffffffffffffffffffffffffffffffffffffff1660a08173ffffffffffffffffffffffffffffffffffffffff1660601b815250508073ffffffffffffffffffffffffffffffffffffffff1660808173ffffffffffffffffffffffffffffffffffffffff1660601b8152505050507f2ed0feb3e7fd2022120aa84fab1945545a9f2ffc9076fd6156fa96eaff4c131160001b60118190555067016345785d8a0000601281905550505050505082601b8190555081601c8190555080601d81905550737a250d5630b4cf539739df2c5dacb4c659f2488d602160006101000a81548173ffffffffffffffffffffffffffffffffffffffff021916908373ffffffffffffffffffffffffffffffffffffffff160217905550602160009054906101000a900473ffffffffffffffffffffffffffffffffffffffff1673ffffffffffffffffffffffffffffffffffffffff1663c45a01556040518163ffffffff1660e01b815260040160206040518083038186803b1580156200097457600080fd5b505afa15801562000989573d6000803e3d6000fd5b505050506040513d601f19601f82011682018060405250810190620009af919062000e9f565b73ffffffffffffffffffffffffffffffffffffffff1663e6a4390587602160009054906101000a900473ffffffffffffffffffffffffffffffffffffffff1673ffffffffffffffffffffffffffffffffffffffff1663ad5c46486040518163ffffffff1660e01b815260040160206040518083038186803b15801562000a3457600080fd5b505afa15801562000a49573d6000803e3d6000fd5b505050506040513d601f19601f8201168201806040525081019062000a6f919062000e9f565b6040518363ffffffff1660e01b815260040162000a8e92919062000fcb565b60206040518083038186803b15801562000aa757600080fd5b505afa15801562000abc573d6000803e3d6000fd5b505050506040513d601f19601f8201168201806040525081019062000ae2919062000e9f565b602260006101000a81548173ffffffffffffffffffffffffffffffffffffffff021916908373ffffffffffffffffffffffffffffffffffffffff160217905550600073ffffffffffffffffffffffffffffffffffffffff16602260009054906101000a900473ffffffffffffffffffffffffffffffffffffffff1673ffffffffffffffffffffffffffffffffffffffff16141562000d9457602160009054906101000a900473ffffffffffffffffffffffffffffffffffffffff1673ffffffffffffffffffffffffffffffffffffffff1663c45a01556040518163ffffffff1660e01b815260040160206040518083038186803b15801562000be357600080fd5b505afa15801562000bf8573d6000803e3d6000fd5b505050506040513d601f19601f8201168201806040525081019062000c1e919062000e9f565b73ffffffffffffffffffffffffffffffffffffffff1663c9c6539687602160009054906101000a900473ffffffffffffffffffffffffffffffffffffffff1673ffffffffffffffffffffffffffffffffffffffff1663ad5c46486040518163ffffffff1660e01b815260040160206040518083038186803b15801562000ca357600080fd5b505afa15801562000cb8573d6000803e3d6000fd5b505050506040513d601f19601f8201168201806040525081019062000cde919062000e9f565b6040518363ffffffff1660e01b815260040162000cfd92919062000fcb565b602060405180830381600087803b15801562000d1857600080fd5b505af115801562000d2d573d6000803e3d6000fd5b505050506040513d601f19601f8201168201806040525081019062000d53919062000e9f565b602260006101000a81548173ffffffffffffffffffffffffffffffffffffffff021916908373ffffffffffffffffffffffffffffffffffffffff1602179055505b50505050505050506200132b565b600033905090565b82805462000db8906200123c565b90600052602060002090601f01602090048101928262000ddc576000855562000e28565b82601f1062000df757805160ff191683800117855562000e28565b8280016001018555821562000e28579182015b8281111562000e2757825182559160200191906001019062000e0a565b5b50905062000e37919062000e3b565b5090565b5b8082111562000e5657600081600090555060010162000e3c565b5090565b60008151905062000e6b81620012dd565b92915050565b60008151905062000e8281620012f7565b92915050565b60008151905062000e998162001311565b92915050565b60006020828403121562000eb257600080fd5b600062000ec28482850162000e5a565b91505092915050565b600080600080600080600080610100898b03121562000ee957600080fd5b600062000ef98b828c0162000e5a565b985050602062000f0c8b828c0162000e5a565b975050604062000f1f8b828c0162000e5a565b965050606062000f328b828c0162000e71565b955050608062000f458b828c0162000e71565b94505060a062000f588b828c0162000e71565b93505060c062000f6b8b828c0162000e71565b92505060e062000f7e8b828c0162000e71565b9150509295985092959890939650565b60006020828403121562000fa157600080fd5b600062000fb18482850162000e88565b91505092915050565b62000fc581620011f1565b82525050565b600060408201905062000fe2600083018562000fba565b62000ff1602083018462000fba565b9392505050565b6000808291508390505b60018511156200104a5780860481111562001022576200102162001272565b5b6001851615620010325780820291505b80810290506200104285620012d0565b945062001002565b94509492505050565b6000620010608262001225565b91506200106d8362001225565b92506200109c7fffffffffffffffffffffffffffffffffffffffffffffffffffffffffffffffff8484620010a4565b905092915050565b600082620010b6576001905062001189565b81620010c6576000905062001189565b8160018114620010df5760028114620010ea5762001120565b600191505062001189565b60ff841115620010ff57620010fe62001272565b5b8360020a91508482111562001119576200111862001272565b5b5062001189565b5060208310610133831016604e8410600b84101617156200115a5782820a90508381111562001154576200115362001272565b5b62001189565b62001169848484600162000ff8565b9250905081840481111562001183576200118262001272565b5b81810290505b9392505050565b60006200119d8262001225565b9150620011aa8362001225565b9250817fffffffffffffffffffffffffffffffffffffffffffffffffffffffffffffffff0483118215151615620011e657620011e562001272565b5b828202905092915050565b6000620011fe8262001205565b9050919050565b600073ffffffffffffffffffffffffffffffffffffffff82169050919050565b6000819050919050565b600060ff82169050919050565b600060028204905060018216806200125557607f821691505b602082108114156200126c576200126b620012a1565b5b50919050565b7f4e487b7100000000000000000000000000000000000000000000000000000000600052601160045260246000fd5b7f4e487b7100000000000000000000000000000000000000000000000000000000600052602260045260246000fd5b60008160011c9050919050565b620012e881620011f1565b8114620012f457600080fd5b50565b620013028162001225565b81146200130e57600080fd5b50565b6200131c816200122f565b81146200132857600080fd5b50565b60805160601c60a05160601c615b3662001365600039600081816120e20152613c290152600081816135920152613bed0152615b366000f3fe6080604052600436106103a65760003560e01c8063907af6c0116101e7578063c4f34fab1161010d578063e66f418c116100a0578063f2fde38b1161006f578063f2fde38b14610e0d578063f3f40af214610e36578063f887ea4014610e61578063fe4b84df14610e8c576103e6565b8063e66f418c14610d63578063e76eda8614610d8e578063efad76da14610db9578063f207564e14610de4576103e6565b8063d6cd82bc116100dc578063d6cd82bc14610cb7578063df15c37e14610ce2578063e1758bd814610d0d578063e32ddac614610d38576103e6565b8063c4f34fab14610c0b578063c5cff33914610c36578063c6b6097114610c61578063d2d570a114610c8c576103e6565b8063a25dd13011610185578063ac4afa3811610154578063ac4afa3814610b38578063b6ba811414610b78578063bd9766f414610ba3578063c31476dd14610be0576103e6565b8063a25dd13014610a7a578063a8af4ff514610aa5578063a8b0898214610ae2578063a9e5825714610b0d576103e6565b80639c3962f0116101c15780639c3962f0146109dd5780639e6e9d0f146109e75780639eb688b014610a24578063a158226d14610a4f576103e6565b8063907af6c01461095e57806394985ddd1461098957806396c82e57146109b2576103e6565b806342619f66116102cc57806373aafe641161026a5780638997ce4e116102395780638997ce4e1461089f5780638da5cb5b146108ca5780638f15024f146108f55780638f666ecf14610920576103e6565b806373aafe64146107d35780637504db3e146108105780637acaea9b14610839578063886f039a14610876576103e6565b80636096188f116102a65780636096188f1461075e57806366a30cb61461077a578063692d98d014610791578063715018a6146107bc576103e6565b806342619f66146106b757806345a28e06146106e257806351622cd014610721576103e6565b80631a68650211610344578063385a9c3711610313578063385a9c37146105f8578063392e53cd146106235780633d7faab91461064e5780633f46ce7214610679576103e6565b80631a6865021461053c5780632b08e824146105675780632f366637146105a45780633711d9fb146105cd576103e6565b806309d6b3ff1161038057806309d6b3ff1461046c5780630e6fdaa1146104a95780631209b1f6146104e6578063196f253214610511576103e6565b806304554443146103eb578063051a80cf146104165780630872629614610441576103e6565b366103e6577f88a5966d370b9919b20f3e2c13ff65706f196a4e32cc2c12bf57088f8852587433346040516103dc929190614d7e565b60405180910390a1005b600080fd5b3480156103f757600080fd5b50610400610eb5565b60405161040d9190615442565b60405180910390f35b34801561042257600080fd5b5061042b610ec7565b6040516104389190614e68565b60405180910390f35b34801561044d57600080fd5b50610456610f33565b6040516104639190615442565b60405180910390f35b34801561047857600080fd5b50610493600480360381019061048e9190613fe4565b610f40565b6040516104a09190614e8a565b60405180910390f35b3480156104b557600080fd5b506104d060048036038101906104cb91906140ea565b610f67565b6040516104dd9190614d2c565b60405180910390f35b3480156104f257600080fd5b506104fb610fa6565b6040516105089190615442565b60405180910390f35b34801561051d57600080fd5b50610526610fb2565b6040516105339190615442565b60405180910390f35b34801561054857600080fd5b50610551610fb8565b60405161055e9190615442565b60405180910390f35b34801561057357600080fd5b5061058e600480360381019061058991906140ea565b610fbe565b60405161059b9190614d2c565b60405180910390f35b3480156105b057600080fd5b506105cb60048036038101906105c691906140ea565b610ff1565b005b3480156105d957600080fd5b506105e2611364565b6040516105ef9190615442565b60405180910390f35b34801561060457600080fd5b5061060d611376565b60405161061a9190614e8a565b60405180910390f35b34801561062f57600080fd5b5061063861138d565b6040516106459190614e8a565b60405180910390f35b34801561065a57600080fd5b506106636113a0565b6040516106709190615442565b60405180910390f35b34801561068557600080fd5b506106a0600480360381019061069b9190613fe4565b6113b2565b6040516106ae92919061545d565b60405180910390f35b3480156106c357600080fd5b506106cc61143b565b6040516106d99190615442565b60405180910390f35b3480156106ee57600080fd5b5061070960048036038101906107049190613fe4565b611441565b60405161071893929190614ea5565b60405180910390f35b34801561072d57600080fd5b5061074860048036038101906107439190613fe4565b611485565b6040516107559190615442565b60405180910390f35b610778600480360381019061077391906140ea565b61149d565b005b34801561078657600080fd5b5061078f6117a5565b005b34801561079d57600080fd5b506107a6611943565b6040516107b39190615442565b60405180910390f35b3480156107c857600080fd5b506107d1611949565b005b3480156107df57600080fd5b506107fa60048036038101906107f591906140ea565b611a83565b6040516108079190615442565b60405180910390f35b34801561081c57600080fd5b5061083760048036038101906108329190613fe4565b611aa7565b005b34801561084557600080fd5b50610860600480360381019061085b9190614049565b611c94565b60405161086d9190615442565b60405180910390f35b34801561088257600080fd5b5061089d6004803603810190610898919061400d565b611cc5565b005b3480156108ab57600080fd5b506108b4611fbe565b6040516108c19190614edc565b60405180910390f35b3480156108d657600080fd5b506108df611fc4565b6040516108ec9190614d2c565b60405180910390f35b34801561090157600080fd5b5061090a611fed565b6040516109179190615442565b60405180910390f35b34801561092c57600080fd5b50610947600480360381019061094291906140ea565b611ff3565b60405161095592919061545d565b60405180910390f35b34801561096a57600080fd5b506109736120da565b6040516109809190615442565b60405180910390f35b34801561099557600080fd5b506109b060048036038101906109ab91906140ae565b6120e0565b005b3480156109be57600080fd5b506109c761217c565b6040516109d49190615442565b60405180910390f35b6109e5612182565b005b3480156109f357600080fd5b50610a0e6004803603810190610a099190613fe4565b6125e0565b604051610a1b9190615442565b60405180910390f35b348015610a3057600080fd5b50610a3961262c565b604051610a469190614e8a565b60405180910390f35b348015610a5b57600080fd5b50610a646126f9565b604051610a719190615442565b60405180910390f35b348015610a8657600080fd5b50610a8f6126ff565b604051610a9c9190615442565b60405180910390f35b348015610ab157600080fd5b50610acc6004803603810190610ac79190613fe4565b612711565b604051610ad99190614e8a565b60405180910390f35b348015610aee57600080fd5b50610af761276a565b604051610b049190614d2c565b60405180910390f35b348015610b1957600080fd5b50610b22612790565b604051610b2f9190614e8a565b60405180910390f35b348015610b4457600080fd5b50610b5f6004803603810190610b5a91906140ea565b6127ad565b604051610b6f9493929190614fb6565b60405180910390f35b348015610b8457600080fd5b50610b8d612875565b604051610b9a9190615442565b60405180910390f35b348015610baf57600080fd5b50610bca6004803603810190610bc59190613fe4565b61287b565b604051610bd79190614e8a565b60405180910390f35b348015610bec57600080fd5b50610bf561289b565b604051610c029190615442565b60405180910390f35b348015610c1757600080fd5b50610c206128a1565b604051610c2d9190614f80565b60405180910390f35b348015610c4257600080fd5b50610c4b6128c7565b604051610c589190615442565b60405180910390f35b348015610c6d57600080fd5b50610c766128cd565b604051610c839190615442565b60405180910390f35b348015610c9857600080fd5b50610ca16128d2565b604051610cae9190614e8a565b60405180910390f35b348015610cc357600080fd5b50610ccc6128e5565b604051610cd99190614f65565b60405180910390f35b348015610cee57600080fd5b50610cf761290b565b604051610d049190614e46565b60405180910390f35b348015610d1957600080fd5b50610d22612961565b604051610d2f9190614f65565b60405180910390f35b348015610d4457600080fd5b50610d4d612987565b604051610d5a9190615442565b60405180910390f35b348015610d6f57600080fd5b50610d7861298d565b604051610d859190615442565b60405180910390f35b348015610d9a57600080fd5b50610da3612993565b604051610db09190615442565b60405180910390f35b348015610dc557600080fd5b50610dce6129be565b604051610ddb9190615442565b60405180910390f35b348015610df057600080fd5b50610e0b6004803603810190610e0691906140ea565b6129c4565b005b348015610e1957600080fd5b50610e346004803603810190610e2f9190613fe4565b612dcb565b005b348015610e4257600080fd5b50610e4b612f74565b604051610e589190615442565b60405180910390f35b348015610e6d57600080fd5b50610e76612f7a565b604051610e839190614f9b565b60405180910390f35b348015610e9857600080fd5b50610eb36004803603810190610eae91906140ea565b612fa0565b005b610e1060a8610ec4919061576a565b81565b6060610ed1611376565b610f10576040517f08c379a0000000000000000000000000000000000000000000000000000000008152600401610f0790615362565b60405180910390fd5b6000610f1d60165461326e565b9050610f2d600060165483613290565b91505090565b6000600c80549050905090565b6000610f4b82612711565b1580610f6057506002610f5d836125e0565b14155b9050919050565b600c8181548110610f7757600080fd5b906000526020600020016000915054906101000a900473ffffffffffffffffffffffffffffffffffffffff1681565b6729a2241af62c000081565b60075481565b60205481565b60176020528060005260406000206000915054906101000a900473ffffffffffffffffffffffffffffffffffffffff1681565b426008541115611036576040517f08c379a000000000000000000000000000000000000000000000000000000000815260040161102d906152a2565b60405180910390fd5b42610e106078611046919061576a565b6008546110539190615572565b1015611094576040517f08c379a000000000000000000000000000000000000000000000000000000000815260040161108b90615302565b60405180910390fd5b600260015414156110da576040517f08c379a00000000000000000000000000000000000000000000000000000000081526004016110d190615402565b60405180910390fd5b60026001819055506110eb33610f40565b61112a576040517f08c379a000000000000000000000000000000000000000000000000000000000815260040161112190615062565b60405180910390fd5b60006016549050600360009054906101000a900473ffffffffffffffffffffffffffffffffffffffff1673ffffffffffffffffffffffffffffffffffffffff166323b872dd33611178611fc4565b6729a2241af62c00008661118c919061576a565b6040518463ffffffff1660e01b81526004016111aa93929190614d47565b602060405180830381600087803b1580156111c457600080fd5b505af11580156111d8573d6000803e3d6000fd5b505050506040513d601f19601f820116820180604052508101906111fc9190614085565b5060005b828110156112e957336017600083856112199190615572565b815260200190815260200160002060006101000a81548173ffffffffffffffffffffffffffffffffffffffff021916908373ffffffffffffffffffffffffffffffffffffffff160217905550601960003373ffffffffffffffffffffffffffffffffffffffff1673ffffffffffffffffffffffffffffffffffffffff16815260200190815260200160002081836112b09190615572565b908060018154018082558091505060019003906000526020600020016000909190919091505580806112e19061593a565b915050611200565b5081601860003373ffffffffffffffffffffffffffffffffffffffff1673ffffffffffffffffffffffffffffffffffffffff16815260200190815260200160002060008282546113399190615572565b9250508190555081601660008282546113529190615572565b92505081905550506001808190555050565b610e106018611373919061576a565b81565b6000601560019054906101000a900460ff16905090565b600d60009054906101000a900460ff1681565b610e1060186113af919061576a565b81565b600080611400600b60008573ffffffffffffffffffffffffffffffffffffffff1673ffffffffffffffffffffffffffffffffffffffff16815260200190815260200160002060010154611ff3565b809250819350505060008061141485613499565b9150915081846114249190615572565b935080836114329190615572565b92505050915091565b60145481565b600b6020528060005260406000206000915090508060000160009054906101000a900460ff16908060010154908060020160009054906101000a900460ff16905083565b60186020528060005260406000206000915090505481565b600260015414156114e3576040517f08c379a00000000000000000000000000000000000000000000000000000000081526004016114da90615402565b60405180910390fd5b600260018190555060006114f682611a83565b9050611500612790565b61153f576040517f08c379a000000000000000000000000000000000000000000000000000000000815260040161153690615102565b60405180910390fd5b61154833612711565b611587576040517f08c379a000000000000000000000000000000000000000000000000000000000815260040161157e906153e2565b60405180910390fd5b610e106018611596919061576a565b6009546115a39190615572565b4210156115e5576040517f08c379a00000000000000000000000000000000000000000000000000000000081526004016115dc906151e2565b60405180910390fd5b600082141580156115f857506007548211155b611637576040517f08c379a000000000000000000000000000000000000000000000000000000000815260040161162e90615002565b60405180910390fd5b803414611679576040517f08c379a000000000000000000000000000000000000000000000000000000000815260040161167090615042565b60405180910390fd5b600460009054906101000a900473ffffffffffffffffffffffffffffffffffffffff1673ffffffffffffffffffffffffffffffffffffffff1663a9059cbb33846040518363ffffffff1660e01b81526004016116d6929190614d7e565b602060405180830381600087803b1580156116f057600080fd5b505af1158015611704573d6000803e3d6000fd5b505050506040513d601f19601f820116820180604052508101906117289190614085565b50816007600082825461173b91906157c4565b9250508190555061174a61350d565b3373ffffffffffffffffffffffffffffffffffffffff167f12cb4648cf3058b17ceeb33e579f8b0bc269fe0843f3900b8e24b6c54871703c838360405161179292919061545d565b60405180910390a2506001808190555050565b601560009054906101000a900460ff16156117f5576040517f08c379a00000000000000000000000000000000000000000000000000000000081526004016117ec906150c2565b60405180910390fd5b6001601560006101000a81548160ff02191690831515021790555042610e106078611820919061576a565b60085461182d9190615572565b111561186e576040517f08c379a000000000000000000000000000000000000000000000000000000000815260040161186590615242565b60405180910390fd5b4260095410156118b3576040517f08c379a00000000000000000000000000000000000000000000000000000000081526004016118aa906150e2565b60405180910390fd5b600260015414156118f9576040517f08c379a00000000000000000000000000000000000000000000000000000000081526004016118f090615402565b60405180910390fd5b60026001819055506000336040516020016119149190614cd0565b6040516020818303038152906040528051906020012060001c90506119388161358b565b505060018081905550565b600a5481565b611951613690565b73ffffffffffffffffffffffffffffffffffffffff1661196f611fc4565b73ffffffffffffffffffffffffffffffffffffffff16146119c5576040517f08c379a00000000000000000000000000000000000000000000000000000000081526004016119bc906152e2565b60405180910390fd5b600073ffffffffffffffffffffffffffffffffffffffff1660008054906101000a900473ffffffffffffffffffffffffffffffffffffffff1673ffffffffffffffffffffffffffffffffffffffff167f8be0079c531659141344cd1fd0a4f28419497f9722a3daafe3b4186f6b6457e060405160405180910390a360008060006101000a81548173ffffffffffffffffffffffffffffffffffffffff021916908373ffffffffffffffffffffffffffffffffffffffff160217905550565b600060055460065483611a96919061576a565b611aa091906155c8565b9050919050565b611aaf613690565b73ffffffffffffffffffffffffffffffffffffffff16611acd611fc4565b73ffffffffffffffffffffffffffffffffffffffff1614611b23576040517f08c379a0000000000000000000000000000000000000000000000000000000008152600401611b1a906152e2565b60405180910390fd5b6000611b2d612790565b15611b4457610e106018611b41919061576a565b90505b600d60009054906101000a900460ff16611b93576040517f08c379a0000000000000000000000000000000000000000000000000000000008152600401611b8a90615422565b60405180910390fd5b4281600a54611ba29190615572565b1115611be3576040517f08c379a0000000000000000000000000000000000000000000000000000000008152600401611bda90615222565b60405180910390fd5b60008273ffffffffffffffffffffffffffffffffffffffff1647604051611c0990614d17565b60006040518083038185875af1925050503d8060008114611c46576040519150601f19603f3d011682016040523d82523d6000602084013e611c4b565b606091505b5050905080611c8f576040517f08c379a0000000000000000000000000000000000000000000000000000000008152600401611c8690615262565b60405180910390fd5b505050565b60196020528160005260406000208181548110611cb057600080fd5b90600052602060002001600091509150505481565b611ccd613690565b73ffffffffffffffffffffffffffffffffffffffff16611ceb611fc4565b73ffffffffffffffffffffffffffffffffffffffff1614611d41576040517f08c379a0000000000000000000000000000000000000000000000000000000008152600401611d38906152e2565b60405180910390fd5b6000611d4b612790565b15611d6257610e106018611d5f919061576a565b90505b600d60009054906101000a900460ff16611db1576040517f08c379a0000000000000000000000000000000000000000000000000000000008152600401611da890615422565b60405180910390fd5b4281600a54611dc09190615572565b1115611e01576040517f08c379a0000000000000000000000000000000000000000000000000000000008152600401611df890615222565b60405180910390fd5b602260009054906101000a900473ffffffffffffffffffffffffffffffffffffffff1673ffffffffffffffffffffffffffffffffffffffff168373ffffffffffffffffffffffffffffffffffffffff161415611e9d57601e54421015611e9c576040517f08c379a0000000000000000000000000000000000000000000000000000000008152600401611e9390615202565b60405180910390fd5b5b60008390508073ffffffffffffffffffffffffffffffffffffffff1663a9059cbb848373ffffffffffffffffffffffffffffffffffffffff166370a08231306040518263ffffffff1660e01b8152600401611ef89190614d2c565b60206040518083038186803b158015611f1057600080fd5b505afa158015611f24573d6000803e3d6000fd5b505050506040513d601f19601f82011682018060405250810190611f489190614113565b6040518363ffffffff1660e01b8152600401611f65929190614d7e565b602060405180830381600087803b158015611f7f57600080fd5b505af1158015611f93573d6000803e3d6000fd5b505050506040513d601f19601f82011682018060405250810190611fb79190614085565b5050505050565b60135481565b60008060009054906101000a900473ffffffffffffffffffffffffffffffffffffffff16905090565b60165481565b6000806000600e8481548110612032577f4e487b7100000000000000000000000000000000000000000000000000000000600052603260045260246000fd5b906000526020600020906004020190506000841480612055575060008160030154145b156120675760008092509250506120d5565b60008160030154600f5461207b919061576a565b826002015460055461208d919061576a565b61209791906155c8565b905060008260030154600f546120ad919061576a565b83600201546006546120bf919061576a565b6120c991906155c8565b90508181945094505050505b915091565b610e1081565b7f000000000000000000000000000000000000000000000000000000000000000073ffffffffffffffffffffffffffffffffffffffff163373ffffffffffffffffffffffffffffffffffffffff161461216e576040517f08c379a000000000000000000000000000000000000000000000000000000000815260040161216590615322565b60405180910390fd5b6121788282613698565b5050565b600f5481565b6000429050600d60009054906101000a900460ff166121d6576040517f08c379a00000000000000000000000000000000000000000000000000000000081526004016121cd90615422565b60405180910390fd5b600b60003373ffffffffffffffffffffffffffffffffffffffff1673ffffffffffffffffffffffffffffffffffffffff16815260200190815260200160002060000160009054906101000a900460ff16612265576040517f08c379a000000000000000000000000000000000000000000000000000000000815260040161225c90615082565b60405180910390fd5b600b60003373ffffffffffffffffffffffffffffffffffffffff1673ffffffffffffffffffffffffffffffffffffffff16815260200190815260200160002060020160009054906101000a900460ff16156122f5576040517f08c379a00000000000000000000000000000000000000000000000000000000081526004016122ec906151a2565b60405180910390fd5b80600954111580156123225750610e106018612311919061576a565b60095461231e9190615572565b8111155b612361576040517f08c379a0000000000000000000000000000000000000000000000000000000008152600401612358906153c2565b60405180910390fd5b600260015414156123a7576040517f08c379a000000000000000000000000000000000000000000000000000000000815260040161239e90615402565b60405180910390fd5b60026001819055506000600b60003373ffffffffffffffffffffffffffffffffffffffff1673ffffffffffffffffffffffffffffffffffffffff16815260200190815260200160002090506000806123fe336113b2565b9150915060008114158015612414575060008214155b612453576040517f08c379a000000000000000000000000000000000000000000000000000000000815260040161244a90615342565b60405180910390fd5b348114612495576040517f08c379a000000000000000000000000000000000000000000000000000000000815260040161248c90615022565b60405180910390fd5b60018360020160006101000a81548160ff02191690831515021790555081600760008282546124c491906157c4565b92505081905550600460009054906101000a900473ffffffffffffffffffffffffffffffffffffffff1673ffffffffffffffffffffffffffffffffffffffff1663a9059cbb33846040518363ffffffff1660e01b8152600401612528929190614d7e565b602060405180830381600087803b15801561254257600080fd5b505af1158015612556573d6000803e3d6000fd5b505050506040513d601f19601f8201168201806040525081019061257a9190614085565b5061258361350d565b3373ffffffffffffffffffffffffffffffffffffffff167f12cb4648cf3058b17ceeb33e579f8b0bc269fe0843f3900b8e24b6c54871703c83836040516125cb92919061545d565b60405180910390a25050506001808190555050565b6000600b60008373ffffffffffffffffffffffffffffffffffffffff1673ffffffffffffffffffffffffffffffffffffffff168152602001908152602001600020600101549050919050565b6000806000905061263b612790565b1561265257610e10601861264f919061576a565b90505b600d60009054906101000a900460ff166126a1576040517f08c379a000000000000000000000000000000000000000000000000000000000815260040161269890615422565b60405180910390fd5b4281600a546126b09190615572565b11156126f1576040517f08c379a00000000000000000000000000000000000000000000000000000000081526004016126e890615222565b60405180910390fd5b600191505090565b60085481565b610e10607861270e919061576a565b81565b6000600b60008373ffffffffffffffffffffffffffffffffffffffff1673ffffffffffffffffffffffffffffffffffffffff16815260200190815260200160002060000160009054906101000a900460ff169050919050565b602260009054906101000a900473ffffffffffffffffffffffffffffffffffffffff1681565b60008060075411156127a557600190506127aa565b600090505b90565b600e81815481106127bd57600080fd5b90600052602060002090600402016000915090508060000180546127e090615908565b80601f016020809104026020016040519081016040528092919081815260200182805461280c90615908565b80156128595780601f1061282e57610100808354040283529160200191612859565b820191906000526020600020905b81548152906001019060200180831161283c57829003601f168201915b5050505050908060010154908060020154908060030154905084565b60055481565b601a6020528060005260406000206000915054906101000a900460ff1681565b601b5481565b600260009054906101000a900473ffffffffffffffffffffffffffffffffffffffff1681565b601d5481565b600281565b601f60009054906101000a900460ff1681565b600460009054906101000a900473ffffffffffffffffffffffffffffffffffffffff1681565b6060612915611376565b612954576040517f08c379a000000000000000000000000000000000000000000000000000000000815260040161294b90615362565b60405180910390fd5b61295c6136b2565b905090565b600360009054906101000a900473ffffffffffffffffffffffffffffffffffffffff1681565b601c5481565b601e5481565b610e1060186129a2919061576a565b610e1060786129b1919061576a565b6129bb9190615572565b81565b60065481565b6000429050600d60009054906101000a900460ff16612a18576040517f08c379a0000000000000000000000000000000000000000000000000000000008152600401612a0f90615422565b60405180910390fd5b600b60003373ffffffffffffffffffffffffffffffffffffffff1673ffffffffffffffffffffffffffffffffffffffff16815260200190815260200160002060000160009054906101000a900460ff1615612aa8576040517f08c379a0000000000000000000000000000000000000000000000000000000008152600401612a9f90615122565b60405180910390fd5b8060085411158015612ad55750610e106078612ac4919061576a565b600854612ad19190615572565b8111155b612b14576040517f08c379a0000000000000000000000000000000000000000000000000000000008152600401612b0b906153a2565b60405180910390fd5b8180600111158015612b27575060058111155b612b66576040517f08c379a0000000000000000000000000000000000000000000000000000000008152600401612b5d90615142565b60405180910390fd5b6000600260009054906101000a900473ffffffffffffffffffffffffffffffffffffffff1673ffffffffffffffffffffffffffffffffffffffff166360217267336040518263ffffffff1660e01b8152600401612bc39190614d2c565b60206040518083038186803b158015612bdb57600080fd5b505afa158015612bef573d6000803e3d6000fd5b505050506040513d601f19601f82011682018060405250810190612c139190614113565b905080600e8381548110612c50577f4e487b7100000000000000000000000000000000000000000000000000000000600052603260045260246000fd5b9060005260206000209060040201600101541115612ca3576040517f08c379a0000000000000000000000000000000000000000000000000000000008152600401612c9a906151c2565b60405180910390fd5b60026001541415612ce9576040517f08c379a0000000000000000000000000000000000000000000000000000000008152600401612ce090615402565b60405180910390fd5b6002600181905550600260009054906101000a900473ffffffffffffffffffffffffffffffffffffffff1673ffffffffffffffffffffffffffffffffffffffff1663282d3fdf33610e1060a8612d3f919061576a565b610e106018612d4e919061576a565b600954612d5b9190615572565b612d659190615572565b6040518363ffffffff1660e01b8152600401612d82929190614d7e565b600060405180830381600087803b158015612d9c57600080fd5b505af1158015612db0573d6000803e3d6000fd5b50505050612dbe3385613857565b6001808190555050505050565b612dd3613690565b73ffffffffffffffffffffffffffffffffffffffff16612df1611fc4565b73ffffffffffffffffffffffffffffffffffffffff1614612e47576040517f08c379a0000000000000000000000000000000000000000000000000000000008152600401612e3e906152e2565b60405180910390fd5b600073ffffffffffffffffffffffffffffffffffffffff168173ffffffffffffffffffffffffffffffffffffffff161415612eb7576040517f08c379a0000000000000000000000000000000000000000000000000000000008152600401612eae906150a2565b60405180910390fd5b8073ffffffffffffffffffffffffffffffffffffffff1660008054906101000a900473ffffffffffffffffffffffffffffffffffffffff1673ffffffffffffffffffffffffffffffffffffffff167f8be0079c531659141344cd1fd0a4f28419497f9722a3daafe3b4186f6b6457e060405160405180910390a3806000806101000a81548173ffffffffffffffffffffffffffffffffffffffff021916908373ffffffffffffffffffffffffffffffffffffffff16021790555050565b60095481565b602160009054906101000a900473ffffffffffffffffffffffffffffffffffffffff1681565b612fa8613690565b73ffffffffffffffffffffffffffffffffffffffff16612fc6611fc4565b73ffffffffffffffffffffffffffffffffffffffff161461301c576040517f08c379a0000000000000000000000000000000000000000000000000000000008152600401613013906152e2565b60405180910390fd5b600d60009054906101000a900460ff161561306c576040517f08c379a000000000000000000000000000000000000000000000000000000000815260040161306390615182565b60405180910390fd5b428110156130af576040517f08c379a00000000000000000000000000000000000000000000000000000000081526004016130a690615282565b60405180910390fd5b80600881905550610e1060186130c5919061576a565b610e1060786130d4919061576a565b6130de9190615572565b6008546130eb9190615572565b600981905550610e106018613100919061576a565b60095461310d9190615572565b600a81905550601b546005546131239190615572565b600460009054906101000a900473ffffffffffffffffffffffffffffffffffffffff1673ffffffffffffffffffffffffffffffffffffffff166370a08231306040518263ffffffff1660e01b815260040161317e9190614d2c565b60206040518083038186803b15801561319657600080fd5b505afa1580156131aa573d6000803e3d6000fd5b505050506040513d601f19601f820116820180604052508101906131ce9190614113565b101561320f576040517f08c379a0000000000000000000000000000000000000000000000000000000008152600401613206906152c2565b60405180910390fd5b7f2bb1a17c53695feb3f7706dfa7a6cfd959e5d1b0342d6dce407dd8921cba6638600854600954600a5460405161324893929190615486565b60405180910390a16001600d60006101000a81548160ff02191690831515021790555050565b6000600160648361327f91906155c8565b6132899190615572565b9050919050565b60608167ffffffffffffffff8111156132d2577f4e487b7100000000000000000000000000000000000000000000000000000000600052604160045260246000fd5b6040519080825280602002602001820160405280156133005781602001602082028036833780820191505090505b509050600060145490506000858561331891906157c4565b90508381101561335d576040517f08c379a000000000000000000000000000000000000000000000000000000000815260040161335490615382565b60405180910390fd5b600060fb905060005b8581101561348e576000888460028561337f919061564c565b8761338a9190615572565b61339491906159bb565b61339e9190615572565b90506000805b6001846133b19190615572565b81101561341c578781815181106133f1577f4e487b7100000000000000000000000000000000000000000000000000000000600052603260045260246000fd5b6020026020010151831415613409576001915061341c565b80806134149061593a565b9150506133a4565b5080613478578187848151811061345c577f4e487b7100000000000000000000000000000000000000000000000000000000600052603260045260246000fd5b6020026020010181815250506001836134759190615572565b92505b6001846134859190615572565b93505050613366565b505050509392505050565b60008060009050809150601a60008473ffffffffffffffffffffffffffffffffffffffff1673ffffffffffffffffffffffffffffffffffffffff16815260200190815260200160002060009054906101000a900460ff1615613508576134ff6002611ff3565b80925081935050505b915091565b613515613a11565b801561352e5750601f60009054906101000a900460ff16155b1561358957613541601b54601c54613a1e565b602060008282546135529190615572565b92505081905550601d54426135679190615572565b601e819055506001601f60006101000a81548160ff0219169083151502179055505b565b60006012547f000000000000000000000000000000000000000000000000000000000000000073ffffffffffffffffffffffffffffffffffffffff166370a08231306040518263ffffffff1660e01b81526004016135e99190614d2c565b60206040518083038186803b15801561360157600080fd5b505afa158015613615573d6000803e3d6000fd5b505050506040513d601f19601f820116820180604052508101906136399190614113565b101561367a576040517f08c379a000000000000000000000000000000000000000000000000000000000815260040161367190615162565b60405180910390fd5b61368960115460125484613be9565b9050919050565b600033905090565b81601381905550806014819055506136ae613d4a565b5050565b606060006136c160165461326e565b90508067ffffffffffffffff811115613703577f4e487b7100000000000000000000000000000000000000000000000000000000600052604160045260246000fd5b6040519080825280602002602001820160405280156137315781602001602082028036833780820191505090505b5091506000613744600060165484613290565b905060005b8281101561385157600060176000848481518110613790577f4e487b7100000000000000000000000000000000000000000000000000000000600052603260045260246000fd5b6020026020010151815260200190815260200160002060009054906101000a900473ffffffffffffffffffffffffffffffffffffffff16905080858381518110613803577f4e487b7100000000000000000000000000000000000000000000000000000000600052603260045260246000fd5b602002602001019073ffffffffffffffffffffffffffffffffffffffff16908173ffffffffffffffffffffffffffffffffffffffff16815250505080806138499061593a565b915050613749565b50505090565b6001600b60008473ffffffffffffffffffffffffffffffffffffffff1673ffffffffffffffffffffffffffffffffffffffff16815260200190815260200160002060000160006101000a81548160ff02191690831515021790555080600b60008473ffffffffffffffffffffffffffffffffffffffff1673ffffffffffffffffffffffffffffffffffffffff168152602001908152602001600020600101819055506001600e8281548110613935577f4e487b7100000000000000000000000000000000000000000000000000000000600052603260045260246000fd5b906000526020600020906004020160030160008282546139559190615572565b92505081905550600c829080600181540180825580915050600190039060005260206000200160009091909190916101000a81548173ffffffffffffffffffffffffffffffffffffffff021916908373ffffffffffffffffffffffffffffffffffffffff1602179055503373ffffffffffffffffffffffffffffffffffffffff167ff6c60b059f60c86b2d612b237ac38bd87bc1f68f87600cd360d68351af1ca95f82604051613a059190615442565b60405180910390a25050565b6000601c54471015905090565b6000600460009054906101000a900473ffffffffffffffffffffffffffffffffffffffff1673ffffffffffffffffffffffffffffffffffffffff1663095ea7b3602160009054906101000a900473ffffffffffffffffffffffffffffffffffffffff16856040518363ffffffff1660e01b8152600401613a9f929190614d7e565b602060405180830381600087803b158015613ab957600080fd5b505af1158015613acd573d6000803e3d6000fd5b505050506040513d601f19601f82011682018060405250810190613af19190614085565b50602160009054906101000a900473ffffffffffffffffffffffffffffffffffffffff1673ffffffffffffffffffffffffffffffffffffffff1663f305d71983600460009054906101000a900473ffffffffffffffffffffffffffffffffffffffff16866000803061016842613b679190615572565b6040518863ffffffff1660e01b8152600401613b8896959493929190614de5565b6060604051808303818588803b158015613ba157600080fd5b505af1158015613bb5573d6000803e3d6000fd5b50505050506040513d601f19601f82011682018060405250810190613bda919061413c565b90915090508091505092915050565b60007f000000000000000000000000000000000000000000000000000000000000000073ffffffffffffffffffffffffffffffffffffffff16634000aea07f0000000000000000000000000000000000000000000000000000000000000000858786604051602001613c5c929190614ef7565b6040516020818303038152906040526040518463ffffffff1660e01b8152600401613c8993929190614da7565b602060405180830381600087803b158015613ca357600080fd5b505af1158015613cb7573d6000803e3d6000fd5b505050506040513d601f19601f82011682018060405250810190613cdb9190614085565b506000613cfd858430601060008a815260200190815260200160002054613d6f565b905060016010600087815260200190815260200160002054613d1f9190615572565b6010600087815260200190815260200160002081905550613d408582613dab565b9150509392505050565b6001601560016101000a81548160ff021916908315150217905550613d6d613dde565b565b600084848484604051602001613d889493929190614f20565b6040516020818303038152906040528051906020012060001c9050949350505050565b60008282604051602001613dc0929190614ceb565b60405160208183030381529060405280519060200120905092915050565b6000613de86136b2565b905060005b8151811015613f77576000828281518110613e31577f4e487b7100000000000000000000000000000000000000000000000000000000600052603260045260246000fd5b60200260200101519050600060029050601a60008373ffffffffffffffffffffffffffffffffffffffff1673ffffffffffffffffffffffffffffffffffffffff16815260200190815260200160002060009054906101000a900460ff16158015613ea3575080613ea0836125e0565b14155b15613f62576001601a60008473ffffffffffffffffffffffffffffffffffffffff1673ffffffffffffffffffffffffffffffffffffffff16815260200190815260200160002060006101000a81548160ff021916908315150217905550600e8181548110613f3a577f4e487b7100000000000000000000000000000000000000000000000000000000600052603260045260246000fd5b90600052602060002090600402016003016000815480929190613f5c9061593a565b91905055505b50508080613f6f9061593a565b915050613ded565b5050565b600081359050613f8a81615aa4565b92915050565b600081519050613f9f81615abb565b92915050565b600081359050613fb481615ad2565b92915050565b600081359050613fc981615ae9565b92915050565b600081519050613fde81615ae9565b92915050565b600060208284031215613ff657600080fd5b600061400484828501613f7b565b91505092915050565b6000806040838503121561402057600080fd5b600061402e85828601613f7b565b925050602061403f85828601613f7b565b9150509250929050565b6000806040838503121561405c57600080fd5b600061406a85828601613f7b565b925050602061407b85828601613fba565b9150509250929050565b60006020828403121561409757600080fd5b60006140a584828501613f90565b91505092915050565b600080604083850312156140c157600080fd5b60006140cf85828601613fa5565b92505060206140e085828601613fba565b9150509250929050565b6000602082840312156140fc57600080fd5b600061410a84828501613fba565b91505092915050565b60006020828403121561412557600080fd5b600061413384828501613fcf565b91505092915050565b60008060006060848603121561415157600080fd5b600061415f86828701613fcf565b935050602061417086828701613fcf565b925050604061418186828701613fcf565b9150509250925092565b600061419783836141bb565b60208301905092915050565b60006141af8383614c9b565b60208301905092915050565b6141c4816157f8565b82525050565b6141d3816157f8565b82525050565b6141ea6141e5826157f8565b615983565b82525050565b60006141fb826154dd565b6142058185615523565b9350614210836154bd565b8060005b83811015614241578151614228888261418b565b975061423383615509565b925050600181019050614214565b5085935050505092915050565b6000614259826154e8565b6142638185615534565b935061426e836154cd565b8060005b8381101561429f57815161428688826141a3565b975061429183615516565b925050600181019050614272565b5085935050505092915050565b6142b58161580a565b82525050565b6142c481615816565b82525050565b6142db6142d682615816565b615995565b82525050565b60006142ec826154f3565b6142f68185615545565b93506143068185602086016158d5565b61430f81615a79565b840191505092915050565b61432381615857565b82525050565b6143328161587b565b82525050565b6143418161589f565b82525050565b614350816158c3565b82525050565b6000614361826154fe565b61436b8185615561565b935061437b8185602086016158d5565b61438481615a79565b840191505092915050565b600061439c601483615561565b91507f464346533a20496e76616c696420416d6f756e740000000000000000000000006000830152602082019050919050565b60006143dc601483615561565b91507f4e6f742056616c69642045746820416d6f756e740000000000000000000000006000830152602082019050919050565b600061441c601783615561565b91507f464346533a20496e76616c6964204574682056616c75650000000000000000006000830152602082019050919050565b600061445c601b83615561565b91507f416c72656164792050617274696369706174656420496e2049444f00000000006000830152602082019050919050565b600061449c600e83615561565b91507f4e6f7420726567697374657265640000000000000000000000000000000000006000830152602082019050919050565b60006144dc602683615561565b91507f4f776e61626c653a206e6577206f776e657220697320746865207a65726f206160008301527f64647265737300000000000000000000000000000000000000000000000000006020830152604082019050919050565b6000614542601683615561565b91507f416c72656164792047656e657261746564204f6e6365000000000000000000006000830152602082019050919050565b6000614582601383615561565b91507f526166666c653a204f7574204f662054696d65000000000000000000000000006000830152602082019050919050565b60006145c2601083615561565b91507f464346533a204e6f74204e6565646564000000000000000000000000000000006000830152602082019050919050565b6000614602601283615561565b91507f416c7265616479207265676973746572656400000000000000000000000000006000830152602082019050919050565b6000614642600f83615561565b91507f696e76616c696420506f6f6c206e6f00000000000000000000000000000000006000830152602082019050919050565b6000614682602b83615561565b91507f4e6f7420656e6f756768204c494e4b202d2066696c6c20636f6e74726163742060008301527f77697468206661756365740000000000000000000000000000000000000000006020830152604082019050919050565b60006146e8601383615561565b91507f416c726561647920496e697469616c697a6564000000000000000000000000006000830152602082019050919050565b6000614728601183615561565b91507f416c7265616479205075726368617365640000000000000000000000000000006000830152602082019050919050565b6000614768601d83615561565b91507f43616e277420506172746963697061746520696e2074686520506f6f6c0000006000830152602082019050919050565b60006147a8601d83615561565b91507f464346533a20546965722053616c65206e6f7420456e646564205965740000006000830152602082019050919050565b60006147e8601383615561565b91507f4c6971756964697479204973204c6f636b6564000000000000000000000000006000830152602082019050919050565b6000614828601883615561565b91507f464346533a2053616c65204e6f7420456e6465642059657400000000000000006000830152602082019050919050565b6000614868602083615561565b91507f526166666c653a2050617274696369706174696f6e204469646e277420456e646000830152602082019050919050565b60006148a8601583615561565b91507f556e61626c6520546f205265636f7665722045746800000000000000000000006000830152602082019050919050565b60006148e8601483615561565b91507f49444f2043616e277420426520696e20506173740000000000000000000000006000830152602082019050919050565b6000614928602283615561565b91507f526166666c653a2050617274696369706174696f6e204469646e27742042656760008301527f696e0000000000000000000000000000000000000000000000000000000000006020830152604082019050919050565b600061498e601d83615561565b91507f4e6f7420456e6f75676820546f6b656e7320496e20436f6e74726163740000006000830152602082019050919050565b60006149ce602083615561565b91507f4f776e61626c653a2063616c6c6572206973206e6f7420746865206f776e65726000830152602082019050919050565b6000614a0e601b83615561565b91507f526166666c653a2050617274696369706174696f6e20456e64656400000000006000830152602082019050919050565b6000614a4e601f83615561565b91507f4f6e6c7920565246436f6f7264696e61746f722063616e2066756c66696c6c006000830152602082019050919050565b6000614a8e601483615561565b91507f56616c7565732043616e2774204265205a65726f0000000000000000000000006000830152602082019050919050565b6000614ace601683615561565b91507f57696e6e6572204e6f74204465636964656420596574000000000000000000006000830152602082019050919050565b6000614b0e600c83615561565b91507f496e76616c69642053697a6500000000000000000000000000000000000000006000830152602082019050919050565b6000614b4e601a83615561565b91507f4e6f7420696e20526567697374726174696f6e20506572696f640000000000006000830152602082019050919050565b6000614b8e600083615556565b9150600082019050919050565b6000614ba8601283615561565b91507f4e6f7420696e2053616c6520506572696f6400000000000000000000000000006000830152602082019050919050565b6000614be8601c83615561565b91507f464346533a20596f7520617265206e6f742072656769737465726564000000006000830152602082019050919050565b6000614c28601f83615561565b91507f5265656e7472616e637947756172643a207265656e7472616e742063616c6c006000830152602082019050919050565b6000614c68601383615561565b91507f4e6f7420496e697469616c697a656420596574000000000000000000000000006000830152602082019050919050565b614ca481615840565b82525050565b614cb381615840565b82525050565b614cca614cc582615840565b6159b1565b82525050565b6000614cdc82846141d9565b60148201915081905092915050565b6000614cf782856142ca565b602082019150614d078284614cb9565b6020820191508190509392505050565b6000614d2282614b81565b9150819050919050565b6000602082019050614d4160008301846141ca565b92915050565b6000606082019050614d5c60008301866141ca565b614d6960208301856141ca565b614d766040830184614caa565b949350505050565b6000604082019050614d9360008301856141ca565b614da06020830184614caa565b9392505050565b6000606082019050614dbc60008301866141ca565b614dc96020830185614caa565b8181036040830152614ddb81846142e1565b9050949350505050565b600060c082019050614dfa60008301896141ca565b614e076020830188614caa565b614e146040830187614347565b614e216060830186614347565b614e2e60808301856141ca565b614e3b60a0830184614caa565b979650505050505050565b60006020820190508181036000830152614e6081846141f0565b905092915050565b60006020820190508181036000830152614e82818461424e565b905092915050565b6000602082019050614e9f60008301846142ac565b92915050565b6000606082019050614eba60008301866142ac565b614ec76020830185614caa565b614ed460408301846142ac565b949350505050565b6000602082019050614ef160008301846142bb565b92915050565b6000604082019050614f0c60008301856142bb565b614f196020830184614caa565b9392505050565b6000608082019050614f3560008301876142bb565b614f426020830186614caa565b614f4f60408301856141ca565b614f5c6060830184614caa565b95945050505050565b6000602082019050614f7a600083018461431a565b92915050565b6000602082019050614f956000830184614329565b92915050565b6000602082019050614fb06000830184614338565b92915050565b60006080820190508181036000830152614fd08187614356565b9050614fdf6020830186614caa565b614fec6040830185614caa565b614ff96060830184614caa565b95945050505050565b6000602082019050818103600083015261501b8161438f565b9050919050565b6000602082019050818103600083015261503b816143cf565b9050919050565b6000602082019050818103600083015261505b8161440f565b9050919050565b6000602082019050818103600083015261507b8161444f565b9050919050565b6000602082019050818103600083015261509b8161448f565b9050919050565b600060208201905081810360008301526150bb816144cf565b9050919050565b600060208201905081810360008301526150db81614535565b9050919050565b600060208201905081810360008301526150fb81614575565b9050919050565b6000602082019050818103600083015261511b816145b5565b9050919050565b6000602082019050818103600083015261513b816145f5565b9050919050565b6000602082019050818103600083015261515b81614635565b9050919050565b6000602082019050818103600083015261517b81614675565b9050919050565b6000602082019050818103600083015261519b816146db565b9050919050565b600060208201905081810360008301526151bb8161471b565b9050919050565b600060208201905081810360008301526151db8161475b565b9050919050565b600060208201905081810360008301526151fb8161479b565b9050919050565b6000602082019050818103600083015261521b816147db565b9050919050565b6000602082019050818103600083015261523b8161481b565b9050919050565b6000602082019050818103600083015261525b8161485b565b9050919050565b6000602082019050818103600083015261527b8161489b565b9050919050565b6000602082019050818103600083015261529b816148db565b9050919050565b600060208201905081810360008301526152bb8161491b565b9050919050565b600060208201905081810360008301526152db81614981565b9050919050565b600060208201905081810360008301526152fb816149c1565b9050919050565b6000602082019050818103600083015261531b81614a01565b9050919050565b6000602082019050818103600083015261533b81614a41565b9050919050565b6000602082019050818103600083015261535b81614a81565b9050919050565b6000602082019050818103600083015261537b81614ac1565b9050919050565b6000602082019050818103600083015261539b81614b01565b9050919050565b600060208201905081810360008301526153bb81614b41565b9050919050565b600060208201905081810360008301526153db81614b9b565b9050919050565b600060208201905081810360008301526153fb81614bdb565b9050919050565b6000602082019050818103600083015261541b81614c1b565b9050919050565b6000602082019050818103600083015261543b81614c5b565b9050919050565b60006020820190506154576000830184614caa565b92915050565b60006040820190506154726000830185614caa565b61547f6020830184614caa565b9392505050565b600060608201905061549b6000830186614caa565b6154a86020830185614caa565b6154b56040830184614caa565b949350505050565b6000819050602082019050919050565b6000819050602082019050919050565b600081519050919050565b600081519050919050565b600081519050919050565b600081519050919050565b6000602082019050919050565b6000602082019050919050565b600082825260208201905092915050565b600082825260208201905092915050565b600082825260208201905092915050565b600081905092915050565b600082825260208201905092915050565b600061557d82615840565b915061558883615840565b9250827fffffffffffffffffffffffffffffffffffffffffffffffffffffffffffffffff038211156155bd576155bc6159ec565b5b828201905092915050565b60006155d382615840565b91506155de83615840565b9250826155ee576155ed615a1b565b5b828204905092915050565b6000808291508390505b60018511156156435780860481111561561f5761561e6159ec565b5b600185161561562e5780820291505b808102905061563c85615a97565b9450615603565b94509492505050565b600061565782615840565b91506156628361584a565b925061568f7fffffffffffffffffffffffffffffffffffffffffffffffffffffffffffffffff8484615697565b905092915050565b6000826156a75760019050615763565b816156b55760009050615763565b81600181146156cb57600281146156d557615704565b6001915050615763565b60ff8411156156e7576156e66159ec565b5b8360020a9150848211156156fe576156fd6159ec565b5b50615763565b5060208310610133831016604e8410600b84101617156157395782820a905083811115615734576157336159ec565b5b615763565b61574684848460016155f9565b9250905081840481111561575d5761575c6159ec565b5b81810290505b9392505050565b600061577582615840565b915061578083615840565b9250817fffffffffffffffffffffffffffffffffffffffffffffffffffffffffffffffff04831182151516156157b9576157b86159ec565b5b828202905092915050565b60006157cf82615840565b91506157da83615840565b9250828210156157ed576157ec6159ec565b5b828203905092915050565b600061580382615820565b9050919050565b60008115159050919050565b6000819050919050565b600073ffffffffffffffffffffffffffffffffffffffff82169050919050565b6000819050919050565b600060ff82169050919050565b600061586282615869565b9050919050565b600061587482615820565b9050919050565b60006158868261588d565b9050919050565b600061589882615820565b9050919050565b60006158aa826158b1565b9050919050565b60006158bc82615820565b9050919050565b60006158ce82615840565b9050919050565b60005b838110156158f35780820151818401526020810190506158d8565b83811115615902576000848401525b50505050565b6000600282049050600182168061592057607f821691505b6020821081141561593457615933615a4a565b5b50919050565b600061594582615840565b91507fffffffffffffffffffffffffffffffffffffffffffffffffffffffffffffffff821415615978576159776159ec565b5b600182019050919050565b600061598e8261599f565b9050919050565b6000819050919050565b60006159aa82615a8a565b9050919050565b6000819050919050565b60006159c682615840565b91506159d183615840565b9250826159e1576159e0615a1b565b5b828206905092915050565b7f4e487b7100000000000000000000000000000000000000000000000000000000600052601160045260246000fd5b7f4e487b7100000000000000000000000000000000000000000000000000000000600052601260045260246000fd5b7f4e487b7100000000000000000000000000000000000000000000000000000000600052602260045260246000fd5b6000601f19601f8301169050919050565b60008160601b9050919050565b60008160011c9050919050565b615aad816157f8565b8114615ab857600080fd5b50565b615ac48161580a565b8114615acf57600080fd5b50565b615adb81615816565b8114615ae657600080fd5b50565b615af281615840565b8114615afd57600080fd5b5056fea264697066735822122037721dc2bd2f0b85002e6874bb0629722b10461e6519947f4f77f0576abba41964736f6c63430008000033",
  "immutableReferences": {
    "2567": [
      {
        "length": 32,
        "start": 13714
      },
      {
        "length": 32,
        "start": 15341
      }
    ],
    "2569": [
      {
        "length": 32,
        "start": 8418
      },
      {
        "length": 32,
        "start": 15401
      }
    ]
  },
  "source": "// SPDX-License-Identifier: MIT\r\npragma solidity ^0.8.0;\r\n\r\nimport \"./RaffleWrap.sol\";\r\n\r\ninterface PairInterface {\r\n    \r\n    function sync() external;\r\n\r\n}\r\n\r\ninterface FactoryInterface {\r\n    \r\n    function getPair(address tokenA, address tokenB) external view returns (address pair);\r\n    function createPair(address tokenA, address tokenB) external returns (address pair);\r\n\r\n}\r\n\r\ninterface RouterInterface {\r\n\r\n    function factory() external pure returns (address);\r\n    function WETH() external pure returns (address);\r\n\r\n    function addLiquidityETH(\r\n        address token,\r\n        uint amountTokenDesired,\r\n        uint amountTokenMin,\r\n        uint amountETHMin,\r\n        address to,\r\n        uint deadline\r\n    ) external payable returns (uint amountToken, uint amountETH, uint liquidity);\r\n    \r\n}\r\n\r\ncontract DEXWrap is RaffleWrap {\r\n\r\n    uint256 public tokensToLiquidity;\r\n    uint256 public softCapETH;\r\n    uint256 public lpLockPeriod;\r\n    uint256 public lpLockedTill;\r\n\r\n    bool public isSoftLiquidityAdded;\r\n    uint256 public liquidity = 0;\r\n\r\n    RouterInterface public router;\r\n    address public pairAddress;\r\n    \r\n    event Initialization(uint256 regStart, uint256 saleStart, uint256 fcfsStart);\r\n\r\n    modifier afterFCFSSale() {\r\n        uint256 x = 0;\r\n        if(isFCFSNeeded()) {\r\n            x = fcfsDuration;\r\n        }\r\n        require(isInitialized, \"Not Initialized Yet\");\r\n        require(fcfsStarts + x <= block.timestamp, \"FCFS: Sale Not Ended Yet\");\r\n        _;\r\n    }\r\n\r\n    constructor (\r\n        address _stakerAddress,\r\n        address _nativeTokenAddress,\r\n        address _idoTokenAddress,\r\n        uint256 _idoAmount,\r\n        uint256 _price,\r\n        uint256 _tokensToLiquidity,\r\n        uint256 _softCapETH,\r\n        uint256 _lpLockPeriod\r\n    ) RaffleWrap (\r\n        _stakerAddress,\r\n        _nativeTokenAddress,\r\n        _idoTokenAddress,\r\n        _idoAmount,\r\n        _price\r\n    ) {\r\n        tokensToLiquidity = _tokensToLiquidity;\r\n        softCapETH = _softCapETH;\r\n        lpLockPeriod = _lpLockPeriod;\r\n\r\n        router = RouterInterface(0x7a250d5630B4cF539739dF2C5dAcb4c659F2488D);\r\n        pairAddress = FactoryInterface(router.factory()).getPair(_idoTokenAddress, router.WETH());\r\n        if(pairAddress == address(0)) {\r\n            pairAddress = FactoryInterface(router.factory()).createPair(_idoTokenAddress, router.WETH());\r\n        }\r\n    }\r\n\r\n    function initialize(uint256 time) external onlyOwner notInitialized {\r\n        require(time >= block.timestamp, \"IDO Can't Be in Past\");\r\n\r\n        regStarts = time;\r\n        saleStarts = regStarts + saleStartsAfter;\r\n        fcfsStarts = saleStarts + saleDuration;\r\n\r\n        require(idoToken.balanceOf(address(this)) >= idoTokenSum + tokensToLiquidity, \"Not Enough Tokens In Contract\");\r\n\r\n        emit Initialization(regStarts, saleStarts, fcfsStarts);\r\n    }\r\n\r\n    function _DEXAction() internal override {\r\n        if(_isSoftCapReached() && !isSoftLiquidityAdded) {\r\n            liquidity += _addLiquidity(tokensToLiquidity, softCapETH);\r\n            lpLockedTill = block.timestamp + lpLockPeriod;\r\n            isSoftLiquidityAdded = true;\r\n        }\r\n    }\r\n\r\n    function _isSoftCapReached() internal view returns(bool res) {\r\n        res = address(this).balance >= softCapETH;\r\n    }\r\n\r\n    function _addLiquidity(uint256 _tokenAmount, uint256 _ethAmount) internal returns(uint256 _liquidity) {\r\n\r\n        idoToken.approve(address(router), _tokenAmount);\r\n\r\n        (,, _liquidity) = router.addLiquidityETH{value : _ethAmount}(\r\n            address(idoToken), \r\n            _tokenAmount, \r\n            0, \r\n            0, \r\n            address(this),\r\n            block.timestamp + 360\r\n        );\r\n    }\r\n\r\n    function isFCFSNeeded() public view returns(bool) {\r\n        if(remainingIDOTokens > 0) return true;\r\n        return false;\r\n    }\r\n\r\n    function swapPrice(uint256 amount) public view returns(uint256 price) {\r\n        price = (amount * idoTotalPrice) / idoTokenSum;\r\n    }\r\n\r\n    function fcfsBuy(uint256 amount) public payable nonReentrant {\r\n        uint256 price = swapPrice(amount);\r\n\r\n        require(isFCFSNeeded(), \"FCFS: Not Needed\");\r\n        require(getRegistrationStatus(msg.sender), \"FCFS: You are not registered\");\r\n        require(block.timestamp >= saleStarts + saleDuration, \"FCFS: Tier Sale not Ended Yet\");\r\n        require(amount != 0 && amount <= remainingIDOTokens, \"FCFS: Invalid Amount\");\r\n        require(msg.value == price, \"FCFS: Invalid Eth Value\");\r\n\r\n        idoToken.transfer(msg.sender, amount);\r\n        remainingIDOTokens -= amount;\r\n        _DEXAction();\r\n\r\n        emit Purchase(msg.sender, amount, price);\r\n    }\r\n\r\n    function recoverEth(address to) external onlyOwner afterFCFSSale {\r\n        (bool sent,) = address(to).call{value : address(this).balance}(\"\");\r\n        require(sent, 'Unable To Recover Eth');\r\n    }\r\n\r\n    function recoverERC20(\r\n        address tokenAddress,\r\n        address to\r\n    ) external onlyOwner afterFCFSSale {\r\n        if(tokenAddress == pairAddress) {\r\n            require(block.timestamp >= lpLockedTill, \"Liquidity Is Locked\");\r\n        }\r\n        IERC20Metadata tok = IERC20Metadata(tokenAddress);\r\n        tok.transfer(to, tok.balanceOf(address(this)));\r\n    }\r\n\r\n    function isAfterFCFS() public view afterFCFSSale returns(bool) {\r\n        return true;\r\n    }\r\n    \r\n\r\n    // Receive  External Eth\r\n    event Received(address account, uint eth);\r\n    receive() external payable {\r\n        emit Received(msg.sender, msg.value);\r\n    }\r\n\r\n}",
  "sourcePath": "C:/Users/sudip/Desktop/RealProjects/PolyStarter/contracts/IDOStaker/DEXWrap.sol",
  "compiler": {
    "name": "solc",
    "version": "0.8.0+commit.c7dfd78e.Emscripten.clang"
  },
  "schemaVersion": "3.3.4",
  "updatedAt": "2021-06-29T13:29:46.595Z",
  "devdoc": {
    "kind": "dev",
    "methods": {
      "owner()": {
        "details": "Returns the address of the current owner."
      },
      "renounceOwnership()": {
        "details": "Leaves the contract without owner. It will not be possible to call `onlyOwner` functions anymore. Can only be called by the current owner. NOTE: Renouncing ownership will leave the contract without an owner, thereby removing any functionality that is only available to the owner."
      },
      "transferOwnership(address)": {
        "details": "Transfers ownership of the contract to a new account (`newOwner`). Can only be called by the current owner."
      }
    },
    "version": 1
  },
  "userdoc": {
    "kind": "user",
    "methods": {},
    "version": 1
  }
}