{
  "contractName": "DEXWrap",
  "abi": [
    {
      "inputs": [
        {
          "internalType": "address",
          "name": "_stakerAddress",
          "type": "address"
        },
        {
          "internalType": "address",
          "name": "_nativeTokenAddress",
          "type": "address"
        },
        {
          "internalType": "address",
          "name": "_idoTokenAddress",
          "type": "address"
        },
        {
          "internalType": "uint256",
          "name": "_idoAmount",
          "type": "uint256"
        },
        {
          "internalType": "uint256",
          "name": "_price",
          "type": "uint256"
        },
        {
          "internalType": "uint256",
          "name": "_tokensToLiquidity",
          "type": "uint256"
        },
        {
          "internalType": "uint256",
          "name": "_softCapETH",
          "type": "uint256"
        },
        {
          "internalType": "uint256",
          "name": "_lpLockPeriod",
          "type": "uint256"
        }
      ],
      "stateMutability": "nonpayable",
      "type": "constructor"
    },
    {
      "anonymous": false,
      "inputs": [
        {
          "indexed": false,
          "internalType": "uint256",
          "name": "regStart",
          "type": "uint256"
        },
        {
          "indexed": false,
          "internalType": "uint256",
          "name": "saleStart",
          "type": "uint256"
        },
        {
          "indexed": false,
          "internalType": "uint256",
          "name": "fcfsStart",
          "type": "uint256"
        }
      ],
      "name": "Initialization",
      "type": "event"
    },
    {
      "anonymous": false,
      "inputs": [
        {
          "indexed": true,
          "internalType": "address",
          "name": "previousOwner",
          "type": "address"
        },
        {
          "indexed": true,
          "internalType": "address",
          "name": "newOwner",
          "type": "address"
        }
      ],
      "name": "OwnershipTransferred",
      "type": "event"
    },
    {
      "anonymous": false,
      "inputs": [
        {
          "indexed": true,
          "internalType": "address",
          "name": "",
          "type": "address"
        },
        {
          "indexed": false,
          "internalType": "uint256",
          "name": "tokens",
          "type": "uint256"
        },
        {
          "indexed": false,
          "internalType": "uint256",
          "name": "price",
          "type": "uint256"
        }
      ],
      "name": "Purchase",
      "type": "event"
    },
    {
      "anonymous": false,
      "inputs": [
        {
          "indexed": false,
          "internalType": "address",
          "name": "account",
          "type": "address"
        },
        {
          "indexed": false,
          "internalType": "uint256",
          "name": "eth",
          "type": "uint256"
        }
      ],
      "name": "Received",
      "type": "event"
    },
    {
      "anonymous": false,
      "inputs": [
        {
          "indexed": true,
          "internalType": "address",
          "name": "account",
          "type": "address"
        },
        {
          "indexed": false,
          "internalType": "uint256",
          "name": "poolNo",
          "type": "uint256"
        }
      ],
      "name": "Registration",
      "type": "event"
    },
    {
      "inputs": [],
      "name": "RAFFLE_POOL",
      "outputs": [
        {
          "internalType": "uint256",
          "name": "",
          "type": "uint256"
        }
      ],
      "stateMutability": "view",
      "type": "function"
    },
    {
      "inputs": [
        {
          "internalType": "address",
          "name": "",
          "type": "address"
        }
      ],
      "name": "addressToTicketCount",
      "outputs": [
        {
          "internalType": "uint256",
          "name": "",
          "type": "uint256"
        }
      ],
      "stateMutability": "view",
      "type": "function"
    },
    {
      "inputs": [
        {
          "internalType": "address",
          "name": "",
          "type": "address"
        },
        {
          "internalType": "uint256",
          "name": "",
          "type": "uint256"
        }
      ],
      "name": "addressToTicketsOwned",
      "outputs": [
        {
          "internalType": "uint256",
          "name": "",
          "type": "uint256"
        }
      ],
      "stateMutability": "view",
      "type": "function"
    },
    {
      "inputs": [
        {
          "internalType": "address",
          "name": "account",
          "type": "address"
        }
      ],
      "name": "allocationByAddress",
      "outputs": [
        {
          "internalType": "uint256",
          "name": "tokens",
          "type": "uint256"
        },
        {
          "internalType": "uint256",
          "name": "price",
          "type": "uint256"
        }
      ],
      "stateMutability": "view",
      "type": "function"
    },
    {
      "inputs": [],
      "name": "buyNow",
      "outputs": [],
      "stateMutability": "payable",
      "type": "function"
    },
    {
      "inputs": [
        {
          "internalType": "uint256",
          "name": "_noOfTickets",
          "type": "uint256"
        }
      ],
      "name": "buyTickets",
      "outputs": [],
      "stateMutability": "nonpayable",
      "type": "function"
    },
    {
      "inputs": [],
      "name": "fcfsDuration",
      "outputs": [
        {
          "internalType": "uint256",
          "name": "",
          "type": "uint256"
        }
      ],
      "stateMutability": "view",
      "type": "function"
    },
    {
      "inputs": [],
      "name": "fcfsStarts",
      "outputs": [
        {
          "internalType": "uint256",
          "name": "",
          "type": "uint256"
        }
      ],
      "stateMutability": "view",
      "type": "function"
    },
    {
      "inputs": [],
      "name": "genRandom",
      "outputs": [],
      "stateMutability": "nonpayable",
      "type": "function"
    },
    {
      "inputs": [
        {
          "internalType": "address",
          "name": "account",
          "type": "address"
        }
      ],
      "name": "getPoolNo",
      "outputs": [
        {
          "internalType": "uint256",
          "name": "",
          "type": "uint256"
        }
      ],
      "stateMutability": "view",
      "type": "function"
    },
    {
      "inputs": [
        {
          "internalType": "address",
          "name": "account",
          "type": "address"
        }
      ],
      "name": "getRegistrationStatus",
      "outputs": [
        {
          "internalType": "bool",
          "name": "",
          "type": "bool"
        }
      ],
      "stateMutability": "view",
      "type": "function"
    },
    {
      "inputs": [],
      "name": "getTicketsWon",
      "outputs": [
        {
          "internalType": "uint256[]",
          "name": "",
          "type": "uint256[]"
        }
      ],
      "stateMutability": "view",
      "type": "function"
    },
    {
      "inputs": [],
      "name": "getWinners",
      "outputs": [
        {
          "internalType": "address[]",
          "name": "",
          "type": "address[]"
        }
      ],
      "stateMutability": "view",
      "type": "function"
    },
    {
      "inputs": [
        {
          "internalType": "address",
          "name": "",
          "type": "address"
        }
      ],
      "name": "hasWonRaffle",
      "outputs": [
        {
          "internalType": "bool",
          "name": "",
          "type": "bool"
        }
      ],
      "stateMutability": "view",
      "type": "function"
    },
    {
      "inputs": [],
      "name": "idoToken",
      "outputs": [
        {
          "internalType": "contract IERC20Metadata",
          "name": "",
          "type": "address"
        }
      ],
      "stateMutability": "view",
      "type": "function"
    },
    {
      "inputs": [],
      "name": "idoTokenSum",
      "outputs": [
        {
          "internalType": "uint256",
          "name": "",
          "type": "uint256"
        }
      ],
      "stateMutability": "view",
      "type": "function"
    },
    {
      "inputs": [],
      "name": "idoTotalPrice",
      "outputs": [
        {
          "internalType": "uint256",
          "name": "",
          "type": "uint256"
        }
      ],
      "stateMutability": "view",
      "type": "function"
    },
    {
      "inputs": [],
      "name": "isFulfilled",
      "outputs": [
        {
          "internalType": "bool",
          "name": "",
          "type": "bool"
        }
      ],
      "stateMutability": "view",
      "type": "function"
    },
    {
      "inputs": [],
      "name": "isInitialized",
      "outputs": [
        {
          "internalType": "bool",
          "name": "",
          "type": "bool"
        }
      ],
      "stateMutability": "view",
      "type": "function"
    },
    {
      "inputs": [
        {
          "internalType": "address",
          "name": "account",
          "type": "address"
        }
      ],
      "name": "isRaffleEligible",
      "outputs": [
        {
          "internalType": "bool",
          "name": "",
          "type": "bool"
        }
      ],
      "stateMutability": "view",
      "type": "function"
    },
    {
      "inputs": [],
      "name": "isSoftLiquidityAdded",
      "outputs": [
        {
          "internalType": "bool",
          "name": "",
          "type": "bool"
        }
      ],
      "stateMutability": "view",
      "type": "function"
    },
    {
      "inputs": [],
      "name": "liquidity",
      "outputs": [
        {
          "internalType": "uint256",
          "name": "",
          "type": "uint256"
        }
      ],
      "stateMutability": "view",
      "type": "function"
    },
    {
      "inputs": [],
      "name": "lockDuration",
      "outputs": [
        {
          "internalType": "uint256",
          "name": "",
          "type": "uint256"
        }
      ],
      "stateMutability": "view",
      "type": "function"
    },
    {
      "inputs": [],
      "name": "lpLockPeriod",
      "outputs": [
        {
          "internalType": "uint256",
          "name": "",
          "type": "uint256"
        }
      ],
      "stateMutability": "view",
      "type": "function"
    },
    {
      "inputs": [],
      "name": "lpLockedTill",
      "outputs": [
        {
          "internalType": "uint256",
          "name": "",
          "type": "uint256"
        }
      ],
      "stateMutability": "view",
      "type": "function"
    },
    {
      "inputs": [],
      "name": "nativeToken",
      "outputs": [
        {
          "internalType": "contract IERC20Metadata",
          "name": "",
          "type": "address"
        }
      ],
      "stateMutability": "view",
      "type": "function"
    },
    {
      "inputs": [],
      "name": "noOfParticipants",
      "outputs": [
        {
          "internalType": "uint256",
          "name": "",
          "type": "uint256"
        }
      ],
      "stateMutability": "view",
      "type": "function"
    },
    {
      "inputs": [],
      "name": "owner",
      "outputs": [
        {
          "internalType": "address",
          "name": "",
          "type": "address"
        }
      ],
      "stateMutability": "view",
      "type": "function"
    },
    {
      "inputs": [],
      "name": "pairAddress",
      "outputs": [
        {
          "internalType": "address",
          "name": "",
          "type": "address"
        }
      ],
      "stateMutability": "view",
      "type": "function"
    },
    {
      "inputs": [
        {
          "internalType": "uint256",
          "name": "",
          "type": "uint256"
        }
      ],
      "name": "participantList",
      "outputs": [
        {
          "internalType": "address",
          "name": "",
          "type": "address"
        }
      ],
      "stateMutability": "view",
      "type": "function"
    },
    {
      "inputs": [
        {
          "internalType": "uint256",
          "name": "",
          "type": "uint256"
        }
      ],
      "name": "pools",
      "outputs": [
        {
          "internalType": "string",
          "name": "name",
          "type": "string"
        },
        {
          "internalType": "uint256",
          "name": "minNativeToken",
          "type": "uint256"
        },
        {
          "internalType": "uint256",
          "name": "weight",
          "type": "uint256"
        },
        {
          "internalType": "uint256",
          "name": "participants",
          "type": "uint256"
        }
      ],
      "stateMutability": "view",
      "type": "function"
    },
    {
      "inputs": [],
      "name": "randomResult",
      "outputs": [
        {
          "internalType": "uint256",
          "name": "",
          "type": "uint256"
        }
      ],
      "stateMutability": "view",
      "type": "function"
    },
    {
      "inputs": [
        {
          "internalType": "bytes32",
          "name": "requestId",
          "type": "bytes32"
        },
        {
          "internalType": "uint256",
          "name": "randomness",
          "type": "uint256"
        }
      ],
      "name": "rawFulfillRandomness",
      "outputs": [],
      "stateMutability": "nonpayable",
      "type": "function"
    },
    {
      "inputs": [],
      "name": "regDuration",
      "outputs": [
        {
          "internalType": "uint256",
          "name": "",
          "type": "uint256"
        }
      ],
      "stateMutability": "view",
      "type": "function"
    },
    {
      "inputs": [],
      "name": "regStarts",
      "outputs": [
        {
          "internalType": "uint256",
          "name": "",
          "type": "uint256"
        }
      ],
      "stateMutability": "view",
      "type": "function"
    },
    {
      "inputs": [
        {
          "internalType": "uint256",
          "name": "_poolNo",
          "type": "uint256"
        }
      ],
      "name": "register",
      "outputs": [],
      "stateMutability": "nonpayable",
      "type": "function"
    },
    {
      "inputs": [],
      "name": "remainingIDOTokens",
      "outputs": [
        {
          "internalType": "uint256",
          "name": "",
          "type": "uint256"
        }
      ],
      "stateMutability": "view",
      "type": "function"
    },
    {
      "inputs": [],
      "name": "renounceOwnership",
      "outputs": [],
      "stateMutability": "nonpayable",
      "type": "function"
    },
    {
      "inputs": [],
      "name": "reqId",
      "outputs": [
        {
          "internalType": "bytes32",
          "name": "",
          "type": "bytes32"
        }
      ],
      "stateMutability": "view",
      "type": "function"
    },
    {
      "inputs": [],
      "name": "router",
      "outputs": [
        {
          "internalType": "contract RouterInterface",
          "name": "",
          "type": "address"
        }
      ],
      "stateMutability": "view",
      "type": "function"
    },
    {
      "inputs": [],
      "name": "saleDuration",
      "outputs": [
        {
          "internalType": "uint256",
          "name": "",
          "type": "uint256"
        }
      ],
      "stateMutability": "view",
      "type": "function"
    },
    {
      "inputs": [],
      "name": "saleStarts",
      "outputs": [
        {
          "internalType": "uint256",
          "name": "",
          "type": "uint256"
        }
      ],
      "stateMutability": "view",
      "type": "function"
    },
    {
      "inputs": [],
      "name": "saleStartsAfter",
      "outputs": [
        {
          "internalType": "uint256",
          "name": "",
          "type": "uint256"
        }
      ],
      "stateMutability": "view",
      "type": "function"
    },
    {
      "inputs": [],
      "name": "softCapETH",
      "outputs": [
        {
          "internalType": "uint256",
          "name": "",
          "type": "uint256"
        }
      ],
      "stateMutability": "view",
      "type": "function"
    },
    {
      "inputs": [],
      "name": "staker",
      "outputs": [
        {
          "internalType": "contract Staker",
          "name": "",
          "type": "address"
        }
      ],
      "stateMutability": "view",
      "type": "function"
    },
    {
      "inputs": [],
      "name": "ticketPrice",
      "outputs": [
        {
          "internalType": "uint256",
          "name": "",
          "type": "uint256"
        }
      ],
      "stateMutability": "view",
      "type": "function"
    },
    {
      "inputs": [
        {
          "internalType": "uint256",
          "name": "",
          "type": "uint256"
        }
      ],
      "name": "ticketToOwner",
      "outputs": [
        {
          "internalType": "address",
          "name": "",
          "type": "address"
        }
      ],
      "stateMutability": "view",
      "type": "function"
    },
    {
      "inputs": [],
      "name": "ticketsSold",
      "outputs": [
        {
          "internalType": "uint256",
          "name": "",
          "type": "uint256"
        }
      ],
      "stateMutability": "view",
      "type": "function"
    },
    {
      "inputs": [
        {
          "internalType": "uint256",
          "name": "_poolNo",
          "type": "uint256"
        }
      ],
      "name": "tokensAndPriceByPoolNo",
      "outputs": [
        {
          "internalType": "uint256",
          "name": "",
          "type": "uint256"
        },
        {
          "internalType": "uint256",
          "name": "",
          "type": "uint256"
        }
      ],
      "stateMutability": "view",
      "type": "function"
    },
    {
      "inputs": [],
      "name": "tokensToLiquidity",
      "outputs": [
        {
          "internalType": "uint256",
          "name": "",
          "type": "uint256"
        }
      ],
      "stateMutability": "view",
      "type": "function"
    },
    {
      "inputs": [],
      "name": "totalPoolShares",
      "outputs": [
        {
          "internalType": "uint256",
          "name": "",
          "type": "uint256"
        }
      ],
      "stateMutability": "view",
      "type": "function"
    },
    {
      "inputs": [
        {
          "internalType": "address",
          "name": "newOwner",
          "type": "address"
        }
      ],
      "name": "transferOwnership",
      "outputs": [],
      "stateMutability": "nonpayable",
      "type": "function"
    },
    {
      "inputs": [],
      "name": "unit",
      "outputs": [
        {
          "internalType": "uint256",
          "name": "",
          "type": "uint256"
        }
      ],
      "stateMutability": "view",
      "type": "function"
    },
    {
      "inputs": [
        {
          "internalType": "address",
          "name": "",
          "type": "address"
        }
      ],
      "name": "userlog",
      "outputs": [
        {
          "internalType": "bool",
          "name": "isRegistered",
          "type": "bool"
        },
        {
          "internalType": "uint256",
          "name": "registeredPool",
          "type": "uint256"
        },
        {
          "internalType": "bool",
          "name": "purchased",
          "type": "bool"
        }
      ],
      "stateMutability": "view",
      "type": "function"
    },
    {
      "stateMutability": "payable",
      "type": "receive"
    },
    {
      "inputs": [
        {
          "internalType": "uint256",
          "name": "time",
          "type": "uint256"
        }
      ],
      "name": "initialize",
      "outputs": [],
      "stateMutability": "nonpayable",
      "type": "function"
    },
    {
      "inputs": [],
      "name": "isFCFSNeeded",
      "outputs": [
        {
          "internalType": "bool",
          "name": "",
          "type": "bool"
        }
      ],
      "stateMutability": "view",
      "type": "function"
    },
    {
      "inputs": [
        {
          "internalType": "uint256",
          "name": "amount",
          "type": "uint256"
        }
      ],
      "name": "swapPrice",
      "outputs": [
        {
          "internalType": "uint256",
          "name": "price",
          "type": "uint256"
        }
      ],
      "stateMutability": "view",
      "type": "function"
    },
    {
      "inputs": [
        {
          "internalType": "uint256",
          "name": "amount",
          "type": "uint256"
        }
      ],
      "name": "fcfsBuy",
      "outputs": [],
      "stateMutability": "payable",
      "type": "function"
    },
    {
      "inputs": [
        {
          "internalType": "address",
          "name": "to",
          "type": "address"
        }
      ],
      "name": "recoverEth",
      "outputs": [],
      "stateMutability": "nonpayable",
      "type": "function"
    },
    {
      "inputs": [
        {
          "internalType": "address",
          "name": "tokenAddress",
          "type": "address"
        },
        {
          "internalType": "address",
          "name": "to",
          "type": "address"
        }
      ],
      "name": "recoverERC20",
      "outputs": [],
      "stateMutability": "nonpayable",
      "type": "function"
    },
    {
      "inputs": [],
      "name": "isAfterFCFS",
      "outputs": [
        {
          "internalType": "bool",
          "name": "",
          "type": "bool"
        }
      ],
      "stateMutability": "view",
      "type": "function"
    }
  ],
  "bytecode": "0x60c06040526000601560016101000a81548160ff02191690831515021790555060006020553480156200003157600080fd5b5060405162006ffb38038062006ffb833981810160405281019062000057919062000ec3565b878787878773b3dccb4cf7a26f6cf6b120cf5a73875b7bbc655b7301be23585060835e02b77ef475b0cc51aa1e0709868686868660006200009d62000d9a60201b60201c565b9050806000806101000a81548173ffffffffffffffffffffffffffffffffffffffff021916908373ffffffffffffffffffffffffffffffffffffffff1602179055508073ffffffffffffffffffffffffffffffffffffffff16600073ffffffffffffffffffffffffffffffffffffffff167f8be0079c531659141344cd1fd0a4f28419497f9722a3daafe3b4186f6b6457e060405160405180910390a3506001808190555084600260006101000a81548173ffffffffffffffffffffffffffffffffffffffff021916908373ffffffffffffffffffffffffffffffffffffffff16021790555083600360006101000a81548173ffffffffffffffffffffffffffffffffffffffff021916908373ffffffffffffffffffffffffffffffffffffffff16021790555082600460006101000a81548173ffffffffffffffffffffffffffffffffffffffff021916908373ffffffffffffffffffffffffffffffffffffffff16021790555081600581905550806006819055506005546008819055506000600360009054906101000a900473ffffffffffffffffffffffffffffffffffffffff1673ffffffffffffffffffffffffffffffffffffffff1663313ce5676040518163ffffffff1660e01b815260040160206040518083038186803b1580156200028757600080fd5b505afa1580156200029c573d6000803e3d6000fd5b505050506040513d601f19601f82011682018060405250810190620002c2919062000f86565b60ff169050600f60405180608001604052806040518060400160405280600481526020017f4e756c6c00000000000000000000000000000000000000000000000000000000815250815260200160008152602001600081526020016000815250908060018154018082558091505060019003906000526020600020906004020160009091909190915060008201518160000190805190602001906200036992919062000da2565b506020820151816001015560408201518160020155606082015181600301555050600f60405180608001604052806040518060400160405280600681526020017f4b6e696768740000000000000000000000000000000000000000000000000000815250815260200183600a620003e191906200104b565b6103e8620003f0919062001188565b8152602001600181526020016000815250908060018154018082558091505060019003906000526020600020906004020160009091909190915060008201518160000190805190602001906200044892919062000da2565b506020820151816001015560408201518160020155606082015181600301555050600f60405180608001604052806040518060400160405280600681526020017f426973686f700000000000000000000000000000000000000000000000000000815250815260200183600a620004c091906200104b565b6105dc620004cf919062001188565b8152602001600481526020016000815250908060018154018082558091505060019003906000526020600020906004020160009091909190915060008201518160000190805190602001906200052792919062000da2565b506020820151816001015560408201518160020155606082015181600301555050600f60405180608001604052806040518060400160405280600481526020017f526f6f6b00000000000000000000000000000000000000000000000000000000815250815260200183600a6200059f91906200104b565b610bb8620005ae919062001188565b8152602001600881526020016000815250908060018154018082558091505060019003906000526020600020906004020160009091909190915060008201518160000190805190602001906200060692919062000da2565b506020820151816001015560408201518160020155606082015181600301555050600f60405180608001604052806040518060400160405280600481526020017f4b696e6700000000000000000000000000000000000000000000000000000000815250815260200183600a6200067e91906200104b565b6117706200068d919062001188565b815260200160108152602001600081525090806001815401808255809150506001900390600052602060002090600402016000909190919091506000820151816000019080519060200190620006e592919062000da2565b506020820151816001015560408201518160020155606082015181600301555050600f60405180608001604052806040518060400160405280600581526020017f517565656e000000000000000000000000000000000000000000000000000000815250815260200183600a6200075d91906200104b565b6123286200076c919062001188565b815260200160158152602001600081525090806001815401808255809150506001900390600052602060002090600402016000909190919091506000820151816000019080519060200190620007c492919062000da2565b5060208201518160010155604082015181600201556060820151816003015550505050505050508173ffffffffffffffffffffffffffffffffffffffff1660a08173ffffffffffffffffffffffffffffffffffffffff1660601b815250508073ffffffffffffffffffffffffffffffffffffffff1660808173ffffffffffffffffffffffffffffffffffffffff1660601b8152505050507f2ed0feb3e7fd2022120aa84fab1945545a9f2ffc9076fd6156fa96eaff4c131160001b60118190555067016345785d8a0000601281905550505050505082601b8190555081601c8190555080601d81905550737a250d5630b4cf539739df2c5dacb4c659f2488d602160006101000a81548173ffffffffffffffffffffffffffffffffffffffff021916908373ffffffffffffffffffffffffffffffffffffffff160217905550602160009054906101000a900473ffffffffffffffffffffffffffffffffffffffff1673ffffffffffffffffffffffffffffffffffffffff1663c45a01556040518163ffffffff1660e01b815260040160206040518083038186803b1580156200096c57600080fd5b505afa15801562000981573d6000803e3d6000fd5b505050506040513d601f19601f82011682018060405250810190620009a7919062000e97565b73ffffffffffffffffffffffffffffffffffffffff1663e6a4390587602160009054906101000a900473ffffffffffffffffffffffffffffffffffffffff1673ffffffffffffffffffffffffffffffffffffffff1663ad5c46486040518163ffffffff1660e01b815260040160206040518083038186803b15801562000a2c57600080fd5b505afa15801562000a41573d6000803e3d6000fd5b505050506040513d601f19601f8201168201806040525081019062000a67919062000e97565b6040518363ffffffff1660e01b815260040162000a8692919062000fc3565b60206040518083038186803b15801562000a9f57600080fd5b505afa15801562000ab4573d6000803e3d6000fd5b505050506040513d601f19601f8201168201806040525081019062000ada919062000e97565b602260006101000a81548173ffffffffffffffffffffffffffffffffffffffff021916908373ffffffffffffffffffffffffffffffffffffffff160217905550600073ffffffffffffffffffffffffffffffffffffffff16602260009054906101000a900473ffffffffffffffffffffffffffffffffffffffff1673ffffffffffffffffffffffffffffffffffffffff16141562000d8c57602160009054906101000a900473ffffffffffffffffffffffffffffffffffffffff1673ffffffffffffffffffffffffffffffffffffffff1663c45a01556040518163ffffffff1660e01b815260040160206040518083038186803b15801562000bdb57600080fd5b505afa15801562000bf0573d6000803e3d6000fd5b505050506040513d601f19601f8201168201806040525081019062000c16919062000e97565b73ffffffffffffffffffffffffffffffffffffffff1663c9c6539687602160009054906101000a900473ffffffffffffffffffffffffffffffffffffffff1673ffffffffffffffffffffffffffffffffffffffff1663ad5c46486040518163ffffffff1660e01b815260040160206040518083038186803b15801562000c9b57600080fd5b505afa15801562000cb0573d6000803e3d6000fd5b505050506040513d601f19601f8201168201806040525081019062000cd6919062000e97565b6040518363ffffffff1660e01b815260040162000cf592919062000fc3565b602060405180830381600087803b15801562000d1057600080fd5b505af115801562000d25573d6000803e3d6000fd5b505050506040513d601f19601f8201168201806040525081019062000d4b919062000e97565b602260006101000a81548173ffffffffffffffffffffffffffffffffffffffff021916908373ffffffffffffffffffffffffffffffffffffffff1602179055505b505050505050505062001323565b600033905090565b82805462000db09062001234565b90600052602060002090601f01602090048101928262000dd4576000855562000e20565b82601f1062000def57805160ff191683800117855562000e20565b8280016001018555821562000e20579182015b8281111562000e1f57825182559160200191906001019062000e02565b5b50905062000e2f919062000e33565b5090565b5b8082111562000e4e57600081600090555060010162000e34565b5090565b60008151905062000e6381620012d5565b92915050565b60008151905062000e7a81620012ef565b92915050565b60008151905062000e918162001309565b92915050565b60006020828403121562000eaa57600080fd5b600062000eba8482850162000e52565b91505092915050565b600080600080600080600080610100898b03121562000ee157600080fd5b600062000ef18b828c0162000e52565b985050602062000f048b828c0162000e52565b975050604062000f178b828c0162000e52565b965050606062000f2a8b828c0162000e69565b955050608062000f3d8b828c0162000e69565b94505060a062000f508b828c0162000e69565b93505060c062000f638b828c0162000e69565b92505060e062000f768b828c0162000e69565b9150509295985092959890939650565b60006020828403121562000f9957600080fd5b600062000fa98482850162000e80565b91505092915050565b62000fbd81620011e9565b82525050565b600060408201905062000fda600083018562000fb2565b62000fe9602083018462000fb2565b9392505050565b6000808291508390505b600185111562001042578086048111156200101a57620010196200126a565b5b60018516156200102a5780820291505b80810290506200103a85620012c8565b945062000ffa565b94509492505050565b600062001058826200121d565b915062001065836200121d565b9250620010947fffffffffffffffffffffffffffffffffffffffffffffffffffffffffffffffff84846200109c565b905092915050565b600082620010ae576001905062001181565b81620010be576000905062001181565b8160018114620010d75760028114620010e25762001118565b600191505062001181565b60ff841115620010f757620010f66200126a565b5b8360020a9150848211156200111157620011106200126a565b5b5062001181565b5060208310610133831016604e8410600b8410161715620011525782820a9050838111156200114c576200114b6200126a565b5b62001181565b62001161848484600162000ff0565b925090508184048111156200117b576200117a6200126a565b5b81810290505b9392505050565b600062001195826200121d565b9150620011a2836200121d565b9250817fffffffffffffffffffffffffffffffffffffffffffffffffffffffffffffffff0483118215151615620011de57620011dd6200126a565b5b828202905092915050565b6000620011f682620011fd565b9050919050565b600073ffffffffffffffffffffffffffffffffffffffff82169050919050565b6000819050919050565b600060ff82169050919050565b600060028204905060018216806200124d57607f821691505b6020821081141562001264576200126362001299565b5b50919050565b7f4e487b7100000000000000000000000000000000000000000000000000000000600052601160045260246000fd5b7f4e487b7100000000000000000000000000000000000000000000000000000000600052602260045260246000fd5b60008160011c9050919050565b620012e081620011e9565b8114620012ec57600080fd5b50565b620012fa816200121d565b81146200130657600080fd5b50565b620013148162001227565b81146200132057600080fd5b50565b60805160601c60a05160601c615c9e6200135d600039600081816121ae0152613d2d0152600081816136320152613cf10152615c9e6000f3fe6080604052600436106103a65760003560e01c80638f15024f116101e7578063c31476dd1161010d578063e66f418c116100a0578063f2fde38b1161006f578063f2fde38b14610e0d578063f3f40af214610e36578063f887ea4014610e61578063fe4b84df14610e8c576103e6565b8063e66f418c14610d63578063e76eda8614610d8e578063efad76da14610db9578063f207564e14610de4576103e6565b8063d6cd82bc116100dc578063d6cd82bc14610cb7578063df15c37e14610ce2578063e1758bd814610d0d578063e32ddac614610d38576103e6565b8063c31476dd14610c0b578063c5cff33914610c36578063c6b6097114610c61578063d2d570a114610c8c576103e6565b8063a158226d11610185578063a9e5825711610154578063a9e5825714610b38578063ac4afa3814610b63578063b6ba811414610ba3578063bd9766f414610bce576103e6565b8063a158226d14610a7a578063a25dd13014610aa5578063a8af4ff514610ad0578063a8b0898214610b0d576103e6565b806394985ddd116101c157806394985ddd146109df5780639c3962f014610a085780639e6e9d0f14610a125780639eb688b014610a4f576103e6565b80638f15024f1461094b5780638f666ecf14610976578063907af6c0146109b4576103e6565b806342619f66116102cc5780636d0a67de1161026a5780637acaea9b116102395780637acaea9b1461088f578063886f039a146108cc5780638997ce4e146108f55780638da5cb5b14610920576103e6565b80636d0a67de146107e7578063715018a61461081257806373aafe64146108295780637504db3e14610866576103e6565b80635ebaf1db116102a65780635ebaf1db1461075e5780636096188f1461078957806366a30cb6146107a5578063692d98d0146107bc576103e6565b806342619f66146106b757806345a28e06146106e257806351622cd014610721576103e6565b80631a68650211610344578063385a9c3711610313578063385a9c37146105f8578063392e53cd146106235780633d7faab91461064e5780633f46ce7214610679576103e6565b80631a6865021461053c5780632b08e824146105675780632f366637146105a45780633711d9fb146105cd576103e6565b806309d6b3ff1161038057806309d6b3ff1461046c5780630e6fdaa1146104a95780631209b1f6146104e6578063196f253214610511576103e6565b806304554443146103eb578063051a80cf146104165780630872629614610441576103e6565b366103e6577f88a5966d370b9919b20f3e2c13ff65706f196a4e32cc2c12bf57088f8852587433346040516103dc929190614ee6565b60405180910390a1005b600080fd5b3480156103f757600080fd5b50610400610eb5565b60405161040d91906155aa565b60405180910390f35b34801561042257600080fd5b5061042b610ec7565b6040516104389190614fd0565b60405180910390f35b34801561044d57600080fd5b50610456610f33565b60405161046391906155aa565b60405180910390f35b34801561047857600080fd5b50610493600480360381019061048e919061414c565b610f40565b6040516104a09190614ff2565b60405180910390f35b3480156104b557600080fd5b506104d060048036038101906104cb9190614252565b610f67565b6040516104dd9190614e94565b60405180910390f35b3480156104f257600080fd5b506104fb610fa6565b60405161050891906155aa565b60405180910390f35b34801561051d57600080fd5b50610526610fb2565b60405161053391906155aa565b60405180910390f35b34801561054857600080fd5b50610551610fb8565b60405161055e91906155aa565b60405180910390f35b34801561057357600080fd5b5061058e60048036038101906105899190614252565b610fbe565b60405161059b9190614e94565b60405180910390f35b3480156105b057600080fd5b506105cb60048036038101906105c69190614252565b610ff1565b005b3480156105d957600080fd5b506105e2611364565b6040516105ef91906155aa565b60405180910390f35b34801561060457600080fd5b5061060d611376565b60405161061a9190614ff2565b60405180910390f35b34801561062f57600080fd5b5061063861138d565b6040516106459190614ff2565b60405180910390f35b34801561065a57600080fd5b506106636113a0565b60405161067091906155aa565b60405180910390f35b34801561068557600080fd5b506106a0600480360381019061069b919061414c565b6113b2565b6040516106ae9291906155c5565b60405180910390f35b3480156106c357600080fd5b506106cc61143b565b6040516106d991906155aa565b60405180910390f35b3480156106ee57600080fd5b506107096004803603810190610704919061414c565b611441565b6040516107189392919061500d565b60405180910390f35b34801561072d57600080fd5b506107486004803603810190610743919061414c565b611485565b60405161075591906155aa565b60405180910390f35b34801561076a57600080fd5b5061077361149d565b6040516107809190615103565b60405180910390f35b6107a3600480360381019061079e9190614252565b6114c3565b005b3480156107b157600080fd5b506107ba6117cb565b005b3480156107c857600080fd5b506107d1611969565b6040516107de91906155aa565b60405180910390f35b3480156107f357600080fd5b506107fc61196f565b60405161080991906155aa565b60405180910390f35b34801561081e57600080fd5b50610827611975565b005b34801561083557600080fd5b50610850600480360381019061084b9190614252565b611aaf565b60405161085d91906155aa565b60405180910390f35b34801561087257600080fd5b5061088d6004803603810190610888919061414c565b611ad3565b005b34801561089b57600080fd5b506108b660048036038101906108b191906141b1565b611cc0565b6040516108c391906155aa565b60405180910390f35b3480156108d857600080fd5b506108f360048036038101906108ee9190614175565b611cf1565b005b34801561090157600080fd5b5061090a611fea565b6040516109179190615044565b60405180910390f35b34801561092c57600080fd5b50610935611ff0565b6040516109429190614e94565b60405180910390f35b34801561095757600080fd5b50610960612019565b60405161096d91906155aa565b60405180910390f35b34801561098257600080fd5b5061099d60048036038101906109989190614252565b61201f565b6040516109ab9291906155c5565b60405180910390f35b3480156109c057600080fd5b506109c96121a6565b6040516109d691906155aa565b60405180910390f35b3480156109eb57600080fd5b50610a066004803603810190610a019190614216565b6121ac565b005b610a10612248565b005b348015610a1e57600080fd5b50610a396004803603810190610a34919061414c565b6126a6565b604051610a4691906155aa565b60405180910390f35b348015610a5b57600080fd5b50610a646126f2565b604051610a719190614ff2565b60405180910390f35b348015610a8657600080fd5b50610a8f6127bf565b604051610a9c91906155aa565b60405180910390f35b348015610ab157600080fd5b50610aba6127c5565b604051610ac791906155aa565b60405180910390f35b348015610adc57600080fd5b50610af76004803603810190610af2919061414c565b6127d7565b604051610b049190614ff2565b60405180910390f35b348015610b1957600080fd5b50610b22612830565b604051610b2f9190614e94565b60405180910390f35b348015610b4457600080fd5b50610b4d612856565b604051610b5a9190614ff2565b60405180910390f35b348015610b6f57600080fd5b50610b8a6004803603810190610b859190614252565b612873565b604051610b9a949392919061511e565b60405180910390f35b348015610baf57600080fd5b50610bb861293b565b604051610bc591906155aa565b60405180910390f35b348015610bda57600080fd5b50610bf56004803603810190610bf0919061414c565b612941565b604051610c029190614ff2565b60405180910390f35b348015610c1757600080fd5b50610c20612961565b604051610c2d91906155aa565b60405180910390f35b348015610c4257600080fd5b50610c4b612967565b604051610c5891906155aa565b60405180910390f35b348015610c6d57600080fd5b50610c7661296d565b604051610c8391906155aa565b60405180910390f35b348015610c9857600080fd5b50610ca1612972565b604051610cae9190614ff2565b60405180910390f35b348015610cc357600080fd5b50610ccc612985565b604051610cd991906150cd565b60405180910390f35b348015610cee57600080fd5b50610cf76129ab565b604051610d049190614fae565b60405180910390f35b348015610d1957600080fd5b50610d22612a01565b604051610d2f91906150cd565b60405180910390f35b348015610d4457600080fd5b50610d4d612a27565b604051610d5a91906155aa565b60405180910390f35b348015610d6f57600080fd5b50610d78612a2d565b604051610d8591906155aa565b60405180910390f35b348015610d9a57600080fd5b50610da3612a33565b604051610db091906155aa565b60405180910390f35b348015610dc557600080fd5b50610dce612a5e565b604051610ddb91906155aa565b60405180910390f35b348015610df057600080fd5b50610e0b6004803603810190610e069190614252565b612a64565b005b348015610e1957600080fd5b50610e346004803603810190610e2f919061414c565b612e6b565b005b348015610e4257600080fd5b50610e4b613014565b604051610e5891906155aa565b60405180910390f35b348015610e6d57600080fd5b50610e7661301a565b604051610e8391906150e8565b60405180910390f35b348015610e9857600080fd5b50610eb36004803603810190610eae9190614252565b613040565b005b610e1060a8610ec491906158d2565b81565b6060610ed1611376565b610f10576040517f08c379a0000000000000000000000000000000000000000000000000000000008152600401610f07906154ca565b60405180910390fd5b6000610f1d60165461330e565b9050610f2d600060165483613330565b91505090565b6000600d80549050905090565b6000610f4b826127d7565b1580610f6057506002610f5d836126a6565b14155b9050919050565b600d8181548110610f7757600080fd5b906000526020600020016000915054906101000a900473ffffffffffffffffffffffffffffffffffffffff1681565b6729a2241af62c000081565b60085481565b60205481565b60176020528060005260406000206000915054906101000a900473ffffffffffffffffffffffffffffffffffffffff1681565b426009541115611036576040517f08c379a000000000000000000000000000000000000000000000000000000000815260040161102d9061540a565b60405180910390fd5b42610e10607861104691906158d2565b60095461105391906156da565b1015611094576040517f08c379a000000000000000000000000000000000000000000000000000000000815260040161108b9061546a565b60405180910390fd5b600260015414156110da576040517f08c379a00000000000000000000000000000000000000000000000000000000081526004016110d19061556a565b60405180910390fd5b60026001819055506110eb33610f40565b61112a576040517f08c379a0000000000000000000000000000000000000000000000000000000008152600401611121906151ca565b60405180910390fd5b60006016549050600360009054906101000a900473ffffffffffffffffffffffffffffffffffffffff1673ffffffffffffffffffffffffffffffffffffffff166323b872dd33611178611ff0565b6729a2241af62c00008661118c91906158d2565b6040518463ffffffff1660e01b81526004016111aa93929190614eaf565b602060405180830381600087803b1580156111c457600080fd5b505af11580156111d8573d6000803e3d6000fd5b505050506040513d601f19601f820116820180604052508101906111fc91906141ed565b5060005b828110156112e9573360176000838561121991906156da565b815260200190815260200160002060006101000a81548173ffffffffffffffffffffffffffffffffffffffff021916908373ffffffffffffffffffffffffffffffffffffffff160217905550601960003373ffffffffffffffffffffffffffffffffffffffff1673ffffffffffffffffffffffffffffffffffffffff16815260200190815260200160002081836112b091906156da565b908060018154018082558091505060019003906000526020600020016000909190919091505580806112e190615aa2565b915050611200565b5081601860003373ffffffffffffffffffffffffffffffffffffffff1673ffffffffffffffffffffffffffffffffffffffff168152602001908152602001600020600082825461133991906156da565b92505081905550816016600082825461135291906156da565b92505081905550506001808190555050565b610e10601861137391906158d2565b81565b6000601560019054906101000a900460ff16905090565b600e60009054906101000a900460ff1681565b610e1060186113af91906158d2565b81565b600080611400600c60008573ffffffffffffffffffffffffffffffffffffffff1673ffffffffffffffffffffffffffffffffffffffff1681526020019081526020016000206001015461201f565b809250819350505060008061141485613539565b91509150818461142491906156da565b9350808361143291906156da565b92505050915091565b60145481565b600c6020528060005260406000206000915090508060000160009054906101000a900460ff16908060010154908060020160009054906101000a900460ff16905083565b60186020528060005260406000206000915090505481565b600260009054906101000a900473ffffffffffffffffffffffffffffffffffffffff1681565b60026001541415611509576040517f08c379a00000000000000000000000000000000000000000000000000000000081526004016115009061556a565b60405180910390fd5b6002600181905550600061151c82611aaf565b9050611526612856565b611565576040517f08c379a000000000000000000000000000000000000000000000000000000000815260040161155c9061526a565b60405180910390fd5b61156e336127d7565b6115ad576040517f08c379a00000000000000000000000000000000000000000000000000000000081526004016115a49061554a565b60405180910390fd5b610e1060186115bc91906158d2565b600a546115c991906156da565b42101561160b576040517f08c379a00000000000000000000000000000000000000000000000000000000081526004016116029061534a565b60405180910390fd5b6000821415801561161e57506008548211155b61165d576040517f08c379a00000000000000000000000000000000000000000000000000000000081526004016116549061516a565b60405180910390fd5b80341461169f576040517f08c379a0000000000000000000000000000000000000000000000000000000008152600401611696906151aa565b60405180910390fd5b600460009054906101000a900473ffffffffffffffffffffffffffffffffffffffff1673ffffffffffffffffffffffffffffffffffffffff1663a9059cbb33846040518363ffffffff1660e01b81526004016116fc929190614ee6565b602060405180830381600087803b15801561171657600080fd5b505af115801561172a573d6000803e3d6000fd5b505050506040513d601f19601f8201168201806040525081019061174e91906141ed565b508160086000828254611761919061592c565b925050819055506117706135ad565b3373ffffffffffffffffffffffffffffffffffffffff167f12cb4648cf3058b17ceeb33e579f8b0bc269fe0843f3900b8e24b6c54871703c83836040516117b89291906155c5565b60405180910390a2506001808190555050565b601560009054906101000a900460ff161561181b576040517f08c379a00000000000000000000000000000000000000000000000000000000081526004016118129061522a565b60405180910390fd5b6001601560006101000a81548160ff02191690831515021790555042610e10607861184691906158d2565b60095461185391906156da565b1115611894576040517f08c379a000000000000000000000000000000000000000000000000000000000815260040161188b906153aa565b60405180910390fd5b42600a5410156118d9576040517f08c379a00000000000000000000000000000000000000000000000000000000081526004016118d09061524a565b60405180910390fd5b6002600154141561191f576040517f08c379a00000000000000000000000000000000000000000000000000000000081526004016119169061556a565b60405180910390fd5b600260018190555060003360405160200161193a9190614e38565b6040516020818303038152906040528051906020012060001c905061195e8161362b565b505060018081905550565b600b5481565b60075481565b61197d613730565b73ffffffffffffffffffffffffffffffffffffffff1661199b611ff0565b73ffffffffffffffffffffffffffffffffffffffff16146119f1576040517f08c379a00000000000000000000000000000000000000000000000000000000081526004016119e89061544a565b60405180910390fd5b600073ffffffffffffffffffffffffffffffffffffffff1660008054906101000a900473ffffffffffffffffffffffffffffffffffffffff1673ffffffffffffffffffffffffffffffffffffffff167f8be0079c531659141344cd1fd0a4f28419497f9722a3daafe3b4186f6b6457e060405160405180910390a360008060006101000a81548173ffffffffffffffffffffffffffffffffffffffff021916908373ffffffffffffffffffffffffffffffffffffffff160217905550565b600060055460065483611ac291906158d2565b611acc9190615730565b9050919050565b611adb613730565b73ffffffffffffffffffffffffffffffffffffffff16611af9611ff0565b73ffffffffffffffffffffffffffffffffffffffff1614611b4f576040517f08c379a0000000000000000000000000000000000000000000000000000000008152600401611b469061544a565b60405180910390fd5b6000611b59612856565b15611b7057610e106018611b6d91906158d2565b90505b600e60009054906101000a900460ff16611bbf576040517f08c379a0000000000000000000000000000000000000000000000000000000008152600401611bb69061558a565b60405180910390fd5b4281600b54611bce91906156da565b1115611c0f576040517f08c379a0000000000000000000000000000000000000000000000000000000008152600401611c069061538a565b60405180910390fd5b60008273ffffffffffffffffffffffffffffffffffffffff1647604051611c3590614e7f565b60006040518083038185875af1925050503d8060008114611c72576040519150601f19603f3d011682016040523d82523d6000602084013e611c77565b606091505b5050905080611cbb576040517f08c379a0000000000000000000000000000000000000000000000000000000008152600401611cb2906153ca565b60405180910390fd5b505050565b60196020528160005260406000208181548110611cdc57600080fd5b90600052602060002001600091509150505481565b611cf9613730565b73ffffffffffffffffffffffffffffffffffffffff16611d17611ff0565b73ffffffffffffffffffffffffffffffffffffffff1614611d6d576040517f08c379a0000000000000000000000000000000000000000000000000000000008152600401611d649061544a565b60405180910390fd5b6000611d77612856565b15611d8e57610e106018611d8b91906158d2565b90505b600e60009054906101000a900460ff16611ddd576040517f08c379a0000000000000000000000000000000000000000000000000000000008152600401611dd49061558a565b60405180910390fd5b4281600b54611dec91906156da565b1115611e2d576040517f08c379a0000000000000000000000000000000000000000000000000000000008152600401611e249061538a565b60405180910390fd5b602260009054906101000a900473ffffffffffffffffffffffffffffffffffffffff1673ffffffffffffffffffffffffffffffffffffffff168373ffffffffffffffffffffffffffffffffffffffff161415611ec957601e54421015611ec8576040517f08c379a0000000000000000000000000000000000000000000000000000000008152600401611ebf9061536a565b60405180910390fd5b5b60008390508073ffffffffffffffffffffffffffffffffffffffff1663a9059cbb848373ffffffffffffffffffffffffffffffffffffffff166370a08231306040518263ffffffff1660e01b8152600401611f249190614e94565b60206040518083038186803b158015611f3c57600080fd5b505afa158015611f50573d6000803e3d6000fd5b505050506040513d601f19601f82011682018060405250810190611f74919061427b565b6040518363ffffffff1660e01b8152600401611f91929190614ee6565b602060405180830381600087803b158015611fab57600080fd5b505af1158015611fbf573d6000803e3d6000fd5b505050506040513d601f19601f82011682018060405250810190611fe391906141ed565b5050505050565b60135481565b60008060009054906101000a900473ffffffffffffffffffffffffffffffffffffffff16905090565b60165481565b6000806000600f848154811061205e577f4e487b7100000000000000000000000000000000000000000000000000000000600052603260045260246000fd5b906000526020600020906004020160405180608001604052908160008201805461208790615a70565b80601f01602080910402602001604051908101604052809291908181526020018280546120b390615a70565b80156121005780601f106120d557610100808354040283529160200191612100565b820191906000526020600020905b8154815290600101906020018083116120e357829003601f168201915b50505050508152602001600182015481526020016002820154815260200160038201548152505090506000816040015190506000851480612145575060008260600151145b15612158576000809350935050506121a1565b60006007548260055461216b91906158d2565b6121759190615730565b905060006007548360065461218a91906158d2565b6121949190615730565b9050818195509550505050505b915091565b610e1081565b7f000000000000000000000000000000000000000000000000000000000000000073ffffffffffffffffffffffffffffffffffffffff163373ffffffffffffffffffffffffffffffffffffffff161461223a576040517f08c379a00000000000000000000000000000000000000000000000000000000081526004016122319061548a565b60405180910390fd5b6122448282613738565b5050565b6000429050600e60009054906101000a900460ff1661229c576040517f08c379a00000000000000000000000000000000000000000000000000000000081526004016122939061558a565b60405180910390fd5b600c60003373ffffffffffffffffffffffffffffffffffffffff1673ffffffffffffffffffffffffffffffffffffffff16815260200190815260200160002060000160009054906101000a900460ff1661232b576040517f08c379a0000000000000000000000000000000000000000000000000000000008152600401612322906151ea565b60405180910390fd5b600c60003373ffffffffffffffffffffffffffffffffffffffff1673ffffffffffffffffffffffffffffffffffffffff16815260200190815260200160002060020160009054906101000a900460ff16156123bb576040517f08c379a00000000000000000000000000000000000000000000000000000000081526004016123b29061530a565b60405180910390fd5b80600a54111580156123e85750610e1060186123d791906158d2565b600a546123e491906156da565b8111155b612427576040517f08c379a000000000000000000000000000000000000000000000000000000000815260040161241e9061552a565b60405180910390fd5b6002600154141561246d576040517f08c379a00000000000000000000000000000000000000000000000000000000081526004016124649061556a565b60405180910390fd5b60026001819055506000600c60003373ffffffffffffffffffffffffffffffffffffffff1673ffffffffffffffffffffffffffffffffffffffff16815260200190815260200160002090506000806124c4336113b2565b91509150600081141580156124da575060008214155b612519576040517f08c379a0000000000000000000000000000000000000000000000000000000008152600401612510906154aa565b60405180910390fd5b34811461255b576040517f08c379a00000000000000000000000000000000000000000000000000000000081526004016125529061518a565b60405180910390fd5b60018360020160006101000a81548160ff021916908315150217905550816008600082825461258a919061592c565b92505081905550600460009054906101000a900473ffffffffffffffffffffffffffffffffffffffff1673ffffffffffffffffffffffffffffffffffffffff1663a9059cbb33846040518363ffffffff1660e01b81526004016125ee929190614ee6565b602060405180830381600087803b15801561260857600080fd5b505af115801561261c573d6000803e3d6000fd5b505050506040513d601f19601f8201168201806040525081019061264091906141ed565b506126496135ad565b3373ffffffffffffffffffffffffffffffffffffffff167f12cb4648cf3058b17ceeb33e579f8b0bc269fe0843f3900b8e24b6c54871703c83836040516126919291906155c5565b60405180910390a25050506001808190555050565b6000600c60008373ffffffffffffffffffffffffffffffffffffffff1673ffffffffffffffffffffffffffffffffffffffff168152602001908152602001600020600101549050919050565b60008060009050612701612856565b1561271857610e10601861271591906158d2565b90505b600e60009054906101000a900460ff16612767576040517f08c379a000000000000000000000000000000000000000000000000000000000815260040161275e9061558a565b60405180910390fd5b4281600b5461277691906156da565b11156127b7576040517f08c379a00000000000000000000000000000000000000000000000000000000081526004016127ae9061538a565b60405180910390fd5b600191505090565b60095481565b610e1060786127d491906158d2565b81565b6000600c60008373ffffffffffffffffffffffffffffffffffffffff1673ffffffffffffffffffffffffffffffffffffffff16815260200190815260200160002060000160009054906101000a900460ff169050919050565b602260009054906101000a900473ffffffffffffffffffffffffffffffffffffffff1681565b600080600854111561286b5760019050612870565b600090505b90565b600f818154811061288357600080fd5b90600052602060002090600402016000915090508060000180546128a690615a70565b80601f01602080910402602001604051908101604052809291908181526020018280546128d290615a70565b801561291f5780601f106128f45761010080835404028352916020019161291f565b820191906000526020600020905b81548152906001019060200180831161290257829003601f168201915b5050505050908060010154908060020154908060030154905084565b60055481565b601a6020528060005260406000206000915054906101000a900460ff1681565b601b5481565b601d5481565b600281565b601f60009054906101000a900460ff1681565b600460009054906101000a900473ffffffffffffffffffffffffffffffffffffffff1681565b60606129b5611376565b6129f4576040517f08c379a00000000000000000000000000000000000000000000000000000000081526004016129eb906154ca565b60405180910390fd5b6129fc613752565b905090565b600360009054906101000a900473ffffffffffffffffffffffffffffffffffffffff1681565b601c5481565b601e5481565b610e106018612a4291906158d2565b610e106078612a5191906158d2565b612a5b91906156da565b81565b60065481565b6000429050600e60009054906101000a900460ff16612ab8576040517f08c379a0000000000000000000000000000000000000000000000000000000008152600401612aaf9061558a565b60405180910390fd5b600c60003373ffffffffffffffffffffffffffffffffffffffff1673ffffffffffffffffffffffffffffffffffffffff16815260200190815260200160002060000160009054906101000a900460ff1615612b48576040517f08c379a0000000000000000000000000000000000000000000000000000000008152600401612b3f9061528a565b60405180910390fd5b8060095411158015612b755750610e106078612b6491906158d2565b600954612b7191906156da565b8111155b612bb4576040517f08c379a0000000000000000000000000000000000000000000000000000000008152600401612bab9061550a565b60405180910390fd5b8180600111158015612bc7575060058111155b612c06576040517f08c379a0000000000000000000000000000000000000000000000000000000008152600401612bfd906152aa565b60405180910390fd5b6000600260009054906101000a900473ffffffffffffffffffffffffffffffffffffffff1673ffffffffffffffffffffffffffffffffffffffff166360217267336040518263ffffffff1660e01b8152600401612c639190614e94565b60206040518083038186803b158015612c7b57600080fd5b505afa158015612c8f573d6000803e3d6000fd5b505050506040513d601f19601f82011682018060405250810190612cb3919061427b565b905080600f8381548110612cf0577f4e487b7100000000000000000000000000000000000000000000000000000000600052603260045260246000fd5b9060005260206000209060040201600101541115612d43576040517f08c379a0000000000000000000000000000000000000000000000000000000008152600401612d3a9061532a565b60405180910390fd5b60026001541415612d89576040517f08c379a0000000000000000000000000000000000000000000000000000000008152600401612d809061556a565b60405180910390fd5b6002600181905550600260009054906101000a900473ffffffffffffffffffffffffffffffffffffffff1673ffffffffffffffffffffffffffffffffffffffff1663282d3fdf33610e1060a8612ddf91906158d2565b610e106018612dee91906158d2565b600a54612dfb91906156da565b612e0591906156da565b6040518363ffffffff1660e01b8152600401612e22929190614ee6565b600060405180830381600087803b158015612e3c57600080fd5b505af1158015612e50573d6000803e3d6000fd5b50505050612e5e33856138f7565b6001808190555050505050565b612e73613730565b73ffffffffffffffffffffffffffffffffffffffff16612e91611ff0565b73ffffffffffffffffffffffffffffffffffffffff1614612ee7576040517f08c379a0000000000000000000000000000000000000000000000000000000008152600401612ede9061544a565b60405180910390fd5b600073ffffffffffffffffffffffffffffffffffffffff168173ffffffffffffffffffffffffffffffffffffffff161415612f57576040517f08c379a0000000000000000000000000000000000000000000000000000000008152600401612f4e9061520a565b60405180910390fd5b8073ffffffffffffffffffffffffffffffffffffffff1660008054906101000a900473ffffffffffffffffffffffffffffffffffffffff1673ffffffffffffffffffffffffffffffffffffffff167f8be0079c531659141344cd1fd0a4f28419497f9722a3daafe3b4186f6b6457e060405160405180910390a3806000806101000a81548173ffffffffffffffffffffffffffffffffffffffff021916908373ffffffffffffffffffffffffffffffffffffffff16021790555050565b600a5481565b602160009054906101000a900473ffffffffffffffffffffffffffffffffffffffff1681565b613048613730565b73ffffffffffffffffffffffffffffffffffffffff16613066611ff0565b73ffffffffffffffffffffffffffffffffffffffff16146130bc576040517f08c379a00000000000000000000000000000000000000000000000000000000081526004016130b39061544a565b60405180910390fd5b600e60009054906101000a900460ff161561310c576040517f08c379a0000000000000000000000000000000000000000000000000000000008152600401613103906152ea565b60405180910390fd5b4281101561314f576040517f08c379a0000000000000000000000000000000000000000000000000000000008152600401613146906153ea565b60405180910390fd5b80600981905550610e10601861316591906158d2565b610e10607861317491906158d2565b61317e91906156da565b60095461318b91906156da565b600a81905550610e1060186131a091906158d2565b600a546131ad91906156da565b600b81905550601b546005546131c391906156da565b600460009054906101000a900473ffffffffffffffffffffffffffffffffffffffff1673ffffffffffffffffffffffffffffffffffffffff166370a08231306040518263ffffffff1660e01b815260040161321e9190614e94565b60206040518083038186803b15801561323657600080fd5b505afa15801561324a573d6000803e3d6000fd5b505050506040513d601f19601f8201168201806040525081019061326e919061427b565b10156132af576040517f08c379a00000000000000000000000000000000000000000000000000000000081526004016132a69061542a565b60405180910390fd5b7f2bb1a17c53695feb3f7706dfa7a6cfd959e5d1b0342d6dce407dd8921cba6638600954600a54600b546040516132e8939291906155ee565b60405180910390a16001600e60006101000a81548160ff02191690831515021790555050565b6000600160648361331f9190615730565b61332991906156da565b9050919050565b60608167ffffffffffffffff811115613372577f4e487b7100000000000000000000000000000000000000000000000000000000600052604160045260246000fd5b6040519080825280602002602001820160405280156133a05781602001602082028036833780820191505090505b50905060006014549050600085856133b8919061592c565b9050838110156133fd576040517f08c379a00000000000000000000000000000000000000000000000000000000081526004016133f4906154ea565b60405180910390fd5b600060fb905060005b8581101561352e576000888460028561341f91906157b4565b8761342a91906156da565b6134349190615b23565b61343e91906156da565b90506000805b60018461345191906156da565b8110156134bc57878181518110613491577f4e487b7100000000000000000000000000000000000000000000000000000000600052603260045260246000fd5b60200260200101518314156134a957600191506134bc565b80806134b490615aa2565b915050613444565b508061351857818784815181106134fc577f4e487b7100000000000000000000000000000000000000000000000000000000600052603260045260246000fd5b60200260200101818152505060018361351591906156da565b92505b60018461352591906156da565b93505050613406565b505050509392505050565b60008060009050809150601a60008473ffffffffffffffffffffffffffffffffffffffff1673ffffffffffffffffffffffffffffffffffffffff16815260200190815260200160002060009054906101000a900460ff16156135a85761359f600261201f565b80925081935050505b915091565b6135b5613b15565b80156135ce5750601f60009054906101000a900460ff16155b15613629576135e1601b54601c54613b22565b602060008282546135f291906156da565b92505081905550601d544261360791906156da565b601e819055506001601f60006101000a81548160ff0219169083151502179055505b565b60006012547f000000000000000000000000000000000000000000000000000000000000000073ffffffffffffffffffffffffffffffffffffffff166370a08231306040518263ffffffff1660e01b81526004016136899190614e94565b60206040518083038186803b1580156136a157600080fd5b505afa1580156136b5573d6000803e3d6000fd5b505050506040513d601f19601f820116820180604052508101906136d9919061427b565b101561371a576040517f08c379a0000000000000000000000000000000000000000000000000000000008152600401613711906152ca565b60405180910390fd5b61372960115460125484613ced565b9050919050565b600033905090565b816013819055508060148190555061374e613e4e565b5050565b6060600061376160165461330e565b90508067ffffffffffffffff8111156137a3577f4e487b7100000000000000000000000000000000000000000000000000000000600052604160045260246000fd5b6040519080825280602002602001820160405280156137d15781602001602082028036833780820191505090505b50915060006137e4600060165484613330565b905060005b828110156138f157600060176000848481518110613830577f4e487b7100000000000000000000000000000000000000000000000000000000600052603260045260246000fd5b6020026020010151815260200190815260200160002060009054906101000a900473ffffffffffffffffffffffffffffffffffffffff169050808583815181106138a3577f4e487b7100000000000000000000000000000000000000000000000000000000600052603260045260246000fd5b602002602001019073ffffffffffffffffffffffffffffffffffffffff16908173ffffffffffffffffffffffffffffffffffffffff16815250505080806138e990615aa2565b9150506137e9565b50505090565b6001600c60008473ffffffffffffffffffffffffffffffffffffffff1673ffffffffffffffffffffffffffffffffffffffff16815260200190815260200160002060000160006101000a81548160ff02191690831515021790555080600c60008473ffffffffffffffffffffffffffffffffffffffff1673ffffffffffffffffffffffffffffffffffffffff168152602001908152602001600020600101819055506001600f82815481106139d5577f4e487b7100000000000000000000000000000000000000000000000000000000600052603260045260246000fd5b906000526020600020906004020160030160008282546139f591906156da565b92505081905550600f8181548110613a36577f4e487b7100000000000000000000000000000000000000000000000000000000600052603260045260246000fd5b90600052602060002090600402016002015460076000828254613a5991906156da565b92505081905550600d829080600181540180825580915050600190039060005260206000200160009091909190916101000a81548173ffffffffffffffffffffffffffffffffffffffff021916908373ffffffffffffffffffffffffffffffffffffffff1602179055503373ffffffffffffffffffffffffffffffffffffffff167ff6c60b059f60c86b2d612b237ac38bd87bc1f68f87600cd360d68351af1ca95f82604051613b0991906155aa565b60405180910390a25050565b6000601c54471015905090565b6000600460009054906101000a900473ffffffffffffffffffffffffffffffffffffffff1673ffffffffffffffffffffffffffffffffffffffff1663095ea7b3602160009054906101000a900473ffffffffffffffffffffffffffffffffffffffff16856040518363ffffffff1660e01b8152600401613ba3929190614ee6565b602060405180830381600087803b158015613bbd57600080fd5b505af1158015613bd1573d6000803e3d6000fd5b505050506040513d601f19601f82011682018060405250810190613bf591906141ed565b50602160009054906101000a900473ffffffffffffffffffffffffffffffffffffffff1673ffffffffffffffffffffffffffffffffffffffff1663f305d71983600460009054906101000a900473ffffffffffffffffffffffffffffffffffffffff16866000803061016842613c6b91906156da565b6040518863ffffffff1660e01b8152600401613c8c96959493929190614f4d565b6060604051808303818588803b158015613ca557600080fd5b505af1158015613cb9573d6000803e3d6000fd5b50505050506040513d601f19601f82011682018060405250810190613cde91906142a4565b90915090508091505092915050565b60007f000000000000000000000000000000000000000000000000000000000000000073ffffffffffffffffffffffffffffffffffffffff16634000aea07f0000000000000000000000000000000000000000000000000000000000000000858786604051602001613d6092919061505f565b6040516020818303038152906040526040518463ffffffff1660e01b8152600401613d8d93929190614f0f565b602060405180830381600087803b158015613da757600080fd5b505af1158015613dbb573d6000803e3d6000fd5b505050506040513d601f19601f82011682018060405250810190613ddf91906141ed565b506000613e01858430601060008a815260200190815260200160002054613e73565b905060016010600087815260200190815260200160002054613e2391906156da565b6010600087815260200190815260200160002081905550613e448582613eaf565b9150509392505050565b6001601560016101000a81548160ff021916908315150217905550613e71613ee2565b565b600084848484604051602001613e8c9493929190615088565b6040516020818303038152906040528051906020012060001c9050949350505050565b60008282604051602001613ec4929190614e53565b60405160208183030381529060405280519060200120905092915050565b6000613eec613752565b905060005b81518110156140df576000828281518110613f35577f4e487b7100000000000000000000000000000000000000000000000000000000600052603260045260246000fd5b60200260200101519050600060029050601a60008373ffffffffffffffffffffffffffffffffffffffff1673ffffffffffffffffffffffffffffffffffffffff16815260200190815260200160002060009054906101000a900460ff16158015613fa7575080613fa4836126a6565b14155b156140ca576001601a60008473ffffffffffffffffffffffffffffffffffffffff1673ffffffffffffffffffffffffffffffffffffffff16815260200190815260200160002060006101000a81548160ff021916908315150217905550600f818154811061403e577f4e487b7100000000000000000000000000000000000000000000000000000000600052603260045260246000fd5b9060005260206000209060040201600301600081548092919061406090615aa2565b9190505550600f818154811061409f577f4e487b7100000000000000000000000000000000000000000000000000000000600052603260045260246000fd5b906000526020600020906004020160020154600760008282546140c291906156da565b925050819055505b505080806140d790615aa2565b915050613ef1565b5050565b6000813590506140f281615c0c565b92915050565b60008151905061410781615c23565b92915050565b60008135905061411c81615c3a565b92915050565b60008135905061413181615c51565b92915050565b60008151905061414681615c51565b92915050565b60006020828403121561415e57600080fd5b600061416c848285016140e3565b91505092915050565b6000806040838503121561418857600080fd5b6000614196858286016140e3565b92505060206141a7858286016140e3565b9150509250929050565b600080604083850312156141c457600080fd5b60006141d2858286016140e3565b92505060206141e385828601614122565b9150509250929050565b6000602082840312156141ff57600080fd5b600061420d848285016140f8565b91505092915050565b6000806040838503121561422957600080fd5b60006142378582860161410d565b925050602061424885828601614122565b9150509250929050565b60006020828403121561426457600080fd5b600061427284828501614122565b91505092915050565b60006020828403121561428d57600080fd5b600061429b84828501614137565b91505092915050565b6000806000606084860312156142b957600080fd5b60006142c786828701614137565b93505060206142d886828701614137565b92505060406142e986828701614137565b9150509250925092565b60006142ff8383614323565b60208301905092915050565b60006143178383614e03565b60208301905092915050565b61432c81615960565b82525050565b61433b81615960565b82525050565b61435261434d82615960565b615aeb565b82525050565b600061436382615645565b61436d818561568b565b935061437883615625565b8060005b838110156143a957815161439088826142f3565b975061439b83615671565b92505060018101905061437c565b5085935050505092915050565b60006143c182615650565b6143cb818561569c565b93506143d683615635565b8060005b838110156144075781516143ee888261430b565b97506143f98361567e565b9250506001810190506143da565b5085935050505092915050565b61441d81615972565b82525050565b61442c8161597e565b82525050565b61444361443e8261597e565b615afd565b82525050565b60006144548261565b565b61445e81856156ad565b935061446e818560208601615a3d565b61447781615be1565b840191505092915050565b61448b816159bf565b82525050565b61449a816159e3565b82525050565b6144a981615a07565b82525050565b6144b881615a2b565b82525050565b60006144c982615666565b6144d381856156c9565b93506144e3818560208601615a3d565b6144ec81615be1565b840191505092915050565b60006145046014836156c9565b91507f464346533a20496e76616c696420416d6f756e740000000000000000000000006000830152602082019050919050565b60006145446014836156c9565b91507f4e6f742056616c69642045746820416d6f756e740000000000000000000000006000830152602082019050919050565b60006145846017836156c9565b91507f464346533a20496e76616c6964204574682056616c75650000000000000000006000830152602082019050919050565b60006145c4601b836156c9565b91507f416c72656164792050617274696369706174656420496e2049444f00000000006000830152602082019050919050565b6000614604600e836156c9565b91507f4e6f7420726567697374657265640000000000000000000000000000000000006000830152602082019050919050565b60006146446026836156c9565b91507f4f776e61626c653a206e6577206f776e657220697320746865207a65726f206160008301527f64647265737300000000000000000000000000000000000000000000000000006020830152604082019050919050565b60006146aa6016836156c9565b91507f416c72656164792047656e657261746564204f6e6365000000000000000000006000830152602082019050919050565b60006146ea6013836156c9565b91507f526166666c653a204f7574204f662054696d65000000000000000000000000006000830152602082019050919050565b600061472a6010836156c9565b91507f464346533a204e6f74204e6565646564000000000000000000000000000000006000830152602082019050919050565b600061476a6012836156c9565b91507f416c7265616479207265676973746572656400000000000000000000000000006000830152602082019050919050565b60006147aa600f836156c9565b91507f696e76616c696420506f6f6c206e6f00000000000000000000000000000000006000830152602082019050919050565b60006147ea602b836156c9565b91507f4e6f7420656e6f756768204c494e4b202d2066696c6c20636f6e74726163742060008301527f77697468206661756365740000000000000000000000000000000000000000006020830152604082019050919050565b60006148506013836156c9565b91507f416c726561647920496e697469616c697a6564000000000000000000000000006000830152602082019050919050565b60006148906011836156c9565b91507f416c7265616479205075726368617365640000000000000000000000000000006000830152602082019050919050565b60006148d0601d836156c9565b91507f43616e277420506172746963697061746520696e2074686520506f6f6c0000006000830152602082019050919050565b6000614910601d836156c9565b91507f464346533a20546965722053616c65206e6f7420456e646564205965740000006000830152602082019050919050565b60006149506013836156c9565b91507f4c6971756964697479204973204c6f636b6564000000000000000000000000006000830152602082019050919050565b60006149906018836156c9565b91507f464346533a2053616c65204e6f7420456e6465642059657400000000000000006000830152602082019050919050565b60006149d06020836156c9565b91507f526166666c653a2050617274696369706174696f6e204469646e277420456e646000830152602082019050919050565b6000614a106015836156c9565b91507f556e61626c6520546f205265636f7665722045746800000000000000000000006000830152602082019050919050565b6000614a506014836156c9565b91507f49444f2043616e277420426520696e20506173740000000000000000000000006000830152602082019050919050565b6000614a906022836156c9565b91507f526166666c653a2050617274696369706174696f6e204469646e27742042656760008301527f696e0000000000000000000000000000000000000000000000000000000000006020830152604082019050919050565b6000614af6601d836156c9565b91507f4e6f7420456e6f75676820546f6b656e7320496e20436f6e74726163740000006000830152602082019050919050565b6000614b366020836156c9565b91507f4f776e61626c653a2063616c6c6572206973206e6f7420746865206f776e65726000830152602082019050919050565b6000614b76601b836156c9565b91507f526166666c653a2050617274696369706174696f6e20456e64656400000000006000830152602082019050919050565b6000614bb6601f836156c9565b91507f4f6e6c7920565246436f6f7264696e61746f722063616e2066756c66696c6c006000830152602082019050919050565b6000614bf66014836156c9565b91507f56616c7565732043616e2774204265205a65726f0000000000000000000000006000830152602082019050919050565b6000614c366016836156c9565b91507f57696e6e6572204e6f74204465636964656420596574000000000000000000006000830152602082019050919050565b6000614c76600c836156c9565b91507f496e76616c69642053697a6500000000000000000000000000000000000000006000830152602082019050919050565b6000614cb6601a836156c9565b91507f4e6f7420696e20526567697374726174696f6e20506572696f640000000000006000830152602082019050919050565b6000614cf66000836156be565b9150600082019050919050565b6000614d106012836156c9565b91507f4e6f7420696e2053616c6520506572696f6400000000000000000000000000006000830152602082019050919050565b6000614d50601c836156c9565b91507f464346533a20596f7520617265206e6f742072656769737465726564000000006000830152602082019050919050565b6000614d90601f836156c9565b91507f5265656e7472616e637947756172643a207265656e7472616e742063616c6c006000830152602082019050919050565b6000614dd06013836156c9565b91507f4e6f7420496e697469616c697a656420596574000000000000000000000000006000830152602082019050919050565b614e0c816159a8565b82525050565b614e1b816159a8565b82525050565b614e32614e2d826159a8565b615b19565b82525050565b6000614e448284614341565b60148201915081905092915050565b6000614e5f8285614432565b602082019150614e6f8284614e21565b6020820191508190509392505050565b6000614e8a82614ce9565b9150819050919050565b6000602082019050614ea96000830184614332565b92915050565b6000606082019050614ec46000830186614332565b614ed16020830185614332565b614ede6040830184614e12565b949350505050565b6000604082019050614efb6000830185614332565b614f086020830184614e12565b9392505050565b6000606082019050614f246000830186614332565b614f316020830185614e12565b8181036040830152614f438184614449565b9050949350505050565b600060c082019050614f626000830189614332565b614f6f6020830188614e12565b614f7c60408301876144af565b614f8960608301866144af565b614f966080830185614332565b614fa360a0830184614e12565b979650505050505050565b60006020820190508181036000830152614fc88184614358565b905092915050565b60006020820190508181036000830152614fea81846143b6565b905092915050565b60006020820190506150076000830184614414565b92915050565b60006060820190506150226000830186614414565b61502f6020830185614e12565b61503c6040830184614414565b949350505050565b60006020820190506150596000830184614423565b92915050565b60006040820190506150746000830185614423565b6150816020830184614e12565b9392505050565b600060808201905061509d6000830187614423565b6150aa6020830186614e12565b6150b76040830185614332565b6150c46060830184614e12565b95945050505050565b60006020820190506150e26000830184614482565b92915050565b60006020820190506150fd6000830184614491565b92915050565b600060208201905061511860008301846144a0565b92915050565b6000608082019050818103600083015261513881876144be565b90506151476020830186614e12565b6151546040830185614e12565b6151616060830184614e12565b95945050505050565b60006020820190508181036000830152615183816144f7565b9050919050565b600060208201905081810360008301526151a381614537565b9050919050565b600060208201905081810360008301526151c381614577565b9050919050565b600060208201905081810360008301526151e3816145b7565b9050919050565b60006020820190508181036000830152615203816145f7565b9050919050565b6000602082019050818103600083015261522381614637565b9050919050565b600060208201905081810360008301526152438161469d565b9050919050565b60006020820190508181036000830152615263816146dd565b9050919050565b600060208201905081810360008301526152838161471d565b9050919050565b600060208201905081810360008301526152a38161475d565b9050919050565b600060208201905081810360008301526152c38161479d565b9050919050565b600060208201905081810360008301526152e3816147dd565b9050919050565b6000602082019050818103600083015261530381614843565b9050919050565b6000602082019050818103600083015261532381614883565b9050919050565b60006020820190508181036000830152615343816148c3565b9050919050565b6000602082019050818103600083015261536381614903565b9050919050565b6000602082019050818103600083015261538381614943565b9050919050565b600060208201905081810360008301526153a381614983565b9050919050565b600060208201905081810360008301526153c3816149c3565b9050919050565b600060208201905081810360008301526153e381614a03565b9050919050565b6000602082019050818103600083015261540381614a43565b9050919050565b6000602082019050818103600083015261542381614a83565b9050919050565b6000602082019050818103600083015261544381614ae9565b9050919050565b6000602082019050818103600083015261546381614b29565b9050919050565b6000602082019050818103600083015261548381614b69565b9050919050565b600060208201905081810360008301526154a381614ba9565b9050919050565b600060208201905081810360008301526154c381614be9565b9050919050565b600060208201905081810360008301526154e381614c29565b9050919050565b6000602082019050818103600083015261550381614c69565b9050919050565b6000602082019050818103600083015261552381614ca9565b9050919050565b6000602082019050818103600083015261554381614d03565b9050919050565b6000602082019050818103600083015261556381614d43565b9050919050565b6000602082019050818103600083015261558381614d83565b9050919050565b600060208201905081810360008301526155a381614dc3565b9050919050565b60006020820190506155bf6000830184614e12565b92915050565b60006040820190506155da6000830185614e12565b6155e76020830184614e12565b9392505050565b60006060820190506156036000830186614e12565b6156106020830185614e12565b61561d6040830184614e12565b949350505050565b6000819050602082019050919050565b6000819050602082019050919050565b600081519050919050565b600081519050919050565b600081519050919050565b600081519050919050565b6000602082019050919050565b6000602082019050919050565b600082825260208201905092915050565b600082825260208201905092915050565b600082825260208201905092915050565b600081905092915050565b600082825260208201905092915050565b60006156e5826159a8565b91506156f0836159a8565b9250827fffffffffffffffffffffffffffffffffffffffffffffffffffffffffffffffff0382111561572557615724615b54565b5b828201905092915050565b600061573b826159a8565b9150615746836159a8565b92508261575657615755615b83565b5b828204905092915050565b6000808291508390505b60018511156157ab5780860481111561578757615786615b54565b5b60018516156157965780820291505b80810290506157a485615bff565b945061576b565b94509492505050565b60006157bf826159a8565b91506157ca836159b2565b92506157f77fffffffffffffffffffffffffffffffffffffffffffffffffffffffffffffffff84846157ff565b905092915050565b60008261580f57600190506158cb565b8161581d57600090506158cb565b8160018114615833576002811461583d5761586c565b60019150506158cb565b60ff84111561584f5761584e615b54565b5b8360020a91508482111561586657615865615b54565b5b506158cb565b5060208310610133831016604e8410600b84101617156158a15782820a90508381111561589c5761589b615b54565b5b6158cb565b6158ae8484846001615761565b925090508184048111156158c5576158c4615b54565b5b81810290505b9392505050565b60006158dd826159a8565b91506158e8836159a8565b9250817fffffffffffffffffffffffffffffffffffffffffffffffffffffffffffffffff048311821515161561592157615920615b54565b5b828202905092915050565b6000615937826159a8565b9150615942836159a8565b92508282101561595557615954615b54565b5b828203905092915050565b600061596b82615988565b9050919050565b60008115159050919050565b6000819050919050565b600073ffffffffffffffffffffffffffffffffffffffff82169050919050565b6000819050919050565b600060ff82169050919050565b60006159ca826159d1565b9050919050565b60006159dc82615988565b9050919050565b60006159ee826159f5565b9050919050565b6000615a0082615988565b9050919050565b6000615a1282615a19565b9050919050565b6000615a2482615988565b9050919050565b6000615a36826159a8565b9050919050565b60005b83811015615a5b578082015181840152602081019050615a40565b83811115615a6a576000848401525b50505050565b60006002820490506001821680615a8857607f821691505b60208210811415615a9c57615a9b615bb2565b5b50919050565b6000615aad826159a8565b91507fffffffffffffffffffffffffffffffffffffffffffffffffffffffffffffffff821415615ae057615adf615b54565b5b600182019050919050565b6000615af682615b07565b9050919050565b6000819050919050565b6000615b1282615bf2565b9050919050565b6000819050919050565b6000615b2e826159a8565b9150615b39836159a8565b925082615b4957615b48615b83565b5b828206905092915050565b7f4e487b7100000000000000000000000000000000000000000000000000000000600052601160045260246000fd5b7f4e487b7100000000000000000000000000000000000000000000000000000000600052601260045260246000fd5b7f4e487b7100000000000000000000000000000000000000000000000000000000600052602260045260246000fd5b6000601f19601f8301169050919050565b60008160601b9050919050565b60008160011c9050919050565b615c1581615960565b8114615c2057600080fd5b50565b615c2c81615972565b8114615c3757600080fd5b50565b615c438161597e565b8114615c4e57600080fd5b50565b615c5a816159a8565b8114615c6557600080fd5b5056fea26469706673582212207fb3685edcb5c8e4f2063d5e20fd5a4e88c781375e75d54c03f2d9e9b86eeb4664736f6c63430008000033",
  "immutableReferences": {
    "3641": [
      {
        "length": 32,
        "start": 13874
      },
      {
        "length": 32,
        "start": 15601
      }
    ],
    "3643": [
      {
        "length": 32,
        "start": 8622
      },
      {
        "length": 32,
        "start": 15661
      }
    ]
  },
  "source": "// SPDX-License-Identifier: MIT\r\npragma solidity ^0.8.0;\r\n\r\nimport \"./RaffleWrap.sol\";\r\n\r\ninterface PairInterface {\r\n    \r\n    function sync() external;\r\n\r\n}\r\n\r\ninterface FactoryInterface {\r\n    \r\n    function getPair(address tokenA, address tokenB) external view returns (address pair);\r\n    function createPair(address tokenA, address tokenB) external returns (address pair);\r\n\r\n}\r\n\r\ninterface RouterInterface {\r\n\r\n    function factory() external pure returns (address);\r\n    function WETH() external pure returns (address);\r\n\r\n    function addLiquidityETH(\r\n        address token,\r\n        uint amountTokenDesired,\r\n        uint amountTokenMin,\r\n        uint amountETHMin,\r\n        address to,\r\n        uint deadline\r\n    ) external payable returns (uint amountToken, uint amountETH, uint liquidity);\r\n    \r\n}\r\n\r\ncontract DEXWrap is RaffleWrap {\r\n\r\n    uint256 public tokensToLiquidity;\r\n    uint256 public softCapETH;\r\n    uint256 public lpLockPeriod;\r\n    uint256 public lpLockedTill;\r\n\r\n    bool public isSoftLiquidityAdded;\r\n    uint256 public liquidity = 0;\r\n\r\n    RouterInterface public router;\r\n    address public pairAddress;\r\n    \r\n    event Initialization(uint256 regStart, uint256 saleStart, uint256 fcfsStart);\r\n\r\n    modifier afterFCFSSale() {\r\n        uint256 x = 0;\r\n        if(isFCFSNeeded()) {\r\n            x = fcfsDuration;\r\n        }\r\n        require(isInitialized, \"Not Initialized Yet\");\r\n        require(fcfsStarts + x <= block.timestamp, \"FCFS: Sale Not Ended Yet\");\r\n        _;\r\n    }\r\n\r\n    constructor (\r\n        address _stakerAddress,\r\n        address _nativeTokenAddress,\r\n        address _idoTokenAddress,\r\n        uint256 _idoAmount,\r\n        uint256 _price,\r\n        uint256 _tokensToLiquidity,\r\n        uint256 _softCapETH,\r\n        uint256 _lpLockPeriod\r\n    ) RaffleWrap (\r\n        _stakerAddress,\r\n        _nativeTokenAddress,\r\n        _idoTokenAddress,\r\n        _idoAmount,\r\n        _price\r\n    ) {\r\n        tokensToLiquidity = _tokensToLiquidity;\r\n        softCapETH = _softCapETH;\r\n        lpLockPeriod = _lpLockPeriod;\r\n\r\n        router = RouterInterface(0x7a250d5630B4cF539739dF2C5dAcb4c659F2488D);\r\n        pairAddress = FactoryInterface(router.factory()).getPair(_idoTokenAddress, router.WETH());\r\n        if(pairAddress == address(0)) {\r\n            pairAddress = FactoryInterface(router.factory()).createPair(_idoTokenAddress, router.WETH());\r\n        }\r\n    }\r\n\r\n    function initialize(uint256 time) external onlyOwner notInitialized {\r\n        require(time >= block.timestamp, \"IDO Can't Be in Past\");\r\n\r\n        regStarts = time;\r\n        saleStarts = regStarts + saleStartsAfter;\r\n        fcfsStarts = saleStarts + saleDuration;\r\n\r\n        require(idoToken.balanceOf(address(this)) >= idoTokenSum + tokensToLiquidity, \"Not Enough Tokens In Contract\");\r\n\r\n        emit Initialization(regStarts, saleStarts, fcfsStarts);\r\n    }\r\n\r\n    function _DEXAction() internal override {\r\n        if(_isSoftCapReached() && !isSoftLiquidityAdded) {\r\n            liquidity += _addLiquidity(tokensToLiquidity, softCapETH);\r\n            lpLockedTill = block.timestamp + lpLockPeriod;\r\n            isSoftLiquidityAdded = true;\r\n        }\r\n    }\r\n\r\n    function _isSoftCapReached() internal view returns(bool res) {\r\n        res = address(this).balance >= softCapETH;\r\n    }\r\n\r\n    function _addLiquidity(uint256 _tokenAmount, uint256 _ethAmount) internal returns(uint256 _liquidity) {\r\n\r\n        idoToken.approve(address(router), _tokenAmount);\r\n\r\n        (,, _liquidity) = router.addLiquidityETH{value : _ethAmount}(\r\n            address(idoToken), \r\n            _tokenAmount, \r\n            0, \r\n            0, \r\n            address(this),\r\n            block.timestamp + 360\r\n        );\r\n    }\r\n\r\n    function isFCFSNeeded() public view returns(bool) {\r\n        if(remainingIDOTokens > 0) return true;\r\n        return false;\r\n    }\r\n\r\n    function swapPrice(uint256 amount) public view returns(uint256 price) {\r\n        price = (amount * idoTotalPrice) / idoTokenSum;\r\n    }\r\n\r\n    function fcfsBuy(uint256 amount) public payable nonReentrant {\r\n        uint256 price = swapPrice(amount);\r\n\r\n        require(isFCFSNeeded(), \"FCFS: Not Needed\");\r\n        require(getRegistrationStatus(msg.sender), \"FCFS: You are not registered\");\r\n        require(block.timestamp >= saleStarts + saleDuration, \"FCFS: Tier Sale not Ended Yet\");\r\n        require(amount != 0 && amount <= remainingIDOTokens, \"FCFS: Invalid Amount\");\r\n        require(msg.value == price, \"FCFS: Invalid Eth Value\");\r\n\r\n        idoToken.transfer(msg.sender, amount);\r\n        remainingIDOTokens -= amount;\r\n        _DEXAction();\r\n\r\n        emit Purchase(msg.sender, amount, price);\r\n    }\r\n\r\n    function recoverEth(address to) external onlyOwner afterFCFSSale {\r\n        (bool sent,) = address(to).call{value : address(this).balance}(\"\");\r\n        require(sent, 'Unable To Recover Eth');\r\n    }\r\n\r\n    function recoverERC20(\r\n        address tokenAddress,\r\n        address to\r\n    ) external onlyOwner afterFCFSSale {\r\n        if(tokenAddress == pairAddress) {\r\n            require(block.timestamp >= lpLockedTill, \"Liquidity Is Locked\");\r\n        }\r\n        IERC20Metadata tok = IERC20Metadata(tokenAddress);\r\n        tok.transfer(to, tok.balanceOf(address(this)));\r\n    }\r\n\r\n    function isAfterFCFS() public view afterFCFSSale returns(bool) {\r\n        return true;\r\n    }\r\n    \r\n\r\n    // Receive  External Eth\r\n    event Received(address account, uint eth);\r\n    receive() external payable {\r\n        emit Received(msg.sender, msg.value);\r\n    }\r\n\r\n}",
  "sourcePath": "C:/Users/sudip/Desktop/RealProjects/PolyStarter/contracts/IDOStaker/DEXWrap.sol",
  "compiler": {
    "name": "solc",
    "version": "0.8.0+commit.c7dfd78e.Emscripten.clang"
  },
  "schemaVersion": "3.3.4",
  "updatedAt": "2021-07-02T13:54:52.766Z",
  "devdoc": {
    "kind": "dev",
    "methods": {
      "owner()": {
        "details": "Returns the address of the current owner."
      },
      "renounceOwnership()": {
        "details": "Leaves the contract without owner. It will not be possible to call `onlyOwner` functions anymore. Can only be called by the current owner. NOTE: Renouncing ownership will leave the contract without an owner, thereby removing any functionality that is only available to the owner."
      },
      "transferOwnership(address)": {
        "details": "Transfers ownership of the contract to a new account (`newOwner`). Can only be called by the current owner."
      }
    },
    "version": 1
  },
  "userdoc": {
    "kind": "user",
    "methods": {},
    "version": 1
  }
}