{
  "contractName": "FCFSWrap",
  "abi": [
    {
      "inputs": [
        {
          "internalType": "address",
          "name": "_stakerAddress",
          "type": "address"
        },
        {
          "internalType": "address",
          "name": "_nativeTokenAddress",
          "type": "address"
        },
        {
          "internalType": "address",
          "name": "_idoTokenAddress",
          "type": "address"
        },
        {
          "internalType": "uint256",
          "name": "_idoAmount",
          "type": "uint256"
        },
        {
          "internalType": "uint256",
          "name": "_price",
          "type": "uint256"
        }
      ],
      "stateMutability": "nonpayable",
      "type": "constructor"
    },
    {
      "anonymous": false,
      "inputs": [
        {
          "indexed": false,
          "internalType": "uint256",
          "name": "regStart",
          "type": "uint256"
        },
        {
          "indexed": false,
          "internalType": "uint256",
          "name": "saleStart",
          "type": "uint256"
        },
        {
          "indexed": false,
          "internalType": "uint256",
          "name": "fcfsStart",
          "type": "uint256"
        }
      ],
      "name": "Initialization",
      "type": "event"
    },
    {
      "anonymous": false,
      "inputs": [
        {
          "indexed": true,
          "internalType": "address",
          "name": "previousOwner",
          "type": "address"
        },
        {
          "indexed": true,
          "internalType": "address",
          "name": "newOwner",
          "type": "address"
        }
      ],
      "name": "OwnershipTransferred",
      "type": "event"
    },
    {
      "anonymous": false,
      "inputs": [
        {
          "indexed": true,
          "internalType": "address",
          "name": "",
          "type": "address"
        },
        {
          "indexed": false,
          "internalType": "uint256",
          "name": "tokens",
          "type": "uint256"
        },
        {
          "indexed": false,
          "internalType": "uint256",
          "name": "price",
          "type": "uint256"
        }
      ],
      "name": "Purchase",
      "type": "event"
    },
    {
      "anonymous": false,
      "inputs": [
        {
          "indexed": true,
          "internalType": "address",
          "name": "account",
          "type": "address"
        },
        {
          "indexed": false,
          "internalType": "uint256",
          "name": "poolNo",
          "type": "uint256"
        }
      ],
      "name": "Registration",
      "type": "event"
    },
    {
      "inputs": [],
      "name": "RAFFLE_POOL",
      "outputs": [
        {
          "internalType": "uint256",
          "name": "",
          "type": "uint256"
        }
      ],
      "stateMutability": "view",
      "type": "function"
    },
    {
      "inputs": [
        {
          "internalType": "address",
          "name": "",
          "type": "address"
        }
      ],
      "name": "addressToTicketCount",
      "outputs": [
        {
          "internalType": "uint256",
          "name": "",
          "type": "uint256"
        }
      ],
      "stateMutability": "view",
      "type": "function"
    },
    {
      "inputs": [
        {
          "internalType": "address",
          "name": "",
          "type": "address"
        },
        {
          "internalType": "uint256",
          "name": "",
          "type": "uint256"
        }
      ],
      "name": "addressToTicketsOwned",
      "outputs": [
        {
          "internalType": "uint256",
          "name": "",
          "type": "uint256"
        }
      ],
      "stateMutability": "view",
      "type": "function"
    },
    {
      "inputs": [
        {
          "internalType": "address",
          "name": "account",
          "type": "address"
        }
      ],
      "name": "allocationByAddress",
      "outputs": [
        {
          "internalType": "uint256",
          "name": "tokens",
          "type": "uint256"
        },
        {
          "internalType": "uint256",
          "name": "price",
          "type": "uint256"
        }
      ],
      "stateMutability": "view",
      "type": "function"
    },
    {
      "inputs": [],
      "name": "buyNow",
      "outputs": [],
      "stateMutability": "payable",
      "type": "function"
    },
    {
      "inputs": [
        {
          "internalType": "uint256",
          "name": "_noOfTickets",
          "type": "uint256"
        }
      ],
      "name": "buyTickets",
      "outputs": [],
      "stateMutability": "nonpayable",
      "type": "function"
    },
    {
      "inputs": [],
      "name": "fcfsDuration",
      "outputs": [
        {
          "internalType": "uint256",
          "name": "",
          "type": "uint256"
        }
      ],
      "stateMutability": "view",
      "type": "function"
    },
    {
      "inputs": [],
      "name": "fcfsStarts",
      "outputs": [
        {
          "internalType": "uint256",
          "name": "",
          "type": "uint256"
        }
      ],
      "stateMutability": "view",
      "type": "function"
    },
    {
      "inputs": [],
      "name": "genRandom",
      "outputs": [],
      "stateMutability": "nonpayable",
      "type": "function"
    },
    {
      "inputs": [
        {
          "internalType": "address",
          "name": "account",
          "type": "address"
        }
      ],
      "name": "getPoolNo",
      "outputs": [
        {
          "internalType": "uint256",
          "name": "",
          "type": "uint256"
        }
      ],
      "stateMutability": "view",
      "type": "function"
    },
    {
      "inputs": [
        {
          "internalType": "address",
          "name": "account",
          "type": "address"
        }
      ],
      "name": "getRegistrationStatus",
      "outputs": [
        {
          "internalType": "bool",
          "name": "",
          "type": "bool"
        }
      ],
      "stateMutability": "view",
      "type": "function"
    },
    {
      "inputs": [],
      "name": "getTicketsWon",
      "outputs": [
        {
          "internalType": "uint256[]",
          "name": "",
          "type": "uint256[]"
        }
      ],
      "stateMutability": "view",
      "type": "function"
    },
    {
      "inputs": [],
      "name": "getWinners",
      "outputs": [
        {
          "internalType": "address[]",
          "name": "",
          "type": "address[]"
        }
      ],
      "stateMutability": "view",
      "type": "function"
    },
    {
      "inputs": [
        {
          "internalType": "address",
          "name": "",
          "type": "address"
        }
      ],
      "name": "hasWonRaffle",
      "outputs": [
        {
          "internalType": "bool",
          "name": "",
          "type": "bool"
        }
      ],
      "stateMutability": "view",
      "type": "function"
    },
    {
      "inputs": [],
      "name": "idoToken",
      "outputs": [
        {
          "internalType": "contract IERC20Metadata",
          "name": "",
          "type": "address"
        }
      ],
      "stateMutability": "view",
      "type": "function"
    },
    {
      "inputs": [],
      "name": "idoTokenSum",
      "outputs": [
        {
          "internalType": "uint256",
          "name": "",
          "type": "uint256"
        }
      ],
      "stateMutability": "view",
      "type": "function"
    },
    {
      "inputs": [],
      "name": "idoTotalPrice",
      "outputs": [
        {
          "internalType": "uint256",
          "name": "",
          "type": "uint256"
        }
      ],
      "stateMutability": "view",
      "type": "function"
    },
    {
      "inputs": [],
      "name": "isFulfilled",
      "outputs": [
        {
          "internalType": "bool",
          "name": "",
          "type": "bool"
        }
      ],
      "stateMutability": "view",
      "type": "function"
    },
    {
      "inputs": [],
      "name": "isInitialized",
      "outputs": [
        {
          "internalType": "bool",
          "name": "",
          "type": "bool"
        }
      ],
      "stateMutability": "view",
      "type": "function"
    },
    {
      "inputs": [
        {
          "internalType": "address",
          "name": "account",
          "type": "address"
        }
      ],
      "name": "isRaffleEligible",
      "outputs": [
        {
          "internalType": "bool",
          "name": "",
          "type": "bool"
        }
      ],
      "stateMutability": "view",
      "type": "function"
    },
    {
      "inputs": [],
      "name": "lockDuration",
      "outputs": [
        {
          "internalType": "uint256",
          "name": "",
          "type": "uint256"
        }
      ],
      "stateMutability": "view",
      "type": "function"
    },
    {
      "inputs": [],
      "name": "nativeToken",
      "outputs": [
        {
          "internalType": "contract IERC20Metadata",
          "name": "",
          "type": "address"
        }
      ],
      "stateMutability": "view",
      "type": "function"
    },
    {
      "inputs": [],
      "name": "noOfParticipants",
      "outputs": [
        {
          "internalType": "uint256",
          "name": "",
          "type": "uint256"
        }
      ],
      "stateMutability": "view",
      "type": "function"
    },
    {
      "inputs": [],
      "name": "owner",
      "outputs": [
        {
          "internalType": "address",
          "name": "",
          "type": "address"
        }
      ],
      "stateMutability": "view",
      "type": "function"
    },
    {
      "inputs": [
        {
          "internalType": "uint256",
          "name": "",
          "type": "uint256"
        }
      ],
      "name": "participantList",
      "outputs": [
        {
          "internalType": "address",
          "name": "",
          "type": "address"
        }
      ],
      "stateMutability": "view",
      "type": "function"
    },
    {
      "inputs": [
        {
          "internalType": "uint256",
          "name": "",
          "type": "uint256"
        }
      ],
      "name": "pools",
      "outputs": [
        {
          "internalType": "string",
          "name": "name",
          "type": "string"
        },
        {
          "internalType": "uint256",
          "name": "minNativeToken",
          "type": "uint256"
        },
        {
          "internalType": "uint256",
          "name": "weight",
          "type": "uint256"
        },
        {
          "internalType": "uint256",
          "name": "participants",
          "type": "uint256"
        }
      ],
      "stateMutability": "view",
      "type": "function"
    },
    {
      "inputs": [],
      "name": "randomResult",
      "outputs": [
        {
          "internalType": "uint256",
          "name": "",
          "type": "uint256"
        }
      ],
      "stateMutability": "view",
      "type": "function"
    },
    {
      "inputs": [
        {
          "internalType": "bytes32",
          "name": "requestId",
          "type": "bytes32"
        },
        {
          "internalType": "uint256",
          "name": "randomness",
          "type": "uint256"
        }
      ],
      "name": "rawFulfillRandomness",
      "outputs": [],
      "stateMutability": "nonpayable",
      "type": "function"
    },
    {
      "inputs": [],
      "name": "regDuration",
      "outputs": [
        {
          "internalType": "uint256",
          "name": "",
          "type": "uint256"
        }
      ],
      "stateMutability": "view",
      "type": "function"
    },
    {
      "inputs": [],
      "name": "regStarts",
      "outputs": [
        {
          "internalType": "uint256",
          "name": "",
          "type": "uint256"
        }
      ],
      "stateMutability": "view",
      "type": "function"
    },
    {
      "inputs": [
        {
          "internalType": "uint256",
          "name": "_poolNo",
          "type": "uint256"
        }
      ],
      "name": "register",
      "outputs": [],
      "stateMutability": "nonpayable",
      "type": "function"
    },
    {
      "inputs": [],
      "name": "remainingIDOTokens",
      "outputs": [
        {
          "internalType": "uint256",
          "name": "",
          "type": "uint256"
        }
      ],
      "stateMutability": "view",
      "type": "function"
    },
    {
      "inputs": [],
      "name": "renounceOwnership",
      "outputs": [],
      "stateMutability": "nonpayable",
      "type": "function"
    },
    {
      "inputs": [],
      "name": "reqId",
      "outputs": [
        {
          "internalType": "bytes32",
          "name": "",
          "type": "bytes32"
        }
      ],
      "stateMutability": "view",
      "type": "function"
    },
    {
      "inputs": [],
      "name": "saleDuration",
      "outputs": [
        {
          "internalType": "uint256",
          "name": "",
          "type": "uint256"
        }
      ],
      "stateMutability": "view",
      "type": "function"
    },
    {
      "inputs": [],
      "name": "saleStarts",
      "outputs": [
        {
          "internalType": "uint256",
          "name": "",
          "type": "uint256"
        }
      ],
      "stateMutability": "view",
      "type": "function"
    },
    {
      "inputs": [],
      "name": "saleStartsAfter",
      "outputs": [
        {
          "internalType": "uint256",
          "name": "",
          "type": "uint256"
        }
      ],
      "stateMutability": "view",
      "type": "function"
    },
    {
      "inputs": [],
      "name": "staker",
      "outputs": [
        {
          "internalType": "contract Staker",
          "name": "",
          "type": "address"
        }
      ],
      "stateMutability": "view",
      "type": "function"
    },
    {
      "inputs": [],
      "name": "ticketPrice",
      "outputs": [
        {
          "internalType": "uint256",
          "name": "",
          "type": "uint256"
        }
      ],
      "stateMutability": "view",
      "type": "function"
    },
    {
      "inputs": [
        {
          "internalType": "uint256",
          "name": "",
          "type": "uint256"
        }
      ],
      "name": "ticketToOwner",
      "outputs": [
        {
          "internalType": "address",
          "name": "",
          "type": "address"
        }
      ],
      "stateMutability": "view",
      "type": "function"
    },
    {
      "inputs": [],
      "name": "ticketsSold",
      "outputs": [
        {
          "internalType": "uint256",
          "name": "",
          "type": "uint256"
        }
      ],
      "stateMutability": "view",
      "type": "function"
    },
    {
      "inputs": [
        {
          "internalType": "uint256",
          "name": "_poolNo",
          "type": "uint256"
        }
      ],
      "name": "tokensAndPriceByPoolNo",
      "outputs": [
        {
          "internalType": "uint256",
          "name": "",
          "type": "uint256"
        },
        {
          "internalType": "uint256",
          "name": "",
          "type": "uint256"
        }
      ],
      "stateMutability": "view",
      "type": "function"
    },
    {
      "inputs": [],
      "name": "totalPoolShares",
      "outputs": [
        {
          "internalType": "uint256",
          "name": "",
          "type": "uint256"
        }
      ],
      "stateMutability": "view",
      "type": "function"
    },
    {
      "inputs": [
        {
          "internalType": "address",
          "name": "newOwner",
          "type": "address"
        }
      ],
      "name": "transferOwnership",
      "outputs": [],
      "stateMutability": "nonpayable",
      "type": "function"
    },
    {
      "inputs": [],
      "name": "treasuryAddress",
      "outputs": [
        {
          "internalType": "address",
          "name": "",
          "type": "address"
        }
      ],
      "stateMutability": "view",
      "type": "function"
    },
    {
      "inputs": [],
      "name": "unit",
      "outputs": [
        {
          "internalType": "uint256",
          "name": "",
          "type": "uint256"
        }
      ],
      "stateMutability": "view",
      "type": "function"
    },
    {
      "inputs": [
        {
          "internalType": "address",
          "name": "",
          "type": "address"
        }
      ],
      "name": "userlog",
      "outputs": [
        {
          "internalType": "bool",
          "name": "isRegistered",
          "type": "bool"
        },
        {
          "internalType": "uint256",
          "name": "registeredPool",
          "type": "uint256"
        },
        {
          "internalType": "bool",
          "name": "purchased",
          "type": "bool"
        }
      ],
      "stateMutability": "view",
      "type": "function"
    },
    {
      "inputs": [
        {
          "internalType": "uint256",
          "name": "time",
          "type": "uint256"
        }
      ],
      "name": "initialize",
      "outputs": [],
      "stateMutability": "nonpayable",
      "type": "function"
    },
    {
      "inputs": [],
      "name": "isFCFSNeeded",
      "outputs": [
        {
          "internalType": "bool",
          "name": "",
          "type": "bool"
        }
      ],
      "stateMutability": "view",
      "type": "function"
    },
    {
      "inputs": [
        {
          "internalType": "uint256",
          "name": "amount",
          "type": "uint256"
        }
      ],
      "name": "swapPrice",
      "outputs": [
        {
          "internalType": "uint256",
          "name": "price",
          "type": "uint256"
        }
      ],
      "stateMutability": "view",
      "type": "function"
    },
    {
      "inputs": [
        {
          "internalType": "uint256",
          "name": "amount",
          "type": "uint256"
        }
      ],
      "name": "fcfsBuy",
      "outputs": [],
      "stateMutability": "payable",
      "type": "function"
    },
    {
      "inputs": [
        {
          "internalType": "address",
          "name": "to",
          "type": "address"
        }
      ],
      "name": "recoverEth",
      "outputs": [],
      "stateMutability": "nonpayable",
      "type": "function"
    },
    {
      "inputs": [
        {
          "internalType": "address",
          "name": "tokenAddress",
          "type": "address"
        },
        {
          "internalType": "address",
          "name": "to",
          "type": "address"
        }
      ],
      "name": "recoverERC20",
      "outputs": [],
      "stateMutability": "nonpayable",
      "type": "function"
    },
    {
      "inputs": [],
      "name": "isAfterFCFS",
      "outputs": [
        {
          "internalType": "bool",
          "name": "",
          "type": "bool"
        }
      ],
      "stateMutability": "view",
      "type": "function"
    }
  ],
  "bytecode": "0x60c06040527327380034afa75ec72652769112800619e7c8bafe600960006101000a81548173ffffffffffffffffffffffffffffffffffffffff021916908373ffffffffffffffffffffffffffffffffffffffff1602179055506000601660016101000a81548160ff0219169083151502179055503480156200008157600080fd5b5060405162006402380380620064028339818101604052810190620000a79190620009f1565b848484848473b3dccb4cf7a26f6cf6b120cf5a73875b7bbc655b7301be23585060835e02b77ef475b0cc51aa1e070986868686866000620000ed620008f460201b60201c565b9050806000806101000a81548173ffffffffffffffffffffffffffffffffffffffff021916908373ffffffffffffffffffffffffffffffffffffffff1602179055508073ffffffffffffffffffffffffffffffffffffffff16600073ffffffffffffffffffffffffffffffffffffffff167f8be0079c531659141344cd1fd0a4f28419497f9722a3daafe3b4186f6b6457e060405160405180910390a3506001808190555084600260006101000a81548173ffffffffffffffffffffffffffffffffffffffff021916908373ffffffffffffffffffffffffffffffffffffffff16021790555083600360006101000a81548173ffffffffffffffffffffffffffffffffffffffff021916908373ffffffffffffffffffffffffffffffffffffffff16021790555082600460006101000a81548173ffffffffffffffffffffffffffffffffffffffff021916908373ffffffffffffffffffffffffffffffffffffffff16021790555081600581905550806006819055506005546008819055506000600360009054906101000a900473ffffffffffffffffffffffffffffffffffffffff1673ffffffffffffffffffffffffffffffffffffffff1663313ce5676040518163ffffffff1660e01b815260040160206040518083038186803b158015620002d757600080fd5b505afa158015620002ec573d6000803e3d6000fd5b505050506040513d601f19601f8201168201806040525081019062000312919062000a73565b60ff169050601060405180608001604052806040518060400160405280600481526020017f4e756c6c0000000000000000000000000000000000000000000000000000000081525081526020016000815260200160008152602001600081525090806001815401808255809150506001900390600052602060002090600402016000909190919091506000820151816000019080519060200190620003b9929190620008fc565b506020820151816001015560408201518160020155606082015181600301555050601060405180608001604052806040518060400160405280600681526020017f4b6e696768740000000000000000000000000000000000000000000000000000815250815260200183600a62000431919062000afa565b6103e862000440919062000c37565b81526020016001815260200160008152509080600181540180825580915050600190039060005260206000209060040201600090919091909150600082015181600001908051906020019062000498929190620008fc565b506020820151816001015560408201518160020155606082015181600301555050601060405180608001604052806040518060400160405280600681526020017f426973686f700000000000000000000000000000000000000000000000000000815250815260200183600a62000510919062000afa565b6105dc6200051f919062000c37565b81526020016004815260200160008152509080600181540180825580915050600190039060005260206000209060040201600090919091909150600082015181600001908051906020019062000577929190620008fc565b506020820151816001015560408201518160020155606082015181600301555050601060405180608001604052806040518060400160405280600481526020017f526f6f6b00000000000000000000000000000000000000000000000000000000815250815260200183600a620005ef919062000afa565b610bb8620005fe919062000c37565b81526020016008815260200160008152509080600181540180825580915050600190039060005260206000209060040201600090919091909150600082015181600001908051906020019062000656929190620008fc565b506020820151816001015560408201518160020155606082015181600301555050601060405180608001604052806040518060400160405280600481526020017f4b696e6700000000000000000000000000000000000000000000000000000000815250815260200183600a620006ce919062000afa565b611770620006dd919062000c37565b81526020016010815260200160008152509080600181540180825580915050600190039060005260206000209060040201600090919091909150600082015181600001908051906020019062000735929190620008fc565b506020820151816001015560408201518160020155606082015181600301555050601060405180608001604052806040518060400160405280600581526020017f517565656e000000000000000000000000000000000000000000000000000000815250815260200183600a620007ad919062000afa565b612328620007bc919062000c37565b81526020016015815260200160008152509080600181540180825580915050600190039060005260206000209060040201600090919091909150600082015181600001908051906020019062000814929190620008fc565b5060208201518160010155604082015181600201556060820151816003015550505050505050508173ffffffffffffffffffffffffffffffffffffffff1660a08173ffffffffffffffffffffffffffffffffffffffff1660601b815250508073ffffffffffffffffffffffffffffffffffffffff1660808173ffffffffffffffffffffffffffffffffffffffff1660601b8152505050507f2ed0feb3e7fd2022120aa84fab1945545a9f2ffc9076fd6156fa96eaff4c131160001b60128190555067016345785d8a00006013819055505050505050505050505062000dd2565b600033905090565b8280546200090a9062000ce3565b90600052602060002090601f0160209004810192826200092e57600085556200097a565b82601f106200094957805160ff19168380011785556200097a565b828001600101855582156200097a579182015b82811115620009795782518255916020019190600101906200095c565b5b5090506200098991906200098d565b5090565b5b80821115620009a85760008160009055506001016200098e565b5090565b600081519050620009bd8162000d84565b92915050565b600081519050620009d48162000d9e565b92915050565b600081519050620009eb8162000db8565b92915050565b600080600080600060a0868803121562000a0a57600080fd5b600062000a1a88828901620009ac565b955050602062000a2d88828901620009ac565b945050604062000a4088828901620009ac565b935050606062000a5388828901620009c3565b925050608062000a6688828901620009c3565b9150509295509295909350565b60006020828403121562000a8657600080fd5b600062000a9684828501620009da565b91505092915050565b6000808291508390505b600185111562000af15780860481111562000ac95762000ac862000d19565b5b600185161562000ad95780820291505b808102905062000ae98562000d77565b945062000aa9565b94509492505050565b600062000b078262000ccc565b915062000b148362000ccc565b925062000b437fffffffffffffffffffffffffffffffffffffffffffffffffffffffffffffffff848462000b4b565b905092915050565b60008262000b5d576001905062000c30565b8162000b6d576000905062000c30565b816001811462000b86576002811462000b915762000bc7565b600191505062000c30565b60ff84111562000ba65762000ba562000d19565b5b8360020a91508482111562000bc05762000bbf62000d19565b5b5062000c30565b5060208310610133831016604e8410600b841016171562000c015782820a90508381111562000bfb5762000bfa62000d19565b5b62000c30565b62000c10848484600162000a9f565b9250905081840481111562000c2a5762000c2962000d19565b5b81810290505b9392505050565b600062000c448262000ccc565b915062000c518362000ccc565b9250817fffffffffffffffffffffffffffffffffffffffffffffffffffffffffffffffff048311821515161562000c8d5762000c8c62000d19565b5b828202905092915050565b600062000ca58262000cac565b9050919050565b600073ffffffffffffffffffffffffffffffffffffffff82169050919050565b6000819050919050565b600060ff82169050919050565b6000600282049050600182168062000cfc57607f821691505b6020821081141562000d135762000d1262000d48565b5b50919050565b7f4e487b7100000000000000000000000000000000000000000000000000000000600052601160045260246000fd5b7f4e487b7100000000000000000000000000000000000000000000000000000000600052602260045260246000fd5b60008160011c9050919050565b62000d8f8162000c98565b811462000d9b57600080fd5b50565b62000da98162000ccc565b811462000db557600080fd5b50565b62000dc38162000cd6565b811462000dcf57600080fd5b50565b60805160601c60a05160601c6155f662000e0c60003960008181611f4101526138040152600081816132e101526137c801526155f66000f3fe6080604052600436106103355760003560e01c80638997ce4e116101ab578063ac4afa38116100f7578063e1758bd811610095578063f207564e1161006f578063f207564e14610c31578063f2fde38b14610c5a578063f3f40af214610c83578063fe4b84df14610cae57610335565b8063e1758bd814610bb0578063e76eda8614610bdb578063efad76da14610c0657610335565b8063c5f956af116100d1578063c5f956af14610b04578063c6b6097114610b2f578063d6cd82bc14610b5a578063df15c37e14610b8557610335565b8063ac4afa3814610a5c578063b6ba811414610a9c578063bd9766f414610ac757610335565b80639c3962f011610164578063a158226d1161013e578063a158226d1461099e578063a25dd130146109c9578063a8af4ff5146109f4578063a9e5825714610a3157610335565b80639c3962f01461092c5780639e6e9d0f146109365780639eb688b01461097357610335565b80638997ce4e146108195780638da5cb5b146108445780638f15024f1461086f5780638f666ecf1461089a578063907af6c0146108d857806394985ddd1461090357610335565b80633f46ce7211610285578063692d98d01161022357806373aafe64116101fd57806373aafe641461074d5780637504db3e1461078a5780637acaea9b146107b3578063886f039a146107f057610335565b8063692d98d0146106e05780636d0a67de1461070b578063715018a61461073657610335565b806351622cd01161025f57806351622cd0146106455780635ebaf1db146106825780636096188f146106ad57806366a30cb6146106c957610335565b80633f46ce721461059d57806342619f66146105db57806345a28e061461060657610335565b8063196f2532116102f25780633711d9fb116102cc5780633711d9fb146104f1578063385a9c371461051c578063392e53cd146105475780633d7faab91461057257610335565b8063196f2532146104605780632b08e8241461048b5780632f366637146104c857610335565b8063045544431461033a578063051a80cf14610365578063087262961461039057806309d6b3ff146103bb5780630e6fdaa1146103f85780631209b1f614610435575b600080fd5b34801561034657600080fd5b5061034f610cd7565b60405161035c9190614f38565b60405180910390f35b34801561037157600080fd5b5061037a610ce9565b6040516103879190614999565b60405180910390f35b34801561039c57600080fd5b506103a5610d55565b6040516103b29190614f38565b60405180910390f35b3480156103c757600080fd5b506103e260048036038101906103dd9190613c23565b610d62565b6040516103ef91906149bb565b60405180910390f35b34801561040457600080fd5b5061041f600480360381019061041a9190613d29565b610d89565b60405161042c91906148be565b60405180910390f35b34801561044157600080fd5b5061044a610dc8565b6040516104579190614f38565b60405180910390f35b34801561046c57600080fd5b50610475610dd4565b6040516104829190614f38565b60405180910390f35b34801561049757600080fd5b506104b260048036038101906104ad9190613d29565b610dda565b6040516104bf91906148be565b60405180910390f35b3480156104d457600080fd5b506104ef60048036038101906104ea9190613d29565b610e0d565b005b3480156104fd57600080fd5b5061050661119b565b6040516105139190614f38565b60405180910390f35b34801561052857600080fd5b506105316111ad565b60405161053e91906149bb565b60405180910390f35b34801561055357600080fd5b5061055c6111c4565b60405161056991906149bb565b60405180910390f35b34801561057e57600080fd5b506105876111d7565b6040516105949190614f38565b60405180910390f35b3480156105a957600080fd5b506105c460048036038101906105bf9190613c23565b6111e9565b6040516105d2929190614f53565b60405180910390f35b3480156105e757600080fd5b506105f0611272565b6040516105fd9190614f38565b60405180910390f35b34801561061257600080fd5b5061062d60048036038101906106289190613c23565b611278565b60405161063c939291906149d6565b60405180910390f35b34801561065157600080fd5b5061066c60048036038101906106679190613c23565b6112bc565b6040516106799190614f38565b60405180910390f35b34801561068e57600080fd5b506106976112d4565b6040516106a49190614ab1565b60405180910390f35b6106c760048036038101906106c29190613d29565b6112fa565b005b3480156106d557600080fd5b506106de6115fa565b005b3480156106ec57600080fd5b506106f5611798565b6040516107029190614f38565b60405180910390f35b34801561071757600080fd5b5061072061179e565b60405161072d9190614f38565b60405180910390f35b34801561074257600080fd5b5061074b6117a4565b005b34801561075957600080fd5b50610774600480360381019061076f9190613d29565b6118de565b6040516107819190614f38565b60405180910390f35b34801561079657600080fd5b506107b160048036038101906107ac9190613c23565b611902565b005b3480156107bf57600080fd5b506107da60048036038101906107d59190613c88565b611aef565b6040516107e79190614f38565b60405180910390f35b3480156107fc57600080fd5b5061081760048036038101906108129190613c4c565b611b20565b005b34801561082557600080fd5b5061082e611d7d565b60405161083b9190614a0d565b60405180910390f35b34801561085057600080fd5b50610859611d83565b60405161086691906148be565b60405180910390f35b34801561087b57600080fd5b50610884611dac565b6040516108919190614f38565b60405180910390f35b3480156108a657600080fd5b506108c160048036038101906108bc9190613d29565b611db2565b6040516108cf929190614f53565b60405180910390f35b3480156108e457600080fd5b506108ed611f39565b6040516108fa9190614f38565b60405180910390f35b34801561090f57600080fd5b5061092a60048036038101906109259190613ced565b611f3f565b005b610934611fdb565b005b34801561094257600080fd5b5061095d60048036038101906109589190613c23565b612431565b60405161096a9190614f38565b60405180910390f35b34801561097f57600080fd5b5061098861247d565b60405161099591906149bb565b60405180910390f35b3480156109aa57600080fd5b506109b361254a565b6040516109c09190614f38565b60405180910390f35b3480156109d557600080fd5b506109de612550565b6040516109eb9190614f38565b60405180910390f35b348015610a0057600080fd5b50610a1b6004803603810190610a169190613c23565b612562565b604051610a2891906149bb565b60405180910390f35b348015610a3d57600080fd5b50610a466125bb565b604051610a5391906149bb565b60405180910390f35b348015610a6857600080fd5b50610a836004803603810190610a7e9190613d29565b6125d8565b604051610a939493929190614acc565b60405180910390f35b348015610aa857600080fd5b50610ab16126a0565b604051610abe9190614f38565b60405180910390f35b348015610ad357600080fd5b50610aee6004803603810190610ae99190613c23565b6126a6565b604051610afb91906149bb565b60405180910390f35b348015610b1057600080fd5b50610b196126c6565b604051610b2691906148be565b60405180910390f35b348015610b3b57600080fd5b50610b446126ec565b604051610b519190614f38565b60405180910390f35b348015610b6657600080fd5b50610b6f6126f1565b604051610b7c9190614a96565b60405180910390f35b348015610b9157600080fd5b50610b9a612717565b604051610ba79190614977565b60405180910390f35b348015610bbc57600080fd5b50610bc561276d565b604051610bd29190614a96565b60405180910390f35b348015610be757600080fd5b50610bf0612793565b604051610bfd9190614f38565b60405180910390f35b348015610c1257600080fd5b50610c1b6127be565b604051610c289190614f38565b60405180910390f35b348015610c3d57600080fd5b50610c586004803603810190610c539190613d29565b6127c4565b005b348015610c6657600080fd5b50610c816004803603810190610c7c9190613c23565b612bcb565b005b348015610c8f57600080fd5b50610c98612d74565b604051610ca59190614f38565b60405180910390f35b348015610cba57600080fd5b50610cd56004803603810190610cd09190613d29565b612d7a565b005b610e1060a8610ce69190615260565b81565b6060610cf36111ad565b610d32576040517f08c379a0000000000000000000000000000000000000000000000000000000008152600401610d2990614e58565b60405180910390fd5b6000610d3f60175461303b565b9050610d4f60006017548361305d565b91505090565b6000600e80549050905090565b6000610d6d82612562565b1580610d8257506002610d7f83612431565b14155b9050919050565b600e8181548110610d9957600080fd5b906000526020600020016000915054906101000a900473ffffffffffffffffffffffffffffffffffffffff1681565b6729a2241af62c000081565b60085481565b60186020528060005260406000206000915054906101000a900473ffffffffffffffffffffffffffffffffffffffff1681565b42600a541115610e52576040517f08c379a0000000000000000000000000000000000000000000000000000000008152600401610e4990614d98565b60405180910390fd5b42610e106078610e629190615260565b600a54610e6f9190615068565b1015610eb0576040517f08c379a0000000000000000000000000000000000000000000000000000000008152600401610ea790614df8565b60405180910390fd5b60026001541415610ef6576040517f08c379a0000000000000000000000000000000000000000000000000000000008152600401610eed90614ef8565b60405180910390fd5b6002600181905550610f0733610d62565b610f46576040517f08c379a0000000000000000000000000000000000000000000000000000000008152600401610f3d90614b78565b60405180910390fd5b60006017549050600360009054906101000a900473ffffffffffffffffffffffffffffffffffffffff1673ffffffffffffffffffffffffffffffffffffffff166323b872dd33600960009054906101000a900473ffffffffffffffffffffffffffffffffffffffff166729a2241af62c000086610fc39190615260565b6040518463ffffffff1660e01b8152600401610fe1939291906148d9565b602060405180830381600087803b158015610ffb57600080fd5b505af115801561100f573d6000803e3d6000fd5b505050506040513d601f19601f820116820180604052508101906110339190613cc4565b5060005b8281101561112057336018600083856110509190615068565b815260200190815260200160002060006101000a81548173ffffffffffffffffffffffffffffffffffffffff021916908373ffffffffffffffffffffffffffffffffffffffff160217905550601a60003373ffffffffffffffffffffffffffffffffffffffff1673ffffffffffffffffffffffffffffffffffffffff16815260200190815260200160002081836110e79190615068565b90806001815401808255809150506001900390600052602060002001600090919091909150558080611118906153fa565b915050611037565b5081601960003373ffffffffffffffffffffffffffffffffffffffff1673ffffffffffffffffffffffffffffffffffffffff16815260200190815260200160002060008282546111709190615068565b9250508190555081601760008282546111899190615068565b92505081905550506001808190555050565b610e1060186111aa9190615260565b81565b6000601660019054906101000a900460ff16905090565b600f60009054906101000a900460ff1681565b610e1060186111e69190615260565b81565b600080611237600d60008573ffffffffffffffffffffffffffffffffffffffff1673ffffffffffffffffffffffffffffffffffffffff16815260200190815260200160002060010154611db2565b809250819350505060008061124b85613266565b91509150818461125b9190615068565b935080836112699190615068565b92505050915091565b60155481565b600d6020528060005260406000206000915090508060000160009054906101000a900460ff16908060010154908060020160009054906101000a900460ff16905083565b60196020528060005260406000206000915090505481565b600260009054906101000a900473ffffffffffffffffffffffffffffffffffffffff1681565b60026001541415611340576040517f08c379a000000000000000000000000000000000000000000000000000000000815260040161133790614ef8565b60405180910390fd5b60026001819055506000611353826118de565b905061135d6125bb565b61139c576040517f08c379a000000000000000000000000000000000000000000000000000000000815260040161139390614c18565b60405180910390fd5b6113a533612562565b6113e4576040517f08c379a00000000000000000000000000000000000000000000000000000000081526004016113db90614ed8565b60405180910390fd5b610e1060186113f39190615260565b600b546114009190615068565b421015611442576040517f08c379a000000000000000000000000000000000000000000000000000000000815260040161143990614cf8565b60405180910390fd5b6000821415801561145557506008548211155b611494576040517f08c379a000000000000000000000000000000000000000000000000000000000815260040161148b90614b18565b60405180910390fd5b8034146114d6576040517f08c379a00000000000000000000000000000000000000000000000000000000081526004016114cd90614b58565b60405180910390fd5b600460009054906101000a900473ffffffffffffffffffffffffffffffffffffffff1673ffffffffffffffffffffffffffffffffffffffff1663a9059cbb33846040518363ffffffff1660e01b8152600401611533929190614910565b602060405180830381600087803b15801561154d57600080fd5b505af1158015611561573d6000803e3d6000fd5b505050506040513d601f19601f820116820180604052508101906115859190613cc4565b50816008600082825461159891906152ba565b925050819055503373ffffffffffffffffffffffffffffffffffffffff167f12cb4648cf3058b17ceeb33e579f8b0bc269fe0843f3900b8e24b6c54871703c83836040516115e7929190614f53565b60405180910390a2506001808190555050565b601660009054906101000a900460ff161561164a576040517f08c379a000000000000000000000000000000000000000000000000000000000815260040161164190614bd8565b60405180910390fd5b6001601660006101000a81548160ff02191690831515021790555042610e1060786116759190615260565b600a546116829190615068565b11156116c3576040517f08c379a00000000000000000000000000000000000000000000000000000000081526004016116ba90614d38565b60405180910390fd5b42600b541015611708576040517f08c379a00000000000000000000000000000000000000000000000000000000081526004016116ff90614bf8565b60405180910390fd5b6002600154141561174e576040517f08c379a000000000000000000000000000000000000000000000000000000000815260040161174590614ef8565b60405180910390fd5b60026001819055506000336040516020016117699190614862565b6040516020818303038152906040528051906020012060001c905061178d816132da565b505060018081905550565b600c5481565b60075481565b6117ac6133df565b73ffffffffffffffffffffffffffffffffffffffff166117ca611d83565b73ffffffffffffffffffffffffffffffffffffffff1614611820576040517f08c379a000000000000000000000000000000000000000000000000000000000815260040161181790614dd8565b60405180910390fd5b600073ffffffffffffffffffffffffffffffffffffffff1660008054906101000a900473ffffffffffffffffffffffffffffffffffffffff1673ffffffffffffffffffffffffffffffffffffffff167f8be0079c531659141344cd1fd0a4f28419497f9722a3daafe3b4186f6b6457e060405160405180910390a360008060006101000a81548173ffffffffffffffffffffffffffffffffffffffff021916908373ffffffffffffffffffffffffffffffffffffffff160217905550565b6000600554600654836118f19190615260565b6118fb91906150be565b9050919050565b61190a6133df565b73ffffffffffffffffffffffffffffffffffffffff16611928611d83565b73ffffffffffffffffffffffffffffffffffffffff161461197e576040517f08c379a000000000000000000000000000000000000000000000000000000000815260040161197590614dd8565b60405180910390fd5b60006119886125bb565b1561199f57610e10601861199c9190615260565b90505b600f60009054906101000a900460ff166119ee576040517f08c379a00000000000000000000000000000000000000000000000000000000081526004016119e590614f18565b60405180910390fd5b4281600c546119fd9190615068565b1115611a3e576040517f08c379a0000000000000000000000000000000000000000000000000000000008152600401611a3590614d18565b60405180910390fd5b60008273ffffffffffffffffffffffffffffffffffffffff1647604051611a64906148a9565b60006040518083038185875af1925050503d8060008114611aa1576040519150601f19603f3d011682016040523d82523d6000602084013e611aa6565b606091505b5050905080611aea576040517f08c379a0000000000000000000000000000000000000000000000000000000008152600401611ae190614d58565b60405180910390fd5b505050565b601a6020528160005260406000208181548110611b0b57600080fd5b90600052602060002001600091509150505481565b611b286133df565b73ffffffffffffffffffffffffffffffffffffffff16611b46611d83565b73ffffffffffffffffffffffffffffffffffffffff1614611b9c576040517f08c379a0000000000000000000000000000000000000000000000000000000008152600401611b9390614dd8565b60405180910390fd5b6000611ba66125bb565b15611bbd57610e106018611bba9190615260565b90505b600f60009054906101000a900460ff16611c0c576040517f08c379a0000000000000000000000000000000000000000000000000000000008152600401611c0390614f18565b60405180910390fd5b4281600c54611c1b9190615068565b1115611c5c576040517f08c379a0000000000000000000000000000000000000000000000000000000008152600401611c5390614d18565b60405180910390fd5b60008390508073ffffffffffffffffffffffffffffffffffffffff1663a9059cbb848373ffffffffffffffffffffffffffffffffffffffff166370a08231306040518263ffffffff1660e01b8152600401611cb791906148be565b60206040518083038186803b158015611ccf57600080fd5b505afa158015611ce3573d6000803e3d6000fd5b505050506040513d601f19601f82011682018060405250810190611d079190613d52565b6040518363ffffffff1660e01b8152600401611d24929190614910565b602060405180830381600087803b158015611d3e57600080fd5b505af1158015611d52573d6000803e3d6000fd5b505050506040513d601f19601f82011682018060405250810190611d769190613cc4565b5050505050565b60145481565b60008060009054906101000a900473ffffffffffffffffffffffffffffffffffffffff16905090565b60175481565b600080600060108481548110611df1577f4e487b7100000000000000000000000000000000000000000000000000000000600052603260045260246000fd5b9060005260206000209060040201604051806080016040529081600082018054611e1a906153c8565b80601f0160208091040260200160405190810160405280929190818152602001828054611e46906153c8565b8015611e935780601f10611e6857610100808354040283529160200191611e93565b820191906000526020600020905b815481529060010190602001808311611e7657829003601f168201915b50505050508152602001600182015481526020016002820154815260200160038201548152505090506000816040015190506000851480611ed8575060008260600151145b15611eeb57600080935093505050611f34565b600060075482600554611efe9190615260565b611f0891906150be565b9050600060075483600654611f1d9190615260565b611f2791906150be565b9050818195509550505050505b915091565b610e1081565b7f000000000000000000000000000000000000000000000000000000000000000073ffffffffffffffffffffffffffffffffffffffff163373ffffffffffffffffffffffffffffffffffffffff1614611fcd576040517f08c379a0000000000000000000000000000000000000000000000000000000008152600401611fc490614e18565b60405180910390fd5b611fd782826133e7565b5050565b6000429050600f60009054906101000a900460ff1661202f576040517f08c379a000000000000000000000000000000000000000000000000000000000815260040161202690614f18565b60405180910390fd5b600d60003373ffffffffffffffffffffffffffffffffffffffff1673ffffffffffffffffffffffffffffffffffffffff16815260200190815260200160002060000160009054906101000a900460ff166120be576040517f08c379a00000000000000000000000000000000000000000000000000000000081526004016120b590614b98565b60405180910390fd5b600d60003373ffffffffffffffffffffffffffffffffffffffff1673ffffffffffffffffffffffffffffffffffffffff16815260200190815260200160002060020160009054906101000a900460ff161561214e576040517f08c379a000000000000000000000000000000000000000000000000000000000815260040161214590614cb8565b60405180910390fd5b80600b541115801561217b5750610e10601861216a9190615260565b600b546121779190615068565b8111155b6121ba576040517f08c379a00000000000000000000000000000000000000000000000000000000081526004016121b190614eb8565b60405180910390fd5b60026001541415612200576040517f08c379a00000000000000000000000000000000000000000000000000000000081526004016121f790614ef8565b60405180910390fd5b60026001819055506000600d60003373ffffffffffffffffffffffffffffffffffffffff1673ffffffffffffffffffffffffffffffffffffffff1681526020019081526020016000209050600080612257336111e9565b915091506000811415801561226d575060008214155b6122ac576040517f08c379a00000000000000000000000000000000000000000000000000000000081526004016122a390614e38565b60405180910390fd5b3481146122ee576040517f08c379a00000000000000000000000000000000000000000000000000000000081526004016122e590614b38565b60405180910390fd5b60018360020160006101000a81548160ff021916908315150217905550816008600082825461231d91906152ba565b92505081905550600460009054906101000a900473ffffffffffffffffffffffffffffffffffffffff1673ffffffffffffffffffffffffffffffffffffffff1663a9059cbb33846040518363ffffffff1660e01b8152600401612381929190614910565b602060405180830381600087803b15801561239b57600080fd5b505af11580156123af573d6000803e3d6000fd5b505050506040513d601f19601f820116820180604052508101906123d39190613cc4565b503373ffffffffffffffffffffffffffffffffffffffff167f12cb4648cf3058b17ceeb33e579f8b0bc269fe0843f3900b8e24b6c54871703c838360405161241c929190614f53565b60405180910390a25050506001808190555050565b6000600d60008373ffffffffffffffffffffffffffffffffffffffff1673ffffffffffffffffffffffffffffffffffffffff168152602001908152602001600020600101549050919050565b6000806000905061248c6125bb565b156124a357610e1060186124a09190615260565b90505b600f60009054906101000a900460ff166124f2576040517f08c379a00000000000000000000000000000000000000000000000000000000081526004016124e990614f18565b60405180910390fd5b4281600c546125019190615068565b1115612542576040517f08c379a000000000000000000000000000000000000000000000000000000000815260040161253990614d18565b60405180910390fd5b600191505090565b600a5481565b610e10607861255f9190615260565b81565b6000600d60008373ffffffffffffffffffffffffffffffffffffffff1673ffffffffffffffffffffffffffffffffffffffff16815260200190815260200160002060000160009054906101000a900460ff169050919050565b60008060085411156125d057600190506125d5565b600090505b90565b601081815481106125e857600080fd5b906000526020600020906004020160009150905080600001805461260b906153c8565b80601f0160208091040260200160405190810160405280929190818152602001828054612637906153c8565b80156126845780601f1061265957610100808354040283529160200191612684565b820191906000526020600020905b81548152906001019060200180831161266757829003601f168201915b5050505050908060010154908060020154908060030154905084565b60055481565b601b6020528060005260406000206000915054906101000a900460ff1681565b600960009054906101000a900473ffffffffffffffffffffffffffffffffffffffff1681565b600281565b600460009054906101000a900473ffffffffffffffffffffffffffffffffffffffff1681565b60606127216111ad565b612760576040517f08c379a000000000000000000000000000000000000000000000000000000000815260040161275790614e58565b60405180910390fd5b612768613401565b905090565b600360009054906101000a900473ffffffffffffffffffffffffffffffffffffffff1681565b610e1060186127a29190615260565b610e1060786127b19190615260565b6127bb9190615068565b81565b60065481565b6000429050600f60009054906101000a900460ff16612818576040517f08c379a000000000000000000000000000000000000000000000000000000000815260040161280f90614f18565b60405180910390fd5b600d60003373ffffffffffffffffffffffffffffffffffffffff1673ffffffffffffffffffffffffffffffffffffffff16815260200190815260200160002060000160009054906101000a900460ff16156128a8576040517f08c379a000000000000000000000000000000000000000000000000000000000815260040161289f90614c38565b60405180910390fd5b80600a54111580156128d55750610e1060786128c49190615260565b600a546128d19190615068565b8111155b612914576040517f08c379a000000000000000000000000000000000000000000000000000000000815260040161290b90614e98565b60405180910390fd5b8180600111158015612927575060058111155b612966576040517f08c379a000000000000000000000000000000000000000000000000000000000815260040161295d90614c58565b60405180910390fd5b6000600260009054906101000a900473ffffffffffffffffffffffffffffffffffffffff1673ffffffffffffffffffffffffffffffffffffffff166360217267336040518263ffffffff1660e01b81526004016129c391906148be565b60206040518083038186803b1580156129db57600080fd5b505afa1580156129ef573d6000803e3d6000fd5b505050506040513d601f19601f82011682018060405250810190612a139190613d52565b90508060108381548110612a50577f4e487b7100000000000000000000000000000000000000000000000000000000600052603260045260246000fd5b9060005260206000209060040201600101541115612aa3576040517f08c379a0000000000000000000000000000000000000000000000000000000008152600401612a9a90614cd8565b60405180910390fd5b60026001541415612ae9576040517f08c379a0000000000000000000000000000000000000000000000000000000008152600401612ae090614ef8565b60405180910390fd5b6002600181905550600260009054906101000a900473ffffffffffffffffffffffffffffffffffffffff1673ffffffffffffffffffffffffffffffffffffffff1663282d3fdf33610e1060a8612b3f9190615260565b610e106018612b4e9190615260565b600b54612b5b9190615068565b612b659190615068565b6040518363ffffffff1660e01b8152600401612b82929190614910565b600060405180830381600087803b158015612b9c57600080fd5b505af1158015612bb0573d6000803e3d6000fd5b50505050612bbe33856135a6565b6001808190555050505050565b612bd36133df565b73ffffffffffffffffffffffffffffffffffffffff16612bf1611d83565b73ffffffffffffffffffffffffffffffffffffffff1614612c47576040517f08c379a0000000000000000000000000000000000000000000000000000000008152600401612c3e90614dd8565b60405180910390fd5b600073ffffffffffffffffffffffffffffffffffffffff168173ffffffffffffffffffffffffffffffffffffffff161415612cb7576040517f08c379a0000000000000000000000000000000000000000000000000000000008152600401612cae90614bb8565b60405180910390fd5b8073ffffffffffffffffffffffffffffffffffffffff1660008054906101000a900473ffffffffffffffffffffffffffffffffffffffff1673ffffffffffffffffffffffffffffffffffffffff167f8be0079c531659141344cd1fd0a4f28419497f9722a3daafe3b4186f6b6457e060405160405180910390a3806000806101000a81548173ffffffffffffffffffffffffffffffffffffffff021916908373ffffffffffffffffffffffffffffffffffffffff16021790555050565b600b5481565b612d826133df565b73ffffffffffffffffffffffffffffffffffffffff16612da0611d83565b73ffffffffffffffffffffffffffffffffffffffff1614612df6576040517f08c379a0000000000000000000000000000000000000000000000000000000008152600401612ded90614dd8565b60405180910390fd5b600f60009054906101000a900460ff1615612e46576040517f08c379a0000000000000000000000000000000000000000000000000000000008152600401612e3d90614c98565b60405180910390fd5b42811015612e89576040517f08c379a0000000000000000000000000000000000000000000000000000000008152600401612e8090614d78565b60405180910390fd5b80600a81905550610e106018612e9f9190615260565b610e106078612eae9190615260565b612eb89190615068565b600a54612ec59190615068565b600b81905550610e106018612eda9190615260565b600b54612ee79190615068565b600c81905550600554600460009054906101000a900473ffffffffffffffffffffffffffffffffffffffff1673ffffffffffffffffffffffffffffffffffffffff166370a08231306040518263ffffffff1660e01b8152600401612f4b91906148be565b60206040518083038186803b158015612f6357600080fd5b505afa158015612f77573d6000803e3d6000fd5b505050506040513d601f19601f82011682018060405250810190612f9b9190613d52565b1015612fdc576040517f08c379a0000000000000000000000000000000000000000000000000000000008152600401612fd390614db8565b60405180910390fd5b7f2bb1a17c53695feb3f7706dfa7a6cfd959e5d1b0342d6dce407dd8921cba6638600a54600b54600c5460405161301593929190614f7c565b60405180910390a16001600f60006101000a81548160ff02191690831515021790555050565b6000600160648361304c91906150be565b6130569190615068565b9050919050565b60608167ffffffffffffffff81111561309f577f4e487b7100000000000000000000000000000000000000000000000000000000600052604160045260246000fd5b6040519080825280602002602001820160405280156130cd5781602001602082028036833780820191505090505b50905060006015549050600085856130e591906152ba565b90508381101561312a576040517f08c379a000000000000000000000000000000000000000000000000000000000815260040161312190614e78565b60405180910390fd5b600060fb905060005b8581101561325b576000888460028561314c9190615142565b876131579190615068565b613161919061547b565b61316b9190615068565b90506000805b60018461317e9190615068565b8110156131e9578781815181106131be577f4e487b7100000000000000000000000000000000000000000000000000000000600052603260045260246000fd5b60200260200101518314156131d657600191506131e9565b80806131e1906153fa565b915050613171565b50806132455781878481518110613229577f4e487b7100000000000000000000000000000000000000000000000000000000600052603260045260246000fd5b6020026020010181815250506001836132429190615068565b92505b6001846132529190615068565b93505050613133565b505050509392505050565b60008060009050809150601b60008473ffffffffffffffffffffffffffffffffffffffff1673ffffffffffffffffffffffffffffffffffffffff16815260200190815260200160002060009054906101000a900460ff16156132d5576132cc6002611db2565b80925081935050505b915091565b60006013547f000000000000000000000000000000000000000000000000000000000000000073ffffffffffffffffffffffffffffffffffffffff166370a08231306040518263ffffffff1660e01b815260040161333891906148be565b60206040518083038186803b15801561335057600080fd5b505afa158015613364573d6000803e3d6000fd5b505050506040513d601f19601f820116820180604052508101906133889190613d52565b10156133c9576040517f08c379a00000000000000000000000000000000000000000000000000000000081526004016133c090614c78565b60405180910390fd5b6133d8601254601354846137c4565b9050919050565b600033905090565b81601481905550806015819055506133fd613925565b5050565b6060600061341060175461303b565b90508067ffffffffffffffff811115613452577f4e487b7100000000000000000000000000000000000000000000000000000000600052604160045260246000fd5b6040519080825280602002602001820160405280156134805781602001602082028036833780820191505090505b509150600061349360006017548461305d565b905060005b828110156135a0576000601860008484815181106134df577f4e487b7100000000000000000000000000000000000000000000000000000000600052603260045260246000fd5b6020026020010151815260200190815260200160002060009054906101000a900473ffffffffffffffffffffffffffffffffffffffff16905080858381518110613552577f4e487b7100000000000000000000000000000000000000000000000000000000600052603260045260246000fd5b602002602001019073ffffffffffffffffffffffffffffffffffffffff16908173ffffffffffffffffffffffffffffffffffffffff1681525050508080613598906153fa565b915050613498565b50505090565b6001600d60008473ffffffffffffffffffffffffffffffffffffffff1673ffffffffffffffffffffffffffffffffffffffff16815260200190815260200160002060000160006101000a81548160ff02191690831515021790555080600d60008473ffffffffffffffffffffffffffffffffffffffff1673ffffffffffffffffffffffffffffffffffffffff16815260200190815260200160002060010181905550600160108281548110613684577f4e487b7100000000000000000000000000000000000000000000000000000000600052603260045260246000fd5b906000526020600020906004020160030160008282546136a49190615068565b92505081905550601081815481106136e5577f4e487b7100000000000000000000000000000000000000000000000000000000600052603260045260246000fd5b906000526020600020906004020160020154600760008282546137089190615068565b92505081905550600e829080600181540180825580915050600190039060005260206000200160009091909190916101000a81548173ffffffffffffffffffffffffffffffffffffffff021916908373ffffffffffffffffffffffffffffffffffffffff1602179055503373ffffffffffffffffffffffffffffffffffffffff167ff6c60b059f60c86b2d612b237ac38bd87bc1f68f87600cd360d68351af1ca95f826040516137b89190614f38565b60405180910390a25050565b60007f000000000000000000000000000000000000000000000000000000000000000073ffffffffffffffffffffffffffffffffffffffff16634000aea07f0000000000000000000000000000000000000000000000000000000000000000858786604051602001613837929190614a28565b6040516020818303038152906040526040518463ffffffff1660e01b815260040161386493929190614939565b602060405180830381600087803b15801561387e57600080fd5b505af1158015613892573d6000803e3d6000fd5b505050506040513d601f19601f820116820180604052508101906138b69190613cc4565b5060006138d8858430601160008a81526020019081526020016000205461394a565b9050600160116000878152602001908152602001600020546138fa9190615068565b601160008781526020019081526020016000208190555061391b8582613986565b9150509392505050565b6001601660016101000a81548160ff0219169083151502179055506139486139b9565b565b6000848484846040516020016139639493929190614a51565b6040516020818303038152906040528051906020012060001c9050949350505050565b6000828260405160200161399b92919061487d565b60405160208183030381529060405280519060200120905092915050565b60006139c3613401565b905060005b8151811015613bb6576000828281518110613a0c577f4e487b7100000000000000000000000000000000000000000000000000000000600052603260045260246000fd5b60200260200101519050600060029050601b60008373ffffffffffffffffffffffffffffffffffffffff1673ffffffffffffffffffffffffffffffffffffffff16815260200190815260200160002060009054906101000a900460ff16158015613a7e575080613a7b83612431565b14155b15613ba1576001601b60008473ffffffffffffffffffffffffffffffffffffffff1673ffffffffffffffffffffffffffffffffffffffff16815260200190815260200160002060006101000a81548160ff02191690831515021790555060108181548110613b15577f4e487b7100000000000000000000000000000000000000000000000000000000600052603260045260246000fd5b90600052602060002090600402016003016000815480929190613b37906153fa565b919050555060108181548110613b76577f4e487b7100000000000000000000000000000000000000000000000000000000600052603260045260246000fd5b90600052602060002090600402016002015460076000828254613b999190615068565b925050819055505b50508080613bae906153fa565b9150506139c8565b5050565b600081359050613bc981615564565b92915050565b600081519050613bde8161557b565b92915050565b600081359050613bf381615592565b92915050565b600081359050613c08816155a9565b92915050565b600081519050613c1d816155a9565b92915050565b600060208284031215613c3557600080fd5b6000613c4384828501613bba565b91505092915050565b60008060408385031215613c5f57600080fd5b6000613c6d85828601613bba565b9250506020613c7e85828601613bba565b9150509250929050565b60008060408385031215613c9b57600080fd5b6000613ca985828601613bba565b9250506020613cba85828601613bf9565b9150509250929050565b600060208284031215613cd657600080fd5b6000613ce484828501613bcf565b91505092915050565b60008060408385031215613d0057600080fd5b6000613d0e85828601613be4565b9250506020613d1f85828601613bf9565b9150509250929050565b600060208284031215613d3b57600080fd5b6000613d4984828501613bf9565b91505092915050565b600060208284031215613d6457600080fd5b6000613d7284828501613c0e565b91505092915050565b6000613d878383613dab565b60208301905092915050565b6000613d9f838361482d565b60208301905092915050565b613db4816152ee565b82525050565b613dc3816152ee565b82525050565b613dda613dd5826152ee565b615443565b82525050565b6000613deb82614fd3565b613df58185615019565b9350613e0083614fb3565b8060005b83811015613e31578151613e188882613d7b565b9750613e2383614fff565b925050600181019050613e04565b5085935050505092915050565b6000613e4982614fde565b613e53818561502a565b9350613e5e83614fc3565b8060005b83811015613e8f578151613e768882613d93565b9750613e818361500c565b925050600181019050613e62565b5085935050505092915050565b613ea581615300565b82525050565b613eb48161530c565b82525050565b613ecb613ec68261530c565b615455565b82525050565b6000613edc82614fe9565b613ee6818561503b565b9350613ef6818560208601615395565b613eff81615539565b840191505092915050565b613f138161534d565b82525050565b613f2281615371565b82525050565b6000613f3382614ff4565b613f3d8185615057565b9350613f4d818560208601615395565b613f5681615539565b840191505092915050565b6000613f6e601483615057565b91507f464346533a20496e76616c696420416d6f756e740000000000000000000000006000830152602082019050919050565b6000613fae601483615057565b91507f4e6f742056616c69642045746820416d6f756e740000000000000000000000006000830152602082019050919050565b6000613fee601783615057565b91507f464346533a20496e76616c6964204574682056616c75650000000000000000006000830152602082019050919050565b600061402e601b83615057565b91507f416c72656164792050617274696369706174656420496e2049444f00000000006000830152602082019050919050565b600061406e600e83615057565b91507f4e6f7420726567697374657265640000000000000000000000000000000000006000830152602082019050919050565b60006140ae602683615057565b91507f4f776e61626c653a206e6577206f776e657220697320746865207a65726f206160008301527f64647265737300000000000000000000000000000000000000000000000000006020830152604082019050919050565b6000614114601683615057565b91507f416c72656164792047656e657261746564204f6e6365000000000000000000006000830152602082019050919050565b6000614154601383615057565b91507f526166666c653a204f7574204f662054696d65000000000000000000000000006000830152602082019050919050565b6000614194601083615057565b91507f464346533a204e6f74204e6565646564000000000000000000000000000000006000830152602082019050919050565b60006141d4601283615057565b91507f416c7265616479207265676973746572656400000000000000000000000000006000830152602082019050919050565b6000614214600f83615057565b91507f696e76616c696420506f6f6c206e6f00000000000000000000000000000000006000830152602082019050919050565b6000614254602b83615057565b91507f4e6f7420656e6f756768204c494e4b202d2066696c6c20636f6e74726163742060008301527f77697468206661756365740000000000000000000000000000000000000000006020830152604082019050919050565b60006142ba601383615057565b91507f416c726561647920496e697469616c697a6564000000000000000000000000006000830152602082019050919050565b60006142fa601183615057565b91507f416c7265616479205075726368617365640000000000000000000000000000006000830152602082019050919050565b600061433a601d83615057565b91507f43616e277420506172746963697061746520696e2074686520506f6f6c0000006000830152602082019050919050565b600061437a601d83615057565b91507f464346533a20546965722053616c65206e6f7420456e646564205965740000006000830152602082019050919050565b60006143ba601883615057565b91507f464346533a2053616c65204e6f7420456e6465642059657400000000000000006000830152602082019050919050565b60006143fa602083615057565b91507f526166666c653a2050617274696369706174696f6e204469646e277420456e646000830152602082019050919050565b600061443a601583615057565b91507f556e61626c6520546f205265636f7665722045746800000000000000000000006000830152602082019050919050565b600061447a601483615057565b91507f49444f2043616e277420426520696e20506173740000000000000000000000006000830152602082019050919050565b60006144ba602283615057565b91507f526166666c653a2050617274696369706174696f6e204469646e27742042656760008301527f696e0000000000000000000000000000000000000000000000000000000000006020830152604082019050919050565b6000614520601d83615057565b91507f4e6f7420456e6f75676820546f6b656e7320496e20436f6e74726163740000006000830152602082019050919050565b6000614560602083615057565b91507f4f776e61626c653a2063616c6c6572206973206e6f7420746865206f776e65726000830152602082019050919050565b60006145a0601b83615057565b91507f526166666c653a2050617274696369706174696f6e20456e64656400000000006000830152602082019050919050565b60006145e0601f83615057565b91507f4f6e6c7920565246436f6f7264696e61746f722063616e2066756c66696c6c006000830152602082019050919050565b6000614620601483615057565b91507f56616c7565732043616e2774204265205a65726f0000000000000000000000006000830152602082019050919050565b6000614660601683615057565b91507f57696e6e6572204e6f74204465636964656420596574000000000000000000006000830152602082019050919050565b60006146a0600c83615057565b91507f496e76616c69642053697a6500000000000000000000000000000000000000006000830152602082019050919050565b60006146e0601a83615057565b91507f4e6f7420696e20526567697374726174696f6e20506572696f640000000000006000830152602082019050919050565b600061472060008361504c565b9150600082019050919050565b600061473a601283615057565b91507f4e6f7420696e2053616c6520506572696f6400000000000000000000000000006000830152602082019050919050565b600061477a601c83615057565b91507f464346533a20596f7520617265206e6f742072656769737465726564000000006000830152602082019050919050565b60006147ba601f83615057565b91507f5265656e7472616e637947756172643a207265656e7472616e742063616c6c006000830152602082019050919050565b60006147fa601383615057565b91507f4e6f7420496e697469616c697a656420596574000000000000000000000000006000830152602082019050919050565b61483681615336565b82525050565b61484581615336565b82525050565b61485c61485782615336565b615471565b82525050565b600061486e8284613dc9565b60148201915081905092915050565b60006148898285613eba565b602082019150614899828461484b565b6020820191508190509392505050565b60006148b482614713565b9150819050919050565b60006020820190506148d36000830184613dba565b92915050565b60006060820190506148ee6000830186613dba565b6148fb6020830185613dba565b614908604083018461483c565b949350505050565b60006040820190506149256000830185613dba565b614932602083018461483c565b9392505050565b600060608201905061494e6000830186613dba565b61495b602083018561483c565b818103604083015261496d8184613ed1565b9050949350505050565b600060208201905081810360008301526149918184613de0565b905092915050565b600060208201905081810360008301526149b38184613e3e565b905092915050565b60006020820190506149d06000830184613e9c565b92915050565b60006060820190506149eb6000830186613e9c565b6149f8602083018561483c565b614a056040830184613e9c565b949350505050565b6000602082019050614a226000830184613eab565b92915050565b6000604082019050614a3d6000830185613eab565b614a4a602083018461483c565b9392505050565b6000608082019050614a666000830187613eab565b614a73602083018661483c565b614a806040830185613dba565b614a8d606083018461483c565b95945050505050565b6000602082019050614aab6000830184613f0a565b92915050565b6000602082019050614ac66000830184613f19565b92915050565b60006080820190508181036000830152614ae68187613f28565b9050614af5602083018661483c565b614b02604083018561483c565b614b0f606083018461483c565b95945050505050565b60006020820190508181036000830152614b3181613f61565b9050919050565b60006020820190508181036000830152614b5181613fa1565b9050919050565b60006020820190508181036000830152614b7181613fe1565b9050919050565b60006020820190508181036000830152614b9181614021565b9050919050565b60006020820190508181036000830152614bb181614061565b9050919050565b60006020820190508181036000830152614bd1816140a1565b9050919050565b60006020820190508181036000830152614bf181614107565b9050919050565b60006020820190508181036000830152614c1181614147565b9050919050565b60006020820190508181036000830152614c3181614187565b9050919050565b60006020820190508181036000830152614c51816141c7565b9050919050565b60006020820190508181036000830152614c7181614207565b9050919050565b60006020820190508181036000830152614c9181614247565b9050919050565b60006020820190508181036000830152614cb1816142ad565b9050919050565b60006020820190508181036000830152614cd1816142ed565b9050919050565b60006020820190508181036000830152614cf18161432d565b9050919050565b60006020820190508181036000830152614d118161436d565b9050919050565b60006020820190508181036000830152614d31816143ad565b9050919050565b60006020820190508181036000830152614d51816143ed565b9050919050565b60006020820190508181036000830152614d718161442d565b9050919050565b60006020820190508181036000830152614d918161446d565b9050919050565b60006020820190508181036000830152614db1816144ad565b9050919050565b60006020820190508181036000830152614dd181614513565b9050919050565b60006020820190508181036000830152614df181614553565b9050919050565b60006020820190508181036000830152614e1181614593565b9050919050565b60006020820190508181036000830152614e31816145d3565b9050919050565b60006020820190508181036000830152614e5181614613565b9050919050565b60006020820190508181036000830152614e7181614653565b9050919050565b60006020820190508181036000830152614e9181614693565b9050919050565b60006020820190508181036000830152614eb1816146d3565b9050919050565b60006020820190508181036000830152614ed18161472d565b9050919050565b60006020820190508181036000830152614ef18161476d565b9050919050565b60006020820190508181036000830152614f11816147ad565b9050919050565b60006020820190508181036000830152614f31816147ed565b9050919050565b6000602082019050614f4d600083018461483c565b92915050565b6000604082019050614f68600083018561483c565b614f75602083018461483c565b9392505050565b6000606082019050614f91600083018661483c565b614f9e602083018561483c565b614fab604083018461483c565b949350505050565b6000819050602082019050919050565b6000819050602082019050919050565b600081519050919050565b600081519050919050565b600081519050919050565b600081519050919050565b6000602082019050919050565b6000602082019050919050565b600082825260208201905092915050565b600082825260208201905092915050565b600082825260208201905092915050565b600081905092915050565b600082825260208201905092915050565b600061507382615336565b915061507e83615336565b9250827fffffffffffffffffffffffffffffffffffffffffffffffffffffffffffffffff038211156150b3576150b26154ac565b5b828201905092915050565b60006150c982615336565b91506150d483615336565b9250826150e4576150e36154db565b5b828204905092915050565b6000808291508390505b600185111561513957808604811115615115576151146154ac565b5b60018516156151245780820291505b808102905061513285615557565b94506150f9565b94509492505050565b600061514d82615336565b915061515883615340565b92506151857fffffffffffffffffffffffffffffffffffffffffffffffffffffffffffffffff848461518d565b905092915050565b60008261519d5760019050615259565b816151ab5760009050615259565b81600181146151c157600281146151cb576151fa565b6001915050615259565b60ff8411156151dd576151dc6154ac565b5b8360020a9150848211156151f4576151f36154ac565b5b50615259565b5060208310610133831016604e8410600b841016171561522f5782820a90508381111561522a576152296154ac565b5b615259565b61523c84848460016150ef565b92509050818404811115615253576152526154ac565b5b81810290505b9392505050565b600061526b82615336565b915061527683615336565b9250817fffffffffffffffffffffffffffffffffffffffffffffffffffffffffffffffff04831182151516156152af576152ae6154ac565b5b828202905092915050565b60006152c582615336565b91506152d083615336565b9250828210156152e3576152e26154ac565b5b828203905092915050565b60006152f982615316565b9050919050565b60008115159050919050565b6000819050919050565b600073ffffffffffffffffffffffffffffffffffffffff82169050919050565b6000819050919050565b600060ff82169050919050565b60006153588261535f565b9050919050565b600061536a82615316565b9050919050565b600061537c82615383565b9050919050565b600061538e82615316565b9050919050565b60005b838110156153b3578082015181840152602081019050615398565b838111156153c2576000848401525b50505050565b600060028204905060018216806153e057607f821691505b602082108114156153f4576153f361550a565b5b50919050565b600061540582615336565b91507fffffffffffffffffffffffffffffffffffffffffffffffffffffffffffffffff821415615438576154376154ac565b5b600182019050919050565b600061544e8261545f565b9050919050565b6000819050919050565b600061546a8261554a565b9050919050565b6000819050919050565b600061548682615336565b915061549183615336565b9250826154a1576154a06154db565b5b828206905092915050565b7f4e487b7100000000000000000000000000000000000000000000000000000000600052601160045260246000fd5b7f4e487b7100000000000000000000000000000000000000000000000000000000600052601260045260246000fd5b7f4e487b7100000000000000000000000000000000000000000000000000000000600052602260045260246000fd5b6000601f19601f8301169050919050565b60008160601b9050919050565b60008160011c9050919050565b61556d816152ee565b811461557857600080fd5b50565b61558481615300565b811461558f57600080fd5b50565b61559b8161530c565b81146155a657600080fd5b50565b6155b281615336565b81146155bd57600080fd5b5056fea264697066735822122047caff718653d359c76d80f28d82409f454c4205103cec7ae5eb26e06be51ef864736f6c63430008000033",
  "immutableReferences": {
    "2801": [
      {
        "length": 32,
        "start": 13025
      },
      {
        "length": 32,
        "start": 14280
      }
    ],
    "2803": [
      {
        "length": 32,
        "start": 8001
      },
      {
        "length": 32,
        "start": 14340
      }
    ]
  },
  "source": "// SPDX-License-Identifier: MIT\r\npragma solidity ^0.8.0;\r\n\r\nimport \"./RaffleWrap.sol\";\r\n\r\ncontract FCFSWrap is RaffleWrap {\r\n    \r\n    event Initialization(uint256 regStart, uint256 saleStart, uint256 fcfsStart);\r\n\r\n    modifier afterFCFSSale() {\r\n        uint256 x = 0;\r\n        if(isFCFSNeeded()) {\r\n            x = fcfsDuration;\r\n        }\r\n        require(isInitialized, \"Not Initialized Yet\");\r\n        require(fcfsStarts + x <= block.timestamp, \"FCFS: Sale Not Ended Yet\");\r\n        _;\r\n    }\r\n\r\n    constructor (\r\n        address _stakerAddress,\r\n        address _nativeTokenAddress,\r\n        address _idoTokenAddress,\r\n        uint256 _idoAmount,\r\n        uint256 _price\r\n    ) RaffleWrap (\r\n        _stakerAddress,\r\n        _nativeTokenAddress,\r\n        _idoTokenAddress,\r\n        _idoAmount,\r\n        _price\r\n    ) {\r\n\r\n    }\r\n\r\n    function initialize(uint256 time) external onlyOwner notInitialized {\r\n        require(time >= block.timestamp, \"IDO Can't Be in Past\");\r\n\r\n        regStarts = time;\r\n        saleStarts = regStarts + saleStartsAfter;\r\n        fcfsStarts = saleStarts + saleDuration;\r\n\r\n        require(idoToken.balanceOf(address(this)) >= idoTokenSum, \"Not Enough Tokens In Contract\");\r\n\r\n        emit Initialization(regStarts, saleStarts, fcfsStarts);\r\n    }\r\n\r\n    function isFCFSNeeded() public view returns(bool) {\r\n        if(remainingIDOTokens > 0) return true;\r\n        return false;\r\n    }\r\n\r\n    function swapPrice(uint256 amount) public view returns(uint256 price) {\r\n        price = (amount * idoTotalPrice) / idoTokenSum;\r\n    }\r\n\r\n    function fcfsBuy(uint256 amount) public payable nonReentrant {\r\n        uint256 price = swapPrice(amount);\r\n\r\n        require(isFCFSNeeded(), \"FCFS: Not Needed\");\r\n        require(getRegistrationStatus(msg.sender), \"FCFS: You are not registered\");\r\n        require(block.timestamp >= saleStarts + saleDuration, \"FCFS: Tier Sale not Ended Yet\");\r\n        require(amount != 0 && amount <= remainingIDOTokens, \"FCFS: Invalid Amount\");\r\n        require(msg.value == price, \"FCFS: Invalid Eth Value\");\r\n\r\n        idoToken.transfer(msg.sender, amount);\r\n        remainingIDOTokens -= amount;\r\n\r\n        emit Purchase(msg.sender, amount, price);\r\n    }\r\n\r\n    function recoverEth(address to) external onlyOwner afterFCFSSale {\r\n        (bool sent,) = address(to).call{value : address(this).balance}(\"\");\r\n        require(sent, 'Unable To Recover Eth');\r\n    }\r\n\r\n    function recoverERC20(\r\n        address tokenAddress,\r\n        address to\r\n    ) external onlyOwner afterFCFSSale {\r\n        IERC20Metadata tok = IERC20Metadata(tokenAddress);\r\n        tok.transfer(to, tok.balanceOf(address(this)));\r\n    }\r\n\r\n    function isAfterFCFS() public view afterFCFSSale returns(bool) {\r\n        return true;\r\n    }\r\n\r\n}",
  "sourcePath": "C:/Users/sudip/Desktop/RealProjects/PolyStarter/contracts/IDOStaker/FCFSWrap.sol",
  "compiler": {
    "name": "solc",
    "version": "0.8.0+commit.c7dfd78e.Emscripten.clang"
  },
  "schemaVersion": "3.3.4",
  "updatedAt": "2021-07-06T06:40:49.838Z",
  "devdoc": {
    "kind": "dev",
    "methods": {
      "owner()": {
        "details": "Returns the address of the current owner."
      },
      "renounceOwnership()": {
        "details": "Leaves the contract without owner. It will not be possible to call `onlyOwner` functions anymore. Can only be called by the current owner. NOTE: Renouncing ownership will leave the contract without an owner, thereby removing any functionality that is only available to the owner."
      },
      "transferOwnership(address)": {
        "details": "Transfers ownership of the contract to a new account (`newOwner`). Can only be called by the current owner."
      }
    },
    "version": 1
  },
  "userdoc": {
    "kind": "user",
    "methods": {},
    "version": 1
  }
}