{
  "contractName": "IDO",
  "abi": [
    {
      "inputs": [
        {
          "internalType": "address",
          "name": "_stakerAddress",
          "type": "address"
        },
        {
          "internalType": "address",
          "name": "_nativeTokenAddress",
          "type": "address"
        },
        {
          "internalType": "address",
          "name": "_idoTokenAddress",
          "type": "address"
        },
        {
          "internalType": "uint256",
          "name": "_idoTokenSum",
          "type": "uint256"
        },
        {
          "internalType": "uint256",
          "name": "_price",
          "type": "uint256"
        }
      ],
      "stateMutability": "nonpayable",
      "type": "constructor"
    },
    {
      "anonymous": false,
      "inputs": [
        {
          "indexed": false,
          "internalType": "uint256",
          "name": "regStart",
          "type": "uint256"
        },
        {
          "indexed": false,
          "internalType": "uint256",
          "name": "saleStart",
          "type": "uint256"
        }
      ],
      "name": "Initialization",
      "type": "event"
    },
    {
      "anonymous": false,
      "inputs": [
        {
          "indexed": true,
          "internalType": "address",
          "name": "previousOwner",
          "type": "address"
        },
        {
          "indexed": true,
          "internalType": "address",
          "name": "newOwner",
          "type": "address"
        }
      ],
      "name": "OwnershipTransferred",
      "type": "event"
    },
    {
      "anonymous": false,
      "inputs": [
        {
          "indexed": true,
          "internalType": "address",
          "name": "",
          "type": "address"
        },
        {
          "indexed": false,
          "internalType": "uint256",
          "name": "tokens",
          "type": "uint256"
        },
        {
          "indexed": false,
          "internalType": "uint256",
          "name": "price",
          "type": "uint256"
        }
      ],
      "name": "Purchase",
      "type": "event"
    },
    {
      "anonymous": false,
      "inputs": [
        {
          "indexed": true,
          "internalType": "address",
          "name": "account",
          "type": "address"
        },
        {
          "indexed": false,
          "internalType": "uint256",
          "name": "poolNo",
          "type": "uint256"
        }
      ],
      "name": "Registration",
      "type": "event"
    },
    {
      "inputs": [],
      "name": "iStaker",
      "outputs": [
        {
          "internalType": "contract IStaker",
          "name": "",
          "type": "address"
        }
      ],
      "stateMutability": "view",
      "type": "function"
    },
    {
      "inputs": [],
      "name": "idoToken",
      "outputs": [
        {
          "internalType": "contract IERC20Metadata",
          "name": "",
          "type": "address"
        }
      ],
      "stateMutability": "view",
      "type": "function"
    },
    {
      "inputs": [],
      "name": "idoTokenSum",
      "outputs": [
        {
          "internalType": "uint256",
          "name": "",
          "type": "uint256"
        }
      ],
      "stateMutability": "view",
      "type": "function"
    },
    {
      "inputs": [],
      "name": "idoTotalPrice",
      "outputs": [
        {
          "internalType": "uint256",
          "name": "",
          "type": "uint256"
        }
      ],
      "stateMutability": "view",
      "type": "function"
    },
    {
      "inputs": [],
      "name": "isInitialized",
      "outputs": [
        {
          "internalType": "bool",
          "name": "",
          "type": "bool"
        }
      ],
      "stateMutability": "view",
      "type": "function"
    },
    {
      "inputs": [],
      "name": "lockDuration",
      "outputs": [
        {
          "internalType": "uint256",
          "name": "",
          "type": "uint256"
        }
      ],
      "stateMutability": "view",
      "type": "function"
    },
    {
      "inputs": [],
      "name": "nativeToken",
      "outputs": [
        {
          "internalType": "contract IERC20Metadata",
          "name": "",
          "type": "address"
        }
      ],
      "stateMutability": "view",
      "type": "function"
    },
    {
      "inputs": [],
      "name": "owner",
      "outputs": [
        {
          "internalType": "address",
          "name": "",
          "type": "address"
        }
      ],
      "stateMutability": "view",
      "type": "function"
    },
    {
      "inputs": [
        {
          "internalType": "uint256",
          "name": "",
          "type": "uint256"
        }
      ],
      "name": "pools",
      "outputs": [
        {
          "internalType": "string",
          "name": "name",
          "type": "string"
        },
        {
          "internalType": "uint256",
          "name": "minNativeToken",
          "type": "uint256"
        },
        {
          "internalType": "uint256",
          "name": "weight",
          "type": "uint256"
        },
        {
          "internalType": "uint256",
          "name": "participants",
          "type": "uint256"
        }
      ],
      "stateMutability": "view",
      "type": "function"
    },
    {
      "inputs": [],
      "name": "regDuration",
      "outputs": [
        {
          "internalType": "uint256",
          "name": "",
          "type": "uint256"
        }
      ],
      "stateMutability": "view",
      "type": "function"
    },
    {
      "inputs": [],
      "name": "regStarts",
      "outputs": [
        {
          "internalType": "uint256",
          "name": "",
          "type": "uint256"
        }
      ],
      "stateMutability": "view",
      "type": "function"
    },
    {
      "inputs": [],
      "name": "renounceOwnership",
      "outputs": [],
      "stateMutability": "nonpayable",
      "type": "function"
    },
    {
      "inputs": [],
      "name": "saleDuration",
      "outputs": [
        {
          "internalType": "uint256",
          "name": "",
          "type": "uint256"
        }
      ],
      "stateMutability": "view",
      "type": "function"
    },
    {
      "inputs": [],
      "name": "saleStarts",
      "outputs": [
        {
          "internalType": "uint256",
          "name": "",
          "type": "uint256"
        }
      ],
      "stateMutability": "view",
      "type": "function"
    },
    {
      "inputs": [],
      "name": "saleStartsAfter",
      "outputs": [
        {
          "internalType": "uint256",
          "name": "",
          "type": "uint256"
        }
      ],
      "stateMutability": "view",
      "type": "function"
    },
    {
      "inputs": [],
      "name": "totalWeight",
      "outputs": [
        {
          "internalType": "uint256",
          "name": "",
          "type": "uint256"
        }
      ],
      "stateMutability": "view",
      "type": "function"
    },
    {
      "inputs": [
        {
          "internalType": "address",
          "name": "newOwner",
          "type": "address"
        }
      ],
      "name": "transferOwnership",
      "outputs": [],
      "stateMutability": "nonpayable",
      "type": "function"
    },
    {
      "inputs": [],
      "name": "unit",
      "outputs": [
        {
          "internalType": "uint256",
          "name": "",
          "type": "uint256"
        }
      ],
      "stateMutability": "view",
      "type": "function"
    },
    {
      "inputs": [
        {
          "internalType": "address",
          "name": "",
          "type": "address"
        }
      ],
      "name": "userlog",
      "outputs": [
        {
          "internalType": "bool",
          "name": "isRegistered",
          "type": "bool"
        },
        {
          "internalType": "uint256",
          "name": "registeredPool",
          "type": "uint256"
        },
        {
          "internalType": "bool",
          "name": "purchased",
          "type": "bool"
        }
      ],
      "stateMutability": "view",
      "type": "function"
    },
    {
      "inputs": [
        {
          "internalType": "uint256",
          "name": "time",
          "type": "uint256"
        }
      ],
      "name": "initialize",
      "outputs": [],
      "stateMutability": "nonpayable",
      "type": "function"
    },
    {
      "inputs": [
        {
          "internalType": "uint256",
          "name": "_poolNo",
          "type": "uint256"
        }
      ],
      "name": "register",
      "outputs": [],
      "stateMutability": "nonpayable",
      "type": "function"
    },
    {
      "inputs": [
        {
          "internalType": "address",
          "name": "account",
          "type": "address"
        }
      ],
      "name": "getPoolNo",
      "outputs": [
        {
          "internalType": "uint256",
          "name": "",
          "type": "uint256"
        }
      ],
      "stateMutability": "view",
      "type": "function"
    },
    {
      "inputs": [
        {
          "internalType": "address",
          "name": "account",
          "type": "address"
        }
      ],
      "name": "getRegistrationStatus",
      "outputs": [
        {
          "internalType": "bool",
          "name": "",
          "type": "bool"
        }
      ],
      "stateMutability": "view",
      "type": "function"
    },
    {
      "inputs": [
        {
          "internalType": "uint256",
          "name": "_poolNo",
          "type": "uint256"
        }
      ],
      "name": "tokensAndPriceByPoolNo",
      "outputs": [
        {
          "internalType": "uint256",
          "name": "",
          "type": "uint256"
        },
        {
          "internalType": "uint256",
          "name": "",
          "type": "uint256"
        }
      ],
      "stateMutability": "view",
      "type": "function"
    },
    {
      "inputs": [],
      "name": "buyNow",
      "outputs": [],
      "stateMutability": "payable",
      "type": "function"
    },
    {
      "inputs": [
        {
          "internalType": "address",
          "name": "to",
          "type": "address"
        }
      ],
      "name": "recoverEth",
      "outputs": [],
      "stateMutability": "nonpayable",
      "type": "function"
    },
    {
      "inputs": [
        {
          "internalType": "address",
          "name": "tokenAddress",
          "type": "address"
        },
        {
          "internalType": "address",
          "name": "to",
          "type": "address"
        }
      ],
      "name": "recoverERC20",
      "outputs": [],
      "stateMutability": "nonpayable",
      "type": "function"
    }
  ],
  "bytecode": "0x60806040523480156200001157600080fd5b506040516200355038038062003550833981810160405281019062000037919062000898565b6000620000496200079b60201b60201c565b9050806000806101000a81548173ffffffffffffffffffffffffffffffffffffffff021916908373ffffffffffffffffffffffffffffffffffffffff1602179055508073ffffffffffffffffffffffffffffffffffffffff16600073ffffffffffffffffffffffffffffffffffffffff167f8be0079c531659141344cd1fd0a4f28419497f9722a3daafe3b4186f6b6457e060405160405180910390a3506001808190555084600260006101000a81548173ffffffffffffffffffffffffffffffffffffffff021916908373ffffffffffffffffffffffffffffffffffffffff16021790555083600360006101000a81548173ffffffffffffffffffffffffffffffffffffffff021916908373ffffffffffffffffffffffffffffffffffffffff16021790555082600460006101000a81548173ffffffffffffffffffffffffffffffffffffffff021916908373ffffffffffffffffffffffffffffffffffffffff16021790555081600581905550806006819055506000600360009054906101000a900473ffffffffffffffffffffffffffffffffffffffff1673ffffffffffffffffffffffffffffffffffffffff1663313ce5676040518163ffffffff1660e01b815260040160206040518083038186803b1580156200022a57600080fd5b505afa1580156200023f573d6000803e3d6000fd5b505050506040513d601f19601f820116820180604052508101906200026591906200091a565b60ff169050600b60405180608001604052806040518060400160405280600481526020017f4e756c6c00000000000000000000000000000000000000000000000000000000815250815260200160008152602001600081526020016000815250908060018154018082558091505060019003906000526020600020906004020160009091909190915060008201518160000190805190602001906200030c929190620007a3565b506020820151816001015560408201518160020155606082015181600301555050600b60405180608001604052806040518060400160405280600681526020017f4b6e696768740000000000000000000000000000000000000000000000000000815250815260200183600a620003849190620009a1565b606462000392919062000ade565b815260200160028152602001600081525090806001815401808255809150506001900390600052602060002090600402016000909190919091506000820151816000019080519060200190620003ea929190620007a3565b506020820151816001015560408201518160020155606082015181600301555050600b60405180608001604052806040518060400160405280600681526020017f426973686f700000000000000000000000000000000000000000000000000000815250815260200183600a620004629190620009a1565b6101f462000471919062000ade565b815260200160038152602001600081525090806001815401808255809150506001900390600052602060002090600402016000909190919091506000820151816000019080519060200190620004c9929190620007a3565b506020820151816001015560408201518160020155606082015181600301555050600b60405180608001604052806040518060400160405280600481526020017f526f6f6b00000000000000000000000000000000000000000000000000000000815250815260200183600a620005419190620009a1565b6103e862000550919062000ade565b815260200160048152602001600081525090806001815401808255809150506001900390600052602060002090600402016000909190919091506000820151816000019080519060200190620005a8929190620007a3565b506020820151816001015560408201518160020155606082015181600301555050600b60405180608001604052806040518060400160405280600481526020017f4b696e6700000000000000000000000000000000000000000000000000000000815250815260200183600a620006209190620009a1565b6107d06200062f919062000ade565b81526020016005815260200160008152509080600181540180825580915050600190039060005260206000209060040201600090919091909150600082015181600001908051906020019062000687929190620007a3565b506020820151816001015560408201518160020155606082015181600301555050600b60405180608001604052806040518060400160405280600581526020017f517565656e000000000000000000000000000000000000000000000000000000815250815260200183600a620006ff9190620009a1565b610fa06200070e919062000ade565b81526020016006815260200160008152509080600181540180825580915050600190039060005260206000209060040201600090919091909150600082015181600001908051906020019062000766929190620007a3565b5060208201518160010155604082015181600201556060820151816003015550506014600c8190555050505050505062000c79565b600033905090565b828054620007b19062000b8a565b90600052602060002090601f016020900481019282620007d5576000855562000821565b82601f10620007f057805160ff191683800117855562000821565b8280016001018555821562000821579182015b828111156200082057825182559160200191906001019062000803565b5b50905062000830919062000834565b5090565b5b808211156200084f57600081600090555060010162000835565b5090565b600081519050620008648162000c2b565b92915050565b6000815190506200087b8162000c45565b92915050565b600081519050620008928162000c5f565b92915050565b600080600080600060a08688031215620008b157600080fd5b6000620008c18882890162000853565b9550506020620008d48882890162000853565b9450506040620008e78882890162000853565b9350506060620008fa888289016200086a565b92505060806200090d888289016200086a565b9150509295509295909350565b6000602082840312156200092d57600080fd5b60006200093d8482850162000881565b91505092915050565b6000808291508390505b6001851115620009985780860481111562000970576200096f62000bc0565b5b6001851615620009805780820291505b8081029050620009908562000c1e565b945062000950565b94509492505050565b6000620009ae8262000b73565b9150620009bb8362000b73565b9250620009ea7fffffffffffffffffffffffffffffffffffffffffffffffffffffffffffffffff8484620009f2565b905092915050565b60008262000a04576001905062000ad7565b8162000a14576000905062000ad7565b816001811462000a2d576002811462000a385762000a6e565b600191505062000ad7565b60ff84111562000a4d5762000a4c62000bc0565b5b8360020a91508482111562000a675762000a6662000bc0565b5b5062000ad7565b5060208310610133831016604e8410600b841016171562000aa85782820a90508381111562000aa25762000aa162000bc0565b5b62000ad7565b62000ab7848484600162000946565b9250905081840481111562000ad15762000ad062000bc0565b5b81810290505b9392505050565b600062000aeb8262000b73565b915062000af88362000b73565b9250817fffffffffffffffffffffffffffffffffffffffffffffffffffffffffffffffff048311821515161562000b345762000b3362000bc0565b5b828202905092915050565b600062000b4c8262000b53565b9050919050565b600073ffffffffffffffffffffffffffffffffffffffff82169050919050565b6000819050919050565b600060ff82169050919050565b6000600282049050600182168062000ba357607f821691505b6020821081141562000bba5762000bb962000bef565b5b50919050565b7f4e487b7100000000000000000000000000000000000000000000000000000000600052601160045260246000fd5b7f4e487b7100000000000000000000000000000000000000000000000000000000600052602260045260246000fd5b60008160011c9050919050565b62000c368162000b3f565b811462000c4257600080fd5b50565b62000c508162000b73565b811462000c5c57600080fd5b50565b62000c6a8162000b7d565b811462000c7657600080fd5b50565b6128c78062000c896000396000f3fe60806040526004361061019c5760003560e01c8063a158226d116100ec578063e1758bd81161008a578063f207564e11610064578063f207564e146105a5578063f2fde38b146105ce578063f3f40af2146105f7578063fe4b84df146106225761019c565b8063e1758bd814610524578063e76eda861461054f578063efad76da1461057a5761019c565b8063ac4afa38116100c6578063ac4afa3814610463578063b6ba8114146104a3578063c4f34fab146104ce578063d6cd82bc146104f95761019c565b8063a158226d146103d0578063a25dd130146103fb578063a8af4ff5146104265761019c565b8063886f039a11610159578063907af6c011610133578063907af6c01461033357806396c82e571461035e5780639c3962f0146103895780639e6e9d0f146103935761019c565b8063886f039a146102a15780638da5cb5b146102ca5780638f666ecf146102f55761019c565b806304554443146101a15780633711d9fb146101cc578063392e53cd146101f757806345a28e0614610222578063715018a6146102615780637504db3e14610278575b600080fd5b3480156101ad57600080fd5b506101b661064b565b6040516101c3919061256d565b60405180910390f35b3480156101d857600080fd5b506101e161065d565b6040516101ee919061256d565b60405180910390f35b34801561020357600080fd5b5061020c61066f565b6040516102199190612279565b60405180910390f35b34801561022e57600080fd5b5061024960048036038101906102449190611c3c565b610682565b60405161025893929190612294565b60405180910390f35b34801561026d57600080fd5b506102766106c6565b005b34801561028457600080fd5b5061029f600480360381019061029a9190611c3c565b610800565b005b3480156102ad57600080fd5b506102c860048036038101906102c39190611c65565b61092c565b005b3480156102d657600080fd5b506102df610ac8565b6040516102ec9190612235565b60405180910390f35b34801561030157600080fd5b5061031c60048036038101906103179190611cca565b610af1565b60405161032a929190612588565b60405180910390f35b34801561033f57600080fd5b50610348610bd8565b604051610355919061256d565b60405180910390f35b34801561036a57600080fd5b50610373610bde565b604051610380919061256d565b60405180910390f35b610391610be4565b005b34801561039f57600080fd5b506103ba60048036038101906103b59190611c3c565b611025565b6040516103c7919061256d565b60405180910390f35b3480156103dc57600080fd5b506103e5611071565b6040516103f2919061256d565b60405180910390f35b34801561040757600080fd5b50610410611077565b60405161041d919061256d565b60405180910390f35b34801561043257600080fd5b5061044d60048036038101906104489190611c3c565b611089565b60405161045a9190612279565b60405180910390f35b34801561046f57600080fd5b5061048a60048036038101906104859190611cca565b6110e2565b60405161049a9493929190612301565b60405180910390f35b3480156104af57600080fd5b506104b86111aa565b6040516104c5919061256d565b60405180910390f35b3480156104da57600080fd5b506104e36111b0565b6040516104f091906122e6565b60405180910390f35b34801561050557600080fd5b5061050e6111d6565b60405161051b91906122cb565b60405180910390f35b34801561053057600080fd5b506105396111fc565b60405161054691906122cb565b60405180910390f35b34801561055b57600080fd5b50610564611222565b604051610571919061256d565b60405180910390f35b34801561058657600080fd5b5061058f61124d565b60405161059c919061256d565b60405180910390f35b3480156105b157600080fd5b506105cc60048036038101906105c79190611cca565b611253565b005b3480156105da57600080fd5b506105f560048036038101906105f09190611c3c565b61163f565b005b34801561060357600080fd5b5061060c6117e8565b604051610619919061256d565b60405180910390f35b34801561062e57600080fd5b5061064960048036038101906106449190611cca565b6117ee565b005b610e1060a861065a919061265f565b81565b610e10600c61066c919061265f565b81565b600a60009054906101000a900460ff1681565b60096020528060005260406000206000915090508060000160009054906101000a900460ff16908060010154908060020160009054906101000a900460ff16905083565b6106ce611a89565b73ffffffffffffffffffffffffffffffffffffffff166106ec610ac8565b73ffffffffffffffffffffffffffffffffffffffff1614610742576040517f08c379a0000000000000000000000000000000000000000000000000000000008152600401610739906124ad565b60405180910390fd5b600073ffffffffffffffffffffffffffffffffffffffff1660008054906101000a900473ffffffffffffffffffffffffffffffffffffffff1673ffffffffffffffffffffffffffffffffffffffff167f8be0079c531659141344cd1fd0a4f28419497f9722a3daafe3b4186f6b6457e060405160405180910390a360008060006101000a81548173ffffffffffffffffffffffffffffffffffffffff021916908373ffffffffffffffffffffffffffffffffffffffff160217905550565b610808611a89565b73ffffffffffffffffffffffffffffffffffffffff16610826610ac8565b73ffffffffffffffffffffffffffffffffffffffff161461087c576040517f08c379a0000000000000000000000000000000000000000000000000000000008152600401610873906124ad565b60405180910390fd5b60008173ffffffffffffffffffffffffffffffffffffffff16476040516108a290612220565b60006040518083038185875af1925050503d80600081146108df576040519150601f19603f3d011682016040523d82523d6000602084013e6108e4565b606091505b5050905080610928576040517f08c379a000000000000000000000000000000000000000000000000000000000815260040161091f9061244d565b60405180910390fd5b5050565b610934611a89565b73ffffffffffffffffffffffffffffffffffffffff16610952610ac8565b73ffffffffffffffffffffffffffffffffffffffff16146109a8576040517f08c379a000000000000000000000000000000000000000000000000000000000815260040161099f906124ad565b60405180910390fd5b60008290508073ffffffffffffffffffffffffffffffffffffffff1663a9059cbb838373ffffffffffffffffffffffffffffffffffffffff166370a08231306040518263ffffffff1660e01b8152600401610a039190612235565b60206040518083038186803b158015610a1b57600080fd5b505afa158015610a2f573d6000803e3d6000fd5b505050506040513d601f19601f82011682018060405250810190610a539190611cf3565b6040518363ffffffff1660e01b8152600401610a70929190612250565b602060405180830381600087803b158015610a8a57600080fd5b505af1158015610a9e573d6000803e3d6000fd5b505050506040513d601f19601f82011682018060405250810190610ac29190611ca1565b50505050565b60008060009054906101000a900473ffffffffffffffffffffffffffffffffffffffff16905090565b6000806000600b8481548110610b30577f4e487b7100000000000000000000000000000000000000000000000000000000600052603260045260246000fd5b906000526020600020906004020190506000841480610b53575060008160030154145b15610b65576000809250925050610bd3565b60008160030154600c54610b79919061265f565b8260020154600554610b8b919061265f565b610b95919061262e565b905060008260030154600c54610bab919061265f565b8360020154600654610bbd919061265f565b610bc7919061262e565b90508181945094505050505b915091565b610e1081565b600c5481565b6000429050600a60009054906101000a900460ff16610c38576040517f08c379a0000000000000000000000000000000000000000000000000000000008152600401610c2f9061254d565b60405180910390fd5b600960003373ffffffffffffffffffffffffffffffffffffffff1673ffffffffffffffffffffffffffffffffffffffff16815260200190815260200160002060000160009054906101000a900460ff16610cc7576040517f08c379a0000000000000000000000000000000000000000000000000000000008152600401610cbe9061236d565b60405180910390fd5b600960003373ffffffffffffffffffffffffffffffffffffffff1673ffffffffffffffffffffffffffffffffffffffff16815260200190815260200160002060020160009054906101000a900460ff1615610d57576040517f08c379a0000000000000000000000000000000000000000000000000000000008152600401610d4e9061240d565b60405180910390fd5b8060085411158015610d845750610e10600c610d73919061265f565b600854610d8091906125d8565b8111155b610dc3576040517f08c379a0000000000000000000000000000000000000000000000000000000008152600401610dba9061250d565b60405180910390fd5b60026001541415610e09576040517f08c379a0000000000000000000000000000000000000000000000000000000008152600401610e009061252d565b60405180910390fd5b60026001819055506000600960003373ffffffffffffffffffffffffffffffffffffffff1673ffffffffffffffffffffffffffffffffffffffff1681526020019081526020016000209050600080610e648360010154610af1565b9150915060008114158015610e7a575060008214155b610eb9576040517f08c379a0000000000000000000000000000000000000000000000000000000008152600401610eb0906124cd565b60405180910390fd5b348114610efb576040517f08c379a0000000000000000000000000000000000000000000000000000000008152600401610ef29061234d565b60405180910390fd5b60018360020160006101000a81548160ff021916908315150217905550600460009054906101000a900473ffffffffffffffffffffffffffffffffffffffff1673ffffffffffffffffffffffffffffffffffffffff1663a9059cbb33846040518363ffffffff1660e01b8152600401610f75929190612250565b602060405180830381600087803b158015610f8f57600080fd5b505af1158015610fa3573d6000803e3d6000fd5b505050506040513d601f19601f82011682018060405250810190610fc79190611ca1565b503373ffffffffffffffffffffffffffffffffffffffff167f12cb4648cf3058b17ceeb33e579f8b0bc269fe0843f3900b8e24b6c54871703c8383604051611010929190612588565b60405180910390a25050506001808190555050565b6000600960008373ffffffffffffffffffffffffffffffffffffffff1673ffffffffffffffffffffffffffffffffffffffff168152602001908152602001600020600101549050919050565b60075481565b610e106030611086919061265f565b81565b6000600960008373ffffffffffffffffffffffffffffffffffffffff1673ffffffffffffffffffffffffffffffffffffffff16815260200190815260200160002060000160009054906101000a900460ff169050919050565b600b81815481106110f257600080fd5b90600052602060002090600402016000915090508060000180546111159061277c565b80601f01602080910402602001604051908101604052809291908181526020018280546111419061277c565b801561118e5780601f106111635761010080835404028352916020019161118e565b820191906000526020600020905b81548152906001019060200180831161117157829003601f168201915b5050505050908060010154908060020154908060030154905084565b60055481565b600260009054906101000a900473ffffffffffffffffffffffffffffffffffffffff1681565b600460009054906101000a900473ffffffffffffffffffffffffffffffffffffffff1681565b600360009054906101000a900473ffffffffffffffffffffffffffffffffffffffff1681565b610e106018611231919061265f565b610e106030611240919061265f565b61124a91906125d8565b81565b60065481565b6000429050600a60009054906101000a900460ff166112a7576040517f08c379a000000000000000000000000000000000000000000000000000000000815260040161129e9061254d565b60405180910390fd5b600960003373ffffffffffffffffffffffffffffffffffffffff1673ffffffffffffffffffffffffffffffffffffffff16815260200190815260200160002060000160009054906101000a900460ff1615611337576040517f08c379a000000000000000000000000000000000000000000000000000000000815260040161132e906123ad565b60405180910390fd5b80600754111580156113645750610e106030611353919061265f565b60075461136091906125d8565b8111155b6113a3576040517f08c379a000000000000000000000000000000000000000000000000000000000815260040161139a906124ed565b60405180910390fd5b81806001111580156113b6575060058111155b6113f5576040517f08c379a00000000000000000000000000000000000000000000000000000000081526004016113ec906123cd565b60405180910390fd5b6000600260009054906101000a900473ffffffffffffffffffffffffffffffffffffffff1673ffffffffffffffffffffffffffffffffffffffff166360217267336040518263ffffffff1660e01b81526004016114529190612235565b60206040518083038186803b15801561146a57600080fd5b505afa15801561147e573d6000803e3d6000fd5b505050506040513d601f19601f820116820180604052508101906114a29190611cf3565b905080600b83815481106114df577f4e487b7100000000000000000000000000000000000000000000000000000000600052603260045260246000fd5b9060005260206000209060040201600101541115611532576040517f08c379a00000000000000000000000000000000000000000000000000000000081526004016115299061242d565b60405180910390fd5b60026001541415611578576040517f08c379a000000000000000000000000000000000000000000000000000000000815260040161156f9061252d565b60405180910390fd5b6002600181905550600260009054906101000a900473ffffffffffffffffffffffffffffffffffffffff1673ffffffffffffffffffffffffffffffffffffffff1663282d3fdf33610e1060a86115ce919061265f565b426115d991906125d8565b6040518363ffffffff1660e01b81526004016115f6929190612250565b600060405180830381600087803b15801561161057600080fd5b505af1158015611624573d6000803e3d6000fd5b505050506116323385611a91565b6001808190555050505050565b611647611a89565b73ffffffffffffffffffffffffffffffffffffffff16611665610ac8565b73ffffffffffffffffffffffffffffffffffffffff16146116bb576040517f08c379a00000000000000000000000000000000000000000000000000000000081526004016116b2906124ad565b60405180910390fd5b600073ffffffffffffffffffffffffffffffffffffffff168173ffffffffffffffffffffffffffffffffffffffff16141561172b576040517f08c379a00000000000000000000000000000000000000000000000000000000081526004016117229061238d565b60405180910390fd5b8073ffffffffffffffffffffffffffffffffffffffff1660008054906101000a900473ffffffffffffffffffffffffffffffffffffffff1673ffffffffffffffffffffffffffffffffffffffff167f8be0079c531659141344cd1fd0a4f28419497f9722a3daafe3b4186f6b6457e060405160405180910390a3806000806101000a81548173ffffffffffffffffffffffffffffffffffffffff021916908373ffffffffffffffffffffffffffffffffffffffff16021790555050565b60085481565b6117f6611a89565b73ffffffffffffffffffffffffffffffffffffffff16611814610ac8565b73ffffffffffffffffffffffffffffffffffffffff161461186a576040517f08c379a0000000000000000000000000000000000000000000000000000000008152600401611861906124ad565b60405180910390fd5b600a60009054906101000a900460ff16156118ba576040517f08c379a00000000000000000000000000000000000000000000000000000000081526004016118b1906123ed565b60405180910390fd5b428110156118fd576040517f08c379a00000000000000000000000000000000000000000000000000000000081526004016118f49061246d565b60405180910390fd5b80600781905550610e106018611913919061265f565b610e106030611922919061265f565b61192c91906125d8565b60075461193991906125d8565b600881905550600554600460009054906101000a900473ffffffffffffffffffffffffffffffffffffffff1673ffffffffffffffffffffffffffffffffffffffff166370a08231306040518263ffffffff1660e01b815260040161199d9190612235565b60206040518083038186803b1580156119b557600080fd5b505afa1580156119c9573d6000803e3d6000fd5b505050506040513d601f19601f820116820180604052508101906119ed9190611cf3565b1015611a2e576040517f08c379a0000000000000000000000000000000000000000000000000000000008152600401611a259061248d565b60405180910390fd5b7f537db03a5cf0f67e64e2a7515e45c28a71d041067e165fc95ee2ecde36e6532d600754600854604051611a63929190612588565b60405180910390a16001600a60006101000a81548160ff02191690831515021790555050565b600033905090565b6001600960008473ffffffffffffffffffffffffffffffffffffffff1673ffffffffffffffffffffffffffffffffffffffff16815260200190815260200160002060000160006101000a81548160ff02191690831515021790555080600960008473ffffffffffffffffffffffffffffffffffffffff1673ffffffffffffffffffffffffffffffffffffffff168152602001908152602001600020600101819055506001600b8281548110611b6f577f4e487b7100000000000000000000000000000000000000000000000000000000600052603260045260246000fd5b90600052602060002090600402016003016000828254611b8f91906125d8565b925050819055503373ffffffffffffffffffffffffffffffffffffffff167ff6c60b059f60c86b2d612b237ac38bd87bc1f68f87600cd360d68351af1ca95f82604051611bdc919061256d565b60405180910390a25050565b600081359050611bf78161284c565b92915050565b600081519050611c0c81612863565b92915050565b600081359050611c218161287a565b92915050565b600081519050611c368161287a565b92915050565b600060208284031215611c4e57600080fd5b6000611c5c84828501611be8565b91505092915050565b60008060408385031215611c7857600080fd5b6000611c8685828601611be8565b9250506020611c9785828601611be8565b9150509250929050565b600060208284031215611cb357600080fd5b6000611cc184828501611bfd565b91505092915050565b600060208284031215611cdc57600080fd5b6000611cea84828501611c12565b91505092915050565b600060208284031215611d0557600080fd5b6000611d1384828501611c27565b91505092915050565b611d25816126b9565b82525050565b611d34816126cb565b82525050565b611d4381612701565b82525050565b611d5281612725565b82525050565b6000611d63826125b1565b611d6d81856125c7565b9350611d7d818560208601612749565b611d868161283b565b840191505092915050565b6000611d9e6014836125c7565b91507f4e6f742056616c69642045746820416d6f756e740000000000000000000000006000830152602082019050919050565b6000611dde600e836125c7565b91507f4e6f7420726567697374657265640000000000000000000000000000000000006000830152602082019050919050565b6000611e1e6026836125c7565b91507f4f776e61626c653a206e6577206f776e657220697320746865207a65726f206160008301527f64647265737300000000000000000000000000000000000000000000000000006020830152604082019050919050565b6000611e846012836125c7565b91507f416c7265616479207265676973746572656400000000000000000000000000006000830152602082019050919050565b6000611ec4600f836125c7565b91507f696e76616c696420506f6f6c206e6f00000000000000000000000000000000006000830152602082019050919050565b6000611f046013836125c7565b91507f416c726561647920496e697469616c697a6564000000000000000000000000006000830152602082019050919050565b6000611f446011836125c7565b91507f416c7265616479205075726368617365640000000000000000000000000000006000830152602082019050919050565b6000611f84601d836125c7565b91507f43616e277420506172746963697061746520696e2074686520506f6f6c0000006000830152602082019050919050565b6000611fc46015836125c7565b91507f556e61626c6520546f205265636f7665722045746800000000000000000000006000830152602082019050919050565b60006120046014836125c7565b91507f49444f2043616e277420426520696e20506173740000000000000000000000006000830152602082019050919050565b6000612044601d836125c7565b91507f4e6f7420456e6f75676820546f6b656e7320496e20436f6e74726163740000006000830152602082019050919050565b60006120846020836125c7565b91507f4f776e61626c653a2063616c6c6572206973206e6f7420746865206f776e65726000830152602082019050919050565b60006120c46014836125c7565b91507f56616c7565732043616e2774204265205a65726f0000000000000000000000006000830152602082019050919050565b6000612104601a836125c7565b91507f4e6f7420696e20526567697374726174696f6e20506572696f640000000000006000830152602082019050919050565b60006121446000836125bc565b9150600082019050919050565b600061215e6012836125c7565b91507f4e6f7420696e2053616c6520506572696f6400000000000000000000000000006000830152602082019050919050565b600061219e601f836125c7565b91507f5265656e7472616e637947756172643a207265656e7472616e742063616c6c006000830152602082019050919050565b60006121de6013836125c7565b91507f4e6f7420496e697469616c697a656420596574000000000000000000000000006000830152602082019050919050565b61221a816126f7565b82525050565b600061222b82612137565b9150819050919050565b600060208201905061224a6000830184611d1c565b92915050565b60006040820190506122656000830185611d1c565b6122726020830184612211565b9392505050565b600060208201905061228e6000830184611d2b565b92915050565b60006060820190506122a96000830186611d2b565b6122b66020830185612211565b6122c36040830184611d2b565b949350505050565b60006020820190506122e06000830184611d3a565b92915050565b60006020820190506122fb6000830184611d49565b92915050565b6000608082019050818103600083015261231b8187611d58565b905061232a6020830186612211565b6123376040830185612211565b6123446060830184612211565b95945050505050565b6000602082019050818103600083015261236681611d91565b9050919050565b6000602082019050818103600083015261238681611dd1565b9050919050565b600060208201905081810360008301526123a681611e11565b9050919050565b600060208201905081810360008301526123c681611e77565b9050919050565b600060208201905081810360008301526123e681611eb7565b9050919050565b6000602082019050818103600083015261240681611ef7565b9050919050565b6000602082019050818103600083015261242681611f37565b9050919050565b6000602082019050818103600083015261244681611f77565b9050919050565b6000602082019050818103600083015261246681611fb7565b9050919050565b6000602082019050818103600083015261248681611ff7565b9050919050565b600060208201905081810360008301526124a681612037565b9050919050565b600060208201905081810360008301526124c681612077565b9050919050565b600060208201905081810360008301526124e6816120b7565b9050919050565b60006020820190508181036000830152612506816120f7565b9050919050565b6000602082019050818103600083015261252681612151565b9050919050565b6000602082019050818103600083015261254681612191565b9050919050565b60006020820190508181036000830152612566816121d1565b9050919050565b60006020820190506125826000830184612211565b92915050565b600060408201905061259d6000830185612211565b6125aa6020830184612211565b9392505050565b600081519050919050565b600081905092915050565b600082825260208201905092915050565b60006125e3826126f7565b91506125ee836126f7565b9250827fffffffffffffffffffffffffffffffffffffffffffffffffffffffffffffffff03821115612623576126226127ae565b5b828201905092915050565b6000612639826126f7565b9150612644836126f7565b925082612654576126536127dd565b5b828204905092915050565b600061266a826126f7565b9150612675836126f7565b9250817fffffffffffffffffffffffffffffffffffffffffffffffffffffffffffffffff04831182151516156126ae576126ad6127ae565b5b828202905092915050565b60006126c4826126d7565b9050919050565b60008115159050919050565b600073ffffffffffffffffffffffffffffffffffffffff82169050919050565b6000819050919050565b600061270c82612713565b9050919050565b600061271e826126d7565b9050919050565b600061273082612737565b9050919050565b6000612742826126d7565b9050919050565b60005b8381101561276757808201518184015260208101905061274c565b83811115612776576000848401525b50505050565b6000600282049050600182168061279457607f821691505b602082108114156127a8576127a761280c565b5b50919050565b7f4e487b7100000000000000000000000000000000000000000000000000000000600052601160045260246000fd5b7f4e487b7100000000000000000000000000000000000000000000000000000000600052601260045260246000fd5b7f4e487b7100000000000000000000000000000000000000000000000000000000600052602260045260246000fd5b6000601f19601f8301169050919050565b612855816126b9565b811461286057600080fd5b50565b61286c816126cb565b811461287757600080fd5b50565b612883816126f7565b811461288e57600080fd5b5056fea2646970667358221220633adbf2de629a01b030e187e9f48e812f45aadb52638bb0e6df5857fea9a37a64736f6c63430008000033",
  "immutableReferences": {},
  "source": "// SPDX-License-Identifier: MIT\r\npragma solidity ^0.8.0;\r\n\r\nimport './../interfaces/IStaker.sol';\r\nimport \"@openzeppelin/contracts/token/ERC20/extensions/IERC20Metadata.sol\";\r\nimport \"@openzeppelin/contracts/access/Ownable.sol\";\r\nimport \"@openzeppelin/contracts/security/ReentrancyGuard.sol\";\r\n\r\ncontract IDO is Ownable, ReentrancyGuard {\r\n\r\n    IStaker public iStaker;\r\n    IERC20Metadata public nativeToken; // The token staked\r\n    IERC20Metadata public idoToken; // The token sale in iDO\r\n    uint256 public idoTokenSum; // Amount of Tokens to be Sold\r\n    uint256 public idoTotalPrice; // Price of 1 Tokens in Wei\r\n\r\n    // Time Stamps\r\n    uint256 public constant unit = 1 hours; // use seconds for testing\r\n    uint256 public constant lockDuration = 7 * 24 * unit;\r\n    uint256 public constant regDuration = 48 * unit;\r\n    uint256 public constant saleStartsAfter = regDuration + 24 * unit;\r\n    uint256 public constant saleDuration = 12 * unit;\r\n    uint256 public regStarts;\r\n    uint256 public saleStarts;\r\n\r\n    event Initialization(uint256 regStart, uint256 saleStart);\r\n    event Registration(address indexed account, uint256 poolNo);\r\n    event Purchase(address indexed, uint256 tokens, uint256 price);\r\n\r\n    struct UserLog {\r\n        bool isRegistered;\r\n        uint256 registeredPool;\r\n        bool purchased;\r\n    }\r\n    mapping(address => UserLog) public userlog;\r\n\r\n    bool public isInitialized;\r\n\r\n    struct PoolInfo {\r\n        string name;\r\n        uint256 minNativeToken; // min token required to particitate in the pool\r\n        uint256 weight;\r\n        uint256 participants;\r\n    } \r\n    PoolInfo[] public pools;\r\n    uint256 public totalWeight;\r\n\r\n    modifier verifyPool(uint256 _poolNo) {\r\n        require(1 <= _poolNo && _poolNo <= 5, \"invalid Pool no\");\r\n\r\n        uint256 stakedAmount = iStaker.stakedBalance(msg.sender);\r\n        require(pools[_poolNo].minNativeToken <= stakedAmount, \"Can't Participate in the Pool\");\r\n\r\n        _;\r\n    }\r\n\r\n    modifier validRegistration() {\r\n        uint256 t = block.timestamp;\r\n\r\n        require(isInitialized, \"Not Initialized Yet\");\r\n        require(!userlog[msg.sender].isRegistered, \"Already registered\");\r\n        require(regStarts <= t && t <= regStarts + regDuration, \"Not in Registration Period\");\r\n        _;\r\n    }\r\n\r\n    modifier validSale() {\r\n        uint256 t = block.timestamp;\r\n\r\n        require(isInitialized, \"Not Initialized Yet\");\r\n        require(userlog[msg.sender].isRegistered, \"Not registered\");\r\n        require(!userlog[msg.sender].purchased, \"Already Purchased\");\r\n        require(saleStarts <= t && t <= saleStarts + saleDuration, \"Not in Sale Period\");\r\n        _;\r\n    }\r\n\r\n    modifier notInitialized() {\r\n        require(!isInitialized, \"Already Initialized\");\r\n        _;\r\n        isInitialized = true;\r\n    }\r\n\r\n    constructor (\r\n        address _stakerAddress,\r\n        address _nativeTokenAddress,\r\n        address _idoTokenAddress,\r\n        uint256 _idoTokenSum,\r\n        uint256 _price\r\n    ) {\r\n        \r\n        iStaker = IStaker(_stakerAddress);\r\n        nativeToken = IERC20Metadata(_nativeTokenAddress);\r\n        idoToken = IERC20Metadata(_idoTokenAddress);\r\n        idoTokenSum = _idoTokenSum;\r\n        idoTotalPrice = _price;\r\n\r\n        uint256 dec = uint256(nativeToken.decimals());\r\n        pools.push(PoolInfo(\"Null\", 0, 0, 0));\r\n        pools.push(PoolInfo(\"Knight\", 100 * 10**dec, 2, 0));\r\n        pools.push(PoolInfo(\"Bishop\", 500 * 10**dec, 3, 0));\r\n        pools.push(PoolInfo(\"Rook\", 1000 * 10**dec, 4, 0));\r\n        pools.push(PoolInfo(\"King\", 2000 * 10**dec, 5, 0));\r\n        pools.push(PoolInfo(\"Queen\", 4000 * 10**dec, 6, 0));\r\n        totalWeight = 20;\r\n\r\n    }\r\n\r\n    function initialize(uint256 time) external onlyOwner notInitialized {\r\n        require(time >= block.timestamp, \"IDO Can't Be in Past\");\r\n        regStarts = time;\r\n        saleStarts = regStarts + saleStartsAfter;\r\n        require(idoToken.balanceOf(address(this)) >= idoTokenSum, \"Not Enough Tokens In Contract\");\r\n\r\n        emit Initialization(regStarts, saleStarts);\r\n    }\r\n\r\n    function register(uint256 _poolNo) \r\n    external \r\n    validRegistration \r\n    verifyPool(_poolNo)\r\n    nonReentrant {\r\n        iStaker.lock(msg.sender, block.timestamp + lockDuration);\r\n        _register(msg.sender, _poolNo);\r\n    }\r\n\r\n    function _register(address account, uint256 _poolNo) internal {\r\n        userlog[account].isRegistered = true;\r\n        userlog[account].registeredPool = _poolNo;\r\n        pools[_poolNo].participants += 1;\r\n        \r\n\r\n        emit Registration(msg.sender, _poolNo);\r\n    }\r\n\r\n    function getPoolNo(address account) public view returns(uint256) {\r\n        return userlog[account].registeredPool;\r\n    }\r\n\r\n    function getRegistrationStatus(address account) public view returns(bool) {\r\n        return userlog[account].isRegistered;\r\n    }\r\n\r\n    function tokensAndPriceByPoolNo(uint256 _poolNo) public view returns(uint256, uint256) {\r\n\r\n        PoolInfo storage pool = pools[_poolNo];\r\n\r\n        if(_poolNo == 0 || pool.participants == 0) {\r\n            return (0, 0);\r\n        }\r\n\r\n        uint256 tokenAmount = (idoTokenSum * pool.weight) / (totalWeight * pool.participants); // Token Amount per Participants\r\n        uint256 price = (idoTotalPrice * pool.weight) / (totalWeight * pool.participants); // Token Amount per Participants\r\n\r\n        return (tokenAmount, price);\r\n    }\r\n\r\n    function buyNow() external \r\n    payable \r\n    validSale\r\n    nonReentrant {\r\n        UserLog storage usr = userlog[msg.sender];\r\n        (uint256 amount, uint256 price) = tokensAndPriceByPoolNo(usr.registeredPool);\r\n        require(price != 0 && amount != 0, \"Values Can't Be Zero\");\r\n        require(price == msg.value, \"Not Valid Eth Amount\");\r\n\r\n        usr.purchased = true;\r\n        idoToken.transfer(msg.sender, amount);\r\n\r\n        emit Purchase(msg.sender, amount, price);\r\n    }\r\n\r\n    function recoverEth(address to) external onlyOwner {\r\n        (bool sent,) = address(to).call{value : address(this).balance}(\"\");\r\n        require(sent, 'Unable To Recover Eth');\r\n    }\r\n\r\n    function recoverERC20(\r\n        address tokenAddress, \r\n        address to\r\n    ) external onlyOwner {\r\n        IERC20Metadata tok = IERC20Metadata(tokenAddress);\r\n        tok.transfer(to, tok.balanceOf(address(this)));\r\n    }\r\n\r\n}",
  "sourcePath": "C:\\Users\\sudip\\Desktop\\RealProjects\\PolyStarter\\contracts\\IDOStaker\\IDO.sol",
  "compiler": {
    "name": "solc",
    "version": "0.8.0+commit.c7dfd78e.Emscripten.clang"
  },
  "schemaVersion": "3.3.4",
  "updatedAt": "2021-06-11T07:51:25.647Z",
  "devdoc": {
    "kind": "dev",
    "methods": {
      "owner()": {
        "details": "Returns the address of the current owner."
      },
      "renounceOwnership()": {
        "details": "Leaves the contract without owner. It will not be possible to call `onlyOwner` functions anymore. Can only be called by the current owner. NOTE: Renouncing ownership will leave the contract without an owner, thereby removing any functionality that is only available to the owner."
      },
      "transferOwnership(address)": {
        "details": "Transfers ownership of the contract to a new account (`newOwner`). Can only be called by the current owner."
      }
    },
    "version": 1
  },
  "userdoc": {
    "kind": "user",
    "methods": {},
    "version": 1
  }
}