{
  "contractName": "IDO",
  "abi": [
    {
      "inputs": [
        {
          "internalType": "address",
          "name": "_stakerAddress",
          "type": "address"
        },
        {
          "internalType": "address",
          "name": "_nativeTokenAddress",
          "type": "address"
        },
        {
          "internalType": "address",
          "name": "_idoTokenAddress",
          "type": "address"
        },
        {
          "internalType": "uint256",
          "name": "_idoAmount",
          "type": "uint256"
        },
        {
          "internalType": "uint256",
          "name": "_price",
          "type": "uint256"
        }
      ],
      "stateMutability": "nonpayable",
      "type": "constructor"
    },
    {
      "anonymous": false,
      "inputs": [
        {
          "indexed": false,
          "internalType": "uint256",
          "name": "regStart",
          "type": "uint256"
        },
        {
          "indexed": false,
          "internalType": "uint256",
          "name": "saleStart",
          "type": "uint256"
        }
      ],
      "name": "Initialization",
      "type": "event"
    },
    {
      "anonymous": false,
      "inputs": [
        {
          "indexed": true,
          "internalType": "address",
          "name": "previousOwner",
          "type": "address"
        },
        {
          "indexed": true,
          "internalType": "address",
          "name": "newOwner",
          "type": "address"
        }
      ],
      "name": "OwnershipTransferred",
      "type": "event"
    },
    {
      "anonymous": false,
      "inputs": [
        {
          "indexed": true,
          "internalType": "address",
          "name": "",
          "type": "address"
        },
        {
          "indexed": false,
          "internalType": "uint256",
          "name": "tokens",
          "type": "uint256"
        },
        {
          "indexed": false,
          "internalType": "uint256",
          "name": "price",
          "type": "uint256"
        }
      ],
      "name": "Purchase",
      "type": "event"
    },
    {
      "anonymous": false,
      "inputs": [
        {
          "indexed": true,
          "internalType": "address",
          "name": "account",
          "type": "address"
        },
        {
          "indexed": false,
          "internalType": "uint256",
          "name": "poolNo",
          "type": "uint256"
        }
      ],
      "name": "Registration",
      "type": "event"
    },
    {
      "inputs": [],
      "name": "iStaker",
      "outputs": [
        {
          "internalType": "contract IStaker",
          "name": "",
          "type": "address"
        }
      ],
      "stateMutability": "view",
      "type": "function"
    },
    {
      "inputs": [],
      "name": "idoAmount",
      "outputs": [
        {
          "internalType": "uint256",
          "name": "",
          "type": "uint256"
        }
      ],
      "stateMutability": "view",
      "type": "function"
    },
    {
      "inputs": [],
      "name": "idoPrice",
      "outputs": [
        {
          "internalType": "uint256",
          "name": "",
          "type": "uint256"
        }
      ],
      "stateMutability": "view",
      "type": "function"
    },
    {
      "inputs": [],
      "name": "idoToken",
      "outputs": [
        {
          "internalType": "contract IERC20Metadata",
          "name": "",
          "type": "address"
        }
      ],
      "stateMutability": "view",
      "type": "function"
    },
    {
      "inputs": [],
      "name": "isInitialized",
      "outputs": [
        {
          "internalType": "bool",
          "name": "",
          "type": "bool"
        }
      ],
      "stateMutability": "view",
      "type": "function"
    },
    {
      "inputs": [],
      "name": "lockDuration",
      "outputs": [
        {
          "internalType": "uint256",
          "name": "",
          "type": "uint256"
        }
      ],
      "stateMutability": "view",
      "type": "function"
    },
    {
      "inputs": [],
      "name": "nativeToken",
      "outputs": [
        {
          "internalType": "contract IERC20Metadata",
          "name": "",
          "type": "address"
        }
      ],
      "stateMutability": "view",
      "type": "function"
    },
    {
      "inputs": [],
      "name": "owner",
      "outputs": [
        {
          "internalType": "address",
          "name": "",
          "type": "address"
        }
      ],
      "stateMutability": "view",
      "type": "function"
    },
    {
      "inputs": [
        {
          "internalType": "uint256",
          "name": "",
          "type": "uint256"
        }
      ],
      "name": "pools",
      "outputs": [
        {
          "internalType": "string",
          "name": "name",
          "type": "string"
        },
        {
          "internalType": "uint256",
          "name": "minNativeToken",
          "type": "uint256"
        },
        {
          "internalType": "uint256",
          "name": "weight",
          "type": "uint256"
        },
        {
          "internalType": "uint256",
          "name": "participants",
          "type": "uint256"
        }
      ],
      "stateMutability": "view",
      "type": "function"
    },
    {
      "inputs": [],
      "name": "regDuration",
      "outputs": [
        {
          "internalType": "uint256",
          "name": "",
          "type": "uint256"
        }
      ],
      "stateMutability": "view",
      "type": "function"
    },
    {
      "inputs": [],
      "name": "regStarts",
      "outputs": [
        {
          "internalType": "uint256",
          "name": "",
          "type": "uint256"
        }
      ],
      "stateMutability": "view",
      "type": "function"
    },
    {
      "inputs": [],
      "name": "renounceOwnership",
      "outputs": [],
      "stateMutability": "nonpayable",
      "type": "function"
    },
    {
      "inputs": [],
      "name": "saleDuration",
      "outputs": [
        {
          "internalType": "uint256",
          "name": "",
          "type": "uint256"
        }
      ],
      "stateMutability": "view",
      "type": "function"
    },
    {
      "inputs": [],
      "name": "saleStarts",
      "outputs": [
        {
          "internalType": "uint256",
          "name": "",
          "type": "uint256"
        }
      ],
      "stateMutability": "view",
      "type": "function"
    },
    {
      "inputs": [],
      "name": "saleStartsAfter",
      "outputs": [
        {
          "internalType": "uint256",
          "name": "",
          "type": "uint256"
        }
      ],
      "stateMutability": "view",
      "type": "function"
    },
    {
      "inputs": [],
      "name": "totalWeight",
      "outputs": [
        {
          "internalType": "uint256",
          "name": "",
          "type": "uint256"
        }
      ],
      "stateMutability": "view",
      "type": "function"
    },
    {
      "inputs": [
        {
          "internalType": "address",
          "name": "newOwner",
          "type": "address"
        }
      ],
      "name": "transferOwnership",
      "outputs": [],
      "stateMutability": "nonpayable",
      "type": "function"
    },
    {
      "inputs": [],
      "name": "unit",
      "outputs": [
        {
          "internalType": "uint256",
          "name": "",
          "type": "uint256"
        }
      ],
      "stateMutability": "view",
      "type": "function"
    },
    {
      "inputs": [
        {
          "internalType": "address",
          "name": "",
          "type": "address"
        }
      ],
      "name": "userlog",
      "outputs": [
        {
          "internalType": "bool",
          "name": "isRegistered",
          "type": "bool"
        },
        {
          "internalType": "uint256",
          "name": "registeredPool",
          "type": "uint256"
        },
        {
          "internalType": "bool",
          "name": "purchased",
          "type": "bool"
        }
      ],
      "stateMutability": "view",
      "type": "function"
    },
    {
      "inputs": [
        {
          "internalType": "uint256",
          "name": "time",
          "type": "uint256"
        }
      ],
      "name": "initialize",
      "outputs": [],
      "stateMutability": "nonpayable",
      "type": "function"
    },
    {
      "inputs": [
        {
          "internalType": "uint256",
          "name": "_poolNo",
          "type": "uint256"
        }
      ],
      "name": "register",
      "outputs": [],
      "stateMutability": "nonpayable",
      "type": "function"
    },
    {
      "inputs": [
        {
          "internalType": "address",
          "name": "account",
          "type": "address"
        }
      ],
      "name": "getPoolNo",
      "outputs": [
        {
          "internalType": "uint256",
          "name": "",
          "type": "uint256"
        }
      ],
      "stateMutability": "view",
      "type": "function"
    },
    {
      "inputs": [
        {
          "internalType": "uint256",
          "name": "_poolNo",
          "type": "uint256"
        }
      ],
      "name": "tokensAndPrice",
      "outputs": [
        {
          "internalType": "uint256",
          "name": "",
          "type": "uint256"
        },
        {
          "internalType": "uint256",
          "name": "",
          "type": "uint256"
        }
      ],
      "stateMutability": "view",
      "type": "function"
    },
    {
      "inputs": [],
      "name": "buyNow",
      "outputs": [],
      "stateMutability": "payable",
      "type": "function"
    },
    {
      "inputs": [
        {
          "internalType": "address",
          "name": "to",
          "type": "address"
        }
      ],
      "name": "recoverEth",
      "outputs": [],
      "stateMutability": "nonpayable",
      "type": "function"
    },
    {
      "inputs": [
        {
          "internalType": "address",
          "name": "tokenAddress",
          "type": "address"
        },
        {
          "internalType": "address",
          "name": "to",
          "type": "address"
        }
      ],
      "name": "recoverERC20",
      "outputs": [],
      "stateMutability": "nonpayable",
      "type": "function"
    }
  ],
  "bytecode": "0x60806040523480156200001157600080fd5b506040516200371038038062003710833981810160405281019062000037919062000898565b6000620000496200079b60201b60201c565b9050806000806101000a81548173ffffffffffffffffffffffffffffffffffffffff021916908373ffffffffffffffffffffffffffffffffffffffff1602179055508073ffffffffffffffffffffffffffffffffffffffff16600073ffffffffffffffffffffffffffffffffffffffff167f8be0079c531659141344cd1fd0a4f28419497f9722a3daafe3b4186f6b6457e060405160405180910390a3506001808190555084600260006101000a81548173ffffffffffffffffffffffffffffffffffffffff021916908373ffffffffffffffffffffffffffffffffffffffff16021790555083600360006101000a81548173ffffffffffffffffffffffffffffffffffffffff021916908373ffffffffffffffffffffffffffffffffffffffff16021790555082600460006101000a81548173ffffffffffffffffffffffffffffffffffffffff021916908373ffffffffffffffffffffffffffffffffffffffff16021790555081600581905550806006819055506000600360009054906101000a900473ffffffffffffffffffffffffffffffffffffffff1673ffffffffffffffffffffffffffffffffffffffff1663313ce5676040518163ffffffff1660e01b815260040160206040518083038186803b1580156200022a57600080fd5b505afa1580156200023f573d6000803e3d6000fd5b505050506040513d601f19601f820116820180604052508101906200026591906200091a565b60ff169050600b60405180608001604052806040518060400160405280600481526020017f4e756c6c00000000000000000000000000000000000000000000000000000000815250815260200160008152602001600081526020016000815250908060018154018082558091505060019003906000526020600020906004020160009091909190915060008201518160000190805190602001906200030c929190620007a3565b506020820151816001015560408201518160020155606082015181600301555050600b60405180608001604052806040518060400160405280600681526020017f4b6e696768740000000000000000000000000000000000000000000000000000815250815260200183600a620003849190620009a1565b606462000392919062000ade565b815260200160028152602001600081525090806001815401808255809150506001900390600052602060002090600402016000909190919091506000820151816000019080519060200190620003ea929190620007a3565b506020820151816001015560408201518160020155606082015181600301555050600b60405180608001604052806040518060400160405280600681526020017f426973686f700000000000000000000000000000000000000000000000000000815250815260200183600a620004629190620009a1565b6101f462000471919062000ade565b815260200160038152602001600081525090806001815401808255809150506001900390600052602060002090600402016000909190919091506000820151816000019080519060200190620004c9929190620007a3565b506020820151816001015560408201518160020155606082015181600301555050600b60405180608001604052806040518060400160405280600481526020017f526f6f6b00000000000000000000000000000000000000000000000000000000815250815260200183600a620005419190620009a1565b6103e862000550919062000ade565b815260200160048152602001600081525090806001815401808255809150506001900390600052602060002090600402016000909190919091506000820151816000019080519060200190620005a8929190620007a3565b506020820151816001015560408201518160020155606082015181600301555050600b60405180608001604052806040518060400160405280600481526020017f4b696e6700000000000000000000000000000000000000000000000000000000815250815260200183600a620006209190620009a1565b6107d06200062f919062000ade565b81526020016005815260200160008152509080600181540180825580915050600190039060005260206000209060040201600090919091909150600082015181600001908051906020019062000687929190620007a3565b506020820151816001015560408201518160020155606082015181600301555050600b60405180608001604052806040518060400160405280600581526020017f517565656e000000000000000000000000000000000000000000000000000000815250815260200183600a620006ff9190620009a1565b610fa06200070e919062000ade565b81526020016006815260200160008152509080600181540180825580915050600190039060005260206000209060040201600090919091909150600082015181600001908051906020019062000766929190620007a3565b5060208201518160010155604082015181600201556060820151816003015550506014600c8190555050505050505062000c79565b600033905090565b828054620007b19062000b8a565b90600052602060002090601f016020900481019282620007d5576000855562000821565b82601f10620007f057805160ff191683800117855562000821565b8280016001018555821562000821579182015b828111156200082057825182559160200191906001019062000803565b5b50905062000830919062000834565b5090565b5b808211156200084f57600081600090555060010162000835565b5090565b600081519050620008648162000c2b565b92915050565b6000815190506200087b8162000c45565b92915050565b600081519050620008928162000c5f565b92915050565b600080600080600060a08688031215620008b157600080fd5b6000620008c18882890162000853565b9550506020620008d48882890162000853565b9450506040620008e78882890162000853565b9350506060620008fa888289016200086a565b92505060806200090d888289016200086a565b9150509295509295909350565b6000602082840312156200092d57600080fd5b60006200093d8482850162000881565b91505092915050565b6000808291508390505b6001851115620009985780860481111562000970576200096f62000bc0565b5b6001851615620009805780820291505b8081029050620009908562000c1e565b945062000950565b94509492505050565b6000620009ae8262000b73565b9150620009bb8362000b73565b9250620009ea7fffffffffffffffffffffffffffffffffffffffffffffffffffffffffffffffff8484620009f2565b905092915050565b60008262000a04576001905062000ad7565b8162000a14576000905062000ad7565b816001811462000a2d576002811462000a385762000a6e565b600191505062000ad7565b60ff84111562000a4d5762000a4c62000bc0565b5b8360020a91508482111562000a675762000a6662000bc0565b5b5062000ad7565b5060208310610133831016604e8410600b841016171562000aa85782820a90508381111562000aa25762000aa162000bc0565b5b62000ad7565b62000ab7848484600162000946565b9250905081840481111562000ad15762000ad062000bc0565b5b81810290505b9392505050565b600062000aeb8262000b73565b915062000af88362000b73565b9250817fffffffffffffffffffffffffffffffffffffffffffffffffffffffffffffffff048311821515161562000b345762000b3362000bc0565b5b828202905092915050565b600062000b4c8262000b53565b9050919050565b600073ffffffffffffffffffffffffffffffffffffffff82169050919050565b6000819050919050565b600060ff82169050919050565b6000600282049050600182168062000ba357607f821691505b6020821081141562000bba5762000bb962000bef565b5b50919050565b7f4e487b7100000000000000000000000000000000000000000000000000000000600052601160045260246000fd5b7f4e487b7100000000000000000000000000000000000000000000000000000000600052602260045260246000fd5b60008160011c9050919050565b62000c368162000b3f565b811462000c4257600080fd5b50565b62000c508162000b73565b811462000c5c57600080fd5b50565b62000c6a8162000b7d565b811462000c7657600080fd5b50565b612a878062000c896000396000f3fe6080604052600436106101815760003560e01c8063a158226d116100d1578063d6cd82bc1161008a578063f207564e11610064578063f207564e1461054d578063f2fde38b14610576578063f3f40af21461059f578063fe4b84df146105ca57610181565b8063d6cd82bc146104cc578063e1758bd8146104f7578063e76eda861461052257610181565b8063a158226d146103b5578063a25dd130146103e0578063ac4afa381461040b578063bf3834501461044b578063c4f34fab14610476578063cd80fe0d146104a157610181565b80637504db3e1161013e578063907af6c011610118578063907af6c01461031857806396c82e57146103435780639c3962f01461036e5780639e6e9d0f1461037857610181565b80637504db3e1461029b578063886f039a146102c45780638da5cb5b146102ed57610181565b80630455444314610186578063236bcd58146101b15780633711d9fb146101ef578063392e53cd1461021a57806345a28e0614610245578063715018a614610284575b600080fd5b34801561019257600080fd5b5061019b6105f3565b6040516101a8919061258b565b60405180910390f35b3480156101bd57600080fd5b506101d860048036038101906101d39190611cbf565b610605565b6040516101e69291906125a6565b60405180910390f35b3480156101fb57600080fd5b5061020461078b565b604051610211919061258b565b60405180910390f35b34801561022657600080fd5b5061022f61079d565b60405161023c9190612297565b60405180910390f35b34801561025157600080fd5b5061026c60048036038101906102679190611c31565b6107b0565b60405161027b939291906122b2565b60405180910390f35b34801561029057600080fd5b506102996107f4565b005b3480156102a757600080fd5b506102c260048036038101906102bd9190611c31565b61092e565b005b3480156102d057600080fd5b506102eb60048036038101906102e69190611c5a565b610a5a565b005b3480156102f957600080fd5b50610302610bf6565b60405161030f9190612253565b60405180910390f35b34801561032457600080fd5b5061032d610c1f565b60405161033a919061258b565b60405180910390f35b34801561034f57600080fd5b50610358610c25565b604051610365919061258b565b60405180910390f35b610376610c2b565b005b34801561038457600080fd5b5061039f600480360381019061039a9190611c31565b61106c565b6040516103ac919061258b565b60405180910390f35b3480156103c157600080fd5b506103ca6110b8565b6040516103d7919061258b565b60405180910390f35b3480156103ec57600080fd5b506103f56110be565b604051610402919061258b565b60405180910390f35b34801561041757600080fd5b50610432600480360381019061042d9190611cbf565b6110d0565b604051610442949392919061231f565b60405180910390f35b34801561045757600080fd5b50610460611198565b60405161046d919061258b565b60405180910390f35b34801561048257600080fd5b5061048b61119e565b6040516104989190612304565b60405180910390f35b3480156104ad57600080fd5b506104b66111c4565b6040516104c3919061258b565b60405180910390f35b3480156104d857600080fd5b506104e16111ca565b6040516104ee91906122e9565b60405180910390f35b34801561050357600080fd5b5061050c6111f0565b60405161051991906122e9565b60405180910390f35b34801561052e57600080fd5b50610537611216565b604051610544919061258b565b60405180910390f35b34801561055957600080fd5b50610574600480360381019061056f9190611cbf565b611241565b005b34801561058257600080fd5b5061059d60048036038101906105989190611c31565b611776565b005b3480156105ab57600080fd5b506105b461191f565b6040516105c1919061258b565b60405180910390f35b3480156105d657600080fd5b506105f160048036038101906105ec9190611cbf565b611925565b005b610e1060a861060291906127ee565b81565b6000806000600b8481548110610644577f4e487b7100000000000000000000000000000000000000000000000000000000600052603260045260246000fd5b906000526020600020906004020190506000841480610667575060008160030154145b15610679576000809250925050610786565b6000600460009054906101000a900473ffffffffffffffffffffffffffffffffffffffff1673ffffffffffffffffffffffffffffffffffffffff1663313ce5676040518163ffffffff1660e01b815260040160206040518083038186803b1580156106e357600080fd5b505afa1580156106f7573d6000803e3d6000fd5b505050506040513d601f19601f8201168201806040525081019061071b9190611d11565b60ff16905060008260030154600c5461073491906127ee565b836002015460055461074691906127ee565b610750919061264c565b9050600082600a61076191906126d0565b6006548361076f91906127ee565b610779919061264c565b9050818195509550505050505b915091565b610e10600c61079a91906127ee565b81565b600a60009054906101000a900460ff1681565b60096020528060005260406000206000915090508060000160009054906101000a900460ff16908060010154908060020160009054906101000a900460ff16905083565b6107fc611bc0565b73ffffffffffffffffffffffffffffffffffffffff1661081a610bf6565b73ffffffffffffffffffffffffffffffffffffffff1614610870576040517f08c379a0000000000000000000000000000000000000000000000000000000008152600401610867906124cb565b60405180910390fd5b600073ffffffffffffffffffffffffffffffffffffffff1660008054906101000a900473ffffffffffffffffffffffffffffffffffffffff1673ffffffffffffffffffffffffffffffffffffffff167f8be0079c531659141344cd1fd0a4f28419497f9722a3daafe3b4186f6b6457e060405160405180910390a360008060006101000a81548173ffffffffffffffffffffffffffffffffffffffff021916908373ffffffffffffffffffffffffffffffffffffffff160217905550565b610936611bc0565b73ffffffffffffffffffffffffffffffffffffffff16610954610bf6565b73ffffffffffffffffffffffffffffffffffffffff16146109aa576040517f08c379a00000000000000000000000000000000000000000000000000000000081526004016109a1906124cb565b60405180910390fd5b60008173ffffffffffffffffffffffffffffffffffffffff16476040516109d09061223e565b60006040518083038185875af1925050503d8060008114610a0d576040519150601f19603f3d011682016040523d82523d6000602084013e610a12565b606091505b5050905080610a56576040517f08c379a0000000000000000000000000000000000000000000000000000000008152600401610a4d9061246b565b60405180910390fd5b5050565b610a62611bc0565b73ffffffffffffffffffffffffffffffffffffffff16610a80610bf6565b73ffffffffffffffffffffffffffffffffffffffff1614610ad6576040517f08c379a0000000000000000000000000000000000000000000000000000000008152600401610acd906124cb565b60405180910390fd5b60008290508073ffffffffffffffffffffffffffffffffffffffff1663a9059cbb838373ffffffffffffffffffffffffffffffffffffffff166370a08231306040518263ffffffff1660e01b8152600401610b319190612253565b60206040518083038186803b158015610b4957600080fd5b505afa158015610b5d573d6000803e3d6000fd5b505050506040513d601f19601f82011682018060405250810190610b819190611ce8565b6040518363ffffffff1660e01b8152600401610b9e92919061226e565b602060405180830381600087803b158015610bb857600080fd5b505af1158015610bcc573d6000803e3d6000fd5b505050506040513d601f19601f82011682018060405250810190610bf09190611c96565b50505050565b60008060009054906101000a900473ffffffffffffffffffffffffffffffffffffffff16905090565b610e1081565b600c5481565b6000429050600a60009054906101000a900460ff16610c7f576040517f08c379a0000000000000000000000000000000000000000000000000000000008152600401610c769061256b565b60405180910390fd5b600960003373ffffffffffffffffffffffffffffffffffffffff1673ffffffffffffffffffffffffffffffffffffffff16815260200190815260200160002060000160009054906101000a900460ff16610d0e576040517f08c379a0000000000000000000000000000000000000000000000000000000008152600401610d059061238b565b60405180910390fd5b600960003373ffffffffffffffffffffffffffffffffffffffff1673ffffffffffffffffffffffffffffffffffffffff16815260200190815260200160002060020160009054906101000a900460ff1615610d9e576040517f08c379a0000000000000000000000000000000000000000000000000000000008152600401610d959061242b565b60405180910390fd5b8060085411158015610dcb5750610e10600c610dba91906127ee565b600854610dc791906125f6565b8111155b610e0a576040517f08c379a0000000000000000000000000000000000000000000000000000000008152600401610e019061252b565b60405180910390fd5b60026001541415610e50576040517f08c379a0000000000000000000000000000000000000000000000000000000008152600401610e479061254b565b60405180910390fd5b60026001819055506000600960003373ffffffffffffffffffffffffffffffffffffffff1673ffffffffffffffffffffffffffffffffffffffff1681526020019081526020016000209050600080610eab8360010154610605565b9150915060008114158015610ec1575060008214155b610f00576040517f08c379a0000000000000000000000000000000000000000000000000000000008152600401610ef7906124eb565b60405180910390fd5b348114610f42576040517f08c379a0000000000000000000000000000000000000000000000000000000008152600401610f399061236b565b60405180910390fd5b60018360020160006101000a81548160ff021916908315150217905550600460009054906101000a900473ffffffffffffffffffffffffffffffffffffffff1673ffffffffffffffffffffffffffffffffffffffff1663a9059cbb33846040518363ffffffff1660e01b8152600401610fbc92919061226e565b602060405180830381600087803b158015610fd657600080fd5b505af1158015610fea573d6000803e3d6000fd5b505050506040513d601f19601f8201168201806040525081019061100e9190611c96565b503373ffffffffffffffffffffffffffffffffffffffff167f12cb4648cf3058b17ceeb33e579f8b0bc269fe0843f3900b8e24b6c54871703c83836040516110579291906125a6565b60405180910390a25050506001808190555050565b6000600960008373ffffffffffffffffffffffffffffffffffffffff1673ffffffffffffffffffffffffffffffffffffffff168152602001908152602001600020600101549050919050565b60075481565b610e1060306110cd91906127ee565b81565b600b81815481106110e057600080fd5b906000526020600020906004020160009150905080600001805461110390612918565b80601f016020809104026020016040519081016040528092919081815260200182805461112f90612918565b801561117c5780601f106111515761010080835404028352916020019161117c565b820191906000526020600020905b81548152906001019060200180831161115f57829003601f168201915b5050505050908060010154908060020154908060030154905084565b60055481565b600260009054906101000a900473ffffffffffffffffffffffffffffffffffffffff1681565b60065481565b600460009054906101000a900473ffffffffffffffffffffffffffffffffffffffff1681565b600360009054906101000a900473ffffffffffffffffffffffffffffffffffffffff1681565b610e10601861122591906127ee565b610e10603061123491906127ee565b61123e91906125f6565b81565b6000429050600a60009054906101000a900460ff16611295576040517f08c379a000000000000000000000000000000000000000000000000000000000815260040161128c9061256b565b60405180910390fd5b600960003373ffffffffffffffffffffffffffffffffffffffff1673ffffffffffffffffffffffffffffffffffffffff16815260200190815260200160002060000160009054906101000a900460ff1615611325576040517f08c379a000000000000000000000000000000000000000000000000000000000815260040161131c906123cb565b60405180910390fd5b80600754111580156113525750610e10603061134191906127ee565b60075461134e91906125f6565b8111155b611391576040517f08c379a00000000000000000000000000000000000000000000000000000000081526004016113889061250b565b60405180910390fd5b81806001111580156113a4575060058111155b6113e3576040517f08c379a00000000000000000000000000000000000000000000000000000000081526004016113da906123eb565b60405180910390fd5b6000600260009054906101000a900473ffffffffffffffffffffffffffffffffffffffff1673ffffffffffffffffffffffffffffffffffffffff166360217267336040518263ffffffff1660e01b81526004016114409190612253565b60206040518083038186803b15801561145857600080fd5b505afa15801561146c573d6000803e3d6000fd5b505050506040513d601f19601f820116820180604052508101906114909190611ce8565b905080600b83815481106114cd577f4e487b7100000000000000000000000000000000000000000000000000000000600052603260045260246000fd5b9060005260206000209060040201600101541115611520576040517f08c379a00000000000000000000000000000000000000000000000000000000081526004016115179061244b565b60405180910390fd5b60026001541415611566576040517f08c379a000000000000000000000000000000000000000000000000000000000815260040161155d9061254b565b60405180910390fd5b60026001819055506001600960003373ffffffffffffffffffffffffffffffffffffffff1673ffffffffffffffffffffffffffffffffffffffff16815260200190815260200160002060000160006101000a81548160ff02191690831515021790555083600960003373ffffffffffffffffffffffffffffffffffffffff1673ffffffffffffffffffffffffffffffffffffffff168152602001908152602001600020600101819055506001600b858154811061164c577f4e487b7100000000000000000000000000000000000000000000000000000000600052603260045260246000fd5b9060005260206000209060040201600301600082825461166c91906125f6565b92505081905550600260009054906101000a900473ffffffffffffffffffffffffffffffffffffffff1673ffffffffffffffffffffffffffffffffffffffff1663282d3fdf33610e1060a86116c191906127ee565b426116cc91906125f6565b6040518363ffffffff1660e01b81526004016116e992919061226e565b600060405180830381600087803b15801561170357600080fd5b505af1158015611717573d6000803e3d6000fd5b505050503373ffffffffffffffffffffffffffffffffffffffff167ff6c60b059f60c86b2d612b237ac38bd87bc1f68f87600cd360d68351af1ca95f85604051611761919061258b565b60405180910390a26001808190555050505050565b61177e611bc0565b73ffffffffffffffffffffffffffffffffffffffff1661179c610bf6565b73ffffffffffffffffffffffffffffffffffffffff16146117f2576040517f08c379a00000000000000000000000000000000000000000000000000000000081526004016117e9906124cb565b60405180910390fd5b600073ffffffffffffffffffffffffffffffffffffffff168173ffffffffffffffffffffffffffffffffffffffff161415611862576040517f08c379a0000000000000000000000000000000000000000000000000000000008152600401611859906123ab565b60405180910390fd5b8073ffffffffffffffffffffffffffffffffffffffff1660008054906101000a900473ffffffffffffffffffffffffffffffffffffffff1673ffffffffffffffffffffffffffffffffffffffff167f8be0079c531659141344cd1fd0a4f28419497f9722a3daafe3b4186f6b6457e060405160405180910390a3806000806101000a81548173ffffffffffffffffffffffffffffffffffffffff021916908373ffffffffffffffffffffffffffffffffffffffff16021790555050565b60085481565b61192d611bc0565b73ffffffffffffffffffffffffffffffffffffffff1661194b610bf6565b73ffffffffffffffffffffffffffffffffffffffff16146119a1576040517f08c379a0000000000000000000000000000000000000000000000000000000008152600401611998906124cb565b60405180910390fd5b600a60009054906101000a900460ff16156119f1576040517f08c379a00000000000000000000000000000000000000000000000000000000081526004016119e89061240b565b60405180910390fd5b42811015611a34576040517f08c379a0000000000000000000000000000000000000000000000000000000008152600401611a2b9061248b565b60405180910390fd5b80600781905550610e106018611a4a91906127ee565b610e106030611a5991906127ee565b611a6391906125f6565b600754611a7091906125f6565b600881905550600554600460009054906101000a900473ffffffffffffffffffffffffffffffffffffffff1673ffffffffffffffffffffffffffffffffffffffff166370a08231306040518263ffffffff1660e01b8152600401611ad49190612253565b60206040518083038186803b158015611aec57600080fd5b505afa158015611b00573d6000803e3d6000fd5b505050506040513d601f19601f82011682018060405250810190611b249190611ce8565b1015611b65576040517f08c379a0000000000000000000000000000000000000000000000000000000008152600401611b5c906124ab565b60405180910390fd5b7f537db03a5cf0f67e64e2a7515e45c28a71d041067e165fc95ee2ecde36e6532d600754600854604051611b9a9291906125a6565b60405180910390a16001600a60006101000a81548160ff02191690831515021790555050565b600033905090565b600081359050611bd7816129f5565b92915050565b600081519050611bec81612a0c565b92915050565b600081359050611c0181612a23565b92915050565b600081519050611c1681612a23565b92915050565b600081519050611c2b81612a3a565b92915050565b600060208284031215611c4357600080fd5b6000611c5184828501611bc8565b91505092915050565b60008060408385031215611c6d57600080fd5b6000611c7b85828601611bc8565b9250506020611c8c85828601611bc8565b9150509250929050565b600060208284031215611ca857600080fd5b6000611cb684828501611bdd565b91505092915050565b600060208284031215611cd157600080fd5b6000611cdf84828501611bf2565b91505092915050565b600060208284031215611cfa57600080fd5b6000611d0884828501611c07565b91505092915050565b600060208284031215611d2357600080fd5b6000611d3184828501611c1c565b91505092915050565b611d4381612848565b82525050565b611d528161285a565b82525050565b611d618161289d565b82525050565b611d70816128c1565b82525050565b6000611d81826125cf565b611d8b81856125e5565b9350611d9b8185602086016128e5565b611da4816129d7565b840191505092915050565b6000611dbc6014836125e5565b91507f4e6f742056616c69642045746820416d6f756e740000000000000000000000006000830152602082019050919050565b6000611dfc600e836125e5565b91507f4e6f7420726567697374657265640000000000000000000000000000000000006000830152602082019050919050565b6000611e3c6026836125e5565b91507f4f776e61626c653a206e6577206f776e657220697320746865207a65726f206160008301527f64647265737300000000000000000000000000000000000000000000000000006020830152604082019050919050565b6000611ea26012836125e5565b91507f416c7265616479207265676973746572656400000000000000000000000000006000830152602082019050919050565b6000611ee2600f836125e5565b91507f696e76616c696420506f6f6c206e6f00000000000000000000000000000000006000830152602082019050919050565b6000611f226013836125e5565b91507f416c726561647920496e697469616c697a6564000000000000000000000000006000830152602082019050919050565b6000611f626011836125e5565b91507f416c7265616479205075726368617365640000000000000000000000000000006000830152602082019050919050565b6000611fa2601d836125e5565b91507f43616e277420506172746963697061746520696e2074686520506f6f6c0000006000830152602082019050919050565b6000611fe26015836125e5565b91507f556e61626c6520546f205265636f7665722045746800000000000000000000006000830152602082019050919050565b60006120226014836125e5565b91507f49444f2043616e277420426520696e20506173740000000000000000000000006000830152602082019050919050565b6000612062601d836125e5565b91507f4e6f7420456e6f75676820546f6b656e7320496e20436f6e74726163740000006000830152602082019050919050565b60006120a26020836125e5565b91507f4f776e61626c653a2063616c6c6572206973206e6f7420746865206f776e65726000830152602082019050919050565b60006120e26014836125e5565b91507f56616c7565732043616e2774204265205a65726f0000000000000000000000006000830152602082019050919050565b6000612122601a836125e5565b91507f4e6f7420696e20526567697374726174696f6e20506572696f640000000000006000830152602082019050919050565b60006121626000836125da565b9150600082019050919050565b600061217c6012836125e5565b91507f4e6f7420696e2053616c6520506572696f6400000000000000000000000000006000830152602082019050919050565b60006121bc601f836125e5565b91507f5265656e7472616e637947756172643a207265656e7472616e742063616c6c006000830152602082019050919050565b60006121fc6013836125e5565b91507f4e6f7420496e697469616c697a656420596574000000000000000000000000006000830152602082019050919050565b61223881612886565b82525050565b600061224982612155565b9150819050919050565b60006020820190506122686000830184611d3a565b92915050565b60006040820190506122836000830185611d3a565b612290602083018461222f565b9392505050565b60006020820190506122ac6000830184611d49565b92915050565b60006060820190506122c76000830186611d49565b6122d4602083018561222f565b6122e16040830184611d49565b949350505050565b60006020820190506122fe6000830184611d58565b92915050565b60006020820190506123196000830184611d67565b92915050565b600060808201905081810360008301526123398187611d76565b9050612348602083018661222f565b612355604083018561222f565b612362606083018461222f565b95945050505050565b6000602082019050818103600083015261238481611daf565b9050919050565b600060208201905081810360008301526123a481611def565b9050919050565b600060208201905081810360008301526123c481611e2f565b9050919050565b600060208201905081810360008301526123e481611e95565b9050919050565b6000602082019050818103600083015261240481611ed5565b9050919050565b6000602082019050818103600083015261242481611f15565b9050919050565b6000602082019050818103600083015261244481611f55565b9050919050565b6000602082019050818103600083015261246481611f95565b9050919050565b6000602082019050818103600083015261248481611fd5565b9050919050565b600060208201905081810360008301526124a481612015565b9050919050565b600060208201905081810360008301526124c481612055565b9050919050565b600060208201905081810360008301526124e481612095565b9050919050565b60006020820190508181036000830152612504816120d5565b9050919050565b6000602082019050818103600083015261252481612115565b9050919050565b600060208201905081810360008301526125448161216f565b9050919050565b60006020820190508181036000830152612564816121af565b9050919050565b60006020820190508181036000830152612584816121ef565b9050919050565b60006020820190506125a0600083018461222f565b92915050565b60006040820190506125bb600083018561222f565b6125c8602083018461222f565b9392505050565b600081519050919050565b600081905092915050565b600082825260208201905092915050565b600061260182612886565b915061260c83612886565b9250827fffffffffffffffffffffffffffffffffffffffffffffffffffffffffffffffff038211156126415761264061294a565b5b828201905092915050565b600061265782612886565b915061266283612886565b92508261267257612671612979565b5b828204905092915050565b6000808291508390505b60018511156126c7578086048111156126a3576126a261294a565b5b60018516156126b25780820291505b80810290506126c0856129e8565b9450612687565b94509492505050565b60006126db82612886565b91506126e683612886565b92506127137fffffffffffffffffffffffffffffffffffffffffffffffffffffffffffffffff848461271b565b905092915050565b60008261272b57600190506127e7565b8161273957600090506127e7565b816001811461274f576002811461275957612788565b60019150506127e7565b60ff84111561276b5761276a61294a565b5b8360020a9150848211156127825761278161294a565b5b506127e7565b5060208310610133831016604e8410600b84101617156127bd5782820a9050838111156127b8576127b761294a565b5b6127e7565b6127ca848484600161267d565b925090508184048111156127e1576127e061294a565b5b81810290505b9392505050565b60006127f982612886565b915061280483612886565b9250817fffffffffffffffffffffffffffffffffffffffffffffffffffffffffffffffff048311821515161561283d5761283c61294a565b5b828202905092915050565b600061285382612866565b9050919050565b60008115159050919050565b600073ffffffffffffffffffffffffffffffffffffffff82169050919050565b6000819050919050565b600060ff82169050919050565b60006128a8826128af565b9050919050565b60006128ba82612866565b9050919050565b60006128cc826128d3565b9050919050565b60006128de82612866565b9050919050565b60005b838110156129035780820151818401526020810190506128e8565b83811115612912576000848401525b50505050565b6000600282049050600182168061293057607f821691505b60208210811415612944576129436129a8565b5b50919050565b7f4e487b7100000000000000000000000000000000000000000000000000000000600052601160045260246000fd5b7f4e487b7100000000000000000000000000000000000000000000000000000000600052601260045260246000fd5b7f4e487b7100000000000000000000000000000000000000000000000000000000600052602260045260246000fd5b6000601f19601f8301169050919050565b60008160011c9050919050565b6129fe81612848565b8114612a0957600080fd5b50565b612a158161285a565b8114612a2057600080fd5b50565b612a2c81612886565b8114612a3757600080fd5b50565b612a4381612890565b8114612a4e57600080fd5b5056fea2646970667358221220941cc46eba8d18138fae8c1881b7c3fedb8b9cee1d2eaa47a2c163caf21d235564736f6c63430008000033",
  "immutableReferences": {},
  "source": "// SPDX-License-Identifier: MIT\r\npragma solidity ^0.8.0;\r\n\r\nimport './../interfaces/IStaker.sol';\r\nimport \"@openzeppelin/contracts/token/ERC20/extensions/IERC20Metadata.sol\";\r\nimport \"@openzeppelin/contracts/access/Ownable.sol\";\r\nimport \"@openzeppelin/contracts/utils/Context.sol\";\r\nimport \"@openzeppelin/contracts/security/ReentrancyGuard.sol\";\r\n\r\ncontract IDO is Ownable, ReentrancyGuard {\r\n\r\n    IStaker public iStaker;\r\n    IERC20Metadata public nativeToken; // The token staked\r\n    IERC20Metadata public idoToken; // The token sale in iDO\r\n    uint256 public idoAmount; // Amount of Tokens to be Sold\r\n    uint256 public idoPrice; // Price of 1 Tokens in Wei\r\n\r\n    // Time Stamps\r\n    uint256 public constant unit = 1 hours; // use seconds for testing\r\n    uint256 public constant lockDuration = 7 * 24 * unit;\r\n    uint256 public constant regDuration = 48 * unit;\r\n    uint256 public constant saleStartsAfter = regDuration + 24 * unit;\r\n    uint256 public constant saleDuration = 12 * unit;\r\n    uint256 public regStarts;\r\n    uint256 public saleStarts;\r\n\r\n    event Initialization(uint256 regStart, uint256 saleStart);\r\n    event Registration(address indexed account, uint256 poolNo);\r\n    event Purchase(address indexed, uint256 tokens, uint256 price);\r\n\r\n    struct UserLog {\r\n        bool isRegistered;\r\n        uint256 registeredPool;\r\n        bool purchased;\r\n    }\r\n    mapping(address => UserLog) public userlog;\r\n\r\n    bool public isInitialized;\r\n\r\n    struct PoolInfo {\r\n        string name;\r\n        uint256 minNativeToken; // min token required to particitate in the pool\r\n        uint256 weight;\r\n        uint256 participants;\r\n    } \r\n    PoolInfo[] public pools;\r\n    uint256 public totalWeight;\r\n\r\n    modifier verifyPool(uint256 _poolNo) {\r\n        require(1 <= _poolNo && _poolNo <= 5, \"invalid Pool no\");\r\n\r\n        uint256 stakedAmount = iStaker.stakedBalance(msg.sender);\r\n        require(pools[_poolNo].minNativeToken <= stakedAmount, \"Can't Participate in the Pool\");\r\n\r\n        _;\r\n    }\r\n\r\n    modifier validRegistration() {\r\n        uint256 t = block.timestamp;\r\n\r\n        require(isInitialized, \"Not Initialized Yet\");\r\n        require(!userlog[msg.sender].isRegistered, \"Already registered\");\r\n        require(regStarts <= t && t <= regStarts + regDuration, \"Not in Registration Period\");\r\n        _;\r\n    }\r\n\r\n    modifier validSale() {\r\n        uint256 t = block.timestamp;\r\n\r\n        require(isInitialized, \"Not Initialized Yet\");\r\n        require(userlog[msg.sender].isRegistered, \"Not registered\");\r\n        require(!userlog[msg.sender].purchased, \"Already Purchased\");\r\n        require(saleStarts <= t && t <= saleStarts + saleDuration, \"Not in Sale Period\");\r\n        _;\r\n    }\r\n\r\n    modifier notInitialized() {\r\n        require(!isInitialized, \"Already Initialized\");\r\n        _;\r\n        isInitialized = true;\r\n    }\r\n\r\n    constructor (\r\n        address _stakerAddress,\r\n        address _nativeTokenAddress,\r\n        address _idoTokenAddress,\r\n        uint256 _idoAmount,\r\n        uint256 _price\r\n    ) {\r\n        \r\n        iStaker = IStaker(_stakerAddress);\r\n        nativeToken = IERC20Metadata(_nativeTokenAddress);\r\n        idoToken = IERC20Metadata(_idoTokenAddress);\r\n        idoAmount = _idoAmount;\r\n        idoPrice = _price;\r\n\r\n        uint256 dec = uint256(nativeToken.decimals());\r\n        pools.push(PoolInfo(\"Null\", 0, 0, 0));\r\n        pools.push(PoolInfo(\"Knight\", 100 * 10**dec, 2, 0));\r\n        pools.push(PoolInfo(\"Bishop\", 500 * 10**dec, 3, 0));\r\n        pools.push(PoolInfo(\"Rook\", 1000 * 10**dec, 4, 0));\r\n        pools.push(PoolInfo(\"King\", 2000 * 10**dec, 5, 0));\r\n        pools.push(PoolInfo(\"Queen\", 4000 * 10**dec, 6, 0));\r\n        totalWeight = 20;\r\n\r\n    }\r\n\r\n    function initialize(uint256 time) external onlyOwner notInitialized {\r\n        require(time >= block.timestamp, \"IDO Can't Be in Past\");\r\n        regStarts = time;\r\n        saleStarts = regStarts + saleStartsAfter;\r\n        require(idoToken.balanceOf(address(this)) >= idoAmount, \"Not Enough Tokens In Contract\");\r\n\r\n        emit Initialization(regStarts, saleStarts);\r\n    }\r\n\r\n    function register(uint256 _poolNo) \r\n    external \r\n    validRegistration \r\n    verifyPool(_poolNo)\r\n    nonReentrant {\r\n        userlog[msg.sender].isRegistered = true;\r\n        userlog[msg.sender].registeredPool = _poolNo;\r\n        pools[_poolNo].participants += 1;\r\n\r\n        iStaker.lock(msg.sender, block.timestamp + lockDuration);\r\n\r\n        emit Registration(msg.sender, _poolNo);\r\n    }\r\n\r\n    function getPoolNo(address account) external view returns(uint256) {\r\n        return userlog[account].registeredPool;\r\n    }\r\n\r\n    function tokensAndPrice(uint256 _poolNo) public view returns(uint256, uint256) {\r\n\r\n        PoolInfo storage pool = pools[_poolNo];\r\n\r\n        if(_poolNo == 0 || pool.participants == 0) {\r\n            return (0, 0);\r\n        }\r\n        uint256 dec = uint256(idoToken.decimals());\r\n        uint256 tokenAmount = (idoAmount * pool.weight) / (totalWeight * pool.participants); // Token Amount per Participants\r\n        uint256 price = (tokenAmount * idoPrice) / (10 ** dec);\r\n\r\n        return (tokenAmount, price);\r\n    }\r\n\r\n    function buyNow() external \r\n    payable \r\n    validSale\r\n    nonReentrant {\r\n        UserLog storage usr = userlog[msg.sender];\r\n        (uint256 amount, uint256 price) = tokensAndPrice(usr.registeredPool);\r\n        require(price != 0 && amount != 0, \"Values Can't Be Zero\");\r\n        require(price == msg.value, \"Not Valid Eth Amount\");\r\n\r\n        usr.purchased = true;\r\n        idoToken.transfer(msg.sender, amount);\r\n\r\n        emit Purchase(msg.sender, amount, price);\r\n    }\r\n\r\n    function recoverEth(address to) external onlyOwner {\r\n        (bool sent,) = address(to).call{value : address(this).balance}(\"\");\r\n        require(sent, 'Unable To Recover Eth');\r\n    }\r\n\r\n    function recoverERC20(\r\n        address tokenAddress, \r\n        address to\r\n    ) external onlyOwner {\r\n        IERC20Metadata tok = IERC20Metadata(tokenAddress);\r\n        tok.transfer(to, tok.balanceOf(address(this)));\r\n    }\r\n\r\n}",
  "sourcePath": "C:/Users/sudip/Desktop/Real Projects/PolyStarter/contracts/IDOStaker/IDO.sol",
  "compiler": {
    "name": "solc",
    "version": "0.8.0+commit.c7dfd78e.Emscripten.clang"
  },
  "schemaVersion": "3.3.4",
  "updatedAt": "2021-06-03T14:36:28.691Z",
  "devdoc": {
    "kind": "dev",
    "methods": {
      "owner()": {
        "details": "Returns the address of the current owner."
      },
      "renounceOwnership()": {
        "details": "Leaves the contract without owner. It will not be possible to call `onlyOwner` functions anymore. Can only be called by the current owner. NOTE: Renouncing ownership will leave the contract without an owner, thereby removing any functionality that is only available to the owner."
      },
      "transferOwnership(address)": {
        "details": "Transfers ownership of the contract to a new account (`newOwner`). Can only be called by the current owner."
      }
    },
    "version": 1
  },
  "userdoc": {
    "kind": "user",
    "methods": {},
    "version": 1
  }
}