{
  "contractName": "IDO",
  "abi": [
    {
      "inputs": [
        {
          "internalType": "address",
          "name": "_stakerAddress",
          "type": "address"
        },
        {
          "internalType": "address",
          "name": "_nativeTokenAddress",
          "type": "address"
        },
        {
          "internalType": "address",
          "name": "_idoTokenAddress",
          "type": "address"
        },
        {
          "internalType": "uint256",
          "name": "_idoTokenSum",
          "type": "uint256"
        },
        {
          "internalType": "uint256",
          "name": "_price",
          "type": "uint256"
        }
      ],
      "stateMutability": "nonpayable",
      "type": "constructor"
    },
    {
      "anonymous": false,
      "inputs": [
        {
          "indexed": false,
          "internalType": "uint256",
          "name": "regStart",
          "type": "uint256"
        },
        {
          "indexed": false,
          "internalType": "uint256",
          "name": "saleStart",
          "type": "uint256"
        }
      ],
      "name": "Initialization",
      "type": "event"
    },
    {
      "anonymous": false,
      "inputs": [
        {
          "indexed": true,
          "internalType": "address",
          "name": "previousOwner",
          "type": "address"
        },
        {
          "indexed": true,
          "internalType": "address",
          "name": "newOwner",
          "type": "address"
        }
      ],
      "name": "OwnershipTransferred",
      "type": "event"
    },
    {
      "anonymous": false,
      "inputs": [
        {
          "indexed": true,
          "internalType": "address",
          "name": "",
          "type": "address"
        },
        {
          "indexed": false,
          "internalType": "uint256",
          "name": "tokens",
          "type": "uint256"
        },
        {
          "indexed": false,
          "internalType": "uint256",
          "name": "price",
          "type": "uint256"
        }
      ],
      "name": "Purchase",
      "type": "event"
    },
    {
      "anonymous": false,
      "inputs": [
        {
          "indexed": true,
          "internalType": "address",
          "name": "account",
          "type": "address"
        },
        {
          "indexed": false,
          "internalType": "uint256",
          "name": "poolNo",
          "type": "uint256"
        }
      ],
      "name": "Registration",
      "type": "event"
    },
    {
      "inputs": [],
      "name": "iStaker",
      "outputs": [
        {
          "internalType": "contract IStaker",
          "name": "",
          "type": "address"
        }
      ],
      "stateMutability": "view",
      "type": "function"
    },
    {
      "inputs": [],
      "name": "idoToken",
      "outputs": [
        {
          "internalType": "contract IERC20Metadata",
          "name": "",
          "type": "address"
        }
      ],
      "stateMutability": "view",
      "type": "function"
    },
    {
      "inputs": [],
      "name": "idoTokenSum",
      "outputs": [
        {
          "internalType": "uint256",
          "name": "",
          "type": "uint256"
        }
      ],
      "stateMutability": "view",
      "type": "function"
    },
    {
      "inputs": [],
      "name": "idoTotalPrice",
      "outputs": [
        {
          "internalType": "uint256",
          "name": "",
          "type": "uint256"
        }
      ],
      "stateMutability": "view",
      "type": "function"
    },
    {
      "inputs": [],
      "name": "isInitialized",
      "outputs": [
        {
          "internalType": "bool",
          "name": "",
          "type": "bool"
        }
      ],
      "stateMutability": "view",
      "type": "function"
    },
    {
      "inputs": [],
      "name": "lockDuration",
      "outputs": [
        {
          "internalType": "uint256",
          "name": "",
          "type": "uint256"
        }
      ],
      "stateMutability": "view",
      "type": "function"
    },
    {
      "inputs": [],
      "name": "nativeToken",
      "outputs": [
        {
          "internalType": "contract IERC20Metadata",
          "name": "",
          "type": "address"
        }
      ],
      "stateMutability": "view",
      "type": "function"
    },
    {
      "inputs": [],
      "name": "owner",
      "outputs": [
        {
          "internalType": "address",
          "name": "",
          "type": "address"
        }
      ],
      "stateMutability": "view",
      "type": "function"
    },
    {
      "inputs": [
        {
          "internalType": "uint256",
          "name": "",
          "type": "uint256"
        }
      ],
      "name": "pools",
      "outputs": [
        {
          "internalType": "string",
          "name": "name",
          "type": "string"
        },
        {
          "internalType": "uint256",
          "name": "minNativeToken",
          "type": "uint256"
        },
        {
          "internalType": "uint256",
          "name": "weight",
          "type": "uint256"
        },
        {
          "internalType": "uint256",
          "name": "participants",
          "type": "uint256"
        }
      ],
      "stateMutability": "view",
      "type": "function"
    },
    {
      "inputs": [],
      "name": "regDuration",
      "outputs": [
        {
          "internalType": "uint256",
          "name": "",
          "type": "uint256"
        }
      ],
      "stateMutability": "view",
      "type": "function"
    },
    {
      "inputs": [],
      "name": "regStarts",
      "outputs": [
        {
          "internalType": "uint256",
          "name": "",
          "type": "uint256"
        }
      ],
      "stateMutability": "view",
      "type": "function"
    },
    {
      "inputs": [],
      "name": "remainingIDOTokens",
      "outputs": [
        {
          "internalType": "uint256",
          "name": "",
          "type": "uint256"
        }
      ],
      "stateMutability": "view",
      "type": "function"
    },
    {
      "inputs": [],
      "name": "renounceOwnership",
      "outputs": [],
      "stateMutability": "nonpayable",
      "type": "function"
    },
    {
      "inputs": [],
      "name": "saleDuration",
      "outputs": [
        {
          "internalType": "uint256",
          "name": "",
          "type": "uint256"
        }
      ],
      "stateMutability": "view",
      "type": "function"
    },
    {
      "inputs": [],
      "name": "saleStarts",
      "outputs": [
        {
          "internalType": "uint256",
          "name": "",
          "type": "uint256"
        }
      ],
      "stateMutability": "view",
      "type": "function"
    },
    {
      "inputs": [],
      "name": "saleStartsAfter",
      "outputs": [
        {
          "internalType": "uint256",
          "name": "",
          "type": "uint256"
        }
      ],
      "stateMutability": "view",
      "type": "function"
    },
    {
      "inputs": [],
      "name": "totalWeight",
      "outputs": [
        {
          "internalType": "uint256",
          "name": "",
          "type": "uint256"
        }
      ],
      "stateMutability": "view",
      "type": "function"
    },
    {
      "inputs": [
        {
          "internalType": "address",
          "name": "newOwner",
          "type": "address"
        }
      ],
      "name": "transferOwnership",
      "outputs": [],
      "stateMutability": "nonpayable",
      "type": "function"
    },
    {
      "inputs": [],
      "name": "unit",
      "outputs": [
        {
          "internalType": "uint256",
          "name": "",
          "type": "uint256"
        }
      ],
      "stateMutability": "view",
      "type": "function"
    },
    {
      "inputs": [
        {
          "internalType": "address",
          "name": "",
          "type": "address"
        }
      ],
      "name": "userlog",
      "outputs": [
        {
          "internalType": "bool",
          "name": "isRegistered",
          "type": "bool"
        },
        {
          "internalType": "uint256",
          "name": "registeredPool",
          "type": "uint256"
        },
        {
          "internalType": "bool",
          "name": "purchased",
          "type": "bool"
        }
      ],
      "stateMutability": "view",
      "type": "function"
    },
    {
      "inputs": [
        {
          "internalType": "uint256",
          "name": "time",
          "type": "uint256"
        }
      ],
      "name": "initialize",
      "outputs": [],
      "stateMutability": "nonpayable",
      "type": "function"
    },
    {
      "inputs": [
        {
          "internalType": "uint256",
          "name": "_poolNo",
          "type": "uint256"
        }
      ],
      "name": "register",
      "outputs": [],
      "stateMutability": "nonpayable",
      "type": "function"
    },
    {
      "inputs": [
        {
          "internalType": "address",
          "name": "account",
          "type": "address"
        }
      ],
      "name": "getPoolNo",
      "outputs": [
        {
          "internalType": "uint256",
          "name": "",
          "type": "uint256"
        }
      ],
      "stateMutability": "view",
      "type": "function"
    },
    {
      "inputs": [
        {
          "internalType": "address",
          "name": "account",
          "type": "address"
        }
      ],
      "name": "getRegistrationStatus",
      "outputs": [
        {
          "internalType": "bool",
          "name": "",
          "type": "bool"
        }
      ],
      "stateMutability": "view",
      "type": "function"
    },
    {
      "inputs": [
        {
          "internalType": "uint256",
          "name": "_poolNo",
          "type": "uint256"
        }
      ],
      "name": "tokensAndPriceByPoolNo",
      "outputs": [
        {
          "internalType": "uint256",
          "name": "",
          "type": "uint256"
        },
        {
          "internalType": "uint256",
          "name": "",
          "type": "uint256"
        }
      ],
      "stateMutability": "view",
      "type": "function"
    },
    {
      "inputs": [],
      "name": "buyNow",
      "outputs": [],
      "stateMutability": "payable",
      "type": "function"
    },
    {
      "inputs": [
        {
          "internalType": "address",
          "name": "to",
          "type": "address"
        }
      ],
      "name": "recoverEth",
      "outputs": [],
      "stateMutability": "nonpayable",
      "type": "function"
    },
    {
      "inputs": [
        {
          "internalType": "address",
          "name": "tokenAddress",
          "type": "address"
        },
        {
          "internalType": "address",
          "name": "to",
          "type": "address"
        }
      ],
      "name": "recoverERC20",
      "outputs": [],
      "stateMutability": "nonpayable",
      "type": "function"
    }
  ],
  "bytecode": "0x60806040523480156200001157600080fd5b50604051620035f2380380620035f28339818101604052810190620000379190620008a1565b600062000049620007a460201b60201c565b9050806000806101000a81548173ffffffffffffffffffffffffffffffffffffffff021916908373ffffffffffffffffffffffffffffffffffffffff1602179055508073ffffffffffffffffffffffffffffffffffffffff16600073ffffffffffffffffffffffffffffffffffffffff167f8be0079c531659141344cd1fd0a4f28419497f9722a3daafe3b4186f6b6457e060405160405180910390a3506001808190555084600260006101000a81548173ffffffffffffffffffffffffffffffffffffffff021916908373ffffffffffffffffffffffffffffffffffffffff16021790555083600360006101000a81548173ffffffffffffffffffffffffffffffffffffffff021916908373ffffffffffffffffffffffffffffffffffffffff16021790555082600460006101000a81548173ffffffffffffffffffffffffffffffffffffffff021916908373ffffffffffffffffffffffffffffffffffffffff16021790555081600581905550806006819055506005546007819055506000600360009054906101000a900473ffffffffffffffffffffffffffffffffffffffff1673ffffffffffffffffffffffffffffffffffffffff1663313ce5676040518163ffffffff1660e01b815260040160206040518083038186803b1580156200023357600080fd5b505afa15801562000248573d6000803e3d6000fd5b505050506040513d601f19601f820116820180604052508101906200026e919062000923565b60ff169050600c60405180608001604052806040518060400160405280600481526020017f4e756c6c000000000000000000000000000000000000000000000000000000008152508152602001600081526020016000815260200160008152509080600181540180825580915050600190039060005260206000209060040201600090919091909150600082015181600001908051906020019062000315929190620007ac565b506020820151816001015560408201518160020155606082015181600301555050600c60405180608001604052806040518060400160405280600681526020017f4b6e696768740000000000000000000000000000000000000000000000000000815250815260200183600a6200038d9190620009aa565b60646200039b919062000ae7565b815260200160028152602001600081525090806001815401808255809150506001900390600052602060002090600402016000909190919091506000820151816000019080519060200190620003f3929190620007ac565b506020820151816001015560408201518160020155606082015181600301555050600c60405180608001604052806040518060400160405280600681526020017f426973686f700000000000000000000000000000000000000000000000000000815250815260200183600a6200046b9190620009aa565b6101f46200047a919062000ae7565b815260200160038152602001600081525090806001815401808255809150506001900390600052602060002090600402016000909190919091506000820151816000019080519060200190620004d2929190620007ac565b506020820151816001015560408201518160020155606082015181600301555050600c60405180608001604052806040518060400160405280600481526020017f526f6f6b00000000000000000000000000000000000000000000000000000000815250815260200183600a6200054a9190620009aa565b6103e862000559919062000ae7565b815260200160048152602001600081525090806001815401808255809150506001900390600052602060002090600402016000909190919091506000820151816000019080519060200190620005b1929190620007ac565b506020820151816001015560408201518160020155606082015181600301555050600c60405180608001604052806040518060400160405280600481526020017f4b696e6700000000000000000000000000000000000000000000000000000000815250815260200183600a620006299190620009aa565b6107d062000638919062000ae7565b81526020016005815260200160008152509080600181540180825580915050600190039060005260206000209060040201600090919091909150600082015181600001908051906020019062000690929190620007ac565b506020820151816001015560408201518160020155606082015181600301555050600c60405180608001604052806040518060400160405280600581526020017f517565656e000000000000000000000000000000000000000000000000000000815250815260200183600a620007089190620009aa565b610fa062000717919062000ae7565b8152602001600681526020016000815250908060018154018082558091505060019003906000526020600020906004020160009091909190915060008201518160000190805190602001906200076f929190620007ac565b5060208201518160010155604082015181600201556060820151816003015550506014600d8190555050505050505062000c82565b600033905090565b828054620007ba9062000b93565b90600052602060002090601f016020900481019282620007de57600085556200082a565b82601f10620007f957805160ff19168380011785556200082a565b828001600101855582156200082a579182015b82811115620008295782518255916020019190600101906200080c565b5b5090506200083991906200083d565b5090565b5b80821115620008585760008160009055506001016200083e565b5090565b6000815190506200086d8162000c34565b92915050565b600081519050620008848162000c4e565b92915050565b6000815190506200089b8162000c68565b92915050565b600080600080600060a08688031215620008ba57600080fd5b6000620008ca888289016200085c565b9550506020620008dd888289016200085c565b9450506040620008f0888289016200085c565b9350506060620009038882890162000873565b9250506080620009168882890162000873565b9150509295509295909350565b6000602082840312156200093657600080fd5b600062000946848285016200088a565b91505092915050565b6000808291508390505b6001851115620009a15780860481111562000979576200097862000bc9565b5b6001851615620009895780820291505b8081029050620009998562000c27565b945062000959565b94509492505050565b6000620009b78262000b7c565b9150620009c48362000b7c565b9250620009f37fffffffffffffffffffffffffffffffffffffffffffffffffffffffffffffffff8484620009fb565b905092915050565b60008262000a0d576001905062000ae0565b8162000a1d576000905062000ae0565b816001811462000a36576002811462000a415762000a77565b600191505062000ae0565b60ff84111562000a565762000a5562000bc9565b5b8360020a91508482111562000a705762000a6f62000bc9565b5b5062000ae0565b5060208310610133831016604e8410600b841016171562000ab15782820a90508381111562000aab5762000aaa62000bc9565b5b62000ae0565b62000ac084848460016200094f565b9250905081840481111562000ada5762000ad962000bc9565b5b81810290505b9392505050565b600062000af48262000b7c565b915062000b018362000b7c565b9250817fffffffffffffffffffffffffffffffffffffffffffffffffffffffffffffffff048311821515161562000b3d5762000b3c62000bc9565b5b828202905092915050565b600062000b558262000b5c565b9050919050565b600073ffffffffffffffffffffffffffffffffffffffff82169050919050565b6000819050919050565b600060ff82169050919050565b6000600282049050600182168062000bac57607f821691505b6020821081141562000bc35762000bc262000bf8565b5b50919050565b7f4e487b7100000000000000000000000000000000000000000000000000000000600052601160045260246000fd5b7f4e487b7100000000000000000000000000000000000000000000000000000000600052602260045260246000fd5b60008160011c9050919050565b62000c3f8162000b48565b811462000c4b57600080fd5b50565b62000c598162000b7c565b811462000c6557600080fd5b50565b62000c738162000b86565b811462000c7f57600080fd5b50565b6129608062000c926000396000f3fe6080604052600436106101b75760003560e01c8063a158226d116100ec578063e1758bd81161008a578063f207564e11610064578063f207564e146105eb578063f2fde38b14610614578063f3f40af21461063d578063fe4b84df14610668576101b7565b8063e1758bd81461056a578063e76eda8614610595578063efad76da146105c0576101b7565b8063ac4afa38116100c6578063ac4afa38146104a9578063b6ba8114146104e9578063c4f34fab14610514578063d6cd82bc1461053f576101b7565b8063a158226d14610416578063a25dd13014610441578063a8af4ff51461046c576101b7565b8063886f039a11610159578063907af6c011610133578063907af6c01461037957806396c82e57146103a45780639c3962f0146103cf5780639e6e9d0f146103d9576101b7565b8063886f039a146102e75780638da5cb5b146103105780638f666ecf1461033b576101b7565b8063392e53cd11610195578063392e53cd1461023d57806345a28e0614610268578063715018a6146102a75780637504db3e146102be576101b7565b806304554443146101bc578063196f2532146101e75780633711d9fb14610212575b600080fd5b3480156101c857600080fd5b506101d1610691565b6040516101de91906125d2565b60405180910390f35b3480156101f357600080fd5b506101fc6106a3565b60405161020991906125d2565b60405180910390f35b34801561021e57600080fd5b506102276106a9565b60405161023491906125d2565b60405180910390f35b34801561024957600080fd5b506102526106bb565b60405161025f91906122de565b60405180910390f35b34801561027457600080fd5b5061028f600480360381019061028a9190611ca1565b6106ce565b60405161029e939291906122f9565b60405180910390f35b3480156102b357600080fd5b506102bc610712565b005b3480156102ca57600080fd5b506102e560048036038101906102e09190611ca1565b61084c565b005b3480156102f357600080fd5b5061030e60048036038101906103099190611cca565b610978565b005b34801561031c57600080fd5b50610325610b14565b604051610332919061229a565b60405180910390f35b34801561034757600080fd5b50610362600480360381019061035d9190611d2f565b610b3d565b6040516103709291906125ed565b60405180910390f35b34801561038557600080fd5b5061038e610c24565b60405161039b91906125d2565b60405180910390f35b3480156103b057600080fd5b506103b9610c2a565b6040516103c691906125d2565b60405180910390f35b6103d7610c30565b005b3480156103e557600080fd5b5061040060048036038101906103fb9190611ca1565b61108a565b60405161040d91906125d2565b60405180910390f35b34801561042257600080fd5b5061042b6110d6565b60405161043891906125d2565b60405180910390f35b34801561044d57600080fd5b506104566110dc565b60405161046391906125d2565b60405180910390f35b34801561047857600080fd5b50610493600480360381019061048e9190611ca1565b6110ee565b6040516104a091906122de565b60405180910390f35b3480156104b557600080fd5b506104d060048036038101906104cb9190611d2f565b611147565b6040516104e09493929190612366565b60405180910390f35b3480156104f557600080fd5b506104fe61120f565b60405161050b91906125d2565b60405180910390f35b34801561052057600080fd5b50610529611215565b604051610536919061234b565b60405180910390f35b34801561054b57600080fd5b5061055461123b565b6040516105619190612330565b60405180910390f35b34801561057657600080fd5b5061057f611261565b60405161058c9190612330565b60405180910390f35b3480156105a157600080fd5b506105aa611287565b6040516105b791906125d2565b60405180910390f35b3480156105cc57600080fd5b506105d56112b2565b6040516105e291906125d2565b60405180910390f35b3480156105f757600080fd5b50610612600480360381019061060d9190611d2f565b6112b8565b005b34801561062057600080fd5b5061063b60048036038101906106369190611ca1565b6116a4565b005b34801561064957600080fd5b5061065261184d565b60405161065f91906125d2565b60405180910390f35b34801561067457600080fd5b5061068f600480360381019061068a9190611d2f565b611853565b005b610e1060a86106a091906126c4565b81565b60075481565b610e10600c6106b891906126c4565b81565b600b60009054906101000a900460ff1681565b600a6020528060005260406000206000915090508060000160009054906101000a900460ff16908060010154908060020160009054906101000a900460ff16905083565b61071a611aee565b73ffffffffffffffffffffffffffffffffffffffff16610738610b14565b73ffffffffffffffffffffffffffffffffffffffff161461078e576040517f08c379a000000000000000000000000000000000000000000000000000000000815260040161078590612512565b60405180910390fd5b600073ffffffffffffffffffffffffffffffffffffffff1660008054906101000a900473ffffffffffffffffffffffffffffffffffffffff1673ffffffffffffffffffffffffffffffffffffffff167f8be0079c531659141344cd1fd0a4f28419497f9722a3daafe3b4186f6b6457e060405160405180910390a360008060006101000a81548173ffffffffffffffffffffffffffffffffffffffff021916908373ffffffffffffffffffffffffffffffffffffffff160217905550565b610854611aee565b73ffffffffffffffffffffffffffffffffffffffff16610872610b14565b73ffffffffffffffffffffffffffffffffffffffff16146108c8576040517f08c379a00000000000000000000000000000000000000000000000000000000081526004016108bf90612512565b60405180910390fd5b60008173ffffffffffffffffffffffffffffffffffffffff16476040516108ee90612285565b60006040518083038185875af1925050503d806000811461092b576040519150601f19603f3d011682016040523d82523d6000602084013e610930565b606091505b5050905080610974576040517f08c379a000000000000000000000000000000000000000000000000000000000815260040161096b906124b2565b60405180910390fd5b5050565b610980611aee565b73ffffffffffffffffffffffffffffffffffffffff1661099e610b14565b73ffffffffffffffffffffffffffffffffffffffff16146109f4576040517f08c379a00000000000000000000000000000000000000000000000000000000081526004016109eb90612512565b60405180910390fd5b60008290508073ffffffffffffffffffffffffffffffffffffffff1663a9059cbb838373ffffffffffffffffffffffffffffffffffffffff166370a08231306040518263ffffffff1660e01b8152600401610a4f919061229a565b60206040518083038186803b158015610a6757600080fd5b505afa158015610a7b573d6000803e3d6000fd5b505050506040513d601f19601f82011682018060405250810190610a9f9190611d58565b6040518363ffffffff1660e01b8152600401610abc9291906122b5565b602060405180830381600087803b158015610ad657600080fd5b505af1158015610aea573d6000803e3d6000fd5b505050506040513d601f19601f82011682018060405250810190610b0e9190611d06565b50505050565b60008060009054906101000a900473ffffffffffffffffffffffffffffffffffffffff16905090565b6000806000600c8481548110610b7c577f4e487b7100000000000000000000000000000000000000000000000000000000600052603260045260246000fd5b906000526020600020906004020190506000841480610b9f575060008160030154145b15610bb1576000809250925050610c1f565b60008160030154600d54610bc591906126c4565b8260020154600554610bd791906126c4565b610be19190612693565b905060008260030154600d54610bf791906126c4565b8360020154600654610c0991906126c4565b610c139190612693565b90508181945094505050505b915091565b610e1081565b600d5481565b6000429050600b60009054906101000a900460ff16610c84576040517f08c379a0000000000000000000000000000000000000000000000000000000008152600401610c7b906125b2565b60405180910390fd5b600a60003373ffffffffffffffffffffffffffffffffffffffff1673ffffffffffffffffffffffffffffffffffffffff16815260200190815260200160002060000160009054906101000a900460ff16610d13576040517f08c379a0000000000000000000000000000000000000000000000000000000008152600401610d0a906123d2565b60405180910390fd5b600a60003373ffffffffffffffffffffffffffffffffffffffff1673ffffffffffffffffffffffffffffffffffffffff16815260200190815260200160002060020160009054906101000a900460ff1615610da3576040517f08c379a0000000000000000000000000000000000000000000000000000000008152600401610d9a90612472565b60405180910390fd5b8060095411158015610dd05750610e10600c610dbf91906126c4565b600954610dcc919061263d565b8111155b610e0f576040517f08c379a0000000000000000000000000000000000000000000000000000000008152600401610e0690612572565b60405180910390fd5b60026001541415610e55576040517f08c379a0000000000000000000000000000000000000000000000000000000008152600401610e4c90612592565b60405180910390fd5b60026001819055506000600a60003373ffffffffffffffffffffffffffffffffffffffff1673ffffffffffffffffffffffffffffffffffffffff1681526020019081526020016000209050600080610eb08360010154610b3d565b9150915060008114158015610ec6575060008214155b610f05576040517f08c379a0000000000000000000000000000000000000000000000000000000008152600401610efc90612532565b60405180910390fd5b348114610f47576040517f08c379a0000000000000000000000000000000000000000000000000000000008152600401610f3e906123b2565b60405180910390fd5b60018360020160006101000a81548160ff0219169083151502179055508160076000828254610f76919061271e565b92505081905550600460009054906101000a900473ffffffffffffffffffffffffffffffffffffffff1673ffffffffffffffffffffffffffffffffffffffff1663a9059cbb33846040518363ffffffff1660e01b8152600401610fda9291906122b5565b602060405180830381600087803b158015610ff457600080fd5b505af1158015611008573d6000803e3d6000fd5b505050506040513d601f19601f8201168201806040525081019061102c9190611d06565b503373ffffffffffffffffffffffffffffffffffffffff167f12cb4648cf3058b17ceeb33e579f8b0bc269fe0843f3900b8e24b6c54871703c83836040516110759291906125ed565b60405180910390a25050506001808190555050565b6000600a60008373ffffffffffffffffffffffffffffffffffffffff1673ffffffffffffffffffffffffffffffffffffffff168152602001908152602001600020600101549050919050565b60085481565b610e1060306110eb91906126c4565b81565b6000600a60008373ffffffffffffffffffffffffffffffffffffffff1673ffffffffffffffffffffffffffffffffffffffff16815260200190815260200160002060000160009054906101000a900460ff169050919050565b600c818154811061115757600080fd5b906000526020600020906004020160009150905080600001805461117a90612815565b80601f01602080910402602001604051908101604052809291908181526020018280546111a690612815565b80156111f35780601f106111c8576101008083540402835291602001916111f3565b820191906000526020600020905b8154815290600101906020018083116111d657829003601f168201915b5050505050908060010154908060020154908060030154905084565b60055481565b600260009054906101000a900473ffffffffffffffffffffffffffffffffffffffff1681565b600460009054906101000a900473ffffffffffffffffffffffffffffffffffffffff1681565b600360009054906101000a900473ffffffffffffffffffffffffffffffffffffffff1681565b610e10601861129691906126c4565b610e1060306112a591906126c4565b6112af919061263d565b81565b60065481565b6000429050600b60009054906101000a900460ff1661130c576040517f08c379a0000000000000000000000000000000000000000000000000000000008152600401611303906125b2565b60405180910390fd5b600a60003373ffffffffffffffffffffffffffffffffffffffff1673ffffffffffffffffffffffffffffffffffffffff16815260200190815260200160002060000160009054906101000a900460ff161561139c576040517f08c379a000000000000000000000000000000000000000000000000000000000815260040161139390612412565b60405180910390fd5b80600854111580156113c95750610e1060306113b891906126c4565b6008546113c5919061263d565b8111155b611408576040517f08c379a00000000000000000000000000000000000000000000000000000000081526004016113ff90612552565b60405180910390fd5b818060011115801561141b575060058111155b61145a576040517f08c379a000000000000000000000000000000000000000000000000000000000815260040161145190612432565b60405180910390fd5b6000600260009054906101000a900473ffffffffffffffffffffffffffffffffffffffff1673ffffffffffffffffffffffffffffffffffffffff166360217267336040518263ffffffff1660e01b81526004016114b7919061229a565b60206040518083038186803b1580156114cf57600080fd5b505afa1580156114e3573d6000803e3d6000fd5b505050506040513d601f19601f820116820180604052508101906115079190611d58565b905080600c8381548110611544577f4e487b7100000000000000000000000000000000000000000000000000000000600052603260045260246000fd5b9060005260206000209060040201600101541115611597576040517f08c379a000000000000000000000000000000000000000000000000000000000815260040161158e90612492565b60405180910390fd5b600260015414156115dd576040517f08c379a00000000000000000000000000000000000000000000000000000000081526004016115d490612592565b60405180910390fd5b6002600181905550600260009054906101000a900473ffffffffffffffffffffffffffffffffffffffff1673ffffffffffffffffffffffffffffffffffffffff1663282d3fdf33610e1060a861163391906126c4565b4261163e919061263d565b6040518363ffffffff1660e01b815260040161165b9291906122b5565b600060405180830381600087803b15801561167557600080fd5b505af1158015611689573d6000803e3d6000fd5b505050506116973385611af6565b6001808190555050505050565b6116ac611aee565b73ffffffffffffffffffffffffffffffffffffffff166116ca610b14565b73ffffffffffffffffffffffffffffffffffffffff1614611720576040517f08c379a000000000000000000000000000000000000000000000000000000000815260040161171790612512565b60405180910390fd5b600073ffffffffffffffffffffffffffffffffffffffff168173ffffffffffffffffffffffffffffffffffffffff161415611790576040517f08c379a0000000000000000000000000000000000000000000000000000000008152600401611787906123f2565b60405180910390fd5b8073ffffffffffffffffffffffffffffffffffffffff1660008054906101000a900473ffffffffffffffffffffffffffffffffffffffff1673ffffffffffffffffffffffffffffffffffffffff167f8be0079c531659141344cd1fd0a4f28419497f9722a3daafe3b4186f6b6457e060405160405180910390a3806000806101000a81548173ffffffffffffffffffffffffffffffffffffffff021916908373ffffffffffffffffffffffffffffffffffffffff16021790555050565b60095481565b61185b611aee565b73ffffffffffffffffffffffffffffffffffffffff16611879610b14565b73ffffffffffffffffffffffffffffffffffffffff16146118cf576040517f08c379a00000000000000000000000000000000000000000000000000000000081526004016118c690612512565b60405180910390fd5b600b60009054906101000a900460ff161561191f576040517f08c379a000000000000000000000000000000000000000000000000000000000815260040161191690612452565b60405180910390fd5b42811015611962576040517f08c379a0000000000000000000000000000000000000000000000000000000008152600401611959906124d2565b60405180910390fd5b80600881905550610e10601861197891906126c4565b610e10603061198791906126c4565b611991919061263d565b60085461199e919061263d565b600981905550600554600460009054906101000a900473ffffffffffffffffffffffffffffffffffffffff1673ffffffffffffffffffffffffffffffffffffffff166370a08231306040518263ffffffff1660e01b8152600401611a02919061229a565b60206040518083038186803b158015611a1a57600080fd5b505afa158015611a2e573d6000803e3d6000fd5b505050506040513d601f19601f82011682018060405250810190611a529190611d58565b1015611a93576040517f08c379a0000000000000000000000000000000000000000000000000000000008152600401611a8a906124f2565b60405180910390fd5b7f537db03a5cf0f67e64e2a7515e45c28a71d041067e165fc95ee2ecde36e6532d600854600954604051611ac89291906125ed565b60405180910390a16001600b60006101000a81548160ff02191690831515021790555050565b600033905090565b6001600a60008473ffffffffffffffffffffffffffffffffffffffff1673ffffffffffffffffffffffffffffffffffffffff16815260200190815260200160002060000160006101000a81548160ff02191690831515021790555080600a60008473ffffffffffffffffffffffffffffffffffffffff1673ffffffffffffffffffffffffffffffffffffffff168152602001908152602001600020600101819055506001600c8281548110611bd4577f4e487b7100000000000000000000000000000000000000000000000000000000600052603260045260246000fd5b90600052602060002090600402016003016000828254611bf4919061263d565b925050819055503373ffffffffffffffffffffffffffffffffffffffff167ff6c60b059f60c86b2d612b237ac38bd87bc1f68f87600cd360d68351af1ca95f82604051611c4191906125d2565b60405180910390a25050565b600081359050611c5c816128e5565b92915050565b600081519050611c71816128fc565b92915050565b600081359050611c8681612913565b92915050565b600081519050611c9b81612913565b92915050565b600060208284031215611cb357600080fd5b6000611cc184828501611c4d565b91505092915050565b60008060408385031215611cdd57600080fd5b6000611ceb85828601611c4d565b9250506020611cfc85828601611c4d565b9150509250929050565b600060208284031215611d1857600080fd5b6000611d2684828501611c62565b91505092915050565b600060208284031215611d4157600080fd5b6000611d4f84828501611c77565b91505092915050565b600060208284031215611d6a57600080fd5b6000611d7884828501611c8c565b91505092915050565b611d8a81612752565b82525050565b611d9981612764565b82525050565b611da88161279a565b82525050565b611db7816127be565b82525050565b6000611dc882612616565b611dd2818561262c565b9350611de28185602086016127e2565b611deb816128d4565b840191505092915050565b6000611e0360148361262c565b91507f4e6f742056616c69642045746820416d6f756e740000000000000000000000006000830152602082019050919050565b6000611e43600e8361262c565b91507f4e6f7420726567697374657265640000000000000000000000000000000000006000830152602082019050919050565b6000611e8360268361262c565b91507f4f776e61626c653a206e6577206f776e657220697320746865207a65726f206160008301527f64647265737300000000000000000000000000000000000000000000000000006020830152604082019050919050565b6000611ee960128361262c565b91507f416c7265616479207265676973746572656400000000000000000000000000006000830152602082019050919050565b6000611f29600f8361262c565b91507f696e76616c696420506f6f6c206e6f00000000000000000000000000000000006000830152602082019050919050565b6000611f6960138361262c565b91507f416c726561647920496e697469616c697a6564000000000000000000000000006000830152602082019050919050565b6000611fa960118361262c565b91507f416c7265616479205075726368617365640000000000000000000000000000006000830152602082019050919050565b6000611fe9601d8361262c565b91507f43616e277420506172746963697061746520696e2074686520506f6f6c0000006000830152602082019050919050565b600061202960158361262c565b91507f556e61626c6520546f205265636f7665722045746800000000000000000000006000830152602082019050919050565b600061206960148361262c565b91507f49444f2043616e277420426520696e20506173740000000000000000000000006000830152602082019050919050565b60006120a9601d8361262c565b91507f4e6f7420456e6f75676820546f6b656e7320496e20436f6e74726163740000006000830152602082019050919050565b60006120e960208361262c565b91507f4f776e61626c653a2063616c6c6572206973206e6f7420746865206f776e65726000830152602082019050919050565b600061212960148361262c565b91507f56616c7565732043616e2774204265205a65726f0000000000000000000000006000830152602082019050919050565b6000612169601a8361262c565b91507f4e6f7420696e20526567697374726174696f6e20506572696f640000000000006000830152602082019050919050565b60006121a9600083612621565b9150600082019050919050565b60006121c360128361262c565b91507f4e6f7420696e2053616c6520506572696f6400000000000000000000000000006000830152602082019050919050565b6000612203601f8361262c565b91507f5265656e7472616e637947756172643a207265656e7472616e742063616c6c006000830152602082019050919050565b600061224360138361262c565b91507f4e6f7420496e697469616c697a656420596574000000000000000000000000006000830152602082019050919050565b61227f81612790565b82525050565b60006122908261219c565b9150819050919050565b60006020820190506122af6000830184611d81565b92915050565b60006040820190506122ca6000830185611d81565b6122d76020830184612276565b9392505050565b60006020820190506122f36000830184611d90565b92915050565b600060608201905061230e6000830186611d90565b61231b6020830185612276565b6123286040830184611d90565b949350505050565b60006020820190506123456000830184611d9f565b92915050565b60006020820190506123606000830184611dae565b92915050565b600060808201905081810360008301526123808187611dbd565b905061238f6020830186612276565b61239c6040830185612276565b6123a96060830184612276565b95945050505050565b600060208201905081810360008301526123cb81611df6565b9050919050565b600060208201905081810360008301526123eb81611e36565b9050919050565b6000602082019050818103600083015261240b81611e76565b9050919050565b6000602082019050818103600083015261242b81611edc565b9050919050565b6000602082019050818103600083015261244b81611f1c565b9050919050565b6000602082019050818103600083015261246b81611f5c565b9050919050565b6000602082019050818103600083015261248b81611f9c565b9050919050565b600060208201905081810360008301526124ab81611fdc565b9050919050565b600060208201905081810360008301526124cb8161201c565b9050919050565b600060208201905081810360008301526124eb8161205c565b9050919050565b6000602082019050818103600083015261250b8161209c565b9050919050565b6000602082019050818103600083015261252b816120dc565b9050919050565b6000602082019050818103600083015261254b8161211c565b9050919050565b6000602082019050818103600083015261256b8161215c565b9050919050565b6000602082019050818103600083015261258b816121b6565b9050919050565b600060208201905081810360008301526125ab816121f6565b9050919050565b600060208201905081810360008301526125cb81612236565b9050919050565b60006020820190506125e76000830184612276565b92915050565b60006040820190506126026000830185612276565b61260f6020830184612276565b9392505050565b600081519050919050565b600081905092915050565b600082825260208201905092915050565b600061264882612790565b915061265383612790565b9250827fffffffffffffffffffffffffffffffffffffffffffffffffffffffffffffffff0382111561268857612687612847565b5b828201905092915050565b600061269e82612790565b91506126a983612790565b9250826126b9576126b8612876565b5b828204905092915050565b60006126cf82612790565b91506126da83612790565b9250817fffffffffffffffffffffffffffffffffffffffffffffffffffffffffffffffff048311821515161561271357612712612847565b5b828202905092915050565b600061272982612790565b915061273483612790565b92508282101561274757612746612847565b5b828203905092915050565b600061275d82612770565b9050919050565b60008115159050919050565b600073ffffffffffffffffffffffffffffffffffffffff82169050919050565b6000819050919050565b60006127a5826127ac565b9050919050565b60006127b782612770565b9050919050565b60006127c9826127d0565b9050919050565b60006127db82612770565b9050919050565b60005b838110156128005780820151818401526020810190506127e5565b8381111561280f576000848401525b50505050565b6000600282049050600182168061282d57607f821691505b60208210811415612841576128406128a5565b5b50919050565b7f4e487b7100000000000000000000000000000000000000000000000000000000600052601160045260246000fd5b7f4e487b7100000000000000000000000000000000000000000000000000000000600052601260045260246000fd5b7f4e487b7100000000000000000000000000000000000000000000000000000000600052602260045260246000fd5b6000601f19601f8301169050919050565b6128ee81612752565b81146128f957600080fd5b50565b61290581612764565b811461291057600080fd5b50565b61291c81612790565b811461292757600080fd5b5056fea2646970667358221220180c4b6cb01326e29b8e9413fc1d086bf02305cf05d5ba78370282e5b1660b4a64736f6c63430008000033",
  "immutableReferences": {},
  "source": "// SPDX-License-Identifier: MIT\r\npragma solidity ^0.8.0;\r\n\r\nimport './../interfaces/IStaker.sol';\r\nimport \"@openzeppelin/contracts/token/ERC20/extensions/IERC20Metadata.sol\";\r\nimport \"@openzeppelin/contracts/access/Ownable.sol\";\r\nimport \"@openzeppelin/contracts/security/ReentrancyGuard.sol\";\r\n\r\ncontract IDO is Ownable, ReentrancyGuard {\r\n\r\n    IStaker public iStaker;\r\n    IERC20Metadata public nativeToken; // The token staked\r\n    IERC20Metadata public idoToken; // The token sale in iDO\r\n    uint256 public idoTokenSum; // Amount of Tokens to be Sold\r\n    uint256 public idoTotalPrice; // Price of 1 Tokens in Wei\r\n\r\n    uint256 public remainingIDOTokens; // Tokens Not Sold Yet\r\n\r\n    // Time Stamps\r\n    uint256 public constant unit = 1 hours; // use seconds for testing\r\n    uint256 public constant lockDuration = 7 * 24 * unit;\r\n    uint256 public constant regDuration = 48 * unit;\r\n    uint256 public constant saleStartsAfter = regDuration + 24 * unit;\r\n    uint256 public constant saleDuration = 12 * unit;\r\n    uint256 public regStarts;\r\n    uint256 public saleStarts;\r\n\r\n    event Initialization(uint256 regStart, uint256 saleStart);\r\n    event Registration(address indexed account, uint256 poolNo);\r\n    event Purchase(address indexed, uint256 tokens, uint256 price);\r\n\r\n    struct UserLog {\r\n        bool isRegistered;\r\n        uint256 registeredPool;\r\n        bool purchased;\r\n    }\r\n    mapping(address => UserLog) public userlog;\r\n\r\n    bool public isInitialized;\r\n\r\n    struct PoolInfo {\r\n        string name;\r\n        uint256 minNativeToken; // min token required to particitate in the pool\r\n        uint256 weight;\r\n        uint256 participants;\r\n    } \r\n    PoolInfo[] public pools;\r\n    uint256 public totalWeight;\r\n\r\n    modifier verifyPool(uint256 _poolNo) {\r\n        require(1 <= _poolNo && _poolNo <= 5, \"invalid Pool no\");\r\n\r\n        uint256 stakedAmount = iStaker.stakedBalance(msg.sender);\r\n        require(pools[_poolNo].minNativeToken <= stakedAmount, \"Can't Participate in the Pool\");\r\n\r\n        _;\r\n    }\r\n\r\n    modifier validRegistration() {\r\n        uint256 t = block.timestamp;\r\n\r\n        require(isInitialized, \"Not Initialized Yet\");\r\n        require(!userlog[msg.sender].isRegistered, \"Already registered\");\r\n        require(regStarts <= t && t <= regStarts + regDuration, \"Not in Registration Period\");\r\n        _;\r\n    }\r\n\r\n    modifier validSale() {\r\n        uint256 t = block.timestamp;\r\n\r\n        require(isInitialized, \"Not Initialized Yet\");\r\n        require(userlog[msg.sender].isRegistered, \"Not registered\");\r\n        require(!userlog[msg.sender].purchased, \"Already Purchased\");\r\n        require(saleStarts <= t && t <= saleStarts + saleDuration, \"Not in Sale Period\");\r\n        _;\r\n    }\r\n\r\n    modifier notInitialized() {\r\n        require(!isInitialized, \"Already Initialized\");\r\n        _;\r\n        isInitialized = true;\r\n    }\r\n\r\n    constructor (\r\n        address _stakerAddress,\r\n        address _nativeTokenAddress,\r\n        address _idoTokenAddress,\r\n        uint256 _idoTokenSum,\r\n        uint256 _price\r\n    ) {\r\n        \r\n        iStaker = IStaker(_stakerAddress);\r\n        nativeToken = IERC20Metadata(_nativeTokenAddress);\r\n        idoToken = IERC20Metadata(_idoTokenAddress);\r\n        idoTokenSum = _idoTokenSum;\r\n        idoTotalPrice = _price;\r\n\r\n        remainingIDOTokens = idoTokenSum;\r\n\r\n        uint256 dec = uint256(nativeToken.decimals());\r\n        pools.push(PoolInfo(\"Null\", 0, 0, 0));\r\n        pools.push(PoolInfo(\"Knight\", 100 * 10**dec, 2, 0));\r\n        pools.push(PoolInfo(\"Bishop\", 500 * 10**dec, 3, 0));\r\n        pools.push(PoolInfo(\"Rook\", 1000 * 10**dec, 4, 0));\r\n        pools.push(PoolInfo(\"King\", 2000 * 10**dec, 5, 0));\r\n        pools.push(PoolInfo(\"Queen\", 4000 * 10**dec, 6, 0));\r\n        totalWeight = 20;\r\n\r\n    }\r\n\r\n    function initialize(uint256 time) external onlyOwner notInitialized {\r\n        require(time >= block.timestamp, \"IDO Can't Be in Past\");\r\n        regStarts = time;\r\n        saleStarts = regStarts + saleStartsAfter;\r\n        require(idoToken.balanceOf(address(this)) >= idoTokenSum, \"Not Enough Tokens In Contract\");\r\n\r\n        emit Initialization(regStarts, saleStarts);\r\n    }\r\n\r\n    function register(uint256 _poolNo) \r\n    external \r\n    validRegistration \r\n    verifyPool(_poolNo)\r\n    nonReentrant {\r\n        iStaker.lock(msg.sender, block.timestamp + lockDuration);\r\n        _register(msg.sender, _poolNo);\r\n    }\r\n\r\n    function _register(address account, uint256 _poolNo) internal {\r\n        userlog[account].isRegistered = true;\r\n        userlog[account].registeredPool = _poolNo;\r\n        pools[_poolNo].participants += 1;\r\n        \r\n\r\n        emit Registration(msg.sender, _poolNo);\r\n    }\r\n\r\n    function getPoolNo(address account) public view returns(uint256) {\r\n        return userlog[account].registeredPool;\r\n    }\r\n\r\n    function getRegistrationStatus(address account) public view returns(bool) {\r\n        return userlog[account].isRegistered;\r\n    }\r\n\r\n    function tokensAndPriceByPoolNo(uint256 _poolNo) public view returns(uint256, uint256) {\r\n\r\n        PoolInfo storage pool = pools[_poolNo];\r\n\r\n        if(_poolNo == 0 || pool.participants == 0) {\r\n            return (0, 0);\r\n        }\r\n\r\n        uint256 tokenAmount = (idoTokenSum * pool.weight) / (totalWeight * pool.participants); // Token Amount per Participants\r\n        uint256 price = (idoTotalPrice * pool.weight) / (totalWeight * pool.participants); // Token Amount per Participants\r\n\r\n        return (tokenAmount, price);\r\n    }\r\n\r\n    function buyNow() external \r\n    payable \r\n    validSale\r\n    nonReentrant {\r\n        UserLog storage usr = userlog[msg.sender];\r\n        (uint256 amount, uint256 price) = tokensAndPriceByPoolNo(usr.registeredPool);\r\n        require(price != 0 && amount != 0, \"Values Can't Be Zero\");\r\n        require(price == msg.value, \"Not Valid Eth Amount\");\r\n\r\n        usr.purchased = true;\r\n        remainingIDOTokens -= amount;\r\n        idoToken.transfer(msg.sender, amount);\r\n\r\n        emit Purchase(msg.sender, amount, price);\r\n    }\r\n\r\n    function recoverEth(address to) external onlyOwner {\r\n        (bool sent,) = address(to).call{value : address(this).balance}(\"\");\r\n        require(sent, 'Unable To Recover Eth');\r\n    }\r\n\r\n    function recoverERC20(\r\n        address tokenAddress, \r\n        address to\r\n    ) external onlyOwner {\r\n        IERC20Metadata tok = IERC20Metadata(tokenAddress);\r\n        tok.transfer(to, tok.balanceOf(address(this)));\r\n    }\r\n\r\n}",
  "sourcePath": "C:/Users/sudip/Desktop/RealProjects/PolyStarter/contracts/IDOStaker/IDO.sol",
  "compiler": {
    "name": "solc",
    "version": "0.8.0+commit.c7dfd78e.Emscripten.clang"
  },
  "schemaVersion": "3.3.4",
  "updatedAt": "2021-06-19T13:28:19.753Z",
  "devdoc": {
    "kind": "dev",
    "methods": {
      "owner()": {
        "details": "Returns the address of the current owner."
      },
      "renounceOwnership()": {
        "details": "Leaves the contract without owner. It will not be possible to call `onlyOwner` functions anymore. Can only be called by the current owner. NOTE: Renouncing ownership will leave the contract without an owner, thereby removing any functionality that is only available to the owner."
      },
      "transferOwnership(address)": {
        "details": "Transfers ownership of the contract to a new account (`newOwner`). Can only be called by the current owner."
      }
    },
    "version": 1
  },
  "userdoc": {
    "kind": "user",
    "methods": {},
    "version": 1
  }
}