{
  "contractName": "IDO",
  "abi": [
    {
      "inputs": [
        {
          "internalType": "address",
          "name": "_stakerAddress",
          "type": "address"
        },
        {
          "internalType": "address",
          "name": "_nativeTokenAddress",
          "type": "address"
        },
        {
          "internalType": "address",
          "name": "_idoTokenAddress",
          "type": "address"
        },
        {
          "internalType": "uint256",
          "name": "_idoAmount",
          "type": "uint256"
        },
        {
          "internalType": "uint256",
          "name": "_price",
          "type": "uint256"
        }
      ],
      "stateMutability": "nonpayable",
      "type": "constructor"
    },
    {
      "anonymous": false,
      "inputs": [
        {
          "indexed": true,
          "internalType": "address",
          "name": "previousOwner",
          "type": "address"
        },
        {
          "indexed": true,
          "internalType": "address",
          "name": "newOwner",
          "type": "address"
        }
      ],
      "name": "OwnershipTransferred",
      "type": "event"
    },
    {
      "inputs": [],
      "name": "iStaker",
      "outputs": [
        {
          "internalType": "contract IStaker",
          "name": "",
          "type": "address"
        }
      ],
      "stateMutability": "view",
      "type": "function"
    },
    {
      "inputs": [],
      "name": "idoAmount",
      "outputs": [
        {
          "internalType": "uint256",
          "name": "",
          "type": "uint256"
        }
      ],
      "stateMutability": "view",
      "type": "function"
    },
    {
      "inputs": [],
      "name": "idoPrice",
      "outputs": [
        {
          "internalType": "uint256",
          "name": "",
          "type": "uint256"
        }
      ],
      "stateMutability": "view",
      "type": "function"
    },
    {
      "inputs": [],
      "name": "idoToken",
      "outputs": [
        {
          "internalType": "contract IERC20Metadata",
          "name": "",
          "type": "address"
        }
      ],
      "stateMutability": "view",
      "type": "function"
    },
    {
      "inputs": [],
      "name": "isInitialized",
      "outputs": [
        {
          "internalType": "bool",
          "name": "",
          "type": "bool"
        }
      ],
      "stateMutability": "view",
      "type": "function"
    },
    {
      "inputs": [],
      "name": "lockDuration",
      "outputs": [
        {
          "internalType": "uint256",
          "name": "",
          "type": "uint256"
        }
      ],
      "stateMutability": "view",
      "type": "function"
    },
    {
      "inputs": [],
      "name": "nativeToken",
      "outputs": [
        {
          "internalType": "contract IERC20Metadata",
          "name": "",
          "type": "address"
        }
      ],
      "stateMutability": "view",
      "type": "function"
    },
    {
      "inputs": [],
      "name": "owner",
      "outputs": [
        {
          "internalType": "address",
          "name": "",
          "type": "address"
        }
      ],
      "stateMutability": "view",
      "type": "function"
    },
    {
      "inputs": [
        {
          "internalType": "uint256",
          "name": "",
          "type": "uint256"
        }
      ],
      "name": "pools",
      "outputs": [
        {
          "internalType": "string",
          "name": "name",
          "type": "string"
        },
        {
          "internalType": "uint256",
          "name": "minNativeToken",
          "type": "uint256"
        },
        {
          "internalType": "uint256",
          "name": "weight",
          "type": "uint256"
        },
        {
          "internalType": "uint256",
          "name": "participants",
          "type": "uint256"
        }
      ],
      "stateMutability": "view",
      "type": "function"
    },
    {
      "inputs": [],
      "name": "regDuration",
      "outputs": [
        {
          "internalType": "uint256",
          "name": "",
          "type": "uint256"
        }
      ],
      "stateMutability": "view",
      "type": "function"
    },
    {
      "inputs": [],
      "name": "regStarts",
      "outputs": [
        {
          "internalType": "uint256",
          "name": "",
          "type": "uint256"
        }
      ],
      "stateMutability": "view",
      "type": "function"
    },
    {
      "inputs": [],
      "name": "renounceOwnership",
      "outputs": [],
      "stateMutability": "nonpayable",
      "type": "function"
    },
    {
      "inputs": [],
      "name": "saleDuration",
      "outputs": [
        {
          "internalType": "uint256",
          "name": "",
          "type": "uint256"
        }
      ],
      "stateMutability": "view",
      "type": "function"
    },
    {
      "inputs": [],
      "name": "saleStarts",
      "outputs": [
        {
          "internalType": "uint256",
          "name": "",
          "type": "uint256"
        }
      ],
      "stateMutability": "view",
      "type": "function"
    },
    {
      "inputs": [],
      "name": "saleStartsAfter",
      "outputs": [
        {
          "internalType": "uint256",
          "name": "",
          "type": "uint256"
        }
      ],
      "stateMutability": "view",
      "type": "function"
    },
    {
      "inputs": [],
      "name": "totalWeight",
      "outputs": [
        {
          "internalType": "uint256",
          "name": "",
          "type": "uint256"
        }
      ],
      "stateMutability": "view",
      "type": "function"
    },
    {
      "inputs": [
        {
          "internalType": "address",
          "name": "newOwner",
          "type": "address"
        }
      ],
      "name": "transferOwnership",
      "outputs": [],
      "stateMutability": "nonpayable",
      "type": "function"
    },
    {
      "inputs": [],
      "name": "unit",
      "outputs": [
        {
          "internalType": "uint256",
          "name": "",
          "type": "uint256"
        }
      ],
      "stateMutability": "view",
      "type": "function"
    },
    {
      "inputs": [
        {
          "internalType": "address",
          "name": "",
          "type": "address"
        }
      ],
      "name": "userlog",
      "outputs": [
        {
          "internalType": "bool",
          "name": "isRegistered",
          "type": "bool"
        },
        {
          "internalType": "uint256",
          "name": "registeredPool",
          "type": "uint256"
        },
        {
          "internalType": "bool",
          "name": "purchased",
          "type": "bool"
        }
      ],
      "stateMutability": "view",
      "type": "function"
    },
    {
      "inputs": [
        {
          "internalType": "uint256",
          "name": "time",
          "type": "uint256"
        }
      ],
      "name": "initialize",
      "outputs": [],
      "stateMutability": "nonpayable",
      "type": "function"
    },
    {
      "inputs": [
        {
          "internalType": "uint256",
          "name": "_poolNo",
          "type": "uint256"
        }
      ],
      "name": "register",
      "outputs": [],
      "stateMutability": "nonpayable",
      "type": "function"
    },
    {
      "inputs": [
        {
          "internalType": "uint256",
          "name": "_poolNo",
          "type": "uint256"
        }
      ],
      "name": "tokensAndPrice",
      "outputs": [
        {
          "internalType": "uint256",
          "name": "",
          "type": "uint256"
        },
        {
          "internalType": "uint256",
          "name": "",
          "type": "uint256"
        }
      ],
      "stateMutability": "view",
      "type": "function"
    },
    {
      "inputs": [],
      "name": "buyNow",
      "outputs": [],
      "stateMutability": "payable",
      "type": "function"
    }
  ],
  "bytecode": "0x60806040523480156200001157600080fd5b5060405162002f8938038062002f89833981810160405281019062000037919062000898565b6000620000496200079b60201b60201c565b9050806000806101000a81548173ffffffffffffffffffffffffffffffffffffffff021916908373ffffffffffffffffffffffffffffffffffffffff1602179055508073ffffffffffffffffffffffffffffffffffffffff16600073ffffffffffffffffffffffffffffffffffffffff167f8be0079c531659141344cd1fd0a4f28419497f9722a3daafe3b4186f6b6457e060405160405180910390a3506001808190555084600260006101000a81548173ffffffffffffffffffffffffffffffffffffffff021916908373ffffffffffffffffffffffffffffffffffffffff16021790555083600360006101000a81548173ffffffffffffffffffffffffffffffffffffffff021916908373ffffffffffffffffffffffffffffffffffffffff16021790555082600460006101000a81548173ffffffffffffffffffffffffffffffffffffffff021916908373ffffffffffffffffffffffffffffffffffffffff16021790555081600581905550806006819055506000600360009054906101000a900473ffffffffffffffffffffffffffffffffffffffff1673ffffffffffffffffffffffffffffffffffffffff1663313ce5676040518163ffffffff1660e01b815260040160206040518083038186803b1580156200022a57600080fd5b505afa1580156200023f573d6000803e3d6000fd5b505050506040513d601f19601f820116820180604052508101906200026591906200091a565b60ff169050600b60405180608001604052806040518060400160405280600481526020017f4e756c6c00000000000000000000000000000000000000000000000000000000815250815260200160008152602001600081526020016000815250908060018154018082558091505060019003906000526020600020906004020160009091909190915060008201518160000190805190602001906200030c929190620007a3565b506020820151816001015560408201518160020155606082015181600301555050600b60405180608001604052806040518060400160405280600681526020017f4b6e696768740000000000000000000000000000000000000000000000000000815250815260200183600a620003849190620009a1565b606462000392919062000ade565b815260200160028152602001600081525090806001815401808255809150506001900390600052602060002090600402016000909190919091506000820151816000019080519060200190620003ea929190620007a3565b506020820151816001015560408201518160020155606082015181600301555050600b60405180608001604052806040518060400160405280600681526020017f426973686f700000000000000000000000000000000000000000000000000000815250815260200183600a620004629190620009a1565b6101f462000471919062000ade565b815260200160038152602001600081525090806001815401808255809150506001900390600052602060002090600402016000909190919091506000820151816000019080519060200190620004c9929190620007a3565b506020820151816001015560408201518160020155606082015181600301555050600b60405180608001604052806040518060400160405280600481526020017f526f6f6b00000000000000000000000000000000000000000000000000000000815250815260200183600a620005419190620009a1565b6103e862000550919062000ade565b815260200160048152602001600081525090806001815401808255809150506001900390600052602060002090600402016000909190919091506000820151816000019080519060200190620005a8929190620007a3565b506020820151816001015560408201518160020155606082015181600301555050600b60405180608001604052806040518060400160405280600481526020017f4b696e6700000000000000000000000000000000000000000000000000000000815250815260200183600a620006209190620009a1565b6107d06200062f919062000ade565b81526020016005815260200160008152509080600181540180825580915050600190039060005260206000209060040201600090919091909150600082015181600001908051906020019062000687929190620007a3565b506020820151816001015560408201518160020155606082015181600301555050600b60405180608001604052806040518060400160405280600581526020017f517565656e000000000000000000000000000000000000000000000000000000815250815260200183600a620006ff9190620009a1565b610fa06200070e919062000ade565b81526020016006815260200160008152509080600181540180825580915050600190039060005260206000209060040201600090919091909150600082015181600001908051906020019062000766929190620007a3565b5060208201518160010155604082015181600201556060820151816003015550506014600c8190555050505050505062000c79565b600033905090565b828054620007b19062000b8a565b90600052602060002090601f016020900481019282620007d5576000855562000821565b82601f10620007f057805160ff191683800117855562000821565b8280016001018555821562000821579182015b828111156200082057825182559160200191906001019062000803565b5b50905062000830919062000834565b5090565b5b808211156200084f57600081600090555060010162000835565b5090565b600081519050620008648162000c2b565b92915050565b6000815190506200087b8162000c45565b92915050565b600081519050620008928162000c5f565b92915050565b600080600080600060a08688031215620008b157600080fd5b6000620008c18882890162000853565b9550506020620008d48882890162000853565b9450506040620008e78882890162000853565b9350506060620008fa888289016200086a565b92505060806200090d888289016200086a565b9150509295509295909350565b6000602082840312156200092d57600080fd5b60006200093d8482850162000881565b91505092915050565b6000808291508390505b6001851115620009985780860481111562000970576200096f62000bc0565b5b6001851615620009805780820291505b8081029050620009908562000c1e565b945062000950565b94509492505050565b6000620009ae8262000b73565b9150620009bb8362000b73565b9250620009ea7fffffffffffffffffffffffffffffffffffffffffffffffffffffffffffffffff8484620009f2565b905092915050565b60008262000a04576001905062000ad7565b8162000a14576000905062000ad7565b816001811462000a2d576002811462000a385762000a6e565b600191505062000ad7565b60ff84111562000a4d5762000a4c62000bc0565b5b8360020a91508482111562000a675762000a6662000bc0565b5b5062000ad7565b5060208310610133831016604e8410600b841016171562000aa85782820a90508381111562000aa25762000aa162000bc0565b5b62000ad7565b62000ab7848484600162000946565b9250905081840481111562000ad15762000ad062000bc0565b5b81810290505b9392505050565b600062000aeb8262000b73565b915062000af88362000b73565b9250817fffffffffffffffffffffffffffffffffffffffffffffffffffffffffffffffff048311821515161562000b345762000b3362000bc0565b5b828202905092915050565b600062000b4c8262000b53565b9050919050565b600073ffffffffffffffffffffffffffffffffffffffff82169050919050565b6000819050919050565b600060ff82169050919050565b6000600282049050600182168062000ba357607f821691505b6020821081141562000bba5762000bb962000bef565b5b50919050565b7f4e487b7100000000000000000000000000000000000000000000000000000000600052601160045260246000fd5b7f4e487b7100000000000000000000000000000000000000000000000000000000600052602260045260246000fd5b60008160011c9050919050565b62000c368162000b3f565b811462000c4257600080fd5b50565b62000c508162000b73565b811462000c5c57600080fd5b50565b62000c6a8162000b7d565b811462000c7657600080fd5b50565b6123008062000c896000396000f3fe6080604052600436106101405760003560e01c8063a25dd130116100b6578063e1758bd81161006f578063e1758bd814610427578063e76eda8614610452578063f207564e1461047d578063f2fde38b146104a6578063f3f40af2146104cf578063fe4b84df146104fa57610140565b8063a25dd13014610310578063ac4afa381461033b578063bf3834501461037b578063c4f34fab146103a6578063cd80fe0d146103d1578063d6cd82bc146103fc57610140565b8063715018a611610108578063715018a6146102435780638da5cb5b1461025a578063907af6c01461028557806396c82e57146102b05780639c3962f0146102db578063a158226d146102e557610140565b80630455444314610145578063236bcd58146101705780633711d9fb146101ae578063392e53cd146101d957806345a28e0614610204575b600080fd5b34801561015157600080fd5b5061015a610523565b6040516101679190611e0f565b60405180910390f35b34801561017c57600080fd5b5061019760048036038101906101929190611692565b610535565b6040516101a5929190611e2a565b60405180910390f35b3480156101ba57600080fd5b506101c36106bb565b6040516101d09190611e0f565b60405180910390f35b3480156101e557600080fd5b506101ee6106cd565b6040516101fb9190611b7b565b60405180910390f35b34801561021057600080fd5b5061022b60048036038101906102269190611640565b6106e0565b60405161023a93929190611b96565b60405180910390f35b34801561024f57600080fd5b50610258610724565b005b34801561026657600080fd5b5061026f61085e565b60405161027c9190611b37565b60405180910390f35b34801561029157600080fd5b5061029a610887565b6040516102a79190611e0f565b60405180910390f35b3480156102bc57600080fd5b506102c561088d565b6040516102d29190611e0f565b60405180910390f35b6102e3610893565b005b3480156102f157600080fd5b506102fa610c84565b6040516103079190611e0f565b60405180910390f35b34801561031c57600080fd5b50610325610c8a565b6040516103329190611e0f565b60405180910390f35b34801561034757600080fd5b50610362600480360381019061035d9190611692565b610c9c565b6040516103729493929190611c03565b60405180910390f35b34801561038757600080fd5b50610390610d64565b60405161039d9190611e0f565b60405180910390f35b3480156103b257600080fd5b506103bb610d6a565b6040516103c89190611be8565b60405180910390f35b3480156103dd57600080fd5b506103e6610d90565b6040516103f39190611e0f565b60405180910390f35b34801561040857600080fd5b50610411610d96565b60405161041e9190611bcd565b60405180910390f35b34801561043357600080fd5b5061043c610dbc565b6040516104499190611bcd565b60405180910390f35b34801561045e57600080fd5b50610467610de2565b6040516104749190611e0f565b60405180910390f35b34801561048957600080fd5b506104a4600480360381019061049f9190611692565b610e0d565b005b3480156104b257600080fd5b506104cd60048036038101906104c89190611640565b6112f4565b005b3480156104db57600080fd5b506104e461149d565b6040516104f19190611e0f565b60405180910390f35b34801561050657600080fd5b50610521600480360381019061051c9190611692565b6114a3565b005b610e1060a86105329190612067565b81565b6000806000600b8481548110610574577f4e487b7100000000000000000000000000000000000000000000000000000000600052603260045260246000fd5b906000526020600020906004020190506000841480610597575060008160030154145b156105a95760008092509250506106b6565b6000600460009054906101000a900473ffffffffffffffffffffffffffffffffffffffff1673ffffffffffffffffffffffffffffffffffffffff1663313ce5676040518163ffffffff1660e01b815260040160206040518083038186803b15801561061357600080fd5b505afa158015610627573d6000803e3d6000fd5b505050506040513d601f19601f8201168201806040525081019061064b91906116e4565b60ff16905060008260030154600c546106649190612067565b83600201546005546106769190612067565b6106809190611ec5565b9050600082600a6106919190611f49565b6006548361069f9190612067565b6106a99190611ec5565b9050818195509550505050505b915091565b610e10600c6106ca9190612067565b81565b600a60009054906101000a900460ff1681565b60096020528060005260406000206000915090508060000160009054906101000a900460ff16908060010154908060020160009054906101000a900460ff16905083565b61072c6115cf565b73ffffffffffffffffffffffffffffffffffffffff1661074a61085e565b73ffffffffffffffffffffffffffffffffffffffff16146107a0576040517f08c379a000000000000000000000000000000000000000000000000000000000815260040161079790611d4f565b60405180910390fd5b600073ffffffffffffffffffffffffffffffffffffffff1660008054906101000a900473ffffffffffffffffffffffffffffffffffffffff1673ffffffffffffffffffffffffffffffffffffffff167f8be0079c531659141344cd1fd0a4f28419497f9722a3daafe3b4186f6b6457e060405160405180910390a360008060006101000a81548173ffffffffffffffffffffffffffffffffffffffff021916908373ffffffffffffffffffffffffffffffffffffffff160217905550565b60008060009054906101000a900473ffffffffffffffffffffffffffffffffffffffff16905090565b610e1081565b600c5481565b6000429050600a60009054906101000a900460ff166108e7576040517f08c379a00000000000000000000000000000000000000000000000000000000081526004016108de90611def565b60405180910390fd5b600960003373ffffffffffffffffffffffffffffffffffffffff1673ffffffffffffffffffffffffffffffffffffffff16815260200190815260200160002060000160009054906101000a900460ff16610976576040517f08c379a000000000000000000000000000000000000000000000000000000000815260040161096d90611c6f565b60405180910390fd5b600960003373ffffffffffffffffffffffffffffffffffffffff1673ffffffffffffffffffffffffffffffffffffffff16815260200190815260200160002060020160009054906101000a900460ff1615610a06576040517f08c379a00000000000000000000000000000000000000000000000000000000081526004016109fd90611d0f565b60405180910390fd5b8060085411158015610a335750610e10600c610a229190612067565b600854610a2f9190611e6f565b8111155b610a72576040517f08c379a0000000000000000000000000000000000000000000000000000000008152600401610a6990611daf565b60405180910390fd5b60026001541415610ab8576040517f08c379a0000000000000000000000000000000000000000000000000000000008152600401610aaf90611dcf565b60405180910390fd5b60026001819055506000600960003373ffffffffffffffffffffffffffffffffffffffff1673ffffffffffffffffffffffffffffffffffffffff1681526020019081526020016000209050600080610b138360010154610535565b9150915060008114158015610b29575060008214155b610b68576040517f08c379a0000000000000000000000000000000000000000000000000000000008152600401610b5f90611d6f565b60405180910390fd5b348114610baa576040517f08c379a0000000000000000000000000000000000000000000000000000000008152600401610ba190611c4f565b60405180910390fd5b60018360020160006101000a81548160ff021916908315150217905550600460009054906101000a900473ffffffffffffffffffffffffffffffffffffffff1673ffffffffffffffffffffffffffffffffffffffff1663a9059cbb33846040518363ffffffff1660e01b8152600401610c24929190611b52565b602060405180830381600087803b158015610c3e57600080fd5b505af1158015610c52573d6000803e3d6000fd5b505050506040513d601f19601f82011682018060405250810190610c769190611669565b505050506001808190555050565b60075481565b610e106030610c999190612067565b81565b600b8181548110610cac57600080fd5b9060005260206000209060040201600091509050806000018054610ccf90612191565b80601f0160208091040260200160405190810160405280929190818152602001828054610cfb90612191565b8015610d485780601f10610d1d57610100808354040283529160200191610d48565b820191906000526020600020905b815481529060010190602001808311610d2b57829003601f168201915b5050505050908060010154908060020154908060030154905084565b60055481565b600260009054906101000a900473ffffffffffffffffffffffffffffffffffffffff1681565b60065481565b600460009054906101000a900473ffffffffffffffffffffffffffffffffffffffff1681565b600360009054906101000a900473ffffffffffffffffffffffffffffffffffffffff1681565b610e106018610df19190612067565b610e106030610e009190612067565b610e0a9190611e6f565b81565b6000429050600a60009054906101000a900460ff16610e61576040517f08c379a0000000000000000000000000000000000000000000000000000000008152600401610e5890611def565b60405180910390fd5b600960003373ffffffffffffffffffffffffffffffffffffffff1673ffffffffffffffffffffffffffffffffffffffff16815260200190815260200160002060000160009054906101000a900460ff1615610ef1576040517f08c379a0000000000000000000000000000000000000000000000000000000008152600401610ee890611caf565b60405180910390fd5b8060075411158015610f1e5750610e106030610f0d9190612067565b600754610f1a9190611e6f565b8111155b610f5d576040517f08c379a0000000000000000000000000000000000000000000000000000000008152600401610f5490611d8f565b60405180910390fd5b8180600111158015610f70575060058111155b610faf576040517f08c379a0000000000000000000000000000000000000000000000000000000008152600401610fa690611ccf565b60405180910390fd5b6000600260009054906101000a900473ffffffffffffffffffffffffffffffffffffffff1673ffffffffffffffffffffffffffffffffffffffff166360217267336040518263ffffffff1660e01b815260040161100c9190611b37565b60206040518083038186803b15801561102457600080fd5b505afa158015611038573d6000803e3d6000fd5b505050506040513d601f19601f8201168201806040525081019061105c91906116bb565b905080600b8381548110611099577f4e487b7100000000000000000000000000000000000000000000000000000000600052603260045260246000fd5b90600052602060002090600402016001015411156110ec576040517f08c379a00000000000000000000000000000000000000000000000000000000081526004016110e390611d2f565b60405180910390fd5b60026001541415611132576040517f08c379a000000000000000000000000000000000000000000000000000000000815260040161112990611dcf565b60405180910390fd5b60026001819055506001600960003373ffffffffffffffffffffffffffffffffffffffff1673ffffffffffffffffffffffffffffffffffffffff16815260200190815260200160002060000160006101000a81548160ff02191690831515021790555083600960003373ffffffffffffffffffffffffffffffffffffffff1673ffffffffffffffffffffffffffffffffffffffff168152602001908152602001600020600101819055506001600b8581548110611218577f4e487b7100000000000000000000000000000000000000000000000000000000600052603260045260246000fd5b906000526020600020906004020160030160008282546112389190611e6f565b92505081905550600260009054906101000a900473ffffffffffffffffffffffffffffffffffffffff1673ffffffffffffffffffffffffffffffffffffffff1663282d3fdf33610e1060a861128d9190612067565b426112989190611e6f565b6040518363ffffffff1660e01b81526004016112b5929190611b52565b600060405180830381600087803b1580156112cf57600080fd5b505af11580156112e3573d6000803e3d6000fd5b505050506001808190555050505050565b6112fc6115cf565b73ffffffffffffffffffffffffffffffffffffffff1661131a61085e565b73ffffffffffffffffffffffffffffffffffffffff1614611370576040517f08c379a000000000000000000000000000000000000000000000000000000000815260040161136790611d4f565b60405180910390fd5b600073ffffffffffffffffffffffffffffffffffffffff168173ffffffffffffffffffffffffffffffffffffffff1614156113e0576040517f08c379a00000000000000000000000000000000000000000000000000000000081526004016113d790611c8f565b60405180910390fd5b8073ffffffffffffffffffffffffffffffffffffffff1660008054906101000a900473ffffffffffffffffffffffffffffffffffffffff1673ffffffffffffffffffffffffffffffffffffffff167f8be0079c531659141344cd1fd0a4f28419497f9722a3daafe3b4186f6b6457e060405160405180910390a3806000806101000a81548173ffffffffffffffffffffffffffffffffffffffff021916908373ffffffffffffffffffffffffffffffffffffffff16021790555050565b60085481565b6114ab6115cf565b73ffffffffffffffffffffffffffffffffffffffff166114c961085e565b73ffffffffffffffffffffffffffffffffffffffff161461151f576040517f08c379a000000000000000000000000000000000000000000000000000000000815260040161151690611d4f565b60405180910390fd5b600a60009054906101000a900460ff161561156f576040517f08c379a000000000000000000000000000000000000000000000000000000000815260040161156690611cef565b60405180910390fd5b80600781905550610e1060186115859190612067565b610e1060306115949190612067565b61159e9190611e6f565b6007546115ab9190611e6f565b6008819055506001600a60006101000a81548160ff02191690831515021790555050565b600033905090565b6000813590506115e68161226e565b92915050565b6000815190506115fb81612285565b92915050565b6000813590506116108161229c565b92915050565b6000815190506116258161229c565b92915050565b60008151905061163a816122b3565b92915050565b60006020828403121561165257600080fd5b6000611660848285016115d7565b91505092915050565b60006020828403121561167b57600080fd5b6000611689848285016115ec565b91505092915050565b6000602082840312156116a457600080fd5b60006116b284828501611601565b91505092915050565b6000602082840312156116cd57600080fd5b60006116db84828501611616565b91505092915050565b6000602082840312156116f657600080fd5b60006117048482850161162b565b91505092915050565b611716816120c1565b82525050565b611725816120d3565b82525050565b61173481612116565b82525050565b6117438161213a565b82525050565b600061175482611e53565b61175e8185611e5e565b935061176e81856020860161215e565b61177781612250565b840191505092915050565b600061178f601483611e5e565b91507f4e6f742056616c69642045746820416d6f756e740000000000000000000000006000830152602082019050919050565b60006117cf600e83611e5e565b91507f4e6f7420726567697374657265640000000000000000000000000000000000006000830152602082019050919050565b600061180f602683611e5e565b91507f4f776e61626c653a206e6577206f776e657220697320746865207a65726f206160008301527f64647265737300000000000000000000000000000000000000000000000000006020830152604082019050919050565b6000611875601283611e5e565b91507f416c7265616479207265676973746572656400000000000000000000000000006000830152602082019050919050565b60006118b5600f83611e5e565b91507f696e76616c696420506f6f6c206e6f00000000000000000000000000000000006000830152602082019050919050565b60006118f5601383611e5e565b91507f416c726561647920496e697469616c697a6564000000000000000000000000006000830152602082019050919050565b6000611935601183611e5e565b91507f416c7265616479205075726368617365640000000000000000000000000000006000830152602082019050919050565b6000611975601d83611e5e565b91507f43616e277420506172746963697061746520696e2074686520506f6f6c0000006000830152602082019050919050565b60006119b5602083611e5e565b91507f4f776e61626c653a2063616c6c6572206973206e6f7420746865206f776e65726000830152602082019050919050565b60006119f5601483611e5e565b91507f56616c7565732043616e2774204265205a65726f0000000000000000000000006000830152602082019050919050565b6000611a35601a83611e5e565b91507f4e6f7420696e20526567697374726174696f6e20506572696f640000000000006000830152602082019050919050565b6000611a75601283611e5e565b91507f4e6f7420696e2053616c6520506572696f6400000000000000000000000000006000830152602082019050919050565b6000611ab5601f83611e5e565b91507f5265656e7472616e637947756172643a207265656e7472616e742063616c6c006000830152602082019050919050565b6000611af5601383611e5e565b91507f4e6f7420496e697469616c697a656420596574000000000000000000000000006000830152602082019050919050565b611b31816120ff565b82525050565b6000602082019050611b4c600083018461170d565b92915050565b6000604082019050611b67600083018561170d565b611b746020830184611b28565b9392505050565b6000602082019050611b90600083018461171c565b92915050565b6000606082019050611bab600083018661171c565b611bb86020830185611b28565b611bc5604083018461171c565b949350505050565b6000602082019050611be2600083018461172b565b92915050565b6000602082019050611bfd600083018461173a565b92915050565b60006080820190508181036000830152611c1d8187611749565b9050611c2c6020830186611b28565b611c396040830185611b28565b611c466060830184611b28565b95945050505050565b60006020820190508181036000830152611c6881611782565b9050919050565b60006020820190508181036000830152611c88816117c2565b9050919050565b60006020820190508181036000830152611ca881611802565b9050919050565b60006020820190508181036000830152611cc881611868565b9050919050565b60006020820190508181036000830152611ce8816118a8565b9050919050565b60006020820190508181036000830152611d08816118e8565b9050919050565b60006020820190508181036000830152611d2881611928565b9050919050565b60006020820190508181036000830152611d4881611968565b9050919050565b60006020820190508181036000830152611d68816119a8565b9050919050565b60006020820190508181036000830152611d88816119e8565b9050919050565b60006020820190508181036000830152611da881611a28565b9050919050565b60006020820190508181036000830152611dc881611a68565b9050919050565b60006020820190508181036000830152611de881611aa8565b9050919050565b60006020820190508181036000830152611e0881611ae8565b9050919050565b6000602082019050611e246000830184611b28565b92915050565b6000604082019050611e3f6000830185611b28565b611e4c6020830184611b28565b9392505050565b600081519050919050565b600082825260208201905092915050565b6000611e7a826120ff565b9150611e85836120ff565b9250827fffffffffffffffffffffffffffffffffffffffffffffffffffffffffffffffff03821115611eba57611eb96121c3565b5b828201905092915050565b6000611ed0826120ff565b9150611edb836120ff565b925082611eeb57611eea6121f2565b5b828204905092915050565b6000808291508390505b6001851115611f4057808604811115611f1c57611f1b6121c3565b5b6001851615611f2b5780820291505b8081029050611f3985612261565b9450611f00565b94509492505050565b6000611f54826120ff565b9150611f5f836120ff565b9250611f8c7fffffffffffffffffffffffffffffffffffffffffffffffffffffffffffffffff8484611f94565b905092915050565b600082611fa45760019050612060565b81611fb25760009050612060565b8160018114611fc85760028114611fd257612001565b6001915050612060565b60ff841115611fe457611fe36121c3565b5b8360020a915084821115611ffb57611ffa6121c3565b5b50612060565b5060208310610133831016604e8410600b84101617156120365782820a905083811115612031576120306121c3565b5b612060565b6120438484846001611ef6565b9250905081840481111561205a576120596121c3565b5b81810290505b9392505050565b6000612072826120ff565b915061207d836120ff565b9250817fffffffffffffffffffffffffffffffffffffffffffffffffffffffffffffffff04831182151516156120b6576120b56121c3565b5b828202905092915050565b60006120cc826120df565b9050919050565b60008115159050919050565b600073ffffffffffffffffffffffffffffffffffffffff82169050919050565b6000819050919050565b600060ff82169050919050565b600061212182612128565b9050919050565b6000612133826120df565b9050919050565b60006121458261214c565b9050919050565b6000612157826120df565b9050919050565b60005b8381101561217c578082015181840152602081019050612161565b8381111561218b576000848401525b50505050565b600060028204905060018216806121a957607f821691505b602082108114156121bd576121bc612221565b5b50919050565b7f4e487b7100000000000000000000000000000000000000000000000000000000600052601160045260246000fd5b7f4e487b7100000000000000000000000000000000000000000000000000000000600052601260045260246000fd5b7f4e487b7100000000000000000000000000000000000000000000000000000000600052602260045260246000fd5b6000601f19601f8301169050919050565b60008160011c9050919050565b612277816120c1565b811461228257600080fd5b50565b61228e816120d3565b811461229957600080fd5b50565b6122a5816120ff565b81146122b057600080fd5b50565b6122bc81612109565b81146122c757600080fd5b5056fea264697066735822122070076e724a3fb495ba54f6c489bf0e384e32034eb86f65358a1a9cf72f62e8e664736f6c63430008000033",
  "immutableReferences": {},
  "source": "// SPDX-License-Identifier: MIT\r\npragma solidity ^0.8.0;\r\n\r\nimport './../interfaces/IStaker.sol';\r\nimport \"openzeppelin-solidity/contracts/token/ERC20/extensions/IERC20Metadata.sol\";\r\nimport \"openzeppelin-solidity/contracts/access/Ownable.sol\";\r\nimport \"openzeppelin-solidity/contracts/utils/Context.sol\";\r\nimport \"openzeppelin-solidity/contracts/security/ReentrancyGuard.sol\";\r\n\r\ncontract IDO is Ownable, ReentrancyGuard {\r\n\r\n    IStaker public iStaker;\r\n    IERC20Metadata public nativeToken; // The token staked\r\n    IERC20Metadata public idoToken; // The token sale in iDO\r\n    uint256 public idoAmount; // Amount of Tokens to be Sold\r\n    uint256 public idoPrice; // Price of 1 Tokens in Wei\r\n\r\n    // Time Stamps\r\n    uint256 public constant unit = 1 hours;\r\n    uint256 public constant lockDuration = 7 * 24 * unit;\r\n    uint256 public constant regDuration = 48 * unit;\r\n    uint256 public constant saleStartsAfter = regDuration + 24 * unit;\r\n    uint256 public constant saleDuration = 12 * unit;\r\n    uint256 public regStarts;\r\n    uint256 public saleStarts;\r\n\r\n    struct UserLog {\r\n        bool isRegistered;\r\n        uint256 registeredPool;\r\n        bool purchased;\r\n    }\r\n    mapping(address => UserLog) public userlog;\r\n\r\n    bool public isInitialized;\r\n\r\n    struct PoolInfo {\r\n        string name;\r\n        uint256 minNativeToken; // min token required to particitate in the pool\r\n        uint256 weight;\r\n        uint256 participants;\r\n    } \r\n    PoolInfo[] public pools;\r\n    uint256 public totalWeight;\r\n\r\n    modifier verifyPool(uint256 _poolNo) {\r\n        require(1 <= _poolNo && _poolNo <= 5, \"invalid Pool no\");\r\n\r\n        uint256 stakedAmount = iStaker.stakedBalance(msg.sender);\r\n        require(pools[_poolNo].minNativeToken <= stakedAmount, \"Can't Participate in the Pool\");\r\n\r\n        _;\r\n    }\r\n\r\n    modifier validRegistration() {\r\n        uint256 t = block.timestamp;\r\n\r\n        require(isInitialized, \"Not Initialized Yet\");\r\n        require(!userlog[msg.sender].isRegistered, \"Already registered\");\r\n        require(regStarts <= t && t <= regStarts + regDuration, \"Not in Registration Period\");\r\n        _;\r\n    }\r\n\r\n    modifier validSale() {\r\n        uint256 t = block.timestamp;\r\n\r\n        require(isInitialized, \"Not Initialized Yet\");\r\n        require(userlog[msg.sender].isRegistered, \"Not registered\");\r\n        require(!userlog[msg.sender].purchased, \"Already Purchased\");\r\n        require(saleStarts <= t && t <= saleStarts + saleDuration, \"Not in Sale Period\");\r\n        _;\r\n    }\r\n\r\n    modifier notInitialized() {\r\n        require(!isInitialized, \"Already Initialized\");\r\n        _;\r\n        isInitialized = true;\r\n    }\r\n\r\n    constructor (\r\n        address _stakerAddress,\r\n        address _nativeTokenAddress,\r\n        address _idoTokenAddress,\r\n        uint256 _idoAmount,\r\n        uint256 _price\r\n    ) {\r\n        \r\n        iStaker = IStaker(_stakerAddress);\r\n        nativeToken = IERC20Metadata(_nativeTokenAddress);\r\n        idoToken = IERC20Metadata(_idoTokenAddress);\r\n        idoAmount = _idoAmount;\r\n        idoPrice = _price;\r\n\r\n        uint256 dec = uint256(nativeToken.decimals());\r\n        pools.push(PoolInfo(\"Null\", 0, 0, 0));\r\n        pools.push(PoolInfo(\"Knight\", 100 * 10**dec, 2, 0));\r\n        pools.push(PoolInfo(\"Bishop\", 500 * 10**dec, 3, 0));\r\n        pools.push(PoolInfo(\"Rook\", 1000 * 10**dec, 4, 0));\r\n        pools.push(PoolInfo(\"King\", 2000 * 10**dec, 5, 0));\r\n        pools.push(PoolInfo(\"Queen\", 4000 * 10**dec, 6, 0));\r\n        totalWeight = 20;\r\n\r\n    }\r\n\r\n    function initialize(uint256 time) external onlyOwner notInitialized {\r\n        regStarts = time;\r\n        saleStarts = regStarts + saleStartsAfter;\r\n    }\r\n\r\n    function register(uint256 _poolNo) \r\n    external \r\n    validRegistration \r\n    verifyPool(_poolNo)\r\n    nonReentrant {\r\n        userlog[msg.sender].isRegistered = true;\r\n        userlog[msg.sender].registeredPool = _poolNo;\r\n        pools[_poolNo].participants += 1;\r\n\r\n        iStaker.lock(msg.sender, block.timestamp + lockDuration);\r\n    }\r\n\r\n    function tokensAndPrice(uint256 _poolNo) public view returns(uint256, uint256) {\r\n\r\n        PoolInfo storage pool = pools[_poolNo];\r\n\r\n        if(_poolNo == 0 || pool.participants == 0) {\r\n            return (0, 0);\r\n        }\r\n        uint256 dec = uint256(idoToken.decimals());\r\n        uint256 tokenAmount = (idoAmount * pool.weight) / (totalWeight * pool.participants); // Token Amount per Participants\r\n        uint256 price = (tokenAmount * idoPrice) / (10 ** dec);\r\n\r\n        return (tokenAmount, price);\r\n    }\r\n\r\n    function buyNow() external \r\n    payable \r\n    validSale\r\n    nonReentrant {\r\n        UserLog storage usr = userlog[msg.sender];\r\n        (uint256 amount, uint256 price) = tokensAndPrice(usr.registeredPool);\r\n        require(price != 0 && amount != 0, \"Values Can't Be Zero\");\r\n        require(price == msg.value, \"Not Valid Eth Amount\");\r\n\r\n        usr.purchased = true;\r\n        idoToken.transfer(msg.sender, amount);\r\n    }\r\n\r\n}",
  "sourcePath": "C:/Users/sudip/Desktop/Matic Project/Staking/contracts/IDOStaker/IDO.sol",
  "compiler": {
    "name": "solc",
    "version": "0.8.0+commit.c7dfd78e.Emscripten.clang"
  },
  "schemaVersion": "3.3.4",
  "updatedAt": "2021-06-02T07:09:14.592Z",
  "devdoc": {
    "kind": "dev",
    "methods": {
      "owner()": {
        "details": "Returns the address of the current owner."
      },
      "renounceOwnership()": {
        "details": "Leaves the contract without owner. It will not be possible to call `onlyOwner` functions anymore. Can only be called by the current owner. NOTE: Renouncing ownership will leave the contract without an owner, thereby removing any functionality that is only available to the owner."
      },
      "transferOwnership(address)": {
        "details": "Transfers ownership of the contract to a new account (`newOwner`). Can only be called by the current owner."
      }
    },
    "version": 1
  },
  "userdoc": {
    "kind": "user",
    "methods": {},
    "version": 1
  }
}