{
  "contractName": "IDO",
  "abi": [
    {
      "inputs": [
        {
          "internalType": "address",
          "name": "_stakerAddress",
          "type": "address"
        },
        {
          "internalType": "address",
          "name": "_nativeTokenAddress",
          "type": "address"
        },
        {
          "internalType": "address",
          "name": "_idoTokenAddress",
          "type": "address"
        },
        {
          "internalType": "uint256",
          "name": "_idoAmount",
          "type": "uint256"
        },
        {
          "internalType": "uint256",
          "name": "_price",
          "type": "uint256"
        }
      ],
      "stateMutability": "nonpayable",
      "type": "constructor"
    },
    {
      "anonymous": false,
      "inputs": [
        {
          "indexed": false,
          "internalType": "uint256",
          "name": "regStart",
          "type": "uint256"
        },
        {
          "indexed": false,
          "internalType": "uint256",
          "name": "saleStart",
          "type": "uint256"
        }
      ],
      "name": "Initialization",
      "type": "event"
    },
    {
      "anonymous": false,
      "inputs": [
        {
          "indexed": true,
          "internalType": "address",
          "name": "previousOwner",
          "type": "address"
        },
        {
          "indexed": true,
          "internalType": "address",
          "name": "newOwner",
          "type": "address"
        }
      ],
      "name": "OwnershipTransferred",
      "type": "event"
    },
    {
      "anonymous": false,
      "inputs": [
        {
          "indexed": true,
          "internalType": "address",
          "name": "",
          "type": "address"
        },
        {
          "indexed": false,
          "internalType": "uint256",
          "name": "tokens",
          "type": "uint256"
        },
        {
          "indexed": false,
          "internalType": "uint256",
          "name": "price",
          "type": "uint256"
        }
      ],
      "name": "Purchase",
      "type": "event"
    },
    {
      "anonymous": false,
      "inputs": [
        {
          "indexed": true,
          "internalType": "address",
          "name": "account",
          "type": "address"
        },
        {
          "indexed": false,
          "internalType": "uint256",
          "name": "poolNo",
          "type": "uint256"
        }
      ],
      "name": "Registration",
      "type": "event"
    },
    {
      "inputs": [],
      "name": "iStaker",
      "outputs": [
        {
          "internalType": "contract IStaker",
          "name": "",
          "type": "address"
        }
      ],
      "stateMutability": "view",
      "type": "function"
    },
    {
      "inputs": [],
      "name": "idoAmount",
      "outputs": [
        {
          "internalType": "uint256",
          "name": "",
          "type": "uint256"
        }
      ],
      "stateMutability": "view",
      "type": "function"
    },
    {
      "inputs": [],
      "name": "idoPrice",
      "outputs": [
        {
          "internalType": "uint256",
          "name": "",
          "type": "uint256"
        }
      ],
      "stateMutability": "view",
      "type": "function"
    },
    {
      "inputs": [],
      "name": "idoToken",
      "outputs": [
        {
          "internalType": "contract IERC20Metadata",
          "name": "",
          "type": "address"
        }
      ],
      "stateMutability": "view",
      "type": "function"
    },
    {
      "inputs": [],
      "name": "isInitialized",
      "outputs": [
        {
          "internalType": "bool",
          "name": "",
          "type": "bool"
        }
      ],
      "stateMutability": "view",
      "type": "function"
    },
    {
      "inputs": [],
      "name": "lockDuration",
      "outputs": [
        {
          "internalType": "uint256",
          "name": "",
          "type": "uint256"
        }
      ],
      "stateMutability": "view",
      "type": "function"
    },
    {
      "inputs": [],
      "name": "nativeToken",
      "outputs": [
        {
          "internalType": "contract IERC20Metadata",
          "name": "",
          "type": "address"
        }
      ],
      "stateMutability": "view",
      "type": "function"
    },
    {
      "inputs": [],
      "name": "owner",
      "outputs": [
        {
          "internalType": "address",
          "name": "",
          "type": "address"
        }
      ],
      "stateMutability": "view",
      "type": "function"
    },
    {
      "inputs": [
        {
          "internalType": "uint256",
          "name": "",
          "type": "uint256"
        }
      ],
      "name": "pools",
      "outputs": [
        {
          "internalType": "string",
          "name": "name",
          "type": "string"
        },
        {
          "internalType": "uint256",
          "name": "minNativeToken",
          "type": "uint256"
        },
        {
          "internalType": "uint256",
          "name": "weight",
          "type": "uint256"
        },
        {
          "internalType": "uint256",
          "name": "participants",
          "type": "uint256"
        }
      ],
      "stateMutability": "view",
      "type": "function"
    },
    {
      "inputs": [],
      "name": "regDuration",
      "outputs": [
        {
          "internalType": "uint256",
          "name": "",
          "type": "uint256"
        }
      ],
      "stateMutability": "view",
      "type": "function"
    },
    {
      "inputs": [],
      "name": "regStarts",
      "outputs": [
        {
          "internalType": "uint256",
          "name": "",
          "type": "uint256"
        }
      ],
      "stateMutability": "view",
      "type": "function"
    },
    {
      "inputs": [],
      "name": "renounceOwnership",
      "outputs": [],
      "stateMutability": "nonpayable",
      "type": "function"
    },
    {
      "inputs": [],
      "name": "saleDuration",
      "outputs": [
        {
          "internalType": "uint256",
          "name": "",
          "type": "uint256"
        }
      ],
      "stateMutability": "view",
      "type": "function"
    },
    {
      "inputs": [],
      "name": "saleStarts",
      "outputs": [
        {
          "internalType": "uint256",
          "name": "",
          "type": "uint256"
        }
      ],
      "stateMutability": "view",
      "type": "function"
    },
    {
      "inputs": [],
      "name": "saleStartsAfter",
      "outputs": [
        {
          "internalType": "uint256",
          "name": "",
          "type": "uint256"
        }
      ],
      "stateMutability": "view",
      "type": "function"
    },
    {
      "inputs": [],
      "name": "totalWeight",
      "outputs": [
        {
          "internalType": "uint256",
          "name": "",
          "type": "uint256"
        }
      ],
      "stateMutability": "view",
      "type": "function"
    },
    {
      "inputs": [
        {
          "internalType": "address",
          "name": "newOwner",
          "type": "address"
        }
      ],
      "name": "transferOwnership",
      "outputs": [],
      "stateMutability": "nonpayable",
      "type": "function"
    },
    {
      "inputs": [],
      "name": "unit",
      "outputs": [
        {
          "internalType": "uint256",
          "name": "",
          "type": "uint256"
        }
      ],
      "stateMutability": "view",
      "type": "function"
    },
    {
      "inputs": [
        {
          "internalType": "address",
          "name": "",
          "type": "address"
        }
      ],
      "name": "userlog",
      "outputs": [
        {
          "internalType": "bool",
          "name": "isRegistered",
          "type": "bool"
        },
        {
          "internalType": "uint256",
          "name": "registeredPool",
          "type": "uint256"
        },
        {
          "internalType": "bool",
          "name": "purchased",
          "type": "bool"
        }
      ],
      "stateMutability": "view",
      "type": "function"
    },
    {
      "inputs": [
        {
          "internalType": "uint256",
          "name": "time",
          "type": "uint256"
        }
      ],
      "name": "initialize",
      "outputs": [],
      "stateMutability": "nonpayable",
      "type": "function"
    },
    {
      "inputs": [
        {
          "internalType": "uint256",
          "name": "_poolNo",
          "type": "uint256"
        }
      ],
      "name": "register",
      "outputs": [],
      "stateMutability": "nonpayable",
      "type": "function"
    },
    {
      "inputs": [
        {
          "internalType": "address",
          "name": "account",
          "type": "address"
        }
      ],
      "name": "getPoolNo",
      "outputs": [
        {
          "internalType": "uint256",
          "name": "",
          "type": "uint256"
        }
      ],
      "stateMutability": "view",
      "type": "function"
    },
    {
      "inputs": [
        {
          "internalType": "uint256",
          "name": "_poolNo",
          "type": "uint256"
        }
      ],
      "name": "tokensAndPrice",
      "outputs": [
        {
          "internalType": "uint256",
          "name": "",
          "type": "uint256"
        },
        {
          "internalType": "uint256",
          "name": "",
          "type": "uint256"
        }
      ],
      "stateMutability": "view",
      "type": "function"
    },
    {
      "inputs": [],
      "name": "buyNow",
      "outputs": [],
      "stateMutability": "payable",
      "type": "function"
    },
    {
      "inputs": [
        {
          "internalType": "address",
          "name": "to",
          "type": "address"
        }
      ],
      "name": "recoverEth",
      "outputs": [],
      "stateMutability": "nonpayable",
      "type": "function"
    },
    {
      "inputs": [
        {
          "internalType": "address",
          "name": "tokenAddress",
          "type": "address"
        },
        {
          "internalType": "address",
          "name": "to",
          "type": "address"
        }
      ],
      "name": "recoverERC20",
      "outputs": [],
      "stateMutability": "nonpayable",
      "type": "function"
    }
  ],
  "bytecode": "0x60806040523480156200001157600080fd5b506040516200371338038062003713833981810160405281019062000037919062000898565b6000620000496200079b60201b60201c565b9050806000806101000a81548173ffffffffffffffffffffffffffffffffffffffff021916908373ffffffffffffffffffffffffffffffffffffffff1602179055508073ffffffffffffffffffffffffffffffffffffffff16600073ffffffffffffffffffffffffffffffffffffffff167f8be0079c531659141344cd1fd0a4f28419497f9722a3daafe3b4186f6b6457e060405160405180910390a3506001808190555084600260006101000a81548173ffffffffffffffffffffffffffffffffffffffff021916908373ffffffffffffffffffffffffffffffffffffffff16021790555083600360006101000a81548173ffffffffffffffffffffffffffffffffffffffff021916908373ffffffffffffffffffffffffffffffffffffffff16021790555082600460006101000a81548173ffffffffffffffffffffffffffffffffffffffff021916908373ffffffffffffffffffffffffffffffffffffffff16021790555081600581905550806006819055506000600360009054906101000a900473ffffffffffffffffffffffffffffffffffffffff1673ffffffffffffffffffffffffffffffffffffffff1663313ce5676040518163ffffffff1660e01b815260040160206040518083038186803b1580156200022a57600080fd5b505afa1580156200023f573d6000803e3d6000fd5b505050506040513d601f19601f820116820180604052508101906200026591906200091a565b60ff169050600b60405180608001604052806040518060400160405280600481526020017f4e756c6c00000000000000000000000000000000000000000000000000000000815250815260200160008152602001600081526020016000815250908060018154018082558091505060019003906000526020600020906004020160009091909190915060008201518160000190805190602001906200030c929190620007a3565b506020820151816001015560408201518160020155606082015181600301555050600b60405180608001604052806040518060400160405280600681526020017f4b6e696768740000000000000000000000000000000000000000000000000000815250815260200183600a620003849190620009a1565b606462000392919062000ade565b815260200160028152602001600081525090806001815401808255809150506001900390600052602060002090600402016000909190919091506000820151816000019080519060200190620003ea929190620007a3565b506020820151816001015560408201518160020155606082015181600301555050600b60405180608001604052806040518060400160405280600681526020017f426973686f700000000000000000000000000000000000000000000000000000815250815260200183600a620004629190620009a1565b6101f462000471919062000ade565b815260200160038152602001600081525090806001815401808255809150506001900390600052602060002090600402016000909190919091506000820151816000019080519060200190620004c9929190620007a3565b506020820151816001015560408201518160020155606082015181600301555050600b60405180608001604052806040518060400160405280600481526020017f526f6f6b00000000000000000000000000000000000000000000000000000000815250815260200183600a620005419190620009a1565b6103e862000550919062000ade565b815260200160048152602001600081525090806001815401808255809150506001900390600052602060002090600402016000909190919091506000820151816000019080519060200190620005a8929190620007a3565b506020820151816001015560408201518160020155606082015181600301555050600b60405180608001604052806040518060400160405280600481526020017f4b696e6700000000000000000000000000000000000000000000000000000000815250815260200183600a620006209190620009a1565b6107d06200062f919062000ade565b81526020016005815260200160008152509080600181540180825580915050600190039060005260206000209060040201600090919091909150600082015181600001908051906020019062000687929190620007a3565b506020820151816001015560408201518160020155606082015181600301555050600b60405180608001604052806040518060400160405280600581526020017f517565656e000000000000000000000000000000000000000000000000000000815250815260200183600a620006ff9190620009a1565b610fa06200070e919062000ade565b81526020016006815260200160008152509080600181540180825580915050600190039060005260206000209060040201600090919091909150600082015181600001908051906020019062000766929190620007a3565b5060208201518160010155604082015181600201556060820151816003015550506014600c8190555050505050505062000c79565b600033905090565b828054620007b19062000b8a565b90600052602060002090601f016020900481019282620007d5576000855562000821565b82601f10620007f057805160ff191683800117855562000821565b8280016001018555821562000821579182015b828111156200082057825182559160200191906001019062000803565b5b50905062000830919062000834565b5090565b5b808211156200084f57600081600090555060010162000835565b5090565b600081519050620008648162000c2b565b92915050565b6000815190506200087b8162000c45565b92915050565b600081519050620008928162000c5f565b92915050565b600080600080600060a08688031215620008b157600080fd5b6000620008c18882890162000853565b9550506020620008d48882890162000853565b9450506040620008e78882890162000853565b9350506060620008fa888289016200086a565b92505060806200090d888289016200086a565b9150509295509295909350565b6000602082840312156200092d57600080fd5b60006200093d8482850162000881565b91505092915050565b6000808291508390505b6001851115620009985780860481111562000970576200096f62000bc0565b5b6001851615620009805780820291505b8081029050620009908562000c1e565b945062000950565b94509492505050565b6000620009ae8262000b73565b9150620009bb8362000b73565b9250620009ea7fffffffffffffffffffffffffffffffffffffffffffffffffffffffffffffffff8484620009f2565b905092915050565b60008262000a04576001905062000ad7565b8162000a14576000905062000ad7565b816001811462000a2d576002811462000a385762000a6e565b600191505062000ad7565b60ff84111562000a4d5762000a4c62000bc0565b5b8360020a91508482111562000a675762000a6662000bc0565b5b5062000ad7565b5060208310610133831016604e8410600b841016171562000aa85782820a90508381111562000aa25762000aa162000bc0565b5b62000ad7565b62000ab7848484600162000946565b9250905081840481111562000ad15762000ad062000bc0565b5b81810290505b9392505050565b600062000aeb8262000b73565b915062000af88362000b73565b9250817fffffffffffffffffffffffffffffffffffffffffffffffffffffffffffffffff048311821515161562000b345762000b3362000bc0565b5b828202905092915050565b600062000b4c8262000b53565b9050919050565b600073ffffffffffffffffffffffffffffffffffffffff82169050919050565b6000819050919050565b600060ff82169050919050565b6000600282049050600182168062000ba357607f821691505b6020821081141562000bba5762000bb962000bef565b5b50919050565b7f4e487b7100000000000000000000000000000000000000000000000000000000600052601160045260246000fd5b7f4e487b7100000000000000000000000000000000000000000000000000000000600052602260045260246000fd5b60008160011c9050919050565b62000c368162000b3f565b811462000c4257600080fd5b50565b62000c508162000b73565b811462000c5c57600080fd5b50565b62000c6a8162000b7d565b811462000c7657600080fd5b50565b612a8a8062000c896000396000f3fe6080604052600436106101815760003560e01c8063a158226d116100d1578063d6cd82bc1161008a578063f207564e11610064578063f207564e1461054d578063f2fde38b14610576578063f3f40af21461059f578063fe4b84df146105ca57610181565b8063d6cd82bc146104cc578063e1758bd8146104f7578063e76eda861461052257610181565b8063a158226d146103b5578063a25dd130146103e0578063ac4afa381461040b578063bf3834501461044b578063c4f34fab14610476578063cd80fe0d146104a157610181565b80637504db3e1161013e578063907af6c011610118578063907af6c01461031857806396c82e57146103435780639c3962f01461036e5780639e6e9d0f1461037857610181565b80637504db3e1461029b578063886f039a146102c45780638da5cb5b146102ed57610181565b80630455444314610186578063236bcd58146101b15780633711d9fb146101ef578063392e53cd1461021a57806345a28e0614610245578063715018a614610284575b600080fd5b34801561019257600080fd5b5061019b6105f3565b6040516101a8919061258e565b60405180910390f35b3480156101bd57600080fd5b506101d860048036038101906101d39190611cc2565b610604565b6040516101e69291906125a9565b60405180910390f35b3480156101fb57600080fd5b5061020461078a565b604051610211919061258e565b60405180910390f35b34801561022657600080fd5b5061022f61079b565b60405161023c919061229a565b60405180910390f35b34801561025157600080fd5b5061026c60048036038101906102679190611c34565b6107ae565b60405161027b939291906122b5565b60405180910390f35b34801561029057600080fd5b506102996107f2565b005b3480156102a757600080fd5b506102c260048036038101906102bd9190611c34565b61092c565b005b3480156102d057600080fd5b506102eb60048036038101906102e69190611c5d565b610a58565b005b3480156102f957600080fd5b50610302610bf4565b60405161030f9190612256565b60405180910390f35b34801561032457600080fd5b5061032d610c1d565b60405161033a919061258e565b60405180910390f35b34801561034f57600080fd5b50610358610c22565b604051610365919061258e565b60405180910390f35b610376610c28565b005b34801561038457600080fd5b5061039f600480360381019061039a9190611c34565b611068565b6040516103ac919061258e565b60405180910390f35b3480156103c157600080fd5b506103ca6110b4565b6040516103d7919061258e565b60405180910390f35b3480156103ec57600080fd5b506103f56110ba565b604051610402919061258e565b60405180910390f35b34801561041757600080fd5b50610432600480360381019061042d9190611cc2565b6110cb565b6040516104429493929190612322565b60405180910390f35b34801561045757600080fd5b50610460611193565b60405161046d919061258e565b60405180910390f35b34801561048257600080fd5b5061048b611199565b6040516104989190612307565b60405180910390f35b3480156104ad57600080fd5b506104b66111bf565b6040516104c3919061258e565b60405180910390f35b3480156104d857600080fd5b506104e16111c5565b6040516104ee91906122ec565b60405180910390f35b34801561050357600080fd5b5061050c6111eb565b60405161051991906122ec565b60405180910390f35b34801561052e57600080fd5b50610537611211565b604051610544919061258e565b60405180910390f35b34801561055957600080fd5b50610574600480360381019061056f9190611cc2565b61123a565b005b34801561058257600080fd5b5061059d60048036038101906105989190611c34565b611624565b005b3480156105ab57600080fd5b506105b46117cd565b6040516105c1919061258e565b60405180910390f35b3480156105d657600080fd5b506105f160048036038101906105ec9190611cc2565b6117d3565b005b600160a861060191906127f1565b81565b6000806000600b8481548110610643577f4e487b7100000000000000000000000000000000000000000000000000000000600052603260045260246000fd5b906000526020600020906004020190506000841480610666575060008160030154145b15610678576000809250925050610785565b6000600460009054906101000a900473ffffffffffffffffffffffffffffffffffffffff1673ffffffffffffffffffffffffffffffffffffffff1663313ce5676040518163ffffffff1660e01b815260040160206040518083038186803b1580156106e257600080fd5b505afa1580156106f6573d6000803e3d6000fd5b505050506040513d601f19601f8201168201806040525081019061071a9190611d14565b60ff16905060008260030154600c5461073391906127f1565b836002015460055461074591906127f1565b61074f919061264f565b9050600082600a61076091906126d3565b6006548361076e91906127f1565b610778919061264f565b9050818195509550505050505b915091565b6001600c61079891906127f1565b81565b600a60009054906101000a900460ff1681565b60096020528060005260406000206000915090508060000160009054906101000a900460ff16908060010154908060020160009054906101000a900460ff16905083565b6107fa611a6c565b73ffffffffffffffffffffffffffffffffffffffff16610818610bf4565b73ffffffffffffffffffffffffffffffffffffffff161461086e576040517f08c379a0000000000000000000000000000000000000000000000000000000008152600401610865906124ce565b60405180910390fd5b600073ffffffffffffffffffffffffffffffffffffffff1660008054906101000a900473ffffffffffffffffffffffffffffffffffffffff1673ffffffffffffffffffffffffffffffffffffffff167f8be0079c531659141344cd1fd0a4f28419497f9722a3daafe3b4186f6b6457e060405160405180910390a360008060006101000a81548173ffffffffffffffffffffffffffffffffffffffff021916908373ffffffffffffffffffffffffffffffffffffffff160217905550565b610934611a6c565b73ffffffffffffffffffffffffffffffffffffffff16610952610bf4565b73ffffffffffffffffffffffffffffffffffffffff16146109a8576040517f08c379a000000000000000000000000000000000000000000000000000000000815260040161099f906124ce565b60405180910390fd5b60008173ffffffffffffffffffffffffffffffffffffffff16476040516109ce90612241565b60006040518083038185875af1925050503d8060008114610a0b576040519150601f19603f3d011682016040523d82523d6000602084013e610a10565b606091505b5050905080610a54576040517f08c379a0000000000000000000000000000000000000000000000000000000008152600401610a4b9061246e565b60405180910390fd5b5050565b610a60611a6c565b73ffffffffffffffffffffffffffffffffffffffff16610a7e610bf4565b73ffffffffffffffffffffffffffffffffffffffff1614610ad4576040517f08c379a0000000000000000000000000000000000000000000000000000000008152600401610acb906124ce565b60405180910390fd5b60008290508073ffffffffffffffffffffffffffffffffffffffff1663a9059cbb838373ffffffffffffffffffffffffffffffffffffffff166370a08231306040518263ffffffff1660e01b8152600401610b2f9190612256565b60206040518083038186803b158015610b4757600080fd5b505afa158015610b5b573d6000803e3d6000fd5b505050506040513d601f19601f82011682018060405250810190610b7f9190611ceb565b6040518363ffffffff1660e01b8152600401610b9c929190612271565b602060405180830381600087803b158015610bb657600080fd5b505af1158015610bca573d6000803e3d6000fd5b505050506040513d601f19601f82011682018060405250810190610bee9190611c99565b50505050565b60008060009054906101000a900473ffffffffffffffffffffffffffffffffffffffff16905090565b600181565b600c5481565b6000429050600a60009054906101000a900460ff16610c7c576040517f08c379a0000000000000000000000000000000000000000000000000000000008152600401610c739061256e565b60405180910390fd5b600960003373ffffffffffffffffffffffffffffffffffffffff1673ffffffffffffffffffffffffffffffffffffffff16815260200190815260200160002060000160009054906101000a900460ff16610d0b576040517f08c379a0000000000000000000000000000000000000000000000000000000008152600401610d029061238e565b60405180910390fd5b600960003373ffffffffffffffffffffffffffffffffffffffff1673ffffffffffffffffffffffffffffffffffffffff16815260200190815260200160002060020160009054906101000a900460ff1615610d9b576040517f08c379a0000000000000000000000000000000000000000000000000000000008152600401610d929061242e565b60405180910390fd5b8060085411158015610dc757506001600c610db691906127f1565b600854610dc391906125f9565b8111155b610e06576040517f08c379a0000000000000000000000000000000000000000000000000000000008152600401610dfd9061252e565b60405180910390fd5b60026001541415610e4c576040517f08c379a0000000000000000000000000000000000000000000000000000000008152600401610e439061254e565b60405180910390fd5b60026001819055506000600960003373ffffffffffffffffffffffffffffffffffffffff1673ffffffffffffffffffffffffffffffffffffffff1681526020019081526020016000209050600080610ea78360010154610604565b9150915060008114158015610ebd575060008214155b610efc576040517f08c379a0000000000000000000000000000000000000000000000000000000008152600401610ef3906124ee565b60405180910390fd5b348114610f3e576040517f08c379a0000000000000000000000000000000000000000000000000000000008152600401610f359061236e565b60405180910390fd5b60018360020160006101000a81548160ff021916908315150217905550600460009054906101000a900473ffffffffffffffffffffffffffffffffffffffff1673ffffffffffffffffffffffffffffffffffffffff1663a9059cbb33846040518363ffffffff1660e01b8152600401610fb8929190612271565b602060405180830381600087803b158015610fd257600080fd5b505af1158015610fe6573d6000803e3d6000fd5b505050506040513d601f19601f8201168201806040525081019061100a9190611c99565b503373ffffffffffffffffffffffffffffffffffffffff167f12cb4648cf3058b17ceeb33e579f8b0bc269fe0843f3900b8e24b6c54871703c83836040516110539291906125a9565b60405180910390a25050506001808190555050565b6000600960008373ffffffffffffffffffffffffffffffffffffffff1673ffffffffffffffffffffffffffffffffffffffff168152602001908152602001600020600101549050919050565b60075481565b600160306110c891906127f1565b81565b600b81815481106110db57600080fd5b90600052602060002090600402016000915090508060000180546110fe9061291b565b80601f016020809104026020016040519081016040528092919081815260200182805461112a9061291b565b80156111775780601f1061114c57610100808354040283529160200191611177565b820191906000526020600020905b81548152906001019060200180831161115a57829003601f168201915b5050505050908060010154908060020154908060030154905084565b60055481565b600260009054906101000a900473ffffffffffffffffffffffffffffffffffffffff1681565b60065481565b600460009054906101000a900473ffffffffffffffffffffffffffffffffffffffff1681565b600360009054906101000a900473ffffffffffffffffffffffffffffffffffffffff1681565b6001601861121f91906127f1565b6001603061122d91906127f1565b61123791906125f9565b81565b6000429050600a60009054906101000a900460ff1661128e576040517f08c379a00000000000000000000000000000000000000000000000000000000081526004016112859061256e565b60405180910390fd5b600960003373ffffffffffffffffffffffffffffffffffffffff1673ffffffffffffffffffffffffffffffffffffffff16815260200190815260200160002060000160009054906101000a900460ff161561131e576040517f08c379a0000000000000000000000000000000000000000000000000000000008152600401611315906123ce565b60405180910390fd5b806007541115801561134a57506001603061133991906127f1565b60075461134691906125f9565b8111155b611389576040517f08c379a00000000000000000000000000000000000000000000000000000000081526004016113809061250e565b60405180910390fd5b818060011115801561139c575060058111155b6113db576040517f08c379a00000000000000000000000000000000000000000000000000000000081526004016113d2906123ee565b60405180910390fd5b6000600260009054906101000a900473ffffffffffffffffffffffffffffffffffffffff1673ffffffffffffffffffffffffffffffffffffffff166360217267336040518263ffffffff1660e01b81526004016114389190612256565b60206040518083038186803b15801561145057600080fd5b505afa158015611464573d6000803e3d6000fd5b505050506040513d601f19601f820116820180604052508101906114889190611ceb565b905080600b83815481106114c5577f4e487b7100000000000000000000000000000000000000000000000000000000600052603260045260246000fd5b9060005260206000209060040201600101541115611518576040517f08c379a000000000000000000000000000000000000000000000000000000000815260040161150f9061244e565b60405180910390fd5b6002600154141561155e576040517f08c379a00000000000000000000000000000000000000000000000000000000081526004016115559061254e565b60405180910390fd5b6002600181905550600260009054906101000a900473ffffffffffffffffffffffffffffffffffffffff1673ffffffffffffffffffffffffffffffffffffffff1663282d3fdf33600160a86115b391906127f1565b426115be91906125f9565b6040518363ffffffff1660e01b81526004016115db929190612271565b600060405180830381600087803b1580156115f557600080fd5b505af1158015611609573d6000803e3d6000fd5b505050506116173385611a74565b6001808190555050505050565b61162c611a6c565b73ffffffffffffffffffffffffffffffffffffffff1661164a610bf4565b73ffffffffffffffffffffffffffffffffffffffff16146116a0576040517f08c379a0000000000000000000000000000000000000000000000000000000008152600401611697906124ce565b60405180910390fd5b600073ffffffffffffffffffffffffffffffffffffffff168173ffffffffffffffffffffffffffffffffffffffff161415611710576040517f08c379a0000000000000000000000000000000000000000000000000000000008152600401611707906123ae565b60405180910390fd5b8073ffffffffffffffffffffffffffffffffffffffff1660008054906101000a900473ffffffffffffffffffffffffffffffffffffffff1673ffffffffffffffffffffffffffffffffffffffff167f8be0079c531659141344cd1fd0a4f28419497f9722a3daafe3b4186f6b6457e060405160405180910390a3806000806101000a81548173ffffffffffffffffffffffffffffffffffffffff021916908373ffffffffffffffffffffffffffffffffffffffff16021790555050565b60085481565b6117db611a6c565b73ffffffffffffffffffffffffffffffffffffffff166117f9610bf4565b73ffffffffffffffffffffffffffffffffffffffff161461184f576040517f08c379a0000000000000000000000000000000000000000000000000000000008152600401611846906124ce565b60405180910390fd5b600a60009054906101000a900460ff161561189f576040517f08c379a00000000000000000000000000000000000000000000000000000000081526004016118969061240e565b60405180910390fd5b428110156118e2576040517f08c379a00000000000000000000000000000000000000000000000000000000081526004016118d99061248e565b60405180910390fd5b80600781905550600160186118f791906127f1565b6001603061190591906127f1565b61190f91906125f9565b60075461191c91906125f9565b600881905550600554600460009054906101000a900473ffffffffffffffffffffffffffffffffffffffff1673ffffffffffffffffffffffffffffffffffffffff166370a08231306040518263ffffffff1660e01b81526004016119809190612256565b60206040518083038186803b15801561199857600080fd5b505afa1580156119ac573d6000803e3d6000fd5b505050506040513d601f19601f820116820180604052508101906119d09190611ceb565b1015611a11576040517f08c379a0000000000000000000000000000000000000000000000000000000008152600401611a08906124ae565b60405180910390fd5b7f537db03a5cf0f67e64e2a7515e45c28a71d041067e165fc95ee2ecde36e6532d600754600854604051611a469291906125a9565b60405180910390a16001600a60006101000a81548160ff02191690831515021790555050565b600033905090565b6001600960008473ffffffffffffffffffffffffffffffffffffffff1673ffffffffffffffffffffffffffffffffffffffff16815260200190815260200160002060000160006101000a81548160ff02191690831515021790555080600960008473ffffffffffffffffffffffffffffffffffffffff1673ffffffffffffffffffffffffffffffffffffffff168152602001908152602001600020600101819055506001600b8281548110611b52577f4e487b7100000000000000000000000000000000000000000000000000000000600052603260045260246000fd5b90600052602060002090600402016003016000828254611b7291906125f9565b925050819055503373ffffffffffffffffffffffffffffffffffffffff167ff6c60b059f60c86b2d612b237ac38bd87bc1f68f87600cd360d68351af1ca95f82604051611bbf919061258e565b60405180910390a25050565b600081359050611bda816129f8565b92915050565b600081519050611bef81612a0f565b92915050565b600081359050611c0481612a26565b92915050565b600081519050611c1981612a26565b92915050565b600081519050611c2e81612a3d565b92915050565b600060208284031215611c4657600080fd5b6000611c5484828501611bcb565b91505092915050565b60008060408385031215611c7057600080fd5b6000611c7e85828601611bcb565b9250506020611c8f85828601611bcb565b9150509250929050565b600060208284031215611cab57600080fd5b6000611cb984828501611be0565b91505092915050565b600060208284031215611cd457600080fd5b6000611ce284828501611bf5565b91505092915050565b600060208284031215611cfd57600080fd5b6000611d0b84828501611c0a565b91505092915050565b600060208284031215611d2657600080fd5b6000611d3484828501611c1f565b91505092915050565b611d468161284b565b82525050565b611d558161285d565b82525050565b611d64816128a0565b82525050565b611d73816128c4565b82525050565b6000611d84826125d2565b611d8e81856125e8565b9350611d9e8185602086016128e8565b611da7816129da565b840191505092915050565b6000611dbf6014836125e8565b91507f4e6f742056616c69642045746820416d6f756e740000000000000000000000006000830152602082019050919050565b6000611dff600e836125e8565b91507f4e6f7420726567697374657265640000000000000000000000000000000000006000830152602082019050919050565b6000611e3f6026836125e8565b91507f4f776e61626c653a206e6577206f776e657220697320746865207a65726f206160008301527f64647265737300000000000000000000000000000000000000000000000000006020830152604082019050919050565b6000611ea56012836125e8565b91507f416c7265616479207265676973746572656400000000000000000000000000006000830152602082019050919050565b6000611ee5600f836125e8565b91507f696e76616c696420506f6f6c206e6f00000000000000000000000000000000006000830152602082019050919050565b6000611f256013836125e8565b91507f416c726561647920496e697469616c697a6564000000000000000000000000006000830152602082019050919050565b6000611f656011836125e8565b91507f416c7265616479205075726368617365640000000000000000000000000000006000830152602082019050919050565b6000611fa5601d836125e8565b91507f43616e277420506172746963697061746520696e2074686520506f6f6c0000006000830152602082019050919050565b6000611fe56015836125e8565b91507f556e61626c6520546f205265636f7665722045746800000000000000000000006000830152602082019050919050565b60006120256014836125e8565b91507f49444f2043616e277420426520696e20506173740000000000000000000000006000830152602082019050919050565b6000612065601d836125e8565b91507f4e6f7420456e6f75676820546f6b656e7320496e20436f6e74726163740000006000830152602082019050919050565b60006120a56020836125e8565b91507f4f776e61626c653a2063616c6c6572206973206e6f7420746865206f776e65726000830152602082019050919050565b60006120e56014836125e8565b91507f56616c7565732043616e2774204265205a65726f0000000000000000000000006000830152602082019050919050565b6000612125601a836125e8565b91507f4e6f7420696e20526567697374726174696f6e20506572696f640000000000006000830152602082019050919050565b60006121656000836125dd565b9150600082019050919050565b600061217f6012836125e8565b91507f4e6f7420696e2053616c6520506572696f6400000000000000000000000000006000830152602082019050919050565b60006121bf601f836125e8565b91507f5265656e7472616e637947756172643a207265656e7472616e742063616c6c006000830152602082019050919050565b60006121ff6013836125e8565b91507f4e6f7420496e697469616c697a656420596574000000000000000000000000006000830152602082019050919050565b61223b81612889565b82525050565b600061224c82612158565b9150819050919050565b600060208201905061226b6000830184611d3d565b92915050565b60006040820190506122866000830185611d3d565b6122936020830184612232565b9392505050565b60006020820190506122af6000830184611d4c565b92915050565b60006060820190506122ca6000830186611d4c565b6122d76020830185612232565b6122e46040830184611d4c565b949350505050565b60006020820190506123016000830184611d5b565b92915050565b600060208201905061231c6000830184611d6a565b92915050565b6000608082019050818103600083015261233c8187611d79565b905061234b6020830186612232565b6123586040830185612232565b6123656060830184612232565b95945050505050565b6000602082019050818103600083015261238781611db2565b9050919050565b600060208201905081810360008301526123a781611df2565b9050919050565b600060208201905081810360008301526123c781611e32565b9050919050565b600060208201905081810360008301526123e781611e98565b9050919050565b6000602082019050818103600083015261240781611ed8565b9050919050565b6000602082019050818103600083015261242781611f18565b9050919050565b6000602082019050818103600083015261244781611f58565b9050919050565b6000602082019050818103600083015261246781611f98565b9050919050565b6000602082019050818103600083015261248781611fd8565b9050919050565b600060208201905081810360008301526124a781612018565b9050919050565b600060208201905081810360008301526124c781612058565b9050919050565b600060208201905081810360008301526124e781612098565b9050919050565b60006020820190508181036000830152612507816120d8565b9050919050565b6000602082019050818103600083015261252781612118565b9050919050565b6000602082019050818103600083015261254781612172565b9050919050565b60006020820190508181036000830152612567816121b2565b9050919050565b60006020820190508181036000830152612587816121f2565b9050919050565b60006020820190506125a36000830184612232565b92915050565b60006040820190506125be6000830185612232565b6125cb6020830184612232565b9392505050565b600081519050919050565b600081905092915050565b600082825260208201905092915050565b600061260482612889565b915061260f83612889565b9250827fffffffffffffffffffffffffffffffffffffffffffffffffffffffffffffffff038211156126445761264361294d565b5b828201905092915050565b600061265a82612889565b915061266583612889565b9250826126755761267461297c565b5b828204905092915050565b6000808291508390505b60018511156126ca578086048111156126a6576126a561294d565b5b60018516156126b55780820291505b80810290506126c3856129eb565b945061268a565b94509492505050565b60006126de82612889565b91506126e983612889565b92506127167fffffffffffffffffffffffffffffffffffffffffffffffffffffffffffffffff848461271e565b905092915050565b60008261272e57600190506127ea565b8161273c57600090506127ea565b8160018114612752576002811461275c5761278b565b60019150506127ea565b60ff84111561276e5761276d61294d565b5b8360020a9150848211156127855761278461294d565b5b506127ea565b5060208310610133831016604e8410600b84101617156127c05782820a9050838111156127bb576127ba61294d565b5b6127ea565b6127cd8484846001612680565b925090508184048111156127e4576127e361294d565b5b81810290505b9392505050565b60006127fc82612889565b915061280783612889565b9250817fffffffffffffffffffffffffffffffffffffffffffffffffffffffffffffffff04831182151516156128405761283f61294d565b5b828202905092915050565b600061285682612869565b9050919050565b60008115159050919050565b600073ffffffffffffffffffffffffffffffffffffffff82169050919050565b6000819050919050565b600060ff82169050919050565b60006128ab826128b2565b9050919050565b60006128bd82612869565b9050919050565b60006128cf826128d6565b9050919050565b60006128e182612869565b9050919050565b60005b838110156129065780820151818401526020810190506128eb565b83811115612915576000848401525b50505050565b6000600282049050600182168061293357607f821691505b60208210811415612947576129466129ab565b5b50919050565b7f4e487b7100000000000000000000000000000000000000000000000000000000600052601160045260246000fd5b7f4e487b7100000000000000000000000000000000000000000000000000000000600052601260045260246000fd5b7f4e487b7100000000000000000000000000000000000000000000000000000000600052602260045260246000fd5b6000601f19601f8301169050919050565b60008160011c9050919050565b612a018161284b565b8114612a0c57600080fd5b50565b612a188161285d565b8114612a2357600080fd5b50565b612a2f81612889565b8114612a3a57600080fd5b50565b612a4681612893565b8114612a5157600080fd5b5056fea26469706673582212200882c1071ab0bbab4b05596d2e1f9b40acd5442fb2bda3ec8ee3fa32ced4ea7e64736f6c63430008000033",
  "immutableReferences": {},
  "source": "// SPDX-License-Identifier: MIT\r\npragma solidity ^0.8.0;\r\n\r\nimport './../interfaces/IStaker.sol';\r\nimport \"@openzeppelin/contracts/token/ERC20/extensions/IERC20Metadata.sol\";\r\nimport \"@openzeppelin/contracts/access/Ownable.sol\";\r\nimport \"@openzeppelin/contracts/utils/Context.sol\";\r\nimport \"@openzeppelin/contracts/security/ReentrancyGuard.sol\";\r\n\r\ncontract IDO is Ownable, ReentrancyGuard {\r\n\r\n    IStaker public iStaker;\r\n    IERC20Metadata public nativeToken; // The token staked\r\n    IERC20Metadata public idoToken; // The token sale in iDO\r\n    uint256 public idoAmount; // Amount of Tokens to be Sold\r\n    uint256 public idoPrice; // Price of 1 Tokens in Wei\r\n\r\n    // Time Stamps\r\n    uint256 public constant unit = 1 seconds; // use seconds for testing\r\n    uint256 public constant lockDuration = 7 * 24 * unit;\r\n    uint256 public constant regDuration = 48 * unit;\r\n    uint256 public constant saleStartsAfter = regDuration + 24 * unit;\r\n    uint256 public constant saleDuration = 12 * unit;\r\n    uint256 public regStarts;\r\n    uint256 public saleStarts;\r\n\r\n    event Initialization(uint256 regStart, uint256 saleStart);\r\n    event Registration(address indexed account, uint256 poolNo);\r\n    event Purchase(address indexed, uint256 tokens, uint256 price);\r\n\r\n    struct UserLog {\r\n        bool isRegistered;\r\n        uint256 registeredPool;\r\n        bool purchased;\r\n    }\r\n    mapping(address => UserLog) public userlog;\r\n\r\n    bool public isInitialized;\r\n\r\n    struct PoolInfo {\r\n        string name;\r\n        uint256 minNativeToken; // min token required to particitate in the pool\r\n        uint256 weight;\r\n        uint256 participants;\r\n    } \r\n    PoolInfo[] public pools;\r\n    uint256 public totalWeight;\r\n\r\n    modifier verifyPool(uint256 _poolNo) {\r\n        require(1 <= _poolNo && _poolNo <= 5, \"invalid Pool no\");\r\n\r\n        uint256 stakedAmount = iStaker.stakedBalance(msg.sender);\r\n        require(pools[_poolNo].minNativeToken <= stakedAmount, \"Can't Participate in the Pool\");\r\n\r\n        _;\r\n    }\r\n\r\n    modifier validRegistration() {\r\n        uint256 t = block.timestamp;\r\n\r\n        require(isInitialized, \"Not Initialized Yet\");\r\n        require(!userlog[msg.sender].isRegistered, \"Already registered\");\r\n        require(regStarts <= t && t <= regStarts + regDuration, \"Not in Registration Period\");\r\n        _;\r\n    }\r\n\r\n    modifier validSale() {\r\n        uint256 t = block.timestamp;\r\n\r\n        require(isInitialized, \"Not Initialized Yet\");\r\n        require(userlog[msg.sender].isRegistered, \"Not registered\");\r\n        require(!userlog[msg.sender].purchased, \"Already Purchased\");\r\n        require(saleStarts <= t && t <= saleStarts + saleDuration, \"Not in Sale Period\");\r\n        _;\r\n    }\r\n\r\n    modifier notInitialized() {\r\n        require(!isInitialized, \"Already Initialized\");\r\n        _;\r\n        isInitialized = true;\r\n    }\r\n\r\n    constructor (\r\n        address _stakerAddress,\r\n        address _nativeTokenAddress,\r\n        address _idoTokenAddress,\r\n        uint256 _idoAmount,\r\n        uint256 _price\r\n    ) {\r\n        \r\n        iStaker = IStaker(_stakerAddress);\r\n        nativeToken = IERC20Metadata(_nativeTokenAddress);\r\n        idoToken = IERC20Metadata(_idoTokenAddress);\r\n        idoAmount = _idoAmount;\r\n        idoPrice = _price;\r\n\r\n        uint256 dec = uint256(nativeToken.decimals());\r\n        pools.push(PoolInfo(\"Null\", 0, 0, 0));\r\n        pools.push(PoolInfo(\"Knight\", 100 * 10**dec, 2, 0));\r\n        pools.push(PoolInfo(\"Bishop\", 500 * 10**dec, 3, 0));\r\n        pools.push(PoolInfo(\"Rook\", 1000 * 10**dec, 4, 0));\r\n        pools.push(PoolInfo(\"King\", 2000 * 10**dec, 5, 0));\r\n        pools.push(PoolInfo(\"Queen\", 4000 * 10**dec, 6, 0));\r\n        totalWeight = 20;\r\n\r\n    }\r\n\r\n    function initialize(uint256 time) external onlyOwner notInitialized {\r\n        require(time >= block.timestamp, \"IDO Can't Be in Past\");\r\n        regStarts = time;\r\n        saleStarts = regStarts + saleStartsAfter;\r\n        require(idoToken.balanceOf(address(this)) >= idoAmount, \"Not Enough Tokens In Contract\");\r\n\r\n        emit Initialization(regStarts, saleStarts);\r\n    }\r\n\r\n    function register(uint256 _poolNo) \r\n    external \r\n    validRegistration \r\n    verifyPool(_poolNo)\r\n    nonReentrant {\r\n        iStaker.lock(msg.sender, block.timestamp + lockDuration);\r\n        _register(msg.sender, _poolNo);\r\n    }\r\n\r\n    function _register(address account, uint256 _poolNo) internal {\r\n        userlog[account].isRegistered = true;\r\n        userlog[account].registeredPool = _poolNo;\r\n        pools[_poolNo].participants += 1;\r\n        \r\n\r\n        emit Registration(msg.sender, _poolNo);\r\n    }\r\n\r\n    function getPoolNo(address account) public view returns(uint256) {\r\n        return userlog[account].registeredPool;\r\n    }\r\n\r\n    function tokensAndPrice(uint256 _poolNo) public view returns(uint256, uint256) {\r\n\r\n        PoolInfo storage pool = pools[_poolNo];\r\n\r\n        if(_poolNo == 0 || pool.participants == 0) {\r\n            return (0, 0);\r\n        }\r\n        uint256 dec = uint256(idoToken.decimals());\r\n        uint256 tokenAmount = (idoAmount * pool.weight) / (totalWeight * pool.participants); // Token Amount per Participants\r\n        uint256 price = (tokenAmount * idoPrice) / (10 ** dec);\r\n\r\n        return (tokenAmount, price);\r\n    }\r\n\r\n    function buyNow() external \r\n    payable \r\n    validSale\r\n    nonReentrant {\r\n        UserLog storage usr = userlog[msg.sender];\r\n        (uint256 amount, uint256 price) = tokensAndPrice(usr.registeredPool);\r\n        require(price != 0 && amount != 0, \"Values Can't Be Zero\");\r\n        require(price == msg.value, \"Not Valid Eth Amount\");\r\n\r\n        usr.purchased = true;\r\n        idoToken.transfer(msg.sender, amount);\r\n\r\n        emit Purchase(msg.sender, amount, price);\r\n    }\r\n\r\n    function recoverEth(address to) external onlyOwner {\r\n        (bool sent,) = address(to).call{value : address(this).balance}(\"\");\r\n        require(sent, 'Unable To Recover Eth');\r\n    }\r\n\r\n    function recoverERC20(\r\n        address tokenAddress, \r\n        address to\r\n    ) external onlyOwner {\r\n        IERC20Metadata tok = IERC20Metadata(tokenAddress);\r\n        tok.transfer(to, tok.balanceOf(address(this)));\r\n    }\r\n\r\n}",
  "sourcePath": "C:\\Users\\sudip\\Desktop\\RealProjects\\PolyStarter\\contracts\\IDOStaker\\IDO.sol",
  "compiler": {
    "name": "solc",
    "version": "0.8.0+commit.c7dfd78e.Emscripten.clang"
  },
  "schemaVersion": "3.3.4",
  "updatedAt": "2021-06-10T18:17:22.054Z",
  "devdoc": {
    "kind": "dev",
    "methods": {
      "owner()": {
        "details": "Returns the address of the current owner."
      },
      "renounceOwnership()": {
        "details": "Leaves the contract without owner. It will not be possible to call `onlyOwner` functions anymore. Can only be called by the current owner. NOTE: Renouncing ownership will leave the contract without an owner, thereby removing any functionality that is only available to the owner."
      },
      "transferOwnership(address)": {
        "details": "Transfers ownership of the contract to a new account (`newOwner`). Can only be called by the current owner."
      }
    },
    "version": 1
  },
  "userdoc": {
    "kind": "user",
    "methods": {},
    "version": 1
  }
}