{
  "contractName": "PolyFarm",
  "abi": [
    {
      "inputs": [
        {
          "internalType": "address",
          "name": "_rewardsToken",
          "type": "address"
        },
        {
          "internalType": "address",
          "name": "_stakingToken",
          "type": "address"
        }
      ],
      "stateMutability": "nonpayable",
      "type": "constructor"
    },
    {
      "anonymous": false,
      "inputs": [
        {
          "indexed": true,
          "internalType": "address",
          "name": "previousOwner",
          "type": "address"
        },
        {
          "indexed": true,
          "internalType": "address",
          "name": "newOwner",
          "type": "address"
        }
      ],
      "name": "OwnershipTransferred",
      "type": "event"
    },
    {
      "anonymous": false,
      "inputs": [
        {
          "indexed": false,
          "internalType": "address",
          "name": "account",
          "type": "address"
        }
      ],
      "name": "Paused",
      "type": "event"
    },
    {
      "anonymous": false,
      "inputs": [
        {
          "indexed": false,
          "internalType": "address",
          "name": "token",
          "type": "address"
        },
        {
          "indexed": false,
          "internalType": "uint256",
          "name": "amount",
          "type": "uint256"
        }
      ],
      "name": "Recovered",
      "type": "event"
    },
    {
      "anonymous": false,
      "inputs": [
        {
          "indexed": false,
          "internalType": "uint256",
          "name": "reward",
          "type": "uint256"
        }
      ],
      "name": "RewardAdded",
      "type": "event"
    },
    {
      "anonymous": false,
      "inputs": [
        {
          "indexed": true,
          "internalType": "address",
          "name": "user",
          "type": "address"
        },
        {
          "indexed": false,
          "internalType": "uint256",
          "name": "reward",
          "type": "uint256"
        }
      ],
      "name": "RewardPaid",
      "type": "event"
    },
    {
      "anonymous": false,
      "inputs": [
        {
          "indexed": false,
          "internalType": "uint256",
          "name": "newDuration",
          "type": "uint256"
        }
      ],
      "name": "RewardsDurationUpdated",
      "type": "event"
    },
    {
      "anonymous": false,
      "inputs": [
        {
          "indexed": true,
          "internalType": "address",
          "name": "user",
          "type": "address"
        },
        {
          "indexed": false,
          "internalType": "uint256",
          "name": "amount",
          "type": "uint256"
        }
      ],
      "name": "Staked",
      "type": "event"
    },
    {
      "anonymous": false,
      "inputs": [
        {
          "indexed": false,
          "internalType": "address",
          "name": "account",
          "type": "address"
        }
      ],
      "name": "Unpaused",
      "type": "event"
    },
    {
      "anonymous": false,
      "inputs": [
        {
          "indexed": true,
          "internalType": "address",
          "name": "user",
          "type": "address"
        },
        {
          "indexed": false,
          "internalType": "uint256",
          "name": "amount",
          "type": "uint256"
        }
      ],
      "name": "Withdrawn",
      "type": "event"
    },
    {
      "inputs": [],
      "name": "lastUpdateTime",
      "outputs": [
        {
          "internalType": "uint256",
          "name": "",
          "type": "uint256"
        }
      ],
      "stateMutability": "view",
      "type": "function"
    },
    {
      "inputs": [],
      "name": "maxSatking",
      "outputs": [
        {
          "internalType": "uint256",
          "name": "",
          "type": "uint256"
        }
      ],
      "stateMutability": "view",
      "type": "function"
    },
    {
      "inputs": [],
      "name": "owner",
      "outputs": [
        {
          "internalType": "address",
          "name": "",
          "type": "address"
        }
      ],
      "stateMutability": "view",
      "type": "function"
    },
    {
      "inputs": [],
      "name": "paused",
      "outputs": [
        {
          "internalType": "bool",
          "name": "",
          "type": "bool"
        }
      ],
      "stateMutability": "view",
      "type": "function"
    },
    {
      "inputs": [],
      "name": "periodFinish",
      "outputs": [
        {
          "internalType": "uint256",
          "name": "",
          "type": "uint256"
        }
      ],
      "stateMutability": "view",
      "type": "function"
    },
    {
      "inputs": [],
      "name": "renounceOwnership",
      "outputs": [],
      "stateMutability": "nonpayable",
      "type": "function"
    },
    {
      "inputs": [],
      "name": "rewardPerTokenStored",
      "outputs": [
        {
          "internalType": "uint256",
          "name": "",
          "type": "uint256"
        }
      ],
      "stateMutability": "view",
      "type": "function"
    },
    {
      "inputs": [],
      "name": "rewardRate",
      "outputs": [
        {
          "internalType": "uint256",
          "name": "",
          "type": "uint256"
        }
      ],
      "stateMutability": "view",
      "type": "function"
    },
    {
      "inputs": [
        {
          "internalType": "address",
          "name": "",
          "type": "address"
        }
      ],
      "name": "rewards",
      "outputs": [
        {
          "internalType": "uint256",
          "name": "",
          "type": "uint256"
        }
      ],
      "stateMutability": "view",
      "type": "function"
    },
    {
      "inputs": [],
      "name": "rewardsDuration",
      "outputs": [
        {
          "internalType": "uint256",
          "name": "",
          "type": "uint256"
        }
      ],
      "stateMutability": "view",
      "type": "function"
    },
    {
      "inputs": [],
      "name": "rewardsToken",
      "outputs": [
        {
          "internalType": "contract IERC20",
          "name": "",
          "type": "address"
        }
      ],
      "stateMutability": "view",
      "type": "function"
    },
    {
      "inputs": [],
      "name": "stakingToken",
      "outputs": [
        {
          "internalType": "contract IERC20",
          "name": "",
          "type": "address"
        }
      ],
      "stateMutability": "view",
      "type": "function"
    },
    {
      "inputs": [
        {
          "internalType": "address",
          "name": "newOwner",
          "type": "address"
        }
      ],
      "name": "transferOwnership",
      "outputs": [],
      "stateMutability": "nonpayable",
      "type": "function"
    },
    {
      "inputs": [
        {
          "internalType": "address",
          "name": "",
          "type": "address"
        }
      ],
      "name": "userRewardPerTokenPaid",
      "outputs": [
        {
          "internalType": "uint256",
          "name": "",
          "type": "uint256"
        }
      ],
      "stateMutability": "view",
      "type": "function"
    },
    {
      "inputs": [],
      "name": "totalSupply",
      "outputs": [
        {
          "internalType": "uint256",
          "name": "",
          "type": "uint256"
        }
      ],
      "stateMutability": "view",
      "type": "function"
    },
    {
      "inputs": [
        {
          "internalType": "address",
          "name": "account",
          "type": "address"
        }
      ],
      "name": "balanceOf",
      "outputs": [
        {
          "internalType": "uint256",
          "name": "",
          "type": "uint256"
        }
      ],
      "stateMutability": "view",
      "type": "function"
    },
    {
      "inputs": [],
      "name": "lastTimeRewardApplicable",
      "outputs": [
        {
          "internalType": "uint256",
          "name": "",
          "type": "uint256"
        }
      ],
      "stateMutability": "view",
      "type": "function"
    },
    {
      "inputs": [],
      "name": "rewardPerToken",
      "outputs": [
        {
          "internalType": "uint256",
          "name": "",
          "type": "uint256"
        }
      ],
      "stateMutability": "view",
      "type": "function"
    },
    {
      "inputs": [
        {
          "internalType": "address",
          "name": "account",
          "type": "address"
        }
      ],
      "name": "earned",
      "outputs": [
        {
          "internalType": "uint256",
          "name": "",
          "type": "uint256"
        }
      ],
      "stateMutability": "view",
      "type": "function"
    },
    {
      "inputs": [],
      "name": "getRewardForDuration",
      "outputs": [
        {
          "internalType": "uint256",
          "name": "",
          "type": "uint256"
        }
      ],
      "stateMutability": "view",
      "type": "function"
    },
    {
      "inputs": [
        {
          "internalType": "uint256",
          "name": "a",
          "type": "uint256"
        },
        {
          "internalType": "uint256",
          "name": "b",
          "type": "uint256"
        }
      ],
      "name": "min",
      "outputs": [
        {
          "internalType": "uint256",
          "name": "",
          "type": "uint256"
        }
      ],
      "stateMutability": "pure",
      "type": "function"
    },
    {
      "inputs": [
        {
          "internalType": "uint256",
          "name": "amount",
          "type": "uint256"
        }
      ],
      "name": "stake",
      "outputs": [],
      "stateMutability": "nonpayable",
      "type": "function"
    },
    {
      "inputs": [
        {
          "internalType": "uint256",
          "name": "amount",
          "type": "uint256"
        }
      ],
      "name": "withdraw",
      "outputs": [],
      "stateMutability": "nonpayable",
      "type": "function"
    },
    {
      "inputs": [],
      "name": "getReward",
      "outputs": [],
      "stateMutability": "nonpayable",
      "type": "function"
    },
    {
      "inputs": [],
      "name": "exit",
      "outputs": [],
      "stateMutability": "nonpayable",
      "type": "function"
    },
    {
      "inputs": [
        {
          "internalType": "uint256",
          "name": "reward",
          "type": "uint256"
        }
      ],
      "name": "notifyRewardAmount",
      "outputs": [],
      "stateMutability": "nonpayable",
      "type": "function"
    },
    {
      "inputs": [
        {
          "internalType": "address",
          "name": "tokenAddress",
          "type": "address"
        },
        {
          "internalType": "uint256",
          "name": "tokenAmount",
          "type": "uint256"
        }
      ],
      "name": "recoverERC20",
      "outputs": [],
      "stateMutability": "nonpayable",
      "type": "function"
    },
    {
      "inputs": [
        {
          "internalType": "uint256",
          "name": "_rewardsDuration",
          "type": "uint256"
        }
      ],
      "name": "setRewardsDuration",
      "outputs": [],
      "stateMutability": "nonpayable",
      "type": "function"
    },
    {
      "inputs": [
        {
          "internalType": "bool",
          "name": "_paused",
          "type": "bool"
        }
      ],
      "name": "setPaused",
      "outputs": [],
      "stateMutability": "nonpayable",
      "type": "function"
    }
  ],
  "bytecode": "0x60806040526000196004556000600555600060065562278d006007553480156200002857600080fd5b50604051620030103803806200301083398181016040528101906200004e9190620001ca565b60016000819055506000600160006101000a81548160ff021916908315150217905550600062000083620001ab60201b60201c565b9050806001806101000a81548173ffffffffffffffffffffffffffffffffffffffff021916908373ffffffffffffffffffffffffffffffffffffffff1602179055508073ffffffffffffffffffffffffffffffffffffffff16600073ffffffffffffffffffffffffffffffffffffffff167f8be0079c531659141344cd1fd0a4f28419497f9722a3daafe3b4186f6b6457e060405160405180910390a35081600260006101000a81548173ffffffffffffffffffffffffffffffffffffffff021916908373ffffffffffffffffffffffffffffffffffffffff16021790555080600360006101000a81548173ffffffffffffffffffffffffffffffffffffffff021916908373ffffffffffffffffffffffffffffffffffffffff160217905550505062000259565b600033905090565b600081519050620001c4816200023f565b92915050565b60008060408385031215620001de57600080fd5b6000620001ee85828601620001b3565b92505060206200020185828601620001b3565b9150509250929050565b600062000218826200021f565b9050919050565b600073ffffffffffffffffffffffffffffffffffffffff82169050919050565b6200024a816200020b565b81146200025657600080fd5b50565b612da780620002696000396000f3fe608060405234801561001057600080fd5b50600436106101ce5760003560e01c80637b0a47ee11610104578063c8f33c91116100a2578063df136d6511610071578063df136d65146104e7578063e9fad8ee14610505578063ebe2b12b1461050f578063f2fde38b1461052d576101ce565b8063c8f33c9114610471578063cc1a378f1461048f578063cd3daf9d146104ab578063d1af0c7d146104c9576101ce565b80638b876347116100de5780638b876347146103e95780638da5cb5b1461041957806399770ead14610437578063a694fc3a14610455576101ce565b80637b0a47ee1461039157806380faa57d146103af5780638980f11f146103cd576101ce565b80633c6b16ab1161017157806370a082311161014b57806370a0823114610309578063715018a61461033957806372f702f3146103435780637ae2b5c714610361576101ce565b80633c6b16ab146102c55780633d18b912146102e15780635c975abb146102eb576101ce565b806318160ddd116101ad57806318160ddd1461024f5780631c1f78eb1461026d5780632e1a7d4d1461028b578063386a9525146102a7576101ce565b80628cc262146101d35780630700037d1461020357806316c38b3c14610233575b600080fd5b6101ed60048036038101906101e89190612223565b610549565b6040516101fa9190612abc565b60405180910390f35b61021d60048036038101906102189190612223565b610667565b60405161022a9190612abc565b60405180910390f35b61024d60048036038101906102489190612288565b61067f565b005b61025761071a565b6040516102649190612abc565b60405180910390f35b610275610724565b6040516102829190612abc565b60405180910390f35b6102a560048036038101906102a091906122da565b610742565b005b6102af610a0e565b6040516102bc9190612abc565b60405180910390f35b6102df60048036038101906102da91906122da565b610a14565b005b6102e9610d66565b005b6102f3610fd2565b60405161030091906128c4565b60405180910390f35b610323600480360381019061031e9190612223565b610fe9565b6040516103309190612abc565b60405180910390f35b610341611032565b005b61034b61116c565b60405161035891906128df565b60405180910390f35b61037b6004803603810190610376919061232c565b611192565b6040516103889190612abc565b60405180910390f35b6103996111ab565b6040516103a69190612abc565b60405180910390f35b6103b76111b1565b6040516103c49190612abc565b60405180910390f35b6103e760048036038101906103e2919061224c565b6111c4565b005b61040360048036038101906103fe9190612223565b61139a565b6040516104109190612abc565b60405180910390f35b6104216113b2565b60405161042e9190612849565b60405180910390f35b61043f6113da565b60405161044c9190612abc565b60405180910390f35b61046f600480360381019061046a91906122da565b6113e0565b005b6104796118d6565b6040516104869190612abc565b60405180910390f35b6104a960048036038101906104a491906122da565b6118dc565b005b6104b36119df565b6040516104c09190612abc565b60405180910390f35b6104d1611a6d565b6040516104de91906128df565b60405180910390f35b6104ef611a93565b6040516104fc9190612abc565b60405180910390f35b61050d611a99565b005b610517611aeb565b6040516105249190612abc565b60405180910390f35b61054760048036038101906105429190612223565b611af1565b005b6000610660600b60008473ffffffffffffffffffffffffffffffffffffffff1673ffffffffffffffffffffffffffffffffffffffff16815260200190815260200160002054610652670de0b6b3a76400006106446105f6600a60008973ffffffffffffffffffffffffffffffffffffffff1673ffffffffffffffffffffffffffffffffffffffff168152602001908152602001600020546105e86119df565b611c9a90919063ffffffff16565b600d60008973ffffffffffffffffffffffffffffffffffffffff1673ffffffffffffffffffffffffffffffffffffffff16815260200190815260200160002054611cb090919063ffffffff16565b611cc690919063ffffffff16565b611cdc90919063ffffffff16565b9050919050565b600b6020528060005260406000206000915090505481565b610687611cf2565b73ffffffffffffffffffffffffffffffffffffffff166106a56113b2565b73ffffffffffffffffffffffffffffffffffffffff16146106fb576040517f08c379a00000000000000000000000000000000000000000000000000000000081526004016106f2906129fc565b60405180910390fd5b801561070e57610709611cfa565b610717565b610716611d9c565b5b50565b6000600c54905090565b600061073d600754600654611cb090919063ffffffff16565b905090565b60026000541415610788576040517f08c379a000000000000000000000000000000000000000000000000000000000815260040161077f90612a9c565b60405180910390fd5b6002600081905550336107996119df565b6009819055506107a76111b1565b600881905550600073ffffffffffffffffffffffffffffffffffffffff168173ffffffffffffffffffffffffffffffffffffffff1614610874576107ea81610549565b600b60008373ffffffffffffffffffffffffffffffffffffffff1673ffffffffffffffffffffffffffffffffffffffff16815260200190815260200160002081905550600954600a60008373ffffffffffffffffffffffffffffffffffffffff1673ffffffffffffffffffffffffffffffffffffffff168152602001908152602001600020819055505b600082116108b7576040517f08c379a00000000000000000000000000000000000000000000000000000000081526004016108ae906129dc565b60405180910390fd5b6108cc82600c54611c9a90919063ffffffff16565b600c8190555061092482600d60003373ffffffffffffffffffffffffffffffffffffffff1673ffffffffffffffffffffffffffffffffffffffff16815260200190815260200160002054611c9a90919063ffffffff16565b600d60003373ffffffffffffffffffffffffffffffffffffffff1673ffffffffffffffffffffffffffffffffffffffff168152602001908152602001600020819055506109b43383600360009054906101000a900473ffffffffffffffffffffffffffffffffffffffff1673ffffffffffffffffffffffffffffffffffffffff16611e3e9092919063ffffffff16565b3373ffffffffffffffffffffffffffffffffffffffff167f7084f5476618d8e60b11ef0d7d3f06914655adb8793e28ff7f018d4c76d505d5836040516109fa9190612abc565b60405180910390a250600160008190555050565b60075481565b610a1c611cf2565b73ffffffffffffffffffffffffffffffffffffffff16610a3a6113b2565b73ffffffffffffffffffffffffffffffffffffffff1614610a90576040517f08c379a0000000000000000000000000000000000000000000000000000000008152600401610a87906129fc565b60405180910390fd5b6000610a9a6119df565b600981905550610aa86111b1565b600881905550600073ffffffffffffffffffffffffffffffffffffffff168173ffffffffffffffffffffffffffffffffffffffff1614610b7557610aeb81610549565b600b60008373ffffffffffffffffffffffffffffffffffffffff1673ffffffffffffffffffffffffffffffffffffffff16815260200190815260200160002081905550600954600a60008373ffffffffffffffffffffffffffffffffffffffff1673ffffffffffffffffffffffffffffffffffffffff168152602001908152602001600020819055505b6005544210610b9e57610b9360075483611cc690919063ffffffff16565b600681905550610c00565b6000610bb542600554611c9a90919063ffffffff16565b90506000610bce60065483611cb090919063ffffffff16565b9050610bf7600754610be98387611cdc90919063ffffffff16565b611cc690919063ffffffff16565b60068190555050505b6000600260009054906101000a900473ffffffffffffffffffffffffffffffffffffffff1673ffffffffffffffffffffffffffffffffffffffff166370a08231306040518263ffffffff1660e01b8152600401610c5d9190612849565b60206040518083038186803b158015610c7557600080fd5b505afa158015610c89573d6000803e3d6000fd5b505050506040513d601f19601f82011682018060405250810190610cad9190612303565b9050610cc460075482611cc690919063ffffffff16565b6006541115610d08576040517f08c379a0000000000000000000000000000000000000000000000000000000008152600401610cff90612a1c565b60405180910390fd5b42600881905550610d2460075442611cdc90919063ffffffff16565b6005819055507fde88a922e0d3b88b24e9623efeb464919c6bf9f66857a65e2bfcf2ce87a9433d83604051610d599190612abc565b60405180910390a1505050565b60026000541415610dac576040517f08c379a0000000000000000000000000000000000000000000000000000000008152600401610da390612a9c565b60405180910390fd5b600260008190555033610dbd6119df565b600981905550610dcb6111b1565b600881905550600073ffffffffffffffffffffffffffffffffffffffff168173ffffffffffffffffffffffffffffffffffffffff1614610e9857610e0e81610549565b600b60008373ffffffffffffffffffffffffffffffffffffffff1673ffffffffffffffffffffffffffffffffffffffff16815260200190815260200160002081905550600954600a60008373ffffffffffffffffffffffffffffffffffffffff1673ffffffffffffffffffffffffffffffffffffffff168152602001908152602001600020819055505b6000600b60003373ffffffffffffffffffffffffffffffffffffffff1673ffffffffffffffffffffffffffffffffffffffff1681526020019081526020016000205490506000811115610fc6576000600b60003373ffffffffffffffffffffffffffffffffffffffff1673ffffffffffffffffffffffffffffffffffffffff16815260200190815260200160002081905550610f773382600260009054906101000a900473ffffffffffffffffffffffffffffffffffffffff1673ffffffffffffffffffffffffffffffffffffffff16611e3e9092919063ffffffff16565b3373ffffffffffffffffffffffffffffffffffffffff167fe2403640ba68fed3a2f88b7557551d1993f84b99bb10ff833f0cf8db0c5e048682604051610fbd9190612abc565b60405180910390a25b50506001600081905550565b6000600160009054906101000a900460ff16905090565b6000600d60008373ffffffffffffffffffffffffffffffffffffffff1673ffffffffffffffffffffffffffffffffffffffff168152602001908152602001600020549050919050565b61103a611cf2565b73ffffffffffffffffffffffffffffffffffffffff166110586113b2565b73ffffffffffffffffffffffffffffffffffffffff16146110ae576040517f08c379a00000000000000000000000000000000000000000000000000000000081526004016110a5906129fc565b60405180910390fd5b600073ffffffffffffffffffffffffffffffffffffffff1660018054906101000a900473ffffffffffffffffffffffffffffffffffffffff1673ffffffffffffffffffffffffffffffffffffffff167f8be0079c531659141344cd1fd0a4f28419497f9722a3daafe3b4186f6b6457e060405160405180910390a360006001806101000a81548173ffffffffffffffffffffffffffffffffffffffff021916908373ffffffffffffffffffffffffffffffffffffffff160217905550565b600360009054906101000a900473ffffffffffffffffffffffffffffffffffffffff1681565b60008183106111a157816111a3565b825b905092915050565b60065481565b60006111bf42600554611192565b905090565b6111cc611cf2565b73ffffffffffffffffffffffffffffffffffffffff166111ea6113b2565b73ffffffffffffffffffffffffffffffffffffffff1614611240576040517f08c379a0000000000000000000000000000000000000000000000000000000008152600401611237906129fc565b60405180910390fd5b600360009054906101000a900473ffffffffffffffffffffffffffffffffffffffff1673ffffffffffffffffffffffffffffffffffffffff168273ffffffffffffffffffffffffffffffffffffffff16141580156112ec5750600260009054906101000a900473ffffffffffffffffffffffffffffffffffffffff1673ffffffffffffffffffffffffffffffffffffffff168273ffffffffffffffffffffffffffffffffffffffff1614155b61132b576040517f08c379a000000000000000000000000000000000000000000000000000000000815260040161132290612a5c565b60405180910390fd5b61135d6113366113b2565b828473ffffffffffffffffffffffffffffffffffffffff16611e3e9092919063ffffffff16565b7f8c1256b8896378cd5044f80c202f9772b9d77dc85c8a6eb51967210b09bfaa28828260405161138e92919061289b565b60405180910390a15050565b600a6020528060005260406000206000915090505481565b600060018054906101000a900473ffffffffffffffffffffffffffffffffffffffff16905090565b60045481565b80600061143582600d60003373ffffffffffffffffffffffffffffffffffffffff1673ffffffffffffffffffffffffffffffffffffffff16815260200190815260200160002054611cdc90919063ffffffff16565b905060045481111561144657600080fd5b6002600054141561148c576040517f08c379a000000000000000000000000000000000000000000000000000000000815260040161148390612a9c565b60405180910390fd5b600260008190555061149c610fd2565b156114dc576040517f08c379a00000000000000000000000000000000000000000000000000000000081526004016114d3906129bc565b60405180910390fd5b336114e56119df565b6009819055506114f36111b1565b600881905550600073ffffffffffffffffffffffffffffffffffffffff168173ffffffffffffffffffffffffffffffffffffffff16146115c05761153681610549565b600b60008373ffffffffffffffffffffffffffffffffffffffff1673ffffffffffffffffffffffffffffffffffffffff16815260200190815260200160002081905550600954600a60008373ffffffffffffffffffffffffffffffffffffffff1673ffffffffffffffffffffffffffffffffffffffff168152602001908152602001600020819055505b60008411611603576040517f08c379a00000000000000000000000000000000000000000000000000000000081526004016115fa9061297c565b60405180910390fd5b61161884600c54611cdc90919063ffffffff16565b600c819055506000600360009054906101000a900473ffffffffffffffffffffffffffffffffffffffff1673ffffffffffffffffffffffffffffffffffffffff166370a08231306040518263ffffffff1660e01b815260040161167b9190612849565b60206040518083038186803b15801561169357600080fd5b505afa1580156116a7573d6000803e3d6000fd5b505050506040513d601f19601f820116820180604052508101906116cb9190612303565b905061171c333087600360009054906101000a900473ffffffffffffffffffffffffffffffffffffffff1673ffffffffffffffffffffffffffffffffffffffff16611ec4909392919063ffffffff16565b6000600360009054906101000a900473ffffffffffffffffffffffffffffffffffffffff1673ffffffffffffffffffffffffffffffffffffffff166370a08231306040518263ffffffff1660e01b81526004016117799190612849565b60206040518083038186803b15801561179157600080fd5b505afa1580156117a5573d6000803e3d6000fd5b505050506040513d601f19601f820116820180604052508101906117c99190612303565b905060006117e08383611c9a90919063ffffffff16565b905061183481600d60003373ffffffffffffffffffffffffffffffffffffffff1673ffffffffffffffffffffffffffffffffffffffff16815260200190815260200160002054611cdc90919063ffffffff16565b600d60003373ffffffffffffffffffffffffffffffffffffffff1673ffffffffffffffffffffffffffffffffffffffff168152602001908152602001600020819055503373ffffffffffffffffffffffffffffffffffffffff167f9e71bc8eea02a63969f509818f2dafb9254532904319f9dbda79b67bd34a5f3d886040516118bd9190612abc565b60405180910390a2505050506001600081905550505050565b60085481565b6118e4611cf2565b73ffffffffffffffffffffffffffffffffffffffff166119026113b2565b73ffffffffffffffffffffffffffffffffffffffff1614611958576040517f08c379a000000000000000000000000000000000000000000000000000000000815260040161194f906129fc565b60405180910390fd5b600554421161199c576040517f08c379a00000000000000000000000000000000000000000000000000000000081526004016119939061291c565b60405180910390fd5b806007819055507ffb46ca5a5e06d4540d6387b930a7c978bce0db5f449ec6b3f5d07c6e1d44f2d36007546040516119d49190612abc565b60405180910390a150565b600080600c5414156119f5576009549050611a6a565b611a67611a56600c54611a48670de0b6b3a7640000611a3a600654611a2c600854611a1e6111b1565b611c9a90919063ffffffff16565b611cb090919063ffffffff16565b611cb090919063ffffffff16565b611cc690919063ffffffff16565b600954611cdc90919063ffffffff16565b90505b90565b600260009054906101000a900473ffffffffffffffffffffffffffffffffffffffff1681565b60095481565b611ae1600d60003373ffffffffffffffffffffffffffffffffffffffff1673ffffffffffffffffffffffffffffffffffffffff16815260200190815260200160002054610742565b611ae9610d66565b565b60055481565b611af9611cf2565b73ffffffffffffffffffffffffffffffffffffffff16611b176113b2565b73ffffffffffffffffffffffffffffffffffffffff1614611b6d576040517f08c379a0000000000000000000000000000000000000000000000000000000008152600401611b64906129fc565b60405180910390fd5b600073ffffffffffffffffffffffffffffffffffffffff168173ffffffffffffffffffffffffffffffffffffffff161415611bdd576040517f08c379a0000000000000000000000000000000000000000000000000000000008152600401611bd49061295c565b60405180910390fd5b8073ffffffffffffffffffffffffffffffffffffffff1660018054906101000a900473ffffffffffffffffffffffffffffffffffffffff1673ffffffffffffffffffffffffffffffffffffffff167f8be0079c531659141344cd1fd0a4f28419497f9722a3daafe3b4186f6b6457e060405160405180910390a3806001806101000a81548173ffffffffffffffffffffffffffffffffffffffff021916908373ffffffffffffffffffffffffffffffffffffffff16021790555050565b60008183611ca89190612bea565b905092915050565b60008183611cbe9190612b90565b905092915050565b60008183611cd49190612b5f565b905092915050565b60008183611cea9190612b09565b905092915050565b600033905090565b611d02610fd2565b15611d42576040517f08c379a0000000000000000000000000000000000000000000000000000000008152600401611d39906129bc565b60405180910390fd5b60018060006101000a81548160ff0219169083151502179055507f62e78cea01bee320cd4e420270b5ea74000d11b0c9f74754ebdbfc544b05a258611d85611cf2565b604051611d929190612849565b60405180910390a1565b611da4610fd2565b611de3576040517f08c379a0000000000000000000000000000000000000000000000000000000008152600401611dda9061293c565b60405180910390fd5b6000600160006101000a81548160ff0219169083151502179055507f5db9ee0a495bf2e6ff9c91a7834c1ba4fdd244a5e8aa4e537bd38aeae4b073aa611e27611cf2565b604051611e349190612849565b60405180910390a1565b611ebf8363a9059cbb60e01b8484604051602401611e5d92919061289b565b604051602081830303815290604052907bffffffffffffffffffffffffffffffffffffffffffffffffffffffff19166020820180517bffffffffffffffffffffffffffffffffffffffffffffffffffffffff8381831617835250505050611f4d565b505050565b611f47846323b872dd60e01b858585604051602401611ee593929190612864565b604051602081830303815290604052907bffffffffffffffffffffffffffffffffffffffffffffffffffffffff19166020820180517bffffffffffffffffffffffffffffffffffffffffffffffffffffffff8381831617835250505050611f4d565b50505050565b6000611faf826040518060400160405280602081526020017f5361666545524332303a206c6f772d6c6576656c2063616c6c206661696c65648152508573ffffffffffffffffffffffffffffffffffffffff166120149092919063ffffffff16565b905060008151111561200f5780806020019051810190611fcf91906122b1565b61200e576040517f08c379a000000000000000000000000000000000000000000000000000000000815260040161200590612a7c565b60405180910390fd5b5b505050565b6060612023848460008561202c565b90509392505050565b606082471015612071576040517f08c379a00000000000000000000000000000000000000000000000000000000081526004016120689061299c565b60405180910390fd5b61207a85612140565b6120b9576040517f08c379a00000000000000000000000000000000000000000000000000000000081526004016120b090612a3c565b60405180910390fd5b6000808673ffffffffffffffffffffffffffffffffffffffff1685876040516120e29190612832565b60006040518083038185875af1925050503d806000811461211f576040519150601f19603f3d011682016040523d82523d6000602084013e612124565b606091505b5091509150612134828286612153565b92505050949350505050565b600080823b905060008111915050919050565b60608315612163578290506121b3565b6000835111156121765782518084602001fd5b816040517f08c379a00000000000000000000000000000000000000000000000000000000081526004016121aa91906128fa565b60405180910390fd5b9392505050565b6000813590506121c981612d2c565b92915050565b6000813590506121de81612d43565b92915050565b6000815190506121f381612d43565b92915050565b60008135905061220881612d5a565b92915050565b60008151905061221d81612d5a565b92915050565b60006020828403121561223557600080fd5b6000612243848285016121ba565b91505092915050565b6000806040838503121561225f57600080fd5b600061226d858286016121ba565b925050602061227e858286016121f9565b9150509250929050565b60006020828403121561229a57600080fd5b60006122a8848285016121cf565b91505092915050565b6000602082840312156122c357600080fd5b60006122d1848285016121e4565b91505092915050565b6000602082840312156122ec57600080fd5b60006122fa848285016121f9565b91505092915050565b60006020828403121561231557600080fd5b60006123238482850161220e565b91505092915050565b6000806040838503121561233f57600080fd5b600061234d858286016121f9565b925050602061235e858286016121f9565b9150509250929050565b61237181612c1e565b82525050565b61238081612c30565b82525050565b600061239182612ad7565b61239b8185612aed565b93506123ab818560208601612c8a565b80840191505092915050565b6123c081612c66565b82525050565b60006123d182612ae2565b6123db8185612af8565b93506123eb818560208601612c8a565b6123f481612d1b565b840191505092915050565b600061240c605883612af8565b91507f50726576696f7573207265776172647320706572696f64206d7573742062652060008301527f636f6d706c657465206265666f7265206368616e67696e67207468652064757260208301527f6174696f6e20666f7220746865206e657720706572696f6400000000000000006040830152606082019050919050565b6000612498601483612af8565b91507f5061757361626c653a206e6f74207061757365640000000000000000000000006000830152602082019050919050565b60006124d8602683612af8565b91507f4f776e61626c653a206e6577206f776e657220697320746865207a65726f206160008301527f64647265737300000000000000000000000000000000000000000000000000006020830152604082019050919050565b600061253e600e83612af8565b91507f43616e6e6f74207374616b6520300000000000000000000000000000000000006000830152602082019050919050565b600061257e602683612af8565b91507f416464726573733a20696e73756666696369656e742062616c616e636520666f60008301527f722063616c6c00000000000000000000000000000000000000000000000000006020830152604082019050919050565b60006125e4601083612af8565b91507f5061757361626c653a20706175736564000000000000000000000000000000006000830152602082019050919050565b6000612624601183612af8565b91507f43616e6e6f7420776974686472617720300000000000000000000000000000006000830152602082019050919050565b6000612664602083612af8565b91507f4f776e61626c653a2063616c6c6572206973206e6f7420746865206f776e65726000830152602082019050919050565b60006126a4601883612af8565b91507f50726f76696465642072657761726420746f6f206869676800000000000000006000830152602082019050919050565b60006126e4601d83612af8565b91507f416464726573733a2063616c6c20746f206e6f6e2d636f6e74726163740000006000830152602082019050919050565b6000612724602d83612af8565b91507f43616e6e6f7420776974686472617720746865207374616b696e67206f72207260008301527f65776172647320746f6b656e73000000000000000000000000000000000000006020830152604082019050919050565b600061278a602a83612af8565b91507f5361666545524332303a204552433230206f7065726174696f6e20646964206e60008301527f6f742073756363656564000000000000000000000000000000000000000000006020830152604082019050919050565b60006127f0601f83612af8565b91507f5265656e7472616e637947756172643a207265656e7472616e742063616c6c006000830152602082019050919050565b61282c81612c5c565b82525050565b600061283e8284612386565b915081905092915050565b600060208201905061285e6000830184612368565b92915050565b60006060820190506128796000830186612368565b6128866020830185612368565b6128936040830184612823565b949350505050565b60006040820190506128b06000830185612368565b6128bd6020830184612823565b9392505050565b60006020820190506128d96000830184612377565b92915050565b60006020820190506128f460008301846123b7565b92915050565b6000602082019050818103600083015261291481846123c6565b905092915050565b60006020820190508181036000830152612935816123ff565b9050919050565b600060208201905081810360008301526129558161248b565b9050919050565b60006020820190508181036000830152612975816124cb565b9050919050565b6000602082019050818103600083015261299581612531565b9050919050565b600060208201905081810360008301526129b581612571565b9050919050565b600060208201905081810360008301526129d5816125d7565b9050919050565b600060208201905081810360008301526129f581612617565b9050919050565b60006020820190508181036000830152612a1581612657565b9050919050565b60006020820190508181036000830152612a3581612697565b9050919050565b60006020820190508181036000830152612a55816126d7565b9050919050565b60006020820190508181036000830152612a7581612717565b9050919050565b60006020820190508181036000830152612a958161277d565b9050919050565b60006020820190508181036000830152612ab5816127e3565b9050919050565b6000602082019050612ad16000830184612823565b92915050565b600081519050919050565b600081519050919050565b600081905092915050565b600082825260208201905092915050565b6000612b1482612c5c565b9150612b1f83612c5c565b9250827fffffffffffffffffffffffffffffffffffffffffffffffffffffffffffffffff03821115612b5457612b53612cbd565b5b828201905092915050565b6000612b6a82612c5c565b9150612b7583612c5c565b925082612b8557612b84612cec565b5b828204905092915050565b6000612b9b82612c5c565b9150612ba683612c5c565b9250817fffffffffffffffffffffffffffffffffffffffffffffffffffffffffffffffff0483118215151615612bdf57612bde612cbd565b5b828202905092915050565b6000612bf582612c5c565b9150612c0083612c5c565b925082821015612c1357612c12612cbd565b5b828203905092915050565b6000612c2982612c3c565b9050919050565b60008115159050919050565b600073ffffffffffffffffffffffffffffffffffffffff82169050919050565b6000819050919050565b6000612c7182612c78565b9050919050565b6000612c8382612c3c565b9050919050565b60005b83811015612ca8578082015181840152602081019050612c8d565b83811115612cb7576000848401525b50505050565b7f4e487b7100000000000000000000000000000000000000000000000000000000600052601160045260246000fd5b7f4e487b7100000000000000000000000000000000000000000000000000000000600052601260045260246000fd5b6000601f19601f8301169050919050565b612d3581612c1e565b8114612d4057600080fd5b50565b612d4c81612c30565b8114612d5757600080fd5b50565b612d6381612c5c565b8114612d6e57600080fd5b5056fea26469706673582212202038927aa1cad02c09077bdd35306b851e51649a51ba5442e3d63b1be8ba517164736f6c63430008000033",
  "immutableReferences": {},
  "source": "// SPDX-License-Identifier: MIT\r\npragma solidity ^0.8.0;\r\n\r\n\r\nimport \"@openzeppelin/contracts/security/ReentrancyGuard.sol\";\r\nimport \"@openzeppelin/contracts/access/Ownable.sol\";\r\nimport \"@openzeppelin/contracts/security/Pausable.sol\";\r\nimport \"@openzeppelin/contracts/token/ERC20/utils/SafeERC20.sol\";\r\nimport \"@openzeppelin/contracts/utils/math/SafeMath.sol\";\r\n\r\ncontract PolyFarm is ReentrancyGuard, Pausable, Ownable {\r\n    using SafeMath for uint256;\r\n    using SafeERC20 for IERC20;\r\n\r\n    // STATE VARIABLES\r\n\r\n    IERC20 public rewardsToken;\r\n    IERC20 public stakingToken;\r\n    uint256 public maxSatking = ~uint256(0);\r\n    uint256 public periodFinish = 0;\r\n    uint256 public rewardRate = 0;\r\n    uint256 public rewardsDuration = 30 days;\r\n    uint256 public lastUpdateTime;\r\n    uint256 public rewardPerTokenStored;\r\n\r\n    mapping(address => uint256) public userRewardPerTokenPaid;\r\n    mapping(address => uint256) public rewards;\r\n\r\n    uint256 private _totalSupply;\r\n    mapping(address => uint256) private _balances;\r\n    \r\n    modifier checkStakingRequirement(uint256 amount){\r\n        uint256 checkAmount= _balances[msg.sender].add(amount);\r\n        require(checkAmount<=maxSatking);\r\n        _;\r\n    }\r\n\r\n    // CONSTRUCTOR\r\n\r\n    constructor(\r\n        address _rewardsToken,\r\n        address _stakingToken\r\n    ) {\r\n        rewardsToken = IERC20(_rewardsToken);\r\n        stakingToken = IERC20(_stakingToken);\r\n    }\r\n\r\n    // VIEWS\r\n\r\n    function totalSupply() external view returns (uint256) {\r\n        return _totalSupply;\r\n    }\r\n\r\n    function balanceOf(address account) external view returns (uint256) {\r\n        return _balances[account];\r\n    }\r\n\r\n    function lastTimeRewardApplicable() public view returns (uint256) {\r\n        return min(block.timestamp, periodFinish);\r\n    }\r\n\r\n    function rewardPerToken() public view returns (uint256) {\r\n        if (_totalSupply == 0) {\r\n            return rewardPerTokenStored;\r\n        }\r\n        return\r\n            rewardPerTokenStored.add(\r\n                lastTimeRewardApplicable()\r\n                    .sub(lastUpdateTime)\r\n                    .mul(rewardRate)\r\n                    .mul(1e18)\r\n                    .div(_totalSupply)\r\n            );\r\n    }\r\n\r\n    function earned(address account) public view returns (uint256) {\r\n        return\r\n            _balances[account]\r\n                .mul(rewardPerToken().sub(userRewardPerTokenPaid[account]))\r\n                .div(1e18)\r\n                .add(rewards[account]);\r\n    }\r\n\r\n    function getRewardForDuration() external view returns (uint256) {\r\n        return rewardRate.mul(rewardsDuration);\r\n    }\r\n\r\n    function min(uint256 a, uint256 b) public pure returns (uint256) {\r\n        return a < b ? a : b;\r\n    }\r\n\r\n    // PUBLIC FUNCTIONS\r\n\r\n    function stake(uint256 amount)\r\n        external\r\n        checkStakingRequirement(amount)\r\n        nonReentrant\r\n        whenNotPaused\r\n        updateReward(msg.sender)\r\n    {\r\n        require(amount > 0, \"Cannot stake 0\");\r\n        _totalSupply = _totalSupply.add(amount);\r\n        uint256 balBefore = stakingToken.balanceOf(address(this));\r\n        stakingToken.safeTransferFrom(msg.sender, address(this), amount);\r\n        uint256 balAfter = stakingToken.balanceOf(address(this));\r\n        uint256 actualReceived = balAfter.sub(balBefore);\r\n        _balances[msg.sender] = _balances[msg.sender].add(actualReceived);\r\n        emit Staked(msg.sender, amount);\r\n    }\r\n\r\n    function withdraw(uint256 amount)\r\n        public\r\n        nonReentrant\r\n        updateReward(msg.sender)\r\n    {\r\n        require(amount > 0, \"Cannot withdraw 0\");\r\n        _totalSupply = _totalSupply.sub(amount);\r\n        _balances[msg.sender] = _balances[msg.sender].sub(amount);\r\n        stakingToken.safeTransfer(msg.sender, amount);\r\n        emit Withdrawn(msg.sender, amount);\r\n    }\r\n\r\n    function getReward() public nonReentrant updateReward(msg.sender) {\r\n        uint256 reward = rewards[msg.sender];\r\n        if (reward > 0) {\r\n            rewards[msg.sender] = 0;\r\n            rewardsToken.safeTransfer(msg.sender, reward);\r\n            emit RewardPaid(msg.sender, reward);\r\n        }\r\n    }\r\n\r\n    function exit() external {\r\n        withdraw(_balances[msg.sender]);\r\n        getReward();\r\n    }\r\n\r\n    // RESTRICTED FUNCTIONS\r\n\r\n    function notifyRewardAmount(uint256 reward)\r\n        external\r\n        onlyOwner\r\n        updateReward(address(0))\r\n    {\r\n        if (block.timestamp >= periodFinish) {\r\n            rewardRate = reward.div(rewardsDuration);\r\n        } else {\r\n            uint256 remaining = periodFinish.sub(block.timestamp);\r\n            uint256 leftover = remaining.mul(rewardRate);\r\n            rewardRate = reward.add(leftover).div(rewardsDuration);\r\n        }\r\n\r\n        // Ensure the provided reward amount is not more than the balance in the contract.\r\n        // This keeps the reward rate in the right range, preventing overflows due to\r\n        // very high values of rewardRate in the earned and rewardsPerToken functions;\r\n        // Reward + leftover must be less than 2^256 / 10^18 to avoid overflow.\r\n        uint256 balance = rewardsToken.balanceOf(address(this));\r\n        require(\r\n            rewardRate <= balance.div(rewardsDuration),\r\n            \"Provided reward too high\"\r\n        );\r\n\r\n        lastUpdateTime = block.timestamp;\r\n        periodFinish = block.timestamp.add(rewardsDuration);\r\n        emit RewardAdded(reward);\r\n    }\r\n\r\n    // Added to support recovering LP Rewards from other systems such as BAL to be distributed to holders\r\n    function recoverERC20(address tokenAddress, uint256 tokenAmount)\r\n        external\r\n        onlyOwner\r\n    {\r\n        // Cannot recover the staking token or the rewards token\r\n        require(\r\n            tokenAddress != address(stakingToken) &&\r\n                tokenAddress != address(rewardsToken),\r\n            \"Cannot withdraw the staking or rewards tokens\"\r\n        );\r\n        IERC20(tokenAddress).safeTransfer(owner(), tokenAmount);\r\n        emit Recovered(tokenAddress, tokenAmount);\r\n    }\r\n\r\n    function setRewardsDuration(uint256 _rewardsDuration) external onlyOwner {\r\n        require(\r\n            block.timestamp > periodFinish,\r\n            \"Previous rewards period must be complete before changing the duration for the new period\"\r\n        );\r\n        rewardsDuration = _rewardsDuration;\r\n        emit RewardsDurationUpdated(rewardsDuration);\r\n    }\r\n\r\n    function setPaused(bool _paused) external onlyOwner {\r\n        if(_paused) _pause();\r\n        else _unpause();\r\n    }\r\n\r\n    // MODIFIERS\r\n\r\n    modifier updateReward(address account) {\r\n        rewardPerTokenStored = rewardPerToken();\r\n        lastUpdateTime = lastTimeRewardApplicable();\r\n        if (account != address(0)) {\r\n            rewards[account] = earned(account);\r\n            userRewardPerTokenPaid[account] = rewardPerTokenStored;\r\n        }\r\n        _;\r\n    }\r\n\r\n    // EVENTS\r\n\r\n    event RewardAdded(uint256 reward);\r\n    event Staked(address indexed user, uint256 amount);\r\n    event Withdrawn(address indexed user, uint256 amount);\r\n    event RewardPaid(address indexed user, uint256 reward);\r\n    event RewardsDurationUpdated(uint256 newDuration);\r\n    event Recovered(address token, uint256 amount);\r\n}",
  "sourcePath": "C:/Users/sudip/Desktop/RealProjects/PolyStarter/contracts/StakingFarm/PolyFarm.sol",
  "compiler": {
    "name": "solc",
    "version": "0.8.0+commit.c7dfd78e.Emscripten.clang"
  },
  "schemaVersion": "3.3.4",
  "updatedAt": "2021-06-13T07:16:51.677Z",
  "devdoc": {
    "kind": "dev",
    "methods": {
      "owner()": {
        "details": "Returns the address of the current owner."
      },
      "paused()": {
        "details": "Returns true if the contract is paused, and false otherwise."
      },
      "renounceOwnership()": {
        "details": "Leaves the contract without owner. It will not be possible to call `onlyOwner` functions anymore. Can only be called by the current owner. NOTE: Renouncing ownership will leave the contract without an owner, thereby removing any functionality that is only available to the owner."
      },
      "transferOwnership(address)": {
        "details": "Transfers ownership of the contract to a new account (`newOwner`). Can only be called by the current owner."
      }
    },
    "version": 1
  },
  "userdoc": {
    "kind": "user",
    "methods": {},
    "version": 1
  }
}