{
  "contractName": "PolyFarm",
  "abi": [
    {
      "inputs": [
        {
          "internalType": "address",
          "name": "_rewardsToken",
          "type": "address"
        },
        {
          "internalType": "address",
          "name": "_stakingToken",
          "type": "address"
        }
      ],
      "stateMutability": "nonpayable",
      "type": "constructor"
    },
    {
      "anonymous": false,
      "inputs": [
        {
          "indexed": true,
          "internalType": "address",
          "name": "previousOwner",
          "type": "address"
        },
        {
          "indexed": true,
          "internalType": "address",
          "name": "newOwner",
          "type": "address"
        }
      ],
      "name": "OwnershipTransferred",
      "type": "event"
    },
    {
      "anonymous": false,
      "inputs": [
        {
          "indexed": false,
          "internalType": "address",
          "name": "account",
          "type": "address"
        }
      ],
      "name": "Paused",
      "type": "event"
    },
    {
      "anonymous": false,
      "inputs": [
        {
          "indexed": false,
          "internalType": "address",
          "name": "token",
          "type": "address"
        },
        {
          "indexed": false,
          "internalType": "uint256",
          "name": "amount",
          "type": "uint256"
        }
      ],
      "name": "Recovered",
      "type": "event"
    },
    {
      "anonymous": false,
      "inputs": [
        {
          "indexed": false,
          "internalType": "uint256",
          "name": "reward",
          "type": "uint256"
        }
      ],
      "name": "RewardAdded",
      "type": "event"
    },
    {
      "anonymous": false,
      "inputs": [
        {
          "indexed": true,
          "internalType": "address",
          "name": "user",
          "type": "address"
        },
        {
          "indexed": false,
          "internalType": "uint256",
          "name": "reward",
          "type": "uint256"
        }
      ],
      "name": "RewardPaid",
      "type": "event"
    },
    {
      "anonymous": false,
      "inputs": [
        {
          "indexed": false,
          "internalType": "uint256",
          "name": "newDuration",
          "type": "uint256"
        }
      ],
      "name": "RewardsDurationUpdated",
      "type": "event"
    },
    {
      "anonymous": false,
      "inputs": [
        {
          "indexed": true,
          "internalType": "address",
          "name": "user",
          "type": "address"
        },
        {
          "indexed": false,
          "internalType": "uint256",
          "name": "amount",
          "type": "uint256"
        }
      ],
      "name": "Staked",
      "type": "event"
    },
    {
      "anonymous": false,
      "inputs": [
        {
          "indexed": false,
          "internalType": "address",
          "name": "account",
          "type": "address"
        }
      ],
      "name": "Unpaused",
      "type": "event"
    },
    {
      "anonymous": false,
      "inputs": [
        {
          "indexed": true,
          "internalType": "address",
          "name": "user",
          "type": "address"
        },
        {
          "indexed": false,
          "internalType": "uint256",
          "name": "amount",
          "type": "uint256"
        }
      ],
      "name": "Withdrawn",
      "type": "event"
    },
    {
      "inputs": [],
      "name": "feePercentage",
      "outputs": [
        {
          "internalType": "uint256",
          "name": "",
          "type": "uint256"
        }
      ],
      "stateMutability": "view",
      "type": "function"
    },
    {
      "inputs": [],
      "name": "lastUpdateTime",
      "outputs": [
        {
          "internalType": "uint256",
          "name": "",
          "type": "uint256"
        }
      ],
      "stateMutability": "view",
      "type": "function"
    },
    {
      "inputs": [],
      "name": "maxSatking",
      "outputs": [
        {
          "internalType": "uint256",
          "name": "",
          "type": "uint256"
        }
      ],
      "stateMutability": "view",
      "type": "function"
    },
    {
      "inputs": [],
      "name": "owner",
      "outputs": [
        {
          "internalType": "address",
          "name": "",
          "type": "address"
        }
      ],
      "stateMutability": "view",
      "type": "function"
    },
    {
      "inputs": [],
      "name": "paused",
      "outputs": [
        {
          "internalType": "bool",
          "name": "",
          "type": "bool"
        }
      ],
      "stateMutability": "view",
      "type": "function"
    },
    {
      "inputs": [],
      "name": "periodFinish",
      "outputs": [
        {
          "internalType": "uint256",
          "name": "",
          "type": "uint256"
        }
      ],
      "stateMutability": "view",
      "type": "function"
    },
    {
      "inputs": [],
      "name": "renounceOwnership",
      "outputs": [],
      "stateMutability": "nonpayable",
      "type": "function"
    },
    {
      "inputs": [],
      "name": "rewardPerTokenStored",
      "outputs": [
        {
          "internalType": "uint256",
          "name": "",
          "type": "uint256"
        }
      ],
      "stateMutability": "view",
      "type": "function"
    },
    {
      "inputs": [],
      "name": "rewardRate",
      "outputs": [
        {
          "internalType": "uint256",
          "name": "",
          "type": "uint256"
        }
      ],
      "stateMutability": "view",
      "type": "function"
    },
    {
      "inputs": [
        {
          "internalType": "address",
          "name": "",
          "type": "address"
        }
      ],
      "name": "rewards",
      "outputs": [
        {
          "internalType": "uint256",
          "name": "",
          "type": "uint256"
        }
      ],
      "stateMutability": "view",
      "type": "function"
    },
    {
      "inputs": [],
      "name": "rewardsDuration",
      "outputs": [
        {
          "internalType": "uint256",
          "name": "",
          "type": "uint256"
        }
      ],
      "stateMutability": "view",
      "type": "function"
    },
    {
      "inputs": [],
      "name": "rewardsToken",
      "outputs": [
        {
          "internalType": "contract IERC20",
          "name": "",
          "type": "address"
        }
      ],
      "stateMutability": "view",
      "type": "function"
    },
    {
      "inputs": [],
      "name": "stakingToken",
      "outputs": [
        {
          "internalType": "contract IERC20",
          "name": "",
          "type": "address"
        }
      ],
      "stateMutability": "view",
      "type": "function"
    },
    {
      "inputs": [
        {
          "internalType": "address",
          "name": "newOwner",
          "type": "address"
        }
      ],
      "name": "transferOwnership",
      "outputs": [],
      "stateMutability": "nonpayable",
      "type": "function"
    },
    {
      "inputs": [],
      "name": "treasuryAddress",
      "outputs": [
        {
          "internalType": "address",
          "name": "",
          "type": "address"
        }
      ],
      "stateMutability": "view",
      "type": "function"
    },
    {
      "inputs": [
        {
          "internalType": "address",
          "name": "",
          "type": "address"
        }
      ],
      "name": "userRewardPerTokenPaid",
      "outputs": [
        {
          "internalType": "uint256",
          "name": "",
          "type": "uint256"
        }
      ],
      "stateMutability": "view",
      "type": "function"
    },
    {
      "inputs": [],
      "name": "totalSupply",
      "outputs": [
        {
          "internalType": "uint256",
          "name": "",
          "type": "uint256"
        }
      ],
      "stateMutability": "view",
      "type": "function"
    },
    {
      "inputs": [
        {
          "internalType": "address",
          "name": "account",
          "type": "address"
        }
      ],
      "name": "balanceOf",
      "outputs": [
        {
          "internalType": "uint256",
          "name": "",
          "type": "uint256"
        }
      ],
      "stateMutability": "view",
      "type": "function"
    },
    {
      "inputs": [],
      "name": "lastTimeRewardApplicable",
      "outputs": [
        {
          "internalType": "uint256",
          "name": "",
          "type": "uint256"
        }
      ],
      "stateMutability": "view",
      "type": "function"
    },
    {
      "inputs": [],
      "name": "rewardPerToken",
      "outputs": [
        {
          "internalType": "uint256",
          "name": "",
          "type": "uint256"
        }
      ],
      "stateMutability": "view",
      "type": "function"
    },
    {
      "inputs": [
        {
          "internalType": "address",
          "name": "account",
          "type": "address"
        }
      ],
      "name": "earned",
      "outputs": [
        {
          "internalType": "uint256",
          "name": "",
          "type": "uint256"
        }
      ],
      "stateMutability": "view",
      "type": "function"
    },
    {
      "inputs": [],
      "name": "getRewardForDuration",
      "outputs": [
        {
          "internalType": "uint256",
          "name": "",
          "type": "uint256"
        }
      ],
      "stateMutability": "view",
      "type": "function"
    },
    {
      "inputs": [
        {
          "internalType": "uint256",
          "name": "a",
          "type": "uint256"
        },
        {
          "internalType": "uint256",
          "name": "b",
          "type": "uint256"
        }
      ],
      "name": "min",
      "outputs": [
        {
          "internalType": "uint256",
          "name": "",
          "type": "uint256"
        }
      ],
      "stateMutability": "pure",
      "type": "function"
    },
    {
      "inputs": [
        {
          "internalType": "uint256",
          "name": "amount",
          "type": "uint256"
        }
      ],
      "name": "stake",
      "outputs": [],
      "stateMutability": "nonpayable",
      "type": "function"
    },
    {
      "inputs": [
        {
          "internalType": "uint256",
          "name": "amount",
          "type": "uint256"
        }
      ],
      "name": "withdraw",
      "outputs": [],
      "stateMutability": "nonpayable",
      "type": "function"
    },
    {
      "inputs": [],
      "name": "getReward",
      "outputs": [],
      "stateMutability": "nonpayable",
      "type": "function"
    },
    {
      "inputs": [],
      "name": "exit",
      "outputs": [],
      "stateMutability": "nonpayable",
      "type": "function"
    },
    {
      "inputs": [
        {
          "internalType": "uint256",
          "name": "reward",
          "type": "uint256"
        }
      ],
      "name": "notifyRewardAmount",
      "outputs": [],
      "stateMutability": "nonpayable",
      "type": "function"
    },
    {
      "inputs": [
        {
          "internalType": "address",
          "name": "tokenAddress",
          "type": "address"
        },
        {
          "internalType": "uint256",
          "name": "tokenAmount",
          "type": "uint256"
        }
      ],
      "name": "recoverERC20",
      "outputs": [],
      "stateMutability": "nonpayable",
      "type": "function"
    },
    {
      "inputs": [
        {
          "internalType": "uint256",
          "name": "_rewardsDuration",
          "type": "uint256"
        }
      ],
      "name": "setRewardsDuration",
      "outputs": [],
      "stateMutability": "nonpayable",
      "type": "function"
    },
    {
      "inputs": [
        {
          "internalType": "bool",
          "name": "_paused",
          "type": "bool"
        }
      ],
      "name": "setPaused",
      "outputs": [],
      "stateMutability": "nonpayable",
      "type": "function"
    }
  ],
  "bytecode": "0x60806040526000196004556000600555600060065562278d00600755600a80557327380034afa75ec72652769112800619e7c8bafe600b60006101000a81548173ffffffffffffffffffffffffffffffffffffffff021916908373ffffffffffffffffffffffffffffffffffffffff1602179055503480156200008157600080fd5b5060405162003195380380620031958339818101604052810190620000a7919062000223565b60016000819055506000600160006101000a81548160ff0219169083151502179055506000620000dc6200020460201b60201c565b9050806001806101000a81548173ffffffffffffffffffffffffffffffffffffffff021916908373ffffffffffffffffffffffffffffffffffffffff1602179055508073ffffffffffffffffffffffffffffffffffffffff16600073ffffffffffffffffffffffffffffffffffffffff167f8be0079c531659141344cd1fd0a4f28419497f9722a3daafe3b4186f6b6457e060405160405180910390a35081600260006101000a81548173ffffffffffffffffffffffffffffffffffffffff021916908373ffffffffffffffffffffffffffffffffffffffff16021790555080600360006101000a81548173ffffffffffffffffffffffffffffffffffffffff021916908373ffffffffffffffffffffffffffffffffffffffff1602179055505050620002b2565b600033905090565b6000815190506200021d8162000298565b92915050565b600080604083850312156200023757600080fd5b600062000247858286016200020c565b92505060206200025a858286016200020c565b9150509250929050565b6000620002718262000278565b9050919050565b600073ffffffffffffffffffffffffffffffffffffffff82169050919050565b620002a38162000264565b8114620002af57600080fd5b50565b612ed380620002c26000396000f3fe608060405234801561001057600080fd5b50600436106101e45760003560e01c806380faa57d1161010f578063c8f33c91116100a2578063df136d6511610071578063df136d6514610539578063e9fad8ee14610557578063ebe2b12b14610561578063f2fde38b1461057f576101e4565b8063c8f33c91146104c3578063cc1a378f146104e1578063cd3daf9d146104fd578063d1af0c7d1461051b576101e4565b806399770ead116100de57806399770ead1461044d578063a001ecdd1461046b578063a694fc3a14610489578063c5f956af146104a5576101e4565b806380faa57d146103c55780638980f11f146103e35780638b876347146103ff5780638da5cb5b1461042f576101e4565b80633c6b16ab11610187578063715018a611610156578063715018a61461034f57806372f702f3146103595780637ae2b5c7146103775780637b0a47ee146103a7576101e4565b80633c6b16ab146102db5780633d18b912146102f75780635c975abb1461030157806370a082311461031f576101e4565b806318160ddd116101c357806318160ddd146102655780631c1f78eb146102835780632e1a7d4d146102a1578063386a9525146102bd576101e4565b80628cc262146101e95780630700037d1461021957806316c38b3c14610249575b600080fd5b61020360048036038101906101fe919061234f565b61059b565b6040516102109190612be8565b60405180910390f35b610233600480360381019061022e919061234f565b6106b9565b6040516102409190612be8565b60405180910390f35b610263600480360381019061025e91906123b4565b6106d1565b005b61026d61076c565b60405161027a9190612be8565b60405180910390f35b61028b610776565b6040516102989190612be8565b60405180910390f35b6102bb60048036038101906102b69190612406565b610794565b005b6102c5610a60565b6040516102d29190612be8565b60405180910390f35b6102f560048036038101906102f09190612406565b610a66565b005b6102ff610db8565b005b6103096110d2565b60405161031691906129f0565b60405180910390f35b6103396004803603810190610334919061234f565b6110e9565b6040516103469190612be8565b60405180910390f35b610357611132565b005b61036161126c565b60405161036e9190612a0b565b60405180910390f35b610391600480360381019061038c9190612458565b611292565b60405161039e9190612be8565b60405180910390f35b6103af6112ab565b6040516103bc9190612be8565b60405180910390f35b6103cd6112b1565b6040516103da9190612be8565b60405180910390f35b6103fd60048036038101906103f89190612378565b6112c4565b005b6104196004803603810190610414919061234f565b61149a565b6040516104269190612be8565b60405180910390f35b6104376114b2565b6040516104449190612975565b60405180910390f35b6104556114da565b6040516104629190612be8565b60405180910390f35b6104736114e0565b6040516104809190612be8565b60405180910390f35b6104a3600480360381019061049e9190612406565b6114e6565b005b6104ad6119dc565b6040516104ba9190612975565b60405180910390f35b6104cb611a02565b6040516104d89190612be8565b60405180910390f35b6104fb60048036038101906104f69190612406565b611a08565b005b610505611b0b565b6040516105129190612be8565b60405180910390f35b610523611b99565b6040516105309190612a0b565b60405180910390f35b610541611bbf565b60405161054e9190612be8565b60405180910390f35b61055f611bc5565b005b610569611c17565b6040516105769190612be8565b60405180910390f35b6105996004803603810190610594919061234f565b611c1d565b005b60006106b2600d60008473ffffffffffffffffffffffffffffffffffffffff1673ffffffffffffffffffffffffffffffffffffffff168152602001908152602001600020546106a4670de0b6b3a7640000610696610648600c60008973ffffffffffffffffffffffffffffffffffffffff1673ffffffffffffffffffffffffffffffffffffffff1681526020019081526020016000205461063a611b0b565b611dc690919063ffffffff16565b600f60008973ffffffffffffffffffffffffffffffffffffffff1673ffffffffffffffffffffffffffffffffffffffff16815260200190815260200160002054611ddc90919063ffffffff16565b611df290919063ffffffff16565b611e0890919063ffffffff16565b9050919050565b600d6020528060005260406000206000915090505481565b6106d9611e1e565b73ffffffffffffffffffffffffffffffffffffffff166106f76114b2565b73ffffffffffffffffffffffffffffffffffffffff161461074d576040517f08c379a000000000000000000000000000000000000000000000000000000000815260040161074490612b28565b60405180910390fd5b80156107605761075b611e26565b610769565b610768611ec8565b5b50565b6000600e54905090565b600061078f600754600654611ddc90919063ffffffff16565b905090565b600260005414156107da576040517f08c379a00000000000000000000000000000000000000000000000000000000081526004016107d190612bc8565b60405180910390fd5b6002600081905550336107eb611b0b565b6009819055506107f96112b1565b600881905550600073ffffffffffffffffffffffffffffffffffffffff168173ffffffffffffffffffffffffffffffffffffffff16146108c65761083c8161059b565b600d60008373ffffffffffffffffffffffffffffffffffffffff1673ffffffffffffffffffffffffffffffffffffffff16815260200190815260200160002081905550600954600c60008373ffffffffffffffffffffffffffffffffffffffff1673ffffffffffffffffffffffffffffffffffffffff168152602001908152602001600020819055505b60008211610909576040517f08c379a000000000000000000000000000000000000000000000000000000000815260040161090090612b08565b60405180910390fd5b61091e82600e54611dc690919063ffffffff16565b600e8190555061097682600f60003373ffffffffffffffffffffffffffffffffffffffff1673ffffffffffffffffffffffffffffffffffffffff16815260200190815260200160002054611dc690919063ffffffff16565b600f60003373ffffffffffffffffffffffffffffffffffffffff1673ffffffffffffffffffffffffffffffffffffffff16815260200190815260200160002081905550610a063383600360009054906101000a900473ffffffffffffffffffffffffffffffffffffffff1673ffffffffffffffffffffffffffffffffffffffff16611f6a9092919063ffffffff16565b3373ffffffffffffffffffffffffffffffffffffffff167f7084f5476618d8e60b11ef0d7d3f06914655adb8793e28ff7f018d4c76d505d583604051610a4c9190612be8565b60405180910390a250600160008190555050565b60075481565b610a6e611e1e565b73ffffffffffffffffffffffffffffffffffffffff16610a8c6114b2565b73ffffffffffffffffffffffffffffffffffffffff1614610ae2576040517f08c379a0000000000000000000000000000000000000000000000000000000008152600401610ad990612b28565b60405180910390fd5b6000610aec611b0b565b600981905550610afa6112b1565b600881905550600073ffffffffffffffffffffffffffffffffffffffff168173ffffffffffffffffffffffffffffffffffffffff1614610bc757610b3d8161059b565b600d60008373ffffffffffffffffffffffffffffffffffffffff1673ffffffffffffffffffffffffffffffffffffffff16815260200190815260200160002081905550600954600c60008373ffffffffffffffffffffffffffffffffffffffff1673ffffffffffffffffffffffffffffffffffffffff168152602001908152602001600020819055505b6005544210610bf057610be560075483611df290919063ffffffff16565b600681905550610c52565b6000610c0742600554611dc690919063ffffffff16565b90506000610c2060065483611ddc90919063ffffffff16565b9050610c49600754610c3b8387611e0890919063ffffffff16565b611df290919063ffffffff16565b60068190555050505b6000600260009054906101000a900473ffffffffffffffffffffffffffffffffffffffff1673ffffffffffffffffffffffffffffffffffffffff166370a08231306040518263ffffffff1660e01b8152600401610caf9190612975565b60206040518083038186803b158015610cc757600080fd5b505afa158015610cdb573d6000803e3d6000fd5b505050506040513d601f19601f82011682018060405250810190610cff919061242f565b9050610d1660075482611df290919063ffffffff16565b6006541115610d5a576040517f08c379a0000000000000000000000000000000000000000000000000000000008152600401610d5190612b48565b60405180910390fd5b42600881905550610d7660075442611e0890919063ffffffff16565b6005819055507fde88a922e0d3b88b24e9623efeb464919c6bf9f66857a65e2bfcf2ce87a9433d83604051610dab9190612be8565b60405180910390a1505050565b60026000541415610dfe576040517f08c379a0000000000000000000000000000000000000000000000000000000008152600401610df590612bc8565b60405180910390fd5b600260008190555033610e0f611b0b565b600981905550610e1d6112b1565b600881905550600073ffffffffffffffffffffffffffffffffffffffff168173ffffffffffffffffffffffffffffffffffffffff1614610eea57610e608161059b565b600d60008373ffffffffffffffffffffffffffffffffffffffff1673ffffffffffffffffffffffffffffffffffffffff16815260200190815260200160002081905550600954600c60008373ffffffffffffffffffffffffffffffffffffffff1673ffffffffffffffffffffffffffffffffffffffff168152602001908152602001600020819055505b6000600d60003373ffffffffffffffffffffffffffffffffffffffff1673ffffffffffffffffffffffffffffffffffffffff1681526020019081526020016000205490506000610f586064610f4a600a5485611ddc90919063ffffffff16565b611df290919063ffffffff16565b905060008211156110c5576000600d60003373ffffffffffffffffffffffffffffffffffffffff1673ffffffffffffffffffffffffffffffffffffffff16815260200190815260200160002081905550611017600b60009054906101000a900473ffffffffffffffffffffffffffffffffffffffff1682600260009054906101000a900473ffffffffffffffffffffffffffffffffffffffff1673ffffffffffffffffffffffffffffffffffffffff16611f6a9092919063ffffffff16565b6110763361102e8385611dc690919063ffffffff16565b600260009054906101000a900473ffffffffffffffffffffffffffffffffffffffff1673ffffffffffffffffffffffffffffffffffffffff16611f6a9092919063ffffffff16565b3373ffffffffffffffffffffffffffffffffffffffff167fe2403640ba68fed3a2f88b7557551d1993f84b99bb10ff833f0cf8db0c5e0486836040516110bc9190612be8565b60405180910390a25b5050506001600081905550565b6000600160009054906101000a900460ff16905090565b6000600f60008373ffffffffffffffffffffffffffffffffffffffff1673ffffffffffffffffffffffffffffffffffffffff168152602001908152602001600020549050919050565b61113a611e1e565b73ffffffffffffffffffffffffffffffffffffffff166111586114b2565b73ffffffffffffffffffffffffffffffffffffffff16146111ae576040517f08c379a00000000000000000000000000000000000000000000000000000000081526004016111a590612b28565b60405180910390fd5b600073ffffffffffffffffffffffffffffffffffffffff1660018054906101000a900473ffffffffffffffffffffffffffffffffffffffff1673ffffffffffffffffffffffffffffffffffffffff167f8be0079c531659141344cd1fd0a4f28419497f9722a3daafe3b4186f6b6457e060405160405180910390a360006001806101000a81548173ffffffffffffffffffffffffffffffffffffffff021916908373ffffffffffffffffffffffffffffffffffffffff160217905550565b600360009054906101000a900473ffffffffffffffffffffffffffffffffffffffff1681565b60008183106112a157816112a3565b825b905092915050565b60065481565b60006112bf42600554611292565b905090565b6112cc611e1e565b73ffffffffffffffffffffffffffffffffffffffff166112ea6114b2565b73ffffffffffffffffffffffffffffffffffffffff1614611340576040517f08c379a000000000000000000000000000000000000000000000000000000000815260040161133790612b28565b60405180910390fd5b600360009054906101000a900473ffffffffffffffffffffffffffffffffffffffff1673ffffffffffffffffffffffffffffffffffffffff168273ffffffffffffffffffffffffffffffffffffffff16141580156113ec5750600260009054906101000a900473ffffffffffffffffffffffffffffffffffffffff1673ffffffffffffffffffffffffffffffffffffffff168273ffffffffffffffffffffffffffffffffffffffff1614155b61142b576040517f08c379a000000000000000000000000000000000000000000000000000000000815260040161142290612b88565b60405180910390fd5b61145d6114366114b2565b828473ffffffffffffffffffffffffffffffffffffffff16611f6a9092919063ffffffff16565b7f8c1256b8896378cd5044f80c202f9772b9d77dc85c8a6eb51967210b09bfaa28828260405161148e9291906129c7565b60405180910390a15050565b600c6020528060005260406000206000915090505481565b600060018054906101000a900473ffffffffffffffffffffffffffffffffffffffff16905090565b60045481565b600a5481565b80600061153b82600f60003373ffffffffffffffffffffffffffffffffffffffff1673ffffffffffffffffffffffffffffffffffffffff16815260200190815260200160002054611e0890919063ffffffff16565b905060045481111561154c57600080fd5b60026000541415611592576040517f08c379a000000000000000000000000000000000000000000000000000000000815260040161158990612bc8565b60405180910390fd5b60026000819055506115a26110d2565b156115e2576040517f08c379a00000000000000000000000000000000000000000000000000000000081526004016115d990612ae8565b60405180910390fd5b336115eb611b0b565b6009819055506115f96112b1565b600881905550600073ffffffffffffffffffffffffffffffffffffffff168173ffffffffffffffffffffffffffffffffffffffff16146116c65761163c8161059b565b600d60008373ffffffffffffffffffffffffffffffffffffffff1673ffffffffffffffffffffffffffffffffffffffff16815260200190815260200160002081905550600954600c60008373ffffffffffffffffffffffffffffffffffffffff1673ffffffffffffffffffffffffffffffffffffffff168152602001908152602001600020819055505b60008411611709576040517f08c379a000000000000000000000000000000000000000000000000000000000815260040161170090612aa8565b60405180910390fd5b61171e84600e54611e0890919063ffffffff16565b600e819055506000600360009054906101000a900473ffffffffffffffffffffffffffffffffffffffff1673ffffffffffffffffffffffffffffffffffffffff166370a08231306040518263ffffffff1660e01b81526004016117819190612975565b60206040518083038186803b15801561179957600080fd5b505afa1580156117ad573d6000803e3d6000fd5b505050506040513d601f19601f820116820180604052508101906117d1919061242f565b9050611822333087600360009054906101000a900473ffffffffffffffffffffffffffffffffffffffff1673ffffffffffffffffffffffffffffffffffffffff16611ff0909392919063ffffffff16565b6000600360009054906101000a900473ffffffffffffffffffffffffffffffffffffffff1673ffffffffffffffffffffffffffffffffffffffff166370a08231306040518263ffffffff1660e01b815260040161187f9190612975565b60206040518083038186803b15801561189757600080fd5b505afa1580156118ab573d6000803e3d6000fd5b505050506040513d601f19601f820116820180604052508101906118cf919061242f565b905060006118e68383611dc690919063ffffffff16565b905061193a81600f60003373ffffffffffffffffffffffffffffffffffffffff1673ffffffffffffffffffffffffffffffffffffffff16815260200190815260200160002054611e0890919063ffffffff16565b600f60003373ffffffffffffffffffffffffffffffffffffffff1673ffffffffffffffffffffffffffffffffffffffff168152602001908152602001600020819055503373ffffffffffffffffffffffffffffffffffffffff167f9e71bc8eea02a63969f509818f2dafb9254532904319f9dbda79b67bd34a5f3d886040516119c39190612be8565b60405180910390a2505050506001600081905550505050565b600b60009054906101000a900473ffffffffffffffffffffffffffffffffffffffff1681565b60085481565b611a10611e1e565b73ffffffffffffffffffffffffffffffffffffffff16611a2e6114b2565b73ffffffffffffffffffffffffffffffffffffffff1614611a84576040517f08c379a0000000000000000000000000000000000000000000000000000000008152600401611a7b90612b28565b60405180910390fd5b6005544211611ac8576040517f08c379a0000000000000000000000000000000000000000000000000000000008152600401611abf90612a48565b60405180910390fd5b806007819055507ffb46ca5a5e06d4540d6387b930a7c978bce0db5f449ec6b3f5d07c6e1d44f2d3600754604051611b009190612be8565b60405180910390a150565b600080600e541415611b21576009549050611b96565b611b93611b82600e54611b74670de0b6b3a7640000611b66600654611b58600854611b4a6112b1565b611dc690919063ffffffff16565b611ddc90919063ffffffff16565b611ddc90919063ffffffff16565b611df290919063ffffffff16565b600954611e0890919063ffffffff16565b90505b90565b600260009054906101000a900473ffffffffffffffffffffffffffffffffffffffff1681565b60095481565b611c0d600f60003373ffffffffffffffffffffffffffffffffffffffff1673ffffffffffffffffffffffffffffffffffffffff16815260200190815260200160002054610794565b611c15610db8565b565b60055481565b611c25611e1e565b73ffffffffffffffffffffffffffffffffffffffff16611c436114b2565b73ffffffffffffffffffffffffffffffffffffffff1614611c99576040517f08c379a0000000000000000000000000000000000000000000000000000000008152600401611c9090612b28565b60405180910390fd5b600073ffffffffffffffffffffffffffffffffffffffff168173ffffffffffffffffffffffffffffffffffffffff161415611d09576040517f08c379a0000000000000000000000000000000000000000000000000000000008152600401611d0090612a88565b60405180910390fd5b8073ffffffffffffffffffffffffffffffffffffffff1660018054906101000a900473ffffffffffffffffffffffffffffffffffffffff1673ffffffffffffffffffffffffffffffffffffffff167f8be0079c531659141344cd1fd0a4f28419497f9722a3daafe3b4186f6b6457e060405160405180910390a3806001806101000a81548173ffffffffffffffffffffffffffffffffffffffff021916908373ffffffffffffffffffffffffffffffffffffffff16021790555050565b60008183611dd49190612d16565b905092915050565b60008183611dea9190612cbc565b905092915050565b60008183611e009190612c8b565b905092915050565b60008183611e169190612c35565b905092915050565b600033905090565b611e2e6110d2565b15611e6e576040517f08c379a0000000000000000000000000000000000000000000000000000000008152600401611e6590612ae8565b60405180910390fd5b60018060006101000a81548160ff0219169083151502179055507f62e78cea01bee320cd4e420270b5ea74000d11b0c9f74754ebdbfc544b05a258611eb1611e1e565b604051611ebe9190612975565b60405180910390a1565b611ed06110d2565b611f0f576040517f08c379a0000000000000000000000000000000000000000000000000000000008152600401611f0690612a68565b60405180910390fd5b6000600160006101000a81548160ff0219169083151502179055507f5db9ee0a495bf2e6ff9c91a7834c1ba4fdd244a5e8aa4e537bd38aeae4b073aa611f53611e1e565b604051611f609190612975565b60405180910390a1565b611feb8363a9059cbb60e01b8484604051602401611f899291906129c7565b604051602081830303815290604052907bffffffffffffffffffffffffffffffffffffffffffffffffffffffff19166020820180517bffffffffffffffffffffffffffffffffffffffffffffffffffffffff8381831617835250505050612079565b505050565b612073846323b872dd60e01b85858560405160240161201193929190612990565b604051602081830303815290604052907bffffffffffffffffffffffffffffffffffffffffffffffffffffffff19166020820180517bffffffffffffffffffffffffffffffffffffffffffffffffffffffff8381831617835250505050612079565b50505050565b60006120db826040518060400160405280602081526020017f5361666545524332303a206c6f772d6c6576656c2063616c6c206661696c65648152508573ffffffffffffffffffffffffffffffffffffffff166121409092919063ffffffff16565b905060008151111561213b57808060200190518101906120fb91906123dd565b61213a576040517f08c379a000000000000000000000000000000000000000000000000000000000815260040161213190612ba8565b60405180910390fd5b5b505050565b606061214f8484600085612158565b90509392505050565b60608247101561219d576040517f08c379a000000000000000000000000000000000000000000000000000000000815260040161219490612ac8565b60405180910390fd5b6121a68561226c565b6121e5576040517f08c379a00000000000000000000000000000000000000000000000000000000081526004016121dc90612b68565b60405180910390fd5b6000808673ffffffffffffffffffffffffffffffffffffffff16858760405161220e919061295e565b60006040518083038185875af1925050503d806000811461224b576040519150601f19603f3d011682016040523d82523d6000602084013e612250565b606091505b509150915061226082828661227f565b92505050949350505050565b600080823b905060008111915050919050565b6060831561228f578290506122df565b6000835111156122a25782518084602001fd5b816040517f08c379a00000000000000000000000000000000000000000000000000000000081526004016122d69190612a26565b60405180910390fd5b9392505050565b6000813590506122f581612e58565b92915050565b60008135905061230a81612e6f565b92915050565b60008151905061231f81612e6f565b92915050565b60008135905061233481612e86565b92915050565b60008151905061234981612e86565b92915050565b60006020828403121561236157600080fd5b600061236f848285016122e6565b91505092915050565b6000806040838503121561238b57600080fd5b6000612399858286016122e6565b92505060206123aa85828601612325565b9150509250929050565b6000602082840312156123c657600080fd5b60006123d4848285016122fb565b91505092915050565b6000602082840312156123ef57600080fd5b60006123fd84828501612310565b91505092915050565b60006020828403121561241857600080fd5b600061242684828501612325565b91505092915050565b60006020828403121561244157600080fd5b600061244f8482850161233a565b91505092915050565b6000806040838503121561246b57600080fd5b600061247985828601612325565b925050602061248a85828601612325565b9150509250929050565b61249d81612d4a565b82525050565b6124ac81612d5c565b82525050565b60006124bd82612c03565b6124c78185612c19565b93506124d7818560208601612db6565b80840191505092915050565b6124ec81612d92565b82525050565b60006124fd82612c0e565b6125078185612c24565b9350612517818560208601612db6565b61252081612e47565b840191505092915050565b6000612538605883612c24565b91507f50726576696f7573207265776172647320706572696f64206d7573742062652060008301527f636f6d706c657465206265666f7265206368616e67696e67207468652064757260208301527f6174696f6e20666f7220746865206e657720706572696f6400000000000000006040830152606082019050919050565b60006125c4601483612c24565b91507f5061757361626c653a206e6f74207061757365640000000000000000000000006000830152602082019050919050565b6000612604602683612c24565b91507f4f776e61626c653a206e6577206f776e657220697320746865207a65726f206160008301527f64647265737300000000000000000000000000000000000000000000000000006020830152604082019050919050565b600061266a600e83612c24565b91507f43616e6e6f74207374616b6520300000000000000000000000000000000000006000830152602082019050919050565b60006126aa602683612c24565b91507f416464726573733a20696e73756666696369656e742062616c616e636520666f60008301527f722063616c6c00000000000000000000000000000000000000000000000000006020830152604082019050919050565b6000612710601083612c24565b91507f5061757361626c653a20706175736564000000000000000000000000000000006000830152602082019050919050565b6000612750601183612c24565b91507f43616e6e6f7420776974686472617720300000000000000000000000000000006000830152602082019050919050565b6000612790602083612c24565b91507f4f776e61626c653a2063616c6c6572206973206e6f7420746865206f776e65726000830152602082019050919050565b60006127d0601883612c24565b91507f50726f76696465642072657761726420746f6f206869676800000000000000006000830152602082019050919050565b6000612810601d83612c24565b91507f416464726573733a2063616c6c20746f206e6f6e2d636f6e74726163740000006000830152602082019050919050565b6000612850602d83612c24565b91507f43616e6e6f7420776974686472617720746865207374616b696e67206f72207260008301527f65776172647320746f6b656e73000000000000000000000000000000000000006020830152604082019050919050565b60006128b6602a83612c24565b91507f5361666545524332303a204552433230206f7065726174696f6e20646964206e60008301527f6f742073756363656564000000000000000000000000000000000000000000006020830152604082019050919050565b600061291c601f83612c24565b91507f5265656e7472616e637947756172643a207265656e7472616e742063616c6c006000830152602082019050919050565b61295881612d88565b82525050565b600061296a82846124b2565b915081905092915050565b600060208201905061298a6000830184612494565b92915050565b60006060820190506129a56000830186612494565b6129b26020830185612494565b6129bf604083018461294f565b949350505050565b60006040820190506129dc6000830185612494565b6129e9602083018461294f565b9392505050565b6000602082019050612a0560008301846124a3565b92915050565b6000602082019050612a2060008301846124e3565b92915050565b60006020820190508181036000830152612a4081846124f2565b905092915050565b60006020820190508181036000830152612a618161252b565b9050919050565b60006020820190508181036000830152612a81816125b7565b9050919050565b60006020820190508181036000830152612aa1816125f7565b9050919050565b60006020820190508181036000830152612ac18161265d565b9050919050565b60006020820190508181036000830152612ae18161269d565b9050919050565b60006020820190508181036000830152612b0181612703565b9050919050565b60006020820190508181036000830152612b2181612743565b9050919050565b60006020820190508181036000830152612b4181612783565b9050919050565b60006020820190508181036000830152612b61816127c3565b9050919050565b60006020820190508181036000830152612b8181612803565b9050919050565b60006020820190508181036000830152612ba181612843565b9050919050565b60006020820190508181036000830152612bc1816128a9565b9050919050565b60006020820190508181036000830152612be18161290f565b9050919050565b6000602082019050612bfd600083018461294f565b92915050565b600081519050919050565b600081519050919050565b600081905092915050565b600082825260208201905092915050565b6000612c4082612d88565b9150612c4b83612d88565b9250827fffffffffffffffffffffffffffffffffffffffffffffffffffffffffffffffff03821115612c8057612c7f612de9565b5b828201905092915050565b6000612c9682612d88565b9150612ca183612d88565b925082612cb157612cb0612e18565b5b828204905092915050565b6000612cc782612d88565b9150612cd283612d88565b9250817fffffffffffffffffffffffffffffffffffffffffffffffffffffffffffffffff0483118215151615612d0b57612d0a612de9565b5b828202905092915050565b6000612d2182612d88565b9150612d2c83612d88565b925082821015612d3f57612d3e612de9565b5b828203905092915050565b6000612d5582612d68565b9050919050565b60008115159050919050565b600073ffffffffffffffffffffffffffffffffffffffff82169050919050565b6000819050919050565b6000612d9d82612da4565b9050919050565b6000612daf82612d68565b9050919050565b60005b83811015612dd4578082015181840152602081019050612db9565b83811115612de3576000848401525b50505050565b7f4e487b7100000000000000000000000000000000000000000000000000000000600052601160045260246000fd5b7f4e487b7100000000000000000000000000000000000000000000000000000000600052601260045260246000fd5b6000601f19601f8301169050919050565b612e6181612d4a565b8114612e6c57600080fd5b50565b612e7881612d5c565b8114612e8357600080fd5b50565b612e8f81612d88565b8114612e9a57600080fd5b5056fea2646970667358221220a24ac78bb6633d7ec621e40e12d17e375eaa5a842181803716d8c71ed02f3dd364736f6c63430008000033",
  "immutableReferences": {},
  "source": "// SPDX-License-Identifier: MIT\r\npragma solidity ^0.8.0;\r\n\r\nimport \"@openzeppelin/contracts/security/ReentrancyGuard.sol\";\r\nimport \"@openzeppelin/contracts/access/Ownable.sol\";\r\nimport \"@openzeppelin/contracts/security/Pausable.sol\";\r\nimport \"@openzeppelin/contracts/token/ERC20/utils/SafeERC20.sol\";\r\nimport \"@openzeppelin/contracts/utils/math/SafeMath.sol\";\r\n\r\ncontract PolyFarm is ReentrancyGuard, Pausable, Ownable {\r\n    using SafeMath for uint256;\r\n    using SafeERC20 for IERC20;\r\n\r\n    // STATE VARIABLES\r\n\r\n    IERC20 public rewardsToken;\r\n    IERC20 public stakingToken;\r\n    uint256 public maxSatking = ~uint256(0);\r\n    uint256 public periodFinish = 0;\r\n    uint256 public rewardRate = 0;\r\n    uint256 public rewardsDuration = 30 days;\r\n    uint256 public lastUpdateTime;\r\n    uint256 public rewardPerTokenStored;\r\n    uint256 public feePercentage = 10;\r\n    address public treasuryAddress = 0x27380034Afa75eC72652769112800619E7C8bAFe;\r\n\r\n    mapping(address => uint256) public userRewardPerTokenPaid;\r\n    mapping(address => uint256) public rewards;\r\n\r\n    uint256 private _totalSupply;\r\n    mapping(address => uint256) private _balances;\r\n    \r\n    modifier checkStakingRequirement(uint256 amount){\r\n        uint256 checkAmount= _balances[msg.sender].add(amount);\r\n        require(checkAmount<=maxSatking);\r\n        _;\r\n    }\r\n\r\n    // CONSTRUCTOR\r\n\r\n    constructor(\r\n        address _rewardsToken,\r\n        address _stakingToken\r\n    ) {\r\n        rewardsToken = IERC20(_rewardsToken);\r\n        stakingToken = IERC20(_stakingToken);\r\n    }\r\n\r\n    // VIEWS\r\n\r\n    function totalSupply() external view returns (uint256) {\r\n        return _totalSupply;\r\n    }\r\n\r\n    function balanceOf(address account) external view returns (uint256) {\r\n        return _balances[account];\r\n    }\r\n\r\n    function lastTimeRewardApplicable() public view returns (uint256) {\r\n        return min(block.timestamp, periodFinish);\r\n    }\r\n\r\n    function rewardPerToken() public view returns (uint256) {\r\n        if (_totalSupply == 0) {\r\n            return rewardPerTokenStored;\r\n        }\r\n        return\r\n            rewardPerTokenStored.add(\r\n                lastTimeRewardApplicable()\r\n                    .sub(lastUpdateTime)\r\n                    .mul(rewardRate)\r\n                    .mul(1e18)\r\n                    .div(_totalSupply)\r\n            );\r\n    }\r\n\r\n    function earned(address account) public view returns (uint256) {\r\n        return\r\n            _balances[account]\r\n                .mul(rewardPerToken().sub(userRewardPerTokenPaid[account]))\r\n                .div(1e18)\r\n                .add(rewards[account]);\r\n    }\r\n\r\n    function getRewardForDuration() external view returns (uint256) {\r\n        return rewardRate.mul(rewardsDuration);\r\n    }\r\n\r\n    function min(uint256 a, uint256 b) public pure returns (uint256) {\r\n        return a < b ? a : b;\r\n    }\r\n\r\n    // PUBLIC FUNCTIONS\r\n\r\n    function stake(uint256 amount)\r\n        external\r\n        checkStakingRequirement(amount)\r\n        nonReentrant\r\n        whenNotPaused\r\n        updateReward(msg.sender)\r\n    {\r\n        require(amount > 0, \"Cannot stake 0\");\r\n        _totalSupply = _totalSupply.add(amount);\r\n        uint256 balBefore = stakingToken.balanceOf(address(this));\r\n        stakingToken.safeTransferFrom(msg.sender, address(this), amount);\r\n        uint256 balAfter = stakingToken.balanceOf(address(this));\r\n        uint256 actualReceived = balAfter.sub(balBefore);\r\n        _balances[msg.sender] = _balances[msg.sender].add(actualReceived);\r\n        emit Staked(msg.sender, amount);\r\n    }\r\n\r\n    function withdraw(uint256 amount)\r\n        public\r\n        nonReentrant\r\n        updateReward(msg.sender)\r\n    {\r\n        require(amount > 0, \"Cannot withdraw 0\");\r\n        _totalSupply = _totalSupply.sub(amount);\r\n        _balances[msg.sender] = _balances[msg.sender].sub(amount);\r\n        stakingToken.safeTransfer(msg.sender, amount);\r\n        emit Withdrawn(msg.sender, amount);\r\n    }\r\n\r\n    function getReward() public nonReentrant updateReward(msg.sender) {\r\n        uint256 reward = rewards[msg.sender];\r\n        uint256 fee = reward.mul(feePercentage).div(100);\r\n        if (reward > 0) {\r\n            rewards[msg.sender] = 0;\r\n            rewardsToken.safeTransfer(treasuryAddress, fee);\r\n            rewardsToken.safeTransfer(msg.sender, reward.sub(fee));\r\n            emit RewardPaid(msg.sender, reward);\r\n        }\r\n    }\r\n\r\n    function exit() external {\r\n        withdraw(_balances[msg.sender]);\r\n        getReward();\r\n    }\r\n\r\n    // RESTRICTED FUNCTIONS\r\n\r\n    function notifyRewardAmount(uint256 reward)\r\n        external\r\n        onlyOwner\r\n        updateReward(address(0))\r\n    {\r\n        if (block.timestamp >= periodFinish) {\r\n            rewardRate = reward.div(rewardsDuration);\r\n        } else {\r\n            uint256 remaining = periodFinish.sub(block.timestamp);\r\n            uint256 leftover = remaining.mul(rewardRate);\r\n            rewardRate = reward.add(leftover).div(rewardsDuration);\r\n        }\r\n\r\n        // Ensure the provided reward amount is not more than the balance in the contract.\r\n        // This keeps the reward rate in the right range, preventing overflows due to\r\n        // very high values of rewardRate in the earned and rewardsPerToken functions;\r\n        // Reward + leftover must be less than 2^256 / 10^18 to avoid overflow.\r\n        uint256 balance = rewardsToken.balanceOf(address(this));\r\n        require(\r\n            rewardRate <= balance.div(rewardsDuration),\r\n            \"Provided reward too high\"\r\n        );\r\n\r\n        lastUpdateTime = block.timestamp;\r\n        periodFinish = block.timestamp.add(rewardsDuration);\r\n        emit RewardAdded(reward);\r\n    }\r\n\r\n    // Added to support recovering LP Rewards from other systems such as BAL to be distributed to holders\r\n    function recoverERC20(address tokenAddress, uint256 tokenAmount)\r\n        external\r\n        onlyOwner\r\n    {\r\n        // Cannot recover the staking token or the rewards token\r\n        require(\r\n            tokenAddress != address(stakingToken) &&\r\n                tokenAddress != address(rewardsToken),\r\n            \"Cannot withdraw the staking or rewards tokens\"\r\n        );\r\n        IERC20(tokenAddress).safeTransfer(owner(), tokenAmount);\r\n        emit Recovered(tokenAddress, tokenAmount);\r\n    }\r\n\r\n    function setRewardsDuration(uint256 _rewardsDuration) external onlyOwner {\r\n        require(\r\n            block.timestamp > periodFinish,\r\n            \"Previous rewards period must be complete before changing the duration for the new period\"\r\n        );\r\n        rewardsDuration = _rewardsDuration;\r\n        emit RewardsDurationUpdated(rewardsDuration);\r\n    }\r\n\r\n    function setPaused(bool _paused) external onlyOwner {\r\n        if(_paused) _pause();\r\n        else _unpause();\r\n    }\r\n\r\n    // MODIFIERS\r\n\r\n    modifier updateReward(address account) {\r\n        rewardPerTokenStored = rewardPerToken();\r\n        lastUpdateTime = lastTimeRewardApplicable();\r\n        if (account != address(0)) {\r\n            rewards[account] = earned(account);\r\n            userRewardPerTokenPaid[account] = rewardPerTokenStored;\r\n        }\r\n        _;\r\n    }\r\n\r\n    // EVENTS\r\n\r\n    event RewardAdded(uint256 reward);\r\n    event Staked(address indexed user, uint256 amount);\r\n    event Withdrawn(address indexed user, uint256 amount);\r\n    event RewardPaid(address indexed user, uint256 reward);\r\n    event RewardsDurationUpdated(uint256 newDuration);\r\n    event Recovered(address token, uint256 amount);\r\n}",
  "sourcePath": "C:/Users/sudip/Desktop/RealProjects/PolyStarter/contracts/StakingFarm/PolyFarm.sol",
  "compiler": {
    "name": "solc",
    "version": "0.8.0+commit.c7dfd78e.Emscripten.clang"
  },
  "schemaVersion": "3.3.4",
  "updatedAt": "2021-07-06T06:40:50.384Z",
  "devdoc": {
    "kind": "dev",
    "methods": {
      "owner()": {
        "details": "Returns the address of the current owner."
      },
      "paused()": {
        "details": "Returns true if the contract is paused, and false otherwise."
      },
      "renounceOwnership()": {
        "details": "Leaves the contract without owner. It will not be possible to call `onlyOwner` functions anymore. Can only be called by the current owner. NOTE: Renouncing ownership will leave the contract without an owner, thereby removing any functionality that is only available to the owner."
      },
      "transferOwnership(address)": {
        "details": "Transfers ownership of the contract to a new account (`newOwner`). Can only be called by the current owner."
      }
    },
    "version": 1
  },
  "userdoc": {
    "kind": "user",
    "methods": {},
    "version": 1
  }
}