{
  "contractName": "PolyFarm",
  "abi": [
    {
      "inputs": [
        {
          "internalType": "address",
          "name": "_rewardsToken",
          "type": "address"
        },
        {
          "internalType": "address",
          "name": "_stakingToken",
          "type": "address"
        }
      ],
      "stateMutability": "nonpayable",
      "type": "constructor"
    },
    {
      "anonymous": false,
      "inputs": [
        {
          "indexed": true,
          "internalType": "address",
          "name": "previousOwner",
          "type": "address"
        },
        {
          "indexed": true,
          "internalType": "address",
          "name": "newOwner",
          "type": "address"
        }
      ],
      "name": "OwnershipTransferred",
      "type": "event"
    },
    {
      "anonymous": false,
      "inputs": [
        {
          "indexed": false,
          "internalType": "address",
          "name": "account",
          "type": "address"
        }
      ],
      "name": "Paused",
      "type": "event"
    },
    {
      "anonymous": false,
      "inputs": [
        {
          "indexed": false,
          "internalType": "address",
          "name": "token",
          "type": "address"
        },
        {
          "indexed": false,
          "internalType": "uint256",
          "name": "amount",
          "type": "uint256"
        }
      ],
      "name": "Recovered",
      "type": "event"
    },
    {
      "anonymous": false,
      "inputs": [
        {
          "indexed": false,
          "internalType": "uint256",
          "name": "reward",
          "type": "uint256"
        }
      ],
      "name": "RewardAdded",
      "type": "event"
    },
    {
      "anonymous": false,
      "inputs": [
        {
          "indexed": true,
          "internalType": "address",
          "name": "user",
          "type": "address"
        },
        {
          "indexed": false,
          "internalType": "uint256",
          "name": "reward",
          "type": "uint256"
        }
      ],
      "name": "RewardPaid",
      "type": "event"
    },
    {
      "anonymous": false,
      "inputs": [
        {
          "indexed": false,
          "internalType": "uint256",
          "name": "newDuration",
          "type": "uint256"
        }
      ],
      "name": "RewardsDurationUpdated",
      "type": "event"
    },
    {
      "anonymous": false,
      "inputs": [
        {
          "indexed": true,
          "internalType": "address",
          "name": "user",
          "type": "address"
        },
        {
          "indexed": false,
          "internalType": "uint256",
          "name": "amount",
          "type": "uint256"
        }
      ],
      "name": "Staked",
      "type": "event"
    },
    {
      "anonymous": false,
      "inputs": [
        {
          "indexed": false,
          "internalType": "address",
          "name": "account",
          "type": "address"
        }
      ],
      "name": "Unpaused",
      "type": "event"
    },
    {
      "anonymous": false,
      "inputs": [
        {
          "indexed": true,
          "internalType": "address",
          "name": "user",
          "type": "address"
        },
        {
          "indexed": false,
          "internalType": "uint256",
          "name": "amount",
          "type": "uint256"
        }
      ],
      "name": "Withdrawn",
      "type": "event"
    },
    {
      "inputs": [],
      "name": "feePercentage",
      "outputs": [
        {
          "internalType": "uint256",
          "name": "",
          "type": "uint256"
        }
      ],
      "stateMutability": "view",
      "type": "function"
    },
    {
      "inputs": [],
      "name": "lastUpdateTime",
      "outputs": [
        {
          "internalType": "uint256",
          "name": "",
          "type": "uint256"
        }
      ],
      "stateMutability": "view",
      "type": "function"
    },
    {
      "inputs": [],
      "name": "maxSatking",
      "outputs": [
        {
          "internalType": "uint256",
          "name": "",
          "type": "uint256"
        }
      ],
      "stateMutability": "view",
      "type": "function"
    },
    {
      "inputs": [],
      "name": "owner",
      "outputs": [
        {
          "internalType": "address",
          "name": "",
          "type": "address"
        }
      ],
      "stateMutability": "view",
      "type": "function"
    },
    {
      "inputs": [],
      "name": "paused",
      "outputs": [
        {
          "internalType": "bool",
          "name": "",
          "type": "bool"
        }
      ],
      "stateMutability": "view",
      "type": "function"
    },
    {
      "inputs": [],
      "name": "periodFinish",
      "outputs": [
        {
          "internalType": "uint256",
          "name": "",
          "type": "uint256"
        }
      ],
      "stateMutability": "view",
      "type": "function"
    },
    {
      "inputs": [],
      "name": "renounceOwnership",
      "outputs": [],
      "stateMutability": "nonpayable",
      "type": "function"
    },
    {
      "inputs": [],
      "name": "rewardPerTokenStored",
      "outputs": [
        {
          "internalType": "uint256",
          "name": "",
          "type": "uint256"
        }
      ],
      "stateMutability": "view",
      "type": "function"
    },
    {
      "inputs": [],
      "name": "rewardRate",
      "outputs": [
        {
          "internalType": "uint256",
          "name": "",
          "type": "uint256"
        }
      ],
      "stateMutability": "view",
      "type": "function"
    },
    {
      "inputs": [
        {
          "internalType": "address",
          "name": "",
          "type": "address"
        }
      ],
      "name": "rewards",
      "outputs": [
        {
          "internalType": "uint256",
          "name": "",
          "type": "uint256"
        }
      ],
      "stateMutability": "view",
      "type": "function"
    },
    {
      "inputs": [],
      "name": "rewardsDuration",
      "outputs": [
        {
          "internalType": "uint256",
          "name": "",
          "type": "uint256"
        }
      ],
      "stateMutability": "view",
      "type": "function"
    },
    {
      "inputs": [],
      "name": "rewardsToken",
      "outputs": [
        {
          "internalType": "contract IERC20",
          "name": "",
          "type": "address"
        }
      ],
      "stateMutability": "view",
      "type": "function"
    },
    {
      "inputs": [],
      "name": "stakingToken",
      "outputs": [
        {
          "internalType": "contract IERC20",
          "name": "",
          "type": "address"
        }
      ],
      "stateMutability": "view",
      "type": "function"
    },
    {
      "inputs": [
        {
          "internalType": "address",
          "name": "newOwner",
          "type": "address"
        }
      ],
      "name": "transferOwnership",
      "outputs": [],
      "stateMutability": "nonpayable",
      "type": "function"
    },
    {
      "inputs": [
        {
          "internalType": "address",
          "name": "",
          "type": "address"
        }
      ],
      "name": "userRewardPerTokenPaid",
      "outputs": [
        {
          "internalType": "uint256",
          "name": "",
          "type": "uint256"
        }
      ],
      "stateMutability": "view",
      "type": "function"
    },
    {
      "inputs": [],
      "name": "totalSupply",
      "outputs": [
        {
          "internalType": "uint256",
          "name": "",
          "type": "uint256"
        }
      ],
      "stateMutability": "view",
      "type": "function"
    },
    {
      "inputs": [
        {
          "internalType": "address",
          "name": "account",
          "type": "address"
        }
      ],
      "name": "balanceOf",
      "outputs": [
        {
          "internalType": "uint256",
          "name": "",
          "type": "uint256"
        }
      ],
      "stateMutability": "view",
      "type": "function"
    },
    {
      "inputs": [],
      "name": "lastTimeRewardApplicable",
      "outputs": [
        {
          "internalType": "uint256",
          "name": "",
          "type": "uint256"
        }
      ],
      "stateMutability": "view",
      "type": "function"
    },
    {
      "inputs": [],
      "name": "rewardPerToken",
      "outputs": [
        {
          "internalType": "uint256",
          "name": "",
          "type": "uint256"
        }
      ],
      "stateMutability": "view",
      "type": "function"
    },
    {
      "inputs": [
        {
          "internalType": "address",
          "name": "account",
          "type": "address"
        }
      ],
      "name": "earned",
      "outputs": [
        {
          "internalType": "uint256",
          "name": "",
          "type": "uint256"
        }
      ],
      "stateMutability": "view",
      "type": "function"
    },
    {
      "inputs": [],
      "name": "getRewardForDuration",
      "outputs": [
        {
          "internalType": "uint256",
          "name": "",
          "type": "uint256"
        }
      ],
      "stateMutability": "view",
      "type": "function"
    },
    {
      "inputs": [
        {
          "internalType": "uint256",
          "name": "a",
          "type": "uint256"
        },
        {
          "internalType": "uint256",
          "name": "b",
          "type": "uint256"
        }
      ],
      "name": "min",
      "outputs": [
        {
          "internalType": "uint256",
          "name": "",
          "type": "uint256"
        }
      ],
      "stateMutability": "pure",
      "type": "function"
    },
    {
      "inputs": [
        {
          "internalType": "uint256",
          "name": "amount",
          "type": "uint256"
        }
      ],
      "name": "stake",
      "outputs": [],
      "stateMutability": "nonpayable",
      "type": "function"
    },
    {
      "inputs": [
        {
          "internalType": "uint256",
          "name": "amount",
          "type": "uint256"
        }
      ],
      "name": "withdraw",
      "outputs": [],
      "stateMutability": "nonpayable",
      "type": "function"
    },
    {
      "inputs": [],
      "name": "getReward",
      "outputs": [],
      "stateMutability": "nonpayable",
      "type": "function"
    },
    {
      "inputs": [],
      "name": "exit",
      "outputs": [],
      "stateMutability": "nonpayable",
      "type": "function"
    },
    {
      "inputs": [
        {
          "internalType": "uint256",
          "name": "reward",
          "type": "uint256"
        }
      ],
      "name": "notifyRewardAmount",
      "outputs": [],
      "stateMutability": "nonpayable",
      "type": "function"
    },
    {
      "inputs": [
        {
          "internalType": "address",
          "name": "tokenAddress",
          "type": "address"
        },
        {
          "internalType": "uint256",
          "name": "tokenAmount",
          "type": "uint256"
        }
      ],
      "name": "recoverERC20",
      "outputs": [],
      "stateMutability": "nonpayable",
      "type": "function"
    },
    {
      "inputs": [
        {
          "internalType": "uint256",
          "name": "_rewardsDuration",
          "type": "uint256"
        }
      ],
      "name": "setRewardsDuration",
      "outputs": [],
      "stateMutability": "nonpayable",
      "type": "function"
    },
    {
      "inputs": [
        {
          "internalType": "bool",
          "name": "_paused",
          "type": "bool"
        }
      ],
      "name": "setPaused",
      "outputs": [],
      "stateMutability": "nonpayable",
      "type": "function"
    }
  ],
  "bytecode": "0x60806040526000196004556000600555600060065562278d00600755600a80553480156200002c57600080fd5b50604051620030e8380380620030e88339818101604052810190620000529190620001ce565b60016000819055506000600160006101000a81548160ff021916908315150217905550600062000087620001af60201b60201c565b9050806001806101000a81548173ffffffffffffffffffffffffffffffffffffffff021916908373ffffffffffffffffffffffffffffffffffffffff1602179055508073ffffffffffffffffffffffffffffffffffffffff16600073ffffffffffffffffffffffffffffffffffffffff167f8be0079c531659141344cd1fd0a4f28419497f9722a3daafe3b4186f6b6457e060405160405180910390a35081600260006101000a81548173ffffffffffffffffffffffffffffffffffffffff021916908373ffffffffffffffffffffffffffffffffffffffff16021790555080600360006101000a81548173ffffffffffffffffffffffffffffffffffffffff021916908373ffffffffffffffffffffffffffffffffffffffff16021790555050506200025d565b600033905090565b600081519050620001c88162000243565b92915050565b60008060408385031215620001e257600080fd5b6000620001f285828601620001b7565b92505060206200020585828601620001b7565b9150509250929050565b60006200021c8262000223565b9050919050565b600073ffffffffffffffffffffffffffffffffffffffff82169050919050565b6200024e816200020f565b81146200025a57600080fd5b50565b612e7b806200026d6000396000f3fe608060405234801561001057600080fd5b50600436106101d95760003560e01c806380faa57d11610104578063c8f33c91116100a2578063df136d6511610071578063df136d6514610510578063e9fad8ee1461052e578063ebe2b12b14610538578063f2fde38b14610556576101d9565b8063c8f33c911461049a578063cc1a378f146104b8578063cd3daf9d146104d4578063d1af0c7d146104f2576101d9565b80638da5cb5b116100de5780638da5cb5b1461042457806399770ead14610442578063a001ecdd14610460578063a694fc3a1461047e576101d9565b806380faa57d146103ba5780638980f11f146103d85780638b876347146103f4576101d9565b80633c6b16ab1161017c578063715018a61161014b578063715018a61461034457806372f702f31461034e5780637ae2b5c71461036c5780637b0a47ee1461039c576101d9565b80633c6b16ab146102d05780633d18b912146102ec5780635c975abb146102f657806370a0823114610314576101d9565b806318160ddd116101b857806318160ddd1461025a5780631c1f78eb146102785780632e1a7d4d14610296578063386a9525146102b2576101d9565b80628cc262146101de5780630700037d1461020e57806316c38b3c1461023e575b600080fd5b6101f860048036038101906101f391906122f7565b610572565b6040516102059190612b90565b60405180910390f35b610228600480360381019061022391906122f7565b610690565b6040516102359190612b90565b60405180910390f35b6102586004803603810190610253919061235c565b6106a8565b005b610262610743565b60405161026f9190612b90565b60405180910390f35b61028061074d565b60405161028d9190612b90565b60405180910390f35b6102b060048036038101906102ab91906123ae565b61076b565b005b6102ba610a37565b6040516102c79190612b90565b60405180910390f35b6102ea60048036038101906102e591906123ae565b610a3d565b005b6102f4610d8f565b005b6102fe6110a0565b60405161030b9190612998565b60405180910390f35b61032e600480360381019061032991906122f7565b6110b7565b60405161033b9190612b90565b60405180910390f35b61034c611100565b005b61035661123a565b60405161036391906129b3565b60405180910390f35b61038660048036038101906103819190612400565b611260565b6040516103939190612b90565b60405180910390f35b6103a4611279565b6040516103b19190612b90565b60405180910390f35b6103c261127f565b6040516103cf9190612b90565b60405180910390f35b6103f260048036038101906103ed9190612320565b611292565b005b61040e600480360381019061040991906122f7565b611468565b60405161041b9190612b90565b60405180910390f35b61042c611480565b604051610439919061291d565b60405180910390f35b61044a6114a8565b6040516104579190612b90565b60405180910390f35b6104686114ae565b6040516104759190612b90565b60405180910390f35b610498600480360381019061049391906123ae565b6114b4565b005b6104a26119aa565b6040516104af9190612b90565b60405180910390f35b6104d260048036038101906104cd91906123ae565b6119b0565b005b6104dc611ab3565b6040516104e99190612b90565b60405180910390f35b6104fa611b41565b60405161050791906129b3565b60405180910390f35b610518611b67565b6040516105259190612b90565b60405180910390f35b610536611b6d565b005b610540611bbf565b60405161054d9190612b90565b60405180910390f35b610570600480360381019061056b91906122f7565b611bc5565b005b6000610689600c60008473ffffffffffffffffffffffffffffffffffffffff1673ffffffffffffffffffffffffffffffffffffffff1681526020019081526020016000205461067b670de0b6b3a764000061066d61061f600b60008973ffffffffffffffffffffffffffffffffffffffff1673ffffffffffffffffffffffffffffffffffffffff16815260200190815260200160002054610611611ab3565b611d6e90919063ffffffff16565b600e60008973ffffffffffffffffffffffffffffffffffffffff1673ffffffffffffffffffffffffffffffffffffffff16815260200190815260200160002054611d8490919063ffffffff16565b611d9a90919063ffffffff16565b611db090919063ffffffff16565b9050919050565b600c6020528060005260406000206000915090505481565b6106b0611dc6565b73ffffffffffffffffffffffffffffffffffffffff166106ce611480565b73ffffffffffffffffffffffffffffffffffffffff1614610724576040517f08c379a000000000000000000000000000000000000000000000000000000000815260040161071b90612ad0565b60405180910390fd5b801561073757610732611dce565b610740565b61073f611e70565b5b50565b6000600d54905090565b6000610766600754600654611d8490919063ffffffff16565b905090565b600260005414156107b1576040517f08c379a00000000000000000000000000000000000000000000000000000000081526004016107a890612b70565b60405180910390fd5b6002600081905550336107c2611ab3565b6009819055506107d061127f565b600881905550600073ffffffffffffffffffffffffffffffffffffffff168173ffffffffffffffffffffffffffffffffffffffff161461089d5761081381610572565b600c60008373ffffffffffffffffffffffffffffffffffffffff1673ffffffffffffffffffffffffffffffffffffffff16815260200190815260200160002081905550600954600b60008373ffffffffffffffffffffffffffffffffffffffff1673ffffffffffffffffffffffffffffffffffffffff168152602001908152602001600020819055505b600082116108e0576040517f08c379a00000000000000000000000000000000000000000000000000000000081526004016108d790612ab0565b60405180910390fd5b6108f582600d54611d6e90919063ffffffff16565b600d8190555061094d82600e60003373ffffffffffffffffffffffffffffffffffffffff1673ffffffffffffffffffffffffffffffffffffffff16815260200190815260200160002054611d6e90919063ffffffff16565b600e60003373ffffffffffffffffffffffffffffffffffffffff1673ffffffffffffffffffffffffffffffffffffffff168152602001908152602001600020819055506109dd3383600360009054906101000a900473ffffffffffffffffffffffffffffffffffffffff1673ffffffffffffffffffffffffffffffffffffffff16611f129092919063ffffffff16565b3373ffffffffffffffffffffffffffffffffffffffff167f7084f5476618d8e60b11ef0d7d3f06914655adb8793e28ff7f018d4c76d505d583604051610a239190612b90565b60405180910390a250600160008190555050565b60075481565b610a45611dc6565b73ffffffffffffffffffffffffffffffffffffffff16610a63611480565b73ffffffffffffffffffffffffffffffffffffffff1614610ab9576040517f08c379a0000000000000000000000000000000000000000000000000000000008152600401610ab090612ad0565b60405180910390fd5b6000610ac3611ab3565b600981905550610ad161127f565b600881905550600073ffffffffffffffffffffffffffffffffffffffff168173ffffffffffffffffffffffffffffffffffffffff1614610b9e57610b1481610572565b600c60008373ffffffffffffffffffffffffffffffffffffffff1673ffffffffffffffffffffffffffffffffffffffff16815260200190815260200160002081905550600954600b60008373ffffffffffffffffffffffffffffffffffffffff1673ffffffffffffffffffffffffffffffffffffffff168152602001908152602001600020819055505b6005544210610bc757610bbc60075483611d9a90919063ffffffff16565b600681905550610c29565b6000610bde42600554611d6e90919063ffffffff16565b90506000610bf760065483611d8490919063ffffffff16565b9050610c20600754610c128387611db090919063ffffffff16565b611d9a90919063ffffffff16565b60068190555050505b6000600260009054906101000a900473ffffffffffffffffffffffffffffffffffffffff1673ffffffffffffffffffffffffffffffffffffffff166370a08231306040518263ffffffff1660e01b8152600401610c86919061291d565b60206040518083038186803b158015610c9e57600080fd5b505afa158015610cb2573d6000803e3d6000fd5b505050506040513d601f19601f82011682018060405250810190610cd691906123d7565b9050610ced60075482611d9a90919063ffffffff16565b6006541115610d31576040517f08c379a0000000000000000000000000000000000000000000000000000000008152600401610d2890612af0565b60405180910390fd5b42600881905550610d4d60075442611db090919063ffffffff16565b6005819055507fde88a922e0d3b88b24e9623efeb464919c6bf9f66857a65e2bfcf2ce87a9433d83604051610d829190612b90565b60405180910390a1505050565b60026000541415610dd5576040517f08c379a0000000000000000000000000000000000000000000000000000000008152600401610dcc90612b70565b60405180910390fd5b600260008190555033610de6611ab3565b600981905550610df461127f565b600881905550600073ffffffffffffffffffffffffffffffffffffffff168173ffffffffffffffffffffffffffffffffffffffff1614610ec157610e3781610572565b600c60008373ffffffffffffffffffffffffffffffffffffffff1673ffffffffffffffffffffffffffffffffffffffff16815260200190815260200160002081905550600954600b60008373ffffffffffffffffffffffffffffffffffffffff1673ffffffffffffffffffffffffffffffffffffffff168152602001908152602001600020819055505b6000600c60003373ffffffffffffffffffffffffffffffffffffffff1673ffffffffffffffffffffffffffffffffffffffff1681526020019081526020016000205490506000610f2f6064610f21600a5485611d8490919063ffffffff16565b611d9a90919063ffffffff16565b90506000821115611093576000600c60003373ffffffffffffffffffffffffffffffffffffffff1673ffffffffffffffffffffffffffffffffffffffff16815260200190815260200160002081905550610fe5610f8a611480565b610f9d8385611d6e90919063ffffffff16565b600260009054906101000a900473ffffffffffffffffffffffffffffffffffffffff1673ffffffffffffffffffffffffffffffffffffffff16611f129092919063ffffffff16565b61104433610ffc8385611d6e90919063ffffffff16565b600260009054906101000a900473ffffffffffffffffffffffffffffffffffffffff1673ffffffffffffffffffffffffffffffffffffffff16611f129092919063ffffffff16565b3373ffffffffffffffffffffffffffffffffffffffff167fe2403640ba68fed3a2f88b7557551d1993f84b99bb10ff833f0cf8db0c5e04868360405161108a9190612b90565b60405180910390a25b5050506001600081905550565b6000600160009054906101000a900460ff16905090565b6000600e60008373ffffffffffffffffffffffffffffffffffffffff1673ffffffffffffffffffffffffffffffffffffffff168152602001908152602001600020549050919050565b611108611dc6565b73ffffffffffffffffffffffffffffffffffffffff16611126611480565b73ffffffffffffffffffffffffffffffffffffffff161461117c576040517f08c379a000000000000000000000000000000000000000000000000000000000815260040161117390612ad0565b60405180910390fd5b600073ffffffffffffffffffffffffffffffffffffffff1660018054906101000a900473ffffffffffffffffffffffffffffffffffffffff1673ffffffffffffffffffffffffffffffffffffffff167f8be0079c531659141344cd1fd0a4f28419497f9722a3daafe3b4186f6b6457e060405160405180910390a360006001806101000a81548173ffffffffffffffffffffffffffffffffffffffff021916908373ffffffffffffffffffffffffffffffffffffffff160217905550565b600360009054906101000a900473ffffffffffffffffffffffffffffffffffffffff1681565b600081831061126f5781611271565b825b905092915050565b60065481565b600061128d42600554611260565b905090565b61129a611dc6565b73ffffffffffffffffffffffffffffffffffffffff166112b8611480565b73ffffffffffffffffffffffffffffffffffffffff161461130e576040517f08c379a000000000000000000000000000000000000000000000000000000000815260040161130590612ad0565b60405180910390fd5b600360009054906101000a900473ffffffffffffffffffffffffffffffffffffffff1673ffffffffffffffffffffffffffffffffffffffff168273ffffffffffffffffffffffffffffffffffffffff16141580156113ba5750600260009054906101000a900473ffffffffffffffffffffffffffffffffffffffff1673ffffffffffffffffffffffffffffffffffffffff168273ffffffffffffffffffffffffffffffffffffffff1614155b6113f9576040517f08c379a00000000000000000000000000000000000000000000000000000000081526004016113f090612b30565b60405180910390fd5b61142b611404611480565b828473ffffffffffffffffffffffffffffffffffffffff16611f129092919063ffffffff16565b7f8c1256b8896378cd5044f80c202f9772b9d77dc85c8a6eb51967210b09bfaa28828260405161145c92919061296f565b60405180910390a15050565b600b6020528060005260406000206000915090505481565b600060018054906101000a900473ffffffffffffffffffffffffffffffffffffffff16905090565b60045481565b600a5481565b80600061150982600e60003373ffffffffffffffffffffffffffffffffffffffff1673ffffffffffffffffffffffffffffffffffffffff16815260200190815260200160002054611db090919063ffffffff16565b905060045481111561151a57600080fd5b60026000541415611560576040517f08c379a000000000000000000000000000000000000000000000000000000000815260040161155790612b70565b60405180910390fd5b60026000819055506115706110a0565b156115b0576040517f08c379a00000000000000000000000000000000000000000000000000000000081526004016115a790612a90565b60405180910390fd5b336115b9611ab3565b6009819055506115c761127f565b600881905550600073ffffffffffffffffffffffffffffffffffffffff168173ffffffffffffffffffffffffffffffffffffffff16146116945761160a81610572565b600c60008373ffffffffffffffffffffffffffffffffffffffff1673ffffffffffffffffffffffffffffffffffffffff16815260200190815260200160002081905550600954600b60008373ffffffffffffffffffffffffffffffffffffffff1673ffffffffffffffffffffffffffffffffffffffff168152602001908152602001600020819055505b600084116116d7576040517f08c379a00000000000000000000000000000000000000000000000000000000081526004016116ce90612a50565b60405180910390fd5b6116ec84600d54611db090919063ffffffff16565b600d819055506000600360009054906101000a900473ffffffffffffffffffffffffffffffffffffffff1673ffffffffffffffffffffffffffffffffffffffff166370a08231306040518263ffffffff1660e01b815260040161174f919061291d565b60206040518083038186803b15801561176757600080fd5b505afa15801561177b573d6000803e3d6000fd5b505050506040513d601f19601f8201168201806040525081019061179f91906123d7565b90506117f0333087600360009054906101000a900473ffffffffffffffffffffffffffffffffffffffff1673ffffffffffffffffffffffffffffffffffffffff16611f98909392919063ffffffff16565b6000600360009054906101000a900473ffffffffffffffffffffffffffffffffffffffff1673ffffffffffffffffffffffffffffffffffffffff166370a08231306040518263ffffffff1660e01b815260040161184d919061291d565b60206040518083038186803b15801561186557600080fd5b505afa158015611879573d6000803e3d6000fd5b505050506040513d601f19601f8201168201806040525081019061189d91906123d7565b905060006118b48383611d6e90919063ffffffff16565b905061190881600e60003373ffffffffffffffffffffffffffffffffffffffff1673ffffffffffffffffffffffffffffffffffffffff16815260200190815260200160002054611db090919063ffffffff16565b600e60003373ffffffffffffffffffffffffffffffffffffffff1673ffffffffffffffffffffffffffffffffffffffff168152602001908152602001600020819055503373ffffffffffffffffffffffffffffffffffffffff167f9e71bc8eea02a63969f509818f2dafb9254532904319f9dbda79b67bd34a5f3d886040516119919190612b90565b60405180910390a2505050506001600081905550505050565b60085481565b6119b8611dc6565b73ffffffffffffffffffffffffffffffffffffffff166119d6611480565b73ffffffffffffffffffffffffffffffffffffffff1614611a2c576040517f08c379a0000000000000000000000000000000000000000000000000000000008152600401611a2390612ad0565b60405180910390fd5b6005544211611a70576040517f08c379a0000000000000000000000000000000000000000000000000000000008152600401611a67906129f0565b60405180910390fd5b806007819055507ffb46ca5a5e06d4540d6387b930a7c978bce0db5f449ec6b3f5d07c6e1d44f2d3600754604051611aa89190612b90565b60405180910390a150565b600080600d541415611ac9576009549050611b3e565b611b3b611b2a600d54611b1c670de0b6b3a7640000611b0e600654611b00600854611af261127f565b611d6e90919063ffffffff16565b611d8490919063ffffffff16565b611d8490919063ffffffff16565b611d9a90919063ffffffff16565b600954611db090919063ffffffff16565b90505b90565b600260009054906101000a900473ffffffffffffffffffffffffffffffffffffffff1681565b60095481565b611bb5600e60003373ffffffffffffffffffffffffffffffffffffffff1673ffffffffffffffffffffffffffffffffffffffff1681526020019081526020016000205461076b565b611bbd610d8f565b565b60055481565b611bcd611dc6565b73ffffffffffffffffffffffffffffffffffffffff16611beb611480565b73ffffffffffffffffffffffffffffffffffffffff1614611c41576040517f08c379a0000000000000000000000000000000000000000000000000000000008152600401611c3890612ad0565b60405180910390fd5b600073ffffffffffffffffffffffffffffffffffffffff168173ffffffffffffffffffffffffffffffffffffffff161415611cb1576040517f08c379a0000000000000000000000000000000000000000000000000000000008152600401611ca890612a30565b60405180910390fd5b8073ffffffffffffffffffffffffffffffffffffffff1660018054906101000a900473ffffffffffffffffffffffffffffffffffffffff1673ffffffffffffffffffffffffffffffffffffffff167f8be0079c531659141344cd1fd0a4f28419497f9722a3daafe3b4186f6b6457e060405160405180910390a3806001806101000a81548173ffffffffffffffffffffffffffffffffffffffff021916908373ffffffffffffffffffffffffffffffffffffffff16021790555050565b60008183611d7c9190612cbe565b905092915050565b60008183611d929190612c64565b905092915050565b60008183611da89190612c33565b905092915050565b60008183611dbe9190612bdd565b905092915050565b600033905090565b611dd66110a0565b15611e16576040517f08c379a0000000000000000000000000000000000000000000000000000000008152600401611e0d90612a90565b60405180910390fd5b60018060006101000a81548160ff0219169083151502179055507f62e78cea01bee320cd4e420270b5ea74000d11b0c9f74754ebdbfc544b05a258611e59611dc6565b604051611e66919061291d565b60405180910390a1565b611e786110a0565b611eb7576040517f08c379a0000000000000000000000000000000000000000000000000000000008152600401611eae90612a10565b60405180910390fd5b6000600160006101000a81548160ff0219169083151502179055507f5db9ee0a495bf2e6ff9c91a7834c1ba4fdd244a5e8aa4e537bd38aeae4b073aa611efb611dc6565b604051611f08919061291d565b60405180910390a1565b611f938363a9059cbb60e01b8484604051602401611f3192919061296f565b604051602081830303815290604052907bffffffffffffffffffffffffffffffffffffffffffffffffffffffff19166020820180517bffffffffffffffffffffffffffffffffffffffffffffffffffffffff8381831617835250505050612021565b505050565b61201b846323b872dd60e01b858585604051602401611fb993929190612938565b604051602081830303815290604052907bffffffffffffffffffffffffffffffffffffffffffffffffffffffff19166020820180517bffffffffffffffffffffffffffffffffffffffffffffffffffffffff8381831617835250505050612021565b50505050565b6000612083826040518060400160405280602081526020017f5361666545524332303a206c6f772d6c6576656c2063616c6c206661696c65648152508573ffffffffffffffffffffffffffffffffffffffff166120e89092919063ffffffff16565b90506000815111156120e357808060200190518101906120a39190612385565b6120e2576040517f08c379a00000000000000000000000000000000000000000000000000000000081526004016120d990612b50565b60405180910390fd5b5b505050565b60606120f78484600085612100565b90509392505050565b606082471015612145576040517f08c379a000000000000000000000000000000000000000000000000000000000815260040161213c90612a70565b60405180910390fd5b61214e85612214565b61218d576040517f08c379a000000000000000000000000000000000000000000000000000000000815260040161218490612b10565b60405180910390fd5b6000808673ffffffffffffffffffffffffffffffffffffffff1685876040516121b69190612906565b60006040518083038185875af1925050503d80600081146121f3576040519150601f19603f3d011682016040523d82523d6000602084013e6121f8565b606091505b5091509150612208828286612227565b92505050949350505050565b600080823b905060008111915050919050565b6060831561223757829050612287565b60008351111561224a5782518084602001fd5b816040517f08c379a000000000000000000000000000000000000000000000000000000000815260040161227e91906129ce565b60405180910390fd5b9392505050565b60008135905061229d81612e00565b92915050565b6000813590506122b281612e17565b92915050565b6000815190506122c781612e17565b92915050565b6000813590506122dc81612e2e565b92915050565b6000815190506122f181612e2e565b92915050565b60006020828403121561230957600080fd5b60006123178482850161228e565b91505092915050565b6000806040838503121561233357600080fd5b60006123418582860161228e565b9250506020612352858286016122cd565b9150509250929050565b60006020828403121561236e57600080fd5b600061237c848285016122a3565b91505092915050565b60006020828403121561239757600080fd5b60006123a5848285016122b8565b91505092915050565b6000602082840312156123c057600080fd5b60006123ce848285016122cd565b91505092915050565b6000602082840312156123e957600080fd5b60006123f7848285016122e2565b91505092915050565b6000806040838503121561241357600080fd5b6000612421858286016122cd565b9250506020612432858286016122cd565b9150509250929050565b61244581612cf2565b82525050565b61245481612d04565b82525050565b600061246582612bab565b61246f8185612bc1565b935061247f818560208601612d5e565b80840191505092915050565b61249481612d3a565b82525050565b60006124a582612bb6565b6124af8185612bcc565b93506124bf818560208601612d5e565b6124c881612def565b840191505092915050565b60006124e0605883612bcc565b91507f50726576696f7573207265776172647320706572696f64206d7573742062652060008301527f636f6d706c657465206265666f7265206368616e67696e67207468652064757260208301527f6174696f6e20666f7220746865206e657720706572696f6400000000000000006040830152606082019050919050565b600061256c601483612bcc565b91507f5061757361626c653a206e6f74207061757365640000000000000000000000006000830152602082019050919050565b60006125ac602683612bcc565b91507f4f776e61626c653a206e6577206f776e657220697320746865207a65726f206160008301527f64647265737300000000000000000000000000000000000000000000000000006020830152604082019050919050565b6000612612600e83612bcc565b91507f43616e6e6f74207374616b6520300000000000000000000000000000000000006000830152602082019050919050565b6000612652602683612bcc565b91507f416464726573733a20696e73756666696369656e742062616c616e636520666f60008301527f722063616c6c00000000000000000000000000000000000000000000000000006020830152604082019050919050565b60006126b8601083612bcc565b91507f5061757361626c653a20706175736564000000000000000000000000000000006000830152602082019050919050565b60006126f8601183612bcc565b91507f43616e6e6f7420776974686472617720300000000000000000000000000000006000830152602082019050919050565b6000612738602083612bcc565b91507f4f776e61626c653a2063616c6c6572206973206e6f7420746865206f776e65726000830152602082019050919050565b6000612778601883612bcc565b91507f50726f76696465642072657761726420746f6f206869676800000000000000006000830152602082019050919050565b60006127b8601d83612bcc565b91507f416464726573733a2063616c6c20746f206e6f6e2d636f6e74726163740000006000830152602082019050919050565b60006127f8602d83612bcc565b91507f43616e6e6f7420776974686472617720746865207374616b696e67206f72207260008301527f65776172647320746f6b656e73000000000000000000000000000000000000006020830152604082019050919050565b600061285e602a83612bcc565b91507f5361666545524332303a204552433230206f7065726174696f6e20646964206e60008301527f6f742073756363656564000000000000000000000000000000000000000000006020830152604082019050919050565b60006128c4601f83612bcc565b91507f5265656e7472616e637947756172643a207265656e7472616e742063616c6c006000830152602082019050919050565b61290081612d30565b82525050565b6000612912828461245a565b915081905092915050565b6000602082019050612932600083018461243c565b92915050565b600060608201905061294d600083018661243c565b61295a602083018561243c565b61296760408301846128f7565b949350505050565b6000604082019050612984600083018561243c565b61299160208301846128f7565b9392505050565b60006020820190506129ad600083018461244b565b92915050565b60006020820190506129c8600083018461248b565b92915050565b600060208201905081810360008301526129e8818461249a565b905092915050565b60006020820190508181036000830152612a09816124d3565b9050919050565b60006020820190508181036000830152612a298161255f565b9050919050565b60006020820190508181036000830152612a498161259f565b9050919050565b60006020820190508181036000830152612a6981612605565b9050919050565b60006020820190508181036000830152612a8981612645565b9050919050565b60006020820190508181036000830152612aa9816126ab565b9050919050565b60006020820190508181036000830152612ac9816126eb565b9050919050565b60006020820190508181036000830152612ae98161272b565b9050919050565b60006020820190508181036000830152612b098161276b565b9050919050565b60006020820190508181036000830152612b29816127ab565b9050919050565b60006020820190508181036000830152612b49816127eb565b9050919050565b60006020820190508181036000830152612b6981612851565b9050919050565b60006020820190508181036000830152612b89816128b7565b9050919050565b6000602082019050612ba560008301846128f7565b92915050565b600081519050919050565b600081519050919050565b600081905092915050565b600082825260208201905092915050565b6000612be882612d30565b9150612bf383612d30565b9250827fffffffffffffffffffffffffffffffffffffffffffffffffffffffffffffffff03821115612c2857612c27612d91565b5b828201905092915050565b6000612c3e82612d30565b9150612c4983612d30565b925082612c5957612c58612dc0565b5b828204905092915050565b6000612c6f82612d30565b9150612c7a83612d30565b9250817fffffffffffffffffffffffffffffffffffffffffffffffffffffffffffffffff0483118215151615612cb357612cb2612d91565b5b828202905092915050565b6000612cc982612d30565b9150612cd483612d30565b925082821015612ce757612ce6612d91565b5b828203905092915050565b6000612cfd82612d10565b9050919050565b60008115159050919050565b600073ffffffffffffffffffffffffffffffffffffffff82169050919050565b6000819050919050565b6000612d4582612d4c565b9050919050565b6000612d5782612d10565b9050919050565b60005b83811015612d7c578082015181840152602081019050612d61565b83811115612d8b576000848401525b50505050565b7f4e487b7100000000000000000000000000000000000000000000000000000000600052601160045260246000fd5b7f4e487b7100000000000000000000000000000000000000000000000000000000600052601260045260246000fd5b6000601f19601f8301169050919050565b612e0981612cf2565b8114612e1457600080fd5b50565b612e2081612d04565b8114612e2b57600080fd5b50565b612e3781612d30565b8114612e4257600080fd5b5056fea2646970667358221220a3dcec3f97249be7d9e65ebc5034e58cb747c45de0c65973801d79ec6232514964736f6c63430008000033",
  "immutableReferences": {},
  "source": "// SPDX-License-Identifier: MIT\r\npragma solidity ^0.8.0;\r\n\r\nimport \"@openzeppelin/contracts/security/ReentrancyGuard.sol\";\r\nimport \"@openzeppelin/contracts/access/Ownable.sol\";\r\nimport \"@openzeppelin/contracts/security/Pausable.sol\";\r\nimport \"@openzeppelin/contracts/token/ERC20/utils/SafeERC20.sol\";\r\nimport \"@openzeppelin/contracts/utils/math/SafeMath.sol\";\r\n\r\ncontract PolyFarm is ReentrancyGuard, Pausable, Ownable {\r\n    using SafeMath for uint256;\r\n    using SafeERC20 for IERC20;\r\n\r\n    // STATE VARIABLES\r\n\r\n    IERC20 public rewardsToken;\r\n    IERC20 public stakingToken;\r\n    uint256 public maxSatking = ~uint256(0);\r\n    uint256 public periodFinish = 0;\r\n    uint256 public rewardRate = 0;\r\n    uint256 public rewardsDuration = 30 days;\r\n    uint256 public lastUpdateTime;\r\n    uint256 public rewardPerTokenStored;\r\n    uint256 public feePercentage = 10;\r\n\r\n    mapping(address => uint256) public userRewardPerTokenPaid;\r\n    mapping(address => uint256) public rewards;\r\n\r\n    uint256 private _totalSupply;\r\n    mapping(address => uint256) private _balances;\r\n    \r\n    modifier checkStakingRequirement(uint256 amount){\r\n        uint256 checkAmount= _balances[msg.sender].add(amount);\r\n        require(checkAmount<=maxSatking);\r\n        _;\r\n    }\r\n\r\n    // CONSTRUCTOR\r\n\r\n    constructor(\r\n        address _rewardsToken,\r\n        address _stakingToken\r\n    ) {\r\n        rewardsToken = IERC20(_rewardsToken);\r\n        stakingToken = IERC20(_stakingToken);\r\n    }\r\n\r\n    // VIEWS\r\n\r\n    function totalSupply() external view returns (uint256) {\r\n        return _totalSupply;\r\n    }\r\n\r\n    function balanceOf(address account) external view returns (uint256) {\r\n        return _balances[account];\r\n    }\r\n\r\n    function lastTimeRewardApplicable() public view returns (uint256) {\r\n        return min(block.timestamp, periodFinish);\r\n    }\r\n\r\n    function rewardPerToken() public view returns (uint256) {\r\n        if (_totalSupply == 0) {\r\n            return rewardPerTokenStored;\r\n        }\r\n        return\r\n            rewardPerTokenStored.add(\r\n                lastTimeRewardApplicable()\r\n                    .sub(lastUpdateTime)\r\n                    .mul(rewardRate)\r\n                    .mul(1e18)\r\n                    .div(_totalSupply)\r\n            );\r\n    }\r\n\r\n    function earned(address account) public view returns (uint256) {\r\n        return\r\n            _balances[account]\r\n                .mul(rewardPerToken().sub(userRewardPerTokenPaid[account]))\r\n                .div(1e18)\r\n                .add(rewards[account]);\r\n    }\r\n\r\n    function getRewardForDuration() external view returns (uint256) {\r\n        return rewardRate.mul(rewardsDuration);\r\n    }\r\n\r\n    function min(uint256 a, uint256 b) public pure returns (uint256) {\r\n        return a < b ? a : b;\r\n    }\r\n\r\n    // PUBLIC FUNCTIONS\r\n\r\n    function stake(uint256 amount)\r\n        external\r\n        checkStakingRequirement(amount)\r\n        nonReentrant\r\n        whenNotPaused\r\n        updateReward(msg.sender)\r\n    {\r\n        require(amount > 0, \"Cannot stake 0\");\r\n        _totalSupply = _totalSupply.add(amount);\r\n        uint256 balBefore = stakingToken.balanceOf(address(this));\r\n        stakingToken.safeTransferFrom(msg.sender, address(this), amount);\r\n        uint256 balAfter = stakingToken.balanceOf(address(this));\r\n        uint256 actualReceived = balAfter.sub(balBefore);\r\n        _balances[msg.sender] = _balances[msg.sender].add(actualReceived);\r\n        emit Staked(msg.sender, amount);\r\n    }\r\n\r\n    function withdraw(uint256 amount)\r\n        public\r\n        nonReentrant\r\n        updateReward(msg.sender)\r\n    {\r\n        require(amount > 0, \"Cannot withdraw 0\");\r\n        _totalSupply = _totalSupply.sub(amount);\r\n        _balances[msg.sender] = _balances[msg.sender].sub(amount);\r\n        stakingToken.safeTransfer(msg.sender, amount);\r\n        emit Withdrawn(msg.sender, amount);\r\n    }\r\n\r\n    function getReward() public nonReentrant updateReward(msg.sender) {\r\n        uint256 reward = rewards[msg.sender];\r\n        uint256 fee = reward.mul(feePercentage).div(100);\r\n        if (reward > 0) {\r\n            rewards[msg.sender] = 0;\r\n            rewardsToken.safeTransfer(owner(), reward.sub(fee));\r\n            rewardsToken.safeTransfer(msg.sender, reward.sub(fee));\r\n            emit RewardPaid(msg.sender, reward);\r\n        }\r\n    }\r\n\r\n    function exit() external {\r\n        withdraw(_balances[msg.sender]);\r\n        getReward();\r\n    }\r\n\r\n    // RESTRICTED FUNCTIONS\r\n\r\n    function notifyRewardAmount(uint256 reward)\r\n        external\r\n        onlyOwner\r\n        updateReward(address(0))\r\n    {\r\n        if (block.timestamp >= periodFinish) {\r\n            rewardRate = reward.div(rewardsDuration);\r\n        } else {\r\n            uint256 remaining = periodFinish.sub(block.timestamp);\r\n            uint256 leftover = remaining.mul(rewardRate);\r\n            rewardRate = reward.add(leftover).div(rewardsDuration);\r\n        }\r\n\r\n        // Ensure the provided reward amount is not more than the balance in the contract.\r\n        // This keeps the reward rate in the right range, preventing overflows due to\r\n        // very high values of rewardRate in the earned and rewardsPerToken functions;\r\n        // Reward + leftover must be less than 2^256 / 10^18 to avoid overflow.\r\n        uint256 balance = rewardsToken.balanceOf(address(this));\r\n        require(\r\n            rewardRate <= balance.div(rewardsDuration),\r\n            \"Provided reward too high\"\r\n        );\r\n\r\n        lastUpdateTime = block.timestamp;\r\n        periodFinish = block.timestamp.add(rewardsDuration);\r\n        emit RewardAdded(reward);\r\n    }\r\n\r\n    // Added to support recovering LP Rewards from other systems such as BAL to be distributed to holders\r\n    function recoverERC20(address tokenAddress, uint256 tokenAmount)\r\n        external\r\n        onlyOwner\r\n    {\r\n        // Cannot recover the staking token or the rewards token\r\n        require(\r\n            tokenAddress != address(stakingToken) &&\r\n                tokenAddress != address(rewardsToken),\r\n            \"Cannot withdraw the staking or rewards tokens\"\r\n        );\r\n        IERC20(tokenAddress).safeTransfer(owner(), tokenAmount);\r\n        emit Recovered(tokenAddress, tokenAmount);\r\n    }\r\n\r\n    function setRewardsDuration(uint256 _rewardsDuration) external onlyOwner {\r\n        require(\r\n            block.timestamp > periodFinish,\r\n            \"Previous rewards period must be complete before changing the duration for the new period\"\r\n        );\r\n        rewardsDuration = _rewardsDuration;\r\n        emit RewardsDurationUpdated(rewardsDuration);\r\n    }\r\n\r\n    function setPaused(bool _paused) external onlyOwner {\r\n        if(_paused) _pause();\r\n        else _unpause();\r\n    }\r\n\r\n    // MODIFIERS\r\n\r\n    modifier updateReward(address account) {\r\n        rewardPerTokenStored = rewardPerToken();\r\n        lastUpdateTime = lastTimeRewardApplicable();\r\n        if (account != address(0)) {\r\n            rewards[account] = earned(account);\r\n            userRewardPerTokenPaid[account] = rewardPerTokenStored;\r\n        }\r\n        _;\r\n    }\r\n\r\n    // EVENTS\r\n\r\n    event RewardAdded(uint256 reward);\r\n    event Staked(address indexed user, uint256 amount);\r\n    event Withdrawn(address indexed user, uint256 amount);\r\n    event RewardPaid(address indexed user, uint256 reward);\r\n    event RewardsDurationUpdated(uint256 newDuration);\r\n    event Recovered(address token, uint256 amount);\r\n}",
  "sourcePath": "C:/Users/sudip/Desktop/RealProjects/PolyStarter/contracts/StakingFarm/PolyFarm.sol",
  "compiler": {
    "name": "solc",
    "version": "0.8.0+commit.c7dfd78e.Emscripten.clang"
  },
  "schemaVersion": "3.3.4",
  "updatedAt": "2021-06-23T14:31:53.219Z",
  "devdoc": {
    "kind": "dev",
    "methods": {
      "owner()": {
        "details": "Returns the address of the current owner."
      },
      "paused()": {
        "details": "Returns true if the contract is paused, and false otherwise."
      },
      "renounceOwnership()": {
        "details": "Leaves the contract without owner. It will not be possible to call `onlyOwner` functions anymore. Can only be called by the current owner. NOTE: Renouncing ownership will leave the contract without an owner, thereby removing any functionality that is only available to the owner."
      },
      "transferOwnership(address)": {
        "details": "Transfers ownership of the contract to a new account (`newOwner`). Can only be called by the current owner."
      }
    },
    "version": 1
  },
  "userdoc": {
    "kind": "user",
    "methods": {},
    "version": 1
  }
}