{
  "contractName": "PolyFarm",
  "abi": [
    {
      "inputs": [
        {
          "internalType": "address",
          "name": "_rewardsToken",
          "type": "address"
        },
        {
          "internalType": "address",
          "name": "_stakingToken",
          "type": "address"
        }
      ],
      "stateMutability": "nonpayable",
      "type": "constructor"
    },
    {
      "anonymous": false,
      "inputs": [
        {
          "indexed": true,
          "internalType": "address",
          "name": "previousOwner",
          "type": "address"
        },
        {
          "indexed": true,
          "internalType": "address",
          "name": "newOwner",
          "type": "address"
        }
      ],
      "name": "OwnershipTransferred",
      "type": "event"
    },
    {
      "anonymous": false,
      "inputs": [
        {
          "indexed": false,
          "internalType": "address",
          "name": "account",
          "type": "address"
        }
      ],
      "name": "Paused",
      "type": "event"
    },
    {
      "anonymous": false,
      "inputs": [
        {
          "indexed": false,
          "internalType": "address",
          "name": "token",
          "type": "address"
        },
        {
          "indexed": false,
          "internalType": "uint256",
          "name": "amount",
          "type": "uint256"
        }
      ],
      "name": "Recovered",
      "type": "event"
    },
    {
      "anonymous": false,
      "inputs": [
        {
          "indexed": false,
          "internalType": "uint256",
          "name": "reward",
          "type": "uint256"
        }
      ],
      "name": "RewardAdded",
      "type": "event"
    },
    {
      "anonymous": false,
      "inputs": [
        {
          "indexed": true,
          "internalType": "address",
          "name": "user",
          "type": "address"
        },
        {
          "indexed": false,
          "internalType": "uint256",
          "name": "reward",
          "type": "uint256"
        }
      ],
      "name": "RewardPaid",
      "type": "event"
    },
    {
      "anonymous": false,
      "inputs": [
        {
          "indexed": false,
          "internalType": "uint256",
          "name": "newDuration",
          "type": "uint256"
        }
      ],
      "name": "RewardsDurationUpdated",
      "type": "event"
    },
    {
      "anonymous": false,
      "inputs": [
        {
          "indexed": true,
          "internalType": "address",
          "name": "user",
          "type": "address"
        },
        {
          "indexed": false,
          "internalType": "uint256",
          "name": "amount",
          "type": "uint256"
        }
      ],
      "name": "Staked",
      "type": "event"
    },
    {
      "anonymous": false,
      "inputs": [
        {
          "indexed": false,
          "internalType": "address",
          "name": "account",
          "type": "address"
        }
      ],
      "name": "Unpaused",
      "type": "event"
    },
    {
      "anonymous": false,
      "inputs": [
        {
          "indexed": true,
          "internalType": "address",
          "name": "user",
          "type": "address"
        },
        {
          "indexed": false,
          "internalType": "uint256",
          "name": "amount",
          "type": "uint256"
        }
      ],
      "name": "Withdrawn",
      "type": "event"
    },
    {
      "inputs": [],
      "name": "feePercentage",
      "outputs": [
        {
          "internalType": "uint256",
          "name": "",
          "type": "uint256"
        }
      ],
      "stateMutability": "view",
      "type": "function"
    },
    {
      "inputs": [],
      "name": "lastUpdateTime",
      "outputs": [
        {
          "internalType": "uint256",
          "name": "",
          "type": "uint256"
        }
      ],
      "stateMutability": "view",
      "type": "function"
    },
    {
      "inputs": [],
      "name": "maxSatking",
      "outputs": [
        {
          "internalType": "uint256",
          "name": "",
          "type": "uint256"
        }
      ],
      "stateMutability": "view",
      "type": "function"
    },
    {
      "inputs": [],
      "name": "owner",
      "outputs": [
        {
          "internalType": "address",
          "name": "",
          "type": "address"
        }
      ],
      "stateMutability": "view",
      "type": "function"
    },
    {
      "inputs": [],
      "name": "paused",
      "outputs": [
        {
          "internalType": "bool",
          "name": "",
          "type": "bool"
        }
      ],
      "stateMutability": "view",
      "type": "function"
    },
    {
      "inputs": [],
      "name": "periodFinish",
      "outputs": [
        {
          "internalType": "uint256",
          "name": "",
          "type": "uint256"
        }
      ],
      "stateMutability": "view",
      "type": "function"
    },
    {
      "inputs": [],
      "name": "renounceOwnership",
      "outputs": [],
      "stateMutability": "nonpayable",
      "type": "function"
    },
    {
      "inputs": [],
      "name": "rewardPerTokenStored",
      "outputs": [
        {
          "internalType": "uint256",
          "name": "",
          "type": "uint256"
        }
      ],
      "stateMutability": "view",
      "type": "function"
    },
    {
      "inputs": [],
      "name": "rewardRate",
      "outputs": [
        {
          "internalType": "uint256",
          "name": "",
          "type": "uint256"
        }
      ],
      "stateMutability": "view",
      "type": "function"
    },
    {
      "inputs": [
        {
          "internalType": "address",
          "name": "",
          "type": "address"
        }
      ],
      "name": "rewards",
      "outputs": [
        {
          "internalType": "uint256",
          "name": "",
          "type": "uint256"
        }
      ],
      "stateMutability": "view",
      "type": "function"
    },
    {
      "inputs": [],
      "name": "rewardsDuration",
      "outputs": [
        {
          "internalType": "uint256",
          "name": "",
          "type": "uint256"
        }
      ],
      "stateMutability": "view",
      "type": "function"
    },
    {
      "inputs": [],
      "name": "rewardsToken",
      "outputs": [
        {
          "internalType": "contract IERC20",
          "name": "",
          "type": "address"
        }
      ],
      "stateMutability": "view",
      "type": "function"
    },
    {
      "inputs": [],
      "name": "stakingToken",
      "outputs": [
        {
          "internalType": "contract IERC20",
          "name": "",
          "type": "address"
        }
      ],
      "stateMutability": "view",
      "type": "function"
    },
    {
      "inputs": [
        {
          "internalType": "address",
          "name": "newOwner",
          "type": "address"
        }
      ],
      "name": "transferOwnership",
      "outputs": [],
      "stateMutability": "nonpayable",
      "type": "function"
    },
    {
      "inputs": [
        {
          "internalType": "address",
          "name": "",
          "type": "address"
        }
      ],
      "name": "userRewardPerTokenPaid",
      "outputs": [
        {
          "internalType": "uint256",
          "name": "",
          "type": "uint256"
        }
      ],
      "stateMutability": "view",
      "type": "function"
    },
    {
      "inputs": [],
      "name": "totalSupply",
      "outputs": [
        {
          "internalType": "uint256",
          "name": "",
          "type": "uint256"
        }
      ],
      "stateMutability": "view",
      "type": "function"
    },
    {
      "inputs": [
        {
          "internalType": "address",
          "name": "account",
          "type": "address"
        }
      ],
      "name": "balanceOf",
      "outputs": [
        {
          "internalType": "uint256",
          "name": "",
          "type": "uint256"
        }
      ],
      "stateMutability": "view",
      "type": "function"
    },
    {
      "inputs": [],
      "name": "lastTimeRewardApplicable",
      "outputs": [
        {
          "internalType": "uint256",
          "name": "",
          "type": "uint256"
        }
      ],
      "stateMutability": "view",
      "type": "function"
    },
    {
      "inputs": [],
      "name": "rewardPerToken",
      "outputs": [
        {
          "internalType": "uint256",
          "name": "",
          "type": "uint256"
        }
      ],
      "stateMutability": "view",
      "type": "function"
    },
    {
      "inputs": [
        {
          "internalType": "address",
          "name": "account",
          "type": "address"
        }
      ],
      "name": "earned",
      "outputs": [
        {
          "internalType": "uint256",
          "name": "",
          "type": "uint256"
        }
      ],
      "stateMutability": "view",
      "type": "function"
    },
    {
      "inputs": [],
      "name": "getRewardForDuration",
      "outputs": [
        {
          "internalType": "uint256",
          "name": "",
          "type": "uint256"
        }
      ],
      "stateMutability": "view",
      "type": "function"
    },
    {
      "inputs": [
        {
          "internalType": "uint256",
          "name": "a",
          "type": "uint256"
        },
        {
          "internalType": "uint256",
          "name": "b",
          "type": "uint256"
        }
      ],
      "name": "min",
      "outputs": [
        {
          "internalType": "uint256",
          "name": "",
          "type": "uint256"
        }
      ],
      "stateMutability": "pure",
      "type": "function"
    },
    {
      "inputs": [
        {
          "internalType": "uint256",
          "name": "amount",
          "type": "uint256"
        }
      ],
      "name": "stake",
      "outputs": [],
      "stateMutability": "nonpayable",
      "type": "function"
    },
    {
      "inputs": [
        {
          "internalType": "uint256",
          "name": "amount",
          "type": "uint256"
        }
      ],
      "name": "withdraw",
      "outputs": [],
      "stateMutability": "nonpayable",
      "type": "function"
    },
    {
      "inputs": [],
      "name": "getReward",
      "outputs": [],
      "stateMutability": "nonpayable",
      "type": "function"
    },
    {
      "inputs": [],
      "name": "exit",
      "outputs": [],
      "stateMutability": "nonpayable",
      "type": "function"
    },
    {
      "inputs": [
        {
          "internalType": "uint256",
          "name": "reward",
          "type": "uint256"
        }
      ],
      "name": "notifyRewardAmount",
      "outputs": [],
      "stateMutability": "nonpayable",
      "type": "function"
    },
    {
      "inputs": [
        {
          "internalType": "address",
          "name": "tokenAddress",
          "type": "address"
        },
        {
          "internalType": "uint256",
          "name": "tokenAmount",
          "type": "uint256"
        }
      ],
      "name": "recoverERC20",
      "outputs": [],
      "stateMutability": "nonpayable",
      "type": "function"
    },
    {
      "inputs": [
        {
          "internalType": "uint256",
          "name": "_rewardsDuration",
          "type": "uint256"
        }
      ],
      "name": "setRewardsDuration",
      "outputs": [],
      "stateMutability": "nonpayable",
      "type": "function"
    },
    {
      "inputs": [
        {
          "internalType": "bool",
          "name": "_paused",
          "type": "bool"
        }
      ],
      "name": "setPaused",
      "outputs": [],
      "stateMutability": "nonpayable",
      "type": "function"
    }
  ],
  "bytecode": "0x60806040526000196004556000600555600060065562278d00600755600a80553480156200002c57600080fd5b50604051620030d6380380620030d68339818101604052810190620000529190620001ce565b60016000819055506000600160006101000a81548160ff021916908315150217905550600062000087620001af60201b60201c565b9050806001806101000a81548173ffffffffffffffffffffffffffffffffffffffff021916908373ffffffffffffffffffffffffffffffffffffffff1602179055508073ffffffffffffffffffffffffffffffffffffffff16600073ffffffffffffffffffffffffffffffffffffffff167f8be0079c531659141344cd1fd0a4f28419497f9722a3daafe3b4186f6b6457e060405160405180910390a35081600260006101000a81548173ffffffffffffffffffffffffffffffffffffffff021916908373ffffffffffffffffffffffffffffffffffffffff16021790555080600360006101000a81548173ffffffffffffffffffffffffffffffffffffffff021916908373ffffffffffffffffffffffffffffffffffffffff16021790555050506200025d565b600033905090565b600081519050620001c88162000243565b92915050565b60008060408385031215620001e257600080fd5b6000620001f285828601620001b7565b92505060206200020585828601620001b7565b9150509250929050565b60006200021c8262000223565b9050919050565b600073ffffffffffffffffffffffffffffffffffffffff82169050919050565b6200024e816200020f565b81146200025a57600080fd5b50565b612e69806200026d6000396000f3fe608060405234801561001057600080fd5b50600436106101d95760003560e01c806380faa57d11610104578063c8f33c91116100a2578063df136d6511610071578063df136d6514610510578063e9fad8ee1461052e578063ebe2b12b14610538578063f2fde38b14610556576101d9565b8063c8f33c911461049a578063cc1a378f146104b8578063cd3daf9d146104d4578063d1af0c7d146104f2576101d9565b80638da5cb5b116100de5780638da5cb5b1461042457806399770ead14610442578063a001ecdd14610460578063a694fc3a1461047e576101d9565b806380faa57d146103ba5780638980f11f146103d85780638b876347146103f4576101d9565b80633c6b16ab1161017c578063715018a61161014b578063715018a61461034457806372f702f31461034e5780637ae2b5c71461036c5780637b0a47ee1461039c576101d9565b80633c6b16ab146102d05780633d18b912146102ec5780635c975abb146102f657806370a0823114610314576101d9565b806318160ddd116101b857806318160ddd1461025a5780631c1f78eb146102785780632e1a7d4d14610296578063386a9525146102b2576101d9565b80628cc262146101de5780630700037d1461020e57806316c38b3c1461023e575b600080fd5b6101f860048036038101906101f391906122e5565b610572565b6040516102059190612b7e565b60405180910390f35b610228600480360381019061022391906122e5565b610690565b6040516102359190612b7e565b60405180910390f35b6102586004803603810190610253919061234a565b6106a8565b005b610262610743565b60405161026f9190612b7e565b60405180910390f35b61028061074d565b60405161028d9190612b7e565b60405180910390f35b6102b060048036038101906102ab919061239c565b61076b565b005b6102ba610a37565b6040516102c79190612b7e565b60405180910390f35b6102ea60048036038101906102e5919061239c565b610a3d565b005b6102f4610d8f565b005b6102fe61108e565b60405161030b9190612986565b60405180910390f35b61032e600480360381019061032991906122e5565b6110a5565b60405161033b9190612b7e565b60405180910390f35b61034c6110ee565b005b610356611228565b60405161036391906129a1565b60405180910390f35b610386600480360381019061038191906123ee565b61124e565b6040516103939190612b7e565b60405180910390f35b6103a4611267565b6040516103b19190612b7e565b60405180910390f35b6103c261126d565b6040516103cf9190612b7e565b60405180910390f35b6103f260048036038101906103ed919061230e565b611280565b005b61040e600480360381019061040991906122e5565b611456565b60405161041b9190612b7e565b60405180910390f35b61042c61146e565b604051610439919061290b565b60405180910390f35b61044a611496565b6040516104579190612b7e565b60405180910390f35b61046861149c565b6040516104759190612b7e565b60405180910390f35b6104986004803603810190610493919061239c565b6114a2565b005b6104a2611998565b6040516104af9190612b7e565b60405180910390f35b6104d260048036038101906104cd919061239c565b61199e565b005b6104dc611aa1565b6040516104e99190612b7e565b60405180910390f35b6104fa611b2f565b60405161050791906129a1565b60405180910390f35b610518611b55565b6040516105259190612b7e565b60405180910390f35b610536611b5b565b005b610540611bad565b60405161054d9190612b7e565b60405180910390f35b610570600480360381019061056b91906122e5565b611bb3565b005b6000610689600c60008473ffffffffffffffffffffffffffffffffffffffff1673ffffffffffffffffffffffffffffffffffffffff1681526020019081526020016000205461067b670de0b6b3a764000061066d61061f600b60008973ffffffffffffffffffffffffffffffffffffffff1673ffffffffffffffffffffffffffffffffffffffff16815260200190815260200160002054610611611aa1565b611d5c90919063ffffffff16565b600e60008973ffffffffffffffffffffffffffffffffffffffff1673ffffffffffffffffffffffffffffffffffffffff16815260200190815260200160002054611d7290919063ffffffff16565b611d8890919063ffffffff16565b611d9e90919063ffffffff16565b9050919050565b600c6020528060005260406000206000915090505481565b6106b0611db4565b73ffffffffffffffffffffffffffffffffffffffff166106ce61146e565b73ffffffffffffffffffffffffffffffffffffffff1614610724576040517f08c379a000000000000000000000000000000000000000000000000000000000815260040161071b90612abe565b60405180910390fd5b801561073757610732611dbc565b610740565b61073f611e5e565b5b50565b6000600d54905090565b6000610766600754600654611d7290919063ffffffff16565b905090565b600260005414156107b1576040517f08c379a00000000000000000000000000000000000000000000000000000000081526004016107a890612b5e565b60405180910390fd5b6002600081905550336107c2611aa1565b6009819055506107d061126d565b600881905550600073ffffffffffffffffffffffffffffffffffffffff168173ffffffffffffffffffffffffffffffffffffffff161461089d5761081381610572565b600c60008373ffffffffffffffffffffffffffffffffffffffff1673ffffffffffffffffffffffffffffffffffffffff16815260200190815260200160002081905550600954600b60008373ffffffffffffffffffffffffffffffffffffffff1673ffffffffffffffffffffffffffffffffffffffff168152602001908152602001600020819055505b600082116108e0576040517f08c379a00000000000000000000000000000000000000000000000000000000081526004016108d790612a9e565b60405180910390fd5b6108f582600d54611d5c90919063ffffffff16565b600d8190555061094d82600e60003373ffffffffffffffffffffffffffffffffffffffff1673ffffffffffffffffffffffffffffffffffffffff16815260200190815260200160002054611d5c90919063ffffffff16565b600e60003373ffffffffffffffffffffffffffffffffffffffff1673ffffffffffffffffffffffffffffffffffffffff168152602001908152602001600020819055506109dd3383600360009054906101000a900473ffffffffffffffffffffffffffffffffffffffff1673ffffffffffffffffffffffffffffffffffffffff16611f009092919063ffffffff16565b3373ffffffffffffffffffffffffffffffffffffffff167f7084f5476618d8e60b11ef0d7d3f06914655adb8793e28ff7f018d4c76d505d583604051610a239190612b7e565b60405180910390a250600160008190555050565b60075481565b610a45611db4565b73ffffffffffffffffffffffffffffffffffffffff16610a6361146e565b73ffffffffffffffffffffffffffffffffffffffff1614610ab9576040517f08c379a0000000000000000000000000000000000000000000000000000000008152600401610ab090612abe565b60405180910390fd5b6000610ac3611aa1565b600981905550610ad161126d565b600881905550600073ffffffffffffffffffffffffffffffffffffffff168173ffffffffffffffffffffffffffffffffffffffff1614610b9e57610b1481610572565b600c60008373ffffffffffffffffffffffffffffffffffffffff1673ffffffffffffffffffffffffffffffffffffffff16815260200190815260200160002081905550600954600b60008373ffffffffffffffffffffffffffffffffffffffff1673ffffffffffffffffffffffffffffffffffffffff168152602001908152602001600020819055505b6005544210610bc757610bbc60075483611d8890919063ffffffff16565b600681905550610c29565b6000610bde42600554611d5c90919063ffffffff16565b90506000610bf760065483611d7290919063ffffffff16565b9050610c20600754610c128387611d9e90919063ffffffff16565b611d8890919063ffffffff16565b60068190555050505b6000600260009054906101000a900473ffffffffffffffffffffffffffffffffffffffff1673ffffffffffffffffffffffffffffffffffffffff166370a08231306040518263ffffffff1660e01b8152600401610c86919061290b565b60206040518083038186803b158015610c9e57600080fd5b505afa158015610cb2573d6000803e3d6000fd5b505050506040513d601f19601f82011682018060405250810190610cd691906123c5565b9050610ced60075482611d8890919063ffffffff16565b6006541115610d31576040517f08c379a0000000000000000000000000000000000000000000000000000000008152600401610d2890612ade565b60405180910390fd5b42600881905550610d4d60075442611d9e90919063ffffffff16565b6005819055507fde88a922e0d3b88b24e9623efeb464919c6bf9f66857a65e2bfcf2ce87a9433d83604051610d829190612b7e565b60405180910390a1505050565b60026000541415610dd5576040517f08c379a0000000000000000000000000000000000000000000000000000000008152600401610dcc90612b5e565b60405180910390fd5b600260008190555033610de6611aa1565b600981905550610df461126d565b600881905550600073ffffffffffffffffffffffffffffffffffffffff168173ffffffffffffffffffffffffffffffffffffffff1614610ec157610e3781610572565b600c60008373ffffffffffffffffffffffffffffffffffffffff1673ffffffffffffffffffffffffffffffffffffffff16815260200190815260200160002081905550600954600b60008373ffffffffffffffffffffffffffffffffffffffff1673ffffffffffffffffffffffffffffffffffffffff168152602001908152602001600020819055505b6000600c60003373ffffffffffffffffffffffffffffffffffffffff1673ffffffffffffffffffffffffffffffffffffffff1681526020019081526020016000205490506000610f2f6064610f21600a5485611d7290919063ffffffff16565b611d8890919063ffffffff16565b90506000821115611081576000600c60003373ffffffffffffffffffffffffffffffffffffffff1673ffffffffffffffffffffffffffffffffffffffff16815260200190815260200160002081905550610fd3610f8a61146e565b82600260009054906101000a900473ffffffffffffffffffffffffffffffffffffffff1673ffffffffffffffffffffffffffffffffffffffff16611f009092919063ffffffff16565b61103233610fea8385611d5c90919063ffffffff16565b600260009054906101000a900473ffffffffffffffffffffffffffffffffffffffff1673ffffffffffffffffffffffffffffffffffffffff16611f009092919063ffffffff16565b3373ffffffffffffffffffffffffffffffffffffffff167fe2403640ba68fed3a2f88b7557551d1993f84b99bb10ff833f0cf8db0c5e0486836040516110789190612b7e565b60405180910390a25b5050506001600081905550565b6000600160009054906101000a900460ff16905090565b6000600e60008373ffffffffffffffffffffffffffffffffffffffff1673ffffffffffffffffffffffffffffffffffffffff168152602001908152602001600020549050919050565b6110f6611db4565b73ffffffffffffffffffffffffffffffffffffffff1661111461146e565b73ffffffffffffffffffffffffffffffffffffffff161461116a576040517f08c379a000000000000000000000000000000000000000000000000000000000815260040161116190612abe565b60405180910390fd5b600073ffffffffffffffffffffffffffffffffffffffff1660018054906101000a900473ffffffffffffffffffffffffffffffffffffffff1673ffffffffffffffffffffffffffffffffffffffff167f8be0079c531659141344cd1fd0a4f28419497f9722a3daafe3b4186f6b6457e060405160405180910390a360006001806101000a81548173ffffffffffffffffffffffffffffffffffffffff021916908373ffffffffffffffffffffffffffffffffffffffff160217905550565b600360009054906101000a900473ffffffffffffffffffffffffffffffffffffffff1681565b600081831061125d578161125f565b825b905092915050565b60065481565b600061127b4260055461124e565b905090565b611288611db4565b73ffffffffffffffffffffffffffffffffffffffff166112a661146e565b73ffffffffffffffffffffffffffffffffffffffff16146112fc576040517f08c379a00000000000000000000000000000000000000000000000000000000081526004016112f390612abe565b60405180910390fd5b600360009054906101000a900473ffffffffffffffffffffffffffffffffffffffff1673ffffffffffffffffffffffffffffffffffffffff168273ffffffffffffffffffffffffffffffffffffffff16141580156113a85750600260009054906101000a900473ffffffffffffffffffffffffffffffffffffffff1673ffffffffffffffffffffffffffffffffffffffff168273ffffffffffffffffffffffffffffffffffffffff1614155b6113e7576040517f08c379a00000000000000000000000000000000000000000000000000000000081526004016113de90612b1e565b60405180910390fd5b6114196113f261146e565b828473ffffffffffffffffffffffffffffffffffffffff16611f009092919063ffffffff16565b7f8c1256b8896378cd5044f80c202f9772b9d77dc85c8a6eb51967210b09bfaa28828260405161144a92919061295d565b60405180910390a15050565b600b6020528060005260406000206000915090505481565b600060018054906101000a900473ffffffffffffffffffffffffffffffffffffffff16905090565b60045481565b600a5481565b8060006114f782600e60003373ffffffffffffffffffffffffffffffffffffffff1673ffffffffffffffffffffffffffffffffffffffff16815260200190815260200160002054611d9e90919063ffffffff16565b905060045481111561150857600080fd5b6002600054141561154e576040517f08c379a000000000000000000000000000000000000000000000000000000000815260040161154590612b5e565b60405180910390fd5b600260008190555061155e61108e565b1561159e576040517f08c379a000000000000000000000000000000000000000000000000000000000815260040161159590612a7e565b60405180910390fd5b336115a7611aa1565b6009819055506115b561126d565b600881905550600073ffffffffffffffffffffffffffffffffffffffff168173ffffffffffffffffffffffffffffffffffffffff1614611682576115f881610572565b600c60008373ffffffffffffffffffffffffffffffffffffffff1673ffffffffffffffffffffffffffffffffffffffff16815260200190815260200160002081905550600954600b60008373ffffffffffffffffffffffffffffffffffffffff1673ffffffffffffffffffffffffffffffffffffffff168152602001908152602001600020819055505b600084116116c5576040517f08c379a00000000000000000000000000000000000000000000000000000000081526004016116bc90612a3e565b60405180910390fd5b6116da84600d54611d9e90919063ffffffff16565b600d819055506000600360009054906101000a900473ffffffffffffffffffffffffffffffffffffffff1673ffffffffffffffffffffffffffffffffffffffff166370a08231306040518263ffffffff1660e01b815260040161173d919061290b565b60206040518083038186803b15801561175557600080fd5b505afa158015611769573d6000803e3d6000fd5b505050506040513d601f19601f8201168201806040525081019061178d91906123c5565b90506117de333087600360009054906101000a900473ffffffffffffffffffffffffffffffffffffffff1673ffffffffffffffffffffffffffffffffffffffff16611f86909392919063ffffffff16565b6000600360009054906101000a900473ffffffffffffffffffffffffffffffffffffffff1673ffffffffffffffffffffffffffffffffffffffff166370a08231306040518263ffffffff1660e01b815260040161183b919061290b565b60206040518083038186803b15801561185357600080fd5b505afa158015611867573d6000803e3d6000fd5b505050506040513d601f19601f8201168201806040525081019061188b91906123c5565b905060006118a28383611d5c90919063ffffffff16565b90506118f681600e60003373ffffffffffffffffffffffffffffffffffffffff1673ffffffffffffffffffffffffffffffffffffffff16815260200190815260200160002054611d9e90919063ffffffff16565b600e60003373ffffffffffffffffffffffffffffffffffffffff1673ffffffffffffffffffffffffffffffffffffffff168152602001908152602001600020819055503373ffffffffffffffffffffffffffffffffffffffff167f9e71bc8eea02a63969f509818f2dafb9254532904319f9dbda79b67bd34a5f3d8860405161197f9190612b7e565b60405180910390a2505050506001600081905550505050565b60085481565b6119a6611db4565b73ffffffffffffffffffffffffffffffffffffffff166119c461146e565b73ffffffffffffffffffffffffffffffffffffffff1614611a1a576040517f08c379a0000000000000000000000000000000000000000000000000000000008152600401611a1190612abe565b60405180910390fd5b6005544211611a5e576040517f08c379a0000000000000000000000000000000000000000000000000000000008152600401611a55906129de565b60405180910390fd5b806007819055507ffb46ca5a5e06d4540d6387b930a7c978bce0db5f449ec6b3f5d07c6e1d44f2d3600754604051611a969190612b7e565b60405180910390a150565b600080600d541415611ab7576009549050611b2c565b611b29611b18600d54611b0a670de0b6b3a7640000611afc600654611aee600854611ae061126d565b611d5c90919063ffffffff16565b611d7290919063ffffffff16565b611d7290919063ffffffff16565b611d8890919063ffffffff16565b600954611d9e90919063ffffffff16565b90505b90565b600260009054906101000a900473ffffffffffffffffffffffffffffffffffffffff1681565b60095481565b611ba3600e60003373ffffffffffffffffffffffffffffffffffffffff1673ffffffffffffffffffffffffffffffffffffffff1681526020019081526020016000205461076b565b611bab610d8f565b565b60055481565b611bbb611db4565b73ffffffffffffffffffffffffffffffffffffffff16611bd961146e565b73ffffffffffffffffffffffffffffffffffffffff1614611c2f576040517f08c379a0000000000000000000000000000000000000000000000000000000008152600401611c2690612abe565b60405180910390fd5b600073ffffffffffffffffffffffffffffffffffffffff168173ffffffffffffffffffffffffffffffffffffffff161415611c9f576040517f08c379a0000000000000000000000000000000000000000000000000000000008152600401611c9690612a1e565b60405180910390fd5b8073ffffffffffffffffffffffffffffffffffffffff1660018054906101000a900473ffffffffffffffffffffffffffffffffffffffff1673ffffffffffffffffffffffffffffffffffffffff167f8be0079c531659141344cd1fd0a4f28419497f9722a3daafe3b4186f6b6457e060405160405180910390a3806001806101000a81548173ffffffffffffffffffffffffffffffffffffffff021916908373ffffffffffffffffffffffffffffffffffffffff16021790555050565b60008183611d6a9190612cac565b905092915050565b60008183611d809190612c52565b905092915050565b60008183611d969190612c21565b905092915050565b60008183611dac9190612bcb565b905092915050565b600033905090565b611dc461108e565b15611e04576040517f08c379a0000000000000000000000000000000000000000000000000000000008152600401611dfb90612a7e565b60405180910390fd5b60018060006101000a81548160ff0219169083151502179055507f62e78cea01bee320cd4e420270b5ea74000d11b0c9f74754ebdbfc544b05a258611e47611db4565b604051611e54919061290b565b60405180910390a1565b611e6661108e565b611ea5576040517f08c379a0000000000000000000000000000000000000000000000000000000008152600401611e9c906129fe565b60405180910390fd5b6000600160006101000a81548160ff0219169083151502179055507f5db9ee0a495bf2e6ff9c91a7834c1ba4fdd244a5e8aa4e537bd38aeae4b073aa611ee9611db4565b604051611ef6919061290b565b60405180910390a1565b611f818363a9059cbb60e01b8484604051602401611f1f92919061295d565b604051602081830303815290604052907bffffffffffffffffffffffffffffffffffffffffffffffffffffffff19166020820180517bffffffffffffffffffffffffffffffffffffffffffffffffffffffff838183161783525050505061200f565b505050565b612009846323b872dd60e01b858585604051602401611fa793929190612926565b604051602081830303815290604052907bffffffffffffffffffffffffffffffffffffffffffffffffffffffff19166020820180517bffffffffffffffffffffffffffffffffffffffffffffffffffffffff838183161783525050505061200f565b50505050565b6000612071826040518060400160405280602081526020017f5361666545524332303a206c6f772d6c6576656c2063616c6c206661696c65648152508573ffffffffffffffffffffffffffffffffffffffff166120d69092919063ffffffff16565b90506000815111156120d157808060200190518101906120919190612373565b6120d0576040517f08c379a00000000000000000000000000000000000000000000000000000000081526004016120c790612b3e565b60405180910390fd5b5b505050565b60606120e584846000856120ee565b90509392505050565b606082471015612133576040517f08c379a000000000000000000000000000000000000000000000000000000000815260040161212a90612a5e565b60405180910390fd5b61213c85612202565b61217b576040517f08c379a000000000000000000000000000000000000000000000000000000000815260040161217290612afe565b60405180910390fd5b6000808673ffffffffffffffffffffffffffffffffffffffff1685876040516121a491906128f4565b60006040518083038185875af1925050503d80600081146121e1576040519150601f19603f3d011682016040523d82523d6000602084013e6121e6565b606091505b50915091506121f6828286612215565b92505050949350505050565b600080823b905060008111915050919050565b6060831561222557829050612275565b6000835111156122385782518084602001fd5b816040517f08c379a000000000000000000000000000000000000000000000000000000000815260040161226c91906129bc565b60405180910390fd5b9392505050565b60008135905061228b81612dee565b92915050565b6000813590506122a081612e05565b92915050565b6000815190506122b581612e05565b92915050565b6000813590506122ca81612e1c565b92915050565b6000815190506122df81612e1c565b92915050565b6000602082840312156122f757600080fd5b60006123058482850161227c565b91505092915050565b6000806040838503121561232157600080fd5b600061232f8582860161227c565b9250506020612340858286016122bb565b9150509250929050565b60006020828403121561235c57600080fd5b600061236a84828501612291565b91505092915050565b60006020828403121561238557600080fd5b6000612393848285016122a6565b91505092915050565b6000602082840312156123ae57600080fd5b60006123bc848285016122bb565b91505092915050565b6000602082840312156123d757600080fd5b60006123e5848285016122d0565b91505092915050565b6000806040838503121561240157600080fd5b600061240f858286016122bb565b9250506020612420858286016122bb565b9150509250929050565b61243381612ce0565b82525050565b61244281612cf2565b82525050565b600061245382612b99565b61245d8185612baf565b935061246d818560208601612d4c565b80840191505092915050565b61248281612d28565b82525050565b600061249382612ba4565b61249d8185612bba565b93506124ad818560208601612d4c565b6124b681612ddd565b840191505092915050565b60006124ce605883612bba565b91507f50726576696f7573207265776172647320706572696f64206d7573742062652060008301527f636f6d706c657465206265666f7265206368616e67696e67207468652064757260208301527f6174696f6e20666f7220746865206e657720706572696f6400000000000000006040830152606082019050919050565b600061255a601483612bba565b91507f5061757361626c653a206e6f74207061757365640000000000000000000000006000830152602082019050919050565b600061259a602683612bba565b91507f4f776e61626c653a206e6577206f776e657220697320746865207a65726f206160008301527f64647265737300000000000000000000000000000000000000000000000000006020830152604082019050919050565b6000612600600e83612bba565b91507f43616e6e6f74207374616b6520300000000000000000000000000000000000006000830152602082019050919050565b6000612640602683612bba565b91507f416464726573733a20696e73756666696369656e742062616c616e636520666f60008301527f722063616c6c00000000000000000000000000000000000000000000000000006020830152604082019050919050565b60006126a6601083612bba565b91507f5061757361626c653a20706175736564000000000000000000000000000000006000830152602082019050919050565b60006126e6601183612bba565b91507f43616e6e6f7420776974686472617720300000000000000000000000000000006000830152602082019050919050565b6000612726602083612bba565b91507f4f776e61626c653a2063616c6c6572206973206e6f7420746865206f776e65726000830152602082019050919050565b6000612766601883612bba565b91507f50726f76696465642072657761726420746f6f206869676800000000000000006000830152602082019050919050565b60006127a6601d83612bba565b91507f416464726573733a2063616c6c20746f206e6f6e2d636f6e74726163740000006000830152602082019050919050565b60006127e6602d83612bba565b91507f43616e6e6f7420776974686472617720746865207374616b696e67206f72207260008301527f65776172647320746f6b656e73000000000000000000000000000000000000006020830152604082019050919050565b600061284c602a83612bba565b91507f5361666545524332303a204552433230206f7065726174696f6e20646964206e60008301527f6f742073756363656564000000000000000000000000000000000000000000006020830152604082019050919050565b60006128b2601f83612bba565b91507f5265656e7472616e637947756172643a207265656e7472616e742063616c6c006000830152602082019050919050565b6128ee81612d1e565b82525050565b60006129008284612448565b915081905092915050565b6000602082019050612920600083018461242a565b92915050565b600060608201905061293b600083018661242a565b612948602083018561242a565b61295560408301846128e5565b949350505050565b6000604082019050612972600083018561242a565b61297f60208301846128e5565b9392505050565b600060208201905061299b6000830184612439565b92915050565b60006020820190506129b66000830184612479565b92915050565b600060208201905081810360008301526129d68184612488565b905092915050565b600060208201905081810360008301526129f7816124c1565b9050919050565b60006020820190508181036000830152612a178161254d565b9050919050565b60006020820190508181036000830152612a378161258d565b9050919050565b60006020820190508181036000830152612a57816125f3565b9050919050565b60006020820190508181036000830152612a7781612633565b9050919050565b60006020820190508181036000830152612a9781612699565b9050919050565b60006020820190508181036000830152612ab7816126d9565b9050919050565b60006020820190508181036000830152612ad781612719565b9050919050565b60006020820190508181036000830152612af781612759565b9050919050565b60006020820190508181036000830152612b1781612799565b9050919050565b60006020820190508181036000830152612b37816127d9565b9050919050565b60006020820190508181036000830152612b578161283f565b9050919050565b60006020820190508181036000830152612b77816128a5565b9050919050565b6000602082019050612b9360008301846128e5565b92915050565b600081519050919050565b600081519050919050565b600081905092915050565b600082825260208201905092915050565b6000612bd682612d1e565b9150612be183612d1e565b9250827fffffffffffffffffffffffffffffffffffffffffffffffffffffffffffffffff03821115612c1657612c15612d7f565b5b828201905092915050565b6000612c2c82612d1e565b9150612c3783612d1e565b925082612c4757612c46612dae565b5b828204905092915050565b6000612c5d82612d1e565b9150612c6883612d1e565b9250817fffffffffffffffffffffffffffffffffffffffffffffffffffffffffffffffff0483118215151615612ca157612ca0612d7f565b5b828202905092915050565b6000612cb782612d1e565b9150612cc283612d1e565b925082821015612cd557612cd4612d7f565b5b828203905092915050565b6000612ceb82612cfe565b9050919050565b60008115159050919050565b600073ffffffffffffffffffffffffffffffffffffffff82169050919050565b6000819050919050565b6000612d3382612d3a565b9050919050565b6000612d4582612cfe565b9050919050565b60005b83811015612d6a578082015181840152602081019050612d4f565b83811115612d79576000848401525b50505050565b7f4e487b7100000000000000000000000000000000000000000000000000000000600052601160045260246000fd5b7f4e487b7100000000000000000000000000000000000000000000000000000000600052601260045260246000fd5b6000601f19601f8301169050919050565b612df781612ce0565b8114612e0257600080fd5b50565b612e0e81612cf2565b8114612e1957600080fd5b50565b612e2581612d1e565b8114612e3057600080fd5b5056fea26469706673582212203dd8e8583769dc594451e223fa5dabb3476ae449291e2e1b2ec269d42f9ff33964736f6c63430008000033",
  "immutableReferences": {},
  "source": "// SPDX-License-Identifier: MIT\r\npragma solidity ^0.8.0;\r\n\r\nimport \"@openzeppelin/contracts/security/ReentrancyGuard.sol\";\r\nimport \"@openzeppelin/contracts/access/Ownable.sol\";\r\nimport \"@openzeppelin/contracts/security/Pausable.sol\";\r\nimport \"@openzeppelin/contracts/token/ERC20/utils/SafeERC20.sol\";\r\nimport \"@openzeppelin/contracts/utils/math/SafeMath.sol\";\r\n\r\ncontract PolyFarm is ReentrancyGuard, Pausable, Ownable {\r\n    using SafeMath for uint256;\r\n    using SafeERC20 for IERC20;\r\n\r\n    // STATE VARIABLES\r\n\r\n    IERC20 public rewardsToken;\r\n    IERC20 public stakingToken;\r\n    uint256 public maxSatking = ~uint256(0);\r\n    uint256 public periodFinish = 0;\r\n    uint256 public rewardRate = 0;\r\n    uint256 public rewardsDuration = 30 days;\r\n    uint256 public lastUpdateTime;\r\n    uint256 public rewardPerTokenStored;\r\n    uint256 public feePercentage = 10;\r\n\r\n    mapping(address => uint256) public userRewardPerTokenPaid;\r\n    mapping(address => uint256) public rewards;\r\n\r\n    uint256 private _totalSupply;\r\n    mapping(address => uint256) private _balances;\r\n    \r\n    modifier checkStakingRequirement(uint256 amount){\r\n        uint256 checkAmount= _balances[msg.sender].add(amount);\r\n        require(checkAmount<=maxSatking);\r\n        _;\r\n    }\r\n\r\n    // CONSTRUCTOR\r\n\r\n    constructor(\r\n        address _rewardsToken,\r\n        address _stakingToken\r\n    ) {\r\n        rewardsToken = IERC20(_rewardsToken);\r\n        stakingToken = IERC20(_stakingToken);\r\n    }\r\n\r\n    // VIEWS\r\n\r\n    function totalSupply() external view returns (uint256) {\r\n        return _totalSupply;\r\n    }\r\n\r\n    function balanceOf(address account) external view returns (uint256) {\r\n        return _balances[account];\r\n    }\r\n\r\n    function lastTimeRewardApplicable() public view returns (uint256) {\r\n        return min(block.timestamp, periodFinish);\r\n    }\r\n\r\n    function rewardPerToken() public view returns (uint256) {\r\n        if (_totalSupply == 0) {\r\n            return rewardPerTokenStored;\r\n        }\r\n        return\r\n            rewardPerTokenStored.add(\r\n                lastTimeRewardApplicable()\r\n                    .sub(lastUpdateTime)\r\n                    .mul(rewardRate)\r\n                    .mul(1e18)\r\n                    .div(_totalSupply)\r\n            );\r\n    }\r\n\r\n    function earned(address account) public view returns (uint256) {\r\n        return\r\n            _balances[account]\r\n                .mul(rewardPerToken().sub(userRewardPerTokenPaid[account]))\r\n                .div(1e18)\r\n                .add(rewards[account]);\r\n    }\r\n\r\n    function getRewardForDuration() external view returns (uint256) {\r\n        return rewardRate.mul(rewardsDuration);\r\n    }\r\n\r\n    function min(uint256 a, uint256 b) public pure returns (uint256) {\r\n        return a < b ? a : b;\r\n    }\r\n\r\n    // PUBLIC FUNCTIONS\r\n\r\n    function stake(uint256 amount)\r\n        external\r\n        checkStakingRequirement(amount)\r\n        nonReentrant\r\n        whenNotPaused\r\n        updateReward(msg.sender)\r\n    {\r\n        require(amount > 0, \"Cannot stake 0\");\r\n        _totalSupply = _totalSupply.add(amount);\r\n        uint256 balBefore = stakingToken.balanceOf(address(this));\r\n        stakingToken.safeTransferFrom(msg.sender, address(this), amount);\r\n        uint256 balAfter = stakingToken.balanceOf(address(this));\r\n        uint256 actualReceived = balAfter.sub(balBefore);\r\n        _balances[msg.sender] = _balances[msg.sender].add(actualReceived);\r\n        emit Staked(msg.sender, amount);\r\n    }\r\n\r\n    function withdraw(uint256 amount)\r\n        public\r\n        nonReentrant\r\n        updateReward(msg.sender)\r\n    {\r\n        require(amount > 0, \"Cannot withdraw 0\");\r\n        _totalSupply = _totalSupply.sub(amount);\r\n        _balances[msg.sender] = _balances[msg.sender].sub(amount);\r\n        stakingToken.safeTransfer(msg.sender, amount);\r\n        emit Withdrawn(msg.sender, amount);\r\n    }\r\n\r\n    function getReward() public nonReentrant updateReward(msg.sender) {\r\n        uint256 reward = rewards[msg.sender];\r\n        uint256 fee = reward.mul(feePercentage).div(100);\r\n        if (reward > 0) {\r\n            rewards[msg.sender] = 0;\r\n            rewardsToken.safeTransfer(owner(), fee);\r\n            rewardsToken.safeTransfer(msg.sender, reward.sub(fee));\r\n            emit RewardPaid(msg.sender, reward);\r\n        }\r\n    }\r\n\r\n    function exit() external {\r\n        withdraw(_balances[msg.sender]);\r\n        getReward();\r\n    }\r\n\r\n    // RESTRICTED FUNCTIONS\r\n\r\n    function notifyRewardAmount(uint256 reward)\r\n        external\r\n        onlyOwner\r\n        updateReward(address(0))\r\n    {\r\n        if (block.timestamp >= periodFinish) {\r\n            rewardRate = reward.div(rewardsDuration);\r\n        } else {\r\n            uint256 remaining = periodFinish.sub(block.timestamp);\r\n            uint256 leftover = remaining.mul(rewardRate);\r\n            rewardRate = reward.add(leftover).div(rewardsDuration);\r\n        }\r\n\r\n        // Ensure the provided reward amount is not more than the balance in the contract.\r\n        // This keeps the reward rate in the right range, preventing overflows due to\r\n        // very high values of rewardRate in the earned and rewardsPerToken functions;\r\n        // Reward + leftover must be less than 2^256 / 10^18 to avoid overflow.\r\n        uint256 balance = rewardsToken.balanceOf(address(this));\r\n        require(\r\n            rewardRate <= balance.div(rewardsDuration),\r\n            \"Provided reward too high\"\r\n        );\r\n\r\n        lastUpdateTime = block.timestamp;\r\n        periodFinish = block.timestamp.add(rewardsDuration);\r\n        emit RewardAdded(reward);\r\n    }\r\n\r\n    // Added to support recovering LP Rewards from other systems such as BAL to be distributed to holders\r\n    function recoverERC20(address tokenAddress, uint256 tokenAmount)\r\n        external\r\n        onlyOwner\r\n    {\r\n        // Cannot recover the staking token or the rewards token\r\n        require(\r\n            tokenAddress != address(stakingToken) &&\r\n                tokenAddress != address(rewardsToken),\r\n            \"Cannot withdraw the staking or rewards tokens\"\r\n        );\r\n        IERC20(tokenAddress).safeTransfer(owner(), tokenAmount);\r\n        emit Recovered(tokenAddress, tokenAmount);\r\n    }\r\n\r\n    function setRewardsDuration(uint256 _rewardsDuration) external onlyOwner {\r\n        require(\r\n            block.timestamp > periodFinish,\r\n            \"Previous rewards period must be complete before changing the duration for the new period\"\r\n        );\r\n        rewardsDuration = _rewardsDuration;\r\n        emit RewardsDurationUpdated(rewardsDuration);\r\n    }\r\n\r\n    function setPaused(bool _paused) external onlyOwner {\r\n        if(_paused) _pause();\r\n        else _unpause();\r\n    }\r\n\r\n    // MODIFIERS\r\n\r\n    modifier updateReward(address account) {\r\n        rewardPerTokenStored = rewardPerToken();\r\n        lastUpdateTime = lastTimeRewardApplicable();\r\n        if (account != address(0)) {\r\n            rewards[account] = earned(account);\r\n            userRewardPerTokenPaid[account] = rewardPerTokenStored;\r\n        }\r\n        _;\r\n    }\r\n\r\n    // EVENTS\r\n\r\n    event RewardAdded(uint256 reward);\r\n    event Staked(address indexed user, uint256 amount);\r\n    event Withdrawn(address indexed user, uint256 amount);\r\n    event RewardPaid(address indexed user, uint256 reward);\r\n    event RewardsDurationUpdated(uint256 newDuration);\r\n    event Recovered(address token, uint256 amount);\r\n}",
  "sourcePath": "C:/Users/sudip/Desktop/RealProjects/PolyStarter/contracts/StakingFarm/PolyFarm.sol",
  "compiler": {
    "name": "solc",
    "version": "0.8.0+commit.c7dfd78e.Emscripten.clang"
  },
  "schemaVersion": "3.3.4",
  "updatedAt": "2021-07-02T13:54:53.564Z",
  "devdoc": {
    "kind": "dev",
    "methods": {
      "owner()": {
        "details": "Returns the address of the current owner."
      },
      "paused()": {
        "details": "Returns true if the contract is paused, and false otherwise."
      },
      "renounceOwnership()": {
        "details": "Leaves the contract without owner. It will not be possible to call `onlyOwner` functions anymore. Can only be called by the current owner. NOTE: Renouncing ownership will leave the contract without an owner, thereby removing any functionality that is only available to the owner."
      },
      "transferOwnership(address)": {
        "details": "Transfers ownership of the contract to a new account (`newOwner`). Can only be called by the current owner."
      }
    },
    "version": 1
  },
  "userdoc": {
    "kind": "user",
    "methods": {},
    "version": 1
  }
}