{
  "contractName": "RaffleWrap",
  "abi": [
    {
      "inputs": [
        {
          "internalType": "address",
          "name": "_stakerAddress",
          "type": "address"
        },
        {
          "internalType": "address",
          "name": "_nativeTokenAddress",
          "type": "address"
        },
        {
          "internalType": "address",
          "name": "_idoTokenAddress",
          "type": "address"
        },
        {
          "internalType": "uint256",
          "name": "_idoAmount",
          "type": "uint256"
        },
        {
          "internalType": "uint256",
          "name": "_price",
          "type": "uint256"
        }
      ],
      "stateMutability": "nonpayable",
      "type": "constructor"
    },
    {
      "anonymous": false,
      "inputs": [
        {
          "indexed": false,
          "internalType": "uint256",
          "name": "regStart",
          "type": "uint256"
        },
        {
          "indexed": false,
          "internalType": "uint256",
          "name": "saleStart",
          "type": "uint256"
        }
      ],
      "name": "Initialization",
      "type": "event"
    },
    {
      "anonymous": false,
      "inputs": [
        {
          "indexed": true,
          "internalType": "address",
          "name": "previousOwner",
          "type": "address"
        },
        {
          "indexed": true,
          "internalType": "address",
          "name": "newOwner",
          "type": "address"
        }
      ],
      "name": "OwnershipTransferred",
      "type": "event"
    },
    {
      "anonymous": false,
      "inputs": [
        {
          "indexed": true,
          "internalType": "address",
          "name": "",
          "type": "address"
        },
        {
          "indexed": false,
          "internalType": "uint256",
          "name": "tokens",
          "type": "uint256"
        },
        {
          "indexed": false,
          "internalType": "uint256",
          "name": "price",
          "type": "uint256"
        }
      ],
      "name": "Purchase",
      "type": "event"
    },
    {
      "anonymous": false,
      "inputs": [
        {
          "indexed": true,
          "internalType": "address",
          "name": "account",
          "type": "address"
        },
        {
          "indexed": false,
          "internalType": "uint256",
          "name": "poolNo",
          "type": "uint256"
        }
      ],
      "name": "Registration",
      "type": "event"
    },
    {
      "inputs": [
        {
          "internalType": "address",
          "name": "",
          "type": "address"
        }
      ],
      "name": "addressToTicketCount",
      "outputs": [
        {
          "internalType": "uint256",
          "name": "",
          "type": "uint256"
        }
      ],
      "stateMutability": "view",
      "type": "function"
    },
    {
      "inputs": [
        {
          "internalType": "address",
          "name": "",
          "type": "address"
        },
        {
          "internalType": "uint256",
          "name": "",
          "type": "uint256"
        }
      ],
      "name": "addressToTicketsOwned",
      "outputs": [
        {
          "internalType": "uint256",
          "name": "",
          "type": "uint256"
        }
      ],
      "stateMutability": "view",
      "type": "function"
    },
    {
      "inputs": [],
      "name": "buyNow",
      "outputs": [],
      "stateMutability": "payable",
      "type": "function"
    },
    {
      "inputs": [
        {
          "internalType": "address",
          "name": "account",
          "type": "address"
        }
      ],
      "name": "getPoolNo",
      "outputs": [
        {
          "internalType": "uint256",
          "name": "",
          "type": "uint256"
        }
      ],
      "stateMutability": "view",
      "type": "function"
    },
    {
      "inputs": [
        {
          "internalType": "address",
          "name": "account",
          "type": "address"
        }
      ],
      "name": "getRegistrationStatus",
      "outputs": [
        {
          "internalType": "bool",
          "name": "",
          "type": "bool"
        }
      ],
      "stateMutability": "view",
      "type": "function"
    },
    {
      "inputs": [],
      "name": "iStaker",
      "outputs": [
        {
          "internalType": "contract IStaker",
          "name": "",
          "type": "address"
        }
      ],
      "stateMutability": "view",
      "type": "function"
    },
    {
      "inputs": [],
      "name": "idoToken",
      "outputs": [
        {
          "internalType": "contract IERC20Metadata",
          "name": "",
          "type": "address"
        }
      ],
      "stateMutability": "view",
      "type": "function"
    },
    {
      "inputs": [],
      "name": "idoTokenSum",
      "outputs": [
        {
          "internalType": "uint256",
          "name": "",
          "type": "uint256"
        }
      ],
      "stateMutability": "view",
      "type": "function"
    },
    {
      "inputs": [],
      "name": "idoTotalPrice",
      "outputs": [
        {
          "internalType": "uint256",
          "name": "",
          "type": "uint256"
        }
      ],
      "stateMutability": "view",
      "type": "function"
    },
    {
      "inputs": [
        {
          "internalType": "uint256",
          "name": "time",
          "type": "uint256"
        }
      ],
      "name": "initialize",
      "outputs": [],
      "stateMutability": "nonpayable",
      "type": "function"
    },
    {
      "inputs": [],
      "name": "isFulfilled",
      "outputs": [
        {
          "internalType": "bool",
          "name": "",
          "type": "bool"
        }
      ],
      "stateMutability": "view",
      "type": "function"
    },
    {
      "inputs": [],
      "name": "isInitialized",
      "outputs": [
        {
          "internalType": "bool",
          "name": "",
          "type": "bool"
        }
      ],
      "stateMutability": "view",
      "type": "function"
    },
    {
      "inputs": [],
      "name": "lockDuration",
      "outputs": [
        {
          "internalType": "uint256",
          "name": "",
          "type": "uint256"
        }
      ],
      "stateMutability": "view",
      "type": "function"
    },
    {
      "inputs": [],
      "name": "nativeToken",
      "outputs": [
        {
          "internalType": "contract IERC20Metadata",
          "name": "",
          "type": "address"
        }
      ],
      "stateMutability": "view",
      "type": "function"
    },
    {
      "inputs": [],
      "name": "owner",
      "outputs": [
        {
          "internalType": "address",
          "name": "",
          "type": "address"
        }
      ],
      "stateMutability": "view",
      "type": "function"
    },
    {
      "inputs": [
        {
          "internalType": "uint256",
          "name": "",
          "type": "uint256"
        }
      ],
      "name": "pools",
      "outputs": [
        {
          "internalType": "string",
          "name": "name",
          "type": "string"
        },
        {
          "internalType": "uint256",
          "name": "minNativeToken",
          "type": "uint256"
        },
        {
          "internalType": "uint256",
          "name": "weight",
          "type": "uint256"
        },
        {
          "internalType": "uint256",
          "name": "participants",
          "type": "uint256"
        }
      ],
      "stateMutability": "view",
      "type": "function"
    },
    {
      "inputs": [],
      "name": "randomResult",
      "outputs": [
        {
          "internalType": "uint256",
          "name": "",
          "type": "uint256"
        }
      ],
      "stateMutability": "view",
      "type": "function"
    },
    {
      "inputs": [
        {
          "internalType": "bytes32",
          "name": "requestId",
          "type": "bytes32"
        },
        {
          "internalType": "uint256",
          "name": "randomness",
          "type": "uint256"
        }
      ],
      "name": "rawFulfillRandomness",
      "outputs": [],
      "stateMutability": "nonpayable",
      "type": "function"
    },
    {
      "inputs": [
        {
          "internalType": "address",
          "name": "tokenAddress",
          "type": "address"
        },
        {
          "internalType": "address",
          "name": "to",
          "type": "address"
        }
      ],
      "name": "recoverERC20",
      "outputs": [],
      "stateMutability": "nonpayable",
      "type": "function"
    },
    {
      "inputs": [
        {
          "internalType": "address",
          "name": "to",
          "type": "address"
        }
      ],
      "name": "recoverEth",
      "outputs": [],
      "stateMutability": "nonpayable",
      "type": "function"
    },
    {
      "inputs": [],
      "name": "regDuration",
      "outputs": [
        {
          "internalType": "uint256",
          "name": "",
          "type": "uint256"
        }
      ],
      "stateMutability": "view",
      "type": "function"
    },
    {
      "inputs": [],
      "name": "regStarts",
      "outputs": [
        {
          "internalType": "uint256",
          "name": "",
          "type": "uint256"
        }
      ],
      "stateMutability": "view",
      "type": "function"
    },
    {
      "inputs": [
        {
          "internalType": "uint256",
          "name": "_poolNo",
          "type": "uint256"
        }
      ],
      "name": "register",
      "outputs": [],
      "stateMutability": "nonpayable",
      "type": "function"
    },
    {
      "inputs": [],
      "name": "renounceOwnership",
      "outputs": [],
      "stateMutability": "nonpayable",
      "type": "function"
    },
    {
      "inputs": [],
      "name": "reqId",
      "outputs": [
        {
          "internalType": "bytes32",
          "name": "",
          "type": "bytes32"
        }
      ],
      "stateMutability": "view",
      "type": "function"
    },
    {
      "inputs": [],
      "name": "saleDuration",
      "outputs": [
        {
          "internalType": "uint256",
          "name": "",
          "type": "uint256"
        }
      ],
      "stateMutability": "view",
      "type": "function"
    },
    {
      "inputs": [],
      "name": "saleStarts",
      "outputs": [
        {
          "internalType": "uint256",
          "name": "",
          "type": "uint256"
        }
      ],
      "stateMutability": "view",
      "type": "function"
    },
    {
      "inputs": [],
      "name": "saleStartsAfter",
      "outputs": [
        {
          "internalType": "uint256",
          "name": "",
          "type": "uint256"
        }
      ],
      "stateMutability": "view",
      "type": "function"
    },
    {
      "inputs": [],
      "name": "ticketPrice",
      "outputs": [
        {
          "internalType": "uint256",
          "name": "",
          "type": "uint256"
        }
      ],
      "stateMutability": "view",
      "type": "function"
    },
    {
      "inputs": [
        {
          "internalType": "uint256",
          "name": "",
          "type": "uint256"
        }
      ],
      "name": "ticketToOwner",
      "outputs": [
        {
          "internalType": "address",
          "name": "",
          "type": "address"
        }
      ],
      "stateMutability": "view",
      "type": "function"
    },
    {
      "inputs": [],
      "name": "ticketsSold",
      "outputs": [
        {
          "internalType": "uint256",
          "name": "",
          "type": "uint256"
        }
      ],
      "stateMutability": "view",
      "type": "function"
    },
    {
      "inputs": [
        {
          "internalType": "uint256",
          "name": "_poolNo",
          "type": "uint256"
        }
      ],
      "name": "tokensAndPriceByPoolNo",
      "outputs": [
        {
          "internalType": "uint256",
          "name": "",
          "type": "uint256"
        },
        {
          "internalType": "uint256",
          "name": "",
          "type": "uint256"
        }
      ],
      "stateMutability": "view",
      "type": "function"
    },
    {
      "inputs": [],
      "name": "totalWeight",
      "outputs": [
        {
          "internalType": "uint256",
          "name": "",
          "type": "uint256"
        }
      ],
      "stateMutability": "view",
      "type": "function"
    },
    {
      "inputs": [
        {
          "internalType": "address",
          "name": "newOwner",
          "type": "address"
        }
      ],
      "name": "transferOwnership",
      "outputs": [],
      "stateMutability": "nonpayable",
      "type": "function"
    },
    {
      "inputs": [],
      "name": "unit",
      "outputs": [
        {
          "internalType": "uint256",
          "name": "",
          "type": "uint256"
        }
      ],
      "stateMutability": "view",
      "type": "function"
    },
    {
      "inputs": [
        {
          "internalType": "address",
          "name": "",
          "type": "address"
        }
      ],
      "name": "userlog",
      "outputs": [
        {
          "internalType": "bool",
          "name": "isRegistered",
          "type": "bool"
        },
        {
          "internalType": "uint256",
          "name": "registeredPool",
          "type": "uint256"
        },
        {
          "internalType": "bool",
          "name": "purchased",
          "type": "bool"
        }
      ],
      "stateMutability": "view",
      "type": "function"
    },
    {
      "inputs": [
        {
          "internalType": "uint256",
          "name": "_noOfTickets",
          "type": "uint256"
        }
      ],
      "name": "buyTickets",
      "outputs": [],
      "stateMutability": "nonpayable",
      "type": "function"
    },
    {
      "inputs": [],
      "name": "genRandom",
      "outputs": [],
      "stateMutability": "nonpayable",
      "type": "function"
    },
    {
      "inputs": [],
      "name": "getWinners",
      "outputs": [
        {
          "internalType": "address[]",
          "name": "",
          "type": "address[]"
        }
      ],
      "stateMutability": "view",
      "type": "function"
    }
  ],
  "bytecode": "0x60c06040526000601260016101000a81548160ff0219169083151502179055506729a2241af62c00006017553480156200003857600080fd5b5060405162004fe638038062004fe683398181016040528101906200005e91906200099c565b73b3dccb4cf7a26f6cf6b120cf5a73875b7bbc655b7301be23585060835e02b77ef475b0cc51aa1e0709868686868660006200009f6200089f60201b60201c565b9050806000806101000a81548173ffffffffffffffffffffffffffffffffffffffff021916908373ffffffffffffffffffffffffffffffffffffffff1602179055508073ffffffffffffffffffffffffffffffffffffffff16600073ffffffffffffffffffffffffffffffffffffffff167f8be0079c531659141344cd1fd0a4f28419497f9722a3daafe3b4186f6b6457e060405160405180910390a3506001808190555084600260006101000a81548173ffffffffffffffffffffffffffffffffffffffff021916908373ffffffffffffffffffffffffffffffffffffffff16021790555083600360006101000a81548173ffffffffffffffffffffffffffffffffffffffff021916908373ffffffffffffffffffffffffffffffffffffffff16021790555082600460006101000a81548173ffffffffffffffffffffffffffffffffffffffff021916908373ffffffffffffffffffffffffffffffffffffffff16021790555081600581905550806006819055506000600360009054906101000a900473ffffffffffffffffffffffffffffffffffffffff1673ffffffffffffffffffffffffffffffffffffffff1663313ce5676040518163ffffffff1660e01b815260040160206040518083038186803b1580156200028057600080fd5b505afa15801562000295573d6000803e3d6000fd5b505050506040513d601f19601f82011682018060405250810190620002bb919062000a1e565b60ff169050600b60405180608001604052806040518060400160405280600481526020017f4e756c6c000000000000000000000000000000000000000000000000000000008152508152602001600081526020016000815260200160008152509080600181540180825580915050600190039060005260206000209060040201600090919091909150600082015181600001908051906020019062000362929190620008a7565b506020820151816001015560408201518160020155606082015181600301555050600b60405180608001604052806040518060400160405280600681526020017f4b6e696768740000000000000000000000000000000000000000000000000000815250815260200183600a620003da919062000aa5565b6064620003e8919062000be2565b81526020016002815260200160008152509080600181540180825580915050600190039060005260206000209060040201600090919091909150600082015181600001908051906020019062000440929190620008a7565b506020820151816001015560408201518160020155606082015181600301555050600b60405180608001604052806040518060400160405280600681526020017f426973686f700000000000000000000000000000000000000000000000000000815250815260200183600a620004b8919062000aa5565b6101f4620004c7919062000be2565b8152602001600381526020016000815250908060018154018082558091505060019003906000526020600020906004020160009091909190915060008201518160000190805190602001906200051f929190620008a7565b506020820151816001015560408201518160020155606082015181600301555050600b60405180608001604052806040518060400160405280600481526020017f526f6f6b00000000000000000000000000000000000000000000000000000000815250815260200183600a62000597919062000aa5565b6103e8620005a6919062000be2565b815260200160048152602001600081525090806001815401808255809150506001900390600052602060002090600402016000909190919091506000820151816000019080519060200190620005fe929190620008a7565b506020820151816001015560408201518160020155606082015181600301555050600b60405180608001604052806040518060400160405280600481526020017f4b696e6700000000000000000000000000000000000000000000000000000000815250815260200183600a62000676919062000aa5565b6107d062000685919062000be2565b815260200160058152602001600081525090806001815401808255809150506001900390600052602060002090600402016000909190919091506000820151816000019080519060200190620006dd929190620008a7565b506020820151816001015560408201518160020155606082015181600301555050600b60405180608001604052806040518060400160405280600581526020017f517565656e000000000000000000000000000000000000000000000000000000815250815260200183600a62000755919062000aa5565b610fa062000764919062000be2565b815260200160068152602001600081525090806001815401808255809150506001900390600052602060002090600402016000909190919091506000820151816000019080519060200190620007bc929190620008a7565b5060208201518160010155604082015181600201556060820151816003015550506014600c819055505050505050508173ffffffffffffffffffffffffffffffffffffffff1660a08173ffffffffffffffffffffffffffffffffffffffff1660601b815250508073ffffffffffffffffffffffffffffffffffffffff1660808173ffffffffffffffffffffffffffffffffffffffff1660601b8152505050507f2ed0feb3e7fd2022120aa84fab1945545a9f2ffc9076fd6156fa96eaff4c131160001b600e8190555067016345785d8a0000600f81905550505050505062000d7d565b600033905090565b828054620008b59062000c8e565b90600052602060002090601f016020900481019282620008d9576000855562000925565b82601f10620008f457805160ff191683800117855562000925565b8280016001018555821562000925579182015b828111156200092457825182559160200191906001019062000907565b5b50905062000934919062000938565b5090565b5b808211156200095357600081600090555060010162000939565b5090565b600081519050620009688162000d2f565b92915050565b6000815190506200097f8162000d49565b92915050565b600081519050620009968162000d63565b92915050565b600080600080600060a08688031215620009b557600080fd5b6000620009c58882890162000957565b9550506020620009d88882890162000957565b9450506040620009eb8882890162000957565b9350506060620009fe888289016200096e565b925050608062000a11888289016200096e565b9150509295509295909350565b60006020828403121562000a3157600080fd5b600062000a418482850162000985565b91505092915050565b6000808291508390505b600185111562000a9c5780860481111562000a745762000a7362000cc4565b5b600185161562000a845780820291505b808102905062000a948562000d22565b945062000a54565b94509492505050565b600062000ab28262000c77565b915062000abf8362000c77565b925062000aee7fffffffffffffffffffffffffffffffffffffffffffffffffffffffffffffffff848462000af6565b905092915050565b60008262000b08576001905062000bdb565b8162000b18576000905062000bdb565b816001811462000b31576002811462000b3c5762000b72565b600191505062000bdb565b60ff84111562000b515762000b5062000cc4565b5b8360020a91508482111562000b6b5762000b6a62000cc4565b5b5062000bdb565b5060208310610133831016604e8410600b841016171562000bac5782820a90508381111562000ba65762000ba562000cc4565b5b62000bdb565b62000bbb848484600162000a4a565b9250905081840481111562000bd55762000bd462000cc4565b5b81810290505b9392505050565b600062000bef8262000c77565b915062000bfc8362000c77565b9250817fffffffffffffffffffffffffffffffffffffffffffffffffffffffffffffffff048311821515161562000c385762000c3762000cc4565b5b828202905092915050565b600062000c508262000c57565b9050919050565b600073ffffffffffffffffffffffffffffffffffffffff82169050919050565b6000819050919050565b600060ff82169050919050565b6000600282049050600182168062000ca757607f821691505b6020821081141562000cbe5762000cbd62000cf3565b5b50919050565b7f4e487b7100000000000000000000000000000000000000000000000000000000600052601160045260246000fd5b7f4e487b7100000000000000000000000000000000000000000000000000000000600052602260045260246000fd5b60008160011c9050919050565b62000d3a8162000c43565b811462000d4657600080fd5b50565b62000d548162000c77565b811462000d6057600080fd5b50565b62000d6e8162000c81565b811462000d7a57600080fd5b50565b60805160601c60a05160601c61422f62000db7600039600081816113be01526127bc0152600081816123600152612780015261422f6000f3fe6080604052600436106102305760003560e01c8063907af6c01161012e578063c4f34fab116100ab578063efad76da1161006f578063efad76da14610830578063f207564e1461085b578063f2fde38b14610884578063f3f40af2146108ad578063fe4b84df146108d857610230565b8063c4f34fab14610759578063d6cd82bc14610784578063df15c37e146107af578063e1758bd8146107da578063e76eda861461080557610230565b8063a158226d116100f2578063a158226d1461065b578063a25dd13014610686578063a8af4ff5146106b1578063ac4afa38146106ee578063b6ba81141461072e57610230565b8063907af6c01461059557806394985ddd146105c057806396c82e57146105e95780639c3962f0146106145780639e6e9d0f1461061e57610230565b806351622cd0116101bc578063886f039a11610180578063886f039a146104ad5780638997ce4e146104d65780638da5cb5b146105015780638f15024f1461052c5780638f666ecf1461055757610230565b806351622cd0146103dc57806366a30cb614610419578063715018a6146104305780637504db3e146104475780637acaea9b1461047057610230565b80633711d9fb116102035780633711d9fb146102f1578063385a9c371461031c578063392e53cd1461034757806342619f661461037257806345a28e061461039d57610230565b806304554443146102355780631209b1f6146102605780632b08e8241461028b5780632f366637146102c8575b600080fd5b34801561024157600080fd5b5061024a610901565b6040516102579190613be1565b60405180910390f35b34801561026c57600080fd5b50610275610913565b6040516102829190613be1565b60405180910390f35b34801561029757600080fd5b506102b260048036038101906102ad9190612d9f565b610919565b6040516102bf9190613689565b60405180910390f35b3480156102d457600080fd5b506102ef60048036038101906102ea9190612d9f565b61094c565b005b3480156102fd57600080fd5b50610306610c13565b6040516103139190613be1565b60405180910390f35b34801561032857600080fd5b50610331610c25565b60405161033e9190613764565b60405180910390f35b34801561035357600080fd5b5061035c610c3c565b6040516103699190613764565b60405180910390f35b34801561037e57600080fd5b50610387610c4f565b6040516103949190613be1565b60405180910390f35b3480156103a957600080fd5b506103c460048036038101906103bf9190612c99565b610c55565b6040516103d39392919061377f565b60405180910390f35b3480156103e857600080fd5b5061040360048036038101906103fe9190612c99565b610c99565b6040516104109190613be1565b60405180910390f35b34801561042557600080fd5b5061042e610cb1565b005b34801561043c57600080fd5b50610445610e67565b005b34801561045357600080fd5b5061046e60048036038101906104699190612c99565b610fa1565b005b34801561047c57600080fd5b5061049760048036038101906104929190612cfe565b6110cd565b6040516104a49190613be1565b60405180910390f35b3480156104b957600080fd5b506104d460048036038101906104cf9190612cc2565b6110fe565b005b3480156104e257600080fd5b506104eb61129a565b6040516104f891906137b6565b60405180910390f35b34801561050d57600080fd5b506105166112a0565b6040516105239190613689565b60405180910390f35b34801561053857600080fd5b506105416112c9565b60405161054e9190613be1565b60405180910390f35b34801561056357600080fd5b5061057e60048036038101906105799190612d9f565b6112cf565b60405161058c929190613bfc565b60405180910390f35b3480156105a157600080fd5b506105aa6113b6565b6040516105b79190613be1565b60405180910390f35b3480156105cc57600080fd5b506105e760048036038101906105e29190612d63565b6113bc565b005b3480156105f557600080fd5b506105fe611458565b60405161060b9190613be1565b60405180910390f35b61061c61145e565b005b34801561062a57600080fd5b5061064560048036038101906106409190612c99565b61189f565b6040516106529190613be1565b60405180910390f35b34801561066757600080fd5b506106706118eb565b60405161067d9190613be1565b60405180910390f35b34801561069257600080fd5b5061069b6118f1565b6040516106a89190613be1565b60405180910390f35b3480156106bd57600080fd5b506106d860048036038101906106d39190612c99565b611903565b6040516106e59190613764565b60405180910390f35b3480156106fa57600080fd5b5061071560048036038101906107109190612d9f565b61195c565b6040516107259493929190613875565b60405180910390f35b34801561073a57600080fd5b50610743611a24565b6040516107509190613be1565b60405180910390f35b34801561076557600080fd5b5061076e611a2a565b60405161077b919061385a565b60405180910390f35b34801561079057600080fd5b50610799611a50565b6040516107a6919061383f565b60405180910390f35b3480156107bb57600080fd5b506107c4611a76565b6040516107d19190613742565b60405180910390f35b3480156107e657600080fd5b506107ef611acc565b6040516107fc919061383f565b60405180910390f35b34801561081157600080fd5b5061081a611af2565b6040516108279190613be1565b60405180910390f35b34801561083c57600080fd5b50610845611b1d565b6040516108529190613be1565b60405180910390f35b34801561086757600080fd5b50610882600480360381019061087d9190612d9f565b611b23565b005b34801561089057600080fd5b506108ab60048036038101906108a69190612c99565b611f0f565b005b3480156108b957600080fd5b506108c26120b8565b6040516108cf9190613be1565b60405180910390f35b3480156108e457600080fd5b506108ff60048036038101906108fa9190612d9f565b6120be565b005b610e1060a86109109190613e99565b81565b60175481565b60146020528060005260406000206000915054906101000a900473ffffffffffffffffffffffffffffffffffffffff1681565b426007541015610991576040517f08c379a000000000000000000000000000000000000000000000000000000000815260040161098890613ae1565b60405180910390fd5b600260015414156109d7576040517f08c379a00000000000000000000000000000000000000000000000000000000081526004016109ce90613ba1565b60405180910390fd5b600260018190555060006013549050600360009054906101000a900473ffffffffffffffffffffffffffffffffffffffff1673ffffffffffffffffffffffffffffffffffffffff166323b872dd33610a2d6112a0565b60175486610a3b9190613e99565b6040518463ffffffff1660e01b8152600401610a59939291906136a4565b602060405180830381600087803b158015610a7357600080fd5b505af1158015610a87573d6000803e3d6000fd5b505050506040513d601f19601f82011682018060405250810190610aab9190612d3a565b5060005b82811015610b985733601460008385610ac89190613ca1565b815260200190815260200160002060006101000a81548173ffffffffffffffffffffffffffffffffffffffff021916908373ffffffffffffffffffffffffffffffffffffffff160217905550601660003373ffffffffffffffffffffffffffffffffffffffff1673ffffffffffffffffffffffffffffffffffffffff1681526020019081526020016000208183610b5f9190613ca1565b90806001815401808255809150506001900390600052602060002001600090919091909150558080610b9090614033565b915050610aaf565b5081601560003373ffffffffffffffffffffffffffffffffffffffff1673ffffffffffffffffffffffffffffffffffffffff1681526020019081526020016000206000828254610be89190613ca1565b925050819055508160136000828254610c019190613ca1565b92505081905550506001808190555050565b610e10600c610c229190613e99565b81565b6000601260019054906101000a900460ff16905090565b600a60009054906101000a900460ff1681565b60115481565b60096020528060005260406000206000915090508060000160009054906101000a900460ff16908060010154908060020160009054906101000a900460ff16905083565b60156020528060005260406000206000915090505481565b601260009054906101000a900460ff1615610d01576040517f08c379a0000000000000000000000000000000000000000000000000000000008152600401610cf890613941565b60405180910390fd5b6001601260006101000a81548160ff0219169083151502179055504260075411158015610d3a5750600a60009054906101000a900460ff165b610d79576040517f08c379a0000000000000000000000000000000000000000000000000000000008152600401610d70906138e1565b60405180910390fd5b42610e106030610d899190613e99565b600754610d969190613ca1565b1015610dd7576040517f08c379a0000000000000000000000000000000000000000000000000000000008152600401610dce90613961565b60405180910390fd5b60026001541415610e1d576040517f08c379a0000000000000000000000000000000000000000000000000000000008152600401610e1490613ba1565b60405180910390fd5b6002600181905550600033604051602001610e38919061362d565b6040516020818303038152906040528051906020012060001c9050610e5c81612359565b505060018081905550565b610e6f61245e565b73ffffffffffffffffffffffffffffffffffffffff16610e8d6112a0565b73ffffffffffffffffffffffffffffffffffffffff1614610ee3576040517f08c379a0000000000000000000000000000000000000000000000000000000008152600401610eda90613aa1565b60405180910390fd5b600073ffffffffffffffffffffffffffffffffffffffff1660008054906101000a900473ffffffffffffffffffffffffffffffffffffffff1673ffffffffffffffffffffffffffffffffffffffff167f8be0079c531659141344cd1fd0a4f28419497f9722a3daafe3b4186f6b6457e060405160405180910390a360008060006101000a81548173ffffffffffffffffffffffffffffffffffffffff021916908373ffffffffffffffffffffffffffffffffffffffff160217905550565b610fa961245e565b73ffffffffffffffffffffffffffffffffffffffff16610fc76112a0565b73ffffffffffffffffffffffffffffffffffffffff161461101d576040517f08c379a000000000000000000000000000000000000000000000000000000000815260040161101490613aa1565b60405180910390fd5b60008173ffffffffffffffffffffffffffffffffffffffff164760405161104390613674565b60006040518083038185875af1925050503d8060008114611080576040519150601f19603f3d011682016040523d82523d6000602084013e611085565b606091505b50509050806110c9576040517f08c379a00000000000000000000000000000000000000000000000000000000081526004016110c090613a41565b60405180910390fd5b5050565b601660205281600052604060002081815481106110e957600080fd5b90600052602060002001600091509150505481565b61110661245e565b73ffffffffffffffffffffffffffffffffffffffff166111246112a0565b73ffffffffffffffffffffffffffffffffffffffff161461117a576040517f08c379a000000000000000000000000000000000000000000000000000000000815260040161117190613aa1565b60405180910390fd5b60008290508073ffffffffffffffffffffffffffffffffffffffff1663a9059cbb838373ffffffffffffffffffffffffffffffffffffffff166370a08231306040518263ffffffff1660e01b81526004016111d59190613689565b60206040518083038186803b1580156111ed57600080fd5b505afa158015611201573d6000803e3d6000fd5b505050506040513d601f19601f820116820180604052508101906112259190612dc8565b6040518363ffffffff1660e01b81526004016112429291906136db565b602060405180830381600087803b15801561125c57600080fd5b505af1158015611270573d6000803e3d6000fd5b505050506040513d601f19601f820116820180604052508101906112949190612d3a565b50505050565b60105481565b60008060009054906101000a900473ffffffffffffffffffffffffffffffffffffffff16905090565b60135481565b6000806000600b848154811061130e577f4e487b7100000000000000000000000000000000000000000000000000000000600052603260045260246000fd5b906000526020600020906004020190506000841480611331575060008160030154145b156113435760008092509250506113b1565b60008160030154600c546113579190613e99565b82600201546005546113699190613e99565b6113739190613cf7565b905060008260030154600c546113899190613e99565b836002015460065461139b9190613e99565b6113a59190613cf7565b90508181945094505050505b915091565b610e1081565b7f000000000000000000000000000000000000000000000000000000000000000073ffffffffffffffffffffffffffffffffffffffff163373ffffffffffffffffffffffffffffffffffffffff161461144a576040517f08c379a000000000000000000000000000000000000000000000000000000000815260040161144190613ac1565b60405180910390fd5b6114548282612466565b5050565b600c5481565b6000429050600a60009054906101000a900460ff166114b2576040517f08c379a00000000000000000000000000000000000000000000000000000000081526004016114a990613bc1565b60405180910390fd5b600960003373ffffffffffffffffffffffffffffffffffffffff1673ffffffffffffffffffffffffffffffffffffffff16815260200190815260200160002060000160009054906101000a900460ff16611541576040517f08c379a000000000000000000000000000000000000000000000000000000000815260040161153890613901565b60405180910390fd5b600960003373ffffffffffffffffffffffffffffffffffffffff1673ffffffffffffffffffffffffffffffffffffffff16815260200190815260200160002060020160009054906101000a900460ff16156115d1576040517f08c379a00000000000000000000000000000000000000000000000000000000081526004016115c890613a01565b60405180910390fd5b80600854111580156115fe5750610e10600c6115ed9190613e99565b6008546115fa9190613ca1565b8111155b61163d576040517f08c379a000000000000000000000000000000000000000000000000000000000815260040161163490613b81565b60405180910390fd5b60026001541415611683576040517f08c379a000000000000000000000000000000000000000000000000000000000815260040161167a90613ba1565b60405180910390fd5b60026001819055506000600960003373ffffffffffffffffffffffffffffffffffffffff1673ffffffffffffffffffffffffffffffffffffffff16815260200190815260200160002090506000806116de83600101546112cf565b91509150600081141580156116f4575060008214155b611733576040517f08c379a000000000000000000000000000000000000000000000000000000000815260040161172a90613b01565b60405180910390fd5b348114611775576040517f08c379a000000000000000000000000000000000000000000000000000000000815260040161176c906138c1565b60405180910390fd5b60018360020160006101000a81548160ff021916908315150217905550600460009054906101000a900473ffffffffffffffffffffffffffffffffffffffff1673ffffffffffffffffffffffffffffffffffffffff1663a9059cbb33846040518363ffffffff1660e01b81526004016117ef9291906136db565b602060405180830381600087803b15801561180957600080fd5b505af115801561181d573d6000803e3d6000fd5b505050506040513d601f19601f820116820180604052508101906118419190612d3a565b503373ffffffffffffffffffffffffffffffffffffffff167f12cb4648cf3058b17ceeb33e579f8b0bc269fe0843f3900b8e24b6c54871703c838360405161188a929190613bfc565b60405180910390a25050506001808190555050565b6000600960008373ffffffffffffffffffffffffffffffffffffffff1673ffffffffffffffffffffffffffffffffffffffff168152602001908152602001600020600101549050919050565b60075481565b610e1060306119009190613e99565b81565b6000600960008373ffffffffffffffffffffffffffffffffffffffff1673ffffffffffffffffffffffffffffffffffffffff16815260200190815260200160002060000160009054906101000a900460ff169050919050565b600b818154811061196c57600080fd5b906000526020600020906004020160009150905080600001805461198f90614001565b80601f01602080910402602001604051908101604052809291908181526020018280546119bb90614001565b8015611a085780601f106119dd57610100808354040283529160200191611a08565b820191906000526020600020905b8154815290600101906020018083116119eb57829003601f168201915b5050505050908060010154908060020154908060030154905084565b60055481565b600260009054906101000a900473ffffffffffffffffffffffffffffffffffffffff1681565b600460009054906101000a900473ffffffffffffffffffffffffffffffffffffffff1681565b6060611a80610c25565b611abf576040517f08c379a0000000000000000000000000000000000000000000000000000000008152600401611ab690613b21565b60405180910390fd5b611ac7612480565b905090565b600360009054906101000a900473ffffffffffffffffffffffffffffffffffffffff1681565b610e106018611b019190613e99565b610e106030611b109190613e99565b611b1a9190613ca1565b81565b60065481565b6000429050600a60009054906101000a900460ff16611b77576040517f08c379a0000000000000000000000000000000000000000000000000000000008152600401611b6e90613bc1565b60405180910390fd5b600960003373ffffffffffffffffffffffffffffffffffffffff1673ffffffffffffffffffffffffffffffffffffffff16815260200190815260200160002060000160009054906101000a900460ff1615611c07576040517f08c379a0000000000000000000000000000000000000000000000000000000008152600401611bfe90613981565b60405180910390fd5b8060075411158015611c345750610e106030611c239190613e99565b600754611c309190613ca1565b8111155b611c73576040517f08c379a0000000000000000000000000000000000000000000000000000000008152600401611c6a90613b61565b60405180910390fd5b8180600111158015611c86575060058111155b611cc5576040517f08c379a0000000000000000000000000000000000000000000000000000000008152600401611cbc906139a1565b60405180910390fd5b6000600260009054906101000a900473ffffffffffffffffffffffffffffffffffffffff1673ffffffffffffffffffffffffffffffffffffffff166360217267336040518263ffffffff1660e01b8152600401611d229190613689565b60206040518083038186803b158015611d3a57600080fd5b505afa158015611d4e573d6000803e3d6000fd5b505050506040513d601f19601f82011682018060405250810190611d729190612dc8565b905080600b8381548110611daf577f4e487b7100000000000000000000000000000000000000000000000000000000600052603260045260246000fd5b9060005260206000209060040201600101541115611e02576040517f08c379a0000000000000000000000000000000000000000000000000000000008152600401611df990613a21565b60405180910390fd5b60026001541415611e48576040517f08c379a0000000000000000000000000000000000000000000000000000000008152600401611e3f90613ba1565b60405180910390fd5b6002600181905550600260009054906101000a900473ffffffffffffffffffffffffffffffffffffffff1673ffffffffffffffffffffffffffffffffffffffff1663282d3fdf33610e1060a8611e9e9190613e99565b42611ea99190613ca1565b6040518363ffffffff1660e01b8152600401611ec69291906136db565b600060405180830381600087803b158015611ee057600080fd5b505af1158015611ef4573d6000803e3d6000fd5b50505050611f023385612625565b6001808190555050505050565b611f1761245e565b73ffffffffffffffffffffffffffffffffffffffff16611f356112a0565b73ffffffffffffffffffffffffffffffffffffffff1614611f8b576040517f08c379a0000000000000000000000000000000000000000000000000000000008152600401611f8290613aa1565b60405180910390fd5b600073ffffffffffffffffffffffffffffffffffffffff168173ffffffffffffffffffffffffffffffffffffffff161415611ffb576040517f08c379a0000000000000000000000000000000000000000000000000000000008152600401611ff290613921565b60405180910390fd5b8073ffffffffffffffffffffffffffffffffffffffff1660008054906101000a900473ffffffffffffffffffffffffffffffffffffffff1673ffffffffffffffffffffffffffffffffffffffff167f8be0079c531659141344cd1fd0a4f28419497f9722a3daafe3b4186f6b6457e060405160405180910390a3806000806101000a81548173ffffffffffffffffffffffffffffffffffffffff021916908373ffffffffffffffffffffffffffffffffffffffff16021790555050565b60085481565b6120c661245e565b73ffffffffffffffffffffffffffffffffffffffff166120e46112a0565b73ffffffffffffffffffffffffffffffffffffffff161461213a576040517f08c379a000000000000000000000000000000000000000000000000000000000815260040161213190613aa1565b60405180910390fd5b600a60009054906101000a900460ff161561218a576040517f08c379a0000000000000000000000000000000000000000000000000000000008152600401612181906139e1565b60405180910390fd5b428110156121cd576040517f08c379a00000000000000000000000000000000000000000000000000000000081526004016121c490613a61565b60405180910390fd5b80600781905550610e1060186121e39190613e99565b610e1060306121f29190613e99565b6121fc9190613ca1565b6007546122099190613ca1565b600881905550600554600460009054906101000a900473ffffffffffffffffffffffffffffffffffffffff1673ffffffffffffffffffffffffffffffffffffffff166370a08231306040518263ffffffff1660e01b815260040161226d9190613689565b60206040518083038186803b15801561228557600080fd5b505afa158015612299573d6000803e3d6000fd5b505050506040513d601f19601f820116820180604052508101906122bd9190612dc8565b10156122fe576040517f08c379a00000000000000000000000000000000000000000000000000000000081526004016122f590613a81565b60405180910390fd5b7f537db03a5cf0f67e64e2a7515e45c28a71d041067e165fc95ee2ecde36e6532d600754600854604051612333929190613bfc565b60405180910390a16001600a60006101000a81548160ff02191690831515021790555050565b6000600f547f000000000000000000000000000000000000000000000000000000000000000073ffffffffffffffffffffffffffffffffffffffff166370a08231306040518263ffffffff1660e01b81526004016123b79190613689565b60206040518083038186803b1580156123cf57600080fd5b505afa1580156123e3573d6000803e3d6000fd5b505050506040513d601f19601f820116820180604052508101906124079190612dc8565b1015612448576040517f08c379a000000000000000000000000000000000000000000000000000000000815260040161243f906139c1565b60405180910390fd5b612457600e54600f548461277c565b9050919050565b600033905090565b816010819055508060118190555061247c6128dd565b5050565b6060600061248f601354612902565b90508067ffffffffffffffff8111156124d1577f4e487b7100000000000000000000000000000000000000000000000000000000600052604160045260246000fd5b6040519080825280602002602001820160405280156124ff5781602001602082028036833780820191505090505b5091506000612512600060135484612924565b905060005b8281101561261f5760006014600084848151811061255e577f4e487b7100000000000000000000000000000000000000000000000000000000600052603260045260246000fd5b6020026020010151815260200190815260200160002060009054906101000a900473ffffffffffffffffffffffffffffffffffffffff169050808583815181106125d1577f4e487b7100000000000000000000000000000000000000000000000000000000600052603260045260246000fd5b602002602001019073ffffffffffffffffffffffffffffffffffffffff16908173ffffffffffffffffffffffffffffffffffffffff168152505050808061261790614033565b915050612517565b50505090565b6001600960008473ffffffffffffffffffffffffffffffffffffffff1673ffffffffffffffffffffffffffffffffffffffff16815260200190815260200160002060000160006101000a81548160ff02191690831515021790555080600960008473ffffffffffffffffffffffffffffffffffffffff1673ffffffffffffffffffffffffffffffffffffffff168152602001908152602001600020600101819055506001600b8281548110612703577f4e487b7100000000000000000000000000000000000000000000000000000000600052603260045260246000fd5b906000526020600020906004020160030160008282546127239190613ca1565b925050819055503373ffffffffffffffffffffffffffffffffffffffff167ff6c60b059f60c86b2d612b237ac38bd87bc1f68f87600cd360d68351af1ca95f826040516127709190613be1565b60405180910390a25050565b60007f000000000000000000000000000000000000000000000000000000000000000073ffffffffffffffffffffffffffffffffffffffff16634000aea07f00000000000000000000000000000000000000000000000000000000000000008587866040516020016127ef9291906137d1565b6040516020818303038152906040526040518463ffffffff1660e01b815260040161281c93929190613704565b602060405180830381600087803b15801561283657600080fd5b505af115801561284a573d6000803e3d6000fd5b505050506040513d601f19601f8201168201806040525081019061286e9190612d3a565b506000612890858430600d60008a815260200190815260200160002054612b2d565b90506001600d6000878152602001908152602001600020546128b29190613ca1565b600d6000878152602001908152602001600020819055506128d38582612b69565b9150509392505050565b6001601260016101000a81548160ff021916908315150217905550612900612b9c565b565b600060016064836129139190613cf7565b61291d9190613ca1565b9050919050565b60608167ffffffffffffffff811115612966577f4e487b7100000000000000000000000000000000000000000000000000000000600052604160045260246000fd5b6040519080825280602002602001820160405280156129945781602001602082028036833780820191505090505b50905060006011549050600085856129ac9190613ef3565b9050838110156129f1576040517f08c379a00000000000000000000000000000000000000000000000000000000081526004016129e890613b41565b60405180910390fd5b600060fb905060005b85811015612b225760008884600285612a139190613d7b565b87612a1e9190613ca1565b612a2891906140b4565b612a329190613ca1565b90506000805b600184612a459190613ca1565b811015612ab057878181518110612a85577f4e487b7100000000000000000000000000000000000000000000000000000000600052603260045260246000fd5b6020026020010151831415612a9d5760019150612ab0565b8080612aa890614033565b915050612a38565b5080612b0c5781878481518110612af0577f4e487b7100000000000000000000000000000000000000000000000000000000600052603260045260246000fd5b602002602001018181525050600183612b099190613ca1565b92505b600184612b199190613ca1565b935050506129fa565b505050509392505050565b600084848484604051602001612b4694939291906137fa565b6040516020818303038152906040528051906020012060001c9050949350505050565b60008282604051602001612b7e929190613648565b60405160208183030381529060405280519060200120905092915050565b6000612ba6612480565b905060005b8151811015612c2c576000828281518110612bef577f4e487b7100000000000000000000000000000000000000000000000000000000600052603260045260246000fd5b60200260200101519050600060029050612c0882611903565b612c1757612c168282612625565b5b50508080612c2490614033565b915050612bab565b5050565b600081359050612c3f8161419d565b92915050565b600081519050612c54816141b4565b92915050565b600081359050612c69816141cb565b92915050565b600081359050612c7e816141e2565b92915050565b600081519050612c93816141e2565b92915050565b600060208284031215612cab57600080fd5b6000612cb984828501612c30565b91505092915050565b60008060408385031215612cd557600080fd5b6000612ce385828601612c30565b9250506020612cf485828601612c30565b9150509250929050565b60008060408385031215612d1157600080fd5b6000612d1f85828601612c30565b9250506020612d3085828601612c6f565b9150509250929050565b600060208284031215612d4c57600080fd5b6000612d5a84828501612c45565b91505092915050565b60008060408385031215612d7657600080fd5b6000612d8485828601612c5a565b9250506020612d9585828601612c6f565b9150509250929050565b600060208284031215612db157600080fd5b6000612dbf84828501612c6f565b91505092915050565b600060208284031215612dda57600080fd5b6000612de884828501612c84565b91505092915050565b6000612dfd8383612e09565b60208301905092915050565b612e1281613f27565b82525050565b612e2181613f27565b82525050565b612e38612e3382613f27565b61407c565b82525050565b6000612e4982613c35565b612e538185613c63565b9350612e5e83613c25565b8060005b83811015612e8f578151612e768882612df1565b9750612e8183613c56565b925050600181019050612e62565b5085935050505092915050565b612ea581613f39565b82525050565b612eb481613f45565b82525050565b612ecb612ec682613f45565b61408e565b82525050565b6000612edc82613c40565b612ee68185613c74565b9350612ef6818560208601613fce565b612eff81614172565b840191505092915050565b612f1381613f86565b82525050565b612f2281613faa565b82525050565b6000612f3382613c4b565b612f3d8185613c90565b9350612f4d818560208601613fce565b612f5681614172565b840191505092915050565b6000612f6e601483613c90565b91507f4e6f742056616c69642045746820416d6f756e740000000000000000000000006000830152602082019050919050565b6000612fae601c83613c90565b91507f526567697374726174696f6e204e6f74205374617274656420596574000000006000830152602082019050919050565b6000612fee600e83613c90565b91507f4e6f7420726567697374657265640000000000000000000000000000000000006000830152602082019050919050565b600061302e602683613c90565b91507f4f776e61626c653a206e6577206f776e657220697320746865207a65726f206160008301527f64647265737300000000000000000000000000000000000000000000000000006020830152604082019050919050565b6000613094601683613c90565b91507f416c72656164792047656e657261746564204f6e6365000000000000000000006000830152602082019050919050565b60006130d4601283613c90565b91507f526567697374726174696f6e20456e64656400000000000000000000000000006000830152602082019050919050565b6000613114601283613c90565b91507f416c7265616479207265676973746572656400000000000000000000000000006000830152602082019050919050565b6000613154600f83613c90565b91507f696e76616c696420506f6f6c206e6f00000000000000000000000000000000006000830152602082019050919050565b6000613194602b83613c90565b91507f4e6f7420656e6f756768204c494e4b202d2066696c6c20636f6e74726163742060008301527f77697468206661756365740000000000000000000000000000000000000000006020830152604082019050919050565b60006131fa601383613c90565b91507f416c726561647920496e697469616c697a6564000000000000000000000000006000830152602082019050919050565b600061323a601183613c90565b91507f416c7265616479205075726368617365640000000000000000000000000000006000830152602082019050919050565b600061327a601d83613c90565b91507f43616e277420506172746963697061746520696e2074686520506f6f6c0000006000830152602082019050919050565b60006132ba601583613c90565b91507f556e61626c6520546f205265636f7665722045746800000000000000000000006000830152602082019050919050565b60006132fa601483613c90565b91507f49444f2043616e277420426520696e20506173740000000000000000000000006000830152602082019050919050565b600061333a601d83613c90565b91507f4e6f7420456e6f75676820546f6b656e7320496e20436f6e74726163740000006000830152602082019050919050565b600061337a602083613c90565b91507f4f776e61626c653a2063616c6c6572206973206e6f7420746865206f776e65726000830152602082019050919050565b60006133ba601f83613c90565b91507f4f6e6c7920565246436f6f7264696e61746f722063616e2066756c66696c6c006000830152602082019050919050565b60006133fa601d83613c90565b91507f526166666c653a2043616e2774205061727469636970617465204e6f770000006000830152602082019050919050565b600061343a601483613c90565b91507f56616c7565732043616e2774204265205a65726f0000000000000000000000006000830152602082019050919050565b600061347a601683613c90565b91507f57696e6e6572204e6f74204465636964656420596574000000000000000000006000830152602082019050919050565b60006134ba600c83613c90565b91507f496e76616c69642053697a6500000000000000000000000000000000000000006000830152602082019050919050565b60006134fa601a83613c90565b91507f4e6f7420696e20526567697374726174696f6e20506572696f640000000000006000830152602082019050919050565b600061353a600083613c85565b9150600082019050919050565b6000613554601283613c90565b91507f4e6f7420696e2053616c6520506572696f6400000000000000000000000000006000830152602082019050919050565b6000613594601f83613c90565b91507f5265656e7472616e637947756172643a207265656e7472616e742063616c6c006000830152602082019050919050565b60006135d4601383613c90565b91507f4e6f7420496e697469616c697a656420596574000000000000000000000000006000830152602082019050919050565b61361081613f6f565b82525050565b61362761362282613f6f565b6140aa565b82525050565b60006136398284612e27565b60148201915081905092915050565b60006136548285612eba565b6020820191506136648284613616565b6020820191508190509392505050565b600061367f8261352d565b9150819050919050565b600060208201905061369e6000830184612e18565b92915050565b60006060820190506136b96000830186612e18565b6136c66020830185612e18565b6136d36040830184613607565b949350505050565b60006040820190506136f06000830185612e18565b6136fd6020830184613607565b9392505050565b60006060820190506137196000830186612e18565b6137266020830185613607565b81810360408301526137388184612ed1565b9050949350505050565b6000602082019050818103600083015261375c8184612e3e565b905092915050565b60006020820190506137796000830184612e9c565b92915050565b60006060820190506137946000830186612e9c565b6137a16020830185613607565b6137ae6040830184612e9c565b949350505050565b60006020820190506137cb6000830184612eab565b92915050565b60006040820190506137e66000830185612eab565b6137f36020830184613607565b9392505050565b600060808201905061380f6000830187612eab565b61381c6020830186613607565b6138296040830185612e18565b6138366060830184613607565b95945050505050565b60006020820190506138546000830184612f0a565b92915050565b600060208201905061386f6000830184612f19565b92915050565b6000608082019050818103600083015261388f8187612f28565b905061389e6020830186613607565b6138ab6040830185613607565b6138b86060830184613607565b95945050505050565b600060208201905081810360008301526138da81612f61565b9050919050565b600060208201905081810360008301526138fa81612fa1565b9050919050565b6000602082019050818103600083015261391a81612fe1565b9050919050565b6000602082019050818103600083015261393a81613021565b9050919050565b6000602082019050818103600083015261395a81613087565b9050919050565b6000602082019050818103600083015261397a816130c7565b9050919050565b6000602082019050818103600083015261399a81613107565b9050919050565b600060208201905081810360008301526139ba81613147565b9050919050565b600060208201905081810360008301526139da81613187565b9050919050565b600060208201905081810360008301526139fa816131ed565b9050919050565b60006020820190508181036000830152613a1a8161322d565b9050919050565b60006020820190508181036000830152613a3a8161326d565b9050919050565b60006020820190508181036000830152613a5a816132ad565b9050919050565b60006020820190508181036000830152613a7a816132ed565b9050919050565b60006020820190508181036000830152613a9a8161332d565b9050919050565b60006020820190508181036000830152613aba8161336d565b9050919050565b60006020820190508181036000830152613ada816133ad565b9050919050565b60006020820190508181036000830152613afa816133ed565b9050919050565b60006020820190508181036000830152613b1a8161342d565b9050919050565b60006020820190508181036000830152613b3a8161346d565b9050919050565b60006020820190508181036000830152613b5a816134ad565b9050919050565b60006020820190508181036000830152613b7a816134ed565b9050919050565b60006020820190508181036000830152613b9a81613547565b9050919050565b60006020820190508181036000830152613bba81613587565b9050919050565b60006020820190508181036000830152613bda816135c7565b9050919050565b6000602082019050613bf66000830184613607565b92915050565b6000604082019050613c116000830185613607565b613c1e6020830184613607565b9392505050565b6000819050602082019050919050565b600081519050919050565b600081519050919050565b600081519050919050565b6000602082019050919050565b600082825260208201905092915050565b600082825260208201905092915050565b600081905092915050565b600082825260208201905092915050565b6000613cac82613f6f565b9150613cb783613f6f565b9250827fffffffffffffffffffffffffffffffffffffffffffffffffffffffffffffffff03821115613cec57613ceb6140e5565b5b828201905092915050565b6000613d0282613f6f565b9150613d0d83613f6f565b925082613d1d57613d1c614114565b5b828204905092915050565b6000808291508390505b6001851115613d7257808604811115613d4e57613d4d6140e5565b5b6001851615613d5d5780820291505b8081029050613d6b85614190565b9450613d32565b94509492505050565b6000613d8682613f6f565b9150613d9183613f79565b9250613dbe7fffffffffffffffffffffffffffffffffffffffffffffffffffffffffffffffff8484613dc6565b905092915050565b600082613dd65760019050613e92565b81613de45760009050613e92565b8160018114613dfa5760028114613e0457613e33565b6001915050613e92565b60ff841115613e1657613e156140e5565b5b8360020a915084821115613e2d57613e2c6140e5565b5b50613e92565b5060208310610133831016604e8410600b8410161715613e685782820a905083811115613e6357613e626140e5565b5b613e92565b613e758484846001613d28565b92509050818404811115613e8c57613e8b6140e5565b5b81810290505b9392505050565b6000613ea482613f6f565b9150613eaf83613f6f565b9250817fffffffffffffffffffffffffffffffffffffffffffffffffffffffffffffffff0483118215151615613ee857613ee76140e5565b5b828202905092915050565b6000613efe82613f6f565b9150613f0983613f6f565b925082821015613f1c57613f1b6140e5565b5b828203905092915050565b6000613f3282613f4f565b9050919050565b60008115159050919050565b6000819050919050565b600073ffffffffffffffffffffffffffffffffffffffff82169050919050565b6000819050919050565b600060ff82169050919050565b6000613f9182613f98565b9050919050565b6000613fa382613f4f565b9050919050565b6000613fb582613fbc565b9050919050565b6000613fc782613f4f565b9050919050565b60005b83811015613fec578082015181840152602081019050613fd1565b83811115613ffb576000848401525b50505050565b6000600282049050600182168061401957607f821691505b6020821081141561402d5761402c614143565b5b50919050565b600061403e82613f6f565b91507fffffffffffffffffffffffffffffffffffffffffffffffffffffffffffffffff821415614071576140706140e5565b5b600182019050919050565b600061408782614098565b9050919050565b6000819050919050565b60006140a382614183565b9050919050565b6000819050919050565b60006140bf82613f6f565b91506140ca83613f6f565b9250826140da576140d9614114565b5b828206905092915050565b7f4e487b7100000000000000000000000000000000000000000000000000000000600052601160045260246000fd5b7f4e487b7100000000000000000000000000000000000000000000000000000000600052601260045260246000fd5b7f4e487b7100000000000000000000000000000000000000000000000000000000600052602260045260246000fd5b6000601f19601f8301169050919050565b60008160601b9050919050565b60008160011c9050919050565b6141a681613f27565b81146141b157600080fd5b50565b6141bd81613f39565b81146141c857600080fd5b50565b6141d481613f45565b81146141df57600080fd5b50565b6141eb81613f6f565b81146141f657600080fd5b5056fea264697066735822122067dc7e46e4e4fa9088354793ff06712de7def4252260d9eff23869364095419f64736f6c63430008000033",
  "immutableReferences": {
    "2299": [
      {
        "length": 32,
        "start": 9056
      },
      {
        "length": 32,
        "start": 10112
      }
    ],
    "2301": [
      {
        "length": 32,
        "start": 5054
      },
      {
        "length": 32,
        "start": 10172
      }
    ]
  },
  "source": "// SPDX-License-Identifier: MIT\r\npragma solidity ^0.8.0;\r\n\r\nimport \"@chainlink/contracts/src/v0.8/dev/VRFConsumerBase.sol\";\r\nimport \"./IDO.sol\";\r\n\r\nabstract contract Random is VRFConsumerBase {\r\n\r\n    bytes32 internal keyHash;\r\n    uint256 internal fee;\r\n    \r\n    bytes32 public reqId;\r\n    uint256 public randomResult;\r\n\r\n    bool isGeneratedOnce;\r\n    modifier once() {\r\n        require(!isGeneratedOnce, \"Already Generated Once\");\r\n        isGeneratedOnce = true;\r\n        _;\r\n    }\r\n\r\n    constructor () VRFConsumerBase (\r\n        0xb3dCcb4Cf7a26f6cf6B120Cf5A73875B7BBc655B, // VRF Coordinator\r\n        0x01BE23585060835E02B77ef475b0Cc51aA1e0709  // LINK Token\r\n    ) {\r\n        keyHash = 0x2ed0feb3e7fd2022120aa84fab1945545a9f2ffc9076fd6156fa96eaff4c1311;\r\n        fee = 100000000000000000; // 0.1 LINK\r\n    }\r\n\r\n    /** \r\n     * Requests randomness from a user-provided seed\r\n     */\r\n    function _getRandomNumber(uint256 userProvidedSeed) internal returns (bytes32 requestId) {\r\n        require(LINK.balanceOf(address(this)) >= fee, \"Not enough LINK - fill contract with faucet\");\r\n        return requestRandomness(keyHash, fee, userProvidedSeed);\r\n    }\r\n\r\n    /**\r\n     * Callback function used by VRF Coordinator\r\n     */\r\n    function fulfillRandomness(bytes32 requestId, uint256 randomness) internal override {\r\n        reqId = requestId;\r\n        randomResult = randomness;\r\n        _afterGeneration();\r\n    }\r\n\r\n    bool _isFulfilled = false;\r\n    function isFulfilled() public view returns(bool) {\r\n        return _isFulfilled;\r\n    }\r\n\r\n    // Generating Multiple Random Numbers From a Single One\r\n    function _randomList(uint256 _from, uint256 _to, uint256 _size) internal view returns(uint256[] memory rands) {\r\n\r\n        rands = new uint256[](_size);\r\n        uint256 r = randomResult;\r\n        uint256 len = _to - _from;\r\n        \r\n        require(len >= _size, \"Invalid Size\");\r\n\r\n        uint256 i = 251;\r\n        uint256 count = 0;\r\n\r\n        while(count < _size) {\r\n            uint256 rand = (r + i**2) % len + _from;\r\n            bool exists = false;\r\n\r\n            for(uint256 j = 0; j < count + 1; j++) {\r\n                if (rand == rands[j]) {\r\n                    exists = true;\r\n                    break;\r\n                }\r\n            }\r\n\r\n            if(!exists) {\r\n                rands[count] = rand;\r\n                count += 1;\r\n            }\r\n\r\n            i += 1;\r\n        }\r\n    }\r\n\r\n    // This will execute after generation of Random Number\r\n    function _afterGeneration() internal virtual;\r\n\r\n}\r\n\r\ncontract RaffleWrap is IDO, Random {\r\n\r\n    uint256 public ticketsSold; // No of tickets sold\r\n    mapping(uint256 => address) public ticketToOwner; // owner of a ticket\r\n    mapping(address => uint256) public addressToTicketCount; // No Of Tickets Owned By an Address\r\n    mapping(address => uint256[]) public addressToTicketsOwned; // Tickets That an address own\r\n\r\n    uint256 public ticketPrice = 3 * 10 ** 18; // Price of a ticket(no. of tokens)\r\n\r\n    modifier raffleParticipationPeriod() {\r\n        require(regStarts >= block.timestamp, \"Raffle: Can't Participate Now\");\r\n        _;\r\n    }\r\n\r\n    modifier raffleResultPeriod() {\r\n        require(regStarts <= block.timestamp && isInitialized, \"Registration Not Started Yet\");\r\n        require(regStarts + regDuration >= block.timestamp, \"Registration Ended\");\r\n        _;\r\n    }\r\n\r\n    constructor (\r\n        address _stakerAddress,\r\n        address _nativeTokenAddress,\r\n        address _idoTokenAddress,\r\n        uint256 _idoAmount,\r\n        uint256 _price\r\n    ) IDO(\r\n        _stakerAddress,\r\n        _nativeTokenAddress,\r\n        _idoTokenAddress,\r\n        _idoAmount,\r\n        _price\r\n    ) {\r\n\r\n    }\r\n\r\n    \r\n    // Buy Tickets\r\n    function buyTickets(uint256 _noOfTickets) external raffleParticipationPeriod nonReentrant {\r\n        uint256 nextTicket = ticketsSold;\r\n        nativeToken.transferFrom(msg.sender, owner(), _noOfTickets * ticketPrice);\r\n\r\n        for(uint256 i=0; i<_noOfTickets; i++) {\r\n            ticketToOwner[nextTicket + i] = msg.sender;\r\n            addressToTicketsOwned[msg.sender].push(nextTicket + i);\r\n        }\r\n\r\n        addressToTicketCount[msg.sender] += _noOfTickets;\r\n        ticketsSold += _noOfTickets;\r\n    }\r\n\r\n    // Generates The Random Winners\r\n    function genRandom() external once raffleResultPeriod nonReentrant {\r\n        uint256 seed = uint256(keccak256(abi.encodePacked(msg.sender)));\r\n        _getRandomNumber(seed);\r\n    }\r\n\r\n    // Function Extended From Random Contract\r\n    function _afterGeneration() internal override {\r\n        _isFulfilled = true;\r\n        _executeRaffle();\r\n    }\r\n\r\n    // Raffle Entry For Winners\r\n    function _executeRaffle() internal {\r\n\r\n        address[] memory list = _getWinners();\r\n        for(uint256 i=0; i<list.length; i++) {\r\n            address account = list[i];\r\n            uint256 _poolNo = 2; // Raffle Entry Pool\r\n\r\n            if(!getRegistrationStatus(account)) _register(account, _poolNo);\r\n        }\r\n    }\r\n\r\n    // Gets The Address Of The Winners\r\n    function _getWinners() internal view returns(address[] memory list) {\r\n        uint256 n = _noOfWinners(ticketsSold);\r\n        list = new address[](n);\r\n        uint256[] memory winners = _randomList(0, ticketsSold, n);\r\n\r\n        for(uint256 i=0; i<n; i++) {\r\n            address winner = ticketToOwner[winners[i]];\r\n            list[i] = winner;\r\n        }\r\n    }\r\n\r\n    function getWinners() external view returns(address[] memory) {\r\n        require(isFulfilled(), \"Winner Not Decided Yet\");\r\n        return _getWinners();\r\n    }\r\n\r\n    // Calculates The Number Of Winners\r\n    function _noOfWinners(uint256 _ticketsSold) internal pure returns(uint256) {\r\n        return _ticketsSold / 100 + 1;\r\n    }\r\n\r\n}",
  "sourcePath": "C:/Users/sudip/Desktop/RealProjects/PolyStarter/contracts/IDOStaker/RaffleWrap.sol",
  "compiler": {
    "name": "solc",
    "version": "0.8.0+commit.c7dfd78e.Emscripten.clang"
  },
  "schemaVersion": "3.3.4",
  "updatedAt": "2021-06-11T07:51:25.711Z",
  "devdoc": {
    "kind": "dev",
    "methods": {
      "owner()": {
        "details": "Returns the address of the current owner."
      },
      "renounceOwnership()": {
        "details": "Leaves the contract without owner. It will not be possible to call `onlyOwner` functions anymore. Can only be called by the current owner. NOTE: Renouncing ownership will leave the contract without an owner, thereby removing any functionality that is only available to the owner."
      },
      "transferOwnership(address)": {
        "details": "Transfers ownership of the contract to a new account (`newOwner`). Can only be called by the current owner."
      }
    },
    "version": 1
  },
  "userdoc": {
    "kind": "user",
    "methods": {},
    "version": 1
  }
}