{
  "contractName": "RaffleWrapTest",
  "abi": [
    {
      "inputs": [
        {
          "internalType": "address",
          "name": "_stakerAddress",
          "type": "address"
        },
        {
          "internalType": "address",
          "name": "_nativeTokenAddress",
          "type": "address"
        },
        {
          "internalType": "address",
          "name": "_idoTokenAddress",
          "type": "address"
        },
        {
          "internalType": "uint256",
          "name": "_idoAmount",
          "type": "uint256"
        },
        {
          "internalType": "uint256",
          "name": "_price",
          "type": "uint256"
        }
      ],
      "stateMutability": "nonpayable",
      "type": "constructor"
    },
    {
      "anonymous": false,
      "inputs": [
        {
          "indexed": false,
          "internalType": "uint256",
          "name": "regStart",
          "type": "uint256"
        },
        {
          "indexed": false,
          "internalType": "uint256",
          "name": "saleStart",
          "type": "uint256"
        }
      ],
      "name": "Initialization",
      "type": "event"
    },
    {
      "anonymous": false,
      "inputs": [
        {
          "indexed": true,
          "internalType": "address",
          "name": "previousOwner",
          "type": "address"
        },
        {
          "indexed": true,
          "internalType": "address",
          "name": "newOwner",
          "type": "address"
        }
      ],
      "name": "OwnershipTransferred",
      "type": "event"
    },
    {
      "anonymous": false,
      "inputs": [
        {
          "indexed": true,
          "internalType": "address",
          "name": "",
          "type": "address"
        },
        {
          "indexed": false,
          "internalType": "uint256",
          "name": "tokens",
          "type": "uint256"
        },
        {
          "indexed": false,
          "internalType": "uint256",
          "name": "price",
          "type": "uint256"
        }
      ],
      "name": "Purchase",
      "type": "event"
    },
    {
      "anonymous": false,
      "inputs": [
        {
          "indexed": true,
          "internalType": "address",
          "name": "account",
          "type": "address"
        },
        {
          "indexed": false,
          "internalType": "uint256",
          "name": "poolNo",
          "type": "uint256"
        }
      ],
      "name": "Registration",
      "type": "event"
    },
    {
      "inputs": [
        {
          "internalType": "address",
          "name": "",
          "type": "address"
        }
      ],
      "name": "addressToTicketCount",
      "outputs": [
        {
          "internalType": "uint256",
          "name": "",
          "type": "uint256"
        }
      ],
      "stateMutability": "view",
      "type": "function"
    },
    {
      "inputs": [
        {
          "internalType": "address",
          "name": "",
          "type": "address"
        },
        {
          "internalType": "uint256",
          "name": "",
          "type": "uint256"
        }
      ],
      "name": "addressToTicketsOwned",
      "outputs": [
        {
          "internalType": "uint256",
          "name": "",
          "type": "uint256"
        }
      ],
      "stateMutability": "view",
      "type": "function"
    },
    {
      "inputs": [],
      "name": "buyNow",
      "outputs": [],
      "stateMutability": "payable",
      "type": "function"
    },
    {
      "inputs": [
        {
          "internalType": "address",
          "name": "account",
          "type": "address"
        }
      ],
      "name": "getPoolNo",
      "outputs": [
        {
          "internalType": "uint256",
          "name": "",
          "type": "uint256"
        }
      ],
      "stateMutability": "view",
      "type": "function"
    },
    {
      "inputs": [],
      "name": "iStaker",
      "outputs": [
        {
          "internalType": "contract IStaker",
          "name": "",
          "type": "address"
        }
      ],
      "stateMutability": "view",
      "type": "function"
    },
    {
      "inputs": [],
      "name": "idoAmount",
      "outputs": [
        {
          "internalType": "uint256",
          "name": "",
          "type": "uint256"
        }
      ],
      "stateMutability": "view",
      "type": "function"
    },
    {
      "inputs": [],
      "name": "idoPrice",
      "outputs": [
        {
          "internalType": "uint256",
          "name": "",
          "type": "uint256"
        }
      ],
      "stateMutability": "view",
      "type": "function"
    },
    {
      "inputs": [],
      "name": "idoToken",
      "outputs": [
        {
          "internalType": "contract IERC20Metadata",
          "name": "",
          "type": "address"
        }
      ],
      "stateMutability": "view",
      "type": "function"
    },
    {
      "inputs": [
        {
          "internalType": "uint256",
          "name": "time",
          "type": "uint256"
        }
      ],
      "name": "initialize",
      "outputs": [],
      "stateMutability": "nonpayable",
      "type": "function"
    },
    {
      "inputs": [],
      "name": "isFulfilled",
      "outputs": [
        {
          "internalType": "bool",
          "name": "",
          "type": "bool"
        }
      ],
      "stateMutability": "view",
      "type": "function"
    },
    {
      "inputs": [],
      "name": "isInitialized",
      "outputs": [
        {
          "internalType": "bool",
          "name": "",
          "type": "bool"
        }
      ],
      "stateMutability": "view",
      "type": "function"
    },
    {
      "inputs": [],
      "name": "lockDuration",
      "outputs": [
        {
          "internalType": "uint256",
          "name": "",
          "type": "uint256"
        }
      ],
      "stateMutability": "view",
      "type": "function"
    },
    {
      "inputs": [],
      "name": "nativeToken",
      "outputs": [
        {
          "internalType": "contract IERC20Metadata",
          "name": "",
          "type": "address"
        }
      ],
      "stateMutability": "view",
      "type": "function"
    },
    {
      "inputs": [],
      "name": "owner",
      "outputs": [
        {
          "internalType": "address",
          "name": "",
          "type": "address"
        }
      ],
      "stateMutability": "view",
      "type": "function"
    },
    {
      "inputs": [
        {
          "internalType": "uint256",
          "name": "",
          "type": "uint256"
        }
      ],
      "name": "pools",
      "outputs": [
        {
          "internalType": "string",
          "name": "name",
          "type": "string"
        },
        {
          "internalType": "uint256",
          "name": "minNativeToken",
          "type": "uint256"
        },
        {
          "internalType": "uint256",
          "name": "weight",
          "type": "uint256"
        },
        {
          "internalType": "uint256",
          "name": "participants",
          "type": "uint256"
        }
      ],
      "stateMutability": "view",
      "type": "function"
    },
    {
      "inputs": [],
      "name": "randomResult",
      "outputs": [
        {
          "internalType": "uint256",
          "name": "",
          "type": "uint256"
        }
      ],
      "stateMutability": "view",
      "type": "function"
    },
    {
      "inputs": [
        {
          "internalType": "bytes32",
          "name": "requestId",
          "type": "bytes32"
        },
        {
          "internalType": "uint256",
          "name": "randomness",
          "type": "uint256"
        }
      ],
      "name": "rawFulfillRandomness",
      "outputs": [],
      "stateMutability": "nonpayable",
      "type": "function"
    },
    {
      "inputs": [
        {
          "internalType": "address",
          "name": "tokenAddress",
          "type": "address"
        },
        {
          "internalType": "address",
          "name": "to",
          "type": "address"
        }
      ],
      "name": "recoverERC20",
      "outputs": [],
      "stateMutability": "nonpayable",
      "type": "function"
    },
    {
      "inputs": [
        {
          "internalType": "address",
          "name": "to",
          "type": "address"
        }
      ],
      "name": "recoverEth",
      "outputs": [],
      "stateMutability": "nonpayable",
      "type": "function"
    },
    {
      "inputs": [],
      "name": "regDuration",
      "outputs": [
        {
          "internalType": "uint256",
          "name": "",
          "type": "uint256"
        }
      ],
      "stateMutability": "view",
      "type": "function"
    },
    {
      "inputs": [],
      "name": "regStarts",
      "outputs": [
        {
          "internalType": "uint256",
          "name": "",
          "type": "uint256"
        }
      ],
      "stateMutability": "view",
      "type": "function"
    },
    {
      "inputs": [
        {
          "internalType": "uint256",
          "name": "_poolNo",
          "type": "uint256"
        }
      ],
      "name": "register",
      "outputs": [],
      "stateMutability": "nonpayable",
      "type": "function"
    },
    {
      "inputs": [],
      "name": "renounceOwnership",
      "outputs": [],
      "stateMutability": "nonpayable",
      "type": "function"
    },
    {
      "inputs": [],
      "name": "reqId",
      "outputs": [
        {
          "internalType": "bytes32",
          "name": "",
          "type": "bytes32"
        }
      ],
      "stateMutability": "view",
      "type": "function"
    },
    {
      "inputs": [],
      "name": "saleDuration",
      "outputs": [
        {
          "internalType": "uint256",
          "name": "",
          "type": "uint256"
        }
      ],
      "stateMutability": "view",
      "type": "function"
    },
    {
      "inputs": [],
      "name": "saleStarts",
      "outputs": [
        {
          "internalType": "uint256",
          "name": "",
          "type": "uint256"
        }
      ],
      "stateMutability": "view",
      "type": "function"
    },
    {
      "inputs": [],
      "name": "saleStartsAfter",
      "outputs": [
        {
          "internalType": "uint256",
          "name": "",
          "type": "uint256"
        }
      ],
      "stateMutability": "view",
      "type": "function"
    },
    {
      "inputs": [],
      "name": "ticketPrice",
      "outputs": [
        {
          "internalType": "uint256",
          "name": "",
          "type": "uint256"
        }
      ],
      "stateMutability": "view",
      "type": "function"
    },
    {
      "inputs": [
        {
          "internalType": "uint256",
          "name": "",
          "type": "uint256"
        }
      ],
      "name": "ticketToOwner",
      "outputs": [
        {
          "internalType": "address",
          "name": "",
          "type": "address"
        }
      ],
      "stateMutability": "view",
      "type": "function"
    },
    {
      "inputs": [],
      "name": "ticketsSold",
      "outputs": [
        {
          "internalType": "uint256",
          "name": "",
          "type": "uint256"
        }
      ],
      "stateMutability": "view",
      "type": "function"
    },
    {
      "inputs": [
        {
          "internalType": "uint256",
          "name": "_poolNo",
          "type": "uint256"
        }
      ],
      "name": "tokensAndPrice",
      "outputs": [
        {
          "internalType": "uint256",
          "name": "",
          "type": "uint256"
        },
        {
          "internalType": "uint256",
          "name": "",
          "type": "uint256"
        }
      ],
      "stateMutability": "view",
      "type": "function"
    },
    {
      "inputs": [],
      "name": "totalWeight",
      "outputs": [
        {
          "internalType": "uint256",
          "name": "",
          "type": "uint256"
        }
      ],
      "stateMutability": "view",
      "type": "function"
    },
    {
      "inputs": [
        {
          "internalType": "address",
          "name": "newOwner",
          "type": "address"
        }
      ],
      "name": "transferOwnership",
      "outputs": [],
      "stateMutability": "nonpayable",
      "type": "function"
    },
    {
      "inputs": [],
      "name": "unit",
      "outputs": [
        {
          "internalType": "uint256",
          "name": "",
          "type": "uint256"
        }
      ],
      "stateMutability": "view",
      "type": "function"
    },
    {
      "inputs": [
        {
          "internalType": "address",
          "name": "",
          "type": "address"
        }
      ],
      "name": "userlog",
      "outputs": [
        {
          "internalType": "bool",
          "name": "isRegistered",
          "type": "bool"
        },
        {
          "internalType": "uint256",
          "name": "registeredPool",
          "type": "uint256"
        },
        {
          "internalType": "bool",
          "name": "purchased",
          "type": "bool"
        }
      ],
      "stateMutability": "view",
      "type": "function"
    },
    {
      "inputs": [
        {
          "internalType": "uint256",
          "name": "_noOfTickets",
          "type": "uint256"
        }
      ],
      "name": "buyTickets",
      "outputs": [],
      "stateMutability": "nonpayable",
      "type": "function"
    },
    {
      "inputs": [],
      "name": "genRandom",
      "outputs": [],
      "stateMutability": "nonpayable",
      "type": "function"
    },
    {
      "inputs": [
        {
          "internalType": "bytes32",
          "name": "requestId",
          "type": "bytes32"
        },
        {
          "internalType": "uint256",
          "name": "randomness",
          "type": "uint256"
        }
      ],
      "name": "fulfillTest",
      "outputs": [],
      "stateMutability": "nonpayable",
      "type": "function"
    }
  ],
  "bytecode": "0x60c06040526000601260016101000a81548160ff0219169083151502179055506729a2241af62c00006017553480156200003857600080fd5b50604051620050153803806200501583398181016040528101906200005e91906200099a565b738c7382f9d8f56b33781fe506e897a4f1e2d1725573326c977e6efc84e512bb9c30f76e30c160ed06fb868686868660006200009f6200089d60201b60201c565b9050806000806101000a81548173ffffffffffffffffffffffffffffffffffffffff021916908373ffffffffffffffffffffffffffffffffffffffff1602179055508073ffffffffffffffffffffffffffffffffffffffff16600073ffffffffffffffffffffffffffffffffffffffff167f8be0079c531659141344cd1fd0a4f28419497f9722a3daafe3b4186f6b6457e060405160405180910390a3506001808190555084600260006101000a81548173ffffffffffffffffffffffffffffffffffffffff021916908373ffffffffffffffffffffffffffffffffffffffff16021790555083600360006101000a81548173ffffffffffffffffffffffffffffffffffffffff021916908373ffffffffffffffffffffffffffffffffffffffff16021790555082600460006101000a81548173ffffffffffffffffffffffffffffffffffffffff021916908373ffffffffffffffffffffffffffffffffffffffff16021790555081600581905550806006819055506000600360009054906101000a900473ffffffffffffffffffffffffffffffffffffffff1673ffffffffffffffffffffffffffffffffffffffff1663313ce5676040518163ffffffff1660e01b815260040160206040518083038186803b1580156200028057600080fd5b505afa15801562000295573d6000803e3d6000fd5b505050506040513d601f19601f82011682018060405250810190620002bb919062000a1c565b60ff169050600b60405180608001604052806040518060400160405280600481526020017f4e756c6c000000000000000000000000000000000000000000000000000000008152508152602001600081526020016000815260200160008152509080600181540180825580915050600190039060005260206000209060040201600090919091909150600082015181600001908051906020019062000362929190620008a5565b506020820151816001015560408201518160020155606082015181600301555050600b60405180608001604052806040518060400160405280600681526020017f4b6e696768740000000000000000000000000000000000000000000000000000815250815260200183600a620003da919062000aa3565b6064620003e8919062000be0565b81526020016002815260200160008152509080600181540180825580915050600190039060005260206000209060040201600090919091909150600082015181600001908051906020019062000440929190620008a5565b506020820151816001015560408201518160020155606082015181600301555050600b60405180608001604052806040518060400160405280600681526020017f426973686f700000000000000000000000000000000000000000000000000000815250815260200183600a620004b8919062000aa3565b6101f4620004c7919062000be0565b8152602001600381526020016000815250908060018154018082558091505060019003906000526020600020906004020160009091909190915060008201518160000190805190602001906200051f929190620008a5565b506020820151816001015560408201518160020155606082015181600301555050600b60405180608001604052806040518060400160405280600481526020017f526f6f6b00000000000000000000000000000000000000000000000000000000815250815260200183600a62000597919062000aa3565b6103e8620005a6919062000be0565b815260200160048152602001600081525090806001815401808255809150506001900390600052602060002090600402016000909190919091506000820151816000019080519060200190620005fe929190620008a5565b506020820151816001015560408201518160020155606082015181600301555050600b60405180608001604052806040518060400160405280600481526020017f4b696e6700000000000000000000000000000000000000000000000000000000815250815260200183600a62000676919062000aa3565b6107d062000685919062000be0565b815260200160058152602001600081525090806001815401808255809150506001900390600052602060002090600402016000909190919091506000820151816000019080519060200190620006dd929190620008a5565b506020820151816001015560408201518160020155606082015181600301555050600b60405180608001604052806040518060400160405280600581526020017f517565656e000000000000000000000000000000000000000000000000000000815250815260200183600a62000755919062000aa3565b610fa062000764919062000be0565b815260200160068152602001600081525090806001815401808255809150506001900390600052602060002090600402016000909190919091506000820151816000019080519060200190620007bc929190620008a5565b5060208201518160010155604082015181600201556060820151816003015550506014600c819055505050505050508173ffffffffffffffffffffffffffffffffffffffff1660a08173ffffffffffffffffffffffffffffffffffffffff1660601b815250508073ffffffffffffffffffffffffffffffffffffffff1660808173ffffffffffffffffffffffffffffffffffffffff1660601b8152505050507f6e75b569a01ef56d18cab6a8e71e6600d6ce853834d4a5748b720d06f878b3a460001b600e81905550655af3107a4000600f81905550505050505062000d7b565b600033905090565b828054620008b39062000c8c565b90600052602060002090601f016020900481019282620008d7576000855562000923565b82601f10620008f257805160ff191683800117855562000923565b8280016001018555821562000923579182015b828111156200092257825182559160200191906001019062000905565b5b50905062000932919062000936565b5090565b5b808211156200095157600081600090555060010162000937565b5090565b600081519050620009668162000d2d565b92915050565b6000815190506200097d8162000d47565b92915050565b600081519050620009948162000d61565b92915050565b600080600080600060a08688031215620009b357600080fd5b6000620009c38882890162000955565b9550506020620009d68882890162000955565b9450506040620009e98882890162000955565b9350506060620009fc888289016200096c565b925050608062000a0f888289016200096c565b9150509295509295909350565b60006020828403121562000a2f57600080fd5b600062000a3f8482850162000983565b91505092915050565b6000808291508390505b600185111562000a9a5780860481111562000a725762000a7162000cc2565b5b600185161562000a825780820291505b808102905062000a928562000d20565b945062000a52565b94509492505050565b600062000ab08262000c75565b915062000abd8362000c75565b925062000aec7fffffffffffffffffffffffffffffffffffffffffffffffffffffffffffffffff848462000af4565b905092915050565b60008262000b06576001905062000bd9565b8162000b16576000905062000bd9565b816001811462000b2f576002811462000b3a5762000b70565b600191505062000bd9565b60ff84111562000b4f5762000b4e62000cc2565b5b8360020a91508482111562000b695762000b6862000cc2565b5b5062000bd9565b5060208310610133831016604e8410600b841016171562000baa5782820a90508381111562000ba45762000ba362000cc2565b5b62000bd9565b62000bb9848484600162000a48565b9250905081840481111562000bd35762000bd262000cc2565b5b81810290505b9392505050565b600062000bed8262000c75565b915062000bfa8362000c75565b9250817fffffffffffffffffffffffffffffffffffffffffffffffffffffffffffffffff048311821515161562000c365762000c3562000cc2565b5b828202905092915050565b600062000c4e8262000c55565b9050919050565b600073ffffffffffffffffffffffffffffffffffffffff82169050919050565b6000819050919050565b600060ff82169050919050565b6000600282049050600182168062000ca557607f821691505b6020821081141562000cbc5762000cbb62000cf1565b5b50919050565b7f4e487b7100000000000000000000000000000000000000000000000000000000600052601160045260246000fd5b7f4e487b7100000000000000000000000000000000000000000000000000000000600052602260045260246000fd5b60008160011c9050919050565b62000d388162000c41565b811462000d4457600080fd5b50565b62000d528162000c75565b811462000d5e57600080fd5b50565b62000d6c8162000c7f565b811462000d7857600080fd5b50565b60805160601c60a05160601c61426062000db56000396000818161140f01526126e401526000818161242d01526126a801526142606000f3fe6080604052600436106102255760003560e01c8063907af6c011610123578063c4f34fab116100ab578063e76eda861161006f578063e76eda86146107e6578063f207564e14610811578063f2fde38b1461083a578063f3f40af214610863578063fe4b84df1461088e57610225565b8063c4f34fab14610711578063cd80fe0d1461073c578063d0f4b44714610767578063d6cd82bc14610790578063e1758bd8146107bb57610225565b80639e6e9d0f116100f25780639e6e9d0f14610613578063a158226d14610650578063a25dd1301461067b578063ac4afa38146106a6578063bf383450146106e657610225565b8063907af6c01461058a57806394985ddd146105b557806396c82e57146105de5780639c3962f01461060957610225565b806345a28e06116101b15780637acaea9b116101755780637acaea9b146104a3578063886f039a146104e05780638997ce4e146105095780638da5cb5b146105345780638f15024f1461055f57610225565b806345a28e06146103d057806351622cd01461040f57806366a30cb61461044c578063715018a6146104635780637504db3e1461047a57610225565b80632f366637116101f85780632f366637146102fb5780633711d9fb14610324578063385a9c371461034f578063392e53cd1461037a57806342619f66146103a557610225565b8063045544431461022a5780631209b1f614610255578063236bcd58146102805780632b08e824146102be575b600080fd5b34801561023657600080fd5b5061023f6108b7565b60405161024c9190613be9565b60405180910390f35b34801561026157600080fd5b5061026a6108c8565b6040516102779190613be9565b60405180910390f35b34801561028c57600080fd5b506102a760048036038101906102a29190612e85565b6108ce565b6040516102b5929190613c04565b60405180910390f35b3480156102ca57600080fd5b506102e560048036038101906102e09190612e85565b610a54565b6040516102f291906136d3565b60405180910390f35b34801561030757600080fd5b50610322600480360381019061031d9190612e85565b610a87565b005b34801561033057600080fd5b50610339610d4e565b6040516103469190613be9565b60405180910390f35b34801561035b57600080fd5b50610364610d5f565b604051610371919061378c565b60405180910390f35b34801561038657600080fd5b5061038f610d76565b60405161039c919061378c565b60405180910390f35b3480156103b157600080fd5b506103ba610d89565b6040516103c79190613be9565b60405180910390f35b3480156103dc57600080fd5b506103f760048036038101906103f29190612d7f565b610d8f565b604051610406939291906137a7565b60405180910390f35b34801561041b57600080fd5b5061043660048036038101906104319190612d7f565b610dd3565b6040516104439190613be9565b60405180910390f35b34801561045857600080fd5b50610461610deb565b005b34801561046f57600080fd5b50610478610fa0565b005b34801561048657600080fd5b506104a1600480360381019061049c9190612d7f565b6110da565b005b3480156104af57600080fd5b506104ca60048036038101906104c59190612de4565b611206565b6040516104d79190613be9565b60405180910390f35b3480156104ec57600080fd5b5061050760048036038101906105029190612da8565b611237565b005b34801561051557600080fd5b5061051e6113d3565b60405161052b91906137de565b60405180910390f35b34801561054057600080fd5b506105496113d9565b60405161055691906136d3565b60405180910390f35b34801561056b57600080fd5b50610574611402565b6040516105819190613be9565b60405180910390f35b34801561059657600080fd5b5061059f611408565b6040516105ac9190613be9565b60405180910390f35b3480156105c157600080fd5b506105dc60048036038101906105d79190612e49565b61140d565b005b3480156105ea57600080fd5b506105f36114a9565b6040516106009190613be9565b60405180910390f35b6106116114af565b005b34801561061f57600080fd5b5061063a60048036038101906106359190612d7f565b6118ef565b6040516106479190613be9565b60405180910390f35b34801561065c57600080fd5b5061066561193b565b6040516106729190613be9565b60405180910390f35b34801561068757600080fd5b50610690611941565b60405161069d9190613be9565b60405180910390f35b3480156106b257600080fd5b506106cd60048036038101906106c89190612e85565b611952565b6040516106dd949392919061389d565b60405180910390f35b3480156106f257600080fd5b506106fb611a1a565b6040516107089190613be9565b60405180910390f35b34801561071d57600080fd5b50610726611a20565b6040516107339190613882565b60405180910390f35b34801561074857600080fd5b50610751611a46565b60405161075e9190613be9565b60405180910390f35b34801561077357600080fd5b5061078e60048036038101906107899190612e49565b611a4c565b005b34801561079c57600080fd5b506107a5611b7f565b6040516107b29190613867565b60405180910390f35b3480156107c757600080fd5b506107d0611ba5565b6040516107dd9190613867565b60405180910390f35b3480156107f257600080fd5b506107fb611bcb565b6040516108089190613be9565b60405180910390f35b34801561081d57600080fd5b5061083860048036038101906108339190612e85565b611bf4565b005b34801561084657600080fd5b50610861600480360381019061085c9190612d7f565b611fde565b005b34801561086f57600080fd5b50610878612187565b6040516108859190613be9565b60405180910390f35b34801561089a57600080fd5b506108b560048036038101906108b09190612e85565b61218d565b005b600160a86108c59190613eb3565b81565b60175481565b6000806000600b848154811061090d577f4e487b7100000000000000000000000000000000000000000000000000000000600052603260045260246000fd5b906000526020600020906004020190506000841480610930575060008160030154145b15610942576000809250925050610a4f565b6000600460009054906101000a900473ffffffffffffffffffffffffffffffffffffffff1673ffffffffffffffffffffffffffffffffffffffff1663313ce5676040518163ffffffff1660e01b815260040160206040518083038186803b1580156109ac57600080fd5b505afa1580156109c0573d6000803e3d6000fd5b505050506040513d601f19601f820116820180604052508101906109e49190612ed7565b60ff16905060008260030154600c546109fd9190613eb3565b8360020154600554610a0f9190613eb3565b610a199190613cc6565b9050600082600a610a2a9190613d4a565b60065483610a389190613eb3565b610a429190613cc6565b9050818195509550505050505b915091565b60146020528060005260406000206000915054906101000a900473ffffffffffffffffffffffffffffffffffffffff1681565b426007541015610acc576040517f08c379a0000000000000000000000000000000000000000000000000000000008152600401610ac390613b09565b60405180910390fd5b60026001541415610b12576040517f08c379a0000000000000000000000000000000000000000000000000000000008152600401610b0990613ba9565b60405180910390fd5b600260018190555060006013549050600360009054906101000a900473ffffffffffffffffffffffffffffffffffffffff1673ffffffffffffffffffffffffffffffffffffffff166323b872dd33610b686113d9565b60175486610b769190613eb3565b6040518463ffffffff1660e01b8152600401610b94939291906136ee565b602060405180830381600087803b158015610bae57600080fd5b505af1158015610bc2573d6000803e3d6000fd5b505050506040513d601f19601f82011682018060405250810190610be69190612e20565b5060005b82811015610cd35733601460008385610c039190613c70565b815260200190815260200160002060006101000a81548173ffffffffffffffffffffffffffffffffffffffff021916908373ffffffffffffffffffffffffffffffffffffffff160217905550601660003373ffffffffffffffffffffffffffffffffffffffff1673ffffffffffffffffffffffffffffffffffffffff1681526020019081526020016000208183610c9a9190613c70565b90806001815401808255809150506001900390600052602060002001600090919091909150558080610ccb9061404d565b915050610bea565b5081601560003373ffffffffffffffffffffffffffffffffffffffff1673ffffffffffffffffffffffffffffffffffffffff1681526020019081526020016000206000828254610d239190613c70565b925050819055508160136000828254610d3c9190613c70565b92505081905550506001808190555050565b6001600c610d5c9190613eb3565b81565b6000601260019054906101000a900460ff16905090565b600a60009054906101000a900460ff1681565b60115481565b60096020528060005260406000206000915090508060000160009054906101000a900460ff16908060010154908060020160009054906101000a900460ff16905083565b60156020528060005260406000206000915090505481565b601260009054906101000a900460ff1615610e3b576040517f08c379a0000000000000000000000000000000000000000000000000000000008152600401610e3290613969565b60405180910390fd5b6001601260006101000a81548160ff0219169083151502179055504260075411158015610e745750600a60009054906101000a900460ff165b610eb3576040517f08c379a0000000000000000000000000000000000000000000000000000000008152600401610eaa90613909565b60405180910390fd5b4260016030610ec29190613eb3565b600754610ecf9190613c70565b1015610f10576040517f08c379a0000000000000000000000000000000000000000000000000000000008152600401610f0790613989565b60405180910390fd5b60026001541415610f56576040517f08c379a0000000000000000000000000000000000000000000000000000000008152600401610f4d90613ba9565b60405180910390fd5b6002600181905550600033604051602001610f719190613677565b6040516020818303038152906040528051906020012060001c9050610f9581612426565b505060018081905550565b610fa861252b565b73ffffffffffffffffffffffffffffffffffffffff16610fc66113d9565b73ffffffffffffffffffffffffffffffffffffffff161461101c576040517f08c379a000000000000000000000000000000000000000000000000000000000815260040161101390613ac9565b60405180910390fd5b600073ffffffffffffffffffffffffffffffffffffffff1660008054906101000a900473ffffffffffffffffffffffffffffffffffffffff1673ffffffffffffffffffffffffffffffffffffffff167f8be0079c531659141344cd1fd0a4f28419497f9722a3daafe3b4186f6b6457e060405160405180910390a360008060006101000a81548173ffffffffffffffffffffffffffffffffffffffff021916908373ffffffffffffffffffffffffffffffffffffffff160217905550565b6110e261252b565b73ffffffffffffffffffffffffffffffffffffffff166111006113d9565b73ffffffffffffffffffffffffffffffffffffffff1614611156576040517f08c379a000000000000000000000000000000000000000000000000000000000815260040161114d90613ac9565b60405180910390fd5b60008173ffffffffffffffffffffffffffffffffffffffff164760405161117c906136be565b60006040518083038185875af1925050503d80600081146111b9576040519150601f19603f3d011682016040523d82523d6000602084013e6111be565b606091505b5050905080611202576040517f08c379a00000000000000000000000000000000000000000000000000000000081526004016111f990613a69565b60405180910390fd5b5050565b6016602052816000526040600020818154811061122257600080fd5b90600052602060002001600091509150505481565b61123f61252b565b73ffffffffffffffffffffffffffffffffffffffff1661125d6113d9565b73ffffffffffffffffffffffffffffffffffffffff16146112b3576040517f08c379a00000000000000000000000000000000000000000000000000000000081526004016112aa90613ac9565b60405180910390fd5b60008290508073ffffffffffffffffffffffffffffffffffffffff1663a9059cbb838373ffffffffffffffffffffffffffffffffffffffff166370a08231306040518263ffffffff1660e01b815260040161130e91906136d3565b60206040518083038186803b15801561132657600080fd5b505afa15801561133a573d6000803e3d6000fd5b505050506040513d601f19601f8201168201806040525081019061135e9190612eae565b6040518363ffffffff1660e01b815260040161137b929190613725565b602060405180830381600087803b15801561139557600080fd5b505af11580156113a9573d6000803e3d6000fd5b505050506040513d601f19601f820116820180604052508101906113cd9190612e20565b50505050565b60105481565b60008060009054906101000a900473ffffffffffffffffffffffffffffffffffffffff16905090565b60135481565b600181565b7f000000000000000000000000000000000000000000000000000000000000000073ffffffffffffffffffffffffffffffffffffffff163373ffffffffffffffffffffffffffffffffffffffff161461149b576040517f08c379a000000000000000000000000000000000000000000000000000000000815260040161149290613ae9565b60405180910390fd5b6114a58282612533565b5050565b600c5481565b6000429050600a60009054906101000a900460ff16611503576040517f08c379a00000000000000000000000000000000000000000000000000000000081526004016114fa90613bc9565b60405180910390fd5b600960003373ffffffffffffffffffffffffffffffffffffffff1673ffffffffffffffffffffffffffffffffffffffff16815260200190815260200160002060000160009054906101000a900460ff16611592576040517f08c379a000000000000000000000000000000000000000000000000000000000815260040161158990613929565b60405180910390fd5b600960003373ffffffffffffffffffffffffffffffffffffffff1673ffffffffffffffffffffffffffffffffffffffff16815260200190815260200160002060020160009054906101000a900460ff1615611622576040517f08c379a000000000000000000000000000000000000000000000000000000000815260040161161990613a29565b60405180910390fd5b806008541115801561164e57506001600c61163d9190613eb3565b60085461164a9190613c70565b8111155b61168d576040517f08c379a000000000000000000000000000000000000000000000000000000000815260040161168490613b89565b60405180910390fd5b600260015414156116d3576040517f08c379a00000000000000000000000000000000000000000000000000000000081526004016116ca90613ba9565b60405180910390fd5b60026001819055506000600960003373ffffffffffffffffffffffffffffffffffffffff1673ffffffffffffffffffffffffffffffffffffffff168152602001908152602001600020905060008061172e83600101546108ce565b9150915060008114158015611744575060008214155b611783576040517f08c379a000000000000000000000000000000000000000000000000000000000815260040161177a90613b29565b60405180910390fd5b3481146117c5576040517f08c379a00000000000000000000000000000000000000000000000000000000081526004016117bc906138e9565b60405180910390fd5b60018360020160006101000a81548160ff021916908315150217905550600460009054906101000a900473ffffffffffffffffffffffffffffffffffffffff1673ffffffffffffffffffffffffffffffffffffffff1663a9059cbb33846040518363ffffffff1660e01b815260040161183f929190613725565b602060405180830381600087803b15801561185957600080fd5b505af115801561186d573d6000803e3d6000fd5b505050506040513d601f19601f820116820180604052508101906118919190612e20565b503373ffffffffffffffffffffffffffffffffffffffff167f12cb4648cf3058b17ceeb33e579f8b0bc269fe0843f3900b8e24b6c54871703c83836040516118da929190613c04565b60405180910390a25050506001808190555050565b6000600960008373ffffffffffffffffffffffffffffffffffffffff1673ffffffffffffffffffffffffffffffffffffffff168152602001908152602001600020600101549050919050565b60075481565b6001603061194f9190613eb3565b81565b600b818154811061196257600080fd5b90600052602060002090600402016000915090508060000180546119859061401b565b80601f01602080910402602001604051908101604052809291908181526020018280546119b19061401b565b80156119fe5780601f106119d3576101008083540402835291602001916119fe565b820191906000526020600020905b8154815290600101906020018083116119e157829003601f168201915b5050505050908060010154908060020154908060030154905084565b60055481565b600260009054906101000a900473ffffffffffffffffffffffffffffffffffffffff1681565b60065481565b601260009054906101000a900460ff1615611a9c576040517f08c379a0000000000000000000000000000000000000000000000000000000008152600401611a9390613969565b60405180910390fd5b6001601260006101000a81548160ff0219169083151502179055504260075411158015611ad55750600a60009054906101000a900460ff165b611b14576040517f08c379a0000000000000000000000000000000000000000000000000000000008152600401611b0b90613909565b60405180910390fd5b4260016030611b239190613eb3565b600754611b309190613c70565b1015611b71576040517f08c379a0000000000000000000000000000000000000000000000000000000008152600401611b6890613989565b60405180910390fd5b611b7b8282612533565b5050565b600460009054906101000a900473ffffffffffffffffffffffffffffffffffffffff1681565b600360009054906101000a900473ffffffffffffffffffffffffffffffffffffffff1681565b60016018611bd99190613eb3565b60016030611be79190613eb3565b611bf19190613c70565b81565b6000429050600a60009054906101000a900460ff16611c48576040517f08c379a0000000000000000000000000000000000000000000000000000000008152600401611c3f90613bc9565b60405180910390fd5b600960003373ffffffffffffffffffffffffffffffffffffffff1673ffffffffffffffffffffffffffffffffffffffff16815260200190815260200160002060000160009054906101000a900460ff1615611cd8576040517f08c379a0000000000000000000000000000000000000000000000000000000008152600401611ccf906139a9565b60405180910390fd5b8060075411158015611d04575060016030611cf39190613eb3565b600754611d009190613c70565b8111155b611d43576040517f08c379a0000000000000000000000000000000000000000000000000000000008152600401611d3a90613b69565b60405180910390fd5b8180600111158015611d56575060058111155b611d95576040517f08c379a0000000000000000000000000000000000000000000000000000000008152600401611d8c906139c9565b60405180910390fd5b6000600260009054906101000a900473ffffffffffffffffffffffffffffffffffffffff1673ffffffffffffffffffffffffffffffffffffffff166360217267336040518263ffffffff1660e01b8152600401611df291906136d3565b60206040518083038186803b158015611e0a57600080fd5b505afa158015611e1e573d6000803e3d6000fd5b505050506040513d601f19601f82011682018060405250810190611e429190612eae565b905080600b8381548110611e7f577f4e487b7100000000000000000000000000000000000000000000000000000000600052603260045260246000fd5b9060005260206000209060040201600101541115611ed2576040517f08c379a0000000000000000000000000000000000000000000000000000000008152600401611ec990613a49565b60405180910390fd5b60026001541415611f18576040517f08c379a0000000000000000000000000000000000000000000000000000000008152600401611f0f90613ba9565b60405180910390fd5b6002600181905550600260009054906101000a900473ffffffffffffffffffffffffffffffffffffffff1673ffffffffffffffffffffffffffffffffffffffff1663282d3fdf33600160a8611f6d9190613eb3565b42611f789190613c70565b6040518363ffffffff1660e01b8152600401611f95929190613725565b600060405180830381600087803b158015611faf57600080fd5b505af1158015611fc3573d6000803e3d6000fd5b50505050611fd1338561254d565b6001808190555050505050565b611fe661252b565b73ffffffffffffffffffffffffffffffffffffffff166120046113d9565b73ffffffffffffffffffffffffffffffffffffffff161461205a576040517f08c379a000000000000000000000000000000000000000000000000000000000815260040161205190613ac9565b60405180910390fd5b600073ffffffffffffffffffffffffffffffffffffffff168173ffffffffffffffffffffffffffffffffffffffff1614156120ca576040517f08c379a00000000000000000000000000000000000000000000000000000000081526004016120c190613949565b60405180910390fd5b8073ffffffffffffffffffffffffffffffffffffffff1660008054906101000a900473ffffffffffffffffffffffffffffffffffffffff1673ffffffffffffffffffffffffffffffffffffffff167f8be0079c531659141344cd1fd0a4f28419497f9722a3daafe3b4186f6b6457e060405160405180910390a3806000806101000a81548173ffffffffffffffffffffffffffffffffffffffff021916908373ffffffffffffffffffffffffffffffffffffffff16021790555050565b60085481565b61219561252b565b73ffffffffffffffffffffffffffffffffffffffff166121b36113d9565b73ffffffffffffffffffffffffffffffffffffffff1614612209576040517f08c379a000000000000000000000000000000000000000000000000000000000815260040161220090613ac9565b60405180910390fd5b600a60009054906101000a900460ff1615612259576040517f08c379a000000000000000000000000000000000000000000000000000000000815260040161225090613a09565b60405180910390fd5b4281101561229c576040517f08c379a000000000000000000000000000000000000000000000000000000000815260040161229390613a89565b60405180910390fd5b80600781905550600160186122b19190613eb3565b600160306122bf9190613eb3565b6122c99190613c70565b6007546122d69190613c70565b600881905550600554600460009054906101000a900473ffffffffffffffffffffffffffffffffffffffff1673ffffffffffffffffffffffffffffffffffffffff166370a08231306040518263ffffffff1660e01b815260040161233a91906136d3565b60206040518083038186803b15801561235257600080fd5b505afa158015612366573d6000803e3d6000fd5b505050506040513d601f19601f8201168201806040525081019061238a9190612eae565b10156123cb576040517f08c379a00000000000000000000000000000000000000000000000000000000081526004016123c290613aa9565b60405180910390fd5b7f537db03a5cf0f67e64e2a7515e45c28a71d041067e165fc95ee2ecde36e6532d600754600854604051612400929190613c04565b60405180910390a16001600a60006101000a81548160ff02191690831515021790555050565b6000600f547f000000000000000000000000000000000000000000000000000000000000000073ffffffffffffffffffffffffffffffffffffffff166370a08231306040518263ffffffff1660e01b815260040161248491906136d3565b60206040518083038186803b15801561249c57600080fd5b505afa1580156124b0573d6000803e3d6000fd5b505050506040513d601f19601f820116820180604052508101906124d49190612eae565b1015612515576040517f08c379a000000000000000000000000000000000000000000000000000000000815260040161250c906139e9565b60405180910390fd5b612524600e54600f54846126a4565b9050919050565b600033905090565b8160108190555080601181905550612549612805565b5050565b6001600960008473ffffffffffffffffffffffffffffffffffffffff1673ffffffffffffffffffffffffffffffffffffffff16815260200190815260200160002060000160006101000a81548160ff02191690831515021790555080600960008473ffffffffffffffffffffffffffffffffffffffff1673ffffffffffffffffffffffffffffffffffffffff168152602001908152602001600020600101819055506001600b828154811061262b577f4e487b7100000000000000000000000000000000000000000000000000000000600052603260045260246000fd5b9060005260206000209060040201600301600082825461264b9190613c70565b925050819055503373ffffffffffffffffffffffffffffffffffffffff167ff6c60b059f60c86b2d612b237ac38bd87bc1f68f87600cd360d68351af1ca95f826040516126989190613be9565b60405180910390a25050565b60007f000000000000000000000000000000000000000000000000000000000000000073ffffffffffffffffffffffffffffffffffffffff16634000aea07f00000000000000000000000000000000000000000000000000000000000000008587866040516020016127179291906137f9565b6040516020818303038152906040526040518463ffffffff1660e01b81526004016127449392919061374e565b602060405180830381600087803b15801561275e57600080fd5b505af1158015612772573d6000803e3d6000fd5b505050506040513d601f19601f820116820180604052508101906127969190612e20565b5060006127b8858430600d60008a81526020019081526020016000205461282a565b90506001600d6000878152602001908152602001600020546127da9190613c70565b600d6000878152602001908152602001600020819055506127fb8582612866565b9150509392505050565b6001601260016101000a81548160ff021916908315150217905550612828612899565b565b6000848484846040516020016128439493929190613822565b6040516020818303038152906040528051906020012060001c9050949350505050565b6000828260405160200161287b929190613692565b60405160208183030381529060405280519060200120905092915050565b60006128a3612931565b905060005b815181101561292d5760008282815181106128ec577f4e487b7100000000000000000000000000000000000000000000000000000000600052603260045260246000fd5b602002602001015190506000600290506000612907836118ef565b141561291857612917828261254d565b5b505080806129259061404d565b9150506128a8565b5050565b60606000612940601354612ad6565b90508067ffffffffffffffff811115612982577f4e487b7100000000000000000000000000000000000000000000000000000000600052604160045260246000fd5b6040519080825280602002602001820160405280156129b05781602001602082028036833780820191505090505b50915060006129c3600060135484612af8565b905060005b82811015612ad057600060146000848481518110612a0f577f4e487b7100000000000000000000000000000000000000000000000000000000600052603260045260246000fd5b6020026020010151815260200190815260200160002060009054906101000a900473ffffffffffffffffffffffffffffffffffffffff16905080858381518110612a82577f4e487b7100000000000000000000000000000000000000000000000000000000600052603260045260246000fd5b602002602001019073ffffffffffffffffffffffffffffffffffffffff16908173ffffffffffffffffffffffffffffffffffffffff1681525050508080612ac89061404d565b9150506129c8565b50505090565b60006001606483612ae79190613cc6565b612af19190613c70565b9050919050565b60608167ffffffffffffffff811115612b3a577f4e487b7100000000000000000000000000000000000000000000000000000000600052604160045260246000fd5b604051908082528060200260200182016040528015612b685781602001602082028036833780820191505090505b5090506000601154905060008585612b809190613f0d565b905083811015612bc5576040517f08c379a0000000000000000000000000000000000000000000000000000000008152600401612bbc90613b49565b60405180910390fd5b600060fb905060005b85811015612cf65760008884600285612be79190613d95565b87612bf29190613c70565b612bfc91906140ce565b612c069190613c70565b90506000805b600184612c199190613c70565b811015612c8457878181518110612c59577f4e487b7100000000000000000000000000000000000000000000000000000000600052603260045260246000fd5b6020026020010151831415612c715760019150612c84565b8080612c7c9061404d565b915050612c0c565b5080612ce05781878481518110612cc4577f4e487b7100000000000000000000000000000000000000000000000000000000600052603260045260246000fd5b602002602001018181525050600183612cdd9190613c70565b92505b600184612ced9190613c70565b93505050612bce565b505050509392505050565b600081359050612d10816141b7565b92915050565b600081519050612d25816141ce565b92915050565b600081359050612d3a816141e5565b92915050565b600081359050612d4f816141fc565b92915050565b600081519050612d64816141fc565b92915050565b600081519050612d7981614213565b92915050565b600060208284031215612d9157600080fd5b6000612d9f84828501612d01565b91505092915050565b60008060408385031215612dbb57600080fd5b6000612dc985828601612d01565b9250506020612dda85828601612d01565b9150509250929050565b60008060408385031215612df757600080fd5b6000612e0585828601612d01565b9250506020612e1685828601612d40565b9150509250929050565b600060208284031215612e3257600080fd5b6000612e4084828501612d16565b91505092915050565b60008060408385031215612e5c57600080fd5b6000612e6a85828601612d2b565b9250506020612e7b85828601612d40565b9150509250929050565b600060208284031215612e9757600080fd5b6000612ea584828501612d40565b91505092915050565b600060208284031215612ec057600080fd5b6000612ece84828501612d55565b91505092915050565b600060208284031215612ee957600080fd5b6000612ef784828501612d6a565b91505092915050565b612f0981613f41565b82525050565b612f20612f1b82613f41565b614096565b82525050565b612f2f81613f53565b82525050565b612f3e81613f5f565b82525050565b612f55612f5082613f5f565b6140a8565b82525050565b6000612f6682613c2d565b612f708185613c43565b9350612f80818560208601613fe8565b612f898161418c565b840191505092915050565b612f9d81613fa0565b82525050565b612fac81613fc4565b82525050565b6000612fbd82613c38565b612fc78185613c5f565b9350612fd7818560208601613fe8565b612fe08161418c565b840191505092915050565b6000612ff8601483613c5f565b91507f4e6f742056616c69642045746820416d6f756e740000000000000000000000006000830152602082019050919050565b6000613038601c83613c5f565b91507f526567697374726174696f6e204e6f74205374617274656420596574000000006000830152602082019050919050565b6000613078600e83613c5f565b91507f4e6f7420726567697374657265640000000000000000000000000000000000006000830152602082019050919050565b60006130b8602683613c5f565b91507f4f776e61626c653a206e6577206f776e657220697320746865207a65726f206160008301527f64647265737300000000000000000000000000000000000000000000000000006020830152604082019050919050565b600061311e601683613c5f565b91507f416c72656164792047656e657261746564204f6e6365000000000000000000006000830152602082019050919050565b600061315e601283613c5f565b91507f526567697374726174696f6e20456e64656400000000000000000000000000006000830152602082019050919050565b600061319e601283613c5f565b91507f416c7265616479207265676973746572656400000000000000000000000000006000830152602082019050919050565b60006131de600f83613c5f565b91507f696e76616c696420506f6f6c206e6f00000000000000000000000000000000006000830152602082019050919050565b600061321e602b83613c5f565b91507f4e6f7420656e6f756768204c494e4b202d2066696c6c20636f6e74726163742060008301527f77697468206661756365740000000000000000000000000000000000000000006020830152604082019050919050565b6000613284601383613c5f565b91507f416c726561647920496e697469616c697a6564000000000000000000000000006000830152602082019050919050565b60006132c4601183613c5f565b91507f416c7265616479205075726368617365640000000000000000000000000000006000830152602082019050919050565b6000613304601d83613c5f565b91507f43616e277420506172746963697061746520696e2074686520506f6f6c0000006000830152602082019050919050565b6000613344601583613c5f565b91507f556e61626c6520546f205265636f7665722045746800000000000000000000006000830152602082019050919050565b6000613384601483613c5f565b91507f49444f2043616e277420426520696e20506173740000000000000000000000006000830152602082019050919050565b60006133c4601d83613c5f565b91507f4e6f7420456e6f75676820546f6b656e7320496e20436f6e74726163740000006000830152602082019050919050565b6000613404602083613c5f565b91507f4f776e61626c653a2063616c6c6572206973206e6f7420746865206f776e65726000830152602082019050919050565b6000613444601f83613c5f565b91507f4f6e6c7920565246436f6f7264696e61746f722063616e2066756c66696c6c006000830152602082019050919050565b6000613484601d83613c5f565b91507f526166666c653a2043616e2774205061727469636970617465204e6f770000006000830152602082019050919050565b60006134c4601483613c5f565b91507f56616c7565732043616e2774204265205a65726f0000000000000000000000006000830152602082019050919050565b6000613504600c83613c5f565b91507f496e76616c69642053697a6500000000000000000000000000000000000000006000830152602082019050919050565b6000613544601a83613c5f565b91507f4e6f7420696e20526567697374726174696f6e20506572696f640000000000006000830152602082019050919050565b6000613584600083613c54565b9150600082019050919050565b600061359e601283613c5f565b91507f4e6f7420696e2053616c6520506572696f6400000000000000000000000000006000830152602082019050919050565b60006135de601f83613c5f565b91507f5265656e7472616e637947756172643a207265656e7472616e742063616c6c006000830152602082019050919050565b600061361e601383613c5f565b91507f4e6f7420496e697469616c697a656420596574000000000000000000000000006000830152602082019050919050565b61365a81613f89565b82525050565b61367161366c82613f89565b6140c4565b82525050565b60006136838284612f0f565b60148201915081905092915050565b600061369e8285612f44565b6020820191506136ae8284613660565b6020820191508190509392505050565b60006136c982613577565b9150819050919050565b60006020820190506136e86000830184612f00565b92915050565b60006060820190506137036000830186612f00565b6137106020830185612f00565b61371d6040830184613651565b949350505050565b600060408201905061373a6000830185612f00565b6137476020830184613651565b9392505050565b60006060820190506137636000830186612f00565b6137706020830185613651565b81810360408301526137828184612f5b565b9050949350505050565b60006020820190506137a16000830184612f26565b92915050565b60006060820190506137bc6000830186612f26565b6137c96020830185613651565b6137d66040830184612f26565b949350505050565b60006020820190506137f36000830184612f35565b92915050565b600060408201905061380e6000830185612f35565b61381b6020830184613651565b9392505050565b60006080820190506138376000830187612f35565b6138446020830186613651565b6138516040830185612f00565b61385e6060830184613651565b95945050505050565b600060208201905061387c6000830184612f94565b92915050565b60006020820190506138976000830184612fa3565b92915050565b600060808201905081810360008301526138b78187612fb2565b90506138c66020830186613651565b6138d36040830185613651565b6138e06060830184613651565b95945050505050565b6000602082019050818103600083015261390281612feb565b9050919050565b600060208201905081810360008301526139228161302b565b9050919050565b600060208201905081810360008301526139428161306b565b9050919050565b60006020820190508181036000830152613962816130ab565b9050919050565b6000602082019050818103600083015261398281613111565b9050919050565b600060208201905081810360008301526139a281613151565b9050919050565b600060208201905081810360008301526139c281613191565b9050919050565b600060208201905081810360008301526139e2816131d1565b9050919050565b60006020820190508181036000830152613a0281613211565b9050919050565b60006020820190508181036000830152613a2281613277565b9050919050565b60006020820190508181036000830152613a42816132b7565b9050919050565b60006020820190508181036000830152613a62816132f7565b9050919050565b60006020820190508181036000830152613a8281613337565b9050919050565b60006020820190508181036000830152613aa281613377565b9050919050565b60006020820190508181036000830152613ac2816133b7565b9050919050565b60006020820190508181036000830152613ae2816133f7565b9050919050565b60006020820190508181036000830152613b0281613437565b9050919050565b60006020820190508181036000830152613b2281613477565b9050919050565b60006020820190508181036000830152613b42816134b7565b9050919050565b60006020820190508181036000830152613b62816134f7565b9050919050565b60006020820190508181036000830152613b8281613537565b9050919050565b60006020820190508181036000830152613ba281613591565b9050919050565b60006020820190508181036000830152613bc2816135d1565b9050919050565b60006020820190508181036000830152613be281613611565b9050919050565b6000602082019050613bfe6000830184613651565b92915050565b6000604082019050613c196000830185613651565b613c266020830184613651565b9392505050565b600081519050919050565b600081519050919050565b600082825260208201905092915050565b600081905092915050565b600082825260208201905092915050565b6000613c7b82613f89565b9150613c8683613f89565b9250827fffffffffffffffffffffffffffffffffffffffffffffffffffffffffffffffff03821115613cbb57613cba6140ff565b5b828201905092915050565b6000613cd182613f89565b9150613cdc83613f89565b925082613cec57613ceb61412e565b5b828204905092915050565b6000808291508390505b6001851115613d4157808604811115613d1d57613d1c6140ff565b5b6001851615613d2c5780820291505b8081029050613d3a856141aa565b9450613d01565b94509492505050565b6000613d5582613f89565b9150613d6083613f89565b9250613d8d7fffffffffffffffffffffffffffffffffffffffffffffffffffffffffffffffff8484613de0565b905092915050565b6000613da082613f89565b9150613dab83613f93565b9250613dd87fffffffffffffffffffffffffffffffffffffffffffffffffffffffffffffffff8484613de0565b905092915050565b600082613df05760019050613eac565b81613dfe5760009050613eac565b8160018114613e145760028114613e1e57613e4d565b6001915050613eac565b60ff841115613e3057613e2f6140ff565b5b8360020a915084821115613e4757613e466140ff565b5b50613eac565b5060208310610133831016604e8410600b8410161715613e825782820a905083811115613e7d57613e7c6140ff565b5b613eac565b613e8f8484846001613cf7565b92509050818404811115613ea657613ea56140ff565b5b81810290505b9392505050565b6000613ebe82613f89565b9150613ec983613f89565b9250817fffffffffffffffffffffffffffffffffffffffffffffffffffffffffffffffff0483118215151615613f0257613f016140ff565b5b828202905092915050565b6000613f1882613f89565b9150613f2383613f89565b925082821015613f3657613f356140ff565b5b828203905092915050565b6000613f4c82613f69565b9050919050565b60008115159050919050565b6000819050919050565b600073ffffffffffffffffffffffffffffffffffffffff82169050919050565b6000819050919050565b600060ff82169050919050565b6000613fab82613fb2565b9050919050565b6000613fbd82613f69565b9050919050565b6000613fcf82613fd6565b9050919050565b6000613fe182613f69565b9050919050565b60005b83811015614006578082015181840152602081019050613feb565b83811115614015576000848401525b50505050565b6000600282049050600182168061403357607f821691505b602082108114156140475761404661415d565b5b50919050565b600061405882613f89565b91507fffffffffffffffffffffffffffffffffffffffffffffffffffffffffffffffff82141561408b5761408a6140ff565b5b600182019050919050565b60006140a1826140b2565b9050919050565b6000819050919050565b60006140bd8261419d565b9050919050565b6000819050919050565b60006140d982613f89565b91506140e483613f89565b9250826140f4576140f361412e565b5b828206905092915050565b7f4e487b7100000000000000000000000000000000000000000000000000000000600052601160045260246000fd5b7f4e487b7100000000000000000000000000000000000000000000000000000000600052601260045260246000fd5b7f4e487b7100000000000000000000000000000000000000000000000000000000600052602260045260246000fd5b6000601f19601f8301169050919050565b60008160601b9050919050565b60008160011c9050919050565b6141c081613f41565b81146141cb57600080fd5b50565b6141d781613f53565b81146141e257600080fd5b50565b6141ee81613f5f565b81146141f957600080fd5b50565b61420581613f89565b811461421057600080fd5b50565b61421c81613f93565b811461422757600080fd5b5056fea26469706673582212200a22bcad8a6b4f0599ad438758ea449dc5f09b415836e8bd0d8c91319874614a64736f6c63430008000033",
  "immutableReferences": {
    "1884": [
      {
        "length": 32,
        "start": 9261
      },
      {
        "length": 32,
        "start": 9896
      }
    ],
    "1886": [
      {
        "length": 32,
        "start": 5135
      },
      {
        "length": 32,
        "start": 9956
      }
    ]
  },
  "source": "// SPDX-License-Identifier: MIT\r\npragma solidity ^0.8.0;\r\n\r\nimport \"@chainlink/contracts/src/v0.8/dev/VRFConsumerBase.sol\";\r\nimport \"./IDO.sol\";\r\n\r\nabstract contract RandomTest is VRFConsumerBase {\r\n\r\n    bytes32 internal keyHash;\r\n    uint256 internal fee;\r\n    \r\n    bytes32 public reqId;\r\n    uint256 public randomResult;\r\n\r\n    bool isGeneratedOnce;\r\n    modifier once() {\r\n        require(!isGeneratedOnce, \"Already Generated Once\");\r\n        isGeneratedOnce = true;\r\n        _;\r\n    }\r\n\r\n    constructor () VRFConsumerBase (\r\n        0x8C7382F9D8f56b33781fE506E897a4F1e2d17255, // VRF Coordinator\r\n        0x326C977E6efc84E512bB9C30f76E30c160eD06FB  // LINK Token\r\n    ) {\r\n        keyHash = 0x6e75b569a01ef56d18cab6a8e71e6600d6ce853834d4a5748b720d06f878b3a4;\r\n        fee = 100000000000000; // 0.0001 LINK\r\n    }\r\n\r\n    /** \r\n     * Requests randomness from a user-provided seed\r\n     */\r\n    function _getRandomNumber(uint256 userProvidedSeed) internal returns (bytes32 requestId) {\r\n        require(LINK.balanceOf(address(this)) >= fee, \"Not enough LINK - fill contract with faucet\");\r\n        return requestRandomness(keyHash, fee, userProvidedSeed);\r\n    }\r\n\r\n    /**\r\n     * Callback function used by VRF Coordinator\r\n     */\r\n    function fulfillRandomness(bytes32 requestId, uint256 randomness) internal override {\r\n        reqId = requestId;\r\n        randomResult = randomness;\r\n        _afterGeneration();\r\n    }\r\n\r\n    bool _isFulfilled = false;\r\n    function isFulfilled() public view returns(bool) {\r\n        return _isFulfilled;\r\n    }\r\n\r\n    // Generating Multiple Random Numbers From a Single One\r\n    function _randomList(uint256 _from, uint256 _to, uint256 _size) internal view returns(uint256[] memory rands) {\r\n\r\n        rands = new uint256[](_size);\r\n        uint256 r = randomResult;\r\n        uint256 len = _to - _from;\r\n        \r\n        require(len >= _size, \"Invalid Size\");\r\n\r\n        uint256 i = 251;\r\n        uint256 count = 0;\r\n\r\n        while(count < _size) {\r\n            uint256 rand = (r + i**2) % len + _from;\r\n            bool exists = false;\r\n\r\n            for(uint256 j = 0; j < count + 1; j++) {\r\n                if (rand == rands[j]) {\r\n                    exists = true;\r\n                    break;\r\n                }\r\n            }\r\n\r\n            if(!exists) {\r\n                rands[count] = rand;\r\n                count += 1;\r\n            }\r\n\r\n            i += 1;\r\n        }\r\n    }\r\n\r\n    // This will execute after generation of Random Number\r\n    function _afterGeneration() internal virtual;\r\n\r\n}\r\n\r\ncontract RaffleWrapTest is IDO, RandomTest {\r\n\r\n    uint256 public ticketsSold; // No of tickets sold\r\n    mapping(uint256 => address) public ticketToOwner; // owner of a ticket\r\n    mapping(address => uint256) public addressToTicketCount; // No Of Tickets Owned By an Address\r\n    mapping(address => uint256[]) public addressToTicketsOwned; // Tickets That an address own\r\n\r\n    uint256 public ticketPrice = 3 * 10 ** 18; // Price of a ticket(no. of tokens)\r\n\r\n    modifier raffleParticipationPeriod() {\r\n        require(regStarts >= block.timestamp, \"Raffle: Can't Participate Now\");\r\n        _;\r\n    }\r\n\r\n    modifier raffleResultPeriod() {\r\n        require(regStarts <= block.timestamp && isInitialized, \"Registration Not Started Yet\");\r\n        require(regStarts + regDuration >= block.timestamp, \"Registration Ended\");\r\n        _;\r\n    }\r\n\r\n    constructor (\r\n        address _stakerAddress,\r\n        address _nativeTokenAddress,\r\n        address _idoTokenAddress,\r\n        uint256 _idoAmount,\r\n        uint256 _price\r\n    ) IDO(\r\n        _stakerAddress,\r\n        _nativeTokenAddress,\r\n        _idoTokenAddress,\r\n        _idoAmount,\r\n        _price\r\n    ) {\r\n\r\n    }\r\n\r\n    \r\n    // Buy Tickets\r\n    function buyTickets(uint256 _noOfTickets) external raffleParticipationPeriod nonReentrant {\r\n        uint256 nextTicket = ticketsSold;\r\n        nativeToken.transferFrom(msg.sender, owner(), _noOfTickets * ticketPrice);\r\n\r\n        for(uint256 i=0; i<_noOfTickets; i++) {\r\n            ticketToOwner[nextTicket + i] = msg.sender;\r\n            addressToTicketsOwned[msg.sender].push(nextTicket + i);\r\n        }\r\n\r\n        addressToTicketCount[msg.sender] += _noOfTickets;\r\n        ticketsSold += _noOfTickets;\r\n    }\r\n\r\n    // Generates The Random Winners\r\n    function genRandom() external once raffleResultPeriod nonReentrant {\r\n        uint256 seed = uint256(keccak256(abi.encodePacked(msg.sender)));\r\n        _getRandomNumber(seed);\r\n    }\r\n\r\n    function fulfillTest(bytes32 requestId, uint256 randomness) once raffleResultPeriod external {\r\n        fulfillRandomness(requestId, randomness);\r\n    }\r\n\r\n    // Function Extended From Random Contract\r\n    function _afterGeneration() internal override {\r\n        _isFulfilled = true;\r\n        _executeRaffle();\r\n    }\r\n\r\n    // Raffle Entry For Winners\r\n    function _executeRaffle() internal {\r\n\r\n        address[] memory list = _getWinners();\r\n        for(uint256 i=0; i<list.length; i++) {\r\n            address account = list[i];\r\n            uint256 _poolNo = 2; // Raffle Entry Pool\r\n\r\n            if(getPoolNo(account) == 0) _register(account, _poolNo);\r\n        }\r\n    }\r\n\r\n    // Gets The Address Of The Winners\r\n    function _getWinners() internal view returns(address[] memory list) {\r\n        uint256 n = _noOfWinners(ticketsSold);\r\n        list = new address[](n);\r\n        uint256[] memory winners = _randomList(0, ticketsSold, n);\r\n\r\n        for(uint256 i=0; i<n; i++) {\r\n            address winner = ticketToOwner[winners[i]];\r\n            list[i] = winner;\r\n        }\r\n    }\r\n\r\n    // Calculates The Number Of Winners\r\n    function _noOfWinners(uint256 _ticketsSold) internal pure returns(uint256) {\r\n        return _ticketsSold / 100 + 1;\r\n    }\r\n\r\n}",
  "sourcePath": "C:/Users/sudip/Desktop/RealProjects/PolyStarter/contracts/IDOStaker/RaffleWrapTest.sol",
  "compiler": {
    "name": "solc",
    "version": "0.8.0+commit.c7dfd78e.Emscripten.clang"
  },
  "schemaVersion": "3.3.4",
  "updatedAt": "2021-06-10T18:17:22.268Z",
  "devdoc": {
    "kind": "dev",
    "methods": {
      "owner()": {
        "details": "Returns the address of the current owner."
      },
      "renounceOwnership()": {
        "details": "Leaves the contract without owner. It will not be possible to call `onlyOwner` functions anymore. Can only be called by the current owner. NOTE: Renouncing ownership will leave the contract without an owner, thereby removing any functionality that is only available to the owner."
      },
      "transferOwnership(address)": {
        "details": "Transfers ownership of the contract to a new account (`newOwner`). Can only be called by the current owner."
      }
    },
    "version": 1
  },
  "userdoc": {
    "kind": "user",
    "methods": {},
    "version": 1
  }
}