{
  "contractName": "RaffleWrapTest",
  "abi": [
    {
      "inputs": [
        {
          "internalType": "address",
          "name": "_stakerAddress",
          "type": "address"
        },
        {
          "internalType": "address",
          "name": "_nativeTokenAddress",
          "type": "address"
        },
        {
          "internalType": "address",
          "name": "_idoTokenAddress",
          "type": "address"
        },
        {
          "internalType": "uint256",
          "name": "_idoAmount",
          "type": "uint256"
        },
        {
          "internalType": "uint256",
          "name": "_price",
          "type": "uint256"
        }
      ],
      "stateMutability": "nonpayable",
      "type": "constructor"
    },
    {
      "anonymous": false,
      "inputs": [
        {
          "indexed": true,
          "internalType": "address",
          "name": "previousOwner",
          "type": "address"
        },
        {
          "indexed": true,
          "internalType": "address",
          "name": "newOwner",
          "type": "address"
        }
      ],
      "name": "OwnershipTransferred",
      "type": "event"
    },
    {
      "anonymous": false,
      "inputs": [
        {
          "indexed": true,
          "internalType": "address",
          "name": "",
          "type": "address"
        },
        {
          "indexed": false,
          "internalType": "uint256",
          "name": "tokens",
          "type": "uint256"
        },
        {
          "indexed": false,
          "internalType": "uint256",
          "name": "price",
          "type": "uint256"
        }
      ],
      "name": "Purchase",
      "type": "event"
    },
    {
      "anonymous": false,
      "inputs": [
        {
          "indexed": true,
          "internalType": "address",
          "name": "account",
          "type": "address"
        },
        {
          "indexed": false,
          "internalType": "uint256",
          "name": "poolNo",
          "type": "uint256"
        }
      ],
      "name": "Registration",
      "type": "event"
    },
    {
      "inputs": [
        {
          "internalType": "address",
          "name": "",
          "type": "address"
        }
      ],
      "name": "addressToTicketCount",
      "outputs": [
        {
          "internalType": "uint256",
          "name": "",
          "type": "uint256"
        }
      ],
      "stateMutability": "view",
      "type": "function"
    },
    {
      "inputs": [
        {
          "internalType": "address",
          "name": "",
          "type": "address"
        },
        {
          "internalType": "uint256",
          "name": "",
          "type": "uint256"
        }
      ],
      "name": "addressToTicketsOwned",
      "outputs": [
        {
          "internalType": "uint256",
          "name": "",
          "type": "uint256"
        }
      ],
      "stateMutability": "view",
      "type": "function"
    },
    {
      "inputs": [
        {
          "internalType": "address",
          "name": "account",
          "type": "address"
        }
      ],
      "name": "allocationByAddress",
      "outputs": [
        {
          "internalType": "uint256",
          "name": "tokens",
          "type": "uint256"
        },
        {
          "internalType": "uint256",
          "name": "price",
          "type": "uint256"
        }
      ],
      "stateMutability": "view",
      "type": "function"
    },
    {
      "inputs": [],
      "name": "buyNow",
      "outputs": [],
      "stateMutability": "payable",
      "type": "function"
    },
    {
      "inputs": [],
      "name": "fcfsDuration",
      "outputs": [
        {
          "internalType": "uint256",
          "name": "",
          "type": "uint256"
        }
      ],
      "stateMutability": "view",
      "type": "function"
    },
    {
      "inputs": [],
      "name": "fcfsStarts",
      "outputs": [
        {
          "internalType": "uint256",
          "name": "",
          "type": "uint256"
        }
      ],
      "stateMutability": "view",
      "type": "function"
    },
    {
      "inputs": [
        {
          "internalType": "address",
          "name": "account",
          "type": "address"
        }
      ],
      "name": "getPoolNo",
      "outputs": [
        {
          "internalType": "uint256",
          "name": "",
          "type": "uint256"
        }
      ],
      "stateMutability": "view",
      "type": "function"
    },
    {
      "inputs": [
        {
          "internalType": "address",
          "name": "account",
          "type": "address"
        }
      ],
      "name": "getRegistrationStatus",
      "outputs": [
        {
          "internalType": "bool",
          "name": "",
          "type": "bool"
        }
      ],
      "stateMutability": "view",
      "type": "function"
    },
    {
      "inputs": [],
      "name": "idoToken",
      "outputs": [
        {
          "internalType": "contract IERC20Metadata",
          "name": "",
          "type": "address"
        }
      ],
      "stateMutability": "view",
      "type": "function"
    },
    {
      "inputs": [],
      "name": "idoTokenSum",
      "outputs": [
        {
          "internalType": "uint256",
          "name": "",
          "type": "uint256"
        }
      ],
      "stateMutability": "view",
      "type": "function"
    },
    {
      "inputs": [],
      "name": "idoTotalPrice",
      "outputs": [
        {
          "internalType": "uint256",
          "name": "",
          "type": "uint256"
        }
      ],
      "stateMutability": "view",
      "type": "function"
    },
    {
      "inputs": [],
      "name": "isFulfilled",
      "outputs": [
        {
          "internalType": "bool",
          "name": "",
          "type": "bool"
        }
      ],
      "stateMutability": "view",
      "type": "function"
    },
    {
      "inputs": [],
      "name": "isInitialized",
      "outputs": [
        {
          "internalType": "bool",
          "name": "",
          "type": "bool"
        }
      ],
      "stateMutability": "view",
      "type": "function"
    },
    {
      "inputs": [],
      "name": "lockDuration",
      "outputs": [
        {
          "internalType": "uint256",
          "name": "",
          "type": "uint256"
        }
      ],
      "stateMutability": "view",
      "type": "function"
    },
    {
      "inputs": [],
      "name": "nativeToken",
      "outputs": [
        {
          "internalType": "contract IERC20Metadata",
          "name": "",
          "type": "address"
        }
      ],
      "stateMutability": "view",
      "type": "function"
    },
    {
      "inputs": [],
      "name": "noOfParticipants",
      "outputs": [
        {
          "internalType": "uint256",
          "name": "",
          "type": "uint256"
        }
      ],
      "stateMutability": "view",
      "type": "function"
    },
    {
      "inputs": [],
      "name": "owner",
      "outputs": [
        {
          "internalType": "address",
          "name": "",
          "type": "address"
        }
      ],
      "stateMutability": "view",
      "type": "function"
    },
    {
      "inputs": [
        {
          "internalType": "uint256",
          "name": "",
          "type": "uint256"
        }
      ],
      "name": "participantList",
      "outputs": [
        {
          "internalType": "address",
          "name": "",
          "type": "address"
        }
      ],
      "stateMutability": "view",
      "type": "function"
    },
    {
      "inputs": [
        {
          "internalType": "uint256",
          "name": "",
          "type": "uint256"
        }
      ],
      "name": "pools",
      "outputs": [
        {
          "internalType": "string",
          "name": "name",
          "type": "string"
        },
        {
          "internalType": "uint256",
          "name": "minNativeToken",
          "type": "uint256"
        },
        {
          "internalType": "uint256",
          "name": "weight",
          "type": "uint256"
        },
        {
          "internalType": "uint256",
          "name": "participants",
          "type": "uint256"
        }
      ],
      "stateMutability": "view",
      "type": "function"
    },
    {
      "inputs": [],
      "name": "randomResult",
      "outputs": [
        {
          "internalType": "uint256",
          "name": "",
          "type": "uint256"
        }
      ],
      "stateMutability": "view",
      "type": "function"
    },
    {
      "inputs": [
        {
          "internalType": "bytes32",
          "name": "requestId",
          "type": "bytes32"
        },
        {
          "internalType": "uint256",
          "name": "randomness",
          "type": "uint256"
        }
      ],
      "name": "rawFulfillRandomness",
      "outputs": [],
      "stateMutability": "nonpayable",
      "type": "function"
    },
    {
      "inputs": [],
      "name": "regDuration",
      "outputs": [
        {
          "internalType": "uint256",
          "name": "",
          "type": "uint256"
        }
      ],
      "stateMutability": "view",
      "type": "function"
    },
    {
      "inputs": [],
      "name": "regStarts",
      "outputs": [
        {
          "internalType": "uint256",
          "name": "",
          "type": "uint256"
        }
      ],
      "stateMutability": "view",
      "type": "function"
    },
    {
      "inputs": [
        {
          "internalType": "uint256",
          "name": "_poolNo",
          "type": "uint256"
        }
      ],
      "name": "register",
      "outputs": [],
      "stateMutability": "nonpayable",
      "type": "function"
    },
    {
      "inputs": [],
      "name": "remainingIDOTokens",
      "outputs": [
        {
          "internalType": "uint256",
          "name": "",
          "type": "uint256"
        }
      ],
      "stateMutability": "view",
      "type": "function"
    },
    {
      "inputs": [],
      "name": "renounceOwnership",
      "outputs": [],
      "stateMutability": "nonpayable",
      "type": "function"
    },
    {
      "inputs": [],
      "name": "reqId",
      "outputs": [
        {
          "internalType": "bytes32",
          "name": "",
          "type": "bytes32"
        }
      ],
      "stateMutability": "view",
      "type": "function"
    },
    {
      "inputs": [],
      "name": "saleDuration",
      "outputs": [
        {
          "internalType": "uint256",
          "name": "",
          "type": "uint256"
        }
      ],
      "stateMutability": "view",
      "type": "function"
    },
    {
      "inputs": [],
      "name": "saleStarts",
      "outputs": [
        {
          "internalType": "uint256",
          "name": "",
          "type": "uint256"
        }
      ],
      "stateMutability": "view",
      "type": "function"
    },
    {
      "inputs": [],
      "name": "saleStartsAfter",
      "outputs": [
        {
          "internalType": "uint256",
          "name": "",
          "type": "uint256"
        }
      ],
      "stateMutability": "view",
      "type": "function"
    },
    {
      "inputs": [],
      "name": "staker",
      "outputs": [
        {
          "internalType": "contract Staker",
          "name": "",
          "type": "address"
        }
      ],
      "stateMutability": "view",
      "type": "function"
    },
    {
      "inputs": [],
      "name": "ticketPrice",
      "outputs": [
        {
          "internalType": "uint256",
          "name": "",
          "type": "uint256"
        }
      ],
      "stateMutability": "view",
      "type": "function"
    },
    {
      "inputs": [
        {
          "internalType": "uint256",
          "name": "",
          "type": "uint256"
        }
      ],
      "name": "ticketToOwner",
      "outputs": [
        {
          "internalType": "address",
          "name": "",
          "type": "address"
        }
      ],
      "stateMutability": "view",
      "type": "function"
    },
    {
      "inputs": [],
      "name": "ticketsSold",
      "outputs": [
        {
          "internalType": "uint256",
          "name": "",
          "type": "uint256"
        }
      ],
      "stateMutability": "view",
      "type": "function"
    },
    {
      "inputs": [
        {
          "internalType": "uint256",
          "name": "_poolNo",
          "type": "uint256"
        }
      ],
      "name": "tokensAndPriceByPoolNo",
      "outputs": [
        {
          "internalType": "uint256",
          "name": "",
          "type": "uint256"
        },
        {
          "internalType": "uint256",
          "name": "",
          "type": "uint256"
        }
      ],
      "stateMutability": "view",
      "type": "function"
    },
    {
      "inputs": [],
      "name": "totalPoolShares",
      "outputs": [
        {
          "internalType": "uint256",
          "name": "",
          "type": "uint256"
        }
      ],
      "stateMutability": "view",
      "type": "function"
    },
    {
      "inputs": [
        {
          "internalType": "address",
          "name": "newOwner",
          "type": "address"
        }
      ],
      "name": "transferOwnership",
      "outputs": [],
      "stateMutability": "nonpayable",
      "type": "function"
    },
    {
      "inputs": [],
      "name": "unit",
      "outputs": [
        {
          "internalType": "uint256",
          "name": "",
          "type": "uint256"
        }
      ],
      "stateMutability": "view",
      "type": "function"
    },
    {
      "inputs": [
        {
          "internalType": "address",
          "name": "",
          "type": "address"
        }
      ],
      "name": "userlog",
      "outputs": [
        {
          "internalType": "bool",
          "name": "isRegistered",
          "type": "bool"
        },
        {
          "internalType": "uint256",
          "name": "registeredPool",
          "type": "uint256"
        },
        {
          "internalType": "bool",
          "name": "purchased",
          "type": "bool"
        }
      ],
      "stateMutability": "view",
      "type": "function"
    },
    {
      "inputs": [
        {
          "internalType": "uint256",
          "name": "_noOfTickets",
          "type": "uint256"
        }
      ],
      "name": "buyTickets",
      "outputs": [],
      "stateMutability": "nonpayable",
      "type": "function"
    },
    {
      "inputs": [],
      "name": "genRandom",
      "outputs": [],
      "stateMutability": "nonpayable",
      "type": "function"
    },
    {
      "inputs": [
        {
          "internalType": "bytes32",
          "name": "requestId",
          "type": "bytes32"
        },
        {
          "internalType": "uint256",
          "name": "randomness",
          "type": "uint256"
        }
      ],
      "name": "fulfillTest",
      "outputs": [],
      "stateMutability": "nonpayable",
      "type": "function"
    }
  ],
  "bytecode": "0x60c06040526000601560016101000a81548160ff0219169083151502179055506729a2241af62c0000601a553480156200003857600080fd5b5060405162004cef38038062004cef83398181016040528101906200005e91906200099c565b738c7382f9d8f56b33781fe506e897a4f1e2d1725573326c977e6efc84e512bb9c30f76e30c160ed06fb868686868660006200009f6200089f60201b60201c565b9050806000806101000a81548173ffffffffffffffffffffffffffffffffffffffff021916908373ffffffffffffffffffffffffffffffffffffffff1602179055508073ffffffffffffffffffffffffffffffffffffffff16600073ffffffffffffffffffffffffffffffffffffffff167f8be0079c531659141344cd1fd0a4f28419497f9722a3daafe3b4186f6b6457e060405160405180910390a3506001808190555084600260006101000a81548173ffffffffffffffffffffffffffffffffffffffff021916908373ffffffffffffffffffffffffffffffffffffffff16021790555083600360006101000a81548173ffffffffffffffffffffffffffffffffffffffff021916908373ffffffffffffffffffffffffffffffffffffffff16021790555082600460006101000a81548173ffffffffffffffffffffffffffffffffffffffff021916908373ffffffffffffffffffffffffffffffffffffffff16021790555081600581905550806006819055506005546008819055506000600360009054906101000a900473ffffffffffffffffffffffffffffffffffffffff1673ffffffffffffffffffffffffffffffffffffffff1663313ce5676040518163ffffffff1660e01b815260040160206040518083038186803b1580156200028957600080fd5b505afa1580156200029e573d6000803e3d6000fd5b505050506040513d601f19601f82011682018060405250810190620002c4919062000a1e565b60ff169050600f60405180608001604052806040518060400160405280600481526020017f4e756c6c00000000000000000000000000000000000000000000000000000000815250815260200160008152602001600081526020016000815250908060018154018082558091505060019003906000526020600020906004020160009091909190915060008201518160000190805190602001906200036b929190620008a7565b506020820151816001015560408201518160020155606082015181600301555050600f60405180608001604052806040518060400160405280600681526020017f4b6e696768740000000000000000000000000000000000000000000000000000815250815260200183600a620003e3919062000aa5565b6103e8620003f2919062000be2565b8152602001600181526020016000815250908060018154018082558091505060019003906000526020600020906004020160009091909190915060008201518160000190805190602001906200044a929190620008a7565b506020820151816001015560408201518160020155606082015181600301555050600f60405180608001604052806040518060400160405280600681526020017f426973686f700000000000000000000000000000000000000000000000000000815250815260200183600a620004c2919062000aa5565b6105dc620004d1919062000be2565b81526020016004815260200160008152509080600181540180825580915050600190039060005260206000209060040201600090919091909150600082015181600001908051906020019062000529929190620008a7565b506020820151816001015560408201518160020155606082015181600301555050600f60405180608001604052806040518060400160405280600481526020017f526f6f6b00000000000000000000000000000000000000000000000000000000815250815260200183600a620005a1919062000aa5565b610bb8620005b0919062000be2565b81526020016008815260200160008152509080600181540180825580915050600190039060005260206000209060040201600090919091909150600082015181600001908051906020019062000608929190620008a7565b506020820151816001015560408201518160020155606082015181600301555050600f60405180608001604052806040518060400160405280600481526020017f4b696e6700000000000000000000000000000000000000000000000000000000815250815260200183600a62000680919062000aa5565b6117706200068f919062000be2565b815260200160108152602001600081525090806001815401808255809150506001900390600052602060002090600402016000909190919091506000820151816000019080519060200190620006e7929190620008a7565b506020820151816001015560408201518160020155606082015181600301555050600f60405180608001604052806040518060400160405280600581526020017f517565656e000000000000000000000000000000000000000000000000000000815250815260200183600a6200075f919062000aa5565b6123286200076e919062000be2565b815260200160158152602001600081525090806001815401808255809150506001900390600052602060002090600402016000909190919091506000820151816000019080519060200190620007c6929190620008a7565b5060208201518160010155604082015181600201556060820151816003015550505050505050508173ffffffffffffffffffffffffffffffffffffffff1660a08173ffffffffffffffffffffffffffffffffffffffff1660601b815250508073ffffffffffffffffffffffffffffffffffffffff1660808173ffffffffffffffffffffffffffffffffffffffff1660601b8152505050507f6e75b569a01ef56d18cab6a8e71e6600d6ce853834d4a5748b720d06f878b3a460001b601181905550655af3107a4000601281905550505050505062000d7d565b600033905090565b828054620008b59062000c8e565b90600052602060002090601f016020900481019282620008d9576000855562000925565b82601f10620008f457805160ff191683800117855562000925565b8280016001018555821562000925579182015b828111156200092457825182559160200191906001019062000907565b5b50905062000934919062000938565b5090565b5b808211156200095357600081600090555060010162000939565b5090565b600081519050620009688162000d2f565b92915050565b6000815190506200097f8162000d49565b92915050565b600081519050620009968162000d63565b92915050565b600080600080600060a08688031215620009b557600080fd5b6000620009c58882890162000957565b9550506020620009d88882890162000957565b9450506040620009eb8882890162000957565b9350506060620009fe888289016200096e565b925050608062000a11888289016200096e565b9150509295509295909350565b60006020828403121562000a3157600080fd5b600062000a418482850162000985565b91505092915050565b6000808291508390505b600185111562000a9c5780860481111562000a745762000a7362000cc4565b5b600185161562000a845780820291505b808102905062000a948562000d22565b945062000a54565b94509492505050565b600062000ab28262000c77565b915062000abf8362000c77565b925062000aee7fffffffffffffffffffffffffffffffffffffffffffffffffffffffffffffffff848462000af6565b905092915050565b60008262000b08576001905062000bdb565b8162000b18576000905062000bdb565b816001811462000b31576002811462000b3c5762000b72565b600191505062000bdb565b60ff84111562000b515762000b5062000cc4565b5b8360020a91508482111562000b6b5762000b6a62000cc4565b5b5062000bdb565b5060208310610133831016604e8410600b841016171562000bac5782820a90508381111562000ba65762000ba562000cc4565b5b62000bdb565b62000bbb848484600162000a4a565b9250905081840481111562000bd55762000bd462000cc4565b5b81810290505b9392505050565b600062000bef8262000c77565b915062000bfc8362000c77565b9250817fffffffffffffffffffffffffffffffffffffffffffffffffffffffffffffffff048311821515161562000c385762000c3762000cc4565b5b828202905092915050565b600062000c508262000c57565b9050919050565b600073ffffffffffffffffffffffffffffffffffffffff82169050919050565b6000819050919050565b600060ff82169050919050565b6000600282049050600182168062000ca757607f821691505b6020821081141562000cbe5762000cbd62000cf3565b5b50919050565b7f4e487b7100000000000000000000000000000000000000000000000000000000600052601160045260246000fd5b7f4e487b7100000000000000000000000000000000000000000000000000000000600052602260045260246000fd5b60008160011c9050919050565b62000d3a8162000c43565b811462000d4657600080fd5b50565b62000d548162000c77565b811462000d6057600080fd5b50565b62000d6e8162000c81565b811462000d7a57600080fd5b50565b60805160601c60a05160601c613f3862000db76000396000818161140f01526125700152600081816121f001526125340152613f386000f3fe6080604052600436106102515760003560e01c80638997ce4e11610139578063a8af4ff5116100b6578063e1758bd81161007a578063e1758bd8146108ce578063e76eda86146108f9578063efad76da14610924578063f207564e1461094f578063f2fde38b14610978578063f3f40af2146109a157610251565b8063a8af4ff5146107d2578063ac4afa381461080f578063b6ba81141461084f578063d0f4b4471461087a578063d6cd82bc146108a357610251565b806394985ddd116100fd57806394985ddd1461070c5780639c3962f0146107355780639e6e9d0f1461073f578063a158226d1461077c578063a25dd130146107a757610251565b80638997ce4e146106225780638da5cb5b1461064d5780638f15024f146106785780638f666ecf146106a3578063907af6c0146106e157610251565b80633d7faab9116101d25780635ebaf1db116101965780635ebaf1db1461053657806366a30cb614610561578063692d98d0146105785780636d0a67de146105a3578063715018a6146105ce5780637acaea9b146105e557610251565b80633d7faab9146104265780633f46ce721461045157806342619f661461048f57806345a28e06146104ba57806351622cd0146104f957610251565b80632b08e824116102195780632b08e8241461033f5780632f3666371461037c5780633711d9fb146103a5578063385a9c37146103d0578063392e53cd146103fb57610251565b8063045544431461025657806308726296146102815780630e6fdaa1146102ac5780631209b1f6146102e9578063196f253214610314575b600080fd5b34801561026257600080fd5b5061026b6109cc565b604051610278919061392e565b60405180910390f35b34801561028d57600080fd5b506102966109de565b6040516102a3919061392e565b60405180910390f35b3480156102b857600080fd5b506102d360048036038101906102ce9190612cbc565b6109eb565b6040516102e09190613458565b60405180910390f35b3480156102f557600080fd5b506102fe610a2a565b60405161030b919061392e565b60405180910390f35b34801561032057600080fd5b50610329610a30565b604051610336919061392e565b60405180910390f35b34801561034b57600080fd5b5061036660048036038101906103619190612cbc565b610a36565b6040516103739190613458565b60405180910390f35b34801561038857600080fd5b506103a3600480360381019061039e9190612cbc565b610a69565b005b3480156103b157600080fd5b506103ba610dd7565b6040516103c7919061392e565b60405180910390f35b3480156103dc57600080fd5b506103e5610de9565b6040516103f29190613511565b60405180910390f35b34801561040757600080fd5b50610410610e00565b60405161041d9190613511565b60405180910390f35b34801561043257600080fd5b5061043b610e13565b604051610448919061392e565b60405180910390f35b34801561045d57600080fd5b5061047860048036038101906104739190612bf2565b610e25565b604051610486929190613949565b60405180910390f35b34801561049b57600080fd5b506104a4610eae565b6040516104b1919061392e565b60405180910390f35b3480156104c657600080fd5b506104e160048036038101906104dc9190612bf2565b610eb4565b6040516104f09392919061352c565b60405180910390f35b34801561050557600080fd5b50610520600480360381019061051b9190612bf2565b610ef8565b60405161052d919061392e565b60405180910390f35b34801561054257600080fd5b5061054b610f10565b6040516105589190613607565b60405180910390f35b34801561056d57600080fd5b50610576610f36565b005b34801561058457600080fd5b5061058d6110d4565b60405161059a919061392e565b60405180910390f35b3480156105af57600080fd5b506105b86110da565b6040516105c5919061392e565b60405180910390f35b3480156105da57600080fd5b506105e36110e0565b005b3480156105f157600080fd5b5061060c60048036038101906106079190612c1b565b61121a565b604051610619919061392e565b60405180910390f35b34801561062e57600080fd5b5061063761124b565b6040516106449190613563565b60405180910390f35b34801561065957600080fd5b50610662611251565b60405161066f9190613458565b60405180910390f35b34801561068457600080fd5b5061068d61127a565b60405161069a919061392e565b60405180910390f35b3480156106af57600080fd5b506106ca60048036038101906106c59190612cbc565b611280565b6040516106d8929190613949565b60405180910390f35b3480156106ed57600080fd5b506106f6611407565b604051610703919061392e565b60405180910390f35b34801561071857600080fd5b50610733600480360381019061072e9190612c80565b61140d565b005b61073d6114a9565b005b34801561074b57600080fd5b5061076660048036038101906107619190612bf2565b611907565b604051610773919061392e565b60405180910390f35b34801561078857600080fd5b50610791611953565b60405161079e919061392e565b60405180910390f35b3480156107b357600080fd5b506107bc611959565b6040516107c9919061392e565b60405180910390f35b3480156107de57600080fd5b506107f960048036038101906107f49190612bf2565b61196b565b6040516108069190613511565b60405180910390f35b34801561081b57600080fd5b5061083660048036038101906108319190612cbc565b6119c4565b6040516108469493929190613622565b60405180910390f35b34801561085b57600080fd5b50610864611a8c565b604051610871919061392e565b60405180910390f35b34801561088657600080fd5b506108a1600480360381019061089c9190612c80565b611a92565b005b3480156108af57600080fd5b506108b8611bae565b6040516108c591906135ec565b60405180910390f35b3480156108da57600080fd5b506108e3611bd4565b6040516108f091906135ec565b60405180910390f35b34801561090557600080fd5b5061090e611bfa565b60405161091b919061392e565b60405180910390f35b34801561093057600080fd5b50610939611c25565b604051610946919061392e565b60405180910390f35b34801561095b57600080fd5b5061097660048036038101906109719190612cbc565b611c2b565b005b34801561098457600080fd5b5061099f600480360381019061099a9190612bf2565b612032565b005b3480156109ad57600080fd5b506109b66121db565b6040516109c3919061392e565b60405180910390f35b610e1060a86109db9190613ba2565b81565b6000600d80549050905090565b600d81815481106109fb57600080fd5b906000526020600020016000915054906101000a900473ffffffffffffffffffffffffffffffffffffffff1681565b601a5481565b60085481565b60176020528060005260406000206000915054906101000a900473ffffffffffffffffffffffffffffffffffffffff1681565b426009541115610aae576040517f08c379a0000000000000000000000000000000000000000000000000000000008152600401610aa5906137ee565b60405180910390fd5b42610e106078610abe9190613ba2565b600954610acb91906139aa565b1015610b0c576040517f08c379a0000000000000000000000000000000000000000000000000000000008152600401610b039061382e565b60405180910390fd5b60026001541415610b52576040517f08c379a0000000000000000000000000000000000000000000000000000000008152600401610b49906138ee565b60405180910390fd5b6002600181905550610b633361196b565b15610ba3576040517f08c379a0000000000000000000000000000000000000000000000000000000008152600401610b9a9061368e565b60405180910390fd5b60006016549050600360009054906101000a900473ffffffffffffffffffffffffffffffffffffffff1673ffffffffffffffffffffffffffffffffffffffff166323b872dd33610bf1611251565b601a5486610bff9190613ba2565b6040518463ffffffff1660e01b8152600401610c1d93929190613473565b602060405180830381600087803b158015610c3757600080fd5b505af1158015610c4b573d6000803e3d6000fd5b505050506040513d601f19601f82011682018060405250810190610c6f9190612c57565b5060005b82811015610d5c5733601760008385610c8c91906139aa565b815260200190815260200160002060006101000a81548173ffffffffffffffffffffffffffffffffffffffff021916908373ffffffffffffffffffffffffffffffffffffffff160217905550601960003373ffffffffffffffffffffffffffffffffffffffff1673ffffffffffffffffffffffffffffffffffffffff1681526020019081526020016000208183610d2391906139aa565b90806001815401808255809150506001900390600052602060002001600090919091909150558080610d5490613d3c565b915050610c73565b5081601860003373ffffffffffffffffffffffffffffffffffffffff1673ffffffffffffffffffffffffffffffffffffffff1681526020019081526020016000206000828254610dac91906139aa565b925050819055508160166000828254610dc591906139aa565b92505081905550506001808190555050565b610e106018610de69190613ba2565b81565b6000601560019054906101000a900460ff16905090565b600e60009054906101000a900460ff1681565b610e106018610e229190613ba2565b81565b600080610e73600c60008573ffffffffffffffffffffffffffffffffffffffff1673ffffffffffffffffffffffffffffffffffffffff16815260200190815260200160002060010154611280565b8092508193505050600080610e87856121e1565b915091508184610e9791906139aa565b93508083610ea591906139aa565b92505050915091565b60145481565b600c6020528060005260406000206000915090508060000160009054906101000a900460ff16908060010154908060020160009054906101000a900460ff16905083565b60186020528060005260406000206000915090505481565b600260009054906101000a900473ffffffffffffffffffffffffffffffffffffffff1681565b601560009054906101000a900460ff1615610f86576040517f08c379a0000000000000000000000000000000000000000000000000000000008152600401610f7d906136ee565b60405180910390fd5b6001601560006101000a81548160ff02191690831515021790555042610e106078610fb19190613ba2565b600954610fbe91906139aa565b1115610fff576040517f08c379a0000000000000000000000000000000000000000000000000000000008152600401610ff6906137ce565b60405180910390fd5b42600a541015611044576040517f08c379a000000000000000000000000000000000000000000000000000000000815260040161103b9061370e565b60405180910390fd5b6002600154141561108a576040517f08c379a0000000000000000000000000000000000000000000000000000000008152600401611081906138ee565b60405180910390fd5b60026001819055506000336040516020016110a59190613411565b6040516020818303038152906040528051906020012060001c90506110c9816121e9565b505060018081905550565b600b5481565b60075481565b6110e86122ee565b73ffffffffffffffffffffffffffffffffffffffff16611106611251565b73ffffffffffffffffffffffffffffffffffffffff161461115c576040517f08c379a00000000000000000000000000000000000000000000000000000000081526004016111539061380e565b60405180910390fd5b600073ffffffffffffffffffffffffffffffffffffffff1660008054906101000a900473ffffffffffffffffffffffffffffffffffffffff1673ffffffffffffffffffffffffffffffffffffffff167f8be0079c531659141344cd1fd0a4f28419497f9722a3daafe3b4186f6b6457e060405160405180910390a360008060006101000a81548173ffffffffffffffffffffffffffffffffffffffff021916908373ffffffffffffffffffffffffffffffffffffffff160217905550565b6019602052816000526040600020818154811061123657600080fd5b90600052602060002001600091509150505481565b60135481565b60008060009054906101000a900473ffffffffffffffffffffffffffffffffffffffff16905090565b60165481565b6000806000600f84815481106112bf577f4e487b7100000000000000000000000000000000000000000000000000000000600052603260045260246000fd5b90600052602060002090600402016040518060800160405290816000820180546112e890613d0a565b80601f016020809104026020016040519081016040528092919081815260200182805461131490613d0a565b80156113615780601f1061133657610100808354040283529160200191611361565b820191906000526020600020905b81548152906001019060200180831161134457829003601f168201915b505050505081526020016001820154815260200160028201548152602001600382015481525050905060008160400151905060008514806113a6575060008260600151145b156113b957600080935093505050611402565b6000600754826005546113cc9190613ba2565b6113d69190613a00565b90506000600754836006546113eb9190613ba2565b6113f59190613a00565b9050818195509550505050505b915091565b610e1081565b7f000000000000000000000000000000000000000000000000000000000000000073ffffffffffffffffffffffffffffffffffffffff163373ffffffffffffffffffffffffffffffffffffffff161461149b576040517f08c379a00000000000000000000000000000000000000000000000000000000081526004016114929061384e565b60405180910390fd5b6114a582826122f6565b5050565b6000429050600e60009054906101000a900460ff166114fd576040517f08c379a00000000000000000000000000000000000000000000000000000000081526004016114f49061390e565b60405180910390fd5b600c60003373ffffffffffffffffffffffffffffffffffffffff1673ffffffffffffffffffffffffffffffffffffffff16815260200190815260200160002060000160009054906101000a900460ff1661158c576040517f08c379a0000000000000000000000000000000000000000000000000000000008152600401611583906136ae565b60405180910390fd5b600c60003373ffffffffffffffffffffffffffffffffffffffff1673ffffffffffffffffffffffffffffffffffffffff16815260200190815260200160002060020160009054906101000a900460ff161561161c576040517f08c379a00000000000000000000000000000000000000000000000000000000081526004016116139061378e565b60405180910390fd5b80600a54111580156116495750610e1060186116389190613ba2565b600a5461164591906139aa565b8111155b611688576040517f08c379a000000000000000000000000000000000000000000000000000000000815260040161167f906138ce565b60405180910390fd5b600260015414156116ce576040517f08c379a00000000000000000000000000000000000000000000000000000000081526004016116c5906138ee565b60405180910390fd5b60026001819055506000600c60003373ffffffffffffffffffffffffffffffffffffffff1673ffffffffffffffffffffffffffffffffffffffff168152602001908152602001600020905060008061172533610e25565b915091506000811415801561173b575060008214155b61177a576040517f08c379a00000000000000000000000000000000000000000000000000000000081526004016117719061386e565b60405180910390fd5b3481146117bc576040517f08c379a00000000000000000000000000000000000000000000000000000000081526004016117b39061366e565b60405180910390fd5b60018360020160006101000a81548160ff02191690831515021790555081600860008282546117eb9190613bfc565b92505081905550600460009054906101000a900473ffffffffffffffffffffffffffffffffffffffff1673ffffffffffffffffffffffffffffffffffffffff1663a9059cbb33846040518363ffffffff1660e01b815260040161184f9291906134aa565b602060405180830381600087803b15801561186957600080fd5b505af115801561187d573d6000803e3d6000fd5b505050506040513d601f19601f820116820180604052508101906118a19190612c57565b506118aa612310565b3373ffffffffffffffffffffffffffffffffffffffff167f12cb4648cf3058b17ceeb33e579f8b0bc269fe0843f3900b8e24b6c54871703c83836040516118f2929190613949565b60405180910390a25050506001808190555050565b6000600c60008373ffffffffffffffffffffffffffffffffffffffff1673ffffffffffffffffffffffffffffffffffffffff168152602001908152602001600020600101549050919050565b60095481565b610e1060786119689190613ba2565b81565b6000600c60008373ffffffffffffffffffffffffffffffffffffffff1673ffffffffffffffffffffffffffffffffffffffff16815260200190815260200160002060000160009054906101000a900460ff169050919050565b600f81815481106119d457600080fd5b90600052602060002090600402016000915090508060000180546119f790613d0a565b80601f0160208091040260200160405190810160405280929190818152602001828054611a2390613d0a565b8015611a705780601f10611a4557610100808354040283529160200191611a70565b820191906000526020600020905b815481529060010190602001808311611a5357829003601f168201915b5050505050908060010154908060020154908060030154905084565b60055481565b601560009054906101000a900460ff1615611ae2576040517f08c379a0000000000000000000000000000000000000000000000000000000008152600401611ad9906136ee565b60405180910390fd5b6001601560006101000a81548160ff02191690831515021790555042610e106078611b0d9190613ba2565b600954611b1a91906139aa565b1115611b5b576040517f08c379a0000000000000000000000000000000000000000000000000000000008152600401611b52906137ce565b60405180910390fd5b42600a541015611ba0576040517f08c379a0000000000000000000000000000000000000000000000000000000008152600401611b979061370e565b60405180910390fd5b611baa82826122f6565b5050565b600460009054906101000a900473ffffffffffffffffffffffffffffffffffffffff1681565b600360009054906101000a900473ffffffffffffffffffffffffffffffffffffffff1681565b610e106018611c099190613ba2565b610e106078611c189190613ba2565b611c2291906139aa565b81565b60065481565b6000429050600e60009054906101000a900460ff16611c7f576040517f08c379a0000000000000000000000000000000000000000000000000000000008152600401611c769061390e565b60405180910390fd5b600c60003373ffffffffffffffffffffffffffffffffffffffff1673ffffffffffffffffffffffffffffffffffffffff16815260200190815260200160002060000160009054906101000a900460ff1615611d0f576040517f08c379a0000000000000000000000000000000000000000000000000000000008152600401611d069061372e565b60405180910390fd5b8060095411158015611d3c5750610e106078611d2b9190613ba2565b600954611d3891906139aa565b8111155b611d7b576040517f08c379a0000000000000000000000000000000000000000000000000000000008152600401611d72906138ae565b60405180910390fd5b8180600111158015611d8e575060058111155b611dcd576040517f08c379a0000000000000000000000000000000000000000000000000000000008152600401611dc49061374e565b60405180910390fd5b6000600260009054906101000a900473ffffffffffffffffffffffffffffffffffffffff1673ffffffffffffffffffffffffffffffffffffffff166360217267336040518263ffffffff1660e01b8152600401611e2a9190613458565b60206040518083038186803b158015611e4257600080fd5b505afa158015611e56573d6000803e3d6000fd5b505050506040513d601f19601f82011682018060405250810190611e7a9190612ce5565b905080600f8381548110611eb7577f4e487b7100000000000000000000000000000000000000000000000000000000600052603260045260246000fd5b9060005260206000209060040201600101541115611f0a576040517f08c379a0000000000000000000000000000000000000000000000000000000008152600401611f01906137ae565b60405180910390fd5b60026001541415611f50576040517f08c379a0000000000000000000000000000000000000000000000000000000008152600401611f47906138ee565b60405180910390fd5b6002600181905550600260009054906101000a900473ffffffffffffffffffffffffffffffffffffffff1673ffffffffffffffffffffffffffffffffffffffff1663282d3fdf33610e1060a8611fa69190613ba2565b610e106018611fb59190613ba2565b600a54611fc291906139aa565b611fcc91906139aa565b6040518363ffffffff1660e01b8152600401611fe99291906134aa565b600060405180830381600087803b15801561200357600080fd5b505af1158015612017573d6000803e3d6000fd5b505050506120253385612312565b6001808190555050505050565b61203a6122ee565b73ffffffffffffffffffffffffffffffffffffffff16612058611251565b73ffffffffffffffffffffffffffffffffffffffff16146120ae576040517f08c379a00000000000000000000000000000000000000000000000000000000081526004016120a59061380e565b60405180910390fd5b600073ffffffffffffffffffffffffffffffffffffffff168173ffffffffffffffffffffffffffffffffffffffff16141561211e576040517f08c379a0000000000000000000000000000000000000000000000000000000008152600401612115906136ce565b60405180910390fd5b8073ffffffffffffffffffffffffffffffffffffffff1660008054906101000a900473ffffffffffffffffffffffffffffffffffffffff1673ffffffffffffffffffffffffffffffffffffffff167f8be0079c531659141344cd1fd0a4f28419497f9722a3daafe3b4186f6b6457e060405160405180910390a3806000806101000a81548173ffffffffffffffffffffffffffffffffffffffff021916908373ffffffffffffffffffffffffffffffffffffffff16021790555050565b600a5481565b600080915091565b60006012547f000000000000000000000000000000000000000000000000000000000000000073ffffffffffffffffffffffffffffffffffffffff166370a08231306040518263ffffffff1660e01b81526004016122479190613458565b60206040518083038186803b15801561225f57600080fd5b505afa158015612273573d6000803e3d6000fd5b505050506040513d601f19601f820116820180604052508101906122979190612ce5565b10156122d8576040517f08c379a00000000000000000000000000000000000000000000000000000000081526004016122cf9061376e565b60405180910390fd5b6122e760115460125484612530565b9050919050565b600033905090565b816013819055508060148190555061230c612691565b5050565b565b6001600c60008473ffffffffffffffffffffffffffffffffffffffff1673ffffffffffffffffffffffffffffffffffffffff16815260200190815260200160002060000160006101000a81548160ff02191690831515021790555080600c60008473ffffffffffffffffffffffffffffffffffffffff1673ffffffffffffffffffffffffffffffffffffffff168152602001908152602001600020600101819055506001600f82815481106123f0577f4e487b7100000000000000000000000000000000000000000000000000000000600052603260045260246000fd5b9060005260206000209060040201600301600082825461241091906139aa565b92505081905550600f8181548110612451577f4e487b7100000000000000000000000000000000000000000000000000000000600052603260045260246000fd5b9060005260206000209060040201600201546007600082825461247491906139aa565b92505081905550600d829080600181540180825580915050600190039060005260206000200160009091909190916101000a81548173ffffffffffffffffffffffffffffffffffffffff021916908373ffffffffffffffffffffffffffffffffffffffff1602179055503373ffffffffffffffffffffffffffffffffffffffff167ff6c60b059f60c86b2d612b237ac38bd87bc1f68f87600cd360d68351af1ca95f82604051612524919061392e565b60405180910390a25050565b60007f000000000000000000000000000000000000000000000000000000000000000073ffffffffffffffffffffffffffffffffffffffff16634000aea07f00000000000000000000000000000000000000000000000000000000000000008587866040516020016125a392919061357e565b6040516020818303038152906040526040518463ffffffff1660e01b81526004016125d0939291906134d3565b602060405180830381600087803b1580156125ea57600080fd5b505af11580156125fe573d6000803e3d6000fd5b505050506040513d601f19601f820116820180604052508101906126229190612c57565b506000612644858430601060008a8152602001908152602001600020546126b6565b90506001601060008781526020019081526020016000205461266691906139aa565b601060008781526020019081526020016000208190555061268785826126f2565b9150509392505050565b6001601560016101000a81548160ff0219169083151502179055506126b4612725565b565b6000848484846040516020016126cf94939291906135a7565b6040516020818303038152906040528051906020012060001c9050949350505050565b6000828260405160200161270792919061342c565b60405160208183030381529060405280519060200120905092915050565b600061272f6127b9565b905060005b81518110156127b5576000828281518110612778577f4e487b7100000000000000000000000000000000000000000000000000000000600052603260045260246000fd5b602002602001015190506000600290506127918261196b565b6127a05761279f8282612312565b5b505080806127ad90613d3c565b915050612734565b5050565b606060006127c860165461295e565b90508067ffffffffffffffff81111561280a577f4e487b7100000000000000000000000000000000000000000000000000000000600052604160045260246000fd5b6040519080825280602002602001820160405280156128385781602001602082028036833780820191505090505b509150600061284b600060165484612980565b905060005b8281101561295857600060176000848481518110612897577f4e487b7100000000000000000000000000000000000000000000000000000000600052603260045260246000fd5b6020026020010151815260200190815260200160002060009054906101000a900473ffffffffffffffffffffffffffffffffffffffff1690508085838151811061290a577f4e487b7100000000000000000000000000000000000000000000000000000000600052603260045260246000fd5b602002602001019073ffffffffffffffffffffffffffffffffffffffff16908173ffffffffffffffffffffffffffffffffffffffff168152505050808061295090613d3c565b915050612850565b50505090565b6000600160648361296f9190613a00565b61297991906139aa565b9050919050565b60608167ffffffffffffffff8111156129c2577f4e487b7100000000000000000000000000000000000000000000000000000000600052604160045260246000fd5b6040519080825280602002602001820160405280156129f05781602001602082028036833780820191505090505b5090506000601454905060008585612a089190613bfc565b905083811015612a4d576040517f08c379a0000000000000000000000000000000000000000000000000000000008152600401612a449061388e565b60405180910390fd5b600060fb905060005b85811015612b7e5760008884600285612a6f9190613a84565b87612a7a91906139aa565b612a849190613dbd565b612a8e91906139aa565b90506000805b600184612aa191906139aa565b811015612b0c57878181518110612ae1577f4e487b7100000000000000000000000000000000000000000000000000000000600052603260045260246000fd5b6020026020010151831415612af95760019150612b0c565b8080612b0490613d3c565b915050612a94565b5080612b685781878481518110612b4c577f4e487b7100000000000000000000000000000000000000000000000000000000600052603260045260246000fd5b602002602001018181525050600183612b6591906139aa565b92505b600184612b7591906139aa565b93505050612a56565b505050509392505050565b600081359050612b9881613ea6565b92915050565b600081519050612bad81613ebd565b92915050565b600081359050612bc281613ed4565b92915050565b600081359050612bd781613eeb565b92915050565b600081519050612bec81613eeb565b92915050565b600060208284031215612c0457600080fd5b6000612c1284828501612b89565b91505092915050565b60008060408385031215612c2e57600080fd5b6000612c3c85828601612b89565b9250506020612c4d85828601612bc8565b9150509250929050565b600060208284031215612c6957600080fd5b6000612c7784828501612b9e565b91505092915050565b60008060408385031215612c9357600080fd5b6000612ca185828601612bb3565b9250506020612cb285828601612bc8565b9150509250929050565b600060208284031215612cce57600080fd5b6000612cdc84828501612bc8565b91505092915050565b600060208284031215612cf757600080fd5b6000612d0584828501612bdd565b91505092915050565b612d1781613c30565b82525050565b612d2e612d2982613c30565b613d85565b82525050565b612d3d81613c42565b82525050565b612d4c81613c4e565b82525050565b612d63612d5e82613c4e565b613d97565b82525050565b6000612d7482613972565b612d7e8185613988565b9350612d8e818560208601613cd7565b612d9781613e7b565b840191505092915050565b612dab81613c8f565b82525050565b612dba81613cb3565b82525050565b6000612dcb8261397d565b612dd58185613999565b9350612de5818560208601613cd7565b612dee81613e7b565b840191505092915050565b6000612e06601483613999565b91507f4e6f742056616c69642045746820416d6f756e740000000000000000000000006000830152602082019050919050565b6000612e46601b83613999565b91507f416c72656164792050617274696369706174656420496e2049444f00000000006000830152602082019050919050565b6000612e86600e83613999565b91507f4e6f7420726567697374657265640000000000000000000000000000000000006000830152602082019050919050565b6000612ec6602683613999565b91507f4f776e61626c653a206e6577206f776e657220697320746865207a65726f206160008301527f64647265737300000000000000000000000000000000000000000000000000006020830152604082019050919050565b6000612f2c601683613999565b91507f416c72656164792047656e657261746564204f6e6365000000000000000000006000830152602082019050919050565b6000612f6c601383613999565b91507f526166666c653a204f7574204f662054696d65000000000000000000000000006000830152602082019050919050565b6000612fac601283613999565b91507f416c7265616479207265676973746572656400000000000000000000000000006000830152602082019050919050565b6000612fec600f83613999565b91507f696e76616c696420506f6f6c206e6f00000000000000000000000000000000006000830152602082019050919050565b600061302c602b83613999565b91507f4e6f7420656e6f756768204c494e4b202d2066696c6c20636f6e74726163742060008301527f77697468206661756365740000000000000000000000000000000000000000006020830152604082019050919050565b6000613092601183613999565b91507f416c7265616479205075726368617365640000000000000000000000000000006000830152602082019050919050565b60006130d2601d83613999565b91507f43616e277420506172746963697061746520696e2074686520506f6f6c0000006000830152602082019050919050565b6000613112602083613999565b91507f526166666c653a2050617274696369706174696f6e204469646e277420456e646000830152602082019050919050565b6000613152602283613999565b91507f526166666c653a2050617274696369706174696f6e204469646e27742042656760008301527f696e0000000000000000000000000000000000000000000000000000000000006020830152604082019050919050565b60006131b8602083613999565b91507f4f776e61626c653a2063616c6c6572206973206e6f7420746865206f776e65726000830152602082019050919050565b60006131f8601b83613999565b91507f526166666c653a2050617274696369706174696f6e20456e64656400000000006000830152602082019050919050565b6000613238601f83613999565b91507f4f6e6c7920565246436f6f7264696e61746f722063616e2066756c66696c6c006000830152602082019050919050565b6000613278601483613999565b91507f56616c7565732043616e2774204265205a65726f0000000000000000000000006000830152602082019050919050565b60006132b8600c83613999565b91507f496e76616c69642053697a6500000000000000000000000000000000000000006000830152602082019050919050565b60006132f8601a83613999565b91507f4e6f7420696e20526567697374726174696f6e20506572696f640000000000006000830152602082019050919050565b6000613338601283613999565b91507f4e6f7420696e2053616c6520506572696f6400000000000000000000000000006000830152602082019050919050565b6000613378601f83613999565b91507f5265656e7472616e637947756172643a207265656e7472616e742063616c6c006000830152602082019050919050565b60006133b8601383613999565b91507f4e6f7420496e697469616c697a656420596574000000000000000000000000006000830152602082019050919050565b6133f481613c78565b82525050565b61340b61340682613c78565b613db3565b82525050565b600061341d8284612d1d565b60148201915081905092915050565b60006134388285612d52565b60208201915061344882846133fa565b6020820191508190509392505050565b600060208201905061346d6000830184612d0e565b92915050565b60006060820190506134886000830186612d0e565b6134956020830185612d0e565b6134a260408301846133eb565b949350505050565b60006040820190506134bf6000830185612d0e565b6134cc60208301846133eb565b9392505050565b60006060820190506134e86000830186612d0e565b6134f560208301856133eb565b81810360408301526135078184612d69565b9050949350505050565b60006020820190506135266000830184612d34565b92915050565b60006060820190506135416000830186612d34565b61354e60208301856133eb565b61355b6040830184612d34565b949350505050565b60006020820190506135786000830184612d43565b92915050565b60006040820190506135936000830185612d43565b6135a060208301846133eb565b9392505050565b60006080820190506135bc6000830187612d43565b6135c960208301866133eb565b6135d66040830185612d0e565b6135e360608301846133eb565b95945050505050565b60006020820190506136016000830184612da2565b92915050565b600060208201905061361c6000830184612db1565b92915050565b6000608082019050818103600083015261363c8187612dc0565b905061364b60208301866133eb565b61365860408301856133eb565b61366560608301846133eb565b95945050505050565b6000602082019050818103600083015261368781612df9565b9050919050565b600060208201905081810360008301526136a781612e39565b9050919050565b600060208201905081810360008301526136c781612e79565b9050919050565b600060208201905081810360008301526136e781612eb9565b9050919050565b6000602082019050818103600083015261370781612f1f565b9050919050565b6000602082019050818103600083015261372781612f5f565b9050919050565b6000602082019050818103600083015261374781612f9f565b9050919050565b6000602082019050818103600083015261376781612fdf565b9050919050565b600060208201905081810360008301526137878161301f565b9050919050565b600060208201905081810360008301526137a781613085565b9050919050565b600060208201905081810360008301526137c7816130c5565b9050919050565b600060208201905081810360008301526137e781613105565b9050919050565b6000602082019050818103600083015261380781613145565b9050919050565b60006020820190508181036000830152613827816131ab565b9050919050565b60006020820190508181036000830152613847816131eb565b9050919050565b600060208201905081810360008301526138678161322b565b9050919050565b600060208201905081810360008301526138878161326b565b9050919050565b600060208201905081810360008301526138a7816132ab565b9050919050565b600060208201905081810360008301526138c7816132eb565b9050919050565b600060208201905081810360008301526138e78161332b565b9050919050565b600060208201905081810360008301526139078161336b565b9050919050565b60006020820190508181036000830152613927816133ab565b9050919050565b600060208201905061394360008301846133eb565b92915050565b600060408201905061395e60008301856133eb565b61396b60208301846133eb565b9392505050565b600081519050919050565b600081519050919050565b600082825260208201905092915050565b600082825260208201905092915050565b60006139b582613c78565b91506139c083613c78565b9250827fffffffffffffffffffffffffffffffffffffffffffffffffffffffffffffffff038211156139f5576139f4613dee565b5b828201905092915050565b6000613a0b82613c78565b9150613a1683613c78565b925082613a2657613a25613e1d565b5b828204905092915050565b6000808291508390505b6001851115613a7b57808604811115613a5757613a56613dee565b5b6001851615613a665780820291505b8081029050613a7485613e99565b9450613a3b565b94509492505050565b6000613a8f82613c78565b9150613a9a83613c82565b9250613ac77fffffffffffffffffffffffffffffffffffffffffffffffffffffffffffffffff8484613acf565b905092915050565b600082613adf5760019050613b9b565b81613aed5760009050613b9b565b8160018114613b035760028114613b0d57613b3c565b6001915050613b9b565b60ff841115613b1f57613b1e613dee565b5b8360020a915084821115613b3657613b35613dee565b5b50613b9b565b5060208310610133831016604e8410600b8410161715613b715782820a905083811115613b6c57613b6b613dee565b5b613b9b565b613b7e8484846001613a31565b92509050818404811115613b9557613b94613dee565b5b81810290505b9392505050565b6000613bad82613c78565b9150613bb883613c78565b9250817fffffffffffffffffffffffffffffffffffffffffffffffffffffffffffffffff0483118215151615613bf157613bf0613dee565b5b828202905092915050565b6000613c0782613c78565b9150613c1283613c78565b925082821015613c2557613c24613dee565b5b828203905092915050565b6000613c3b82613c58565b9050919050565b60008115159050919050565b6000819050919050565b600073ffffffffffffffffffffffffffffffffffffffff82169050919050565b6000819050919050565b600060ff82169050919050565b6000613c9a82613ca1565b9050919050565b6000613cac82613c58565b9050919050565b6000613cbe82613cc5565b9050919050565b6000613cd082613c58565b9050919050565b60005b83811015613cf5578082015181840152602081019050613cda565b83811115613d04576000848401525b50505050565b60006002820490506001821680613d2257607f821691505b60208210811415613d3657613d35613e4c565b5b50919050565b6000613d4782613c78565b91507fffffffffffffffffffffffffffffffffffffffffffffffffffffffffffffffff821415613d7a57613d79613dee565b5b600182019050919050565b6000613d9082613da1565b9050919050565b6000819050919050565b6000613dac82613e8c565b9050919050565b6000819050919050565b6000613dc882613c78565b9150613dd383613c78565b925082613de357613de2613e1d565b5b828206905092915050565b7f4e487b7100000000000000000000000000000000000000000000000000000000600052601160045260246000fd5b7f4e487b7100000000000000000000000000000000000000000000000000000000600052601260045260246000fd5b7f4e487b7100000000000000000000000000000000000000000000000000000000600052602260045260246000fd5b6000601f19601f8301169050919050565b60008160601b9050919050565b60008160011c9050919050565b613eaf81613c30565b8114613eba57600080fd5b50565b613ec681613c42565b8114613ed157600080fd5b50565b613edd81613c4e565b8114613ee857600080fd5b50565b613ef481613c78565b8114613eff57600080fd5b5056fea26469706673582212207a52f0b3839dcd6e5b408d2471cc6596bda2ce58851ea4255a7d14905a03495864736f6c63430008000033",
  "immutableReferences": {
    "3641": [
      {
        "length": 32,
        "start": 8688
      },
      {
        "length": 32,
        "start": 9524
      }
    ],
    "3643": [
      {
        "length": 32,
        "start": 5135
      },
      {
        "length": 32,
        "start": 9584
      }
    ]
  },
  "source": "// SPDX-License-Identifier: MIT\r\npragma solidity ^0.8.0;\r\n\r\nimport \"@chainlink/contracts/src/v0.8/dev/VRFConsumerBase.sol\";\r\nimport \"./IDO.sol\";\r\n\r\nabstract contract RandomTest is VRFConsumerBase {\r\n\r\n    bytes32 internal keyHash;\r\n    uint256 internal fee;\r\n    \r\n    bytes32 public reqId;\r\n    uint256 public randomResult;\r\n\r\n    bool isGeneratedOnce;\r\n    modifier once() {\r\n        require(!isGeneratedOnce, \"Already Generated Once\");\r\n        isGeneratedOnce = true;\r\n        _;\r\n    }\r\n\r\n    constructor () VRFConsumerBase (\r\n        0x8C7382F9D8f56b33781fE506E897a4F1e2d17255, // VRF Coordinator\r\n        0x326C977E6efc84E512bB9C30f76E30c160eD06FB  // LINK Token\r\n    ) {\r\n        keyHash = 0x6e75b569a01ef56d18cab6a8e71e6600d6ce853834d4a5748b720d06f878b3a4;\r\n        fee = 100000000000000; // 0.0001 LINK\r\n    }\r\n\r\n    /** \r\n     * Requests randomness from a user-provided seed\r\n     */\r\n    function _getRandomNumber(uint256 userProvidedSeed) internal returns (bytes32 requestId) {\r\n        require(LINK.balanceOf(address(this)) >= fee, \"Not enough LINK - fill contract with faucet\");\r\n        return requestRandomness(keyHash, fee, userProvidedSeed);\r\n    }\r\n\r\n    /**\r\n     * Callback function used by VRF Coordinator\r\n     */\r\n    function fulfillRandomness(bytes32 requestId, uint256 randomness) internal override {\r\n        reqId = requestId;\r\n        randomResult = randomness;\r\n        _afterGeneration();\r\n    }\r\n\r\n    bool _isFulfilled = false;\r\n    function isFulfilled() public view returns(bool) {\r\n        return _isFulfilled;\r\n    }\r\n\r\n    // Generating Multiple Random Numbers From a Single One\r\n    function _randomList(uint256 _from, uint256 _to, uint256 _size) internal view returns(uint256[] memory rands) {\r\n\r\n        rands = new uint256[](_size);\r\n        uint256 r = randomResult;\r\n        uint256 len = _to - _from;\r\n        \r\n        require(len >= _size, \"Invalid Size\");\r\n\r\n        uint256 i = 251;\r\n        uint256 count = 0;\r\n\r\n        while(count < _size) {\r\n            uint256 rand = (r + i**2) % len + _from;\r\n            bool exists = false;\r\n\r\n            for(uint256 j = 0; j < count + 1; j++) {\r\n                if (rand == rands[j]) {\r\n                    exists = true;\r\n                    break;\r\n                }\r\n            }\r\n\r\n            if(!exists) {\r\n                rands[count] = rand;\r\n                count += 1;\r\n            }\r\n\r\n            i += 1;\r\n        }\r\n    }\r\n\r\n    // This will execute after generation of Random Number\r\n    function _afterGeneration() internal virtual;\r\n\r\n}\r\n\r\ncontract RaffleWrapTest is IDO, RandomTest {\r\n\r\n    uint256 public ticketsSold; // No of tickets sold\r\n    mapping(uint256 => address) public ticketToOwner; // owner of a ticket\r\n    mapping(address => uint256) public addressToTicketCount; // No Of Tickets Owned By an Address\r\n    mapping(address => uint256[]) public addressToTicketsOwned; // Tickets That an address own\r\n\r\n    uint256 public ticketPrice = 3 * 10 ** 18; // Price of a ticket(no. of tokens)\r\n\r\n    modifier raffleParticipationPeriod() {\r\n        require(regStarts <= block.timestamp, \"Raffle: Participation Didn't Begin\");\r\n        require(regStarts + regDuration >= block.timestamp, \"Raffle: Participation Ended\");\r\n        _;\r\n    }\r\n\r\n    modifier raffleResultPeriod() {\r\n        require(regStarts + regDuration <= block.timestamp, \"Raffle: Participation Didn't End\");\r\n        require(saleStarts >= block.timestamp, \"Raffle: Out Of Time\");\r\n        _;\r\n    }\r\n\r\n    constructor (\r\n        address _stakerAddress,\r\n        address _nativeTokenAddress,\r\n        address _idoTokenAddress,\r\n        uint256 _idoAmount,\r\n        uint256 _price\r\n    ) IDO(\r\n        _stakerAddress,\r\n        _nativeTokenAddress,\r\n        _idoTokenAddress,\r\n        _idoAmount,\r\n        _price\r\n    ) {\r\n\r\n    }\r\n\r\n    \r\n    // Buy Tickets\r\n    function buyTickets(uint256 _noOfTickets) external raffleParticipationPeriod nonReentrant {\r\n        require(!getRegistrationStatus(msg.sender), \"Already Participated In IDO\");\r\n        uint256 nextTicket = ticketsSold;\r\n        nativeToken.transferFrom(msg.sender, owner(), _noOfTickets * ticketPrice);\r\n\r\n        for(uint256 i=0; i<_noOfTickets; i++) {\r\n            ticketToOwner[nextTicket + i] = msg.sender;\r\n            addressToTicketsOwned[msg.sender].push(nextTicket + i);\r\n        }\r\n\r\n        addressToTicketCount[msg.sender] += _noOfTickets;\r\n        ticketsSold += _noOfTickets;\r\n    }\r\n\r\n    function _raffleAllocation(address account) internal view override returns(uint256 tokens, uint256 price) {\r\n        \r\n    }\r\n\r\n    function _DEXAction() internal override {\r\n        \r\n    }\r\n\r\n    // Generates The Random Winners\r\n    function genRandom() external once raffleResultPeriod nonReentrant {\r\n        uint256 seed = uint256(keccak256(abi.encodePacked(msg.sender)));\r\n        _getRandomNumber(seed);\r\n    }\r\n\r\n    function fulfillTest(bytes32 requestId, uint256 randomness) once raffleResultPeriod external {\r\n        fulfillRandomness(requestId, randomness);\r\n    }\r\n\r\n    // Function Extended From Random Contract\r\n    function _afterGeneration() internal override {\r\n        _isFulfilled = true;\r\n        _executeRaffle();\r\n    }\r\n\r\n    // Raffle Entry For Winners\r\n    function _executeRaffle() internal {\r\n\r\n        address[] memory list = _getWinners();\r\n        for(uint256 i=0; i<list.length; i++) {\r\n            address account = list[i];\r\n            uint256 _poolNo = 2; // Raffle Entry Pool\r\n\r\n            if(!getRegistrationStatus(account)) _register(account, _poolNo);\r\n        }\r\n    }\r\n\r\n    // Gets The Address Of The Winners\r\n    function _getWinners() internal view returns(address[] memory list) {\r\n        uint256 n = _noOfWinners(ticketsSold);\r\n        list = new address[](n);\r\n        uint256[] memory winners = _randomList(0, ticketsSold, n);\r\n\r\n        for(uint256 i=0; i<n; i++) {\r\n            address winner = ticketToOwner[winners[i]];\r\n            list[i] = winner;\r\n        }\r\n    }\r\n\r\n    // Calculates The Number Of Winners\r\n    function _noOfWinners(uint256 _ticketsSold) internal pure returns(uint256) {\r\n        return _ticketsSold / 100 + 1;\r\n    }\r\n\r\n}",
  "sourcePath": "C:/Users/sudip/Desktop/RealProjects/PolyStarter/contracts/IDOStaker/RaffleWrapTest.sol",
  "compiler": {
    "name": "solc",
    "version": "0.8.0+commit.c7dfd78e.Emscripten.clang"
  },
  "schemaVersion": "3.3.4",
  "updatedAt": "2021-07-02T13:54:53.311Z",
  "devdoc": {
    "kind": "dev",
    "methods": {
      "owner()": {
        "details": "Returns the address of the current owner."
      },
      "renounceOwnership()": {
        "details": "Leaves the contract without owner. It will not be possible to call `onlyOwner` functions anymore. Can only be called by the current owner. NOTE: Renouncing ownership will leave the contract without an owner, thereby removing any functionality that is only available to the owner."
      },
      "transferOwnership(address)": {
        "details": "Transfers ownership of the contract to a new account (`newOwner`). Can only be called by the current owner."
      }
    },
    "version": 1
  },
  "userdoc": {
    "kind": "user",
    "methods": {},
    "version": 1
  }
}