{
  "contractName": "RaffleWrapTest",
  "abi": [
    {
      "inputs": [
        {
          "internalType": "address",
          "name": "_stakerAddress",
          "type": "address"
        },
        {
          "internalType": "address",
          "name": "_nativeTokenAddress",
          "type": "address"
        },
        {
          "internalType": "address",
          "name": "_idoTokenAddress",
          "type": "address"
        },
        {
          "internalType": "uint256",
          "name": "_idoAmount",
          "type": "uint256"
        },
        {
          "internalType": "uint256",
          "name": "_price",
          "type": "uint256"
        }
      ],
      "stateMutability": "nonpayable",
      "type": "constructor"
    },
    {
      "anonymous": false,
      "inputs": [
        {
          "indexed": false,
          "internalType": "uint256",
          "name": "regStart",
          "type": "uint256"
        },
        {
          "indexed": false,
          "internalType": "uint256",
          "name": "saleStart",
          "type": "uint256"
        }
      ],
      "name": "Initialization",
      "type": "event"
    },
    {
      "anonymous": false,
      "inputs": [
        {
          "indexed": true,
          "internalType": "address",
          "name": "previousOwner",
          "type": "address"
        },
        {
          "indexed": true,
          "internalType": "address",
          "name": "newOwner",
          "type": "address"
        }
      ],
      "name": "OwnershipTransferred",
      "type": "event"
    },
    {
      "anonymous": false,
      "inputs": [
        {
          "indexed": true,
          "internalType": "address",
          "name": "",
          "type": "address"
        },
        {
          "indexed": false,
          "internalType": "uint256",
          "name": "tokens",
          "type": "uint256"
        },
        {
          "indexed": false,
          "internalType": "uint256",
          "name": "price",
          "type": "uint256"
        }
      ],
      "name": "Purchase",
      "type": "event"
    },
    {
      "anonymous": false,
      "inputs": [
        {
          "indexed": true,
          "internalType": "address",
          "name": "account",
          "type": "address"
        },
        {
          "indexed": false,
          "internalType": "uint256",
          "name": "poolNo",
          "type": "uint256"
        }
      ],
      "name": "Registration",
      "type": "event"
    },
    {
      "inputs": [
        {
          "internalType": "address",
          "name": "",
          "type": "address"
        }
      ],
      "name": "addressToTicketCount",
      "outputs": [
        {
          "internalType": "uint256",
          "name": "",
          "type": "uint256"
        }
      ],
      "stateMutability": "view",
      "type": "function"
    },
    {
      "inputs": [
        {
          "internalType": "address",
          "name": "",
          "type": "address"
        },
        {
          "internalType": "uint256",
          "name": "",
          "type": "uint256"
        }
      ],
      "name": "addressToTicketsOwned",
      "outputs": [
        {
          "internalType": "uint256",
          "name": "",
          "type": "uint256"
        }
      ],
      "stateMutability": "view",
      "type": "function"
    },
    {
      "inputs": [
        {
          "internalType": "address",
          "name": "account",
          "type": "address"
        }
      ],
      "name": "allocationByAddress",
      "outputs": [
        {
          "internalType": "uint256",
          "name": "tokens",
          "type": "uint256"
        },
        {
          "internalType": "uint256",
          "name": "price",
          "type": "uint256"
        }
      ],
      "stateMutability": "view",
      "type": "function"
    },
    {
      "inputs": [],
      "name": "buyNow",
      "outputs": [],
      "stateMutability": "payable",
      "type": "function"
    },
    {
      "inputs": [
        {
          "internalType": "address",
          "name": "account",
          "type": "address"
        }
      ],
      "name": "getPoolNo",
      "outputs": [
        {
          "internalType": "uint256",
          "name": "",
          "type": "uint256"
        }
      ],
      "stateMutability": "view",
      "type": "function"
    },
    {
      "inputs": [
        {
          "internalType": "address",
          "name": "account",
          "type": "address"
        }
      ],
      "name": "getRegistrationStatus",
      "outputs": [
        {
          "internalType": "bool",
          "name": "",
          "type": "bool"
        }
      ],
      "stateMutability": "view",
      "type": "function"
    },
    {
      "inputs": [],
      "name": "iStaker",
      "outputs": [
        {
          "internalType": "contract IStaker",
          "name": "",
          "type": "address"
        }
      ],
      "stateMutability": "view",
      "type": "function"
    },
    {
      "inputs": [],
      "name": "idoToken",
      "outputs": [
        {
          "internalType": "contract IERC20Metadata",
          "name": "",
          "type": "address"
        }
      ],
      "stateMutability": "view",
      "type": "function"
    },
    {
      "inputs": [],
      "name": "idoTokenSum",
      "outputs": [
        {
          "internalType": "uint256",
          "name": "",
          "type": "uint256"
        }
      ],
      "stateMutability": "view",
      "type": "function"
    },
    {
      "inputs": [],
      "name": "idoTotalPrice",
      "outputs": [
        {
          "internalType": "uint256",
          "name": "",
          "type": "uint256"
        }
      ],
      "stateMutability": "view",
      "type": "function"
    },
    {
      "inputs": [
        {
          "internalType": "uint256",
          "name": "time",
          "type": "uint256"
        }
      ],
      "name": "initialize",
      "outputs": [],
      "stateMutability": "nonpayable",
      "type": "function"
    },
    {
      "inputs": [],
      "name": "isFulfilled",
      "outputs": [
        {
          "internalType": "bool",
          "name": "",
          "type": "bool"
        }
      ],
      "stateMutability": "view",
      "type": "function"
    },
    {
      "inputs": [],
      "name": "isInitialized",
      "outputs": [
        {
          "internalType": "bool",
          "name": "",
          "type": "bool"
        }
      ],
      "stateMutability": "view",
      "type": "function"
    },
    {
      "inputs": [],
      "name": "lockDuration",
      "outputs": [
        {
          "internalType": "uint256",
          "name": "",
          "type": "uint256"
        }
      ],
      "stateMutability": "view",
      "type": "function"
    },
    {
      "inputs": [],
      "name": "nativeToken",
      "outputs": [
        {
          "internalType": "contract IERC20Metadata",
          "name": "",
          "type": "address"
        }
      ],
      "stateMutability": "view",
      "type": "function"
    },
    {
      "inputs": [],
      "name": "noOfParticipants",
      "outputs": [
        {
          "internalType": "uint256",
          "name": "",
          "type": "uint256"
        }
      ],
      "stateMutability": "view",
      "type": "function"
    },
    {
      "inputs": [],
      "name": "owner",
      "outputs": [
        {
          "internalType": "address",
          "name": "",
          "type": "address"
        }
      ],
      "stateMutability": "view",
      "type": "function"
    },
    {
      "inputs": [
        {
          "internalType": "uint256",
          "name": "",
          "type": "uint256"
        }
      ],
      "name": "participantList",
      "outputs": [
        {
          "internalType": "address",
          "name": "",
          "type": "address"
        }
      ],
      "stateMutability": "view",
      "type": "function"
    },
    {
      "inputs": [
        {
          "internalType": "uint256",
          "name": "",
          "type": "uint256"
        }
      ],
      "name": "pools",
      "outputs": [
        {
          "internalType": "string",
          "name": "name",
          "type": "string"
        },
        {
          "internalType": "uint256",
          "name": "minNativeToken",
          "type": "uint256"
        },
        {
          "internalType": "uint256",
          "name": "weight",
          "type": "uint256"
        },
        {
          "internalType": "uint256",
          "name": "participants",
          "type": "uint256"
        }
      ],
      "stateMutability": "view",
      "type": "function"
    },
    {
      "inputs": [],
      "name": "randomResult",
      "outputs": [
        {
          "internalType": "uint256",
          "name": "",
          "type": "uint256"
        }
      ],
      "stateMutability": "view",
      "type": "function"
    },
    {
      "inputs": [
        {
          "internalType": "bytes32",
          "name": "requestId",
          "type": "bytes32"
        },
        {
          "internalType": "uint256",
          "name": "randomness",
          "type": "uint256"
        }
      ],
      "name": "rawFulfillRandomness",
      "outputs": [],
      "stateMutability": "nonpayable",
      "type": "function"
    },
    {
      "inputs": [
        {
          "internalType": "address",
          "name": "tokenAddress",
          "type": "address"
        },
        {
          "internalType": "address",
          "name": "to",
          "type": "address"
        }
      ],
      "name": "recoverERC20",
      "outputs": [],
      "stateMutability": "nonpayable",
      "type": "function"
    },
    {
      "inputs": [
        {
          "internalType": "address",
          "name": "to",
          "type": "address"
        }
      ],
      "name": "recoverEth",
      "outputs": [],
      "stateMutability": "nonpayable",
      "type": "function"
    },
    {
      "inputs": [],
      "name": "regDuration",
      "outputs": [
        {
          "internalType": "uint256",
          "name": "",
          "type": "uint256"
        }
      ],
      "stateMutability": "view",
      "type": "function"
    },
    {
      "inputs": [],
      "name": "regStarts",
      "outputs": [
        {
          "internalType": "uint256",
          "name": "",
          "type": "uint256"
        }
      ],
      "stateMutability": "view",
      "type": "function"
    },
    {
      "inputs": [
        {
          "internalType": "uint256",
          "name": "_poolNo",
          "type": "uint256"
        }
      ],
      "name": "register",
      "outputs": [],
      "stateMutability": "nonpayable",
      "type": "function"
    },
    {
      "inputs": [],
      "name": "remainingIDOTokens",
      "outputs": [
        {
          "internalType": "uint256",
          "name": "",
          "type": "uint256"
        }
      ],
      "stateMutability": "view",
      "type": "function"
    },
    {
      "inputs": [],
      "name": "renounceOwnership",
      "outputs": [],
      "stateMutability": "nonpayable",
      "type": "function"
    },
    {
      "inputs": [],
      "name": "reqId",
      "outputs": [
        {
          "internalType": "bytes32",
          "name": "",
          "type": "bytes32"
        }
      ],
      "stateMutability": "view",
      "type": "function"
    },
    {
      "inputs": [],
      "name": "saleDuration",
      "outputs": [
        {
          "internalType": "uint256",
          "name": "",
          "type": "uint256"
        }
      ],
      "stateMutability": "view",
      "type": "function"
    },
    {
      "inputs": [],
      "name": "saleStarts",
      "outputs": [
        {
          "internalType": "uint256",
          "name": "",
          "type": "uint256"
        }
      ],
      "stateMutability": "view",
      "type": "function"
    },
    {
      "inputs": [],
      "name": "saleStartsAfter",
      "outputs": [
        {
          "internalType": "uint256",
          "name": "",
          "type": "uint256"
        }
      ],
      "stateMutability": "view",
      "type": "function"
    },
    {
      "inputs": [],
      "name": "ticketPrice",
      "outputs": [
        {
          "internalType": "uint256",
          "name": "",
          "type": "uint256"
        }
      ],
      "stateMutability": "view",
      "type": "function"
    },
    {
      "inputs": [
        {
          "internalType": "uint256",
          "name": "",
          "type": "uint256"
        }
      ],
      "name": "ticketToOwner",
      "outputs": [
        {
          "internalType": "address",
          "name": "",
          "type": "address"
        }
      ],
      "stateMutability": "view",
      "type": "function"
    },
    {
      "inputs": [],
      "name": "ticketsSold",
      "outputs": [
        {
          "internalType": "uint256",
          "name": "",
          "type": "uint256"
        }
      ],
      "stateMutability": "view",
      "type": "function"
    },
    {
      "inputs": [
        {
          "internalType": "uint256",
          "name": "_poolNo",
          "type": "uint256"
        }
      ],
      "name": "tokensAndPriceByPoolNo",
      "outputs": [
        {
          "internalType": "uint256",
          "name": "",
          "type": "uint256"
        },
        {
          "internalType": "uint256",
          "name": "",
          "type": "uint256"
        }
      ],
      "stateMutability": "view",
      "type": "function"
    },
    {
      "inputs": [],
      "name": "totalWeight",
      "outputs": [
        {
          "internalType": "uint256",
          "name": "",
          "type": "uint256"
        }
      ],
      "stateMutability": "view",
      "type": "function"
    },
    {
      "inputs": [
        {
          "internalType": "address",
          "name": "newOwner",
          "type": "address"
        }
      ],
      "name": "transferOwnership",
      "outputs": [],
      "stateMutability": "nonpayable",
      "type": "function"
    },
    {
      "inputs": [],
      "name": "unit",
      "outputs": [
        {
          "internalType": "uint256",
          "name": "",
          "type": "uint256"
        }
      ],
      "stateMutability": "view",
      "type": "function"
    },
    {
      "inputs": [
        {
          "internalType": "address",
          "name": "",
          "type": "address"
        }
      ],
      "name": "userlog",
      "outputs": [
        {
          "internalType": "bool",
          "name": "isRegistered",
          "type": "bool"
        },
        {
          "internalType": "uint256",
          "name": "registeredPool",
          "type": "uint256"
        },
        {
          "internalType": "bool",
          "name": "purchased",
          "type": "bool"
        }
      ],
      "stateMutability": "view",
      "type": "function"
    },
    {
      "inputs": [
        {
          "internalType": "uint256",
          "name": "_noOfTickets",
          "type": "uint256"
        }
      ],
      "name": "buyTickets",
      "outputs": [],
      "stateMutability": "nonpayable",
      "type": "function"
    },
    {
      "inputs": [],
      "name": "genRandom",
      "outputs": [],
      "stateMutability": "nonpayable",
      "type": "function"
    },
    {
      "inputs": [
        {
          "internalType": "bytes32",
          "name": "requestId",
          "type": "bytes32"
        },
        {
          "internalType": "uint256",
          "name": "randomness",
          "type": "uint256"
        }
      ],
      "name": "fulfillTest",
      "outputs": [],
      "stateMutability": "nonpayable",
      "type": "function"
    }
  ],
  "bytecode": "0x60c06040526000601460016101000a81548160ff0219169083151502179055506729a2241af62c00006019553480156200003857600080fd5b506040516200533e3803806200533e83398181016040528101906200005e9190620009a3565b738c7382f9d8f56b33781fe506e897a4f1e2d1725573326c977e6efc84e512bb9c30f76e30c160ed06fb868686868660006200009f620008a660201b60201c565b9050806000806101000a81548173ffffffffffffffffffffffffffffffffffffffff021916908373ffffffffffffffffffffffffffffffffffffffff1602179055508073ffffffffffffffffffffffffffffffffffffffff16600073ffffffffffffffffffffffffffffffffffffffff167f8be0079c531659141344cd1fd0a4f28419497f9722a3daafe3b4186f6b6457e060405160405180910390a3506001808190555084600260006101000a81548173ffffffffffffffffffffffffffffffffffffffff021916908373ffffffffffffffffffffffffffffffffffffffff16021790555083600360006101000a81548173ffffffffffffffffffffffffffffffffffffffff021916908373ffffffffffffffffffffffffffffffffffffffff16021790555082600460006101000a81548173ffffffffffffffffffffffffffffffffffffffff021916908373ffffffffffffffffffffffffffffffffffffffff16021790555081600581905550806006819055506005546007819055506000600360009054906101000a900473ffffffffffffffffffffffffffffffffffffffff1673ffffffffffffffffffffffffffffffffffffffff1663313ce5676040518163ffffffff1660e01b815260040160206040518083038186803b1580156200028957600080fd5b505afa1580156200029e573d6000803e3d6000fd5b505050506040513d601f19601f82011682018060405250810190620002c4919062000a25565b60ff169050600d60405180608001604052806040518060400160405280600481526020017f4e756c6c00000000000000000000000000000000000000000000000000000000815250815260200160008152602001600081526020016000815250908060018154018082558091505060019003906000526020600020906004020160009091909190915060008201518160000190805190602001906200036b929190620008ae565b506020820151816001015560408201518160020155606082015181600301555050600d60405180608001604052806040518060400160405280600681526020017f4b6e696768740000000000000000000000000000000000000000000000000000815250815260200183600a620003e3919062000aac565b6064620003f1919062000be9565b81526020016002815260200160008152509080600181540180825580915050600190039060005260206000209060040201600090919091909150600082015181600001908051906020019062000449929190620008ae565b506020820151816001015560408201518160020155606082015181600301555050600d60405180608001604052806040518060400160405280600681526020017f426973686f700000000000000000000000000000000000000000000000000000815250815260200183600a620004c1919062000aac565b6101f4620004d0919062000be9565b81526020016003815260200160008152509080600181540180825580915050600190039060005260206000209060040201600090919091909150600082015181600001908051906020019062000528929190620008ae565b506020820151816001015560408201518160020155606082015181600301555050600d60405180608001604052806040518060400160405280600481526020017f526f6f6b00000000000000000000000000000000000000000000000000000000815250815260200183600a620005a0919062000aac565b6103e8620005af919062000be9565b81526020016004815260200160008152509080600181540180825580915050600190039060005260206000209060040201600090919091909150600082015181600001908051906020019062000607929190620008ae565b506020820151816001015560408201518160020155606082015181600301555050600d60405180608001604052806040518060400160405280600481526020017f4b696e6700000000000000000000000000000000000000000000000000000000815250815260200183600a6200067f919062000aac565b6107d06200068e919062000be9565b815260200160058152602001600081525090806001815401808255809150506001900390600052602060002090600402016000909190919091506000820151816000019080519060200190620006e6929190620008ae565b506020820151816001015560408201518160020155606082015181600301555050600d60405180608001604052806040518060400160405280600581526020017f517565656e000000000000000000000000000000000000000000000000000000815250815260200183600a6200075e919062000aac565b610fa06200076d919062000be9565b815260200160068152602001600081525090806001815401808255809150506001900390600052602060002090600402016000909190919091506000820151816000019080519060200190620007c5929190620008ae565b5060208201518160010155604082015181600201556060820151816003015550506014600e819055505050505050508173ffffffffffffffffffffffffffffffffffffffff1660a08173ffffffffffffffffffffffffffffffffffffffff1660601b815250508073ffffffffffffffffffffffffffffffffffffffff1660808173ffffffffffffffffffffffffffffffffffffffff1660601b8152505050507f6e75b569a01ef56d18cab6a8e71e6600d6ce853834d4a5748b720d06f878b3a460001b601081905550655af3107a4000601181905550505050505062000d84565b600033905090565b828054620008bc9062000c95565b90600052602060002090601f016020900481019282620008e057600085556200092c565b82601f10620008fb57805160ff19168380011785556200092c565b828001600101855582156200092c579182015b828111156200092b5782518255916020019190600101906200090e565b5b5090506200093b91906200093f565b5090565b5b808211156200095a57600081600090555060010162000940565b5090565b6000815190506200096f8162000d36565b92915050565b600081519050620009868162000d50565b92915050565b6000815190506200099d8162000d6a565b92915050565b600080600080600060a08688031215620009bc57600080fd5b6000620009cc888289016200095e565b9550506020620009df888289016200095e565b9450506040620009f2888289016200095e565b935050606062000a058882890162000975565b925050608062000a188882890162000975565b9150509295509295909350565b60006020828403121562000a3857600080fd5b600062000a48848285016200098c565b91505092915050565b6000808291508390505b600185111562000aa35780860481111562000a7b5762000a7a62000ccb565b5b600185161562000a8b5780820291505b808102905062000a9b8562000d29565b945062000a5b565b94509492505050565b600062000ab98262000c7e565b915062000ac68362000c7e565b925062000af57fffffffffffffffffffffffffffffffffffffffffffffffffffffffffffffffff848462000afd565b905092915050565b60008262000b0f576001905062000be2565b8162000b1f576000905062000be2565b816001811462000b38576002811462000b435762000b79565b600191505062000be2565b60ff84111562000b585762000b5762000ccb565b5b8360020a91508482111562000b725762000b7162000ccb565b5b5062000be2565b5060208310610133831016604e8410600b841016171562000bb35782820a90508381111562000bad5762000bac62000ccb565b5b62000be2565b62000bc2848484600162000a51565b9250905081840481111562000bdc5762000bdb62000ccb565b5b81810290505b9392505050565b600062000bf68262000c7e565b915062000c038362000c7e565b9250817fffffffffffffffffffffffffffffffffffffffffffffffffffffffffffffffff048311821515161562000c3f5762000c3e62000ccb565b5b828202905092915050565b600062000c578262000c5e565b9050919050565b600073ffffffffffffffffffffffffffffffffffffffff82169050919050565b6000819050919050565b600060ff82169050919050565b6000600282049050600182168062000cae57607f821691505b6020821081141562000cc55762000cc462000cfa565b5b50919050565b7f4e487b7100000000000000000000000000000000000000000000000000000000600052601160045260246000fd5b7f4e487b7100000000000000000000000000000000000000000000000000000000600052602260045260246000fd5b60008160011c9050919050565b62000d418162000c4a565b811462000d4d57600080fd5b50565b62000d5b8162000c7e565b811462000d6757600080fd5b50565b62000d758162000c88565b811462000d8157600080fd5b50565b60805160601c60a05160601c61458062000dbe6000396000818161162301526129c20152600081816126a8015261298601526145806000f3fe60806040526004361061025c5760003560e01c80638f15024f11610144578063b6ba8114116100b6578063e76eda861161007a578063e76eda8614610900578063efad76da1461092b578063f207564e14610956578063f2fde38b1461097f578063f3f40af2146109a8578063fe4b84df146109d35761025c565b8063b6ba81141461082b578063c4f34fab14610856578063d0f4b44714610881578063d6cd82bc146108aa578063e1758bd8146108d55761025c565b80639c3962f0116101085780639c3962f0146107115780639e6e9d0f1461071b578063a158226d14610758578063a25dd13014610783578063a8af4ff5146107ae578063ac4afa38146107eb5761025c565b80638f15024f146106295780638f666ecf14610654578063907af6c01461069257806394985ddd146106bd57806396c82e57146106e65761025c565b80633f46ce72116101dd578063715018a6116101a1578063715018a61461052d5780637504db3e146105445780637acaea9b1461056d578063886f039a146105aa5780638997ce4e146105d35780638da5cb5b146105fe5761025c565b80633f46ce721461043157806342619f661461046f57806345a28e061461049a57806351622cd0146104d957806366a30cb6146105165761025c565b80632b08e824116102245780632b08e8241461034a5780632f366637146103875780633711d9fb146103b0578063385a9c37146103db578063392e53cd146104065761025c565b80630455444314610261578063087262961461028c5780630e6fdaa1146102b75780631209b1f6146102f4578063196f25321461031f575b600080fd5b34801561026d57600080fd5b506102766109fc565b6040516102839190613f6b565b60405180910390f35b34801561029857600080fd5b506102a1610a0e565b6040516102ae9190613f6b565b60405180910390f35b3480156102c357600080fd5b506102de60048036038101906102d9919061314a565b610a1b565b6040516102eb9190613a15565b60405180910390f35b34801561030057600080fd5b50610309610a5a565b6040516103169190613f6b565b60405180910390f35b34801561032b57600080fd5b50610334610a60565b6040516103419190613f6b565b60405180910390f35b34801561035657600080fd5b50610371600480360381019061036c919061314a565b610a66565b60405161037e9190613a15565b60405180910390f35b34801561039357600080fd5b506103ae60048036038101906103a9919061314a565b610a99565b005b3480156103bc57600080fd5b506103c5610e07565b6040516103d29190613f6b565b60405180910390f35b3480156103e757600080fd5b506103f0610e19565b6040516103fd9190613ace565b60405180910390f35b34801561041257600080fd5b5061041b610e30565b6040516104289190613ace565b60405180910390f35b34801561043d57600080fd5b5061045860048036038101906104539190613044565b610e43565b604051610466929190613f86565b60405180910390f35b34801561047b57600080fd5b50610484610ecc565b6040516104919190613f6b565b60405180910390f35b3480156104a657600080fd5b506104c160048036038101906104bc9190613044565b610ed2565b6040516104d093929190613ae9565b60405180910390f35b3480156104e557600080fd5b5061050060048036038101906104fb9190613044565b610f16565b60405161050d9190613f6b565b60405180910390f35b34801561052257600080fd5b5061052b610f2e565b005b34801561053957600080fd5b506105426110cc565b005b34801561055057600080fd5b5061056b60048036038101906105669190613044565b611206565b005b34801561057957600080fd5b50610594600480360381019061058f91906130a9565b611332565b6040516105a19190613f6b565b60405180910390f35b3480156105b657600080fd5b506105d160048036038101906105cc919061306d565b611363565b005b3480156105df57600080fd5b506105e86114ff565b6040516105f59190613b20565b60405180910390f35b34801561060a57600080fd5b50610613611505565b6040516106209190613a15565b60405180910390f35b34801561063557600080fd5b5061063e61152e565b60405161064b9190613f6b565b60405180910390f35b34801561066057600080fd5b5061067b6004803603810190610676919061314a565b611534565b604051610689929190613f86565b60405180910390f35b34801561069e57600080fd5b506106a761161b565b6040516106b49190613f6b565b60405180910390f35b3480156106c957600080fd5b506106e460048036038101906106df919061310e565b611621565b005b3480156106f257600080fd5b506106fb6116bd565b6040516107089190613f6b565b60405180910390f35b6107196116c3565b005b34801561072757600080fd5b50610742600480360381019061073d9190613044565b611b19565b60405161074f9190613f6b565b60405180910390f35b34801561076457600080fd5b5061076d611b65565b60405161077a9190613f6b565b60405180910390f35b34801561078f57600080fd5b50610798611b6b565b6040516107a59190613f6b565b60405180910390f35b3480156107ba57600080fd5b506107d560048036038101906107d09190613044565b611b7d565b6040516107e29190613ace565b60405180910390f35b3480156107f757600080fd5b50610812600480360381019061080d919061314a565b611bd6565b6040516108229493929190613bdf565b60405180910390f35b34801561083757600080fd5b50610840611c9e565b60405161084d9190613f6b565b60405180910390f35b34801561086257600080fd5b5061086b611ca4565b6040516108789190613bc4565b60405180910390f35b34801561088d57600080fd5b506108a860048036038101906108a3919061310e565b611cca565b005b3480156108b657600080fd5b506108bf611de6565b6040516108cc9190613ba9565b60405180910390f35b3480156108e157600080fd5b506108ea611e0c565b6040516108f79190613ba9565b60405180910390f35b34801561090c57600080fd5b50610915611e32565b6040516109229190613f6b565b60405180910390f35b34801561093757600080fd5b50610940611e5d565b60405161094d9190613f6b565b60405180910390f35b34801561096257600080fd5b5061097d6004803603810190610978919061314a565b611e63565b005b34801561098b57600080fd5b506109a660048036038101906109a19190613044565b61224f565b005b3480156109b457600080fd5b506109bd6123f8565b6040516109ca9190613f6b565b60405180910390f35b3480156109df57600080fd5b506109fa60048036038101906109f5919061314a565b6123fe565b005b610e1060a8610a0b91906141ea565b81565b6000600b80549050905090565b600b8181548110610a2b57600080fd5b906000526020600020016000915054906101000a900473ffffffffffffffffffffffffffffffffffffffff1681565b60195481565b60075481565b60166020528060005260406000206000915054906101000a900473ffffffffffffffffffffffffffffffffffffffff1681565b426008541115610ade576040517f08c379a0000000000000000000000000000000000000000000000000000000008152600401610ad590613e0b565b60405180910390fd5b42610e106030610aee91906141ea565b600854610afb9190613ff2565b1015610b3c576040517f08c379a0000000000000000000000000000000000000000000000000000000008152600401610b3390613e6b565b60405180910390fd5b60026001541415610b82576040517f08c379a0000000000000000000000000000000000000000000000000000000008152600401610b7990613f2b565b60405180910390fd5b6002600181905550610b9333611b7d565b15610bd3576040517f08c379a0000000000000000000000000000000000000000000000000000000008152600401610bca90613c4b565b60405180910390fd5b60006015549050600360009054906101000a900473ffffffffffffffffffffffffffffffffffffffff1673ffffffffffffffffffffffffffffffffffffffff166323b872dd33610c21611505565b60195486610c2f91906141ea565b6040518463ffffffff1660e01b8152600401610c4d93929190613a30565b602060405180830381600087803b158015610c6757600080fd5b505af1158015610c7b573d6000803e3d6000fd5b505050506040513d601f19601f82011682018060405250810190610c9f91906130e5565b5060005b82811015610d8c5733601660008385610cbc9190613ff2565b815260200190815260200160002060006101000a81548173ffffffffffffffffffffffffffffffffffffffff021916908373ffffffffffffffffffffffffffffffffffffffff160217905550601860003373ffffffffffffffffffffffffffffffffffffffff1673ffffffffffffffffffffffffffffffffffffffff1681526020019081526020016000208183610d539190613ff2565b90806001815401808255809150506001900390600052602060002001600090919091909150558080610d8490614384565b915050610ca3565b5081601760003373ffffffffffffffffffffffffffffffffffffffff1673ffffffffffffffffffffffffffffffffffffffff1681526020019081526020016000206000828254610ddc9190613ff2565b925050819055508160156000828254610df59190613ff2565b92505081905550506001808190555050565b610e10600c610e1691906141ea565b81565b6000601460019054906101000a900460ff16905090565b600c60009054906101000a900460ff1681565b600080610e91600a60008573ffffffffffffffffffffffffffffffffffffffff1673ffffffffffffffffffffffffffffffffffffffff16815260200190815260200160002060010154611534565b8092508193505050600080610ea585612699565b915091508184610eb59190613ff2565b93508083610ec39190613ff2565b92505050915091565b60135481565b600a6020528060005260406000206000915090508060000160009054906101000a900460ff16908060010154908060020160009054906101000a900460ff16905083565b60176020528060005260406000206000915090505481565b601460009054906101000a900460ff1615610f7e576040517f08c379a0000000000000000000000000000000000000000000000000000000008152600401610f7590613cab565b60405180910390fd5b6001601460006101000a81548160ff02191690831515021790555042610e106030610fa991906141ea565b600854610fb69190613ff2565b1115610ff7576040517f08c379a0000000000000000000000000000000000000000000000000000000008152600401610fee90613dab565b60405180910390fd5b42600954101561103c576040517f08c379a000000000000000000000000000000000000000000000000000000000815260040161103390613ccb565b60405180910390fd5b60026001541415611082576040517f08c379a000000000000000000000000000000000000000000000000000000000815260040161107990613f2b565b60405180910390fd5b600260018190555060003360405160200161109d91906139b9565b6040516020818303038152906040528051906020012060001c90506110c1816126a1565b505060018081905550565b6110d46127a6565b73ffffffffffffffffffffffffffffffffffffffff166110f2611505565b73ffffffffffffffffffffffffffffffffffffffff1614611148576040517f08c379a000000000000000000000000000000000000000000000000000000000815260040161113f90613e4b565b60405180910390fd5b600073ffffffffffffffffffffffffffffffffffffffff1660008054906101000a900473ffffffffffffffffffffffffffffffffffffffff1673ffffffffffffffffffffffffffffffffffffffff167f8be0079c531659141344cd1fd0a4f28419497f9722a3daafe3b4186f6b6457e060405160405180910390a360008060006101000a81548173ffffffffffffffffffffffffffffffffffffffff021916908373ffffffffffffffffffffffffffffffffffffffff160217905550565b61120e6127a6565b73ffffffffffffffffffffffffffffffffffffffff1661122c611505565b73ffffffffffffffffffffffffffffffffffffffff1614611282576040517f08c379a000000000000000000000000000000000000000000000000000000000815260040161127990613e4b565b60405180910390fd5b60008173ffffffffffffffffffffffffffffffffffffffff16476040516112a890613a00565b60006040518083038185875af1925050503d80600081146112e5576040519150601f19603f3d011682016040523d82523d6000602084013e6112ea565b606091505b505090508061132e576040517f08c379a000000000000000000000000000000000000000000000000000000000815260040161132590613dcb565b60405180910390fd5b5050565b6018602052816000526040600020818154811061134e57600080fd5b90600052602060002001600091509150505481565b61136b6127a6565b73ffffffffffffffffffffffffffffffffffffffff16611389611505565b73ffffffffffffffffffffffffffffffffffffffff16146113df576040517f08c379a00000000000000000000000000000000000000000000000000000000081526004016113d690613e4b565b60405180910390fd5b60008290508073ffffffffffffffffffffffffffffffffffffffff1663a9059cbb838373ffffffffffffffffffffffffffffffffffffffff166370a08231306040518263ffffffff1660e01b815260040161143a9190613a15565b60206040518083038186803b15801561145257600080fd5b505afa158015611466573d6000803e3d6000fd5b505050506040513d601f19601f8201168201806040525081019061148a9190613173565b6040518363ffffffff1660e01b81526004016114a7929190613a67565b602060405180830381600087803b1580156114c157600080fd5b505af11580156114d5573d6000803e3d6000fd5b505050506040513d601f19601f820116820180604052508101906114f991906130e5565b50505050565b60125481565b60008060009054906101000a900473ffffffffffffffffffffffffffffffffffffffff16905090565b60155481565b6000806000600d8481548110611573577f4e487b7100000000000000000000000000000000000000000000000000000000600052603260045260246000fd5b906000526020600020906004020190506000841480611596575060008160030154145b156115a8576000809250925050611616565b60008160030154600e546115bc91906141ea565b82600201546005546115ce91906141ea565b6115d89190614048565b905060008260030154600e546115ee91906141ea565b836002015460065461160091906141ea565b61160a9190614048565b90508181945094505050505b915091565b610e1081565b7f000000000000000000000000000000000000000000000000000000000000000073ffffffffffffffffffffffffffffffffffffffff163373ffffffffffffffffffffffffffffffffffffffff16146116af576040517f08c379a00000000000000000000000000000000000000000000000000000000081526004016116a690613e8b565b60405180910390fd5b6116b982826127ae565b5050565b600e5481565b6000429050600c60009054906101000a900460ff16611717576040517f08c379a000000000000000000000000000000000000000000000000000000000815260040161170e90613f4b565b60405180910390fd5b600a60003373ffffffffffffffffffffffffffffffffffffffff1673ffffffffffffffffffffffffffffffffffffffff16815260200190815260200160002060000160009054906101000a900460ff166117a6576040517f08c379a000000000000000000000000000000000000000000000000000000000815260040161179d90613c6b565b60405180910390fd5b600a60003373ffffffffffffffffffffffffffffffffffffffff1673ffffffffffffffffffffffffffffffffffffffff16815260200190815260200160002060020160009054906101000a900460ff1615611836576040517f08c379a000000000000000000000000000000000000000000000000000000000815260040161182d90613d6b565b60405180910390fd5b80600954111580156118635750610e10600c61185291906141ea565b60095461185f9190613ff2565b8111155b6118a2576040517f08c379a000000000000000000000000000000000000000000000000000000000815260040161189990613f0b565b60405180910390fd5b600260015414156118e8576040517f08c379a00000000000000000000000000000000000000000000000000000000081526004016118df90613f2b565b60405180910390fd5b60026001819055506000600a60003373ffffffffffffffffffffffffffffffffffffffff1673ffffffffffffffffffffffffffffffffffffffff168152602001908152602001600020905060008061193f33610e43565b9150915060008114158015611955575060008214155b611994576040517f08c379a000000000000000000000000000000000000000000000000000000000815260040161198b90613eab565b60405180910390fd5b3481146119d6576040517f08c379a00000000000000000000000000000000000000000000000000000000081526004016119cd90613c2b565b60405180910390fd5b60018360020160006101000a81548160ff0219169083151502179055508160076000828254611a059190614244565b92505081905550600460009054906101000a900473ffffffffffffffffffffffffffffffffffffffff1673ffffffffffffffffffffffffffffffffffffffff1663a9059cbb33846040518363ffffffff1660e01b8152600401611a69929190613a67565b602060405180830381600087803b158015611a8357600080fd5b505af1158015611a97573d6000803e3d6000fd5b505050506040513d601f19601f82011682018060405250810190611abb91906130e5565b503373ffffffffffffffffffffffffffffffffffffffff167f12cb4648cf3058b17ceeb33e579f8b0bc269fe0843f3900b8e24b6c54871703c8383604051611b04929190613f86565b60405180910390a25050506001808190555050565b6000600a60008373ffffffffffffffffffffffffffffffffffffffff1673ffffffffffffffffffffffffffffffffffffffff168152602001908152602001600020600101549050919050565b60085481565b610e106030611b7a91906141ea565b81565b6000600a60008373ffffffffffffffffffffffffffffffffffffffff1673ffffffffffffffffffffffffffffffffffffffff16815260200190815260200160002060000160009054906101000a900460ff169050919050565b600d8181548110611be657600080fd5b9060005260206000209060040201600091509050806000018054611c0990614352565b80601f0160208091040260200160405190810160405280929190818152602001828054611c3590614352565b8015611c825780601f10611c5757610100808354040283529160200191611c82565b820191906000526020600020905b815481529060010190602001808311611c6557829003601f168201915b5050505050908060010154908060020154908060030154905084565b60055481565b600260009054906101000a900473ffffffffffffffffffffffffffffffffffffffff1681565b601460009054906101000a900460ff1615611d1a576040517f08c379a0000000000000000000000000000000000000000000000000000000008152600401611d1190613cab565b60405180910390fd5b6001601460006101000a81548160ff02191690831515021790555042610e106030611d4591906141ea565b600854611d529190613ff2565b1115611d93576040517f08c379a0000000000000000000000000000000000000000000000000000000008152600401611d8a90613dab565b60405180910390fd5b426009541015611dd8576040517f08c379a0000000000000000000000000000000000000000000000000000000008152600401611dcf90613ccb565b60405180910390fd5b611de282826127ae565b5050565b600460009054906101000a900473ffffffffffffffffffffffffffffffffffffffff1681565b600360009054906101000a900473ffffffffffffffffffffffffffffffffffffffff1681565b610e106018611e4191906141ea565b610e106030611e5091906141ea565b611e5a9190613ff2565b81565b60065481565b6000429050600c60009054906101000a900460ff16611eb7576040517f08c379a0000000000000000000000000000000000000000000000000000000008152600401611eae90613f4b565b60405180910390fd5b600a60003373ffffffffffffffffffffffffffffffffffffffff1673ffffffffffffffffffffffffffffffffffffffff16815260200190815260200160002060000160009054906101000a900460ff1615611f47576040517f08c379a0000000000000000000000000000000000000000000000000000000008152600401611f3e90613ceb565b60405180910390fd5b8060085411158015611f745750610e106030611f6391906141ea565b600854611f709190613ff2565b8111155b611fb3576040517f08c379a0000000000000000000000000000000000000000000000000000000008152600401611faa90613eeb565b60405180910390fd5b8180600111158015611fc6575060058111155b612005576040517f08c379a0000000000000000000000000000000000000000000000000000000008152600401611ffc90613d0b565b60405180910390fd5b6000600260009054906101000a900473ffffffffffffffffffffffffffffffffffffffff1673ffffffffffffffffffffffffffffffffffffffff166360217267336040518263ffffffff1660e01b81526004016120629190613a15565b60206040518083038186803b15801561207a57600080fd5b505afa15801561208e573d6000803e3d6000fd5b505050506040513d601f19601f820116820180604052508101906120b29190613173565b905080600d83815481106120ef577f4e487b7100000000000000000000000000000000000000000000000000000000600052603260045260246000fd5b9060005260206000209060040201600101541115612142576040517f08c379a000000000000000000000000000000000000000000000000000000000815260040161213990613d8b565b60405180910390fd5b60026001541415612188576040517f08c379a000000000000000000000000000000000000000000000000000000000815260040161217f90613f2b565b60405180910390fd5b6002600181905550600260009054906101000a900473ffffffffffffffffffffffffffffffffffffffff1673ffffffffffffffffffffffffffffffffffffffff1663282d3fdf33610e1060a86121de91906141ea565b426121e99190613ff2565b6040518363ffffffff1660e01b8152600401612206929190613a67565b600060405180830381600087803b15801561222057600080fd5b505af1158015612234573d6000803e3d6000fd5b5050505061224233856127c8565b6001808190555050505050565b6122576127a6565b73ffffffffffffffffffffffffffffffffffffffff16612275611505565b73ffffffffffffffffffffffffffffffffffffffff16146122cb576040517f08c379a00000000000000000000000000000000000000000000000000000000081526004016122c290613e4b565b60405180910390fd5b600073ffffffffffffffffffffffffffffffffffffffff168173ffffffffffffffffffffffffffffffffffffffff16141561233b576040517f08c379a000000000000000000000000000000000000000000000000000000000815260040161233290613c8b565b60405180910390fd5b8073ffffffffffffffffffffffffffffffffffffffff1660008054906101000a900473ffffffffffffffffffffffffffffffffffffffff1673ffffffffffffffffffffffffffffffffffffffff167f8be0079c531659141344cd1fd0a4f28419497f9722a3daafe3b4186f6b6457e060405160405180910390a3806000806101000a81548173ffffffffffffffffffffffffffffffffffffffff021916908373ffffffffffffffffffffffffffffffffffffffff16021790555050565b60095481565b6124066127a6565b73ffffffffffffffffffffffffffffffffffffffff16612424611505565b73ffffffffffffffffffffffffffffffffffffffff161461247a576040517f08c379a000000000000000000000000000000000000000000000000000000000815260040161247190613e4b565b60405180910390fd5b600c60009054906101000a900460ff16156124ca576040517f08c379a00000000000000000000000000000000000000000000000000000000081526004016124c190613d4b565b60405180910390fd5b4281101561250d576040517f08c379a000000000000000000000000000000000000000000000000000000000815260040161250490613deb565b60405180910390fd5b80600881905550610e10601861252391906141ea565b610e10603061253291906141ea565b61253c9190613ff2565b6008546125499190613ff2565b600981905550600554600460009054906101000a900473ffffffffffffffffffffffffffffffffffffffff1673ffffffffffffffffffffffffffffffffffffffff166370a08231306040518263ffffffff1660e01b81526004016125ad9190613a15565b60206040518083038186803b1580156125c557600080fd5b505afa1580156125d9573d6000803e3d6000fd5b505050506040513d601f19601f820116820180604052508101906125fd9190613173565b101561263e576040517f08c379a000000000000000000000000000000000000000000000000000000000815260040161263590613e2b565b60405180910390fd5b7f537db03a5cf0f67e64e2a7515e45c28a71d041067e165fc95ee2ecde36e6532d600854600954604051612673929190613f86565b60405180910390a16001600c60006101000a81548160ff02191690831515021790555050565b600080915091565b60006011547f000000000000000000000000000000000000000000000000000000000000000073ffffffffffffffffffffffffffffffffffffffff166370a08231306040518263ffffffff1660e01b81526004016126ff9190613a15565b60206040518083038186803b15801561271757600080fd5b505afa15801561272b573d6000803e3d6000fd5b505050506040513d601f19601f8201168201806040525081019061274f9190613173565b1015612790576040517f08c379a000000000000000000000000000000000000000000000000000000000815260040161278790613d2b565b60405180910390fd5b61279f60105460115484612982565b9050919050565b600033905090565b81601281905550806013819055506127c4612ae3565b5050565b6001600a60008473ffffffffffffffffffffffffffffffffffffffff1673ffffffffffffffffffffffffffffffffffffffff16815260200190815260200160002060000160006101000a81548160ff02191690831515021790555080600a60008473ffffffffffffffffffffffffffffffffffffffff1673ffffffffffffffffffffffffffffffffffffffff168152602001908152602001600020600101819055506001600d82815481106128a6577f4e487b7100000000000000000000000000000000000000000000000000000000600052603260045260246000fd5b906000526020600020906004020160030160008282546128c69190613ff2565b92505081905550600b829080600181540180825580915050600190039060005260206000200160009091909190916101000a81548173ffffffffffffffffffffffffffffffffffffffff021916908373ffffffffffffffffffffffffffffffffffffffff1602179055503373ffffffffffffffffffffffffffffffffffffffff167ff6c60b059f60c86b2d612b237ac38bd87bc1f68f87600cd360d68351af1ca95f826040516129769190613f6b565b60405180910390a25050565b60007f000000000000000000000000000000000000000000000000000000000000000073ffffffffffffffffffffffffffffffffffffffff16634000aea07f00000000000000000000000000000000000000000000000000000000000000008587866040516020016129f5929190613b3b565b6040516020818303038152906040526040518463ffffffff1660e01b8152600401612a2293929190613a90565b602060405180830381600087803b158015612a3c57600080fd5b505af1158015612a50573d6000803e3d6000fd5b505050506040513d601f19601f82011682018060405250810190612a7491906130e5565b506000612a96858430600f60008a815260200190815260200160002054612b08565b90506001600f600087815260200190815260200160002054612ab89190613ff2565b600f600087815260200190815260200160002081905550612ad98582612b44565b9150509392505050565b6001601460016101000a81548160ff021916908315150217905550612b06612b77565b565b600084848484604051602001612b219493929190613b64565b6040516020818303038152906040528051906020012060001c9050949350505050565b60008282604051602001612b599291906139d4565b60405160208183030381529060405280519060200120905092915050565b6000612b81612c0b565b905060005b8151811015612c07576000828281518110612bca577f4e487b7100000000000000000000000000000000000000000000000000000000600052603260045260246000fd5b60200260200101519050600060029050612be382611b7d565b612bf257612bf182826127c8565b5b50508080612bff90614384565b915050612b86565b5050565b60606000612c1a601554612db0565b90508067ffffffffffffffff811115612c5c577f4e487b7100000000000000000000000000000000000000000000000000000000600052604160045260246000fd5b604051908082528060200260200182016040528015612c8a5781602001602082028036833780820191505090505b5091506000612c9d600060155484612dd2565b905060005b82811015612daa57600060166000848481518110612ce9577f4e487b7100000000000000000000000000000000000000000000000000000000600052603260045260246000fd5b6020026020010151815260200190815260200160002060009054906101000a900473ffffffffffffffffffffffffffffffffffffffff16905080858381518110612d5c577f4e487b7100000000000000000000000000000000000000000000000000000000600052603260045260246000fd5b602002602001019073ffffffffffffffffffffffffffffffffffffffff16908173ffffffffffffffffffffffffffffffffffffffff1681525050508080612da290614384565b915050612ca2565b50505090565b60006001606483612dc19190614048565b612dcb9190613ff2565b9050919050565b60608167ffffffffffffffff811115612e14577f4e487b7100000000000000000000000000000000000000000000000000000000600052604160045260246000fd5b604051908082528060200260200182016040528015612e425781602001602082028036833780820191505090505b5090506000601354905060008585612e5a9190614244565b905083811015612e9f576040517f08c379a0000000000000000000000000000000000000000000000000000000008152600401612e9690613ecb565b60405180910390fd5b600060fb905060005b85811015612fd05760008884600285612ec191906140cc565b87612ecc9190613ff2565b612ed69190614405565b612ee09190613ff2565b90506000805b600184612ef39190613ff2565b811015612f5e57878181518110612f33577f4e487b7100000000000000000000000000000000000000000000000000000000600052603260045260246000fd5b6020026020010151831415612f4b5760019150612f5e565b8080612f5690614384565b915050612ee6565b5080612fba5781878481518110612f9e577f4e487b7100000000000000000000000000000000000000000000000000000000600052603260045260246000fd5b602002602001018181525050600183612fb79190613ff2565b92505b600184612fc79190613ff2565b93505050612ea8565b505050509392505050565b600081359050612fea816144ee565b92915050565b600081519050612fff81614505565b92915050565b6000813590506130148161451c565b92915050565b60008135905061302981614533565b92915050565b60008151905061303e81614533565b92915050565b60006020828403121561305657600080fd5b600061306484828501612fdb565b91505092915050565b6000806040838503121561308057600080fd5b600061308e85828601612fdb565b925050602061309f85828601612fdb565b9150509250929050565b600080604083850312156130bc57600080fd5b60006130ca85828601612fdb565b92505060206130db8582860161301a565b9150509250929050565b6000602082840312156130f757600080fd5b600061310584828501612ff0565b91505092915050565b6000806040838503121561312157600080fd5b600061312f85828601613005565b92505060206131408582860161301a565b9150509250929050565b60006020828403121561315c57600080fd5b600061316a8482850161301a565b91505092915050565b60006020828403121561318557600080fd5b60006131938482850161302f565b91505092915050565b6131a581614278565b82525050565b6131bc6131b782614278565b6143cd565b82525050565b6131cb8161428a565b82525050565b6131da81614296565b82525050565b6131f16131ec82614296565b6143df565b82525050565b600061320282613faf565b61320c8185613fc5565b935061321c81856020860161431f565b613225816144c3565b840191505092915050565b613239816142d7565b82525050565b613248816142fb565b82525050565b600061325982613fba565b6132638185613fe1565b935061327381856020860161431f565b61327c816144c3565b840191505092915050565b6000613294601483613fe1565b91507f4e6f742056616c69642045746820416d6f756e740000000000000000000000006000830152602082019050919050565b60006132d4601b83613fe1565b91507f416c72656164792050617274696369706174656420496e2049444f00000000006000830152602082019050919050565b6000613314600e83613fe1565b91507f4e6f7420726567697374657265640000000000000000000000000000000000006000830152602082019050919050565b6000613354602683613fe1565b91507f4f776e61626c653a206e6577206f776e657220697320746865207a65726f206160008301527f64647265737300000000000000000000000000000000000000000000000000006020830152604082019050919050565b60006133ba601683613fe1565b91507f416c72656164792047656e657261746564204f6e6365000000000000000000006000830152602082019050919050565b60006133fa601383613fe1565b91507f526166666c653a204f7574204f662054696d65000000000000000000000000006000830152602082019050919050565b600061343a601283613fe1565b91507f416c7265616479207265676973746572656400000000000000000000000000006000830152602082019050919050565b600061347a600f83613fe1565b91507f696e76616c696420506f6f6c206e6f00000000000000000000000000000000006000830152602082019050919050565b60006134ba602b83613fe1565b91507f4e6f7420656e6f756768204c494e4b202d2066696c6c20636f6e74726163742060008301527f77697468206661756365740000000000000000000000000000000000000000006020830152604082019050919050565b6000613520601383613fe1565b91507f416c726561647920496e697469616c697a6564000000000000000000000000006000830152602082019050919050565b6000613560601183613fe1565b91507f416c7265616479205075726368617365640000000000000000000000000000006000830152602082019050919050565b60006135a0601d83613fe1565b91507f43616e277420506172746963697061746520696e2074686520506f6f6c0000006000830152602082019050919050565b60006135e0602083613fe1565b91507f526166666c653a2050617274696369706174696f6e204469646e277420456e646000830152602082019050919050565b6000613620601583613fe1565b91507f556e61626c6520546f205265636f7665722045746800000000000000000000006000830152602082019050919050565b6000613660601483613fe1565b91507f49444f2043616e277420426520696e20506173740000000000000000000000006000830152602082019050919050565b60006136a0602283613fe1565b91507f526166666c653a2050617274696369706174696f6e204469646e27742042656760008301527f696e0000000000000000000000000000000000000000000000000000000000006020830152604082019050919050565b6000613706601d83613fe1565b91507f4e6f7420456e6f75676820546f6b656e7320496e20436f6e74726163740000006000830152602082019050919050565b6000613746602083613fe1565b91507f4f776e61626c653a2063616c6c6572206973206e6f7420746865206f776e65726000830152602082019050919050565b6000613786601b83613fe1565b91507f526166666c653a2050617274696369706174696f6e20456e64656400000000006000830152602082019050919050565b60006137c6601f83613fe1565b91507f4f6e6c7920565246436f6f7264696e61746f722063616e2066756c66696c6c006000830152602082019050919050565b6000613806601483613fe1565b91507f56616c7565732043616e2774204265205a65726f0000000000000000000000006000830152602082019050919050565b6000613846600c83613fe1565b91507f496e76616c69642053697a6500000000000000000000000000000000000000006000830152602082019050919050565b6000613886601a83613fe1565b91507f4e6f7420696e20526567697374726174696f6e20506572696f640000000000006000830152602082019050919050565b60006138c6600083613fd6565b9150600082019050919050565b60006138e0601283613fe1565b91507f4e6f7420696e2053616c6520506572696f6400000000000000000000000000006000830152602082019050919050565b6000613920601f83613fe1565b91507f5265656e7472616e637947756172643a207265656e7472616e742063616c6c006000830152602082019050919050565b6000613960601383613fe1565b91507f4e6f7420496e697469616c697a656420596574000000000000000000000000006000830152602082019050919050565b61399c816142c0565b82525050565b6139b36139ae826142c0565b6143fb565b82525050565b60006139c582846131ab565b60148201915081905092915050565b60006139e082856131e0565b6020820191506139f082846139a2565b6020820191508190509392505050565b6000613a0b826138b9565b9150819050919050565b6000602082019050613a2a600083018461319c565b92915050565b6000606082019050613a45600083018661319c565b613a52602083018561319c565b613a5f6040830184613993565b949350505050565b6000604082019050613a7c600083018561319c565b613a896020830184613993565b9392505050565b6000606082019050613aa5600083018661319c565b613ab26020830185613993565b8181036040830152613ac481846131f7565b9050949350505050565b6000602082019050613ae360008301846131c2565b92915050565b6000606082019050613afe60008301866131c2565b613b0b6020830185613993565b613b1860408301846131c2565b949350505050565b6000602082019050613b3560008301846131d1565b92915050565b6000604082019050613b5060008301856131d1565b613b5d6020830184613993565b9392505050565b6000608082019050613b7960008301876131d1565b613b866020830186613993565b613b93604083018561319c565b613ba06060830184613993565b95945050505050565b6000602082019050613bbe6000830184613230565b92915050565b6000602082019050613bd9600083018461323f565b92915050565b60006080820190508181036000830152613bf9818761324e565b9050613c086020830186613993565b613c156040830185613993565b613c226060830184613993565b95945050505050565b60006020820190508181036000830152613c4481613287565b9050919050565b60006020820190508181036000830152613c64816132c7565b9050919050565b60006020820190508181036000830152613c8481613307565b9050919050565b60006020820190508181036000830152613ca481613347565b9050919050565b60006020820190508181036000830152613cc4816133ad565b9050919050565b60006020820190508181036000830152613ce4816133ed565b9050919050565b60006020820190508181036000830152613d048161342d565b9050919050565b60006020820190508181036000830152613d248161346d565b9050919050565b60006020820190508181036000830152613d44816134ad565b9050919050565b60006020820190508181036000830152613d6481613513565b9050919050565b60006020820190508181036000830152613d8481613553565b9050919050565b60006020820190508181036000830152613da481613593565b9050919050565b60006020820190508181036000830152613dc4816135d3565b9050919050565b60006020820190508181036000830152613de481613613565b9050919050565b60006020820190508181036000830152613e0481613653565b9050919050565b60006020820190508181036000830152613e2481613693565b9050919050565b60006020820190508181036000830152613e44816136f9565b9050919050565b60006020820190508181036000830152613e6481613739565b9050919050565b60006020820190508181036000830152613e8481613779565b9050919050565b60006020820190508181036000830152613ea4816137b9565b9050919050565b60006020820190508181036000830152613ec4816137f9565b9050919050565b60006020820190508181036000830152613ee481613839565b9050919050565b60006020820190508181036000830152613f0481613879565b9050919050565b60006020820190508181036000830152613f24816138d3565b9050919050565b60006020820190508181036000830152613f4481613913565b9050919050565b60006020820190508181036000830152613f6481613953565b9050919050565b6000602082019050613f806000830184613993565b92915050565b6000604082019050613f9b6000830185613993565b613fa86020830184613993565b9392505050565b600081519050919050565b600081519050919050565b600082825260208201905092915050565b600081905092915050565b600082825260208201905092915050565b6000613ffd826142c0565b9150614008836142c0565b9250827fffffffffffffffffffffffffffffffffffffffffffffffffffffffffffffffff0382111561403d5761403c614436565b5b828201905092915050565b6000614053826142c0565b915061405e836142c0565b92508261406e5761406d614465565b5b828204905092915050565b6000808291508390505b60018511156140c35780860481111561409f5761409e614436565b5b60018516156140ae5780820291505b80810290506140bc856144e1565b9450614083565b94509492505050565b60006140d7826142c0565b91506140e2836142ca565b925061410f7fffffffffffffffffffffffffffffffffffffffffffffffffffffffffffffffff8484614117565b905092915050565b60008261412757600190506141e3565b8161413557600090506141e3565b816001811461414b576002811461415557614184565b60019150506141e3565b60ff84111561416757614166614436565b5b8360020a91508482111561417e5761417d614436565b5b506141e3565b5060208310610133831016604e8410600b84101617156141b95782820a9050838111156141b4576141b3614436565b5b6141e3565b6141c68484846001614079565b925090508184048111156141dd576141dc614436565b5b81810290505b9392505050565b60006141f5826142c0565b9150614200836142c0565b9250817fffffffffffffffffffffffffffffffffffffffffffffffffffffffffffffffff048311821515161561423957614238614436565b5b828202905092915050565b600061424f826142c0565b915061425a836142c0565b92508282101561426d5761426c614436565b5b828203905092915050565b6000614283826142a0565b9050919050565b60008115159050919050565b6000819050919050565b600073ffffffffffffffffffffffffffffffffffffffff82169050919050565b6000819050919050565b600060ff82169050919050565b60006142e2826142e9565b9050919050565b60006142f4826142a0565b9050919050565b60006143068261430d565b9050919050565b6000614318826142a0565b9050919050565b60005b8381101561433d578082015181840152602081019050614322565b8381111561434c576000848401525b50505050565b6000600282049050600182168061436a57607f821691505b6020821081141561437e5761437d614494565b5b50919050565b600061438f826142c0565b91507fffffffffffffffffffffffffffffffffffffffffffffffffffffffffffffffff8214156143c2576143c1614436565b5b600182019050919050565b60006143d8826143e9565b9050919050565b6000819050919050565b60006143f4826144d4565b9050919050565b6000819050919050565b6000614410826142c0565b915061441b836142c0565b92508261442b5761442a614465565b5b828206905092915050565b7f4e487b7100000000000000000000000000000000000000000000000000000000600052601160045260246000fd5b7f4e487b7100000000000000000000000000000000000000000000000000000000600052601260045260246000fd5b7f4e487b7100000000000000000000000000000000000000000000000000000000600052602260045260246000fd5b6000601f19601f8301169050919050565b60008160601b9050919050565b60008160011c9050919050565b6144f781614278565b811461450257600080fd5b50565b61450e8161428a565b811461451957600080fd5b50565b61452581614296565b811461453057600080fd5b50565b61453c816142c0565b811461454757600080fd5b5056fea2646970667358221220b23c7f7497a354f72ff54b73c65d355e494b82b423944cc9584f3a97e79fe1b364736f6c63430008000033",
  "immutableReferences": {
    "2070": [
      {
        "length": 32,
        "start": 9896
      },
      {
        "length": 32,
        "start": 10630
      }
    ],
    "2072": [
      {
        "length": 32,
        "start": 5667
      },
      {
        "length": 32,
        "start": 10690
      }
    ]
  },
  "source": "// SPDX-License-Identifier: MIT\r\npragma solidity ^0.8.0;\r\n\r\nimport \"@chainlink/contracts/src/v0.8/dev/VRFConsumerBase.sol\";\r\nimport \"./IDO.sol\";\r\n\r\nabstract contract RandomTest is VRFConsumerBase {\r\n\r\n    bytes32 internal keyHash;\r\n    uint256 internal fee;\r\n    \r\n    bytes32 public reqId;\r\n    uint256 public randomResult;\r\n\r\n    bool isGeneratedOnce;\r\n    modifier once() {\r\n        require(!isGeneratedOnce, \"Already Generated Once\");\r\n        isGeneratedOnce = true;\r\n        _;\r\n    }\r\n\r\n    constructor () VRFConsumerBase (\r\n        0x8C7382F9D8f56b33781fE506E897a4F1e2d17255, // VRF Coordinator\r\n        0x326C977E6efc84E512bB9C30f76E30c160eD06FB  // LINK Token\r\n    ) {\r\n        keyHash = 0x6e75b569a01ef56d18cab6a8e71e6600d6ce853834d4a5748b720d06f878b3a4;\r\n        fee = 100000000000000; // 0.0001 LINK\r\n    }\r\n\r\n    /** \r\n     * Requests randomness from a user-provided seed\r\n     */\r\n    function _getRandomNumber(uint256 userProvidedSeed) internal returns (bytes32 requestId) {\r\n        require(LINK.balanceOf(address(this)) >= fee, \"Not enough LINK - fill contract with faucet\");\r\n        return requestRandomness(keyHash, fee, userProvidedSeed);\r\n    }\r\n\r\n    /**\r\n     * Callback function used by VRF Coordinator\r\n     */\r\n    function fulfillRandomness(bytes32 requestId, uint256 randomness) internal override {\r\n        reqId = requestId;\r\n        randomResult = randomness;\r\n        _afterGeneration();\r\n    }\r\n\r\n    bool _isFulfilled = false;\r\n    function isFulfilled() public view returns(bool) {\r\n        return _isFulfilled;\r\n    }\r\n\r\n    // Generating Multiple Random Numbers From a Single One\r\n    function _randomList(uint256 _from, uint256 _to, uint256 _size) internal view returns(uint256[] memory rands) {\r\n\r\n        rands = new uint256[](_size);\r\n        uint256 r = randomResult;\r\n        uint256 len = _to - _from;\r\n        \r\n        require(len >= _size, \"Invalid Size\");\r\n\r\n        uint256 i = 251;\r\n        uint256 count = 0;\r\n\r\n        while(count < _size) {\r\n            uint256 rand = (r + i**2) % len + _from;\r\n            bool exists = false;\r\n\r\n            for(uint256 j = 0; j < count + 1; j++) {\r\n                if (rand == rands[j]) {\r\n                    exists = true;\r\n                    break;\r\n                }\r\n            }\r\n\r\n            if(!exists) {\r\n                rands[count] = rand;\r\n                count += 1;\r\n            }\r\n\r\n            i += 1;\r\n        }\r\n    }\r\n\r\n    // This will execute after generation of Random Number\r\n    function _afterGeneration() internal virtual;\r\n\r\n}\r\n\r\ncontract RaffleWrapTest is IDO, RandomTest {\r\n\r\n    uint256 public ticketsSold; // No of tickets sold\r\n    mapping(uint256 => address) public ticketToOwner; // owner of a ticket\r\n    mapping(address => uint256) public addressToTicketCount; // No Of Tickets Owned By an Address\r\n    mapping(address => uint256[]) public addressToTicketsOwned; // Tickets That an address own\r\n\r\n    uint256 public ticketPrice = 3 * 10 ** 18; // Price of a ticket(no. of tokens)\r\n\r\n    modifier raffleParticipationPeriod() {\r\n        require(regStarts <= block.timestamp, \"Raffle: Participation Didn't Begin\");\r\n        require(regStarts + regDuration >= block.timestamp, \"Raffle: Participation Ended\");\r\n        _;\r\n    }\r\n\r\n    modifier raffleResultPeriod() {\r\n        require(regStarts + regDuration <= block.timestamp, \"Raffle: Participation Didn't End\");\r\n        require(saleStarts >= block.timestamp, \"Raffle: Out Of Time\");\r\n        _;\r\n    }\r\n\r\n    constructor (\r\n        address _stakerAddress,\r\n        address _nativeTokenAddress,\r\n        address _idoTokenAddress,\r\n        uint256 _idoAmount,\r\n        uint256 _price\r\n    ) IDO(\r\n        _stakerAddress,\r\n        _nativeTokenAddress,\r\n        _idoTokenAddress,\r\n        _idoAmount,\r\n        _price\r\n    ) {\r\n\r\n    }\r\n\r\n    \r\n    // Buy Tickets\r\n    function buyTickets(uint256 _noOfTickets) external raffleParticipationPeriod nonReentrant {\r\n        require(!getRegistrationStatus(msg.sender), \"Already Participated In IDO\");\r\n        uint256 nextTicket = ticketsSold;\r\n        nativeToken.transferFrom(msg.sender, owner(), _noOfTickets * ticketPrice);\r\n\r\n        for(uint256 i=0; i<_noOfTickets; i++) {\r\n            ticketToOwner[nextTicket + i] = msg.sender;\r\n            addressToTicketsOwned[msg.sender].push(nextTicket + i);\r\n        }\r\n\r\n        addressToTicketCount[msg.sender] += _noOfTickets;\r\n        ticketsSold += _noOfTickets;\r\n    }\r\n\r\n    function _raffleAllocation(address account) internal view override returns(uint256 tokens, uint256 price) {\r\n        \r\n    }\r\n\r\n    // Generates The Random Winners\r\n    function genRandom() external once raffleResultPeriod nonReentrant {\r\n        uint256 seed = uint256(keccak256(abi.encodePacked(msg.sender)));\r\n        _getRandomNumber(seed);\r\n    }\r\n\r\n    function fulfillTest(bytes32 requestId, uint256 randomness) once raffleResultPeriod external {\r\n        fulfillRandomness(requestId, randomness);\r\n    }\r\n\r\n    // Function Extended From Random Contract\r\n    function _afterGeneration() internal override {\r\n        _isFulfilled = true;\r\n        _executeRaffle();\r\n    }\r\n\r\n    // Raffle Entry For Winners\r\n    function _executeRaffle() internal {\r\n\r\n        address[] memory list = _getWinners();\r\n        for(uint256 i=0; i<list.length; i++) {\r\n            address account = list[i];\r\n            uint256 _poolNo = 2; // Raffle Entry Pool\r\n\r\n            if(!getRegistrationStatus(account)) _register(account, _poolNo);\r\n        }\r\n    }\r\n\r\n    // Gets The Address Of The Winners\r\n    function _getWinners() internal view returns(address[] memory list) {\r\n        uint256 n = _noOfWinners(ticketsSold);\r\n        list = new address[](n);\r\n        uint256[] memory winners = _randomList(0, ticketsSold, n);\r\n\r\n        for(uint256 i=0; i<n; i++) {\r\n            address winner = ticketToOwner[winners[i]];\r\n            list[i] = winner;\r\n        }\r\n    }\r\n\r\n    // Calculates The Number Of Winners\r\n    function _noOfWinners(uint256 _ticketsSold) internal pure returns(uint256) {\r\n        return _ticketsSold / 100 + 1;\r\n    }\r\n\r\n}",
  "sourcePath": "C:/Users/sudip/Desktop/RealProjects/PolyStarter/contracts/IDOStaker/RaffleWrapTest.sol",
  "compiler": {
    "name": "solc",
    "version": "0.8.0+commit.c7dfd78e.Emscripten.clang"
  },
  "schemaVersion": "3.3.4",
  "updatedAt": "2021-06-23T07:38:09.331Z",
  "devdoc": {
    "kind": "dev",
    "methods": {
      "owner()": {
        "details": "Returns the address of the current owner."
      },
      "renounceOwnership()": {
        "details": "Leaves the contract without owner. It will not be possible to call `onlyOwner` functions anymore. Can only be called by the current owner. NOTE: Renouncing ownership will leave the contract without an owner, thereby removing any functionality that is only available to the owner."
      },
      "transferOwnership(address)": {
        "details": "Transfers ownership of the contract to a new account (`newOwner`). Can only be called by the current owner."
      }
    },
    "version": 1
  },
  "userdoc": {
    "kind": "user",
    "methods": {},
    "version": 1
  }
}