{
  "contractName": "RaffleWrap",
  "abi": [
    {
      "inputs": [
        {
          "internalType": "address",
          "name": "_stakerAddress",
          "type": "address"
        },
        {
          "internalType": "address",
          "name": "_nativeTokenAddress",
          "type": "address"
        },
        {
          "internalType": "address",
          "name": "_idoTokenAddress",
          "type": "address"
        },
        {
          "internalType": "uint256",
          "name": "_idoAmount",
          "type": "uint256"
        },
        {
          "internalType": "uint256",
          "name": "_price",
          "type": "uint256"
        }
      ],
      "stateMutability": "nonpayable",
      "type": "constructor"
    },
    {
      "anonymous": false,
      "inputs": [
        {
          "indexed": false,
          "internalType": "uint256",
          "name": "regStart",
          "type": "uint256"
        },
        {
          "indexed": false,
          "internalType": "uint256",
          "name": "saleStart",
          "type": "uint256"
        }
      ],
      "name": "Initialization",
      "type": "event"
    },
    {
      "anonymous": false,
      "inputs": [
        {
          "indexed": true,
          "internalType": "address",
          "name": "previousOwner",
          "type": "address"
        },
        {
          "indexed": true,
          "internalType": "address",
          "name": "newOwner",
          "type": "address"
        }
      ],
      "name": "OwnershipTransferred",
      "type": "event"
    },
    {
      "anonymous": false,
      "inputs": [
        {
          "indexed": true,
          "internalType": "address",
          "name": "",
          "type": "address"
        },
        {
          "indexed": false,
          "internalType": "uint256",
          "name": "tokens",
          "type": "uint256"
        },
        {
          "indexed": false,
          "internalType": "uint256",
          "name": "price",
          "type": "uint256"
        }
      ],
      "name": "Purchase",
      "type": "event"
    },
    {
      "anonymous": false,
      "inputs": [
        {
          "indexed": true,
          "internalType": "address",
          "name": "account",
          "type": "address"
        },
        {
          "indexed": false,
          "internalType": "uint256",
          "name": "poolNo",
          "type": "uint256"
        }
      ],
      "name": "Registration",
      "type": "event"
    },
    {
      "inputs": [
        {
          "internalType": "address",
          "name": "",
          "type": "address"
        }
      ],
      "name": "addressToTicketCount",
      "outputs": [
        {
          "internalType": "uint256",
          "name": "",
          "type": "uint256"
        }
      ],
      "stateMutability": "view",
      "type": "function"
    },
    {
      "inputs": [
        {
          "internalType": "address",
          "name": "",
          "type": "address"
        },
        {
          "internalType": "uint256",
          "name": "",
          "type": "uint256"
        }
      ],
      "name": "addressToTicketsOwned",
      "outputs": [
        {
          "internalType": "uint256",
          "name": "",
          "type": "uint256"
        }
      ],
      "stateMutability": "view",
      "type": "function"
    },
    {
      "inputs": [],
      "name": "buyNow",
      "outputs": [],
      "stateMutability": "payable",
      "type": "function"
    },
    {
      "inputs": [
        {
          "internalType": "address",
          "name": "account",
          "type": "address"
        }
      ],
      "name": "getPoolNo",
      "outputs": [
        {
          "internalType": "uint256",
          "name": "",
          "type": "uint256"
        }
      ],
      "stateMutability": "view",
      "type": "function"
    },
    {
      "inputs": [],
      "name": "iStaker",
      "outputs": [
        {
          "internalType": "contract IStaker",
          "name": "",
          "type": "address"
        }
      ],
      "stateMutability": "view",
      "type": "function"
    },
    {
      "inputs": [],
      "name": "idoAmount",
      "outputs": [
        {
          "internalType": "uint256",
          "name": "",
          "type": "uint256"
        }
      ],
      "stateMutability": "view",
      "type": "function"
    },
    {
      "inputs": [],
      "name": "idoPrice",
      "outputs": [
        {
          "internalType": "uint256",
          "name": "",
          "type": "uint256"
        }
      ],
      "stateMutability": "view",
      "type": "function"
    },
    {
      "inputs": [],
      "name": "idoToken",
      "outputs": [
        {
          "internalType": "contract IERC20Metadata",
          "name": "",
          "type": "address"
        }
      ],
      "stateMutability": "view",
      "type": "function"
    },
    {
      "inputs": [
        {
          "internalType": "uint256",
          "name": "time",
          "type": "uint256"
        }
      ],
      "name": "initialize",
      "outputs": [],
      "stateMutability": "nonpayable",
      "type": "function"
    },
    {
      "inputs": [],
      "name": "isFulfilled",
      "outputs": [
        {
          "internalType": "bool",
          "name": "",
          "type": "bool"
        }
      ],
      "stateMutability": "view",
      "type": "function"
    },
    {
      "inputs": [],
      "name": "isInitialized",
      "outputs": [
        {
          "internalType": "bool",
          "name": "",
          "type": "bool"
        }
      ],
      "stateMutability": "view",
      "type": "function"
    },
    {
      "inputs": [],
      "name": "lockDuration",
      "outputs": [
        {
          "internalType": "uint256",
          "name": "",
          "type": "uint256"
        }
      ],
      "stateMutability": "view",
      "type": "function"
    },
    {
      "inputs": [],
      "name": "nativeToken",
      "outputs": [
        {
          "internalType": "contract IERC20Metadata",
          "name": "",
          "type": "address"
        }
      ],
      "stateMutability": "view",
      "type": "function"
    },
    {
      "inputs": [],
      "name": "owner",
      "outputs": [
        {
          "internalType": "address",
          "name": "",
          "type": "address"
        }
      ],
      "stateMutability": "view",
      "type": "function"
    },
    {
      "inputs": [
        {
          "internalType": "uint256",
          "name": "",
          "type": "uint256"
        }
      ],
      "name": "pools",
      "outputs": [
        {
          "internalType": "string",
          "name": "name",
          "type": "string"
        },
        {
          "internalType": "uint256",
          "name": "minNativeToken",
          "type": "uint256"
        },
        {
          "internalType": "uint256",
          "name": "weight",
          "type": "uint256"
        },
        {
          "internalType": "uint256",
          "name": "participants",
          "type": "uint256"
        }
      ],
      "stateMutability": "view",
      "type": "function"
    },
    {
      "inputs": [],
      "name": "randomResult",
      "outputs": [
        {
          "internalType": "uint256",
          "name": "",
          "type": "uint256"
        }
      ],
      "stateMutability": "view",
      "type": "function"
    },
    {
      "inputs": [
        {
          "internalType": "bytes32",
          "name": "requestId",
          "type": "bytes32"
        },
        {
          "internalType": "uint256",
          "name": "randomness",
          "type": "uint256"
        }
      ],
      "name": "rawFulfillRandomness",
      "outputs": [],
      "stateMutability": "nonpayable",
      "type": "function"
    },
    {
      "inputs": [
        {
          "internalType": "address",
          "name": "tokenAddress",
          "type": "address"
        },
        {
          "internalType": "address",
          "name": "to",
          "type": "address"
        }
      ],
      "name": "recoverERC20",
      "outputs": [],
      "stateMutability": "nonpayable",
      "type": "function"
    },
    {
      "inputs": [
        {
          "internalType": "address",
          "name": "to",
          "type": "address"
        }
      ],
      "name": "recoverEth",
      "outputs": [],
      "stateMutability": "nonpayable",
      "type": "function"
    },
    {
      "inputs": [],
      "name": "regDuration",
      "outputs": [
        {
          "internalType": "uint256",
          "name": "",
          "type": "uint256"
        }
      ],
      "stateMutability": "view",
      "type": "function"
    },
    {
      "inputs": [],
      "name": "regStarts",
      "outputs": [
        {
          "internalType": "uint256",
          "name": "",
          "type": "uint256"
        }
      ],
      "stateMutability": "view",
      "type": "function"
    },
    {
      "inputs": [
        {
          "internalType": "uint256",
          "name": "_poolNo",
          "type": "uint256"
        }
      ],
      "name": "register",
      "outputs": [],
      "stateMutability": "nonpayable",
      "type": "function"
    },
    {
      "inputs": [],
      "name": "renounceOwnership",
      "outputs": [],
      "stateMutability": "nonpayable",
      "type": "function"
    },
    {
      "inputs": [],
      "name": "reqId",
      "outputs": [
        {
          "internalType": "bytes32",
          "name": "",
          "type": "bytes32"
        }
      ],
      "stateMutability": "view",
      "type": "function"
    },
    {
      "inputs": [],
      "name": "saleDuration",
      "outputs": [
        {
          "internalType": "uint256",
          "name": "",
          "type": "uint256"
        }
      ],
      "stateMutability": "view",
      "type": "function"
    },
    {
      "inputs": [],
      "name": "saleStarts",
      "outputs": [
        {
          "internalType": "uint256",
          "name": "",
          "type": "uint256"
        }
      ],
      "stateMutability": "view",
      "type": "function"
    },
    {
      "inputs": [],
      "name": "saleStartsAfter",
      "outputs": [
        {
          "internalType": "uint256",
          "name": "",
          "type": "uint256"
        }
      ],
      "stateMutability": "view",
      "type": "function"
    },
    {
      "inputs": [],
      "name": "ticketPrice",
      "outputs": [
        {
          "internalType": "uint256",
          "name": "",
          "type": "uint256"
        }
      ],
      "stateMutability": "view",
      "type": "function"
    },
    {
      "inputs": [
        {
          "internalType": "uint256",
          "name": "",
          "type": "uint256"
        }
      ],
      "name": "ticketToOwner",
      "outputs": [
        {
          "internalType": "address",
          "name": "",
          "type": "address"
        }
      ],
      "stateMutability": "view",
      "type": "function"
    },
    {
      "inputs": [],
      "name": "ticketsSold",
      "outputs": [
        {
          "internalType": "uint256",
          "name": "",
          "type": "uint256"
        }
      ],
      "stateMutability": "view",
      "type": "function"
    },
    {
      "inputs": [
        {
          "internalType": "uint256",
          "name": "_poolNo",
          "type": "uint256"
        }
      ],
      "name": "tokensAndPrice",
      "outputs": [
        {
          "internalType": "uint256",
          "name": "",
          "type": "uint256"
        },
        {
          "internalType": "uint256",
          "name": "",
          "type": "uint256"
        }
      ],
      "stateMutability": "view",
      "type": "function"
    },
    {
      "inputs": [],
      "name": "totalWeight",
      "outputs": [
        {
          "internalType": "uint256",
          "name": "",
          "type": "uint256"
        }
      ],
      "stateMutability": "view",
      "type": "function"
    },
    {
      "inputs": [
        {
          "internalType": "address",
          "name": "newOwner",
          "type": "address"
        }
      ],
      "name": "transferOwnership",
      "outputs": [],
      "stateMutability": "nonpayable",
      "type": "function"
    },
    {
      "inputs": [],
      "name": "unit",
      "outputs": [
        {
          "internalType": "uint256",
          "name": "",
          "type": "uint256"
        }
      ],
      "stateMutability": "view",
      "type": "function"
    },
    {
      "inputs": [
        {
          "internalType": "address",
          "name": "",
          "type": "address"
        }
      ],
      "name": "userlog",
      "outputs": [
        {
          "internalType": "bool",
          "name": "isRegistered",
          "type": "bool"
        },
        {
          "internalType": "uint256",
          "name": "registeredPool",
          "type": "uint256"
        },
        {
          "internalType": "bool",
          "name": "purchased",
          "type": "bool"
        }
      ],
      "stateMutability": "view",
      "type": "function"
    },
    {
      "inputs": [
        {
          "internalType": "uint256",
          "name": "_noOfTickets",
          "type": "uint256"
        }
      ],
      "name": "buyTickets",
      "outputs": [],
      "stateMutability": "nonpayable",
      "type": "function"
    },
    {
      "inputs": [],
      "name": "genRandom",
      "outputs": [],
      "stateMutability": "nonpayable",
      "type": "function"
    },
    {
      "inputs": [],
      "name": "getWinners",
      "outputs": [
        {
          "internalType": "address[]",
          "name": "",
          "type": "address[]"
        }
      ],
      "stateMutability": "view",
      "type": "function"
    }
  ],
  "bytecode": "0x60c06040526000601260016101000a81548160ff0219169083151502179055506729a2241af62c00006017553480156200003857600080fd5b506040516200507a3803806200507a83398181016040528101906200005e91906200099a565b738c7382f9d8f56b33781fe506e897a4f1e2d1725573326c977e6efc84e512bb9c30f76e30c160ed06fb868686868660006200009f6200089d60201b60201c565b9050806000806101000a81548173ffffffffffffffffffffffffffffffffffffffff021916908373ffffffffffffffffffffffffffffffffffffffff1602179055508073ffffffffffffffffffffffffffffffffffffffff16600073ffffffffffffffffffffffffffffffffffffffff167f8be0079c531659141344cd1fd0a4f28419497f9722a3daafe3b4186f6b6457e060405160405180910390a3506001808190555084600260006101000a81548173ffffffffffffffffffffffffffffffffffffffff021916908373ffffffffffffffffffffffffffffffffffffffff16021790555083600360006101000a81548173ffffffffffffffffffffffffffffffffffffffff021916908373ffffffffffffffffffffffffffffffffffffffff16021790555082600460006101000a81548173ffffffffffffffffffffffffffffffffffffffff021916908373ffffffffffffffffffffffffffffffffffffffff16021790555081600581905550806006819055506000600360009054906101000a900473ffffffffffffffffffffffffffffffffffffffff1673ffffffffffffffffffffffffffffffffffffffff1663313ce5676040518163ffffffff1660e01b815260040160206040518083038186803b1580156200028057600080fd5b505afa15801562000295573d6000803e3d6000fd5b505050506040513d601f19601f82011682018060405250810190620002bb919062000a1c565b60ff169050600b60405180608001604052806040518060400160405280600481526020017f4e756c6c000000000000000000000000000000000000000000000000000000008152508152602001600081526020016000815260200160008152509080600181540180825580915050600190039060005260206000209060040201600090919091909150600082015181600001908051906020019062000362929190620008a5565b506020820151816001015560408201518160020155606082015181600301555050600b60405180608001604052806040518060400160405280600681526020017f4b6e696768740000000000000000000000000000000000000000000000000000815250815260200183600a620003da919062000aa3565b6064620003e8919062000be0565b81526020016002815260200160008152509080600181540180825580915050600190039060005260206000209060040201600090919091909150600082015181600001908051906020019062000440929190620008a5565b506020820151816001015560408201518160020155606082015181600301555050600b60405180608001604052806040518060400160405280600681526020017f426973686f700000000000000000000000000000000000000000000000000000815250815260200183600a620004b8919062000aa3565b6101f4620004c7919062000be0565b8152602001600381526020016000815250908060018154018082558091505060019003906000526020600020906004020160009091909190915060008201518160000190805190602001906200051f929190620008a5565b506020820151816001015560408201518160020155606082015181600301555050600b60405180608001604052806040518060400160405280600481526020017f526f6f6b00000000000000000000000000000000000000000000000000000000815250815260200183600a62000597919062000aa3565b6103e8620005a6919062000be0565b815260200160048152602001600081525090806001815401808255809150506001900390600052602060002090600402016000909190919091506000820151816000019080519060200190620005fe929190620008a5565b506020820151816001015560408201518160020155606082015181600301555050600b60405180608001604052806040518060400160405280600481526020017f4b696e6700000000000000000000000000000000000000000000000000000000815250815260200183600a62000676919062000aa3565b6107d062000685919062000be0565b815260200160058152602001600081525090806001815401808255809150506001900390600052602060002090600402016000909190919091506000820151816000019080519060200190620006dd929190620008a5565b506020820151816001015560408201518160020155606082015181600301555050600b60405180608001604052806040518060400160405280600581526020017f517565656e000000000000000000000000000000000000000000000000000000815250815260200183600a62000755919062000aa3565b610fa062000764919062000be0565b815260200160068152602001600081525090806001815401808255809150506001900390600052602060002090600402016000909190919091506000820151816000019080519060200190620007bc929190620008a5565b5060208201518160010155604082015181600201556060820151816003015550506014600c819055505050505050508173ffffffffffffffffffffffffffffffffffffffff1660a08173ffffffffffffffffffffffffffffffffffffffff1660601b815250508073ffffffffffffffffffffffffffffffffffffffff1660808173ffffffffffffffffffffffffffffffffffffffff1660601b8152505050507f6e75b569a01ef56d18cab6a8e71e6600d6ce853834d4a5748b720d06f878b3a460001b600e81905550655af3107a4000600f81905550505050505062000d7b565b600033905090565b828054620008b39062000c8c565b90600052602060002090601f016020900481019282620008d7576000855562000923565b82601f10620008f257805160ff191683800117855562000923565b8280016001018555821562000923579182015b828111156200092257825182559160200191906001019062000905565b5b50905062000932919062000936565b5090565b5b808211156200095157600081600090555060010162000937565b5090565b600081519050620009668162000d2d565b92915050565b6000815190506200097d8162000d47565b92915050565b600081519050620009948162000d61565b92915050565b600080600080600060a08688031215620009b357600080fd5b6000620009c38882890162000955565b9550506020620009d68882890162000955565b9450506040620009e98882890162000955565b9350506060620009fc888289016200096c565b925050608062000a0f888289016200096c565b9150509295509295909350565b60006020828403121562000a2f57600080fd5b600062000a3f8482850162000983565b91505092915050565b6000808291508390505b600185111562000a9a5780860481111562000a725762000a7162000cc2565b5b600185161562000a825780820291505b808102905062000a928562000d20565b945062000a52565b94509492505050565b600062000ab08262000c75565b915062000abd8362000c75565b925062000aec7fffffffffffffffffffffffffffffffffffffffffffffffffffffffffffffffff848462000af4565b905092915050565b60008262000b06576001905062000bd9565b8162000b16576000905062000bd9565b816001811462000b2f576002811462000b3a5762000b70565b600191505062000bd9565b60ff84111562000b4f5762000b4e62000cc2565b5b8360020a91508482111562000b695762000b6862000cc2565b5b5062000bd9565b5060208310610133831016604e8410600b841016171562000baa5782820a90508381111562000ba45762000ba362000cc2565b5b62000bd9565b62000bb9848484600162000a48565b9250905081840481111562000bd35762000bd262000cc2565b5b81810290505b9392505050565b600062000bed8262000c75565b915062000bfa8362000c75565b9250817fffffffffffffffffffffffffffffffffffffffffffffffffffffffffffffffff048311821515161562000c365762000c3562000cc2565b5b828202905092915050565b600062000c4e8262000c55565b9050919050565b600073ffffffffffffffffffffffffffffffffffffffff82169050919050565b6000819050919050565b600060ff82169050919050565b6000600282049050600182168062000ca557607f821691505b6020821081141562000cbc5762000cbb62000cf1565b5b50919050565b7f4e487b7100000000000000000000000000000000000000000000000000000000600052601160045260246000fd5b7f4e487b7100000000000000000000000000000000000000000000000000000000600052602260045260246000fd5b60008160011c9050919050565b62000d388162000c41565b811462000d4457600080fd5b50565b62000d528162000c75565b811462000d5e57600080fd5b50565b62000d6c8162000c7f565b811462000d7857600080fd5b50565b60805160601c60a05160601c6142c562000db56000396000818161141101526127ae015260008181612352015261277201526142c56000f3fe6080604052600436106102255760003560e01c8063907af6c011610123578063c4f34fab116100ab578063e76eda861161006f578063e76eda86146107e8578063f207564e14610813578063f2fde38b1461083c578063f3f40af214610865578063fe4b84df1461089057610225565b8063c4f34fab14610711578063cd80fe0d1461073c578063d6cd82bc14610767578063df15c37e14610792578063e1758bd8146107bd57610225565b80639e6e9d0f116100f25780639e6e9d0f14610613578063a158226d14610650578063a25dd1301461067b578063ac4afa38146106a6578063bf383450146106e657610225565b8063907af6c01461058a57806394985ddd146105b557806396c82e57146105de5780639c3962f01461060957610225565b806345a28e06116101b15780637acaea9b116101755780637acaea9b146104a3578063886f039a146104e05780638997ce4e146105095780638da5cb5b146105345780638f15024f1461055f57610225565b806345a28e06146103d057806351622cd01461040f57806366a30cb61461044c578063715018a6146104635780637504db3e1461047a57610225565b80632f366637116101f85780632f366637146102fb5780633711d9fb14610324578063385a9c371461034f578063392e53cd1461037a57806342619f66146103a557610225565b8063045544431461022a5780631209b1f614610255578063236bcd58146102805780632b08e824146102be575b600080fd5b34801561023657600080fd5b5061023f6108b9565b60405161024c9190613c15565b60405180910390f35b34801561026157600080fd5b5061026a6108ca565b6040516102779190613c15565b60405180910390f35b34801561028c57600080fd5b506102a760048036038101906102a29190612daa565b6108d0565b6040516102b5929190613c30565b60405180910390f35b3480156102ca57600080fd5b506102e560048036038101906102e09190612daa565b610a56565b6040516102f291906136bd565b60405180910390f35b34801561030757600080fd5b50610322600480360381019061031d9190612daa565b610a89565b005b34801561033057600080fd5b50610339610d50565b6040516103469190613c15565b60405180910390f35b34801561035b57600080fd5b50610364610d61565b6040516103719190613798565b60405180910390f35b34801561038657600080fd5b5061038f610d78565b60405161039c9190613798565b60405180910390f35b3480156103b157600080fd5b506103ba610d8b565b6040516103c79190613c15565b60405180910390f35b3480156103dc57600080fd5b506103f760048036038101906103f29190612ca4565b610d91565b604051610406939291906137b3565b60405180910390f35b34801561041b57600080fd5b5061043660048036038101906104319190612ca4565b610dd5565b6040516104439190613c15565b60405180910390f35b34801561045857600080fd5b50610461610ded565b005b34801561046f57600080fd5b50610478610fa2565b005b34801561048657600080fd5b506104a1600480360381019061049c9190612ca4565b6110dc565b005b3480156104af57600080fd5b506104ca60048036038101906104c59190612d09565b611208565b6040516104d79190613c15565b60405180910390f35b3480156104ec57600080fd5b5061050760048036038101906105029190612ccd565b611239565b005b34801561051557600080fd5b5061051e6113d5565b60405161052b91906137ea565b60405180910390f35b34801561054057600080fd5b506105496113db565b60405161055691906136bd565b60405180910390f35b34801561056b57600080fd5b50610574611404565b6040516105819190613c15565b60405180910390f35b34801561059657600080fd5b5061059f61140a565b6040516105ac9190613c15565b60405180910390f35b3480156105c157600080fd5b506105dc60048036038101906105d79190612d6e565b61140f565b005b3480156105ea57600080fd5b506105f36114ab565b6040516106009190613c15565b60405180910390f35b6106116114b1565b005b34801561061f57600080fd5b5061063a60048036038101906106359190612ca4565b6118f1565b6040516106479190613c15565b60405180910390f35b34801561065c57600080fd5b5061066561193d565b6040516106729190613c15565b60405180910390f35b34801561068757600080fd5b50610690611943565b60405161069d9190613c15565b60405180910390f35b3480156106b257600080fd5b506106cd60048036038101906106c89190612daa565b611954565b6040516106dd94939291906138a9565b60405180910390f35b3480156106f257600080fd5b506106fb611a1c565b6040516107089190613c15565b60405180910390f35b34801561071d57600080fd5b50610726611a22565b604051610733919061388e565b60405180910390f35b34801561074857600080fd5b50610751611a48565b60405161075e9190613c15565b60405180910390f35b34801561077357600080fd5b5061077c611a4e565b6040516107899190613873565b60405180910390f35b34801561079e57600080fd5b506107a7611a74565b6040516107b49190613776565b60405180910390f35b3480156107c957600080fd5b506107d2611aca565b6040516107df9190613873565b60405180910390f35b3480156107f457600080fd5b506107fd611af0565b60405161080a9190613c15565b60405180910390f35b34801561081f57600080fd5b5061083a60048036038101906108359190612daa565b611b19565b005b34801561084857600080fd5b50610863600480360381019061085e9190612ca4565b611f03565b005b34801561087157600080fd5b5061087a6120ac565b6040516108879190613c15565b60405180910390f35b34801561089c57600080fd5b506108b760048036038101906108b29190612daa565b6120b2565b005b600160a86108c79190613f18565b81565b60175481565b6000806000600b848154811061090f577f4e487b7100000000000000000000000000000000000000000000000000000000600052603260045260246000fd5b906000526020600020906004020190506000841480610932575060008160030154145b15610944576000809250925050610a51565b6000600460009054906101000a900473ffffffffffffffffffffffffffffffffffffffff1673ffffffffffffffffffffffffffffffffffffffff1663313ce5676040518163ffffffff1660e01b815260040160206040518083038186803b1580156109ae57600080fd5b505afa1580156109c2573d6000803e3d6000fd5b505050506040513d601f19601f820116820180604052508101906109e69190612dfc565b60ff16905060008260030154600c546109ff9190613f18565b8360020154600554610a119190613f18565b610a1b9190613d2b565b9050600082600a610a2c9190613daf565b60065483610a3a9190613f18565b610a449190613d2b565b9050818195509550505050505b915091565b60146020528060005260406000206000915054906101000a900473ffffffffffffffffffffffffffffffffffffffff1681565b426007541015610ace576040517f08c379a0000000000000000000000000000000000000000000000000000000008152600401610ac590613b15565b60405180910390fd5b60026001541415610b14576040517f08c379a0000000000000000000000000000000000000000000000000000000008152600401610b0b90613bd5565b60405180910390fd5b600260018190555060006013549050600360009054906101000a900473ffffffffffffffffffffffffffffffffffffffff1673ffffffffffffffffffffffffffffffffffffffff166323b872dd33610b6a6113db565b60175486610b789190613f18565b6040518463ffffffff1660e01b8152600401610b96939291906136d8565b602060405180830381600087803b158015610bb057600080fd5b505af1158015610bc4573d6000803e3d6000fd5b505050506040513d601f19601f82011682018060405250810190610be89190612d45565b5060005b82811015610cd55733601460008385610c059190613cd5565b815260200190815260200160002060006101000a81548173ffffffffffffffffffffffffffffffffffffffff021916908373ffffffffffffffffffffffffffffffffffffffff160217905550601660003373ffffffffffffffffffffffffffffffffffffffff1673ffffffffffffffffffffffffffffffffffffffff1681526020019081526020016000208183610c9c9190613cd5565b90806001815401808255809150506001900390600052602060002001600090919091909150558080610ccd906140b2565b915050610bec565b5081601560003373ffffffffffffffffffffffffffffffffffffffff1673ffffffffffffffffffffffffffffffffffffffff1681526020019081526020016000206000828254610d259190613cd5565b925050819055508160136000828254610d3e9190613cd5565b92505081905550506001808190555050565b6001600c610d5e9190613f18565b81565b6000601260019054906101000a900460ff16905090565b600a60009054906101000a900460ff1681565b60115481565b60096020528060005260406000206000915090508060000160009054906101000a900460ff16908060010154908060020160009054906101000a900460ff16905083565b60156020528060005260406000206000915090505481565b601260009054906101000a900460ff1615610e3d576040517f08c379a0000000000000000000000000000000000000000000000000000000008152600401610e3490613975565b60405180910390fd5b6001601260006101000a81548160ff0219169083151502179055504260075411158015610e765750600a60009054906101000a900460ff165b610eb5576040517f08c379a0000000000000000000000000000000000000000000000000000000008152600401610eac90613915565b60405180910390fd5b4260016030610ec49190613f18565b600754610ed19190613cd5565b1015610f12576040517f08c379a0000000000000000000000000000000000000000000000000000000008152600401610f0990613995565b60405180910390fd5b60026001541415610f58576040517f08c379a0000000000000000000000000000000000000000000000000000000008152600401610f4f90613bd5565b60405180910390fd5b6002600181905550600033604051602001610f739190613661565b6040516020818303038152906040528051906020012060001c9050610f978161234b565b505060018081905550565b610faa612450565b73ffffffffffffffffffffffffffffffffffffffff16610fc86113db565b73ffffffffffffffffffffffffffffffffffffffff161461101e576040517f08c379a000000000000000000000000000000000000000000000000000000000815260040161101590613ad5565b60405180910390fd5b600073ffffffffffffffffffffffffffffffffffffffff1660008054906101000a900473ffffffffffffffffffffffffffffffffffffffff1673ffffffffffffffffffffffffffffffffffffffff167f8be0079c531659141344cd1fd0a4f28419497f9722a3daafe3b4186f6b6457e060405160405180910390a360008060006101000a81548173ffffffffffffffffffffffffffffffffffffffff021916908373ffffffffffffffffffffffffffffffffffffffff160217905550565b6110e4612450565b73ffffffffffffffffffffffffffffffffffffffff166111026113db565b73ffffffffffffffffffffffffffffffffffffffff1614611158576040517f08c379a000000000000000000000000000000000000000000000000000000000815260040161114f90613ad5565b60405180910390fd5b60008173ffffffffffffffffffffffffffffffffffffffff164760405161117e906136a8565b60006040518083038185875af1925050503d80600081146111bb576040519150601f19603f3d011682016040523d82523d6000602084013e6111c0565b606091505b5050905080611204576040517f08c379a00000000000000000000000000000000000000000000000000000000081526004016111fb90613a75565b60405180910390fd5b5050565b6016602052816000526040600020818154811061122457600080fd5b90600052602060002001600091509150505481565b611241612450565b73ffffffffffffffffffffffffffffffffffffffff1661125f6113db565b73ffffffffffffffffffffffffffffffffffffffff16146112b5576040517f08c379a00000000000000000000000000000000000000000000000000000000081526004016112ac90613ad5565b60405180910390fd5b60008290508073ffffffffffffffffffffffffffffffffffffffff1663a9059cbb838373ffffffffffffffffffffffffffffffffffffffff166370a08231306040518263ffffffff1660e01b815260040161131091906136bd565b60206040518083038186803b15801561132857600080fd5b505afa15801561133c573d6000803e3d6000fd5b505050506040513d601f19601f820116820180604052508101906113609190612dd3565b6040518363ffffffff1660e01b815260040161137d92919061370f565b602060405180830381600087803b15801561139757600080fd5b505af11580156113ab573d6000803e3d6000fd5b505050506040513d601f19601f820116820180604052508101906113cf9190612d45565b50505050565b60105481565b60008060009054906101000a900473ffffffffffffffffffffffffffffffffffffffff16905090565b60135481565b600181565b7f000000000000000000000000000000000000000000000000000000000000000073ffffffffffffffffffffffffffffffffffffffff163373ffffffffffffffffffffffffffffffffffffffff161461149d576040517f08c379a000000000000000000000000000000000000000000000000000000000815260040161149490613af5565b60405180910390fd5b6114a78282612458565b5050565b600c5481565b6000429050600a60009054906101000a900460ff16611505576040517f08c379a00000000000000000000000000000000000000000000000000000000081526004016114fc90613bf5565b60405180910390fd5b600960003373ffffffffffffffffffffffffffffffffffffffff1673ffffffffffffffffffffffffffffffffffffffff16815260200190815260200160002060000160009054906101000a900460ff16611594576040517f08c379a000000000000000000000000000000000000000000000000000000000815260040161158b90613935565b60405180910390fd5b600960003373ffffffffffffffffffffffffffffffffffffffff1673ffffffffffffffffffffffffffffffffffffffff16815260200190815260200160002060020160009054906101000a900460ff1615611624576040517f08c379a000000000000000000000000000000000000000000000000000000000815260040161161b90613a35565b60405180910390fd5b806008541115801561165057506001600c61163f9190613f18565b60085461164c9190613cd5565b8111155b61168f576040517f08c379a000000000000000000000000000000000000000000000000000000000815260040161168690613bb5565b60405180910390fd5b600260015414156116d5576040517f08c379a00000000000000000000000000000000000000000000000000000000081526004016116cc90613bd5565b60405180910390fd5b60026001819055506000600960003373ffffffffffffffffffffffffffffffffffffffff1673ffffffffffffffffffffffffffffffffffffffff168152602001908152602001600020905060008061173083600101546108d0565b9150915060008114158015611746575060008214155b611785576040517f08c379a000000000000000000000000000000000000000000000000000000000815260040161177c90613b35565b60405180910390fd5b3481146117c7576040517f08c379a00000000000000000000000000000000000000000000000000000000081526004016117be906138f5565b60405180910390fd5b60018360020160006101000a81548160ff021916908315150217905550600460009054906101000a900473ffffffffffffffffffffffffffffffffffffffff1673ffffffffffffffffffffffffffffffffffffffff1663a9059cbb33846040518363ffffffff1660e01b815260040161184192919061370f565b602060405180830381600087803b15801561185b57600080fd5b505af115801561186f573d6000803e3d6000fd5b505050506040513d601f19601f820116820180604052508101906118939190612d45565b503373ffffffffffffffffffffffffffffffffffffffff167f12cb4648cf3058b17ceeb33e579f8b0bc269fe0843f3900b8e24b6c54871703c83836040516118dc929190613c30565b60405180910390a25050506001808190555050565b6000600960008373ffffffffffffffffffffffffffffffffffffffff1673ffffffffffffffffffffffffffffffffffffffff168152602001908152602001600020600101549050919050565b60075481565b600160306119519190613f18565b81565b600b818154811061196457600080fd5b906000526020600020906004020160009150905080600001805461198790614080565b80601f01602080910402602001604051908101604052809291908181526020018280546119b390614080565b8015611a005780601f106119d557610100808354040283529160200191611a00565b820191906000526020600020905b8154815290600101906020018083116119e357829003601f168201915b5050505050908060010154908060020154908060030154905084565b60055481565b600260009054906101000a900473ffffffffffffffffffffffffffffffffffffffff1681565b60065481565b600460009054906101000a900473ffffffffffffffffffffffffffffffffffffffff1681565b6060611a7e610d61565b611abd576040517f08c379a0000000000000000000000000000000000000000000000000000000008152600401611ab490613b55565b60405180910390fd5b611ac5612472565b905090565b600360009054906101000a900473ffffffffffffffffffffffffffffffffffffffff1681565b60016018611afe9190613f18565b60016030611b0c9190613f18565b611b169190613cd5565b81565b6000429050600a60009054906101000a900460ff16611b6d576040517f08c379a0000000000000000000000000000000000000000000000000000000008152600401611b6490613bf5565b60405180910390fd5b600960003373ffffffffffffffffffffffffffffffffffffffff1673ffffffffffffffffffffffffffffffffffffffff16815260200190815260200160002060000160009054906101000a900460ff1615611bfd576040517f08c379a0000000000000000000000000000000000000000000000000000000008152600401611bf4906139b5565b60405180910390fd5b8060075411158015611c29575060016030611c189190613f18565b600754611c259190613cd5565b8111155b611c68576040517f08c379a0000000000000000000000000000000000000000000000000000000008152600401611c5f90613b95565b60405180910390fd5b8180600111158015611c7b575060058111155b611cba576040517f08c379a0000000000000000000000000000000000000000000000000000000008152600401611cb1906139d5565b60405180910390fd5b6000600260009054906101000a900473ffffffffffffffffffffffffffffffffffffffff1673ffffffffffffffffffffffffffffffffffffffff166360217267336040518263ffffffff1660e01b8152600401611d1791906136bd565b60206040518083038186803b158015611d2f57600080fd5b505afa158015611d43573d6000803e3d6000fd5b505050506040513d601f19601f82011682018060405250810190611d679190612dd3565b905080600b8381548110611da4577f4e487b7100000000000000000000000000000000000000000000000000000000600052603260045260246000fd5b9060005260206000209060040201600101541115611df7576040517f08c379a0000000000000000000000000000000000000000000000000000000008152600401611dee90613a55565b60405180910390fd5b60026001541415611e3d576040517f08c379a0000000000000000000000000000000000000000000000000000000008152600401611e3490613bd5565b60405180910390fd5b6002600181905550600260009054906101000a900473ffffffffffffffffffffffffffffffffffffffff1673ffffffffffffffffffffffffffffffffffffffff1663282d3fdf33600160a8611e929190613f18565b42611e9d9190613cd5565b6040518363ffffffff1660e01b8152600401611eba92919061370f565b600060405180830381600087803b158015611ed457600080fd5b505af1158015611ee8573d6000803e3d6000fd5b50505050611ef63385612617565b6001808190555050505050565b611f0b612450565b73ffffffffffffffffffffffffffffffffffffffff16611f296113db565b73ffffffffffffffffffffffffffffffffffffffff1614611f7f576040517f08c379a0000000000000000000000000000000000000000000000000000000008152600401611f7690613ad5565b60405180910390fd5b600073ffffffffffffffffffffffffffffffffffffffff168173ffffffffffffffffffffffffffffffffffffffff161415611fef576040517f08c379a0000000000000000000000000000000000000000000000000000000008152600401611fe690613955565b60405180910390fd5b8073ffffffffffffffffffffffffffffffffffffffff1660008054906101000a900473ffffffffffffffffffffffffffffffffffffffff1673ffffffffffffffffffffffffffffffffffffffff167f8be0079c531659141344cd1fd0a4f28419497f9722a3daafe3b4186f6b6457e060405160405180910390a3806000806101000a81548173ffffffffffffffffffffffffffffffffffffffff021916908373ffffffffffffffffffffffffffffffffffffffff16021790555050565b60085481565b6120ba612450565b73ffffffffffffffffffffffffffffffffffffffff166120d86113db565b73ffffffffffffffffffffffffffffffffffffffff161461212e576040517f08c379a000000000000000000000000000000000000000000000000000000000815260040161212590613ad5565b60405180910390fd5b600a60009054906101000a900460ff161561217e576040517f08c379a000000000000000000000000000000000000000000000000000000000815260040161217590613a15565b60405180910390fd5b428110156121c1576040517f08c379a00000000000000000000000000000000000000000000000000000000081526004016121b890613a95565b60405180910390fd5b80600781905550600160186121d69190613f18565b600160306121e49190613f18565b6121ee9190613cd5565b6007546121fb9190613cd5565b600881905550600554600460009054906101000a900473ffffffffffffffffffffffffffffffffffffffff1673ffffffffffffffffffffffffffffffffffffffff166370a08231306040518263ffffffff1660e01b815260040161225f91906136bd565b60206040518083038186803b15801561227757600080fd5b505afa15801561228b573d6000803e3d6000fd5b505050506040513d601f19601f820116820180604052508101906122af9190612dd3565b10156122f0576040517f08c379a00000000000000000000000000000000000000000000000000000000081526004016122e790613ab5565b60405180910390fd5b7f537db03a5cf0f67e64e2a7515e45c28a71d041067e165fc95ee2ecde36e6532d600754600854604051612325929190613c30565b60405180910390a16001600a60006101000a81548160ff02191690831515021790555050565b6000600f547f000000000000000000000000000000000000000000000000000000000000000073ffffffffffffffffffffffffffffffffffffffff166370a08231306040518263ffffffff1660e01b81526004016123a991906136bd565b60206040518083038186803b1580156123c157600080fd5b505afa1580156123d5573d6000803e3d6000fd5b505050506040513d601f19601f820116820180604052508101906123f99190612dd3565b101561243a576040517f08c379a0000000000000000000000000000000000000000000000000000000008152600401612431906139f5565b60405180910390fd5b612449600e54600f548461276e565b9050919050565b600033905090565b816010819055508060118190555061246e6128cf565b5050565b606060006124816013546128f4565b90508067ffffffffffffffff8111156124c3577f4e487b7100000000000000000000000000000000000000000000000000000000600052604160045260246000fd5b6040519080825280602002602001820160405280156124f15781602001602082028036833780820191505090505b5091506000612504600060135484612916565b905060005b8281101561261157600060146000848481518110612550577f4e487b7100000000000000000000000000000000000000000000000000000000600052603260045260246000fd5b6020026020010151815260200190815260200160002060009054906101000a900473ffffffffffffffffffffffffffffffffffffffff169050808583815181106125c3577f4e487b7100000000000000000000000000000000000000000000000000000000600052603260045260246000fd5b602002602001019073ffffffffffffffffffffffffffffffffffffffff16908173ffffffffffffffffffffffffffffffffffffffff1681525050508080612609906140b2565b915050612509565b50505090565b6001600960008473ffffffffffffffffffffffffffffffffffffffff1673ffffffffffffffffffffffffffffffffffffffff16815260200190815260200160002060000160006101000a81548160ff02191690831515021790555080600960008473ffffffffffffffffffffffffffffffffffffffff1673ffffffffffffffffffffffffffffffffffffffff168152602001908152602001600020600101819055506001600b82815481106126f5577f4e487b7100000000000000000000000000000000000000000000000000000000600052603260045260246000fd5b906000526020600020906004020160030160008282546127159190613cd5565b925050819055503373ffffffffffffffffffffffffffffffffffffffff167ff6c60b059f60c86b2d612b237ac38bd87bc1f68f87600cd360d68351af1ca95f826040516127629190613c15565b60405180910390a25050565b60007f000000000000000000000000000000000000000000000000000000000000000073ffffffffffffffffffffffffffffffffffffffff16634000aea07f00000000000000000000000000000000000000000000000000000000000000008587866040516020016127e1929190613805565b6040516020818303038152906040526040518463ffffffff1660e01b815260040161280e93929190613738565b602060405180830381600087803b15801561282857600080fd5b505af115801561283c573d6000803e3d6000fd5b505050506040513d601f19601f820116820180604052508101906128609190612d45565b506000612882858430600d60008a815260200190815260200160002054612b1f565b90506001600d6000878152602001908152602001600020546128a49190613cd5565b600d6000878152602001908152602001600020819055506128c58582612b5b565b9150509392505050565b6001601260016101000a81548160ff0219169083151502179055506128f2612b8e565b565b600060016064836129059190613d2b565b61290f9190613cd5565b9050919050565b60608167ffffffffffffffff811115612958577f4e487b7100000000000000000000000000000000000000000000000000000000600052604160045260246000fd5b6040519080825280602002602001820160405280156129865781602001602082028036833780820191505090505b509050600060115490506000858561299e9190613f72565b9050838110156129e3576040517f08c379a00000000000000000000000000000000000000000000000000000000081526004016129da90613b75565b60405180910390fd5b600060fb905060005b85811015612b145760008884600285612a059190613dfa565b87612a109190613cd5565b612a1a9190614133565b612a249190613cd5565b90506000805b600184612a379190613cd5565b811015612aa257878181518110612a77577f4e487b7100000000000000000000000000000000000000000000000000000000600052603260045260246000fd5b6020026020010151831415612a8f5760019150612aa2565b8080612a9a906140b2565b915050612a2a565b5080612afe5781878481518110612ae2577f4e487b7100000000000000000000000000000000000000000000000000000000600052603260045260246000fd5b602002602001018181525050600183612afb9190613cd5565b92505b600184612b0b9190613cd5565b935050506129ec565b505050509392505050565b600084848484604051602001612b38949392919061382e565b6040516020818303038152906040528051906020012060001c9050949350505050565b60008282604051602001612b7092919061367c565b60405160208183030381529060405280519060200120905092915050565b6000612b98612472565b905060005b8151811015612c22576000828281518110612be1577f4e487b7100000000000000000000000000000000000000000000000000000000600052603260045260246000fd5b602002602001015190506000600290506000612bfc836118f1565b1415612c0d57612c0c8282612617565b5b50508080612c1a906140b2565b915050612b9d565b5050565b600081359050612c358161421c565b92915050565b600081519050612c4a81614233565b92915050565b600081359050612c5f8161424a565b92915050565b600081359050612c7481614261565b92915050565b600081519050612c8981614261565b92915050565b600081519050612c9e81614278565b92915050565b600060208284031215612cb657600080fd5b6000612cc484828501612c26565b91505092915050565b60008060408385031215612ce057600080fd5b6000612cee85828601612c26565b9250506020612cff85828601612c26565b9150509250929050565b60008060408385031215612d1c57600080fd5b6000612d2a85828601612c26565b9250506020612d3b85828601612c65565b9150509250929050565b600060208284031215612d5757600080fd5b6000612d6584828501612c3b565b91505092915050565b60008060408385031215612d8157600080fd5b6000612d8f85828601612c50565b9250506020612da085828601612c65565b9150509250929050565b600060208284031215612dbc57600080fd5b6000612dca84828501612c65565b91505092915050565b600060208284031215612de557600080fd5b6000612df384828501612c7a565b91505092915050565b600060208284031215612e0e57600080fd5b6000612e1c84828501612c8f565b91505092915050565b6000612e318383612e3d565b60208301905092915050565b612e4681613fa6565b82525050565b612e5581613fa6565b82525050565b612e6c612e6782613fa6565b6140fb565b82525050565b6000612e7d82613c69565b612e878185613c97565b9350612e9283613c59565b8060005b83811015612ec3578151612eaa8882612e25565b9750612eb583613c8a565b925050600181019050612e96565b5085935050505092915050565b612ed981613fb8565b82525050565b612ee881613fc4565b82525050565b612eff612efa82613fc4565b61410d565b82525050565b6000612f1082613c74565b612f1a8185613ca8565b9350612f2a81856020860161404d565b612f33816141f1565b840191505092915050565b612f4781614005565b82525050565b612f5681614029565b82525050565b6000612f6782613c7f565b612f718185613cc4565b9350612f8181856020860161404d565b612f8a816141f1565b840191505092915050565b6000612fa2601483613cc4565b91507f4e6f742056616c69642045746820416d6f756e740000000000000000000000006000830152602082019050919050565b6000612fe2601c83613cc4565b91507f526567697374726174696f6e204e6f74205374617274656420596574000000006000830152602082019050919050565b6000613022600e83613cc4565b91507f4e6f7420726567697374657265640000000000000000000000000000000000006000830152602082019050919050565b6000613062602683613cc4565b91507f4f776e61626c653a206e6577206f776e657220697320746865207a65726f206160008301527f64647265737300000000000000000000000000000000000000000000000000006020830152604082019050919050565b60006130c8601683613cc4565b91507f416c72656164792047656e657261746564204f6e6365000000000000000000006000830152602082019050919050565b6000613108601283613cc4565b91507f526567697374726174696f6e20456e64656400000000000000000000000000006000830152602082019050919050565b6000613148601283613cc4565b91507f416c7265616479207265676973746572656400000000000000000000000000006000830152602082019050919050565b6000613188600f83613cc4565b91507f696e76616c696420506f6f6c206e6f00000000000000000000000000000000006000830152602082019050919050565b60006131c8602b83613cc4565b91507f4e6f7420656e6f756768204c494e4b202d2066696c6c20636f6e74726163742060008301527f77697468206661756365740000000000000000000000000000000000000000006020830152604082019050919050565b600061322e601383613cc4565b91507f416c726561647920496e697469616c697a6564000000000000000000000000006000830152602082019050919050565b600061326e601183613cc4565b91507f416c7265616479205075726368617365640000000000000000000000000000006000830152602082019050919050565b60006132ae601d83613cc4565b91507f43616e277420506172746963697061746520696e2074686520506f6f6c0000006000830152602082019050919050565b60006132ee601583613cc4565b91507f556e61626c6520546f205265636f7665722045746800000000000000000000006000830152602082019050919050565b600061332e601483613cc4565b91507f49444f2043616e277420426520696e20506173740000000000000000000000006000830152602082019050919050565b600061336e601d83613cc4565b91507f4e6f7420456e6f75676820546f6b656e7320496e20436f6e74726163740000006000830152602082019050919050565b60006133ae602083613cc4565b91507f4f776e61626c653a2063616c6c6572206973206e6f7420746865206f776e65726000830152602082019050919050565b60006133ee601f83613cc4565b91507f4f6e6c7920565246436f6f7264696e61746f722063616e2066756c66696c6c006000830152602082019050919050565b600061342e601d83613cc4565b91507f526166666c653a2043616e2774205061727469636970617465204e6f770000006000830152602082019050919050565b600061346e601483613cc4565b91507f56616c7565732043616e2774204265205a65726f0000000000000000000000006000830152602082019050919050565b60006134ae601683613cc4565b91507f57696e6e6572204e6f74204465636964656420596574000000000000000000006000830152602082019050919050565b60006134ee600c83613cc4565b91507f496e76616c69642053697a6500000000000000000000000000000000000000006000830152602082019050919050565b600061352e601a83613cc4565b91507f4e6f7420696e20526567697374726174696f6e20506572696f640000000000006000830152602082019050919050565b600061356e600083613cb9565b9150600082019050919050565b6000613588601283613cc4565b91507f4e6f7420696e2053616c6520506572696f6400000000000000000000000000006000830152602082019050919050565b60006135c8601f83613cc4565b91507f5265656e7472616e637947756172643a207265656e7472616e742063616c6c006000830152602082019050919050565b6000613608601383613cc4565b91507f4e6f7420496e697469616c697a656420596574000000000000000000000000006000830152602082019050919050565b61364481613fee565b82525050565b61365b61365682613fee565b614129565b82525050565b600061366d8284612e5b565b60148201915081905092915050565b60006136888285612eee565b602082019150613698828461364a565b6020820191508190509392505050565b60006136b382613561565b9150819050919050565b60006020820190506136d26000830184612e4c565b92915050565b60006060820190506136ed6000830186612e4c565b6136fa6020830185612e4c565b613707604083018461363b565b949350505050565b60006040820190506137246000830185612e4c565b613731602083018461363b565b9392505050565b600060608201905061374d6000830186612e4c565b61375a602083018561363b565b818103604083015261376c8184612f05565b9050949350505050565b600060208201905081810360008301526137908184612e72565b905092915050565b60006020820190506137ad6000830184612ed0565b92915050565b60006060820190506137c86000830186612ed0565b6137d5602083018561363b565b6137e26040830184612ed0565b949350505050565b60006020820190506137ff6000830184612edf565b92915050565b600060408201905061381a6000830185612edf565b613827602083018461363b565b9392505050565b60006080820190506138436000830187612edf565b613850602083018661363b565b61385d6040830185612e4c565b61386a606083018461363b565b95945050505050565b60006020820190506138886000830184612f3e565b92915050565b60006020820190506138a36000830184612f4d565b92915050565b600060808201905081810360008301526138c38187612f5c565b90506138d2602083018661363b565b6138df604083018561363b565b6138ec606083018461363b565b95945050505050565b6000602082019050818103600083015261390e81612f95565b9050919050565b6000602082019050818103600083015261392e81612fd5565b9050919050565b6000602082019050818103600083015261394e81613015565b9050919050565b6000602082019050818103600083015261396e81613055565b9050919050565b6000602082019050818103600083015261398e816130bb565b9050919050565b600060208201905081810360008301526139ae816130fb565b9050919050565b600060208201905081810360008301526139ce8161313b565b9050919050565b600060208201905081810360008301526139ee8161317b565b9050919050565b60006020820190508181036000830152613a0e816131bb565b9050919050565b60006020820190508181036000830152613a2e81613221565b9050919050565b60006020820190508181036000830152613a4e81613261565b9050919050565b60006020820190508181036000830152613a6e816132a1565b9050919050565b60006020820190508181036000830152613a8e816132e1565b9050919050565b60006020820190508181036000830152613aae81613321565b9050919050565b60006020820190508181036000830152613ace81613361565b9050919050565b60006020820190508181036000830152613aee816133a1565b9050919050565b60006020820190508181036000830152613b0e816133e1565b9050919050565b60006020820190508181036000830152613b2e81613421565b9050919050565b60006020820190508181036000830152613b4e81613461565b9050919050565b60006020820190508181036000830152613b6e816134a1565b9050919050565b60006020820190508181036000830152613b8e816134e1565b9050919050565b60006020820190508181036000830152613bae81613521565b9050919050565b60006020820190508181036000830152613bce8161357b565b9050919050565b60006020820190508181036000830152613bee816135bb565b9050919050565b60006020820190508181036000830152613c0e816135fb565b9050919050565b6000602082019050613c2a600083018461363b565b92915050565b6000604082019050613c45600083018561363b565b613c52602083018461363b565b9392505050565b6000819050602082019050919050565b600081519050919050565b600081519050919050565b600081519050919050565b6000602082019050919050565b600082825260208201905092915050565b600082825260208201905092915050565b600081905092915050565b600082825260208201905092915050565b6000613ce082613fee565b9150613ceb83613fee565b9250827fffffffffffffffffffffffffffffffffffffffffffffffffffffffffffffffff03821115613d2057613d1f614164565b5b828201905092915050565b6000613d3682613fee565b9150613d4183613fee565b925082613d5157613d50614193565b5b828204905092915050565b6000808291508390505b6001851115613da657808604811115613d8257613d81614164565b5b6001851615613d915780820291505b8081029050613d9f8561420f565b9450613d66565b94509492505050565b6000613dba82613fee565b9150613dc583613fee565b9250613df27fffffffffffffffffffffffffffffffffffffffffffffffffffffffffffffffff8484613e45565b905092915050565b6000613e0582613fee565b9150613e1083613ff8565b9250613e3d7fffffffffffffffffffffffffffffffffffffffffffffffffffffffffffffffff8484613e45565b905092915050565b600082613e555760019050613f11565b81613e635760009050613f11565b8160018114613e795760028114613e8357613eb2565b6001915050613f11565b60ff841115613e9557613e94614164565b5b8360020a915084821115613eac57613eab614164565b5b50613f11565b5060208310610133831016604e8410600b8410161715613ee75782820a905083811115613ee257613ee1614164565b5b613f11565b613ef48484846001613d5c565b92509050818404811115613f0b57613f0a614164565b5b81810290505b9392505050565b6000613f2382613fee565b9150613f2e83613fee565b9250817fffffffffffffffffffffffffffffffffffffffffffffffffffffffffffffffff0483118215151615613f6757613f66614164565b5b828202905092915050565b6000613f7d82613fee565b9150613f8883613fee565b925082821015613f9b57613f9a614164565b5b828203905092915050565b6000613fb182613fce565b9050919050565b60008115159050919050565b6000819050919050565b600073ffffffffffffffffffffffffffffffffffffffff82169050919050565b6000819050919050565b600060ff82169050919050565b600061401082614017565b9050919050565b600061402282613fce565b9050919050565b60006140348261403b565b9050919050565b600061404682613fce565b9050919050565b60005b8381101561406b578082015181840152602081019050614050565b8381111561407a576000848401525b50505050565b6000600282049050600182168061409857607f821691505b602082108114156140ac576140ab6141c2565b5b50919050565b60006140bd82613fee565b91507fffffffffffffffffffffffffffffffffffffffffffffffffffffffffffffffff8214156140f0576140ef614164565b5b600182019050919050565b600061410682614117565b9050919050565b6000819050919050565b600061412282614202565b9050919050565b6000819050919050565b600061413e82613fee565b915061414983613fee565b92508261415957614158614193565b5b828206905092915050565b7f4e487b7100000000000000000000000000000000000000000000000000000000600052601160045260246000fd5b7f4e487b7100000000000000000000000000000000000000000000000000000000600052601260045260246000fd5b7f4e487b7100000000000000000000000000000000000000000000000000000000600052602260045260246000fd5b6000601f19601f8301169050919050565b60008160601b9050919050565b60008160011c9050919050565b61422581613fa6565b811461423057600080fd5b50565b61423c81613fb8565b811461424757600080fd5b50565b61425381613fc4565b811461425e57600080fd5b50565b61426a81613fee565b811461427557600080fd5b50565b61428181613ff8565b811461428c57600080fd5b5056fea2646970667358221220112dbe1dbd92a70f8159b38b50b0e005bb0e3435fffab752f26bfe9be05190cc64736f6c63430008000033",
  "immutableReferences": {
    "1884": [
      {
        "length": 32,
        "start": 9042
      },
      {
        "length": 32,
        "start": 10098
      }
    ],
    "1886": [
      {
        "length": 32,
        "start": 5137
      },
      {
        "length": 32,
        "start": 10158
      }
    ]
  },
  "source": "// SPDX-License-Identifier: MIT\r\npragma solidity ^0.8.0;\r\n\r\nimport \"@chainlink/contracts/src/v0.8/dev/VRFConsumerBase.sol\";\r\nimport \"./IDO.sol\";\r\n\r\nabstract contract Random is VRFConsumerBase {\r\n\r\n    bytes32 internal keyHash;\r\n    uint256 internal fee;\r\n    \r\n    bytes32 public reqId;\r\n    uint256 public randomResult;\r\n\r\n    bool isGeneratedOnce;\r\n    modifier once() {\r\n        require(!isGeneratedOnce, \"Already Generated Once\");\r\n        isGeneratedOnce = true;\r\n        _;\r\n    }\r\n\r\n    constructor () VRFConsumerBase (\r\n        0x8C7382F9D8f56b33781fE506E897a4F1e2d17255, // VRF Coordinator\r\n        0x326C977E6efc84E512bB9C30f76E30c160eD06FB  // LINK Token\r\n    ) {\r\n        keyHash = 0x6e75b569a01ef56d18cab6a8e71e6600d6ce853834d4a5748b720d06f878b3a4;\r\n        fee = 100000000000000; // 0.0001 LINK\r\n    }\r\n\r\n    /** \r\n     * Requests randomness from a user-provided seed\r\n     */\r\n    function _getRandomNumber(uint256 userProvidedSeed) internal returns (bytes32 requestId) {\r\n        require(LINK.balanceOf(address(this)) >= fee, \"Not enough LINK - fill contract with faucet\");\r\n        return requestRandomness(keyHash, fee, userProvidedSeed);\r\n    }\r\n\r\n    /**\r\n     * Callback function used by VRF Coordinator\r\n     */\r\n    function fulfillRandomness(bytes32 requestId, uint256 randomness) internal override {\r\n        reqId = requestId;\r\n        randomResult = randomness;\r\n        _afterGeneration();\r\n    }\r\n\r\n    bool _isFulfilled = false;\r\n    function isFulfilled() public view returns(bool) {\r\n        return _isFulfilled;\r\n    }\r\n\r\n    // Generating Multiple Random Numbers From a Single One\r\n    function _randomList(uint256 _from, uint256 _to, uint256 _size) internal view returns(uint256[] memory rands) {\r\n\r\n        rands = new uint256[](_size);\r\n        uint256 r = randomResult;\r\n        uint256 len = _to - _from;\r\n        \r\n        require(len >= _size, \"Invalid Size\");\r\n\r\n        uint256 i = 251;\r\n        uint256 count = 0;\r\n\r\n        while(count < _size) {\r\n            uint256 rand = (r + i**2) % len + _from;\r\n            bool exists = false;\r\n\r\n            for(uint256 j = 0; j < count + 1; j++) {\r\n                if (rand == rands[j]) {\r\n                    exists = true;\r\n                    break;\r\n                }\r\n            }\r\n\r\n            if(!exists) {\r\n                rands[count] = rand;\r\n                count += 1;\r\n            }\r\n\r\n            i += 1;\r\n        }\r\n    }\r\n\r\n    // This will execute after generation of Random Number\r\n    function _afterGeneration() internal virtual;\r\n\r\n}\r\n\r\ncontract RaffleWrap is IDO, Random {\r\n\r\n    uint256 public ticketsSold; // No of tickets sold\r\n    mapping(uint256 => address) public ticketToOwner; // owner of a ticket\r\n    mapping(address => uint256) public addressToTicketCount; // No Of Tickets Owned By an Address\r\n    mapping(address => uint256[]) public addressToTicketsOwned; // Tickets That an address own\r\n\r\n    uint256 public ticketPrice = 3 * 10 ** 18; // Price of a ticket(no. of tokens)\r\n\r\n    modifier raffleParticipationPeriod() {\r\n        require(regStarts >= block.timestamp, \"Raffle: Can't Participate Now\");\r\n        _;\r\n    }\r\n\r\n    modifier raffleResultPeriod() {\r\n        require(regStarts <= block.timestamp && isInitialized, \"Registration Not Started Yet\");\r\n        require(regStarts + regDuration >= block.timestamp, \"Registration Ended\");\r\n        _;\r\n    }\r\n\r\n    constructor (\r\n        address _stakerAddress,\r\n        address _nativeTokenAddress,\r\n        address _idoTokenAddress,\r\n        uint256 _idoAmount,\r\n        uint256 _price\r\n    ) IDO(\r\n        _stakerAddress,\r\n        _nativeTokenAddress,\r\n        _idoTokenAddress,\r\n        _idoAmount,\r\n        _price\r\n    ) {\r\n\r\n    }\r\n\r\n    \r\n    // Buy Tickets\r\n    function buyTickets(uint256 _noOfTickets) external raffleParticipationPeriod nonReentrant {\r\n        uint256 nextTicket = ticketsSold;\r\n        nativeToken.transferFrom(msg.sender, owner(), _noOfTickets * ticketPrice);\r\n\r\n        for(uint256 i=0; i<_noOfTickets; i++) {\r\n            ticketToOwner[nextTicket + i] = msg.sender;\r\n            addressToTicketsOwned[msg.sender].push(nextTicket + i);\r\n        }\r\n\r\n        addressToTicketCount[msg.sender] += _noOfTickets;\r\n        ticketsSold += _noOfTickets;\r\n    }\r\n\r\n    // Generates The Random Winners\r\n    function genRandom() external once raffleResultPeriod nonReentrant {\r\n        uint256 seed = uint256(keccak256(abi.encodePacked(msg.sender)));\r\n        _getRandomNumber(seed);\r\n    }\r\n\r\n    // Function Extended From Random Contract\r\n    function _afterGeneration() internal override {\r\n        _isFulfilled = true;\r\n        _executeRaffle();\r\n    }\r\n\r\n    // Raffle Entry For Winners\r\n    function _executeRaffle() internal {\r\n\r\n        address[] memory list = _getWinners();\r\n        for(uint256 i=0; i<list.length; i++) {\r\n            address account = list[i];\r\n            uint256 _poolNo = 2; // Raffle Entry Pool\r\n\r\n            if(getPoolNo(account) == 0) _register(account, _poolNo);\r\n        }\r\n    }\r\n\r\n    // Gets The Address Of The Winners\r\n    function _getWinners() internal view returns(address[] memory list) {\r\n        uint256 n = _noOfWinners(ticketsSold);\r\n        list = new address[](n);\r\n        uint256[] memory winners = _randomList(0, ticketsSold, n);\r\n\r\n        for(uint256 i=0; i<n; i++) {\r\n            address winner = ticketToOwner[winners[i]];\r\n            list[i] = winner;\r\n        }\r\n    }\r\n\r\n    function getWinners() external view returns(address[] memory) {\r\n        require(isFulfilled(), \"Winner Not Decided Yet\");\r\n        return _getWinners();\r\n    }\r\n\r\n    // Calculates The Number Of Winners\r\n    function _noOfWinners(uint256 _ticketsSold) internal pure returns(uint256) {\r\n        return _ticketsSold / 100 + 1;\r\n    }\r\n\r\n}",
  "sourcePath": "C:/Users/sudip/Desktop/RealProjects/PolyStarter/contracts/IDOStaker/RaffleWrap.sol",
  "compiler": {
    "name": "solc",
    "version": "0.8.0+commit.c7dfd78e.Emscripten.clang"
  },
  "schemaVersion": "3.3.4",
  "updatedAt": "2021-06-10T18:17:22.182Z",
  "devdoc": {
    "kind": "dev",
    "methods": {
      "owner()": {
        "details": "Returns the address of the current owner."
      },
      "renounceOwnership()": {
        "details": "Leaves the contract without owner. It will not be possible to call `onlyOwner` functions anymore. Can only be called by the current owner. NOTE: Renouncing ownership will leave the contract without an owner, thereby removing any functionality that is only available to the owner."
      },
      "transferOwnership(address)": {
        "details": "Transfers ownership of the contract to a new account (`newOwner`). Can only be called by the current owner."
      }
    },
    "version": 1
  },
  "userdoc": {
    "kind": "user",
    "methods": {},
    "version": 1
  }
}