{
  "contractName": "RaffleWrapTest",
  "abi": [
    {
      "inputs": [
        {
          "internalType": "address",
          "name": "_stakerAddress",
          "type": "address"
        },
        {
          "internalType": "address",
          "name": "_nativeTokenAddress",
          "type": "address"
        },
        {
          "internalType": "address",
          "name": "_idoTokenAddress",
          "type": "address"
        },
        {
          "internalType": "uint256",
          "name": "_idoAmount",
          "type": "uint256"
        },
        {
          "internalType": "uint256",
          "name": "_price",
          "type": "uint256"
        }
      ],
      "stateMutability": "nonpayable",
      "type": "constructor"
    },
    {
      "anonymous": false,
      "inputs": [
        {
          "indexed": true,
          "internalType": "address",
          "name": "previousOwner",
          "type": "address"
        },
        {
          "indexed": true,
          "internalType": "address",
          "name": "newOwner",
          "type": "address"
        }
      ],
      "name": "OwnershipTransferred",
      "type": "event"
    },
    {
      "anonymous": false,
      "inputs": [
        {
          "indexed": true,
          "internalType": "address",
          "name": "",
          "type": "address"
        },
        {
          "indexed": false,
          "internalType": "uint256",
          "name": "tokens",
          "type": "uint256"
        },
        {
          "indexed": false,
          "internalType": "uint256",
          "name": "price",
          "type": "uint256"
        }
      ],
      "name": "Purchase",
      "type": "event"
    },
    {
      "anonymous": false,
      "inputs": [
        {
          "indexed": true,
          "internalType": "address",
          "name": "account",
          "type": "address"
        },
        {
          "indexed": false,
          "internalType": "uint256",
          "name": "poolNo",
          "type": "uint256"
        }
      ],
      "name": "Registration",
      "type": "event"
    },
    {
      "inputs": [
        {
          "internalType": "address",
          "name": "",
          "type": "address"
        }
      ],
      "name": "addressToTicketCount",
      "outputs": [
        {
          "internalType": "uint256",
          "name": "",
          "type": "uint256"
        }
      ],
      "stateMutability": "view",
      "type": "function"
    },
    {
      "inputs": [
        {
          "internalType": "address",
          "name": "",
          "type": "address"
        },
        {
          "internalType": "uint256",
          "name": "",
          "type": "uint256"
        }
      ],
      "name": "addressToTicketsOwned",
      "outputs": [
        {
          "internalType": "uint256",
          "name": "",
          "type": "uint256"
        }
      ],
      "stateMutability": "view",
      "type": "function"
    },
    {
      "inputs": [
        {
          "internalType": "address",
          "name": "account",
          "type": "address"
        }
      ],
      "name": "allocationByAddress",
      "outputs": [
        {
          "internalType": "uint256",
          "name": "tokens",
          "type": "uint256"
        },
        {
          "internalType": "uint256",
          "name": "price",
          "type": "uint256"
        }
      ],
      "stateMutability": "view",
      "type": "function"
    },
    {
      "inputs": [],
      "name": "buyNow",
      "outputs": [],
      "stateMutability": "payable",
      "type": "function"
    },
    {
      "inputs": [],
      "name": "fcfsDuration",
      "outputs": [
        {
          "internalType": "uint256",
          "name": "",
          "type": "uint256"
        }
      ],
      "stateMutability": "view",
      "type": "function"
    },
    {
      "inputs": [],
      "name": "fcfsStarts",
      "outputs": [
        {
          "internalType": "uint256",
          "name": "",
          "type": "uint256"
        }
      ],
      "stateMutability": "view",
      "type": "function"
    },
    {
      "inputs": [
        {
          "internalType": "address",
          "name": "account",
          "type": "address"
        }
      ],
      "name": "getPoolNo",
      "outputs": [
        {
          "internalType": "uint256",
          "name": "",
          "type": "uint256"
        }
      ],
      "stateMutability": "view",
      "type": "function"
    },
    {
      "inputs": [
        {
          "internalType": "address",
          "name": "account",
          "type": "address"
        }
      ],
      "name": "getRegistrationStatus",
      "outputs": [
        {
          "internalType": "bool",
          "name": "",
          "type": "bool"
        }
      ],
      "stateMutability": "view",
      "type": "function"
    },
    {
      "inputs": [],
      "name": "iStaker",
      "outputs": [
        {
          "internalType": "contract IStaker",
          "name": "",
          "type": "address"
        }
      ],
      "stateMutability": "view",
      "type": "function"
    },
    {
      "inputs": [],
      "name": "idoToken",
      "outputs": [
        {
          "internalType": "contract IERC20Metadata",
          "name": "",
          "type": "address"
        }
      ],
      "stateMutability": "view",
      "type": "function"
    },
    {
      "inputs": [],
      "name": "idoTokenSum",
      "outputs": [
        {
          "internalType": "uint256",
          "name": "",
          "type": "uint256"
        }
      ],
      "stateMutability": "view",
      "type": "function"
    },
    {
      "inputs": [],
      "name": "idoTotalPrice",
      "outputs": [
        {
          "internalType": "uint256",
          "name": "",
          "type": "uint256"
        }
      ],
      "stateMutability": "view",
      "type": "function"
    },
    {
      "inputs": [],
      "name": "isFulfilled",
      "outputs": [
        {
          "internalType": "bool",
          "name": "",
          "type": "bool"
        }
      ],
      "stateMutability": "view",
      "type": "function"
    },
    {
      "inputs": [],
      "name": "isInitialized",
      "outputs": [
        {
          "internalType": "bool",
          "name": "",
          "type": "bool"
        }
      ],
      "stateMutability": "view",
      "type": "function"
    },
    {
      "inputs": [],
      "name": "lockDuration",
      "outputs": [
        {
          "internalType": "uint256",
          "name": "",
          "type": "uint256"
        }
      ],
      "stateMutability": "view",
      "type": "function"
    },
    {
      "inputs": [],
      "name": "nativeToken",
      "outputs": [
        {
          "internalType": "contract IERC20Metadata",
          "name": "",
          "type": "address"
        }
      ],
      "stateMutability": "view",
      "type": "function"
    },
    {
      "inputs": [],
      "name": "noOfParticipants",
      "outputs": [
        {
          "internalType": "uint256",
          "name": "",
          "type": "uint256"
        }
      ],
      "stateMutability": "view",
      "type": "function"
    },
    {
      "inputs": [],
      "name": "owner",
      "outputs": [
        {
          "internalType": "address",
          "name": "",
          "type": "address"
        }
      ],
      "stateMutability": "view",
      "type": "function"
    },
    {
      "inputs": [
        {
          "internalType": "uint256",
          "name": "",
          "type": "uint256"
        }
      ],
      "name": "participantList",
      "outputs": [
        {
          "internalType": "address",
          "name": "",
          "type": "address"
        }
      ],
      "stateMutability": "view",
      "type": "function"
    },
    {
      "inputs": [
        {
          "internalType": "uint256",
          "name": "",
          "type": "uint256"
        }
      ],
      "name": "pools",
      "outputs": [
        {
          "internalType": "string",
          "name": "name",
          "type": "string"
        },
        {
          "internalType": "uint256",
          "name": "minNativeToken",
          "type": "uint256"
        },
        {
          "internalType": "uint256",
          "name": "weight",
          "type": "uint256"
        },
        {
          "internalType": "uint256",
          "name": "participants",
          "type": "uint256"
        }
      ],
      "stateMutability": "view",
      "type": "function"
    },
    {
      "inputs": [],
      "name": "randomResult",
      "outputs": [
        {
          "internalType": "uint256",
          "name": "",
          "type": "uint256"
        }
      ],
      "stateMutability": "view",
      "type": "function"
    },
    {
      "inputs": [
        {
          "internalType": "bytes32",
          "name": "requestId",
          "type": "bytes32"
        },
        {
          "internalType": "uint256",
          "name": "randomness",
          "type": "uint256"
        }
      ],
      "name": "rawFulfillRandomness",
      "outputs": [],
      "stateMutability": "nonpayable",
      "type": "function"
    },
    {
      "inputs": [],
      "name": "regDuration",
      "outputs": [
        {
          "internalType": "uint256",
          "name": "",
          "type": "uint256"
        }
      ],
      "stateMutability": "view",
      "type": "function"
    },
    {
      "inputs": [],
      "name": "regStarts",
      "outputs": [
        {
          "internalType": "uint256",
          "name": "",
          "type": "uint256"
        }
      ],
      "stateMutability": "view",
      "type": "function"
    },
    {
      "inputs": [
        {
          "internalType": "uint256",
          "name": "_poolNo",
          "type": "uint256"
        }
      ],
      "name": "register",
      "outputs": [],
      "stateMutability": "nonpayable",
      "type": "function"
    },
    {
      "inputs": [],
      "name": "remainingIDOTokens",
      "outputs": [
        {
          "internalType": "uint256",
          "name": "",
          "type": "uint256"
        }
      ],
      "stateMutability": "view",
      "type": "function"
    },
    {
      "inputs": [],
      "name": "renounceOwnership",
      "outputs": [],
      "stateMutability": "nonpayable",
      "type": "function"
    },
    {
      "inputs": [],
      "name": "reqId",
      "outputs": [
        {
          "internalType": "bytes32",
          "name": "",
          "type": "bytes32"
        }
      ],
      "stateMutability": "view",
      "type": "function"
    },
    {
      "inputs": [],
      "name": "saleDuration",
      "outputs": [
        {
          "internalType": "uint256",
          "name": "",
          "type": "uint256"
        }
      ],
      "stateMutability": "view",
      "type": "function"
    },
    {
      "inputs": [],
      "name": "saleStarts",
      "outputs": [
        {
          "internalType": "uint256",
          "name": "",
          "type": "uint256"
        }
      ],
      "stateMutability": "view",
      "type": "function"
    },
    {
      "inputs": [],
      "name": "saleStartsAfter",
      "outputs": [
        {
          "internalType": "uint256",
          "name": "",
          "type": "uint256"
        }
      ],
      "stateMutability": "view",
      "type": "function"
    },
    {
      "inputs": [],
      "name": "ticketPrice",
      "outputs": [
        {
          "internalType": "uint256",
          "name": "",
          "type": "uint256"
        }
      ],
      "stateMutability": "view",
      "type": "function"
    },
    {
      "inputs": [
        {
          "internalType": "uint256",
          "name": "",
          "type": "uint256"
        }
      ],
      "name": "ticketToOwner",
      "outputs": [
        {
          "internalType": "address",
          "name": "",
          "type": "address"
        }
      ],
      "stateMutability": "view",
      "type": "function"
    },
    {
      "inputs": [],
      "name": "ticketsSold",
      "outputs": [
        {
          "internalType": "uint256",
          "name": "",
          "type": "uint256"
        }
      ],
      "stateMutability": "view",
      "type": "function"
    },
    {
      "inputs": [
        {
          "internalType": "uint256",
          "name": "_poolNo",
          "type": "uint256"
        }
      ],
      "name": "tokensAndPriceByPoolNo",
      "outputs": [
        {
          "internalType": "uint256",
          "name": "",
          "type": "uint256"
        },
        {
          "internalType": "uint256",
          "name": "",
          "type": "uint256"
        }
      ],
      "stateMutability": "view",
      "type": "function"
    },
    {
      "inputs": [],
      "name": "totalWeight",
      "outputs": [
        {
          "internalType": "uint256",
          "name": "",
          "type": "uint256"
        }
      ],
      "stateMutability": "view",
      "type": "function"
    },
    {
      "inputs": [
        {
          "internalType": "address",
          "name": "newOwner",
          "type": "address"
        }
      ],
      "name": "transferOwnership",
      "outputs": [],
      "stateMutability": "nonpayable",
      "type": "function"
    },
    {
      "inputs": [],
      "name": "unit",
      "outputs": [
        {
          "internalType": "uint256",
          "name": "",
          "type": "uint256"
        }
      ],
      "stateMutability": "view",
      "type": "function"
    },
    {
      "inputs": [
        {
          "internalType": "address",
          "name": "",
          "type": "address"
        }
      ],
      "name": "userlog",
      "outputs": [
        {
          "internalType": "bool",
          "name": "isRegistered",
          "type": "bool"
        },
        {
          "internalType": "uint256",
          "name": "registeredPool",
          "type": "uint256"
        },
        {
          "internalType": "bool",
          "name": "purchased",
          "type": "bool"
        }
      ],
      "stateMutability": "view",
      "type": "function"
    },
    {
      "inputs": [
        {
          "internalType": "uint256",
          "name": "_noOfTickets",
          "type": "uint256"
        }
      ],
      "name": "buyTickets",
      "outputs": [],
      "stateMutability": "nonpayable",
      "type": "function"
    },
    {
      "inputs": [],
      "name": "genRandom",
      "outputs": [],
      "stateMutability": "nonpayable",
      "type": "function"
    },
    {
      "inputs": [
        {
          "internalType": "bytes32",
          "name": "requestId",
          "type": "bytes32"
        },
        {
          "internalType": "uint256",
          "name": "randomness",
          "type": "uint256"
        }
      ],
      "name": "fulfillTest",
      "outputs": [],
      "stateMutability": "nonpayable",
      "type": "function"
    }
  ],
  "bytecode": "0x60c06040526000601560016101000a81548160ff0219169083151502179055506729a2241af62c0000601a553480156200003857600080fd5b5060405162004bf338038062004bf383398181016040528101906200005e9190620009a4565b738c7382f9d8f56b33781fe506e897a4f1e2d1725573326c977e6efc84e512bb9c30f76e30c160ed06fb868686868660006200009f620008a760201b60201c565b9050806000806101000a81548173ffffffffffffffffffffffffffffffffffffffff021916908373ffffffffffffffffffffffffffffffffffffffff1602179055508073ffffffffffffffffffffffffffffffffffffffff16600073ffffffffffffffffffffffffffffffffffffffff167f8be0079c531659141344cd1fd0a4f28419497f9722a3daafe3b4186f6b6457e060405160405180910390a3506001808190555084600260006101000a81548173ffffffffffffffffffffffffffffffffffffffff021916908373ffffffffffffffffffffffffffffffffffffffff16021790555083600360006101000a81548173ffffffffffffffffffffffffffffffffffffffff021916908373ffffffffffffffffffffffffffffffffffffffff16021790555082600460006101000a81548173ffffffffffffffffffffffffffffffffffffffff021916908373ffffffffffffffffffffffffffffffffffffffff16021790555081600581905550806006819055506005546007819055506000600360009054906101000a900473ffffffffffffffffffffffffffffffffffffffff1673ffffffffffffffffffffffffffffffffffffffff1663313ce5676040518163ffffffff1660e01b815260040160206040518083038186803b1580156200028957600080fd5b505afa1580156200029e573d6000803e3d6000fd5b505050506040513d601f19601f82011682018060405250810190620002c4919062000a26565b60ff169050600e60405180608001604052806040518060400160405280600481526020017f4e756c6c00000000000000000000000000000000000000000000000000000000815250815260200160008152602001600081526020016000815250908060018154018082558091505060019003906000526020600020906004020160009091909190915060008201518160000190805190602001906200036b929190620008af565b506020820151816001015560408201518160020155606082015181600301555050600e60405180608001604052806040518060400160405280600681526020017f4b6e696768740000000000000000000000000000000000000000000000000000815250815260200183600a620003e3919062000aad565b6103e8620003f2919062000bea565b8152602001600181526020016000815250908060018154018082558091505060019003906000526020600020906004020160009091909190915060008201518160000190805190602001906200044a929190620008af565b506020820151816001015560408201518160020155606082015181600301555050600e60405180608001604052806040518060400160405280600681526020017f426973686f700000000000000000000000000000000000000000000000000000815250815260200183600a620004c2919062000aad565b6105dc620004d1919062000bea565b81526020016004815260200160008152509080600181540180825580915050600190039060005260206000209060040201600090919091909150600082015181600001908051906020019062000529929190620008af565b506020820151816001015560408201518160020155606082015181600301555050600e60405180608001604052806040518060400160405280600481526020017f526f6f6b00000000000000000000000000000000000000000000000000000000815250815260200183600a620005a1919062000aad565b610bb8620005b0919062000bea565b81526020016008815260200160008152509080600181540180825580915050600190039060005260206000209060040201600090919091909150600082015181600001908051906020019062000608929190620008af565b506020820151816001015560408201518160020155606082015181600301555050600e60405180608001604052806040518060400160405280600481526020017f4b696e6700000000000000000000000000000000000000000000000000000000815250815260200183600a62000680919062000aad565b6117706200068f919062000bea565b815260200160108152602001600081525090806001815401808255809150506001900390600052602060002090600402016000909190919091506000820151816000019080519060200190620006e7929190620008af565b506020820151816001015560408201518160020155606082015181600301555050600e60405180608001604052806040518060400160405280600581526020017f517565656e000000000000000000000000000000000000000000000000000000815250815260200183600a6200075f919062000aad565b6123286200076e919062000bea565b815260200160158152602001600081525090806001815401808255809150506001900390600052602060002090600402016000909190919091506000820151816000019080519060200190620007c6929190620008af565b5060208201518160010155604082015181600201556060820151816003015550506032600f819055505050505050508173ffffffffffffffffffffffffffffffffffffffff1660a08173ffffffffffffffffffffffffffffffffffffffff1660601b815250508073ffffffffffffffffffffffffffffffffffffffff1660808173ffffffffffffffffffffffffffffffffffffffff1660601b8152505050507f6e75b569a01ef56d18cab6a8e71e6600d6ce853834d4a5748b720d06f878b3a460001b601181905550655af3107a4000601281905550505050505062000d85565b600033905090565b828054620008bd9062000c96565b90600052602060002090601f016020900481019282620008e157600085556200092d565b82601f10620008fc57805160ff19168380011785556200092d565b828001600101855582156200092d579182015b828111156200092c5782518255916020019190600101906200090f565b5b5090506200093c919062000940565b5090565b5b808211156200095b57600081600090555060010162000941565b5090565b600081519050620009708162000d37565b92915050565b600081519050620009878162000d51565b92915050565b6000815190506200099e8162000d6b565b92915050565b600080600080600060a08688031215620009bd57600080fd5b6000620009cd888289016200095f565b9550506020620009e0888289016200095f565b9450506040620009f3888289016200095f565b935050606062000a068882890162000976565b925050608062000a198882890162000976565b9150509295509295909350565b60006020828403121562000a3957600080fd5b600062000a49848285016200098d565b91505092915050565b6000808291508390505b600185111562000aa45780860481111562000a7c5762000a7b62000ccc565b5b600185161562000a8c5780820291505b808102905062000a9c8562000d2a565b945062000a5c565b94509492505050565b600062000aba8262000c7f565b915062000ac78362000c7f565b925062000af67fffffffffffffffffffffffffffffffffffffffffffffffffffffffffffffffff848462000afe565b905092915050565b60008262000b10576001905062000be3565b8162000b20576000905062000be3565b816001811462000b39576002811462000b445762000b7a565b600191505062000be3565b60ff84111562000b595762000b5862000ccc565b5b8360020a91508482111562000b735762000b7262000ccc565b5b5062000be3565b5060208310610133831016604e8410600b841016171562000bb45782820a90508381111562000bae5762000bad62000ccc565b5b62000be3565b62000bc3848484600162000a52565b9250905081840481111562000bdd5762000bdc62000ccc565b5b81810290505b9392505050565b600062000bf78262000c7f565b915062000c048362000c7f565b9250817fffffffffffffffffffffffffffffffffffffffffffffffffffffffffffffffff048311821515161562000c405762000c3f62000ccc565b5b828202905092915050565b600062000c588262000c5f565b9050919050565b600073ffffffffffffffffffffffffffffffffffffffff82169050919050565b6000819050919050565b600060ff82169050919050565b6000600282049050600182168062000caf57607f821691505b6020821081141562000cc65762000cc562000cfb565b5b50919050565b7f4e487b7100000000000000000000000000000000000000000000000000000000600052601160045260246000fd5b7f4e487b7100000000000000000000000000000000000000000000000000000000600052602260045260246000fd5b60008160011c9050919050565b62000d428162000c4b565b811462000d4e57600080fd5b50565b62000d5c8162000c7f565b811462000d6857600080fd5b50565b62000d768162000c89565b811462000d8257600080fd5b50565b60805160601c60a05160601c613e3462000dbf60003960008181611343015261246c01526000818161215001526124300152613e346000f3fe6080604052600436106102515760003560e01c80638f15024f11610139578063ac4afa38116100b6578063e1758bd81161007a578063e1758bd8146108ce578063e76eda86146108f9578063efad76da14610924578063f207564e1461094f578063f2fde38b14610978578063f3f40af2146109a157610251565b8063ac4afa38146107e4578063b6ba811414610824578063c4f34fab1461084f578063d0f4b4471461087a578063d6cd82bc146108a357610251565b80639c3962f0116100fd5780639c3962f01461070a5780639e6e9d0f14610714578063a158226d14610751578063a25dd1301461077c578063a8af4ff5146107a757610251565b80638f15024f146106225780638f666ecf1461064d578063907af6c01461068b57806394985ddd146106b657806396c82e57146106df57610251565b80633d7faab9116101d257806366a30cb61161019657806366a30cb614610536578063692d98d01461054d578063715018a6146105785780637acaea9b1461058f5780638997ce4e146105cc5780638da5cb5b146105f757610251565b80633d7faab9146104265780633f46ce721461045157806342619f661461048f57806345a28e06146104ba57806351622cd0146104f957610251565b80632b08e824116102195780632b08e8241461033f5780632f3666371461037c5780633711d9fb146103a5578063385a9c37146103d0578063392e53cd146103fb57610251565b8063045544431461025657806308726296146102815780630e6fdaa1146102ac5780631209b1f6146102e9578063196f253214610314575b600080fd5b34801561026257600080fd5b5061026b6109cc565b604051610278919061382a565b60405180910390f35b34801561028d57600080fd5b506102966109de565b6040516102a3919061382a565b60405180910390f35b3480156102b857600080fd5b506102d360048036038101906102ce9190612bb8565b6109eb565b6040516102e09190613354565b60405180910390f35b3480156102f557600080fd5b506102fe610a2a565b60405161030b919061382a565b60405180910390f35b34801561032057600080fd5b50610329610a30565b604051610336919061382a565b60405180910390f35b34801561034b57600080fd5b5061036660048036038101906103619190612bb8565b610a36565b6040516103739190613354565b60405180910390f35b34801561038857600080fd5b506103a3600480360381019061039e9190612bb8565b610a69565b005b3480156103b157600080fd5b506103ba610dd7565b6040516103c7919061382a565b60405180910390f35b3480156103dc57600080fd5b506103e5610de9565b6040516103f2919061340d565b60405180910390f35b34801561040757600080fd5b50610410610e00565b60405161041d919061340d565b60405180910390f35b34801561043257600080fd5b5061043b610e13565b604051610448919061382a565b60405180910390f35b34801561045d57600080fd5b5061047860048036038101906104739190612aee565b610e25565b604051610486929190613845565b60405180910390f35b34801561049b57600080fd5b506104a4610eae565b6040516104b1919061382a565b60405180910390f35b3480156104c657600080fd5b506104e160048036038101906104dc9190612aee565b610eb4565b6040516104f093929190613428565b60405180910390f35b34801561050557600080fd5b50610520600480360381019061051b9190612aee565b610ef8565b60405161052d919061382a565b60405180910390f35b34801561054257600080fd5b5061054b610f10565b005b34801561055957600080fd5b506105626110ae565b60405161056f919061382a565b60405180910390f35b34801561058457600080fd5b5061058d6110b4565b005b34801561059b57600080fd5b506105b660048036038101906105b19190612b17565b6111ee565b6040516105c3919061382a565b60405180910390f35b3480156105d857600080fd5b506105e161121f565b6040516105ee919061345f565b60405180910390f35b34801561060357600080fd5b5061060c611225565b6040516106199190613354565b60405180910390f35b34801561062e57600080fd5b5061063761124e565b604051610644919061382a565b60405180910390f35b34801561065957600080fd5b50610674600480360381019061066f9190612bb8565b611254565b604051610682929190613845565b60405180910390f35b34801561069757600080fd5b506106a061133b565b6040516106ad919061382a565b60405180910390f35b3480156106c257600080fd5b506106dd60048036038101906106d89190612b7c565b611341565b005b3480156106eb57600080fd5b506106f46113dd565b604051610701919061382a565b60405180910390f35b6107126113e3565b005b34801561072057600080fd5b5061073b60048036038101906107369190612aee565b611841565b604051610748919061382a565b60405180910390f35b34801561075d57600080fd5b5061076661188d565b604051610773919061382a565b60405180910390f35b34801561078857600080fd5b50610791611893565b60405161079e919061382a565b60405180910390f35b3480156107b357600080fd5b506107ce60048036038101906107c99190612aee565b6118a5565b6040516107db919061340d565b60405180910390f35b3480156107f057600080fd5b5061080b60048036038101906108069190612bb8565b6118fe565b60405161081b949392919061351e565b60405180910390f35b34801561083057600080fd5b506108396119c6565b604051610846919061382a565b60405180910390f35b34801561085b57600080fd5b506108646119cc565b6040516108719190613503565b60405180910390f35b34801561088657600080fd5b506108a1600480360381019061089c9190612b7c565b6119f2565b005b3480156108af57600080fd5b506108b8611b0e565b6040516108c591906134e8565b60405180910390f35b3480156108da57600080fd5b506108e3611b34565b6040516108f091906134e8565b60405180910390f35b34801561090557600080fd5b5061090e611b5a565b60405161091b919061382a565b60405180910390f35b34801561093057600080fd5b50610939611b85565b604051610946919061382a565b60405180910390f35b34801561095b57600080fd5b5061097660048036038101906109719190612bb8565b611b8b565b005b34801561098457600080fd5b5061099f600480360381019061099a9190612aee565b611f92565b005b3480156109ad57600080fd5b506109b661213b565b6040516109c3919061382a565b60405180910390f35b610e1060a86109db9190613a9e565b81565b6000600c80549050905090565b600c81815481106109fb57600080fd5b906000526020600020016000915054906101000a900473ffffffffffffffffffffffffffffffffffffffff1681565b601a5481565b60075481565b60176020528060005260406000206000915054906101000a900473ffffffffffffffffffffffffffffffffffffffff1681565b426008541115610aae576040517f08c379a0000000000000000000000000000000000000000000000000000000008152600401610aa5906136ea565b60405180910390fd5b42610e106078610abe9190613a9e565b600854610acb91906138a6565b1015610b0c576040517f08c379a0000000000000000000000000000000000000000000000000000000008152600401610b039061372a565b60405180910390fd5b60026001541415610b52576040517f08c379a0000000000000000000000000000000000000000000000000000000008152600401610b49906137ea565b60405180910390fd5b6002600181905550610b63336118a5565b15610ba3576040517f08c379a0000000000000000000000000000000000000000000000000000000008152600401610b9a9061358a565b60405180910390fd5b60006016549050600360009054906101000a900473ffffffffffffffffffffffffffffffffffffffff1673ffffffffffffffffffffffffffffffffffffffff166323b872dd33610bf1611225565b601a5486610bff9190613a9e565b6040518463ffffffff1660e01b8152600401610c1d9392919061336f565b602060405180830381600087803b158015610c3757600080fd5b505af1158015610c4b573d6000803e3d6000fd5b505050506040513d601f19601f82011682018060405250810190610c6f9190612b53565b5060005b82811015610d5c5733601760008385610c8c91906138a6565b815260200190815260200160002060006101000a81548173ffffffffffffffffffffffffffffffffffffffff021916908373ffffffffffffffffffffffffffffffffffffffff160217905550601960003373ffffffffffffffffffffffffffffffffffffffff1673ffffffffffffffffffffffffffffffffffffffff1681526020019081526020016000208183610d2391906138a6565b90806001815401808255809150506001900390600052602060002001600090919091909150558080610d5490613c38565b915050610c73565b5081601860003373ffffffffffffffffffffffffffffffffffffffff1673ffffffffffffffffffffffffffffffffffffffff1681526020019081526020016000206000828254610dac91906138a6565b925050819055508160166000828254610dc591906138a6565b92505081905550506001808190555050565b610e106018610de69190613a9e565b81565b6000601560019054906101000a900460ff16905090565b600d60009054906101000a900460ff1681565b610e106018610e229190613a9e565b81565b600080610e73600b60008573ffffffffffffffffffffffffffffffffffffffff1673ffffffffffffffffffffffffffffffffffffffff16815260200190815260200160002060010154611254565b8092508193505050600080610e8785612141565b915091508184610e9791906138a6565b93508083610ea591906138a6565b92505050915091565b60145481565b600b6020528060005260406000206000915090508060000160009054906101000a900460ff16908060010154908060020160009054906101000a900460ff16905083565b60186020528060005260406000206000915090505481565b601560009054906101000a900460ff1615610f60576040517f08c379a0000000000000000000000000000000000000000000000000000000008152600401610f57906135ea565b60405180910390fd5b6001601560006101000a81548160ff02191690831515021790555042610e106078610f8b9190613a9e565b600854610f9891906138a6565b1115610fd9576040517f08c379a0000000000000000000000000000000000000000000000000000000008152600401610fd0906136ca565b60405180910390fd5b42600954101561101e576040517f08c379a00000000000000000000000000000000000000000000000000000000081526004016110159061360a565b60405180910390fd5b60026001541415611064576040517f08c379a000000000000000000000000000000000000000000000000000000000815260040161105b906137ea565b60405180910390fd5b600260018190555060003360405160200161107f919061330d565b6040516020818303038152906040528051906020012060001c90506110a381612149565b505060018081905550565b600a5481565b6110bc61224e565b73ffffffffffffffffffffffffffffffffffffffff166110da611225565b73ffffffffffffffffffffffffffffffffffffffff1614611130576040517f08c379a00000000000000000000000000000000000000000000000000000000081526004016111279061370a565b60405180910390fd5b600073ffffffffffffffffffffffffffffffffffffffff1660008054906101000a900473ffffffffffffffffffffffffffffffffffffffff1673ffffffffffffffffffffffffffffffffffffffff167f8be0079c531659141344cd1fd0a4f28419497f9722a3daafe3b4186f6b6457e060405160405180910390a360008060006101000a81548173ffffffffffffffffffffffffffffffffffffffff021916908373ffffffffffffffffffffffffffffffffffffffff160217905550565b6019602052816000526040600020818154811061120a57600080fd5b90600052602060002001600091509150505481565b60135481565b60008060009054906101000a900473ffffffffffffffffffffffffffffffffffffffff16905090565b60165481565b6000806000600e8481548110611293577f4e487b7100000000000000000000000000000000000000000000000000000000600052603260045260246000fd5b9060005260206000209060040201905060008414806112b6575060008160030154145b156112c8576000809250925050611336565b60008160030154600f546112dc9190613a9e565b82600201546005546112ee9190613a9e565b6112f891906138fc565b905060008260030154600f5461130e9190613a9e565b83600201546006546113209190613a9e565b61132a91906138fc565b90508181945094505050505b915091565b610e1081565b7f000000000000000000000000000000000000000000000000000000000000000073ffffffffffffffffffffffffffffffffffffffff163373ffffffffffffffffffffffffffffffffffffffff16146113cf576040517f08c379a00000000000000000000000000000000000000000000000000000000081526004016113c69061374a565b60405180910390fd5b6113d98282612256565b5050565b600f5481565b6000429050600d60009054906101000a900460ff16611437576040517f08c379a000000000000000000000000000000000000000000000000000000000815260040161142e9061380a565b60405180910390fd5b600b60003373ffffffffffffffffffffffffffffffffffffffff1673ffffffffffffffffffffffffffffffffffffffff16815260200190815260200160002060000160009054906101000a900460ff166114c6576040517f08c379a00000000000000000000000000000000000000000000000000000000081526004016114bd906135aa565b60405180910390fd5b600b60003373ffffffffffffffffffffffffffffffffffffffff1673ffffffffffffffffffffffffffffffffffffffff16815260200190815260200160002060020160009054906101000a900460ff1615611556576040517f08c379a000000000000000000000000000000000000000000000000000000000815260040161154d9061368a565b60405180910390fd5b80600954111580156115835750610e1060186115729190613a9e565b60095461157f91906138a6565b8111155b6115c2576040517f08c379a00000000000000000000000000000000000000000000000000000000081526004016115b9906137ca565b60405180910390fd5b60026001541415611608576040517f08c379a00000000000000000000000000000000000000000000000000000000081526004016115ff906137ea565b60405180910390fd5b60026001819055506000600b60003373ffffffffffffffffffffffffffffffffffffffff1673ffffffffffffffffffffffffffffffffffffffff168152602001908152602001600020905060008061165f33610e25565b9150915060008114158015611675575060008214155b6116b4576040517f08c379a00000000000000000000000000000000000000000000000000000000081526004016116ab9061376a565b60405180910390fd5b3481146116f6576040517f08c379a00000000000000000000000000000000000000000000000000000000081526004016116ed9061356a565b60405180910390fd5b60018360020160006101000a81548160ff02191690831515021790555081600760008282546117259190613af8565b92505081905550600460009054906101000a900473ffffffffffffffffffffffffffffffffffffffff1673ffffffffffffffffffffffffffffffffffffffff1663a9059cbb33846040518363ffffffff1660e01b81526004016117899291906133a6565b602060405180830381600087803b1580156117a357600080fd5b505af11580156117b7573d6000803e3d6000fd5b505050506040513d601f19601f820116820180604052508101906117db9190612b53565b506117e4612270565b3373ffffffffffffffffffffffffffffffffffffffff167f12cb4648cf3058b17ceeb33e579f8b0bc269fe0843f3900b8e24b6c54871703c838360405161182c929190613845565b60405180910390a25050506001808190555050565b6000600b60008373ffffffffffffffffffffffffffffffffffffffff1673ffffffffffffffffffffffffffffffffffffffff168152602001908152602001600020600101549050919050565b60085481565b610e1060786118a29190613a9e565b81565b6000600b60008373ffffffffffffffffffffffffffffffffffffffff1673ffffffffffffffffffffffffffffffffffffffff16815260200190815260200160002060000160009054906101000a900460ff169050919050565b600e818154811061190e57600080fd5b906000526020600020906004020160009150905080600001805461193190613c06565b80601f016020809104026020016040519081016040528092919081815260200182805461195d90613c06565b80156119aa5780601f1061197f576101008083540402835291602001916119aa565b820191906000526020600020905b81548152906001019060200180831161198d57829003601f168201915b5050505050908060010154908060020154908060030154905084565b60055481565b600260009054906101000a900473ffffffffffffffffffffffffffffffffffffffff1681565b601560009054906101000a900460ff1615611a42576040517f08c379a0000000000000000000000000000000000000000000000000000000008152600401611a39906135ea565b60405180910390fd5b6001601560006101000a81548160ff02191690831515021790555042610e106078611a6d9190613a9e565b600854611a7a91906138a6565b1115611abb576040517f08c379a0000000000000000000000000000000000000000000000000000000008152600401611ab2906136ca565b60405180910390fd5b426009541015611b00576040517f08c379a0000000000000000000000000000000000000000000000000000000008152600401611af79061360a565b60405180910390fd5b611b0a8282612256565b5050565b600460009054906101000a900473ffffffffffffffffffffffffffffffffffffffff1681565b600360009054906101000a900473ffffffffffffffffffffffffffffffffffffffff1681565b610e106018611b699190613a9e565b610e106078611b789190613a9e565b611b8291906138a6565b81565b60065481565b6000429050600d60009054906101000a900460ff16611bdf576040517f08c379a0000000000000000000000000000000000000000000000000000000008152600401611bd69061380a565b60405180910390fd5b600b60003373ffffffffffffffffffffffffffffffffffffffff1673ffffffffffffffffffffffffffffffffffffffff16815260200190815260200160002060000160009054906101000a900460ff1615611c6f576040517f08c379a0000000000000000000000000000000000000000000000000000000008152600401611c669061362a565b60405180910390fd5b8060085411158015611c9c5750610e106078611c8b9190613a9e565b600854611c9891906138a6565b8111155b611cdb576040517f08c379a0000000000000000000000000000000000000000000000000000000008152600401611cd2906137aa565b60405180910390fd5b8180600111158015611cee575060058111155b611d2d576040517f08c379a0000000000000000000000000000000000000000000000000000000008152600401611d249061364a565b60405180910390fd5b6000600260009054906101000a900473ffffffffffffffffffffffffffffffffffffffff1673ffffffffffffffffffffffffffffffffffffffff166360217267336040518263ffffffff1660e01b8152600401611d8a9190613354565b60206040518083038186803b158015611da257600080fd5b505afa158015611db6573d6000803e3d6000fd5b505050506040513d601f19601f82011682018060405250810190611dda9190612be1565b905080600e8381548110611e17577f4e487b7100000000000000000000000000000000000000000000000000000000600052603260045260246000fd5b9060005260206000209060040201600101541115611e6a576040517f08c379a0000000000000000000000000000000000000000000000000000000008152600401611e61906136aa565b60405180910390fd5b60026001541415611eb0576040517f08c379a0000000000000000000000000000000000000000000000000000000008152600401611ea7906137ea565b60405180910390fd5b6002600181905550600260009054906101000a900473ffffffffffffffffffffffffffffffffffffffff1673ffffffffffffffffffffffffffffffffffffffff1663282d3fdf33610e1060a8611f069190613a9e565b610e106018611f159190613a9e565b600954611f2291906138a6565b611f2c91906138a6565b6040518363ffffffff1660e01b8152600401611f499291906133a6565b600060405180830381600087803b158015611f6357600080fd5b505af1158015611f77573d6000803e3d6000fd5b50505050611f853385612272565b6001808190555050505050565b611f9a61224e565b73ffffffffffffffffffffffffffffffffffffffff16611fb8611225565b73ffffffffffffffffffffffffffffffffffffffff161461200e576040517f08c379a00000000000000000000000000000000000000000000000000000000081526004016120059061370a565b60405180910390fd5b600073ffffffffffffffffffffffffffffffffffffffff168173ffffffffffffffffffffffffffffffffffffffff16141561207e576040517f08c379a0000000000000000000000000000000000000000000000000000000008152600401612075906135ca565b60405180910390fd5b8073ffffffffffffffffffffffffffffffffffffffff1660008054906101000a900473ffffffffffffffffffffffffffffffffffffffff1673ffffffffffffffffffffffffffffffffffffffff167f8be0079c531659141344cd1fd0a4f28419497f9722a3daafe3b4186f6b6457e060405160405180910390a3806000806101000a81548173ffffffffffffffffffffffffffffffffffffffff021916908373ffffffffffffffffffffffffffffffffffffffff16021790555050565b60095481565b600080915091565b60006012547f000000000000000000000000000000000000000000000000000000000000000073ffffffffffffffffffffffffffffffffffffffff166370a08231306040518263ffffffff1660e01b81526004016121a79190613354565b60206040518083038186803b1580156121bf57600080fd5b505afa1580156121d3573d6000803e3d6000fd5b505050506040513d601f19601f820116820180604052508101906121f79190612be1565b1015612238576040517f08c379a000000000000000000000000000000000000000000000000000000000815260040161222f9061366a565b60405180910390fd5b6122476011546012548461242c565b9050919050565b600033905090565b816013819055508060148190555061226c61258d565b5050565b565b6001600b60008473ffffffffffffffffffffffffffffffffffffffff1673ffffffffffffffffffffffffffffffffffffffff16815260200190815260200160002060000160006101000a81548160ff02191690831515021790555080600b60008473ffffffffffffffffffffffffffffffffffffffff1673ffffffffffffffffffffffffffffffffffffffff168152602001908152602001600020600101819055506001600e8281548110612350577f4e487b7100000000000000000000000000000000000000000000000000000000600052603260045260246000fd5b9060005260206000209060040201600301600082825461237091906138a6565b92505081905550600c829080600181540180825580915050600190039060005260206000200160009091909190916101000a81548173ffffffffffffffffffffffffffffffffffffffff021916908373ffffffffffffffffffffffffffffffffffffffff1602179055503373ffffffffffffffffffffffffffffffffffffffff167ff6c60b059f60c86b2d612b237ac38bd87bc1f68f87600cd360d68351af1ca95f82604051612420919061382a565b60405180910390a25050565b60007f000000000000000000000000000000000000000000000000000000000000000073ffffffffffffffffffffffffffffffffffffffff16634000aea07f000000000000000000000000000000000000000000000000000000000000000085878660405160200161249f92919061347a565b6040516020818303038152906040526040518463ffffffff1660e01b81526004016124cc939291906133cf565b602060405180830381600087803b1580156124e657600080fd5b505af11580156124fa573d6000803e3d6000fd5b505050506040513d601f19601f8201168201806040525081019061251e9190612b53565b506000612540858430601060008a8152602001908152602001600020546125b2565b90506001601060008781526020019081526020016000205461256291906138a6565b601060008781526020019081526020016000208190555061258385826125ee565b9150509392505050565b6001601560016101000a81548160ff0219169083151502179055506125b0612621565b565b6000848484846040516020016125cb94939291906134a3565b6040516020818303038152906040528051906020012060001c9050949350505050565b60008282604051602001612603929190613328565b60405160208183030381529060405280519060200120905092915050565b600061262b6126b5565b905060005b81518110156126b1576000828281518110612674577f4e487b7100000000000000000000000000000000000000000000000000000000600052603260045260246000fd5b6020026020010151905060006002905061268d826118a5565b61269c5761269b8282612272565b5b505080806126a990613c38565b915050612630565b5050565b606060006126c460165461285a565b90508067ffffffffffffffff811115612706577f4e487b7100000000000000000000000000000000000000000000000000000000600052604160045260246000fd5b6040519080825280602002602001820160405280156127345781602001602082028036833780820191505090505b509150600061274760006016548461287c565b905060005b8281101561285457600060176000848481518110612793577f4e487b7100000000000000000000000000000000000000000000000000000000600052603260045260246000fd5b6020026020010151815260200190815260200160002060009054906101000a900473ffffffffffffffffffffffffffffffffffffffff16905080858381518110612806577f4e487b7100000000000000000000000000000000000000000000000000000000600052603260045260246000fd5b602002602001019073ffffffffffffffffffffffffffffffffffffffff16908173ffffffffffffffffffffffffffffffffffffffff168152505050808061284c90613c38565b91505061274c565b50505090565b6000600160648361286b91906138fc565b61287591906138a6565b9050919050565b60608167ffffffffffffffff8111156128be577f4e487b7100000000000000000000000000000000000000000000000000000000600052604160045260246000fd5b6040519080825280602002602001820160405280156128ec5781602001602082028036833780820191505090505b50905060006014549050600085856129049190613af8565b905083811015612949576040517f08c379a00000000000000000000000000000000000000000000000000000000081526004016129409061378a565b60405180910390fd5b600060fb905060005b85811015612a7a576000888460028561296b9190613980565b8761297691906138a6565b6129809190613cb9565b61298a91906138a6565b90506000805b60018461299d91906138a6565b811015612a08578781815181106129dd577f4e487b7100000000000000000000000000000000000000000000000000000000600052603260045260246000fd5b60200260200101518314156129f55760019150612a08565b8080612a0090613c38565b915050612990565b5080612a645781878481518110612a48577f4e487b7100000000000000000000000000000000000000000000000000000000600052603260045260246000fd5b602002602001018181525050600183612a6191906138a6565b92505b600184612a7191906138a6565b93505050612952565b505050509392505050565b600081359050612a9481613da2565b92915050565b600081519050612aa981613db9565b92915050565b600081359050612abe81613dd0565b92915050565b600081359050612ad381613de7565b92915050565b600081519050612ae881613de7565b92915050565b600060208284031215612b0057600080fd5b6000612b0e84828501612a85565b91505092915050565b60008060408385031215612b2a57600080fd5b6000612b3885828601612a85565b9250506020612b4985828601612ac4565b9150509250929050565b600060208284031215612b6557600080fd5b6000612b7384828501612a9a565b91505092915050565b60008060408385031215612b8f57600080fd5b6000612b9d85828601612aaf565b9250506020612bae85828601612ac4565b9150509250929050565b600060208284031215612bca57600080fd5b6000612bd884828501612ac4565b91505092915050565b600060208284031215612bf357600080fd5b6000612c0184828501612ad9565b91505092915050565b612c1381613b2c565b82525050565b612c2a612c2582613b2c565b613c81565b82525050565b612c3981613b3e565b82525050565b612c4881613b4a565b82525050565b612c5f612c5a82613b4a565b613c93565b82525050565b6000612c708261386e565b612c7a8185613884565b9350612c8a818560208601613bd3565b612c9381613d77565b840191505092915050565b612ca781613b8b565b82525050565b612cb681613baf565b82525050565b6000612cc782613879565b612cd18185613895565b9350612ce1818560208601613bd3565b612cea81613d77565b840191505092915050565b6000612d02601483613895565b91507f4e6f742056616c69642045746820416d6f756e740000000000000000000000006000830152602082019050919050565b6000612d42601b83613895565b91507f416c72656164792050617274696369706174656420496e2049444f00000000006000830152602082019050919050565b6000612d82600e83613895565b91507f4e6f7420726567697374657265640000000000000000000000000000000000006000830152602082019050919050565b6000612dc2602683613895565b91507f4f776e61626c653a206e6577206f776e657220697320746865207a65726f206160008301527f64647265737300000000000000000000000000000000000000000000000000006020830152604082019050919050565b6000612e28601683613895565b91507f416c72656164792047656e657261746564204f6e6365000000000000000000006000830152602082019050919050565b6000612e68601383613895565b91507f526166666c653a204f7574204f662054696d65000000000000000000000000006000830152602082019050919050565b6000612ea8601283613895565b91507f416c7265616479207265676973746572656400000000000000000000000000006000830152602082019050919050565b6000612ee8600f83613895565b91507f696e76616c696420506f6f6c206e6f00000000000000000000000000000000006000830152602082019050919050565b6000612f28602b83613895565b91507f4e6f7420656e6f756768204c494e4b202d2066696c6c20636f6e74726163742060008301527f77697468206661756365740000000000000000000000000000000000000000006020830152604082019050919050565b6000612f8e601183613895565b91507f416c7265616479205075726368617365640000000000000000000000000000006000830152602082019050919050565b6000612fce601d83613895565b91507f43616e277420506172746963697061746520696e2074686520506f6f6c0000006000830152602082019050919050565b600061300e602083613895565b91507f526166666c653a2050617274696369706174696f6e204469646e277420456e646000830152602082019050919050565b600061304e602283613895565b91507f526166666c653a2050617274696369706174696f6e204469646e27742042656760008301527f696e0000000000000000000000000000000000000000000000000000000000006020830152604082019050919050565b60006130b4602083613895565b91507f4f776e61626c653a2063616c6c6572206973206e6f7420746865206f776e65726000830152602082019050919050565b60006130f4601b83613895565b91507f526166666c653a2050617274696369706174696f6e20456e64656400000000006000830152602082019050919050565b6000613134601f83613895565b91507f4f6e6c7920565246436f6f7264696e61746f722063616e2066756c66696c6c006000830152602082019050919050565b6000613174601483613895565b91507f56616c7565732043616e2774204265205a65726f0000000000000000000000006000830152602082019050919050565b60006131b4600c83613895565b91507f496e76616c69642053697a6500000000000000000000000000000000000000006000830152602082019050919050565b60006131f4601a83613895565b91507f4e6f7420696e20526567697374726174696f6e20506572696f640000000000006000830152602082019050919050565b6000613234601283613895565b91507f4e6f7420696e2053616c6520506572696f6400000000000000000000000000006000830152602082019050919050565b6000613274601f83613895565b91507f5265656e7472616e637947756172643a207265656e7472616e742063616c6c006000830152602082019050919050565b60006132b4601383613895565b91507f4e6f7420496e697469616c697a656420596574000000000000000000000000006000830152602082019050919050565b6132f081613b74565b82525050565b61330761330282613b74565b613caf565b82525050565b60006133198284612c19565b60148201915081905092915050565b60006133348285612c4e565b60208201915061334482846132f6565b6020820191508190509392505050565b60006020820190506133696000830184612c0a565b92915050565b60006060820190506133846000830186612c0a565b6133916020830185612c0a565b61339e60408301846132e7565b949350505050565b60006040820190506133bb6000830185612c0a565b6133c860208301846132e7565b9392505050565b60006060820190506133e46000830186612c0a565b6133f160208301856132e7565b81810360408301526134038184612c65565b9050949350505050565b60006020820190506134226000830184612c30565b92915050565b600060608201905061343d6000830186612c30565b61344a60208301856132e7565b6134576040830184612c30565b949350505050565b60006020820190506134746000830184612c3f565b92915050565b600060408201905061348f6000830185612c3f565b61349c60208301846132e7565b9392505050565b60006080820190506134b86000830187612c3f565b6134c560208301866132e7565b6134d26040830185612c0a565b6134df60608301846132e7565b95945050505050565b60006020820190506134fd6000830184612c9e565b92915050565b60006020820190506135186000830184612cad565b92915050565b600060808201905081810360008301526135388187612cbc565b905061354760208301866132e7565b61355460408301856132e7565b61356160608301846132e7565b95945050505050565b6000602082019050818103600083015261358381612cf5565b9050919050565b600060208201905081810360008301526135a381612d35565b9050919050565b600060208201905081810360008301526135c381612d75565b9050919050565b600060208201905081810360008301526135e381612db5565b9050919050565b6000602082019050818103600083015261360381612e1b565b9050919050565b6000602082019050818103600083015261362381612e5b565b9050919050565b6000602082019050818103600083015261364381612e9b565b9050919050565b6000602082019050818103600083015261366381612edb565b9050919050565b6000602082019050818103600083015261368381612f1b565b9050919050565b600060208201905081810360008301526136a381612f81565b9050919050565b600060208201905081810360008301526136c381612fc1565b9050919050565b600060208201905081810360008301526136e381613001565b9050919050565b6000602082019050818103600083015261370381613041565b9050919050565b60006020820190508181036000830152613723816130a7565b9050919050565b60006020820190508181036000830152613743816130e7565b9050919050565b6000602082019050818103600083015261376381613127565b9050919050565b6000602082019050818103600083015261378381613167565b9050919050565b600060208201905081810360008301526137a3816131a7565b9050919050565b600060208201905081810360008301526137c3816131e7565b9050919050565b600060208201905081810360008301526137e381613227565b9050919050565b6000602082019050818103600083015261380381613267565b9050919050565b60006020820190508181036000830152613823816132a7565b9050919050565b600060208201905061383f60008301846132e7565b92915050565b600060408201905061385a60008301856132e7565b61386760208301846132e7565b9392505050565b600081519050919050565b600081519050919050565b600082825260208201905092915050565b600082825260208201905092915050565b60006138b182613b74565b91506138bc83613b74565b9250827fffffffffffffffffffffffffffffffffffffffffffffffffffffffffffffffff038211156138f1576138f0613cea565b5b828201905092915050565b600061390782613b74565b915061391283613b74565b92508261392257613921613d19565b5b828204905092915050565b6000808291508390505b60018511156139775780860481111561395357613952613cea565b5b60018516156139625780820291505b808102905061397085613d95565b9450613937565b94509492505050565b600061398b82613b74565b915061399683613b7e565b92506139c37fffffffffffffffffffffffffffffffffffffffffffffffffffffffffffffffff84846139cb565b905092915050565b6000826139db5760019050613a97565b816139e95760009050613a97565b81600181146139ff5760028114613a0957613a38565b6001915050613a97565b60ff841115613a1b57613a1a613cea565b5b8360020a915084821115613a3257613a31613cea565b5b50613a97565b5060208310610133831016604e8410600b8410161715613a6d5782820a905083811115613a6857613a67613cea565b5b613a97565b613a7a848484600161392d565b92509050818404811115613a9157613a90613cea565b5b81810290505b9392505050565b6000613aa982613b74565b9150613ab483613b74565b9250817fffffffffffffffffffffffffffffffffffffffffffffffffffffffffffffffff0483118215151615613aed57613aec613cea565b5b828202905092915050565b6000613b0382613b74565b9150613b0e83613b74565b925082821015613b2157613b20613cea565b5b828203905092915050565b6000613b3782613b54565b9050919050565b60008115159050919050565b6000819050919050565b600073ffffffffffffffffffffffffffffffffffffffff82169050919050565b6000819050919050565b600060ff82169050919050565b6000613b9682613b9d565b9050919050565b6000613ba882613b54565b9050919050565b6000613bba82613bc1565b9050919050565b6000613bcc82613b54565b9050919050565b60005b83811015613bf1578082015181840152602081019050613bd6565b83811115613c00576000848401525b50505050565b60006002820490506001821680613c1e57607f821691505b60208210811415613c3257613c31613d48565b5b50919050565b6000613c4382613b74565b91507fffffffffffffffffffffffffffffffffffffffffffffffffffffffffffffffff821415613c7657613c75613cea565b5b600182019050919050565b6000613c8c82613c9d565b9050919050565b6000819050919050565b6000613ca882613d88565b9050919050565b6000819050919050565b6000613cc482613b74565b9150613ccf83613b74565b925082613cdf57613cde613d19565b5b828206905092915050565b7f4e487b7100000000000000000000000000000000000000000000000000000000600052601160045260246000fd5b7f4e487b7100000000000000000000000000000000000000000000000000000000600052601260045260246000fd5b7f4e487b7100000000000000000000000000000000000000000000000000000000600052602260045260246000fd5b6000601f19601f8301169050919050565b60008160601b9050919050565b60008160011c9050919050565b613dab81613b2c565b8114613db657600080fd5b50565b613dc281613b3e565b8114613dcd57600080fd5b50565b613dd981613b4a565b8114613de457600080fd5b50565b613df081613b74565b8114613dfb57600080fd5b5056fea2646970667358221220d5f492d6b7a8108b9587c02cb21c74338cb26a0ef03bd87707c32df7da128ee164736f6c63430008000033",
  "immutableReferences": {
    "2567": [
      {
        "length": 32,
        "start": 8528
      },
      {
        "length": 32,
        "start": 9264
      }
    ],
    "2569": [
      {
        "length": 32,
        "start": 4931
      },
      {
        "length": 32,
        "start": 9324
      }
    ]
  },
  "source": "// SPDX-License-Identifier: MIT\r\npragma solidity ^0.8.0;\r\n\r\nimport \"@chainlink/contracts/src/v0.8/dev/VRFConsumerBase.sol\";\r\nimport \"./IDO.sol\";\r\n\r\nabstract contract RandomTest is VRFConsumerBase {\r\n\r\n    bytes32 internal keyHash;\r\n    uint256 internal fee;\r\n    \r\n    bytes32 public reqId;\r\n    uint256 public randomResult;\r\n\r\n    bool isGeneratedOnce;\r\n    modifier once() {\r\n        require(!isGeneratedOnce, \"Already Generated Once\");\r\n        isGeneratedOnce = true;\r\n        _;\r\n    }\r\n\r\n    constructor () VRFConsumerBase (\r\n        0x8C7382F9D8f56b33781fE506E897a4F1e2d17255, // VRF Coordinator\r\n        0x326C977E6efc84E512bB9C30f76E30c160eD06FB  // LINK Token\r\n    ) {\r\n        keyHash = 0x6e75b569a01ef56d18cab6a8e71e6600d6ce853834d4a5748b720d06f878b3a4;\r\n        fee = 100000000000000; // 0.0001 LINK\r\n    }\r\n\r\n    /** \r\n     * Requests randomness from a user-provided seed\r\n     */\r\n    function _getRandomNumber(uint256 userProvidedSeed) internal returns (bytes32 requestId) {\r\n        require(LINK.balanceOf(address(this)) >= fee, \"Not enough LINK - fill contract with faucet\");\r\n        return requestRandomness(keyHash, fee, userProvidedSeed);\r\n    }\r\n\r\n    /**\r\n     * Callback function used by VRF Coordinator\r\n     */\r\n    function fulfillRandomness(bytes32 requestId, uint256 randomness) internal override {\r\n        reqId = requestId;\r\n        randomResult = randomness;\r\n        _afterGeneration();\r\n    }\r\n\r\n    bool _isFulfilled = false;\r\n    function isFulfilled() public view returns(bool) {\r\n        return _isFulfilled;\r\n    }\r\n\r\n    // Generating Multiple Random Numbers From a Single One\r\n    function _randomList(uint256 _from, uint256 _to, uint256 _size) internal view returns(uint256[] memory rands) {\r\n\r\n        rands = new uint256[](_size);\r\n        uint256 r = randomResult;\r\n        uint256 len = _to - _from;\r\n        \r\n        require(len >= _size, \"Invalid Size\");\r\n\r\n        uint256 i = 251;\r\n        uint256 count = 0;\r\n\r\n        while(count < _size) {\r\n            uint256 rand = (r + i**2) % len + _from;\r\n            bool exists = false;\r\n\r\n            for(uint256 j = 0; j < count + 1; j++) {\r\n                if (rand == rands[j]) {\r\n                    exists = true;\r\n                    break;\r\n                }\r\n            }\r\n\r\n            if(!exists) {\r\n                rands[count] = rand;\r\n                count += 1;\r\n            }\r\n\r\n            i += 1;\r\n        }\r\n    }\r\n\r\n    // This will execute after generation of Random Number\r\n    function _afterGeneration() internal virtual;\r\n\r\n}\r\n\r\ncontract RaffleWrapTest is IDO, RandomTest {\r\n\r\n    uint256 public ticketsSold; // No of tickets sold\r\n    mapping(uint256 => address) public ticketToOwner; // owner of a ticket\r\n    mapping(address => uint256) public addressToTicketCount; // No Of Tickets Owned By an Address\r\n    mapping(address => uint256[]) public addressToTicketsOwned; // Tickets That an address own\r\n\r\n    uint256 public ticketPrice = 3 * 10 ** 18; // Price of a ticket(no. of tokens)\r\n\r\n    modifier raffleParticipationPeriod() {\r\n        require(regStarts <= block.timestamp, \"Raffle: Participation Didn't Begin\");\r\n        require(regStarts + regDuration >= block.timestamp, \"Raffle: Participation Ended\");\r\n        _;\r\n    }\r\n\r\n    modifier raffleResultPeriod() {\r\n        require(regStarts + regDuration <= block.timestamp, \"Raffle: Participation Didn't End\");\r\n        require(saleStarts >= block.timestamp, \"Raffle: Out Of Time\");\r\n        _;\r\n    }\r\n\r\n    constructor (\r\n        address _stakerAddress,\r\n        address _nativeTokenAddress,\r\n        address _idoTokenAddress,\r\n        uint256 _idoAmount,\r\n        uint256 _price\r\n    ) IDO(\r\n        _stakerAddress,\r\n        _nativeTokenAddress,\r\n        _idoTokenAddress,\r\n        _idoAmount,\r\n        _price\r\n    ) {\r\n\r\n    }\r\n\r\n    \r\n    // Buy Tickets\r\n    function buyTickets(uint256 _noOfTickets) external raffleParticipationPeriod nonReentrant {\r\n        require(!getRegistrationStatus(msg.sender), \"Already Participated In IDO\");\r\n        uint256 nextTicket = ticketsSold;\r\n        nativeToken.transferFrom(msg.sender, owner(), _noOfTickets * ticketPrice);\r\n\r\n        for(uint256 i=0; i<_noOfTickets; i++) {\r\n            ticketToOwner[nextTicket + i] = msg.sender;\r\n            addressToTicketsOwned[msg.sender].push(nextTicket + i);\r\n        }\r\n\r\n        addressToTicketCount[msg.sender] += _noOfTickets;\r\n        ticketsSold += _noOfTickets;\r\n    }\r\n\r\n    function _raffleAllocation(address account) internal view override returns(uint256 tokens, uint256 price) {\r\n        \r\n    }\r\n\r\n    function _DEXAction() internal override {\r\n        \r\n    }\r\n\r\n    // Generates The Random Winners\r\n    function genRandom() external once raffleResultPeriod nonReentrant {\r\n        uint256 seed = uint256(keccak256(abi.encodePacked(msg.sender)));\r\n        _getRandomNumber(seed);\r\n    }\r\n\r\n    function fulfillTest(bytes32 requestId, uint256 randomness) once raffleResultPeriod external {\r\n        fulfillRandomness(requestId, randomness);\r\n    }\r\n\r\n    // Function Extended From Random Contract\r\n    function _afterGeneration() internal override {\r\n        _isFulfilled = true;\r\n        _executeRaffle();\r\n    }\r\n\r\n    // Raffle Entry For Winners\r\n    function _executeRaffle() internal {\r\n\r\n        address[] memory list = _getWinners();\r\n        for(uint256 i=0; i<list.length; i++) {\r\n            address account = list[i];\r\n            uint256 _poolNo = 2; // Raffle Entry Pool\r\n\r\n            if(!getRegistrationStatus(account)) _register(account, _poolNo);\r\n        }\r\n    }\r\n\r\n    // Gets The Address Of The Winners\r\n    function _getWinners() internal view returns(address[] memory list) {\r\n        uint256 n = _noOfWinners(ticketsSold);\r\n        list = new address[](n);\r\n        uint256[] memory winners = _randomList(0, ticketsSold, n);\r\n\r\n        for(uint256 i=0; i<n; i++) {\r\n            address winner = ticketToOwner[winners[i]];\r\n            list[i] = winner;\r\n        }\r\n    }\r\n\r\n    // Calculates The Number Of Winners\r\n    function _noOfWinners(uint256 _ticketsSold) internal pure returns(uint256) {\r\n        return _ticketsSold / 100 + 1;\r\n    }\r\n\r\n}",
  "sourcePath": "C:/Users/sudip/Desktop/RealProjects/PolyStarter/contracts/IDOStaker/RaffleWrapTest.sol",
  "compiler": {
    "name": "solc",
    "version": "0.8.0+commit.c7dfd78e.Emscripten.clang"
  },
  "schemaVersion": "3.3.4",
  "updatedAt": "2021-06-29T13:29:46.711Z",
  "devdoc": {
    "kind": "dev",
    "methods": {
      "owner()": {
        "details": "Returns the address of the current owner."
      },
      "renounceOwnership()": {
        "details": "Leaves the contract without owner. It will not be possible to call `onlyOwner` functions anymore. Can only be called by the current owner. NOTE: Renouncing ownership will leave the contract without an owner, thereby removing any functionality that is only available to the owner."
      },
      "transferOwnership(address)": {
        "details": "Transfers ownership of the contract to a new account (`newOwner`). Can only be called by the current owner."
      }
    },
    "version": 1
  },
  "userdoc": {
    "kind": "user",
    "methods": {},
    "version": 1
  }
}