{
  "contractName": "RaffleWrap",
  "abi": [
    {
      "inputs": [
        {
          "internalType": "address",
          "name": "_stakerAddress",
          "type": "address"
        },
        {
          "internalType": "address",
          "name": "_nativeTokenAddress",
          "type": "address"
        },
        {
          "internalType": "address",
          "name": "_idoTokenAddress",
          "type": "address"
        },
        {
          "internalType": "uint256",
          "name": "_idoAmount",
          "type": "uint256"
        },
        {
          "internalType": "uint256",
          "name": "_price",
          "type": "uint256"
        }
      ],
      "stateMutability": "nonpayable",
      "type": "constructor"
    },
    {
      "anonymous": false,
      "inputs": [
        {
          "indexed": false,
          "internalType": "uint256",
          "name": "regStart",
          "type": "uint256"
        },
        {
          "indexed": false,
          "internalType": "uint256",
          "name": "saleStart",
          "type": "uint256"
        }
      ],
      "name": "Initialization",
      "type": "event"
    },
    {
      "anonymous": false,
      "inputs": [
        {
          "indexed": true,
          "internalType": "address",
          "name": "previousOwner",
          "type": "address"
        },
        {
          "indexed": true,
          "internalType": "address",
          "name": "newOwner",
          "type": "address"
        }
      ],
      "name": "OwnershipTransferred",
      "type": "event"
    },
    {
      "anonymous": false,
      "inputs": [
        {
          "indexed": true,
          "internalType": "address",
          "name": "",
          "type": "address"
        },
        {
          "indexed": false,
          "internalType": "uint256",
          "name": "tokens",
          "type": "uint256"
        },
        {
          "indexed": false,
          "internalType": "uint256",
          "name": "price",
          "type": "uint256"
        }
      ],
      "name": "Purchase",
      "type": "event"
    },
    {
      "anonymous": false,
      "inputs": [
        {
          "indexed": true,
          "internalType": "address",
          "name": "account",
          "type": "address"
        },
        {
          "indexed": false,
          "internalType": "uint256",
          "name": "poolNo",
          "type": "uint256"
        }
      ],
      "name": "Registration",
      "type": "event"
    },
    {
      "inputs": [
        {
          "internalType": "address",
          "name": "",
          "type": "address"
        }
      ],
      "name": "addressToTicketCount",
      "outputs": [
        {
          "internalType": "uint256",
          "name": "",
          "type": "uint256"
        }
      ],
      "stateMutability": "view",
      "type": "function"
    },
    {
      "inputs": [
        {
          "internalType": "address",
          "name": "",
          "type": "address"
        },
        {
          "internalType": "uint256",
          "name": "",
          "type": "uint256"
        }
      ],
      "name": "addressToTicketsOwned",
      "outputs": [
        {
          "internalType": "uint256",
          "name": "",
          "type": "uint256"
        }
      ],
      "stateMutability": "view",
      "type": "function"
    },
    {
      "inputs": [],
      "name": "buyNow",
      "outputs": [],
      "stateMutability": "payable",
      "type": "function"
    },
    {
      "inputs": [
        {
          "internalType": "address",
          "name": "account",
          "type": "address"
        }
      ],
      "name": "getPoolNo",
      "outputs": [
        {
          "internalType": "uint256",
          "name": "",
          "type": "uint256"
        }
      ],
      "stateMutability": "view",
      "type": "function"
    },
    {
      "inputs": [
        {
          "internalType": "address",
          "name": "account",
          "type": "address"
        }
      ],
      "name": "getRegistrationStatus",
      "outputs": [
        {
          "internalType": "bool",
          "name": "",
          "type": "bool"
        }
      ],
      "stateMutability": "view",
      "type": "function"
    },
    {
      "inputs": [],
      "name": "iStaker",
      "outputs": [
        {
          "internalType": "contract IStaker",
          "name": "",
          "type": "address"
        }
      ],
      "stateMutability": "view",
      "type": "function"
    },
    {
      "inputs": [],
      "name": "idoToken",
      "outputs": [
        {
          "internalType": "contract IERC20Metadata",
          "name": "",
          "type": "address"
        }
      ],
      "stateMutability": "view",
      "type": "function"
    },
    {
      "inputs": [],
      "name": "idoTokenSum",
      "outputs": [
        {
          "internalType": "uint256",
          "name": "",
          "type": "uint256"
        }
      ],
      "stateMutability": "view",
      "type": "function"
    },
    {
      "inputs": [],
      "name": "idoTotalPrice",
      "outputs": [
        {
          "internalType": "uint256",
          "name": "",
          "type": "uint256"
        }
      ],
      "stateMutability": "view",
      "type": "function"
    },
    {
      "inputs": [
        {
          "internalType": "uint256",
          "name": "time",
          "type": "uint256"
        }
      ],
      "name": "initialize",
      "outputs": [],
      "stateMutability": "nonpayable",
      "type": "function"
    },
    {
      "inputs": [],
      "name": "isFulfilled",
      "outputs": [
        {
          "internalType": "bool",
          "name": "",
          "type": "bool"
        }
      ],
      "stateMutability": "view",
      "type": "function"
    },
    {
      "inputs": [],
      "name": "isInitialized",
      "outputs": [
        {
          "internalType": "bool",
          "name": "",
          "type": "bool"
        }
      ],
      "stateMutability": "view",
      "type": "function"
    },
    {
      "inputs": [],
      "name": "lockDuration",
      "outputs": [
        {
          "internalType": "uint256",
          "name": "",
          "type": "uint256"
        }
      ],
      "stateMutability": "view",
      "type": "function"
    },
    {
      "inputs": [],
      "name": "nativeToken",
      "outputs": [
        {
          "internalType": "contract IERC20Metadata",
          "name": "",
          "type": "address"
        }
      ],
      "stateMutability": "view",
      "type": "function"
    },
    {
      "inputs": [],
      "name": "owner",
      "outputs": [
        {
          "internalType": "address",
          "name": "",
          "type": "address"
        }
      ],
      "stateMutability": "view",
      "type": "function"
    },
    {
      "inputs": [
        {
          "internalType": "uint256",
          "name": "",
          "type": "uint256"
        }
      ],
      "name": "pools",
      "outputs": [
        {
          "internalType": "string",
          "name": "name",
          "type": "string"
        },
        {
          "internalType": "uint256",
          "name": "minNativeToken",
          "type": "uint256"
        },
        {
          "internalType": "uint256",
          "name": "weight",
          "type": "uint256"
        },
        {
          "internalType": "uint256",
          "name": "participants",
          "type": "uint256"
        }
      ],
      "stateMutability": "view",
      "type": "function"
    },
    {
      "inputs": [],
      "name": "randomResult",
      "outputs": [
        {
          "internalType": "uint256",
          "name": "",
          "type": "uint256"
        }
      ],
      "stateMutability": "view",
      "type": "function"
    },
    {
      "inputs": [
        {
          "internalType": "bytes32",
          "name": "requestId",
          "type": "bytes32"
        },
        {
          "internalType": "uint256",
          "name": "randomness",
          "type": "uint256"
        }
      ],
      "name": "rawFulfillRandomness",
      "outputs": [],
      "stateMutability": "nonpayable",
      "type": "function"
    },
    {
      "inputs": [
        {
          "internalType": "address",
          "name": "tokenAddress",
          "type": "address"
        },
        {
          "internalType": "address",
          "name": "to",
          "type": "address"
        }
      ],
      "name": "recoverERC20",
      "outputs": [],
      "stateMutability": "nonpayable",
      "type": "function"
    },
    {
      "inputs": [
        {
          "internalType": "address",
          "name": "to",
          "type": "address"
        }
      ],
      "name": "recoverEth",
      "outputs": [],
      "stateMutability": "nonpayable",
      "type": "function"
    },
    {
      "inputs": [],
      "name": "regDuration",
      "outputs": [
        {
          "internalType": "uint256",
          "name": "",
          "type": "uint256"
        }
      ],
      "stateMutability": "view",
      "type": "function"
    },
    {
      "inputs": [],
      "name": "regStarts",
      "outputs": [
        {
          "internalType": "uint256",
          "name": "",
          "type": "uint256"
        }
      ],
      "stateMutability": "view",
      "type": "function"
    },
    {
      "inputs": [
        {
          "internalType": "uint256",
          "name": "_poolNo",
          "type": "uint256"
        }
      ],
      "name": "register",
      "outputs": [],
      "stateMutability": "nonpayable",
      "type": "function"
    },
    {
      "inputs": [],
      "name": "renounceOwnership",
      "outputs": [],
      "stateMutability": "nonpayable",
      "type": "function"
    },
    {
      "inputs": [],
      "name": "reqId",
      "outputs": [
        {
          "internalType": "bytes32",
          "name": "",
          "type": "bytes32"
        }
      ],
      "stateMutability": "view",
      "type": "function"
    },
    {
      "inputs": [],
      "name": "saleDuration",
      "outputs": [
        {
          "internalType": "uint256",
          "name": "",
          "type": "uint256"
        }
      ],
      "stateMutability": "view",
      "type": "function"
    },
    {
      "inputs": [],
      "name": "saleStarts",
      "outputs": [
        {
          "internalType": "uint256",
          "name": "",
          "type": "uint256"
        }
      ],
      "stateMutability": "view",
      "type": "function"
    },
    {
      "inputs": [],
      "name": "saleStartsAfter",
      "outputs": [
        {
          "internalType": "uint256",
          "name": "",
          "type": "uint256"
        }
      ],
      "stateMutability": "view",
      "type": "function"
    },
    {
      "inputs": [],
      "name": "ticketPrice",
      "outputs": [
        {
          "internalType": "uint256",
          "name": "",
          "type": "uint256"
        }
      ],
      "stateMutability": "view",
      "type": "function"
    },
    {
      "inputs": [
        {
          "internalType": "uint256",
          "name": "",
          "type": "uint256"
        }
      ],
      "name": "ticketToOwner",
      "outputs": [
        {
          "internalType": "address",
          "name": "",
          "type": "address"
        }
      ],
      "stateMutability": "view",
      "type": "function"
    },
    {
      "inputs": [],
      "name": "ticketsSold",
      "outputs": [
        {
          "internalType": "uint256",
          "name": "",
          "type": "uint256"
        }
      ],
      "stateMutability": "view",
      "type": "function"
    },
    {
      "inputs": [
        {
          "internalType": "uint256",
          "name": "_poolNo",
          "type": "uint256"
        }
      ],
      "name": "tokensAndPriceByPoolNo",
      "outputs": [
        {
          "internalType": "uint256",
          "name": "",
          "type": "uint256"
        },
        {
          "internalType": "uint256",
          "name": "",
          "type": "uint256"
        }
      ],
      "stateMutability": "view",
      "type": "function"
    },
    {
      "inputs": [],
      "name": "totalWeight",
      "outputs": [
        {
          "internalType": "uint256",
          "name": "",
          "type": "uint256"
        }
      ],
      "stateMutability": "view",
      "type": "function"
    },
    {
      "inputs": [
        {
          "internalType": "address",
          "name": "newOwner",
          "type": "address"
        }
      ],
      "name": "transferOwnership",
      "outputs": [],
      "stateMutability": "nonpayable",
      "type": "function"
    },
    {
      "inputs": [],
      "name": "unit",
      "outputs": [
        {
          "internalType": "uint256",
          "name": "",
          "type": "uint256"
        }
      ],
      "stateMutability": "view",
      "type": "function"
    },
    {
      "inputs": [
        {
          "internalType": "address",
          "name": "",
          "type": "address"
        }
      ],
      "name": "userlog",
      "outputs": [
        {
          "internalType": "bool",
          "name": "isRegistered",
          "type": "bool"
        },
        {
          "internalType": "uint256",
          "name": "registeredPool",
          "type": "uint256"
        },
        {
          "internalType": "bool",
          "name": "purchased",
          "type": "bool"
        }
      ],
      "stateMutability": "view",
      "type": "function"
    },
    {
      "inputs": [
        {
          "internalType": "uint256",
          "name": "_noOfTickets",
          "type": "uint256"
        }
      ],
      "name": "buyTickets",
      "outputs": [],
      "stateMutability": "nonpayable",
      "type": "function"
    },
    {
      "inputs": [],
      "name": "genRandom",
      "outputs": [],
      "stateMutability": "nonpayable",
      "type": "function"
    },
    {
      "inputs": [],
      "name": "getWinners",
      "outputs": [
        {
          "internalType": "address[]",
          "name": "",
          "type": "address[]"
        }
      ],
      "stateMutability": "view",
      "type": "function"
    }
  ],
  "bytecode": "0x60c06040526000601260016101000a81548160ff0219169083151502179055506729a2241af62c00006017553480156200003857600080fd5b506040516200515b3803806200515b83398181016040528101906200005e91906200099c565b73b3dccb4cf7a26f6cf6b120cf5a73875b7bbc655b7301be23585060835e02b77ef475b0cc51aa1e0709868686868660006200009f6200089f60201b60201c565b9050806000806101000a81548173ffffffffffffffffffffffffffffffffffffffff021916908373ffffffffffffffffffffffffffffffffffffffff1602179055508073ffffffffffffffffffffffffffffffffffffffff16600073ffffffffffffffffffffffffffffffffffffffff167f8be0079c531659141344cd1fd0a4f28419497f9722a3daafe3b4186f6b6457e060405160405180910390a3506001808190555084600260006101000a81548173ffffffffffffffffffffffffffffffffffffffff021916908373ffffffffffffffffffffffffffffffffffffffff16021790555083600360006101000a81548173ffffffffffffffffffffffffffffffffffffffff021916908373ffffffffffffffffffffffffffffffffffffffff16021790555082600460006101000a81548173ffffffffffffffffffffffffffffffffffffffff021916908373ffffffffffffffffffffffffffffffffffffffff16021790555081600581905550806006819055506000600360009054906101000a900473ffffffffffffffffffffffffffffffffffffffff1673ffffffffffffffffffffffffffffffffffffffff1663313ce5676040518163ffffffff1660e01b815260040160206040518083038186803b1580156200028057600080fd5b505afa15801562000295573d6000803e3d6000fd5b505050506040513d601f19601f82011682018060405250810190620002bb919062000a1e565b60ff169050600b60405180608001604052806040518060400160405280600481526020017f4e756c6c000000000000000000000000000000000000000000000000000000008152508152602001600081526020016000815260200160008152509080600181540180825580915050600190039060005260206000209060040201600090919091909150600082015181600001908051906020019062000362929190620008a7565b506020820151816001015560408201518160020155606082015181600301555050600b60405180608001604052806040518060400160405280600681526020017f4b6e696768740000000000000000000000000000000000000000000000000000815250815260200183600a620003da919062000aa5565b6064620003e8919062000be2565b81526020016002815260200160008152509080600181540180825580915050600190039060005260206000209060040201600090919091909150600082015181600001908051906020019062000440929190620008a7565b506020820151816001015560408201518160020155606082015181600301555050600b60405180608001604052806040518060400160405280600681526020017f426973686f700000000000000000000000000000000000000000000000000000815250815260200183600a620004b8919062000aa5565b6101f4620004c7919062000be2565b8152602001600381526020016000815250908060018154018082558091505060019003906000526020600020906004020160009091909190915060008201518160000190805190602001906200051f929190620008a7565b506020820151816001015560408201518160020155606082015181600301555050600b60405180608001604052806040518060400160405280600481526020017f526f6f6b00000000000000000000000000000000000000000000000000000000815250815260200183600a62000597919062000aa5565b6103e8620005a6919062000be2565b815260200160048152602001600081525090806001815401808255809150506001900390600052602060002090600402016000909190919091506000820151816000019080519060200190620005fe929190620008a7565b506020820151816001015560408201518160020155606082015181600301555050600b60405180608001604052806040518060400160405280600481526020017f4b696e6700000000000000000000000000000000000000000000000000000000815250815260200183600a62000676919062000aa5565b6107d062000685919062000be2565b815260200160058152602001600081525090806001815401808255809150506001900390600052602060002090600402016000909190919091506000820151816000019080519060200190620006dd929190620008a7565b506020820151816001015560408201518160020155606082015181600301555050600b60405180608001604052806040518060400160405280600581526020017f517565656e000000000000000000000000000000000000000000000000000000815250815260200183600a62000755919062000aa5565b610fa062000764919062000be2565b815260200160068152602001600081525090806001815401808255809150506001900390600052602060002090600402016000909190919091506000820151816000019080519060200190620007bc929190620008a7565b5060208201518160010155604082015181600201556060820151816003015550506014600c819055505050505050508173ffffffffffffffffffffffffffffffffffffffff1660a08173ffffffffffffffffffffffffffffffffffffffff1660601b815250508073ffffffffffffffffffffffffffffffffffffffff1660808173ffffffffffffffffffffffffffffffffffffffff1660601b8152505050507f2ed0feb3e7fd2022120aa84fab1945545a9f2ffc9076fd6156fa96eaff4c131160001b600e8190555067016345785d8a0000600f81905550505050505062000d7d565b600033905090565b828054620008b59062000c8e565b90600052602060002090601f016020900481019282620008d9576000855562000925565b82601f10620008f457805160ff191683800117855562000925565b8280016001018555821562000925579182015b828111156200092457825182559160200191906001019062000907565b5b50905062000934919062000938565b5090565b5b808211156200095357600081600090555060010162000939565b5090565b600081519050620009688162000d2f565b92915050565b6000815190506200097f8162000d49565b92915050565b600081519050620009968162000d63565b92915050565b600080600080600060a08688031215620009b557600080fd5b6000620009c58882890162000957565b9550506020620009d88882890162000957565b9450506040620009eb8882890162000957565b9350506060620009fe888289016200096e565b925050608062000a11888289016200096e565b9150509295509295909350565b60006020828403121562000a3157600080fd5b600062000a418482850162000985565b91505092915050565b6000808291508390505b600185111562000a9c5780860481111562000a745762000a7362000cc4565b5b600185161562000a845780820291505b808102905062000a948562000d22565b945062000a54565b94509492505050565b600062000ab28262000c77565b915062000abf8362000c77565b925062000aee7fffffffffffffffffffffffffffffffffffffffffffffffffffffffffffffffff848462000af6565b905092915050565b60008262000b08576001905062000bdb565b8162000b18576000905062000bdb565b816001811462000b31576002811462000b3c5762000b72565b600191505062000bdb565b60ff84111562000b515762000b5062000cc4565b5b8360020a91508482111562000b6b5762000b6a62000cc4565b5b5062000bdb565b5060208310610133831016604e8410600b841016171562000bac5782820a90508381111562000ba65762000ba562000cc4565b5b62000bdb565b62000bbb848484600162000a4a565b9250905081840481111562000bd55762000bd462000cc4565b5b81810290505b9392505050565b600062000bef8262000c77565b915062000bfc8362000c77565b9250817fffffffffffffffffffffffffffffffffffffffffffffffffffffffffffffffff048311821515161562000c385762000c3762000cc4565b5b828202905092915050565b600062000c508262000c57565b9050919050565b600073ffffffffffffffffffffffffffffffffffffffff82169050919050565b6000819050919050565b600060ff82169050919050565b6000600282049050600182168062000ca757607f821691505b6020821081141562000cbe5762000cbd62000cf3565b5b50919050565b7f4e487b7100000000000000000000000000000000000000000000000000000000600052601160045260246000fd5b7f4e487b7100000000000000000000000000000000000000000000000000000000600052602260045260246000fd5b60008160011c9050919050565b62000d3a8162000c43565b811462000d4657600080fd5b50565b62000d548162000c77565b811462000d6057600080fd5b50565b62000d6e8162000c81565b811462000d7a57600080fd5b50565b60805160601c60a05160601c6143a462000db76000396000818161144d015261284b0152600081816123ef015261280f01526143a46000f3fe6080604052600436106102305760003560e01c8063907af6c01161012e578063c4f34fab116100ab578063efad76da1161006f578063efad76da14610830578063f207564e1461085b578063f2fde38b14610884578063f3f40af2146108ad578063fe4b84df146108d857610230565b8063c4f34fab14610759578063d6cd82bc14610784578063df15c37e146107af578063e1758bd8146107da578063e76eda861461080557610230565b8063a158226d116100f2578063a158226d1461065b578063a25dd13014610686578063a8af4ff5146106b1578063ac4afa38146106ee578063b6ba81141461072e57610230565b8063907af6c01461059557806394985ddd146105c057806396c82e57146105e95780639c3962f0146106145780639e6e9d0f1461061e57610230565b806351622cd0116101bc578063886f039a11610180578063886f039a146104ad5780638997ce4e146104d65780638da5cb5b146105015780638f15024f1461052c5780638f666ecf1461055757610230565b806351622cd0146103dc57806366a30cb614610419578063715018a6146104305780637504db3e146104475780637acaea9b1461047057610230565b80633711d9fb116102035780633711d9fb146102f1578063385a9c371461031c578063392e53cd1461034757806342619f661461037257806345a28e061461039d57610230565b806304554443146102355780631209b1f6146102605780632b08e8241461028b5780632f366637146102c8575b600080fd5b34801561024157600080fd5b5061024a610901565b6040516102579190613d56565b60405180910390f35b34801561026c57600080fd5b50610275610913565b6040516102829190613d56565b60405180910390f35b34801561029757600080fd5b506102b260048036038101906102ad9190612e2e565b610919565b6040516102bf91906137be565b60405180910390f35b3480156102d457600080fd5b506102ef60048036038101906102ea9190612e2e565b61094c565b005b3480156102fd57600080fd5b50610306610cba565b6040516103139190613d56565b60405180910390f35b34801561032857600080fd5b50610331610ccc565b60405161033e9190613899565b60405180910390f35b34801561035357600080fd5b5061035c610ce3565b6040516103699190613899565b60405180910390f35b34801561037e57600080fd5b50610387610cf6565b6040516103949190613d56565b60405180910390f35b3480156103a957600080fd5b506103c460048036038101906103bf9190612d28565b610cfc565b6040516103d3939291906138b4565b60405180910390f35b3480156103e857600080fd5b5061040360048036038101906103fe9190612d28565b610d40565b6040516104109190613d56565b60405180910390f35b34801561042557600080fd5b5061042e610d58565b005b34801561043c57600080fd5b50610445610ef6565b005b34801561045357600080fd5b5061046e60048036038101906104699190612d28565b611030565b005b34801561047c57600080fd5b5061049760048036038101906104929190612d8d565b61115c565b6040516104a49190613d56565b60405180910390f35b3480156104b957600080fd5b506104d460048036038101906104cf9190612d51565b61118d565b005b3480156104e257600080fd5b506104eb611329565b6040516104f891906138eb565b60405180910390f35b34801561050d57600080fd5b5061051661132f565b60405161052391906137be565b60405180910390f35b34801561053857600080fd5b50610541611358565b60405161054e9190613d56565b60405180910390f35b34801561056357600080fd5b5061057e60048036038101906105799190612e2e565b61135e565b60405161058c929190613d71565b60405180910390f35b3480156105a157600080fd5b506105aa611445565b6040516105b79190613d56565b60405180910390f35b3480156105cc57600080fd5b506105e760048036038101906105e29190612df2565b61144b565b005b3480156105f557600080fd5b506105fe6114e7565b60405161060b9190613d56565b60405180910390f35b61061c6114ed565b005b34801561062a57600080fd5b5061064560048036038101906106409190612d28565b61192e565b6040516106529190613d56565b60405180910390f35b34801561066757600080fd5b5061067061197a565b60405161067d9190613d56565b60405180910390f35b34801561069257600080fd5b5061069b611980565b6040516106a89190613d56565b60405180910390f35b3480156106bd57600080fd5b506106d860048036038101906106d39190612d28565b611992565b6040516106e59190613899565b60405180910390f35b3480156106fa57600080fd5b5061071560048036038101906107109190612e2e565b6119eb565b60405161072594939291906139aa565b60405180910390f35b34801561073a57600080fd5b50610743611ab3565b6040516107509190613d56565b60405180910390f35b34801561076557600080fd5b5061076e611ab9565b60405161077b919061398f565b60405180910390f35b34801561079057600080fd5b50610799611adf565b6040516107a69190613974565b60405180910390f35b3480156107bb57600080fd5b506107c4611b05565b6040516107d19190613877565b60405180910390f35b3480156107e657600080fd5b506107ef611b5b565b6040516107fc9190613974565b60405180910390f35b34801561081157600080fd5b5061081a611b81565b6040516108279190613d56565b60405180910390f35b34801561083c57600080fd5b50610845611bac565b6040516108529190613d56565b60405180910390f35b34801561086757600080fd5b50610882600480360381019061087d9190612e2e565b611bb2565b005b34801561089057600080fd5b506108ab60048036038101906108a69190612d28565b611f9e565b005b3480156108b957600080fd5b506108c2612147565b6040516108cf9190613d56565b60405180910390f35b3480156108e457600080fd5b506108ff60048036038101906108fa9190612e2e565b61214d565b005b610e1060a8610910919061400e565b81565b60175481565b60146020528060005260406000206000915054906101000a900473ffffffffffffffffffffffffffffffffffffffff1681565b426007541115610991576040517f08c379a000000000000000000000000000000000000000000000000000000000815260040161098890613bd6565b60405180910390fd5b42610e1060306109a1919061400e565b6007546109ae9190613e16565b10156109ef576040517f08c379a00000000000000000000000000000000000000000000000000000000081526004016109e690613c36565b60405180910390fd5b60026001541415610a35576040517f08c379a0000000000000000000000000000000000000000000000000000000008152600401610a2c90613d16565b60405180910390fd5b6002600181905550610a4633611992565b15610a86576040517f08c379a0000000000000000000000000000000000000000000000000000000008152600401610a7d90613a16565b60405180910390fd5b60006013549050600360009054906101000a900473ffffffffffffffffffffffffffffffffffffffff1673ffffffffffffffffffffffffffffffffffffffff166323b872dd33610ad461132f565b60175486610ae2919061400e565b6040518463ffffffff1660e01b8152600401610b00939291906137d9565b602060405180830381600087803b158015610b1a57600080fd5b505af1158015610b2e573d6000803e3d6000fd5b505050506040513d601f19601f82011682018060405250810190610b529190612dc9565b5060005b82811015610c3f5733601460008385610b6f9190613e16565b815260200190815260200160002060006101000a81548173ffffffffffffffffffffffffffffffffffffffff021916908373ffffffffffffffffffffffffffffffffffffffff160217905550601660003373ffffffffffffffffffffffffffffffffffffffff1673ffffffffffffffffffffffffffffffffffffffff1681526020019081526020016000208183610c069190613e16565b90806001815401808255809150506001900390600052602060002001600090919091909150558080610c37906141a8565b915050610b56565b5081601560003373ffffffffffffffffffffffffffffffffffffffff1673ffffffffffffffffffffffffffffffffffffffff1681526020019081526020016000206000828254610c8f9190613e16565b925050819055508160136000828254610ca89190613e16565b92505081905550506001808190555050565b610e10600c610cc9919061400e565b81565b6000601260019054906101000a900460ff16905090565b600a60009054906101000a900460ff1681565b60115481565b60096020528060005260406000206000915090508060000160009054906101000a900460ff16908060010154908060020160009054906101000a900460ff16905083565b60156020528060005260406000206000915090505481565b601260009054906101000a900460ff1615610da8576040517f08c379a0000000000000000000000000000000000000000000000000000000008152600401610d9f90613a76565b60405180910390fd5b6001601260006101000a81548160ff02191690831515021790555042610e106030610dd3919061400e565b600754610de09190613e16565b1115610e21576040517f08c379a0000000000000000000000000000000000000000000000000000000008152600401610e1890613b76565b60405180910390fd5b426008541015610e66576040517f08c379a0000000000000000000000000000000000000000000000000000000008152600401610e5d90613a96565b60405180910390fd5b60026001541415610eac576040517f08c379a0000000000000000000000000000000000000000000000000000000008152600401610ea390613d16565b60405180910390fd5b6002600181905550600033604051602001610ec79190613762565b6040516020818303038152906040528051906020012060001c9050610eeb816123e8565b505060018081905550565b610efe6124ed565b73ffffffffffffffffffffffffffffffffffffffff16610f1c61132f565b73ffffffffffffffffffffffffffffffffffffffff1614610f72576040517f08c379a0000000000000000000000000000000000000000000000000000000008152600401610f6990613c16565b60405180910390fd5b600073ffffffffffffffffffffffffffffffffffffffff1660008054906101000a900473ffffffffffffffffffffffffffffffffffffffff1673ffffffffffffffffffffffffffffffffffffffff167f8be0079c531659141344cd1fd0a4f28419497f9722a3daafe3b4186f6b6457e060405160405180910390a360008060006101000a81548173ffffffffffffffffffffffffffffffffffffffff021916908373ffffffffffffffffffffffffffffffffffffffff160217905550565b6110386124ed565b73ffffffffffffffffffffffffffffffffffffffff1661105661132f565b73ffffffffffffffffffffffffffffffffffffffff16146110ac576040517f08c379a00000000000000000000000000000000000000000000000000000000081526004016110a390613c16565b60405180910390fd5b60008173ffffffffffffffffffffffffffffffffffffffff16476040516110d2906137a9565b60006040518083038185875af1925050503d806000811461110f576040519150601f19603f3d011682016040523d82523d6000602084013e611114565b606091505b5050905080611158576040517f08c379a000000000000000000000000000000000000000000000000000000000815260040161114f90613b96565b60405180910390fd5b5050565b6016602052816000526040600020818154811061117857600080fd5b90600052602060002001600091509150505481565b6111956124ed565b73ffffffffffffffffffffffffffffffffffffffff166111b361132f565b73ffffffffffffffffffffffffffffffffffffffff1614611209576040517f08c379a000000000000000000000000000000000000000000000000000000000815260040161120090613c16565b60405180910390fd5b60008290508073ffffffffffffffffffffffffffffffffffffffff1663a9059cbb838373ffffffffffffffffffffffffffffffffffffffff166370a08231306040518263ffffffff1660e01b815260040161126491906137be565b60206040518083038186803b15801561127c57600080fd5b505afa158015611290573d6000803e3d6000fd5b505050506040513d601f19601f820116820180604052508101906112b49190612e57565b6040518363ffffffff1660e01b81526004016112d1929190613810565b602060405180830381600087803b1580156112eb57600080fd5b505af11580156112ff573d6000803e3d6000fd5b505050506040513d601f19601f820116820180604052508101906113239190612dc9565b50505050565b60105481565b60008060009054906101000a900473ffffffffffffffffffffffffffffffffffffffff16905090565b60135481565b6000806000600b848154811061139d577f4e487b7100000000000000000000000000000000000000000000000000000000600052603260045260246000fd5b9060005260206000209060040201905060008414806113c0575060008160030154145b156113d2576000809250925050611440565b60008160030154600c546113e6919061400e565b82600201546005546113f8919061400e565b6114029190613e6c565b905060008260030154600c54611418919061400e565b836002015460065461142a919061400e565b6114349190613e6c565b90508181945094505050505b915091565b610e1081565b7f000000000000000000000000000000000000000000000000000000000000000073ffffffffffffffffffffffffffffffffffffffff163373ffffffffffffffffffffffffffffffffffffffff16146114d9576040517f08c379a00000000000000000000000000000000000000000000000000000000081526004016114d090613c56565b60405180910390fd5b6114e382826124f5565b5050565b600c5481565b6000429050600a60009054906101000a900460ff16611541576040517f08c379a000000000000000000000000000000000000000000000000000000000815260040161153890613d36565b60405180910390fd5b600960003373ffffffffffffffffffffffffffffffffffffffff1673ffffffffffffffffffffffffffffffffffffffff16815260200190815260200160002060000160009054906101000a900460ff166115d0576040517f08c379a00000000000000000000000000000000000000000000000000000000081526004016115c790613a36565b60405180910390fd5b600960003373ffffffffffffffffffffffffffffffffffffffff1673ffffffffffffffffffffffffffffffffffffffff16815260200190815260200160002060020160009054906101000a900460ff1615611660576040517f08c379a000000000000000000000000000000000000000000000000000000000815260040161165790613b36565b60405180910390fd5b806008541115801561168d5750610e10600c61167c919061400e565b6008546116899190613e16565b8111155b6116cc576040517f08c379a00000000000000000000000000000000000000000000000000000000081526004016116c390613cf6565b60405180910390fd5b60026001541415611712576040517f08c379a000000000000000000000000000000000000000000000000000000000815260040161170990613d16565b60405180910390fd5b60026001819055506000600960003373ffffffffffffffffffffffffffffffffffffffff1673ffffffffffffffffffffffffffffffffffffffff168152602001908152602001600020905060008061176d836001015461135e565b9150915060008114158015611783575060008214155b6117c2576040517f08c379a00000000000000000000000000000000000000000000000000000000081526004016117b990613c76565b60405180910390fd5b348114611804576040517f08c379a00000000000000000000000000000000000000000000000000000000081526004016117fb906139f6565b60405180910390fd5b60018360020160006101000a81548160ff021916908315150217905550600460009054906101000a900473ffffffffffffffffffffffffffffffffffffffff1673ffffffffffffffffffffffffffffffffffffffff1663a9059cbb33846040518363ffffffff1660e01b815260040161187e929190613810565b602060405180830381600087803b15801561189857600080fd5b505af11580156118ac573d6000803e3d6000fd5b505050506040513d601f19601f820116820180604052508101906118d09190612dc9565b503373ffffffffffffffffffffffffffffffffffffffff167f12cb4648cf3058b17ceeb33e579f8b0bc269fe0843f3900b8e24b6c54871703c8383604051611919929190613d71565b60405180910390a25050506001808190555050565b6000600960008373ffffffffffffffffffffffffffffffffffffffff1673ffffffffffffffffffffffffffffffffffffffff168152602001908152602001600020600101549050919050565b60075481565b610e10603061198f919061400e565b81565b6000600960008373ffffffffffffffffffffffffffffffffffffffff1673ffffffffffffffffffffffffffffffffffffffff16815260200190815260200160002060000160009054906101000a900460ff169050919050565b600b81815481106119fb57600080fd5b9060005260206000209060040201600091509050806000018054611a1e90614176565b80601f0160208091040260200160405190810160405280929190818152602001828054611a4a90614176565b8015611a975780601f10611a6c57610100808354040283529160200191611a97565b820191906000526020600020905b815481529060010190602001808311611a7a57829003601f168201915b5050505050908060010154908060020154908060030154905084565b60055481565b600260009054906101000a900473ffffffffffffffffffffffffffffffffffffffff1681565b600460009054906101000a900473ffffffffffffffffffffffffffffffffffffffff1681565b6060611b0f610ccc565b611b4e576040517f08c379a0000000000000000000000000000000000000000000000000000000008152600401611b4590613c96565b60405180910390fd5b611b5661250f565b905090565b600360009054906101000a900473ffffffffffffffffffffffffffffffffffffffff1681565b610e106018611b90919061400e565b610e106030611b9f919061400e565b611ba99190613e16565b81565b60065481565b6000429050600a60009054906101000a900460ff16611c06576040517f08c379a0000000000000000000000000000000000000000000000000000000008152600401611bfd90613d36565b60405180910390fd5b600960003373ffffffffffffffffffffffffffffffffffffffff1673ffffffffffffffffffffffffffffffffffffffff16815260200190815260200160002060000160009054906101000a900460ff1615611c96576040517f08c379a0000000000000000000000000000000000000000000000000000000008152600401611c8d90613ab6565b60405180910390fd5b8060075411158015611cc35750610e106030611cb2919061400e565b600754611cbf9190613e16565b8111155b611d02576040517f08c379a0000000000000000000000000000000000000000000000000000000008152600401611cf990613cd6565b60405180910390fd5b8180600111158015611d15575060058111155b611d54576040517f08c379a0000000000000000000000000000000000000000000000000000000008152600401611d4b90613ad6565b60405180910390fd5b6000600260009054906101000a900473ffffffffffffffffffffffffffffffffffffffff1673ffffffffffffffffffffffffffffffffffffffff166360217267336040518263ffffffff1660e01b8152600401611db191906137be565b60206040518083038186803b158015611dc957600080fd5b505afa158015611ddd573d6000803e3d6000fd5b505050506040513d601f19601f82011682018060405250810190611e019190612e57565b905080600b8381548110611e3e577f4e487b7100000000000000000000000000000000000000000000000000000000600052603260045260246000fd5b9060005260206000209060040201600101541115611e91576040517f08c379a0000000000000000000000000000000000000000000000000000000008152600401611e8890613b56565b60405180910390fd5b60026001541415611ed7576040517f08c379a0000000000000000000000000000000000000000000000000000000008152600401611ece90613d16565b60405180910390fd5b6002600181905550600260009054906101000a900473ffffffffffffffffffffffffffffffffffffffff1673ffffffffffffffffffffffffffffffffffffffff1663282d3fdf33610e1060a8611f2d919061400e565b42611f389190613e16565b6040518363ffffffff1660e01b8152600401611f55929190613810565b600060405180830381600087803b158015611f6f57600080fd5b505af1158015611f83573d6000803e3d6000fd5b50505050611f9133856126b4565b6001808190555050505050565b611fa66124ed565b73ffffffffffffffffffffffffffffffffffffffff16611fc461132f565b73ffffffffffffffffffffffffffffffffffffffff161461201a576040517f08c379a000000000000000000000000000000000000000000000000000000000815260040161201190613c16565b60405180910390fd5b600073ffffffffffffffffffffffffffffffffffffffff168173ffffffffffffffffffffffffffffffffffffffff16141561208a576040517f08c379a000000000000000000000000000000000000000000000000000000000815260040161208190613a56565b60405180910390fd5b8073ffffffffffffffffffffffffffffffffffffffff1660008054906101000a900473ffffffffffffffffffffffffffffffffffffffff1673ffffffffffffffffffffffffffffffffffffffff167f8be0079c531659141344cd1fd0a4f28419497f9722a3daafe3b4186f6b6457e060405160405180910390a3806000806101000a81548173ffffffffffffffffffffffffffffffffffffffff021916908373ffffffffffffffffffffffffffffffffffffffff16021790555050565b60085481565b6121556124ed565b73ffffffffffffffffffffffffffffffffffffffff1661217361132f565b73ffffffffffffffffffffffffffffffffffffffff16146121c9576040517f08c379a00000000000000000000000000000000000000000000000000000000081526004016121c090613c16565b60405180910390fd5b600a60009054906101000a900460ff1615612219576040517f08c379a000000000000000000000000000000000000000000000000000000000815260040161221090613b16565b60405180910390fd5b4281101561225c576040517f08c379a000000000000000000000000000000000000000000000000000000000815260040161225390613bb6565b60405180910390fd5b80600781905550610e106018612272919061400e565b610e106030612281919061400e565b61228b9190613e16565b6007546122989190613e16565b600881905550600554600460009054906101000a900473ffffffffffffffffffffffffffffffffffffffff1673ffffffffffffffffffffffffffffffffffffffff166370a08231306040518263ffffffff1660e01b81526004016122fc91906137be565b60206040518083038186803b15801561231457600080fd5b505afa158015612328573d6000803e3d6000fd5b505050506040513d601f19601f8201168201806040525081019061234c9190612e57565b101561238d576040517f08c379a000000000000000000000000000000000000000000000000000000000815260040161238490613bf6565b60405180910390fd5b7f537db03a5cf0f67e64e2a7515e45c28a71d041067e165fc95ee2ecde36e6532d6007546008546040516123c2929190613d71565b60405180910390a16001600a60006101000a81548160ff02191690831515021790555050565b6000600f547f000000000000000000000000000000000000000000000000000000000000000073ffffffffffffffffffffffffffffffffffffffff166370a08231306040518263ffffffff1660e01b815260040161244691906137be565b60206040518083038186803b15801561245e57600080fd5b505afa158015612472573d6000803e3d6000fd5b505050506040513d601f19601f820116820180604052508101906124969190612e57565b10156124d7576040517f08c379a00000000000000000000000000000000000000000000000000000000081526004016124ce90613af6565b60405180910390fd5b6124e6600e54600f548461280b565b9050919050565b600033905090565b816010819055508060118190555061250b61296c565b5050565b6060600061251e601354612991565b90508067ffffffffffffffff811115612560577f4e487b7100000000000000000000000000000000000000000000000000000000600052604160045260246000fd5b60405190808252806020026020018201604052801561258e5781602001602082028036833780820191505090505b50915060006125a16000601354846129b3565b905060005b828110156126ae576000601460008484815181106125ed577f4e487b7100000000000000000000000000000000000000000000000000000000600052603260045260246000fd5b6020026020010151815260200190815260200160002060009054906101000a900473ffffffffffffffffffffffffffffffffffffffff16905080858381518110612660577f4e487b7100000000000000000000000000000000000000000000000000000000600052603260045260246000fd5b602002602001019073ffffffffffffffffffffffffffffffffffffffff16908173ffffffffffffffffffffffffffffffffffffffff16815250505080806126a6906141a8565b9150506125a6565b50505090565b6001600960008473ffffffffffffffffffffffffffffffffffffffff1673ffffffffffffffffffffffffffffffffffffffff16815260200190815260200160002060000160006101000a81548160ff02191690831515021790555080600960008473ffffffffffffffffffffffffffffffffffffffff1673ffffffffffffffffffffffffffffffffffffffff168152602001908152602001600020600101819055506001600b8281548110612792577f4e487b7100000000000000000000000000000000000000000000000000000000600052603260045260246000fd5b906000526020600020906004020160030160008282546127b29190613e16565b925050819055503373ffffffffffffffffffffffffffffffffffffffff167ff6c60b059f60c86b2d612b237ac38bd87bc1f68f87600cd360d68351af1ca95f826040516127ff9190613d56565b60405180910390a25050565b60007f000000000000000000000000000000000000000000000000000000000000000073ffffffffffffffffffffffffffffffffffffffff16634000aea07f000000000000000000000000000000000000000000000000000000000000000085878660405160200161287e929190613906565b6040516020818303038152906040526040518463ffffffff1660e01b81526004016128ab93929190613839565b602060405180830381600087803b1580156128c557600080fd5b505af11580156128d9573d6000803e3d6000fd5b505050506040513d601f19601f820116820180604052508101906128fd9190612dc9565b50600061291f858430600d60008a815260200190815260200160002054612bbc565b90506001600d6000878152602001908152602001600020546129419190613e16565b600d6000878152602001908152602001600020819055506129628582612bf8565b9150509392505050565b6001601260016101000a81548160ff02191690831515021790555061298f612c2b565b565b600060016064836129a29190613e6c565b6129ac9190613e16565b9050919050565b60608167ffffffffffffffff8111156129f5577f4e487b7100000000000000000000000000000000000000000000000000000000600052604160045260246000fd5b604051908082528060200260200182016040528015612a235781602001602082028036833780820191505090505b5090506000601154905060008585612a3b9190614068565b905083811015612a80576040517f08c379a0000000000000000000000000000000000000000000000000000000008152600401612a7790613cb6565b60405180910390fd5b600060fb905060005b85811015612bb15760008884600285612aa29190613ef0565b87612aad9190613e16565b612ab79190614229565b612ac19190613e16565b90506000805b600184612ad49190613e16565b811015612b3f57878181518110612b14577f4e487b7100000000000000000000000000000000000000000000000000000000600052603260045260246000fd5b6020026020010151831415612b2c5760019150612b3f565b8080612b37906141a8565b915050612ac7565b5080612b9b5781878481518110612b7f577f4e487b7100000000000000000000000000000000000000000000000000000000600052603260045260246000fd5b602002602001018181525050600183612b989190613e16565b92505b600184612ba89190613e16565b93505050612a89565b505050509392505050565b600084848484604051602001612bd5949392919061392f565b6040516020818303038152906040528051906020012060001c9050949350505050565b60008282604051602001612c0d92919061377d565b60405160208183030381529060405280519060200120905092915050565b6000612c3561250f565b905060005b8151811015612cbb576000828281518110612c7e577f4e487b7100000000000000000000000000000000000000000000000000000000600052603260045260246000fd5b60200260200101519050600060029050612c9782611992565b612ca657612ca582826126b4565b5b50508080612cb3906141a8565b915050612c3a565b5050565b600081359050612cce81614312565b92915050565b600081519050612ce381614329565b92915050565b600081359050612cf881614340565b92915050565b600081359050612d0d81614357565b92915050565b600081519050612d2281614357565b92915050565b600060208284031215612d3a57600080fd5b6000612d4884828501612cbf565b91505092915050565b60008060408385031215612d6457600080fd5b6000612d7285828601612cbf565b9250506020612d8385828601612cbf565b9150509250929050565b60008060408385031215612da057600080fd5b6000612dae85828601612cbf565b9250506020612dbf85828601612cfe565b9150509250929050565b600060208284031215612ddb57600080fd5b6000612de984828501612cd4565b91505092915050565b60008060408385031215612e0557600080fd5b6000612e1385828601612ce9565b9250506020612e2485828601612cfe565b9150509250929050565b600060208284031215612e4057600080fd5b6000612e4e84828501612cfe565b91505092915050565b600060208284031215612e6957600080fd5b6000612e7784828501612d13565b91505092915050565b6000612e8c8383612e98565b60208301905092915050565b612ea18161409c565b82525050565b612eb08161409c565b82525050565b612ec7612ec28261409c565b6141f1565b82525050565b6000612ed882613daa565b612ee28185613dd8565b9350612eed83613d9a565b8060005b83811015612f1e578151612f058882612e80565b9750612f1083613dcb565b925050600181019050612ef1565b5085935050505092915050565b612f34816140ae565b82525050565b612f43816140ba565b82525050565b612f5a612f55826140ba565b614203565b82525050565b6000612f6b82613db5565b612f758185613de9565b9350612f85818560208601614143565b612f8e816142e7565b840191505092915050565b612fa2816140fb565b82525050565b612fb18161411f565b82525050565b6000612fc282613dc0565b612fcc8185613e05565b9350612fdc818560208601614143565b612fe5816142e7565b840191505092915050565b6000612ffd601483613e05565b91507f4e6f742056616c69642045746820416d6f756e740000000000000000000000006000830152602082019050919050565b600061303d601b83613e05565b91507f416c72656164792050617274696369706174656420496e2049444f00000000006000830152602082019050919050565b600061307d600e83613e05565b91507f4e6f7420726567697374657265640000000000000000000000000000000000006000830152602082019050919050565b60006130bd602683613e05565b91507f4f776e61626c653a206e6577206f776e657220697320746865207a65726f206160008301527f64647265737300000000000000000000000000000000000000000000000000006020830152604082019050919050565b6000613123601683613e05565b91507f416c72656164792047656e657261746564204f6e6365000000000000000000006000830152602082019050919050565b6000613163601383613e05565b91507f526166666c653a204f7574204f662054696d65000000000000000000000000006000830152602082019050919050565b60006131a3601283613e05565b91507f416c7265616479207265676973746572656400000000000000000000000000006000830152602082019050919050565b60006131e3600f83613e05565b91507f696e76616c696420506f6f6c206e6f00000000000000000000000000000000006000830152602082019050919050565b6000613223602b83613e05565b91507f4e6f7420656e6f756768204c494e4b202d2066696c6c20636f6e74726163742060008301527f77697468206661756365740000000000000000000000000000000000000000006020830152604082019050919050565b6000613289601383613e05565b91507f416c726561647920496e697469616c697a6564000000000000000000000000006000830152602082019050919050565b60006132c9601183613e05565b91507f416c7265616479205075726368617365640000000000000000000000000000006000830152602082019050919050565b6000613309601d83613e05565b91507f43616e277420506172746963697061746520696e2074686520506f6f6c0000006000830152602082019050919050565b6000613349602083613e05565b91507f526166666c653a2050617274696369706174696f6e204469646e277420456e646000830152602082019050919050565b6000613389601583613e05565b91507f556e61626c6520546f205265636f7665722045746800000000000000000000006000830152602082019050919050565b60006133c9601483613e05565b91507f49444f2043616e277420426520696e20506173740000000000000000000000006000830152602082019050919050565b6000613409602283613e05565b91507f526166666c653a2050617274696369706174696f6e204469646e27742042656760008301527f696e0000000000000000000000000000000000000000000000000000000000006020830152604082019050919050565b600061346f601d83613e05565b91507f4e6f7420456e6f75676820546f6b656e7320496e20436f6e74726163740000006000830152602082019050919050565b60006134af602083613e05565b91507f4f776e61626c653a2063616c6c6572206973206e6f7420746865206f776e65726000830152602082019050919050565b60006134ef601b83613e05565b91507f526166666c653a2050617274696369706174696f6e20456e64656400000000006000830152602082019050919050565b600061352f601f83613e05565b91507f4f6e6c7920565246436f6f7264696e61746f722063616e2066756c66696c6c006000830152602082019050919050565b600061356f601483613e05565b91507f56616c7565732043616e2774204265205a65726f0000000000000000000000006000830152602082019050919050565b60006135af601683613e05565b91507f57696e6e6572204e6f74204465636964656420596574000000000000000000006000830152602082019050919050565b60006135ef600c83613e05565b91507f496e76616c69642053697a6500000000000000000000000000000000000000006000830152602082019050919050565b600061362f601a83613e05565b91507f4e6f7420696e20526567697374726174696f6e20506572696f640000000000006000830152602082019050919050565b600061366f600083613dfa565b9150600082019050919050565b6000613689601283613e05565b91507f4e6f7420696e2053616c6520506572696f6400000000000000000000000000006000830152602082019050919050565b60006136c9601f83613e05565b91507f5265656e7472616e637947756172643a207265656e7472616e742063616c6c006000830152602082019050919050565b6000613709601383613e05565b91507f4e6f7420496e697469616c697a656420596574000000000000000000000000006000830152602082019050919050565b613745816140e4565b82525050565b61375c613757826140e4565b61421f565b82525050565b600061376e8284612eb6565b60148201915081905092915050565b60006137898285612f49565b602082019150613799828461374b565b6020820191508190509392505050565b60006137b482613662565b9150819050919050565b60006020820190506137d36000830184612ea7565b92915050565b60006060820190506137ee6000830186612ea7565b6137fb6020830185612ea7565b613808604083018461373c565b949350505050565b60006040820190506138256000830185612ea7565b613832602083018461373c565b9392505050565b600060608201905061384e6000830186612ea7565b61385b602083018561373c565b818103604083015261386d8184612f60565b9050949350505050565b600060208201905081810360008301526138918184612ecd565b905092915050565b60006020820190506138ae6000830184612f2b565b92915050565b60006060820190506138c96000830186612f2b565b6138d6602083018561373c565b6138e36040830184612f2b565b949350505050565b60006020820190506139006000830184612f3a565b92915050565b600060408201905061391b6000830185612f3a565b613928602083018461373c565b9392505050565b60006080820190506139446000830187612f3a565b613951602083018661373c565b61395e6040830185612ea7565b61396b606083018461373c565b95945050505050565b60006020820190506139896000830184612f99565b92915050565b60006020820190506139a46000830184612fa8565b92915050565b600060808201905081810360008301526139c48187612fb7565b90506139d3602083018661373c565b6139e0604083018561373c565b6139ed606083018461373c565b95945050505050565b60006020820190508181036000830152613a0f81612ff0565b9050919050565b60006020820190508181036000830152613a2f81613030565b9050919050565b60006020820190508181036000830152613a4f81613070565b9050919050565b60006020820190508181036000830152613a6f816130b0565b9050919050565b60006020820190508181036000830152613a8f81613116565b9050919050565b60006020820190508181036000830152613aaf81613156565b9050919050565b60006020820190508181036000830152613acf81613196565b9050919050565b60006020820190508181036000830152613aef816131d6565b9050919050565b60006020820190508181036000830152613b0f81613216565b9050919050565b60006020820190508181036000830152613b2f8161327c565b9050919050565b60006020820190508181036000830152613b4f816132bc565b9050919050565b60006020820190508181036000830152613b6f816132fc565b9050919050565b60006020820190508181036000830152613b8f8161333c565b9050919050565b60006020820190508181036000830152613baf8161337c565b9050919050565b60006020820190508181036000830152613bcf816133bc565b9050919050565b60006020820190508181036000830152613bef816133fc565b9050919050565b60006020820190508181036000830152613c0f81613462565b9050919050565b60006020820190508181036000830152613c2f816134a2565b9050919050565b60006020820190508181036000830152613c4f816134e2565b9050919050565b60006020820190508181036000830152613c6f81613522565b9050919050565b60006020820190508181036000830152613c8f81613562565b9050919050565b60006020820190508181036000830152613caf816135a2565b9050919050565b60006020820190508181036000830152613ccf816135e2565b9050919050565b60006020820190508181036000830152613cef81613622565b9050919050565b60006020820190508181036000830152613d0f8161367c565b9050919050565b60006020820190508181036000830152613d2f816136bc565b9050919050565b60006020820190508181036000830152613d4f816136fc565b9050919050565b6000602082019050613d6b600083018461373c565b92915050565b6000604082019050613d86600083018561373c565b613d93602083018461373c565b9392505050565b6000819050602082019050919050565b600081519050919050565b600081519050919050565b600081519050919050565b6000602082019050919050565b600082825260208201905092915050565b600082825260208201905092915050565b600081905092915050565b600082825260208201905092915050565b6000613e21826140e4565b9150613e2c836140e4565b9250827fffffffffffffffffffffffffffffffffffffffffffffffffffffffffffffffff03821115613e6157613e6061425a565b5b828201905092915050565b6000613e77826140e4565b9150613e82836140e4565b925082613e9257613e91614289565b5b828204905092915050565b6000808291508390505b6001851115613ee757808604811115613ec357613ec261425a565b5b6001851615613ed25780820291505b8081029050613ee085614305565b9450613ea7565b94509492505050565b6000613efb826140e4565b9150613f06836140ee565b9250613f337fffffffffffffffffffffffffffffffffffffffffffffffffffffffffffffffff8484613f3b565b905092915050565b600082613f4b5760019050614007565b81613f595760009050614007565b8160018114613f6f5760028114613f7957613fa8565b6001915050614007565b60ff841115613f8b57613f8a61425a565b5b8360020a915084821115613fa257613fa161425a565b5b50614007565b5060208310610133831016604e8410600b8410161715613fdd5782820a905083811115613fd857613fd761425a565b5b614007565b613fea8484846001613e9d565b925090508184048111156140015761400061425a565b5b81810290505b9392505050565b6000614019826140e4565b9150614024836140e4565b9250817fffffffffffffffffffffffffffffffffffffffffffffffffffffffffffffffff048311821515161561405d5761405c61425a565b5b828202905092915050565b6000614073826140e4565b915061407e836140e4565b9250828210156140915761409061425a565b5b828203905092915050565b60006140a7826140c4565b9050919050565b60008115159050919050565b6000819050919050565b600073ffffffffffffffffffffffffffffffffffffffff82169050919050565b6000819050919050565b600060ff82169050919050565b60006141068261410d565b9050919050565b6000614118826140c4565b9050919050565b600061412a82614131565b9050919050565b600061413c826140c4565b9050919050565b60005b83811015614161578082015181840152602081019050614146565b83811115614170576000848401525b50505050565b6000600282049050600182168061418e57607f821691505b602082108114156141a2576141a16142b8565b5b50919050565b60006141b3826140e4565b91507fffffffffffffffffffffffffffffffffffffffffffffffffffffffffffffffff8214156141e6576141e561425a565b5b600182019050919050565b60006141fc8261420d565b9050919050565b6000819050919050565b6000614218826142f8565b9050919050565b6000819050919050565b6000614234826140e4565b915061423f836140e4565b92508261424f5761424e614289565b5b828206905092915050565b7f4e487b7100000000000000000000000000000000000000000000000000000000600052601160045260246000fd5b7f4e487b7100000000000000000000000000000000000000000000000000000000600052601260045260246000fd5b7f4e487b7100000000000000000000000000000000000000000000000000000000600052602260045260246000fd5b6000601f19601f8301169050919050565b60008160601b9050919050565b60008160011c9050919050565b61431b8161409c565b811461432657600080fd5b50565b614332816140ae565b811461433d57600080fd5b50565b614349816140ba565b811461435457600080fd5b50565b614360816140e4565b811461436b57600080fd5b5056fea2646970667358221220033b5898dbe12d0d7e8a75a843a263163af9fbf3984648a376a85b92c7aab6cd64736f6c63430008000033",
  "immutableReferences": {
    "2996": [
      {
        "length": 32,
        "start": 9199
      },
      {
        "length": 32,
        "start": 10255
      }
    ],
    "2998": [
      {
        "length": 32,
        "start": 5197
      },
      {
        "length": 32,
        "start": 10315
      }
    ]
  },
  "source": "// SPDX-License-Identifier: MIT\r\npragma solidity ^0.8.0;\r\n\r\nimport \"@chainlink/contracts/src/v0.8/dev/VRFConsumerBase.sol\";\r\nimport \"./IDO.sol\";\r\n\r\nabstract contract Random is VRFConsumerBase {\r\n\r\n    bytes32 internal keyHash;\r\n    uint256 internal fee;\r\n    \r\n    bytes32 public reqId;\r\n    uint256 public randomResult;\r\n\r\n    bool isGeneratedOnce;\r\n    modifier once() {\r\n        require(!isGeneratedOnce, \"Already Generated Once\");\r\n        isGeneratedOnce = true;\r\n        _;\r\n    }\r\n\r\n    constructor () VRFConsumerBase (\r\n        0xb3dCcb4Cf7a26f6cf6B120Cf5A73875B7BBc655B, // VRF Coordinator\r\n        0x01BE23585060835E02B77ef475b0Cc51aA1e0709  // LINK Token\r\n    ) {\r\n        keyHash = 0x2ed0feb3e7fd2022120aa84fab1945545a9f2ffc9076fd6156fa96eaff4c1311;\r\n        fee = 100000000000000000; // 0.1 LINK\r\n    }\r\n\r\n    /** \r\n     * Requests randomness from a user-provided seed\r\n     */\r\n    function _getRandomNumber(uint256 userProvidedSeed) internal returns (bytes32 requestId) {\r\n        require(LINK.balanceOf(address(this)) >= fee, \"Not enough LINK - fill contract with faucet\");\r\n        return requestRandomness(keyHash, fee, userProvidedSeed);\r\n    }\r\n\r\n    /**\r\n     * Callback function used by VRF Coordinator\r\n     */\r\n    function fulfillRandomness(bytes32 requestId, uint256 randomness) internal override {\r\n        reqId = requestId;\r\n        randomResult = randomness;\r\n        _afterGeneration();\r\n    }\r\n\r\n    bool _isFulfilled = false;\r\n    function isFulfilled() public view returns(bool) {\r\n        return _isFulfilled;\r\n    }\r\n\r\n    // Generating Multiple Random Numbers From a Single One\r\n    function _randomList(uint256 _from, uint256 _to, uint256 _size) internal view returns(uint256[] memory rands) {\r\n\r\n        rands = new uint256[](_size);\r\n        uint256 r = randomResult;\r\n        uint256 len = _to - _from;\r\n        \r\n        require(len >= _size, \"Invalid Size\");\r\n\r\n        uint256 i = 251;\r\n        uint256 count = 0;\r\n\r\n        while(count < _size) {\r\n            uint256 rand = (r + i**2) % len + _from;\r\n            bool exists = false;\r\n\r\n            for(uint256 j = 0; j < count + 1; j++) {\r\n                if (rand == rands[j]) {\r\n                    exists = true;\r\n                    break;\r\n                }\r\n            }\r\n\r\n            if(!exists) {\r\n                rands[count] = rand;\r\n                count += 1;\r\n            }\r\n\r\n            i += 1;\r\n        }\r\n    }\r\n\r\n    // This will execute after generation of Random Number\r\n    function _afterGeneration() internal virtual;\r\n\r\n}\r\n\r\ncontract RaffleWrap is IDO, Random {\r\n\r\n    uint256 public ticketsSold; // No of tickets sold\r\n    mapping(uint256 => address) public ticketToOwner; // owner of a ticket\r\n    mapping(address => uint256) public addressToTicketCount; // No Of Tickets Owned By an Address\r\n    mapping(address => uint256[]) public addressToTicketsOwned; // Tickets That an address own\r\n\r\n    uint256 public ticketPrice = 3 * 10 ** 18; // Price of a ticket(no. of tokens)\r\n\r\n    modifier raffleParticipationPeriod() {\r\n        require(regStarts <= block.timestamp, \"Raffle: Participation Didn't Begin\");\r\n        require(regStarts + regDuration >= block.timestamp, \"Raffle: Participation Ended\");\r\n        _;\r\n    }\r\n\r\n    modifier raffleResultPeriod() {\r\n        require(regStarts + regDuration <= block.timestamp, \"Raffle: Participation Didn't End\");\r\n        require(saleStarts >= block.timestamp, \"Raffle: Out Of Time\");\r\n        _;\r\n    }\r\n\r\n    constructor (\r\n        address _stakerAddress,\r\n        address _nativeTokenAddress,\r\n        address _idoTokenAddress,\r\n        uint256 _idoAmount,\r\n        uint256 _price\r\n    ) IDO(\r\n        _stakerAddress,\r\n        _nativeTokenAddress,\r\n        _idoTokenAddress,\r\n        _idoAmount,\r\n        _price\r\n    ) {\r\n\r\n    }\r\n\r\n    \r\n    // Buy Tickets\r\n    function buyTickets(uint256 _noOfTickets) external raffleParticipationPeriod nonReentrant {\r\n        require(!getRegistrationStatus(msg.sender), \"Already Participated In IDO\");\r\n        uint256 nextTicket = ticketsSold;\r\n        nativeToken.transferFrom(msg.sender, owner(), _noOfTickets * ticketPrice);\r\n\r\n        for(uint256 i=0; i<_noOfTickets; i++) {\r\n            ticketToOwner[nextTicket + i] = msg.sender;\r\n            addressToTicketsOwned[msg.sender].push(nextTicket + i);\r\n        }\r\n\r\n        addressToTicketCount[msg.sender] += _noOfTickets;\r\n        ticketsSold += _noOfTickets;\r\n    }\r\n\r\n    // Generates The Random Winners\r\n    function genRandom() external once raffleResultPeriod nonReentrant {\r\n        uint256 seed = uint256(keccak256(abi.encodePacked(msg.sender)));\r\n        _getRandomNumber(seed);\r\n    }\r\n\r\n    // Function Extended From Random Contract\r\n    function _afterGeneration() internal override {\r\n        _isFulfilled = true;\r\n        _executeRaffle();\r\n    }\r\n\r\n    // Raffle Entry For Winners\r\n    function _executeRaffle() internal {\r\n\r\n        address[] memory list = _getWinners();\r\n        for(uint256 i=0; i<list.length; i++) {\r\n            address account = list[i];\r\n            uint256 _poolNo = 2; // Raffle Entry Pool\r\n\r\n            if(!getRegistrationStatus(account)) _register(account, _poolNo);\r\n        }\r\n    }\r\n\r\n    // Gets The Address Of The Winners\r\n    function _getWinners() internal view returns(address[] memory list) {\r\n        uint256 n = _noOfWinners(ticketsSold);\r\n        list = new address[](n);\r\n        uint256[] memory winners = _randomList(0, ticketsSold, n);\r\n\r\n        for(uint256 i=0; i<n; i++) {\r\n            address winner = ticketToOwner[winners[i]];\r\n            list[i] = winner;\r\n        }\r\n    }\r\n\r\n    function getWinners() external view returns(address[] memory) {\r\n        require(isFulfilled(), \"Winner Not Decided Yet\");\r\n        return _getWinners();\r\n    }\r\n\r\n    // Calculates The Number Of Winners\r\n    function _noOfWinners(uint256 _ticketsSold) internal pure returns(uint256) {\r\n        return _ticketsSold / 100 + 1;\r\n    }\r\n\r\n}",
  "sourcePath": "C:/Users/sudip/Desktop/RealProjects/PolyStarter/contracts/IDOStaker/RaffleWrap.sol",
  "compiler": {
    "name": "solc",
    "version": "0.8.0+commit.c7dfd78e.Emscripten.clang"
  },
  "schemaVersion": "3.3.4",
  "updatedAt": "2021-06-13T07:16:51.190Z",
  "devdoc": {
    "kind": "dev",
    "methods": {
      "owner()": {
        "details": "Returns the address of the current owner."
      },
      "renounceOwnership()": {
        "details": "Leaves the contract without owner. It will not be possible to call `onlyOwner` functions anymore. Can only be called by the current owner. NOTE: Renouncing ownership will leave the contract without an owner, thereby removing any functionality that is only available to the owner."
      },
      "transferOwnership(address)": {
        "details": "Transfers ownership of the contract to a new account (`newOwner`). Can only be called by the current owner."
      }
    },
    "version": 1
  },
  "userdoc": {
    "kind": "user",
    "methods": {},
    "version": 1
  }
}