{
  "contractName": "RaffleWrapTest",
  "abi": [
    {
      "inputs": [
        {
          "internalType": "address",
          "name": "_stakerAddress",
          "type": "address"
        },
        {
          "internalType": "address",
          "name": "_nativeTokenAddress",
          "type": "address"
        },
        {
          "internalType": "address",
          "name": "_idoTokenAddress",
          "type": "address"
        },
        {
          "internalType": "uint256",
          "name": "_idoAmount",
          "type": "uint256"
        },
        {
          "internalType": "uint256",
          "name": "_price",
          "type": "uint256"
        }
      ],
      "stateMutability": "nonpayable",
      "type": "constructor"
    },
    {
      "anonymous": false,
      "inputs": [
        {
          "indexed": false,
          "internalType": "uint256",
          "name": "regStart",
          "type": "uint256"
        },
        {
          "indexed": false,
          "internalType": "uint256",
          "name": "saleStart",
          "type": "uint256"
        }
      ],
      "name": "Initialization",
      "type": "event"
    },
    {
      "anonymous": false,
      "inputs": [
        {
          "indexed": true,
          "internalType": "address",
          "name": "previousOwner",
          "type": "address"
        },
        {
          "indexed": true,
          "internalType": "address",
          "name": "newOwner",
          "type": "address"
        }
      ],
      "name": "OwnershipTransferred",
      "type": "event"
    },
    {
      "anonymous": false,
      "inputs": [
        {
          "indexed": true,
          "internalType": "address",
          "name": "",
          "type": "address"
        },
        {
          "indexed": false,
          "internalType": "uint256",
          "name": "tokens",
          "type": "uint256"
        },
        {
          "indexed": false,
          "internalType": "uint256",
          "name": "price",
          "type": "uint256"
        }
      ],
      "name": "Purchase",
      "type": "event"
    },
    {
      "anonymous": false,
      "inputs": [
        {
          "indexed": true,
          "internalType": "address",
          "name": "account",
          "type": "address"
        },
        {
          "indexed": false,
          "internalType": "uint256",
          "name": "poolNo",
          "type": "uint256"
        }
      ],
      "name": "Registration",
      "type": "event"
    },
    {
      "inputs": [
        {
          "internalType": "address",
          "name": "",
          "type": "address"
        }
      ],
      "name": "addressToTicketCount",
      "outputs": [
        {
          "internalType": "uint256",
          "name": "",
          "type": "uint256"
        }
      ],
      "stateMutability": "view",
      "type": "function"
    },
    {
      "inputs": [
        {
          "internalType": "address",
          "name": "",
          "type": "address"
        },
        {
          "internalType": "uint256",
          "name": "",
          "type": "uint256"
        }
      ],
      "name": "addressToTicketsOwned",
      "outputs": [
        {
          "internalType": "uint256",
          "name": "",
          "type": "uint256"
        }
      ],
      "stateMutability": "view",
      "type": "function"
    },
    {
      "inputs": [],
      "name": "buyNow",
      "outputs": [],
      "stateMutability": "payable",
      "type": "function"
    },
    {
      "inputs": [
        {
          "internalType": "address",
          "name": "account",
          "type": "address"
        }
      ],
      "name": "getPoolNo",
      "outputs": [
        {
          "internalType": "uint256",
          "name": "",
          "type": "uint256"
        }
      ],
      "stateMutability": "view",
      "type": "function"
    },
    {
      "inputs": [
        {
          "internalType": "address",
          "name": "account",
          "type": "address"
        }
      ],
      "name": "getRegistrationStatus",
      "outputs": [
        {
          "internalType": "bool",
          "name": "",
          "type": "bool"
        }
      ],
      "stateMutability": "view",
      "type": "function"
    },
    {
      "inputs": [],
      "name": "iStaker",
      "outputs": [
        {
          "internalType": "contract IStaker",
          "name": "",
          "type": "address"
        }
      ],
      "stateMutability": "view",
      "type": "function"
    },
    {
      "inputs": [],
      "name": "idoToken",
      "outputs": [
        {
          "internalType": "contract IERC20Metadata",
          "name": "",
          "type": "address"
        }
      ],
      "stateMutability": "view",
      "type": "function"
    },
    {
      "inputs": [],
      "name": "idoTokenSum",
      "outputs": [
        {
          "internalType": "uint256",
          "name": "",
          "type": "uint256"
        }
      ],
      "stateMutability": "view",
      "type": "function"
    },
    {
      "inputs": [],
      "name": "idoTotalPrice",
      "outputs": [
        {
          "internalType": "uint256",
          "name": "",
          "type": "uint256"
        }
      ],
      "stateMutability": "view",
      "type": "function"
    },
    {
      "inputs": [
        {
          "internalType": "uint256",
          "name": "time",
          "type": "uint256"
        }
      ],
      "name": "initialize",
      "outputs": [],
      "stateMutability": "nonpayable",
      "type": "function"
    },
    {
      "inputs": [],
      "name": "isFulfilled",
      "outputs": [
        {
          "internalType": "bool",
          "name": "",
          "type": "bool"
        }
      ],
      "stateMutability": "view",
      "type": "function"
    },
    {
      "inputs": [],
      "name": "isInitialized",
      "outputs": [
        {
          "internalType": "bool",
          "name": "",
          "type": "bool"
        }
      ],
      "stateMutability": "view",
      "type": "function"
    },
    {
      "inputs": [],
      "name": "lockDuration",
      "outputs": [
        {
          "internalType": "uint256",
          "name": "",
          "type": "uint256"
        }
      ],
      "stateMutability": "view",
      "type": "function"
    },
    {
      "inputs": [],
      "name": "nativeToken",
      "outputs": [
        {
          "internalType": "contract IERC20Metadata",
          "name": "",
          "type": "address"
        }
      ],
      "stateMutability": "view",
      "type": "function"
    },
    {
      "inputs": [],
      "name": "owner",
      "outputs": [
        {
          "internalType": "address",
          "name": "",
          "type": "address"
        }
      ],
      "stateMutability": "view",
      "type": "function"
    },
    {
      "inputs": [
        {
          "internalType": "uint256",
          "name": "",
          "type": "uint256"
        }
      ],
      "name": "pools",
      "outputs": [
        {
          "internalType": "string",
          "name": "name",
          "type": "string"
        },
        {
          "internalType": "uint256",
          "name": "minNativeToken",
          "type": "uint256"
        },
        {
          "internalType": "uint256",
          "name": "weight",
          "type": "uint256"
        },
        {
          "internalType": "uint256",
          "name": "participants",
          "type": "uint256"
        }
      ],
      "stateMutability": "view",
      "type": "function"
    },
    {
      "inputs": [],
      "name": "randomResult",
      "outputs": [
        {
          "internalType": "uint256",
          "name": "",
          "type": "uint256"
        }
      ],
      "stateMutability": "view",
      "type": "function"
    },
    {
      "inputs": [
        {
          "internalType": "bytes32",
          "name": "requestId",
          "type": "bytes32"
        },
        {
          "internalType": "uint256",
          "name": "randomness",
          "type": "uint256"
        }
      ],
      "name": "rawFulfillRandomness",
      "outputs": [],
      "stateMutability": "nonpayable",
      "type": "function"
    },
    {
      "inputs": [
        {
          "internalType": "address",
          "name": "tokenAddress",
          "type": "address"
        },
        {
          "internalType": "address",
          "name": "to",
          "type": "address"
        }
      ],
      "name": "recoverERC20",
      "outputs": [],
      "stateMutability": "nonpayable",
      "type": "function"
    },
    {
      "inputs": [
        {
          "internalType": "address",
          "name": "to",
          "type": "address"
        }
      ],
      "name": "recoverEth",
      "outputs": [],
      "stateMutability": "nonpayable",
      "type": "function"
    },
    {
      "inputs": [],
      "name": "regDuration",
      "outputs": [
        {
          "internalType": "uint256",
          "name": "",
          "type": "uint256"
        }
      ],
      "stateMutability": "view",
      "type": "function"
    },
    {
      "inputs": [],
      "name": "regStarts",
      "outputs": [
        {
          "internalType": "uint256",
          "name": "",
          "type": "uint256"
        }
      ],
      "stateMutability": "view",
      "type": "function"
    },
    {
      "inputs": [
        {
          "internalType": "uint256",
          "name": "_poolNo",
          "type": "uint256"
        }
      ],
      "name": "register",
      "outputs": [],
      "stateMutability": "nonpayable",
      "type": "function"
    },
    {
      "inputs": [],
      "name": "renounceOwnership",
      "outputs": [],
      "stateMutability": "nonpayable",
      "type": "function"
    },
    {
      "inputs": [],
      "name": "reqId",
      "outputs": [
        {
          "internalType": "bytes32",
          "name": "",
          "type": "bytes32"
        }
      ],
      "stateMutability": "view",
      "type": "function"
    },
    {
      "inputs": [],
      "name": "saleDuration",
      "outputs": [
        {
          "internalType": "uint256",
          "name": "",
          "type": "uint256"
        }
      ],
      "stateMutability": "view",
      "type": "function"
    },
    {
      "inputs": [],
      "name": "saleStarts",
      "outputs": [
        {
          "internalType": "uint256",
          "name": "",
          "type": "uint256"
        }
      ],
      "stateMutability": "view",
      "type": "function"
    },
    {
      "inputs": [],
      "name": "saleStartsAfter",
      "outputs": [
        {
          "internalType": "uint256",
          "name": "",
          "type": "uint256"
        }
      ],
      "stateMutability": "view",
      "type": "function"
    },
    {
      "inputs": [],
      "name": "ticketPrice",
      "outputs": [
        {
          "internalType": "uint256",
          "name": "",
          "type": "uint256"
        }
      ],
      "stateMutability": "view",
      "type": "function"
    },
    {
      "inputs": [
        {
          "internalType": "uint256",
          "name": "",
          "type": "uint256"
        }
      ],
      "name": "ticketToOwner",
      "outputs": [
        {
          "internalType": "address",
          "name": "",
          "type": "address"
        }
      ],
      "stateMutability": "view",
      "type": "function"
    },
    {
      "inputs": [],
      "name": "ticketsSold",
      "outputs": [
        {
          "internalType": "uint256",
          "name": "",
          "type": "uint256"
        }
      ],
      "stateMutability": "view",
      "type": "function"
    },
    {
      "inputs": [
        {
          "internalType": "uint256",
          "name": "_poolNo",
          "type": "uint256"
        }
      ],
      "name": "tokensAndPriceByPoolNo",
      "outputs": [
        {
          "internalType": "uint256",
          "name": "",
          "type": "uint256"
        },
        {
          "internalType": "uint256",
          "name": "",
          "type": "uint256"
        }
      ],
      "stateMutability": "view",
      "type": "function"
    },
    {
      "inputs": [],
      "name": "totalWeight",
      "outputs": [
        {
          "internalType": "uint256",
          "name": "",
          "type": "uint256"
        }
      ],
      "stateMutability": "view",
      "type": "function"
    },
    {
      "inputs": [
        {
          "internalType": "address",
          "name": "newOwner",
          "type": "address"
        }
      ],
      "name": "transferOwnership",
      "outputs": [],
      "stateMutability": "nonpayable",
      "type": "function"
    },
    {
      "inputs": [],
      "name": "unit",
      "outputs": [
        {
          "internalType": "uint256",
          "name": "",
          "type": "uint256"
        }
      ],
      "stateMutability": "view",
      "type": "function"
    },
    {
      "inputs": [
        {
          "internalType": "address",
          "name": "",
          "type": "address"
        }
      ],
      "name": "userlog",
      "outputs": [
        {
          "internalType": "bool",
          "name": "isRegistered",
          "type": "bool"
        },
        {
          "internalType": "uint256",
          "name": "registeredPool",
          "type": "uint256"
        },
        {
          "internalType": "bool",
          "name": "purchased",
          "type": "bool"
        }
      ],
      "stateMutability": "view",
      "type": "function"
    },
    {
      "inputs": [
        {
          "internalType": "uint256",
          "name": "_noOfTickets",
          "type": "uint256"
        }
      ],
      "name": "buyTickets",
      "outputs": [],
      "stateMutability": "nonpayable",
      "type": "function"
    },
    {
      "inputs": [],
      "name": "genRandom",
      "outputs": [],
      "stateMutability": "nonpayable",
      "type": "function"
    },
    {
      "inputs": [
        {
          "internalType": "bytes32",
          "name": "requestId",
          "type": "bytes32"
        },
        {
          "internalType": "uint256",
          "name": "randomness",
          "type": "uint256"
        }
      ],
      "name": "fulfillTest",
      "outputs": [],
      "stateMutability": "nonpayable",
      "type": "function"
    }
  ],
  "bytecode": "0x60c06040526000601260016101000a81548160ff0219169083151502179055506729a2241af62c00006017553480156200003857600080fd5b5060405162004f8038038062004f8083398181016040528101906200005e91906200099a565b738c7382f9d8f56b33781fe506e897a4f1e2d1725573326c977e6efc84e512bb9c30f76e30c160ed06fb868686868660006200009f6200089d60201b60201c565b9050806000806101000a81548173ffffffffffffffffffffffffffffffffffffffff021916908373ffffffffffffffffffffffffffffffffffffffff1602179055508073ffffffffffffffffffffffffffffffffffffffff16600073ffffffffffffffffffffffffffffffffffffffff167f8be0079c531659141344cd1fd0a4f28419497f9722a3daafe3b4186f6b6457e060405160405180910390a3506001808190555084600260006101000a81548173ffffffffffffffffffffffffffffffffffffffff021916908373ffffffffffffffffffffffffffffffffffffffff16021790555083600360006101000a81548173ffffffffffffffffffffffffffffffffffffffff021916908373ffffffffffffffffffffffffffffffffffffffff16021790555082600460006101000a81548173ffffffffffffffffffffffffffffffffffffffff021916908373ffffffffffffffffffffffffffffffffffffffff16021790555081600581905550806006819055506000600360009054906101000a900473ffffffffffffffffffffffffffffffffffffffff1673ffffffffffffffffffffffffffffffffffffffff1663313ce5676040518163ffffffff1660e01b815260040160206040518083038186803b1580156200028057600080fd5b505afa15801562000295573d6000803e3d6000fd5b505050506040513d601f19601f82011682018060405250810190620002bb919062000a1c565b60ff169050600b60405180608001604052806040518060400160405280600481526020017f4e756c6c000000000000000000000000000000000000000000000000000000008152508152602001600081526020016000815260200160008152509080600181540180825580915050600190039060005260206000209060040201600090919091909150600082015181600001908051906020019062000362929190620008a5565b506020820151816001015560408201518160020155606082015181600301555050600b60405180608001604052806040518060400160405280600681526020017f4b6e696768740000000000000000000000000000000000000000000000000000815250815260200183600a620003da919062000aa3565b6064620003e8919062000be0565b81526020016002815260200160008152509080600181540180825580915050600190039060005260206000209060040201600090919091909150600082015181600001908051906020019062000440929190620008a5565b506020820151816001015560408201518160020155606082015181600301555050600b60405180608001604052806040518060400160405280600681526020017f426973686f700000000000000000000000000000000000000000000000000000815250815260200183600a620004b8919062000aa3565b6101f4620004c7919062000be0565b8152602001600381526020016000815250908060018154018082558091505060019003906000526020600020906004020160009091909190915060008201518160000190805190602001906200051f929190620008a5565b506020820151816001015560408201518160020155606082015181600301555050600b60405180608001604052806040518060400160405280600481526020017f526f6f6b00000000000000000000000000000000000000000000000000000000815250815260200183600a62000597919062000aa3565b6103e8620005a6919062000be0565b815260200160048152602001600081525090806001815401808255809150506001900390600052602060002090600402016000909190919091506000820151816000019080519060200190620005fe929190620008a5565b506020820151816001015560408201518160020155606082015181600301555050600b60405180608001604052806040518060400160405280600481526020017f4b696e6700000000000000000000000000000000000000000000000000000000815250815260200183600a62000676919062000aa3565b6107d062000685919062000be0565b815260200160058152602001600081525090806001815401808255809150506001900390600052602060002090600402016000909190919091506000820151816000019080519060200190620006dd929190620008a5565b506020820151816001015560408201518160020155606082015181600301555050600b60405180608001604052806040518060400160405280600581526020017f517565656e000000000000000000000000000000000000000000000000000000815250815260200183600a62000755919062000aa3565b610fa062000764919062000be0565b815260200160068152602001600081525090806001815401808255809150506001900390600052602060002090600402016000909190919091506000820151816000019080519060200190620007bc929190620008a5565b5060208201518160010155604082015181600201556060820151816003015550506014600c819055505050505050508173ffffffffffffffffffffffffffffffffffffffff1660a08173ffffffffffffffffffffffffffffffffffffffff1660601b815250508073ffffffffffffffffffffffffffffffffffffffff1660808173ffffffffffffffffffffffffffffffffffffffff1660601b8152505050507f6e75b569a01ef56d18cab6a8e71e6600d6ce853834d4a5748b720d06f878b3a460001b600e81905550655af3107a4000600f81905550505050505062000d7b565b600033905090565b828054620008b39062000c8c565b90600052602060002090601f016020900481019282620008d7576000855562000923565b82601f10620008f257805160ff191683800117855562000923565b8280016001018555821562000923579182015b828111156200092257825182559160200191906001019062000905565b5b50905062000932919062000936565b5090565b5b808211156200095157600081600090555060010162000937565b5090565b600081519050620009668162000d2d565b92915050565b6000815190506200097d8162000d47565b92915050565b600081519050620009948162000d61565b92915050565b600080600080600060a08688031215620009b357600080fd5b6000620009c38882890162000955565b9550506020620009d68882890162000955565b9450506040620009e98882890162000955565b9350506060620009fc888289016200096c565b925050608062000a0f888289016200096c565b9150509295509295909350565b60006020828403121562000a2f57600080fd5b600062000a3f8482850162000983565b91505092915050565b6000808291508390505b600185111562000a9a5780860481111562000a725762000a7162000cc2565b5b600185161562000a825780820291505b808102905062000a928562000d20565b945062000a52565b94509492505050565b600062000ab08262000c75565b915062000abd8362000c75565b925062000aec7fffffffffffffffffffffffffffffffffffffffffffffffffffffffffffffffff848462000af4565b905092915050565b60008262000b06576001905062000bd9565b8162000b16576000905062000bd9565b816001811462000b2f576002811462000b3a5762000b70565b600191505062000bd9565b60ff84111562000b4f5762000b4e62000cc2565b5b8360020a91508482111562000b695762000b6862000cc2565b5b5062000bd9565b5060208310610133831016604e8410600b841016171562000baa5782820a90508381111562000ba45762000ba362000cc2565b5b62000bd9565b62000bb9848484600162000a48565b9250905081840481111562000bd35762000bd262000cc2565b5b81810290505b9392505050565b600062000bed8262000c75565b915062000bfa8362000c75565b9250817fffffffffffffffffffffffffffffffffffffffffffffffffffffffffffffffff048311821515161562000c365762000c3562000cc2565b5b828202905092915050565b600062000c4e8262000c55565b9050919050565b600073ffffffffffffffffffffffffffffffffffffffff82169050919050565b6000819050919050565b600060ff82169050919050565b6000600282049050600182168062000ca557607f821691505b6020821081141562000cbc5762000cbb62000cf1565b5b50919050565b7f4e487b7100000000000000000000000000000000000000000000000000000000600052601160045260246000fd5b7f4e487b7100000000000000000000000000000000000000000000000000000000600052602260045260246000fd5b60008160011c9050919050565b62000d388162000c41565b811462000d4457600080fd5b50565b62000d528162000c75565b811462000d5e57600080fd5b50565b62000d6c8162000c7f565b811462000d7857600080fd5b50565b60805160601c60a05160601c6141cb62000db5600039600081816113bc01526126f301526000818161243c01526126b701526141cb6000f3fe6080604052600436106102305760003560e01c8063907af6c01161012e578063c4f34fab116100ab578063efad76da1161006f578063efad76da1461082e578063f207564e14610859578063f2fde38b14610882578063f3f40af2146108ab578063fe4b84df146108d657610230565b8063c4f34fab14610759578063d0f4b44714610784578063d6cd82bc146107ad578063e1758bd8146107d8578063e76eda861461080357610230565b8063a158226d116100f2578063a158226d1461065b578063a25dd13014610686578063a8af4ff5146106b1578063ac4afa38146106ee578063b6ba81141461072e57610230565b8063907af6c01461059557806394985ddd146105c057806396c82e57146105e95780639c3962f0146106145780639e6e9d0f1461061e57610230565b806351622cd0116101bc578063886f039a11610180578063886f039a146104ad5780638997ce4e146104d65780638da5cb5b146105015780638f15024f1461052c5780638f666ecf1461055757610230565b806351622cd0146103dc57806366a30cb614610419578063715018a6146104305780637504db3e146104475780637acaea9b1461047057610230565b80633711d9fb116102035780633711d9fb146102f1578063385a9c371461031c578063392e53cd1461034757806342619f661461037257806345a28e061461039d57610230565b806304554443146102355780631209b1f6146102605780632b08e8241461028b5780632f366637146102c8575b600080fd5b34801561024157600080fd5b5061024a6108ff565b6040516102579190613bb6565b60405180910390f35b34801561026c57600080fd5b50610275610911565b6040516102829190613bb6565b60405180910390f35b34801561029757600080fd5b506102b260048036038101906102ad9190612e7b565b610917565b6040516102bf91906136a0565b60405180910390f35b3480156102d457600080fd5b506102ef60048036038101906102ea9190612e7b565b61094a565b005b3480156102fd57600080fd5b50610306610c11565b6040516103139190613bb6565b60405180910390f35b34801561032857600080fd5b50610331610c23565b60405161033e9190613759565b60405180910390f35b34801561035357600080fd5b5061035c610c3a565b6040516103699190613759565b60405180910390f35b34801561037e57600080fd5b50610387610c4d565b6040516103949190613bb6565b60405180910390f35b3480156103a957600080fd5b506103c460048036038101906103bf9190612d75565b610c53565b6040516103d393929190613774565b60405180910390f35b3480156103e857600080fd5b5061040360048036038101906103fe9190612d75565b610c97565b6040516104109190613bb6565b60405180910390f35b34801561042557600080fd5b5061042e610caf565b005b34801561043c57600080fd5b50610445610e65565b005b34801561045357600080fd5b5061046e60048036038101906104699190612d75565b610f9f565b005b34801561047c57600080fd5b5061049760048036038101906104929190612dda565b6110cb565b6040516104a49190613bb6565b60405180910390f35b3480156104b957600080fd5b506104d460048036038101906104cf9190612d9e565b6110fc565b005b3480156104e257600080fd5b506104eb611298565b6040516104f891906137ab565b60405180910390f35b34801561050d57600080fd5b5061051661129e565b60405161052391906136a0565b60405180910390f35b34801561053857600080fd5b506105416112c7565b60405161054e9190613bb6565b60405180910390f35b34801561056357600080fd5b5061057e60048036038101906105799190612e7b565b6112cd565b60405161058c929190613bd1565b60405180910390f35b3480156105a157600080fd5b506105aa6113b4565b6040516105b79190613bb6565b60405180910390f35b3480156105cc57600080fd5b506105e760048036038101906105e29190612e3f565b6113ba565b005b3480156105f557600080fd5b506105fe611456565b60405161060b9190613bb6565b60405180910390f35b61061c61145c565b005b34801561062a57600080fd5b5061064560048036038101906106409190612d75565b61189d565b6040516106529190613bb6565b60405180910390f35b34801561066757600080fd5b506106706118e9565b60405161067d9190613bb6565b60405180910390f35b34801561069257600080fd5b5061069b6118ef565b6040516106a89190613bb6565b60405180910390f35b3480156106bd57600080fd5b506106d860048036038101906106d39190612d75565b611901565b6040516106e59190613759565b60405180910390f35b3480156106fa57600080fd5b5061071560048036038101906107109190612e7b565b61195a565b604051610725949392919061386a565b60405180910390f35b34801561073a57600080fd5b50610743611a22565b6040516107509190613bb6565b60405180910390f35b34801561076557600080fd5b5061076e611a28565b60405161077b919061384f565b60405180910390f35b34801561079057600080fd5b506107ab60048036038101906107a69190612e3f565b611a4e565b005b3480156107b957600080fd5b506107c2611b82565b6040516107cf9190613834565b60405180910390f35b3480156107e457600080fd5b506107ed611ba8565b6040516107fa9190613834565b60405180910390f35b34801561080f57600080fd5b50610818611bce565b6040516108259190613bb6565b60405180910390f35b34801561083a57600080fd5b50610843611bf9565b6040516108509190613bb6565b60405180910390f35b34801561086557600080fd5b50610880600480360381019061087b9190612e7b565b611bff565b005b34801561088e57600080fd5b506108a960048036038101906108a49190612d75565b611feb565b005b3480156108b757600080fd5b506108c0612194565b6040516108cd9190613bb6565b60405180910390f35b3480156108e257600080fd5b506108fd60048036038101906108f89190612e7b565b61219a565b005b610e1060a861090e9190613e35565b81565b60175481565b60146020528060005260406000206000915054906101000a900473ffffffffffffffffffffffffffffffffffffffff1681565b42600754101561098f576040517f08c379a000000000000000000000000000000000000000000000000000000000815260040161098690613ad6565b60405180910390fd5b600260015414156109d5576040517f08c379a00000000000000000000000000000000000000000000000000000000081526004016109cc90613b76565b60405180910390fd5b600260018190555060006013549050600360009054906101000a900473ffffffffffffffffffffffffffffffffffffffff1673ffffffffffffffffffffffffffffffffffffffff166323b872dd33610a2b61129e565b60175486610a399190613e35565b6040518463ffffffff1660e01b8152600401610a57939291906136bb565b602060405180830381600087803b158015610a7157600080fd5b505af1158015610a85573d6000803e3d6000fd5b505050506040513d601f19601f82011682018060405250810190610aa99190612e16565b5060005b82811015610b965733601460008385610ac69190613c3d565b815260200190815260200160002060006101000a81548173ffffffffffffffffffffffffffffffffffffffff021916908373ffffffffffffffffffffffffffffffffffffffff160217905550601660003373ffffffffffffffffffffffffffffffffffffffff1673ffffffffffffffffffffffffffffffffffffffff1681526020019081526020016000208183610b5d9190613c3d565b90806001815401808255809150506001900390600052602060002001600090919091909150558080610b8e90613fcf565b915050610aad565b5081601560003373ffffffffffffffffffffffffffffffffffffffff1673ffffffffffffffffffffffffffffffffffffffff1681526020019081526020016000206000828254610be69190613c3d565b925050819055508160136000828254610bff9190613c3d565b92505081905550506001808190555050565b610e10600c610c209190613e35565b81565b6000601260019054906101000a900460ff16905090565b600a60009054906101000a900460ff1681565b60115481565b60096020528060005260406000206000915090508060000160009054906101000a900460ff16908060010154908060020160009054906101000a900460ff16905083565b60156020528060005260406000206000915090505481565b601260009054906101000a900460ff1615610cff576040517f08c379a0000000000000000000000000000000000000000000000000000000008152600401610cf690613936565b60405180910390fd5b6001601260006101000a81548160ff0219169083151502179055504260075411158015610d385750600a60009054906101000a900460ff165b610d77576040517f08c379a0000000000000000000000000000000000000000000000000000000008152600401610d6e906138d6565b60405180910390fd5b42610e106030610d879190613e35565b600754610d949190613c3d565b1015610dd5576040517f08c379a0000000000000000000000000000000000000000000000000000000008152600401610dcc90613956565b60405180910390fd5b60026001541415610e1b576040517f08c379a0000000000000000000000000000000000000000000000000000000008152600401610e1290613b76565b60405180910390fd5b6002600181905550600033604051602001610e369190613644565b6040516020818303038152906040528051906020012060001c9050610e5a81612435565b505060018081905550565b610e6d61253a565b73ffffffffffffffffffffffffffffffffffffffff16610e8b61129e565b73ffffffffffffffffffffffffffffffffffffffff1614610ee1576040517f08c379a0000000000000000000000000000000000000000000000000000000008152600401610ed890613a96565b60405180910390fd5b600073ffffffffffffffffffffffffffffffffffffffff1660008054906101000a900473ffffffffffffffffffffffffffffffffffffffff1673ffffffffffffffffffffffffffffffffffffffff167f8be0079c531659141344cd1fd0a4f28419497f9722a3daafe3b4186f6b6457e060405160405180910390a360008060006101000a81548173ffffffffffffffffffffffffffffffffffffffff021916908373ffffffffffffffffffffffffffffffffffffffff160217905550565b610fa761253a565b73ffffffffffffffffffffffffffffffffffffffff16610fc561129e565b73ffffffffffffffffffffffffffffffffffffffff161461101b576040517f08c379a000000000000000000000000000000000000000000000000000000000815260040161101290613a96565b60405180910390fd5b60008173ffffffffffffffffffffffffffffffffffffffff16476040516110419061368b565b60006040518083038185875af1925050503d806000811461107e576040519150601f19603f3d011682016040523d82523d6000602084013e611083565b606091505b50509050806110c7576040517f08c379a00000000000000000000000000000000000000000000000000000000081526004016110be90613a36565b60405180910390fd5b5050565b601660205281600052604060002081815481106110e757600080fd5b90600052602060002001600091509150505481565b61110461253a565b73ffffffffffffffffffffffffffffffffffffffff1661112261129e565b73ffffffffffffffffffffffffffffffffffffffff1614611178576040517f08c379a000000000000000000000000000000000000000000000000000000000815260040161116f90613a96565b60405180910390fd5b60008290508073ffffffffffffffffffffffffffffffffffffffff1663a9059cbb838373ffffffffffffffffffffffffffffffffffffffff166370a08231306040518263ffffffff1660e01b81526004016111d391906136a0565b60206040518083038186803b1580156111eb57600080fd5b505afa1580156111ff573d6000803e3d6000fd5b505050506040513d601f19601f820116820180604052508101906112239190612ea4565b6040518363ffffffff1660e01b81526004016112409291906136f2565b602060405180830381600087803b15801561125a57600080fd5b505af115801561126e573d6000803e3d6000fd5b505050506040513d601f19601f820116820180604052508101906112929190612e16565b50505050565b60105481565b60008060009054906101000a900473ffffffffffffffffffffffffffffffffffffffff16905090565b60135481565b6000806000600b848154811061130c577f4e487b7100000000000000000000000000000000000000000000000000000000600052603260045260246000fd5b90600052602060002090600402019050600084148061132f575060008160030154145b156113415760008092509250506113af565b60008160030154600c546113559190613e35565b82600201546005546113679190613e35565b6113719190613c93565b905060008260030154600c546113879190613e35565b83600201546006546113999190613e35565b6113a39190613c93565b90508181945094505050505b915091565b610e1081565b7f000000000000000000000000000000000000000000000000000000000000000073ffffffffffffffffffffffffffffffffffffffff163373ffffffffffffffffffffffffffffffffffffffff1614611448576040517f08c379a000000000000000000000000000000000000000000000000000000000815260040161143f90613ab6565b60405180910390fd5b6114528282612542565b5050565b600c5481565b6000429050600a60009054906101000a900460ff166114b0576040517f08c379a00000000000000000000000000000000000000000000000000000000081526004016114a790613b96565b60405180910390fd5b600960003373ffffffffffffffffffffffffffffffffffffffff1673ffffffffffffffffffffffffffffffffffffffff16815260200190815260200160002060000160009054906101000a900460ff1661153f576040517f08c379a0000000000000000000000000000000000000000000000000000000008152600401611536906138f6565b60405180910390fd5b600960003373ffffffffffffffffffffffffffffffffffffffff1673ffffffffffffffffffffffffffffffffffffffff16815260200190815260200160002060020160009054906101000a900460ff16156115cf576040517f08c379a00000000000000000000000000000000000000000000000000000000081526004016115c6906139f6565b60405180910390fd5b80600854111580156115fc5750610e10600c6115eb9190613e35565b6008546115f89190613c3d565b8111155b61163b576040517f08c379a000000000000000000000000000000000000000000000000000000000815260040161163290613b56565b60405180910390fd5b60026001541415611681576040517f08c379a000000000000000000000000000000000000000000000000000000000815260040161167890613b76565b60405180910390fd5b60026001819055506000600960003373ffffffffffffffffffffffffffffffffffffffff1673ffffffffffffffffffffffffffffffffffffffff16815260200190815260200160002090506000806116dc83600101546112cd565b91509150600081141580156116f2575060008214155b611731576040517f08c379a000000000000000000000000000000000000000000000000000000000815260040161172890613af6565b60405180910390fd5b348114611773576040517f08c379a000000000000000000000000000000000000000000000000000000000815260040161176a906138b6565b60405180910390fd5b60018360020160006101000a81548160ff021916908315150217905550600460009054906101000a900473ffffffffffffffffffffffffffffffffffffffff1673ffffffffffffffffffffffffffffffffffffffff1663a9059cbb33846040518363ffffffff1660e01b81526004016117ed9291906136f2565b602060405180830381600087803b15801561180757600080fd5b505af115801561181b573d6000803e3d6000fd5b505050506040513d601f19601f8201168201806040525081019061183f9190612e16565b503373ffffffffffffffffffffffffffffffffffffffff167f12cb4648cf3058b17ceeb33e579f8b0bc269fe0843f3900b8e24b6c54871703c8383604051611888929190613bd1565b60405180910390a25050506001808190555050565b6000600960008373ffffffffffffffffffffffffffffffffffffffff1673ffffffffffffffffffffffffffffffffffffffff168152602001908152602001600020600101549050919050565b60075481565b610e1060306118fe9190613e35565b81565b6000600960008373ffffffffffffffffffffffffffffffffffffffff1673ffffffffffffffffffffffffffffffffffffffff16815260200190815260200160002060000160009054906101000a900460ff169050919050565b600b818154811061196a57600080fd5b906000526020600020906004020160009150905080600001805461198d90613f9d565b80601f01602080910402602001604051908101604052809291908181526020018280546119b990613f9d565b8015611a065780601f106119db57610100808354040283529160200191611a06565b820191906000526020600020905b8154815290600101906020018083116119e957829003601f168201915b5050505050908060010154908060020154908060030154905084565b60055481565b600260009054906101000a900473ffffffffffffffffffffffffffffffffffffffff1681565b601260009054906101000a900460ff1615611a9e576040517f08c379a0000000000000000000000000000000000000000000000000000000008152600401611a9590613936565b60405180910390fd5b6001601260006101000a81548160ff0219169083151502179055504260075411158015611ad75750600a60009054906101000a900460ff165b611b16576040517f08c379a0000000000000000000000000000000000000000000000000000000008152600401611b0d906138d6565b60405180910390fd5b42610e106030611b269190613e35565b600754611b339190613c3d565b1015611b74576040517f08c379a0000000000000000000000000000000000000000000000000000000008152600401611b6b90613956565b60405180910390fd5b611b7e8282612542565b5050565b600460009054906101000a900473ffffffffffffffffffffffffffffffffffffffff1681565b600360009054906101000a900473ffffffffffffffffffffffffffffffffffffffff1681565b610e106018611bdd9190613e35565b610e106030611bec9190613e35565b611bf69190613c3d565b81565b60065481565b6000429050600a60009054906101000a900460ff16611c53576040517f08c379a0000000000000000000000000000000000000000000000000000000008152600401611c4a90613b96565b60405180910390fd5b600960003373ffffffffffffffffffffffffffffffffffffffff1673ffffffffffffffffffffffffffffffffffffffff16815260200190815260200160002060000160009054906101000a900460ff1615611ce3576040517f08c379a0000000000000000000000000000000000000000000000000000000008152600401611cda90613976565b60405180910390fd5b8060075411158015611d105750610e106030611cff9190613e35565b600754611d0c9190613c3d565b8111155b611d4f576040517f08c379a0000000000000000000000000000000000000000000000000000000008152600401611d4690613b36565b60405180910390fd5b8180600111158015611d62575060058111155b611da1576040517f08c379a0000000000000000000000000000000000000000000000000000000008152600401611d9890613996565b60405180910390fd5b6000600260009054906101000a900473ffffffffffffffffffffffffffffffffffffffff1673ffffffffffffffffffffffffffffffffffffffff166360217267336040518263ffffffff1660e01b8152600401611dfe91906136a0565b60206040518083038186803b158015611e1657600080fd5b505afa158015611e2a573d6000803e3d6000fd5b505050506040513d601f19601f82011682018060405250810190611e4e9190612ea4565b905080600b8381548110611e8b577f4e487b7100000000000000000000000000000000000000000000000000000000600052603260045260246000fd5b9060005260206000209060040201600101541115611ede576040517f08c379a0000000000000000000000000000000000000000000000000000000008152600401611ed590613a16565b60405180910390fd5b60026001541415611f24576040517f08c379a0000000000000000000000000000000000000000000000000000000008152600401611f1b90613b76565b60405180910390fd5b6002600181905550600260009054906101000a900473ffffffffffffffffffffffffffffffffffffffff1673ffffffffffffffffffffffffffffffffffffffff1663282d3fdf33610e1060a8611f7a9190613e35565b42611f859190613c3d565b6040518363ffffffff1660e01b8152600401611fa29291906136f2565b600060405180830381600087803b158015611fbc57600080fd5b505af1158015611fd0573d6000803e3d6000fd5b50505050611fde338561255c565b6001808190555050505050565b611ff361253a565b73ffffffffffffffffffffffffffffffffffffffff1661201161129e565b73ffffffffffffffffffffffffffffffffffffffff1614612067576040517f08c379a000000000000000000000000000000000000000000000000000000000815260040161205e90613a96565b60405180910390fd5b600073ffffffffffffffffffffffffffffffffffffffff168173ffffffffffffffffffffffffffffffffffffffff1614156120d7576040517f08c379a00000000000000000000000000000000000000000000000000000000081526004016120ce90613916565b60405180910390fd5b8073ffffffffffffffffffffffffffffffffffffffff1660008054906101000a900473ffffffffffffffffffffffffffffffffffffffff1673ffffffffffffffffffffffffffffffffffffffff167f8be0079c531659141344cd1fd0a4f28419497f9722a3daafe3b4186f6b6457e060405160405180910390a3806000806101000a81548173ffffffffffffffffffffffffffffffffffffffff021916908373ffffffffffffffffffffffffffffffffffffffff16021790555050565b60085481565b6121a261253a565b73ffffffffffffffffffffffffffffffffffffffff166121c061129e565b73ffffffffffffffffffffffffffffffffffffffff1614612216576040517f08c379a000000000000000000000000000000000000000000000000000000000815260040161220d90613a96565b60405180910390fd5b600a60009054906101000a900460ff1615612266576040517f08c379a000000000000000000000000000000000000000000000000000000000815260040161225d906139d6565b60405180910390fd5b428110156122a9576040517f08c379a00000000000000000000000000000000000000000000000000000000081526004016122a090613a56565b60405180910390fd5b80600781905550610e1060186122bf9190613e35565b610e1060306122ce9190613e35565b6122d89190613c3d565b6007546122e59190613c3d565b600881905550600554600460009054906101000a900473ffffffffffffffffffffffffffffffffffffffff1673ffffffffffffffffffffffffffffffffffffffff166370a08231306040518263ffffffff1660e01b815260040161234991906136a0565b60206040518083038186803b15801561236157600080fd5b505afa158015612375573d6000803e3d6000fd5b505050506040513d601f19601f820116820180604052508101906123999190612ea4565b10156123da576040517f08c379a00000000000000000000000000000000000000000000000000000000081526004016123d190613a76565b60405180910390fd5b7f537db03a5cf0f67e64e2a7515e45c28a71d041067e165fc95ee2ecde36e6532d60075460085460405161240f929190613bd1565b60405180910390a16001600a60006101000a81548160ff02191690831515021790555050565b6000600f547f000000000000000000000000000000000000000000000000000000000000000073ffffffffffffffffffffffffffffffffffffffff166370a08231306040518263ffffffff1660e01b815260040161249391906136a0565b60206040518083038186803b1580156124ab57600080fd5b505afa1580156124bf573d6000803e3d6000fd5b505050506040513d601f19601f820116820180604052508101906124e39190612ea4565b1015612524576040517f08c379a000000000000000000000000000000000000000000000000000000000815260040161251b906139b6565b60405180910390fd5b612533600e54600f54846126b3565b9050919050565b600033905090565b8160108190555080601181905550612558612814565b5050565b6001600960008473ffffffffffffffffffffffffffffffffffffffff1673ffffffffffffffffffffffffffffffffffffffff16815260200190815260200160002060000160006101000a81548160ff02191690831515021790555080600960008473ffffffffffffffffffffffffffffffffffffffff1673ffffffffffffffffffffffffffffffffffffffff168152602001908152602001600020600101819055506001600b828154811061263a577f4e487b7100000000000000000000000000000000000000000000000000000000600052603260045260246000fd5b9060005260206000209060040201600301600082825461265a9190613c3d565b925050819055503373ffffffffffffffffffffffffffffffffffffffff167ff6c60b059f60c86b2d612b237ac38bd87bc1f68f87600cd360d68351af1ca95f826040516126a79190613bb6565b60405180910390a25050565b60007f000000000000000000000000000000000000000000000000000000000000000073ffffffffffffffffffffffffffffffffffffffff16634000aea07f00000000000000000000000000000000000000000000000000000000000000008587866040516020016127269291906137c6565b6040516020818303038152906040526040518463ffffffff1660e01b81526004016127539392919061371b565b602060405180830381600087803b15801561276d57600080fd5b505af1158015612781573d6000803e3d6000fd5b505050506040513d601f19601f820116820180604052508101906127a59190612e16565b5060006127c7858430600d60008a815260200190815260200160002054612839565b90506001600d6000878152602001908152602001600020546127e99190613c3d565b600d60008781526020019081526020016000208190555061280a8582612875565b9150509392505050565b6001601260016101000a81548160ff0219169083151502179055506128376128a8565b565b60008484848460405160200161285294939291906137ef565b6040516020818303038152906040528051906020012060001c9050949350505050565b6000828260405160200161288a92919061365f565b60405160208183030381529060405280519060200120905092915050565b60006128b261293c565b905060005b81518110156129385760008282815181106128fb577f4e487b7100000000000000000000000000000000000000000000000000000000600052603260045260246000fd5b6020026020010151905060006002905061291482611901565b61292357612922828261255c565b5b5050808061293090613fcf565b9150506128b7565b5050565b6060600061294b601354612ae1565b90508067ffffffffffffffff81111561298d577f4e487b7100000000000000000000000000000000000000000000000000000000600052604160045260246000fd5b6040519080825280602002602001820160405280156129bb5781602001602082028036833780820191505090505b50915060006129ce600060135484612b03565b905060005b82811015612adb57600060146000848481518110612a1a577f4e487b7100000000000000000000000000000000000000000000000000000000600052603260045260246000fd5b6020026020010151815260200190815260200160002060009054906101000a900473ffffffffffffffffffffffffffffffffffffffff16905080858381518110612a8d577f4e487b7100000000000000000000000000000000000000000000000000000000600052603260045260246000fd5b602002602001019073ffffffffffffffffffffffffffffffffffffffff16908173ffffffffffffffffffffffffffffffffffffffff1681525050508080612ad390613fcf565b9150506129d3565b50505090565b60006001606483612af29190613c93565b612afc9190613c3d565b9050919050565b60608167ffffffffffffffff811115612b45577f4e487b7100000000000000000000000000000000000000000000000000000000600052604160045260246000fd5b604051908082528060200260200182016040528015612b735781602001602082028036833780820191505090505b5090506000601154905060008585612b8b9190613e8f565b905083811015612bd0576040517f08c379a0000000000000000000000000000000000000000000000000000000008152600401612bc790613b16565b60405180910390fd5b600060fb905060005b85811015612d015760008884600285612bf29190613d17565b87612bfd9190613c3d565b612c079190614050565b612c119190613c3d565b90506000805b600184612c249190613c3d565b811015612c8f57878181518110612c64577f4e487b7100000000000000000000000000000000000000000000000000000000600052603260045260246000fd5b6020026020010151831415612c7c5760019150612c8f565b8080612c8790613fcf565b915050612c17565b5080612ceb5781878481518110612ccf577f4e487b7100000000000000000000000000000000000000000000000000000000600052603260045260246000fd5b602002602001018181525050600183612ce89190613c3d565b92505b600184612cf89190613c3d565b93505050612bd9565b505050509392505050565b600081359050612d1b81614139565b92915050565b600081519050612d3081614150565b92915050565b600081359050612d4581614167565b92915050565b600081359050612d5a8161417e565b92915050565b600081519050612d6f8161417e565b92915050565b600060208284031215612d8757600080fd5b6000612d9584828501612d0c565b91505092915050565b60008060408385031215612db157600080fd5b6000612dbf85828601612d0c565b9250506020612dd085828601612d0c565b9150509250929050565b60008060408385031215612ded57600080fd5b6000612dfb85828601612d0c565b9250506020612e0c85828601612d4b565b9150509250929050565b600060208284031215612e2857600080fd5b6000612e3684828501612d21565b91505092915050565b60008060408385031215612e5257600080fd5b6000612e6085828601612d36565b9250506020612e7185828601612d4b565b9150509250929050565b600060208284031215612e8d57600080fd5b6000612e9b84828501612d4b565b91505092915050565b600060208284031215612eb657600080fd5b6000612ec484828501612d60565b91505092915050565b612ed681613ec3565b82525050565b612eed612ee882613ec3565b614018565b82525050565b612efc81613ed5565b82525050565b612f0b81613ee1565b82525050565b612f22612f1d82613ee1565b61402a565b82525050565b6000612f3382613bfa565b612f3d8185613c10565b9350612f4d818560208601613f6a565b612f568161410e565b840191505092915050565b612f6a81613f22565b82525050565b612f7981613f46565b82525050565b6000612f8a82613c05565b612f948185613c2c565b9350612fa4818560208601613f6a565b612fad8161410e565b840191505092915050565b6000612fc5601483613c2c565b91507f4e6f742056616c69642045746820416d6f756e740000000000000000000000006000830152602082019050919050565b6000613005601c83613c2c565b91507f526567697374726174696f6e204e6f74205374617274656420596574000000006000830152602082019050919050565b6000613045600e83613c2c565b91507f4e6f7420726567697374657265640000000000000000000000000000000000006000830152602082019050919050565b6000613085602683613c2c565b91507f4f776e61626c653a206e6577206f776e657220697320746865207a65726f206160008301527f64647265737300000000000000000000000000000000000000000000000000006020830152604082019050919050565b60006130eb601683613c2c565b91507f416c72656164792047656e657261746564204f6e6365000000000000000000006000830152602082019050919050565b600061312b601283613c2c565b91507f526567697374726174696f6e20456e64656400000000000000000000000000006000830152602082019050919050565b600061316b601283613c2c565b91507f416c7265616479207265676973746572656400000000000000000000000000006000830152602082019050919050565b60006131ab600f83613c2c565b91507f696e76616c696420506f6f6c206e6f00000000000000000000000000000000006000830152602082019050919050565b60006131eb602b83613c2c565b91507f4e6f7420656e6f756768204c494e4b202d2066696c6c20636f6e74726163742060008301527f77697468206661756365740000000000000000000000000000000000000000006020830152604082019050919050565b6000613251601383613c2c565b91507f416c726561647920496e697469616c697a6564000000000000000000000000006000830152602082019050919050565b6000613291601183613c2c565b91507f416c7265616479205075726368617365640000000000000000000000000000006000830152602082019050919050565b60006132d1601d83613c2c565b91507f43616e277420506172746963697061746520696e2074686520506f6f6c0000006000830152602082019050919050565b6000613311601583613c2c565b91507f556e61626c6520546f205265636f7665722045746800000000000000000000006000830152602082019050919050565b6000613351601483613c2c565b91507f49444f2043616e277420426520696e20506173740000000000000000000000006000830152602082019050919050565b6000613391601d83613c2c565b91507f4e6f7420456e6f75676820546f6b656e7320496e20436f6e74726163740000006000830152602082019050919050565b60006133d1602083613c2c565b91507f4f776e61626c653a2063616c6c6572206973206e6f7420746865206f776e65726000830152602082019050919050565b6000613411601f83613c2c565b91507f4f6e6c7920565246436f6f7264696e61746f722063616e2066756c66696c6c006000830152602082019050919050565b6000613451601d83613c2c565b91507f526166666c653a2043616e2774205061727469636970617465204e6f770000006000830152602082019050919050565b6000613491601483613c2c565b91507f56616c7565732043616e2774204265205a65726f0000000000000000000000006000830152602082019050919050565b60006134d1600c83613c2c565b91507f496e76616c69642053697a6500000000000000000000000000000000000000006000830152602082019050919050565b6000613511601a83613c2c565b91507f4e6f7420696e20526567697374726174696f6e20506572696f640000000000006000830152602082019050919050565b6000613551600083613c21565b9150600082019050919050565b600061356b601283613c2c565b91507f4e6f7420696e2053616c6520506572696f6400000000000000000000000000006000830152602082019050919050565b60006135ab601f83613c2c565b91507f5265656e7472616e637947756172643a207265656e7472616e742063616c6c006000830152602082019050919050565b60006135eb601383613c2c565b91507f4e6f7420496e697469616c697a656420596574000000000000000000000000006000830152602082019050919050565b61362781613f0b565b82525050565b61363e61363982613f0b565b614046565b82525050565b60006136508284612edc565b60148201915081905092915050565b600061366b8285612f11565b60208201915061367b828461362d565b6020820191508190509392505050565b600061369682613544565b9150819050919050565b60006020820190506136b56000830184612ecd565b92915050565b60006060820190506136d06000830186612ecd565b6136dd6020830185612ecd565b6136ea604083018461361e565b949350505050565b60006040820190506137076000830185612ecd565b613714602083018461361e565b9392505050565b60006060820190506137306000830186612ecd565b61373d602083018561361e565b818103604083015261374f8184612f28565b9050949350505050565b600060208201905061376e6000830184612ef3565b92915050565b60006060820190506137896000830186612ef3565b613796602083018561361e565b6137a36040830184612ef3565b949350505050565b60006020820190506137c06000830184612f02565b92915050565b60006040820190506137db6000830185612f02565b6137e8602083018461361e565b9392505050565b60006080820190506138046000830187612f02565b613811602083018661361e565b61381e6040830185612ecd565b61382b606083018461361e565b95945050505050565b60006020820190506138496000830184612f61565b92915050565b60006020820190506138646000830184612f70565b92915050565b600060808201905081810360008301526138848187612f7f565b9050613893602083018661361e565b6138a0604083018561361e565b6138ad606083018461361e565b95945050505050565b600060208201905081810360008301526138cf81612fb8565b9050919050565b600060208201905081810360008301526138ef81612ff8565b9050919050565b6000602082019050818103600083015261390f81613038565b9050919050565b6000602082019050818103600083015261392f81613078565b9050919050565b6000602082019050818103600083015261394f816130de565b9050919050565b6000602082019050818103600083015261396f8161311e565b9050919050565b6000602082019050818103600083015261398f8161315e565b9050919050565b600060208201905081810360008301526139af8161319e565b9050919050565b600060208201905081810360008301526139cf816131de565b9050919050565b600060208201905081810360008301526139ef81613244565b9050919050565b60006020820190508181036000830152613a0f81613284565b9050919050565b60006020820190508181036000830152613a2f816132c4565b9050919050565b60006020820190508181036000830152613a4f81613304565b9050919050565b60006020820190508181036000830152613a6f81613344565b9050919050565b60006020820190508181036000830152613a8f81613384565b9050919050565b60006020820190508181036000830152613aaf816133c4565b9050919050565b60006020820190508181036000830152613acf81613404565b9050919050565b60006020820190508181036000830152613aef81613444565b9050919050565b60006020820190508181036000830152613b0f81613484565b9050919050565b60006020820190508181036000830152613b2f816134c4565b9050919050565b60006020820190508181036000830152613b4f81613504565b9050919050565b60006020820190508181036000830152613b6f8161355e565b9050919050565b60006020820190508181036000830152613b8f8161359e565b9050919050565b60006020820190508181036000830152613baf816135de565b9050919050565b6000602082019050613bcb600083018461361e565b92915050565b6000604082019050613be6600083018561361e565b613bf3602083018461361e565b9392505050565b600081519050919050565b600081519050919050565b600082825260208201905092915050565b600081905092915050565b600082825260208201905092915050565b6000613c4882613f0b565b9150613c5383613f0b565b9250827fffffffffffffffffffffffffffffffffffffffffffffffffffffffffffffffff03821115613c8857613c87614081565b5b828201905092915050565b6000613c9e82613f0b565b9150613ca983613f0b565b925082613cb957613cb86140b0565b5b828204905092915050565b6000808291508390505b6001851115613d0e57808604811115613cea57613ce9614081565b5b6001851615613cf95780820291505b8081029050613d078561412c565b9450613cce565b94509492505050565b6000613d2282613f0b565b9150613d2d83613f15565b9250613d5a7fffffffffffffffffffffffffffffffffffffffffffffffffffffffffffffffff8484613d62565b905092915050565b600082613d725760019050613e2e565b81613d805760009050613e2e565b8160018114613d965760028114613da057613dcf565b6001915050613e2e565b60ff841115613db257613db1614081565b5b8360020a915084821115613dc957613dc8614081565b5b50613e2e565b5060208310610133831016604e8410600b8410161715613e045782820a905083811115613dff57613dfe614081565b5b613e2e565b613e118484846001613cc4565b92509050818404811115613e2857613e27614081565b5b81810290505b9392505050565b6000613e4082613f0b565b9150613e4b83613f0b565b9250817fffffffffffffffffffffffffffffffffffffffffffffffffffffffffffffffff0483118215151615613e8457613e83614081565b5b828202905092915050565b6000613e9a82613f0b565b9150613ea583613f0b565b925082821015613eb857613eb7614081565b5b828203905092915050565b6000613ece82613eeb565b9050919050565b60008115159050919050565b6000819050919050565b600073ffffffffffffffffffffffffffffffffffffffff82169050919050565b6000819050919050565b600060ff82169050919050565b6000613f2d82613f34565b9050919050565b6000613f3f82613eeb565b9050919050565b6000613f5182613f58565b9050919050565b6000613f6382613eeb565b9050919050565b60005b83811015613f88578082015181840152602081019050613f6d565b83811115613f97576000848401525b50505050565b60006002820490506001821680613fb557607f821691505b60208210811415613fc957613fc86140df565b5b50919050565b6000613fda82613f0b565b91507fffffffffffffffffffffffffffffffffffffffffffffffffffffffffffffffff82141561400d5761400c614081565b5b600182019050919050565b600061402382614034565b9050919050565b6000819050919050565b600061403f8261411f565b9050919050565b6000819050919050565b600061405b82613f0b565b915061406683613f0b565b925082614076576140756140b0565b5b828206905092915050565b7f4e487b7100000000000000000000000000000000000000000000000000000000600052601160045260246000fd5b7f4e487b7100000000000000000000000000000000000000000000000000000000600052601260045260246000fd5b7f4e487b7100000000000000000000000000000000000000000000000000000000600052602260045260246000fd5b6000601f19601f8301169050919050565b60008160601b9050919050565b60008160011c9050919050565b61414281613ec3565b811461414d57600080fd5b50565b61415981613ed5565b811461416457600080fd5b50565b61417081613ee1565b811461417b57600080fd5b50565b61418781613f0b565b811461419257600080fd5b5056fea26469706673582212204cdd05bd9edca76d8c810fec8c3d4ee70957346d4e0066840114b750e5e9f49b64736f6c63430008000033",
  "immutableReferences": {
    "2299": [
      {
        "length": 32,
        "start": 9276
      },
      {
        "length": 32,
        "start": 9911
      }
    ],
    "2301": [
      {
        "length": 32,
        "start": 5052
      },
      {
        "length": 32,
        "start": 9971
      }
    ]
  },
  "source": "// SPDX-License-Identifier: MIT\r\npragma solidity ^0.8.0;\r\n\r\nimport \"@chainlink/contracts/src/v0.8/dev/VRFConsumerBase.sol\";\r\nimport \"./IDO.sol\";\r\n\r\nabstract contract RandomTest is VRFConsumerBase {\r\n\r\n    bytes32 internal keyHash;\r\n    uint256 internal fee;\r\n    \r\n    bytes32 public reqId;\r\n    uint256 public randomResult;\r\n\r\n    bool isGeneratedOnce;\r\n    modifier once() {\r\n        require(!isGeneratedOnce, \"Already Generated Once\");\r\n        isGeneratedOnce = true;\r\n        _;\r\n    }\r\n\r\n    constructor () VRFConsumerBase (\r\n        0x8C7382F9D8f56b33781fE506E897a4F1e2d17255, // VRF Coordinator\r\n        0x326C977E6efc84E512bB9C30f76E30c160eD06FB  // LINK Token\r\n    ) {\r\n        keyHash = 0x6e75b569a01ef56d18cab6a8e71e6600d6ce853834d4a5748b720d06f878b3a4;\r\n        fee = 100000000000000; // 0.0001 LINK\r\n    }\r\n\r\n    /** \r\n     * Requests randomness from a user-provided seed\r\n     */\r\n    function _getRandomNumber(uint256 userProvidedSeed) internal returns (bytes32 requestId) {\r\n        require(LINK.balanceOf(address(this)) >= fee, \"Not enough LINK - fill contract with faucet\");\r\n        return requestRandomness(keyHash, fee, userProvidedSeed);\r\n    }\r\n\r\n    /**\r\n     * Callback function used by VRF Coordinator\r\n     */\r\n    function fulfillRandomness(bytes32 requestId, uint256 randomness) internal override {\r\n        reqId = requestId;\r\n        randomResult = randomness;\r\n        _afterGeneration();\r\n    }\r\n\r\n    bool _isFulfilled = false;\r\n    function isFulfilled() public view returns(bool) {\r\n        return _isFulfilled;\r\n    }\r\n\r\n    // Generating Multiple Random Numbers From a Single One\r\n    function _randomList(uint256 _from, uint256 _to, uint256 _size) internal view returns(uint256[] memory rands) {\r\n\r\n        rands = new uint256[](_size);\r\n        uint256 r = randomResult;\r\n        uint256 len = _to - _from;\r\n        \r\n        require(len >= _size, \"Invalid Size\");\r\n\r\n        uint256 i = 251;\r\n        uint256 count = 0;\r\n\r\n        while(count < _size) {\r\n            uint256 rand = (r + i**2) % len + _from;\r\n            bool exists = false;\r\n\r\n            for(uint256 j = 0; j < count + 1; j++) {\r\n                if (rand == rands[j]) {\r\n                    exists = true;\r\n                    break;\r\n                }\r\n            }\r\n\r\n            if(!exists) {\r\n                rands[count] = rand;\r\n                count += 1;\r\n            }\r\n\r\n            i += 1;\r\n        }\r\n    }\r\n\r\n    // This will execute after generation of Random Number\r\n    function _afterGeneration() internal virtual;\r\n\r\n}\r\n\r\ncontract RaffleWrapTest is IDO, RandomTest {\r\n\r\n    uint256 public ticketsSold; // No of tickets sold\r\n    mapping(uint256 => address) public ticketToOwner; // owner of a ticket\r\n    mapping(address => uint256) public addressToTicketCount; // No Of Tickets Owned By an Address\r\n    mapping(address => uint256[]) public addressToTicketsOwned; // Tickets That an address own\r\n\r\n    uint256 public ticketPrice = 3 * 10 ** 18; // Price of a ticket(no. of tokens)\r\n\r\n    modifier raffleParticipationPeriod() {\r\n        require(regStarts >= block.timestamp, \"Raffle: Can't Participate Now\");\r\n        _;\r\n    }\r\n\r\n    modifier raffleResultPeriod() {\r\n        require(regStarts <= block.timestamp && isInitialized, \"Registration Not Started Yet\");\r\n        require(regStarts + regDuration >= block.timestamp, \"Registration Ended\");\r\n        _;\r\n    }\r\n\r\n    constructor (\r\n        address _stakerAddress,\r\n        address _nativeTokenAddress,\r\n        address _idoTokenAddress,\r\n        uint256 _idoAmount,\r\n        uint256 _price\r\n    ) IDO(\r\n        _stakerAddress,\r\n        _nativeTokenAddress,\r\n        _idoTokenAddress,\r\n        _idoAmount,\r\n        _price\r\n    ) {\r\n\r\n    }\r\n\r\n    \r\n    // Buy Tickets\r\n    function buyTickets(uint256 _noOfTickets) external raffleParticipationPeriod nonReentrant {\r\n        uint256 nextTicket = ticketsSold;\r\n        nativeToken.transferFrom(msg.sender, owner(), _noOfTickets * ticketPrice);\r\n\r\n        for(uint256 i=0; i<_noOfTickets; i++) {\r\n            ticketToOwner[nextTicket + i] = msg.sender;\r\n            addressToTicketsOwned[msg.sender].push(nextTicket + i);\r\n        }\r\n\r\n        addressToTicketCount[msg.sender] += _noOfTickets;\r\n        ticketsSold += _noOfTickets;\r\n    }\r\n\r\n    // Generates The Random Winners\r\n    function genRandom() external once raffleResultPeriod nonReentrant {\r\n        uint256 seed = uint256(keccak256(abi.encodePacked(msg.sender)));\r\n        _getRandomNumber(seed);\r\n    }\r\n\r\n    function fulfillTest(bytes32 requestId, uint256 randomness) once raffleResultPeriod external {\r\n        fulfillRandomness(requestId, randomness);\r\n    }\r\n\r\n    // Function Extended From Random Contract\r\n    function _afterGeneration() internal override {\r\n        _isFulfilled = true;\r\n        _executeRaffle();\r\n    }\r\n\r\n    // Raffle Entry For Winners\r\n    function _executeRaffle() internal {\r\n\r\n        address[] memory list = _getWinners();\r\n        for(uint256 i=0; i<list.length; i++) {\r\n            address account = list[i];\r\n            uint256 _poolNo = 2; // Raffle Entry Pool\r\n\r\n            if(!getRegistrationStatus(account)) _register(account, _poolNo);\r\n        }\r\n    }\r\n\r\n    // Gets The Address Of The Winners\r\n    function _getWinners() internal view returns(address[] memory list) {\r\n        uint256 n = _noOfWinners(ticketsSold);\r\n        list = new address[](n);\r\n        uint256[] memory winners = _randomList(0, ticketsSold, n);\r\n\r\n        for(uint256 i=0; i<n; i++) {\r\n            address winner = ticketToOwner[winners[i]];\r\n            list[i] = winner;\r\n        }\r\n    }\r\n\r\n    // Calculates The Number Of Winners\r\n    function _noOfWinners(uint256 _ticketsSold) internal pure returns(uint256) {\r\n        return _ticketsSold / 100 + 1;\r\n    }\r\n\r\n}",
  "sourcePath": "C:/Users/sudip/Desktop/RealProjects/PolyStarter/contracts/IDOStaker/RaffleWrapTest.sol",
  "compiler": {
    "name": "solc",
    "version": "0.8.0+commit.c7dfd78e.Emscripten.clang"
  },
  "schemaVersion": "3.3.4",
  "updatedAt": "2021-06-11T07:51:25.780Z",
  "devdoc": {
    "kind": "dev",
    "methods": {
      "owner()": {
        "details": "Returns the address of the current owner."
      },
      "renounceOwnership()": {
        "details": "Leaves the contract without owner. It will not be possible to call `onlyOwner` functions anymore. Can only be called by the current owner. NOTE: Renouncing ownership will leave the contract without an owner, thereby removing any functionality that is only available to the owner."
      },
      "transferOwnership(address)": {
        "details": "Transfers ownership of the contract to a new account (`newOwner`). Can only be called by the current owner."
      }
    },
    "version": 1
  },
  "userdoc": {
    "kind": "user",
    "methods": {},
    "version": 1
  }
}