{
  "contractName": "RaffleWrap",
  "abi": [
    {
      "inputs": [
        {
          "internalType": "address",
          "name": "_stakerAddress",
          "type": "address"
        },
        {
          "internalType": "address",
          "name": "_nativeTokenAddress",
          "type": "address"
        },
        {
          "internalType": "address",
          "name": "_idoTokenAddress",
          "type": "address"
        },
        {
          "internalType": "uint256",
          "name": "_idoAmount",
          "type": "uint256"
        },
        {
          "internalType": "uint256",
          "name": "_price",
          "type": "uint256"
        }
      ],
      "stateMutability": "nonpayable",
      "type": "constructor"
    },
    {
      "anonymous": false,
      "inputs": [
        {
          "indexed": false,
          "internalType": "uint256",
          "name": "regStart",
          "type": "uint256"
        },
        {
          "indexed": false,
          "internalType": "uint256",
          "name": "saleStart",
          "type": "uint256"
        }
      ],
      "name": "Initialization",
      "type": "event"
    },
    {
      "anonymous": false,
      "inputs": [
        {
          "indexed": true,
          "internalType": "address",
          "name": "previousOwner",
          "type": "address"
        },
        {
          "indexed": true,
          "internalType": "address",
          "name": "newOwner",
          "type": "address"
        }
      ],
      "name": "OwnershipTransferred",
      "type": "event"
    },
    {
      "anonymous": false,
      "inputs": [
        {
          "indexed": true,
          "internalType": "address",
          "name": "",
          "type": "address"
        },
        {
          "indexed": false,
          "internalType": "uint256",
          "name": "tokens",
          "type": "uint256"
        },
        {
          "indexed": false,
          "internalType": "uint256",
          "name": "price",
          "type": "uint256"
        }
      ],
      "name": "Purchase",
      "type": "event"
    },
    {
      "anonymous": false,
      "inputs": [
        {
          "indexed": true,
          "internalType": "address",
          "name": "account",
          "type": "address"
        },
        {
          "indexed": false,
          "internalType": "uint256",
          "name": "poolNo",
          "type": "uint256"
        }
      ],
      "name": "Registration",
      "type": "event"
    },
    {
      "inputs": [],
      "name": "RAFFLE_POOL",
      "outputs": [
        {
          "internalType": "uint256",
          "name": "",
          "type": "uint256"
        }
      ],
      "stateMutability": "view",
      "type": "function"
    },
    {
      "inputs": [
        {
          "internalType": "address",
          "name": "",
          "type": "address"
        }
      ],
      "name": "addressToTicketCount",
      "outputs": [
        {
          "internalType": "uint256",
          "name": "",
          "type": "uint256"
        }
      ],
      "stateMutability": "view",
      "type": "function"
    },
    {
      "inputs": [
        {
          "internalType": "address",
          "name": "",
          "type": "address"
        },
        {
          "internalType": "uint256",
          "name": "",
          "type": "uint256"
        }
      ],
      "name": "addressToTicketsOwned",
      "outputs": [
        {
          "internalType": "uint256",
          "name": "",
          "type": "uint256"
        }
      ],
      "stateMutability": "view",
      "type": "function"
    },
    {
      "inputs": [
        {
          "internalType": "address",
          "name": "account",
          "type": "address"
        }
      ],
      "name": "allocationByAddress",
      "outputs": [
        {
          "internalType": "uint256",
          "name": "tokens",
          "type": "uint256"
        },
        {
          "internalType": "uint256",
          "name": "price",
          "type": "uint256"
        }
      ],
      "stateMutability": "view",
      "type": "function"
    },
    {
      "inputs": [],
      "name": "buyNow",
      "outputs": [],
      "stateMutability": "payable",
      "type": "function"
    },
    {
      "inputs": [
        {
          "internalType": "address",
          "name": "account",
          "type": "address"
        }
      ],
      "name": "getPoolNo",
      "outputs": [
        {
          "internalType": "uint256",
          "name": "",
          "type": "uint256"
        }
      ],
      "stateMutability": "view",
      "type": "function"
    },
    {
      "inputs": [
        {
          "internalType": "address",
          "name": "account",
          "type": "address"
        }
      ],
      "name": "getRegistrationStatus",
      "outputs": [
        {
          "internalType": "bool",
          "name": "",
          "type": "bool"
        }
      ],
      "stateMutability": "view",
      "type": "function"
    },
    {
      "inputs": [
        {
          "internalType": "address",
          "name": "",
          "type": "address"
        }
      ],
      "name": "hasWonRaffle",
      "outputs": [
        {
          "internalType": "bool",
          "name": "",
          "type": "bool"
        }
      ],
      "stateMutability": "view",
      "type": "function"
    },
    {
      "inputs": [],
      "name": "iStaker",
      "outputs": [
        {
          "internalType": "contract IStaker",
          "name": "",
          "type": "address"
        }
      ],
      "stateMutability": "view",
      "type": "function"
    },
    {
      "inputs": [],
      "name": "idoToken",
      "outputs": [
        {
          "internalType": "contract IERC20Metadata",
          "name": "",
          "type": "address"
        }
      ],
      "stateMutability": "view",
      "type": "function"
    },
    {
      "inputs": [],
      "name": "idoTokenSum",
      "outputs": [
        {
          "internalType": "uint256",
          "name": "",
          "type": "uint256"
        }
      ],
      "stateMutability": "view",
      "type": "function"
    },
    {
      "inputs": [],
      "name": "idoTotalPrice",
      "outputs": [
        {
          "internalType": "uint256",
          "name": "",
          "type": "uint256"
        }
      ],
      "stateMutability": "view",
      "type": "function"
    },
    {
      "inputs": [
        {
          "internalType": "uint256",
          "name": "time",
          "type": "uint256"
        }
      ],
      "name": "initialize",
      "outputs": [],
      "stateMutability": "nonpayable",
      "type": "function"
    },
    {
      "inputs": [],
      "name": "isFulfilled",
      "outputs": [
        {
          "internalType": "bool",
          "name": "",
          "type": "bool"
        }
      ],
      "stateMutability": "view",
      "type": "function"
    },
    {
      "inputs": [],
      "name": "isInitialized",
      "outputs": [
        {
          "internalType": "bool",
          "name": "",
          "type": "bool"
        }
      ],
      "stateMutability": "view",
      "type": "function"
    },
    {
      "inputs": [],
      "name": "lockDuration",
      "outputs": [
        {
          "internalType": "uint256",
          "name": "",
          "type": "uint256"
        }
      ],
      "stateMutability": "view",
      "type": "function"
    },
    {
      "inputs": [],
      "name": "nativeToken",
      "outputs": [
        {
          "internalType": "contract IERC20Metadata",
          "name": "",
          "type": "address"
        }
      ],
      "stateMutability": "view",
      "type": "function"
    },
    {
      "inputs": [],
      "name": "noOfParticipants",
      "outputs": [
        {
          "internalType": "uint256",
          "name": "",
          "type": "uint256"
        }
      ],
      "stateMutability": "view",
      "type": "function"
    },
    {
      "inputs": [],
      "name": "owner",
      "outputs": [
        {
          "internalType": "address",
          "name": "",
          "type": "address"
        }
      ],
      "stateMutability": "view",
      "type": "function"
    },
    {
      "inputs": [
        {
          "internalType": "uint256",
          "name": "",
          "type": "uint256"
        }
      ],
      "name": "participantList",
      "outputs": [
        {
          "internalType": "address",
          "name": "",
          "type": "address"
        }
      ],
      "stateMutability": "view",
      "type": "function"
    },
    {
      "inputs": [
        {
          "internalType": "uint256",
          "name": "",
          "type": "uint256"
        }
      ],
      "name": "pools",
      "outputs": [
        {
          "internalType": "string",
          "name": "name",
          "type": "string"
        },
        {
          "internalType": "uint256",
          "name": "minNativeToken",
          "type": "uint256"
        },
        {
          "internalType": "uint256",
          "name": "weight",
          "type": "uint256"
        },
        {
          "internalType": "uint256",
          "name": "participants",
          "type": "uint256"
        }
      ],
      "stateMutability": "view",
      "type": "function"
    },
    {
      "inputs": [],
      "name": "randomResult",
      "outputs": [
        {
          "internalType": "uint256",
          "name": "",
          "type": "uint256"
        }
      ],
      "stateMutability": "view",
      "type": "function"
    },
    {
      "inputs": [
        {
          "internalType": "bytes32",
          "name": "requestId",
          "type": "bytes32"
        },
        {
          "internalType": "uint256",
          "name": "randomness",
          "type": "uint256"
        }
      ],
      "name": "rawFulfillRandomness",
      "outputs": [],
      "stateMutability": "nonpayable",
      "type": "function"
    },
    {
      "inputs": [
        {
          "internalType": "address",
          "name": "tokenAddress",
          "type": "address"
        },
        {
          "internalType": "address",
          "name": "to",
          "type": "address"
        }
      ],
      "name": "recoverERC20",
      "outputs": [],
      "stateMutability": "nonpayable",
      "type": "function"
    },
    {
      "inputs": [
        {
          "internalType": "address",
          "name": "to",
          "type": "address"
        }
      ],
      "name": "recoverEth",
      "outputs": [],
      "stateMutability": "nonpayable",
      "type": "function"
    },
    {
      "inputs": [],
      "name": "regDuration",
      "outputs": [
        {
          "internalType": "uint256",
          "name": "",
          "type": "uint256"
        }
      ],
      "stateMutability": "view",
      "type": "function"
    },
    {
      "inputs": [],
      "name": "regStarts",
      "outputs": [
        {
          "internalType": "uint256",
          "name": "",
          "type": "uint256"
        }
      ],
      "stateMutability": "view",
      "type": "function"
    },
    {
      "inputs": [
        {
          "internalType": "uint256",
          "name": "_poolNo",
          "type": "uint256"
        }
      ],
      "name": "register",
      "outputs": [],
      "stateMutability": "nonpayable",
      "type": "function"
    },
    {
      "inputs": [],
      "name": "remainingIDOTokens",
      "outputs": [
        {
          "internalType": "uint256",
          "name": "",
          "type": "uint256"
        }
      ],
      "stateMutability": "view",
      "type": "function"
    },
    {
      "inputs": [],
      "name": "renounceOwnership",
      "outputs": [],
      "stateMutability": "nonpayable",
      "type": "function"
    },
    {
      "inputs": [],
      "name": "reqId",
      "outputs": [
        {
          "internalType": "bytes32",
          "name": "",
          "type": "bytes32"
        }
      ],
      "stateMutability": "view",
      "type": "function"
    },
    {
      "inputs": [],
      "name": "saleDuration",
      "outputs": [
        {
          "internalType": "uint256",
          "name": "",
          "type": "uint256"
        }
      ],
      "stateMutability": "view",
      "type": "function"
    },
    {
      "inputs": [],
      "name": "saleStarts",
      "outputs": [
        {
          "internalType": "uint256",
          "name": "",
          "type": "uint256"
        }
      ],
      "stateMutability": "view",
      "type": "function"
    },
    {
      "inputs": [],
      "name": "saleStartsAfter",
      "outputs": [
        {
          "internalType": "uint256",
          "name": "",
          "type": "uint256"
        }
      ],
      "stateMutability": "view",
      "type": "function"
    },
    {
      "inputs": [],
      "name": "ticketPrice",
      "outputs": [
        {
          "internalType": "uint256",
          "name": "",
          "type": "uint256"
        }
      ],
      "stateMutability": "view",
      "type": "function"
    },
    {
      "inputs": [
        {
          "internalType": "uint256",
          "name": "",
          "type": "uint256"
        }
      ],
      "name": "ticketToOwner",
      "outputs": [
        {
          "internalType": "address",
          "name": "",
          "type": "address"
        }
      ],
      "stateMutability": "view",
      "type": "function"
    },
    {
      "inputs": [],
      "name": "ticketsSold",
      "outputs": [
        {
          "internalType": "uint256",
          "name": "",
          "type": "uint256"
        }
      ],
      "stateMutability": "view",
      "type": "function"
    },
    {
      "inputs": [
        {
          "internalType": "uint256",
          "name": "_poolNo",
          "type": "uint256"
        }
      ],
      "name": "tokensAndPriceByPoolNo",
      "outputs": [
        {
          "internalType": "uint256",
          "name": "",
          "type": "uint256"
        },
        {
          "internalType": "uint256",
          "name": "",
          "type": "uint256"
        }
      ],
      "stateMutability": "view",
      "type": "function"
    },
    {
      "inputs": [],
      "name": "totalWeight",
      "outputs": [
        {
          "internalType": "uint256",
          "name": "",
          "type": "uint256"
        }
      ],
      "stateMutability": "view",
      "type": "function"
    },
    {
      "inputs": [
        {
          "internalType": "address",
          "name": "newOwner",
          "type": "address"
        }
      ],
      "name": "transferOwnership",
      "outputs": [],
      "stateMutability": "nonpayable",
      "type": "function"
    },
    {
      "inputs": [],
      "name": "unit",
      "outputs": [
        {
          "internalType": "uint256",
          "name": "",
          "type": "uint256"
        }
      ],
      "stateMutability": "view",
      "type": "function"
    },
    {
      "inputs": [
        {
          "internalType": "address",
          "name": "",
          "type": "address"
        }
      ],
      "name": "userlog",
      "outputs": [
        {
          "internalType": "bool",
          "name": "isRegistered",
          "type": "bool"
        },
        {
          "internalType": "uint256",
          "name": "registeredPool",
          "type": "uint256"
        },
        {
          "internalType": "bool",
          "name": "purchased",
          "type": "bool"
        }
      ],
      "stateMutability": "view",
      "type": "function"
    },
    {
      "inputs": [
        {
          "internalType": "uint256",
          "name": "_noOfTickets",
          "type": "uint256"
        }
      ],
      "name": "buyTickets",
      "outputs": [],
      "stateMutability": "nonpayable",
      "type": "function"
    },
    {
      "inputs": [
        {
          "internalType": "address",
          "name": "account",
          "type": "address"
        }
      ],
      "name": "isRaffleEligible",
      "outputs": [
        {
          "internalType": "bool",
          "name": "",
          "type": "bool"
        }
      ],
      "stateMutability": "view",
      "type": "function"
    },
    {
      "inputs": [],
      "name": "genRandom",
      "outputs": [],
      "stateMutability": "nonpayable",
      "type": "function"
    },
    {
      "inputs": [],
      "name": "getWinners",
      "outputs": [
        {
          "internalType": "address[]",
          "name": "",
          "type": "address[]"
        }
      ],
      "stateMutability": "view",
      "type": "function"
    }
  ],
  "bytecode": "0x60c06040526000601460016101000a81548160ff0219169083151502179055503480156200002c57600080fd5b506040516200560838038062005608833981810160405281019062000052919062000999565b73b3dccb4cf7a26f6cf6b120cf5a73875b7bbc655b7301be23585060835e02b77ef475b0cc51aa1e070986868686866000620000936200089c60201b60201c565b9050806000806101000a81548173ffffffffffffffffffffffffffffffffffffffff021916908373ffffffffffffffffffffffffffffffffffffffff1602179055508073ffffffffffffffffffffffffffffffffffffffff16600073ffffffffffffffffffffffffffffffffffffffff167f8be0079c531659141344cd1fd0a4f28419497f9722a3daafe3b4186f6b6457e060405160405180910390a3506001808190555084600260006101000a81548173ffffffffffffffffffffffffffffffffffffffff021916908373ffffffffffffffffffffffffffffffffffffffff16021790555083600360006101000a81548173ffffffffffffffffffffffffffffffffffffffff021916908373ffffffffffffffffffffffffffffffffffffffff16021790555082600460006101000a81548173ffffffffffffffffffffffffffffffffffffffff021916908373ffffffffffffffffffffffffffffffffffffffff16021790555081600581905550806006819055506005546007819055506000600360009054906101000a900473ffffffffffffffffffffffffffffffffffffffff1673ffffffffffffffffffffffffffffffffffffffff1663313ce5676040518163ffffffff1660e01b815260040160206040518083038186803b1580156200027d57600080fd5b505afa15801562000292573d6000803e3d6000fd5b505050506040513d601f19601f82011682018060405250810190620002b8919062000a1b565b60ff169050600d60405180608001604052806040518060400160405280600481526020017f4e756c6c00000000000000000000000000000000000000000000000000000000815250815260200160008152602001600081526020016000815250908060018154018082558091505060019003906000526020600020906004020160009091909190915060008201518160000190805190602001906200035f929190620008a4565b506020820151816001015560408201518160020155606082015181600301555050600d60405180608001604052806040518060400160405280600681526020017f4b6e696768740000000000000000000000000000000000000000000000000000815250815260200183600a620003d7919062000aa2565b6064620003e5919062000bdf565b8152602001600281526020016000815250908060018154018082558091505060019003906000526020600020906004020160009091909190915060008201518160000190805190602001906200043d929190620008a4565b506020820151816001015560408201518160020155606082015181600301555050600d60405180608001604052806040518060400160405280600681526020017f426973686f700000000000000000000000000000000000000000000000000000815250815260200183600a620004b5919062000aa2565b6101f4620004c4919062000bdf565b8152602001600381526020016000815250908060018154018082558091505060019003906000526020600020906004020160009091909190915060008201518160000190805190602001906200051c929190620008a4565b506020820151816001015560408201518160020155606082015181600301555050600d60405180608001604052806040518060400160405280600481526020017f526f6f6b00000000000000000000000000000000000000000000000000000000815250815260200183600a62000594919062000aa2565b6103e8620005a3919062000bdf565b815260200160048152602001600081525090806001815401808255809150506001900390600052602060002090600402016000909190919091506000820151816000019080519060200190620005fb929190620008a4565b506020820151816001015560408201518160020155606082015181600301555050600d60405180608001604052806040518060400160405280600481526020017f4b696e6700000000000000000000000000000000000000000000000000000000815250815260200183600a62000673919062000aa2565b6107d062000682919062000bdf565b815260200160058152602001600081525090806001815401808255809150506001900390600052602060002090600402016000909190919091506000820151816000019080519060200190620006da929190620008a4565b506020820151816001015560408201518160020155606082015181600301555050600d60405180608001604052806040518060400160405280600581526020017f517565656e000000000000000000000000000000000000000000000000000000815250815260200183600a62000752919062000aa2565b610fa062000761919062000bdf565b815260200160068152602001600081525090806001815401808255809150506001900390600052602060002090600402016000909190919091506000820151816000019080519060200190620007b9929190620008a4565b5060208201518160010155604082015181600201556060820151816003015550506014600e819055505050505050508173ffffffffffffffffffffffffffffffffffffffff1660a08173ffffffffffffffffffffffffffffffffffffffff1660601b815250508073ffffffffffffffffffffffffffffffffffffffff1660808173ffffffffffffffffffffffffffffffffffffffff1660601b8152505050507f2ed0feb3e7fd2022120aa84fab1945545a9f2ffc9076fd6156fa96eaff4c131160001b60108190555067016345785d8a0000601181905550505050505062000d7a565b600033905090565b828054620008b29062000c8b565b90600052602060002090601f016020900481019282620008d6576000855562000922565b82601f10620008f157805160ff191683800117855562000922565b8280016001018555821562000922579182015b828111156200092157825182559160200191906001019062000904565b5b50905062000931919062000935565b5090565b5b808211156200095057600081600090555060010162000936565b5090565b600081519050620009658162000d2c565b92915050565b6000815190506200097c8162000d46565b92915050565b600081519050620009938162000d60565b92915050565b600080600080600060a08688031215620009b257600080fd5b6000620009c28882890162000954565b9550506020620009d58882890162000954565b9450506040620009e88882890162000954565b9350506060620009fb888289016200096b565b925050608062000a0e888289016200096b565b9150509295509295909350565b60006020828403121562000a2e57600080fd5b600062000a3e8482850162000982565b91505092915050565b6000808291508390505b600185111562000a995780860481111562000a715762000a7062000cc1565b5b600185161562000a815780820291505b808102905062000a918562000d1f565b945062000a51565b94509492505050565b600062000aaf8262000c74565b915062000abc8362000c74565b925062000aeb7fffffffffffffffffffffffffffffffffffffffffffffffffffffffffffffffff848462000af3565b905092915050565b60008262000b05576001905062000bd8565b8162000b15576000905062000bd8565b816001811462000b2e576002811462000b395762000b6f565b600191505062000bd8565b60ff84111562000b4e5762000b4d62000cc1565b5b8360020a91508482111562000b685762000b6762000cc1565b5b5062000bd8565b5060208310610133831016604e8410600b841016171562000ba95782820a90508381111562000ba35762000ba262000cc1565b5b62000bd8565b62000bb8848484600162000a47565b9250905081840481111562000bd25762000bd162000cc1565b5b81810290505b9392505050565b600062000bec8262000c74565b915062000bf98362000c74565b9250817fffffffffffffffffffffffffffffffffffffffffffffffffffffffffffffffff048311821515161562000c355762000c3462000cc1565b5b828202905092915050565b600062000c4d8262000c54565b9050919050565b600073ffffffffffffffffffffffffffffffffffffffff82169050919050565b6000819050919050565b600060ff82169050919050565b6000600282049050600182168062000ca457607f821691505b6020821081141562000cbb5762000cba62000cf0565b5b50919050565b7f4e487b7100000000000000000000000000000000000000000000000000000000600052601160045260246000fd5b7f4e487b7100000000000000000000000000000000000000000000000000000000600052602260045260246000fd5b60008160011c9050919050565b62000d378162000c40565b811462000d4357600080fd5b50565b62000d518162000c74565b811462000d5d57600080fd5b50565b62000d6b8162000c7e565b811462000d7757600080fd5b50565b60805160601c60a05160601c61485462000db46000396000818161171d0152612c2c01526000818161276d0152612bf001526148546000f3fe60806040526004361061027d5760003560e01c80638f666ecf1161014f578063bd9766f4116100c1578063e76eda861161007a578063e76eda86146109c8578063efad76da146109f3578063f207564e14610a1e578063f2fde38b14610a47578063f3f40af214610a70578063fe4b84df14610a9b5761027d565b8063bd9766f4146108b4578063c4f34fab146108f1578063c6b609711461091c578063d6cd82bc14610947578063df15c37e14610972578063e1758bd81461099d5761027d565b80639e6e9d0f116101135780639e6e9d0f14610779578063a158226d146107b6578063a25dd130146107e1578063a8af4ff51461080c578063ac4afa3814610849578063b6ba8114146108895761027d565b80638f666ecf146106b2578063907af6c0146106f057806394985ddd1461071b57806396c82e57146107445780639c3962f01461076f5761027d565b80633f46ce72116101f35780637504db3e116101ac5780637504db3e146105a25780637acaea9b146105cb578063886f039a146106085780638997ce4e146106315780638da5cb5b1461065c5780638f15024f146106875761027d565b80633f46ce721461048f57806342619f66146104cd57806345a28e06146104f857806351622cd01461053757806366a30cb614610574578063715018a61461058b5761027d565b8063196f253211610245578063196f25321461037d5780632b08e824146103a85780632f366637146103e55780633711d9fb1461040e578063385a9c3714610439578063392e53cd146104645761027d565b8063045544431461028257806308726296146102ad57806309d6b3ff146102d85780630e6fdaa1146103155780631209b1f614610352575b600080fd5b34801561028e57600080fd5b50610297610ac4565b6040516102a49190614206565b60405180910390f35b3480156102b957600080fd5b506102c2610ad6565b6040516102cf9190614206565b60405180910390f35b3480156102e457600080fd5b506102ff60048036038101906102fa91906131d8565b610ae3565b60405161030c9190613d49565b60405180910390f35b34801561032157600080fd5b5061033c600480360381019061033791906132de565b610b0a565b6040516103499190613c6e565b60405180910390f35b34801561035e57600080fd5b50610367610b49565b6040516103749190614206565b60405180910390f35b34801561038957600080fd5b50610392610b55565b60405161039f9190614206565b60405180910390f35b3480156103b457600080fd5b506103cf60048036038101906103ca91906132de565b610b5b565b6040516103dc9190613c6e565b60405180910390f35b3480156103f157600080fd5b5061040c600480360381019061040791906132de565b610b8e565b005b34801561041a57600080fd5b50610423610f01565b6040516104309190614206565b60405180910390f35b34801561044557600080fd5b5061044e610f13565b60405161045b9190613d49565b60405180910390f35b34801561047057600080fd5b50610479610f2a565b6040516104869190613d49565b60405180910390f35b34801561049b57600080fd5b506104b660048036038101906104b191906131d8565b610f3d565b6040516104c4929190614221565b60405180910390f35b3480156104d957600080fd5b506104e2610fc6565b6040516104ef9190614206565b60405180910390f35b34801561050457600080fd5b5061051f600480360381019061051a91906131d8565b610fcc565b60405161052e93929190613d64565b60405180910390f35b34801561054357600080fd5b5061055e600480360381019061055991906131d8565b611010565b60405161056b9190614206565b60405180910390f35b34801561058057600080fd5b50610589611028565b005b34801561059757600080fd5b506105a06111c6565b005b3480156105ae57600080fd5b506105c960048036038101906105c491906131d8565b611300565b005b3480156105d757600080fd5b506105f260048036038101906105ed919061323d565b61142c565b6040516105ff9190614206565b60405180910390f35b34801561061457600080fd5b5061062f600480360381019061062a9190613201565b61145d565b005b34801561063d57600080fd5b506106466115f9565b6040516106539190613d9b565b60405180910390f35b34801561066857600080fd5b506106716115ff565b60405161067e9190613c6e565b60405180910390f35b34801561069357600080fd5b5061069c611628565b6040516106a99190614206565b60405180910390f35b3480156106be57600080fd5b506106d960048036038101906106d491906132de565b61162e565b6040516106e7929190614221565b60405180910390f35b3480156106fc57600080fd5b50610705611715565b6040516107129190614206565b60405180910390f35b34801561072757600080fd5b50610742600480360381019061073d91906132a2565b61171b565b005b34801561075057600080fd5b506107596117b7565b6040516107669190614206565b60405180910390f35b6107776117bd565b005b34801561078557600080fd5b506107a0600480360381019061079b91906131d8565b611c13565b6040516107ad9190614206565b60405180910390f35b3480156107c257600080fd5b506107cb611c5f565b6040516107d89190614206565b60405180910390f35b3480156107ed57600080fd5b506107f6611c65565b6040516108039190614206565b60405180910390f35b34801561081857600080fd5b50610833600480360381019061082e91906131d8565b611c77565b6040516108409190613d49565b60405180910390f35b34801561085557600080fd5b50610870600480360381019061086b91906132de565b611cd0565b6040516108809493929190613e5a565b60405180910390f35b34801561089557600080fd5b5061089e611d98565b6040516108ab9190614206565b60405180910390f35b3480156108c057600080fd5b506108db60048036038101906108d691906131d8565b611d9e565b6040516108e89190613d49565b60405180910390f35b3480156108fd57600080fd5b50610906611dbe565b6040516109139190613e3f565b60405180910390f35b34801561092857600080fd5b50610931611de4565b60405161093e9190614206565b60405180910390f35b34801561095357600080fd5b5061095c611de9565b6040516109699190613e24565b60405180910390f35b34801561097e57600080fd5b50610987611e0f565b6040516109949190613d27565b60405180910390f35b3480156109a957600080fd5b506109b2611e65565b6040516109bf9190613e24565b60405180910390f35b3480156109d457600080fd5b506109dd611e8b565b6040516109ea9190614206565b60405180910390f35b3480156109ff57600080fd5b50610a08611eb6565b604051610a159190614206565b60405180910390f35b348015610a2a57600080fd5b50610a456004803603810190610a4091906132de565b611ebc565b005b348015610a5357600080fd5b50610a6e6004803603810190610a6991906131d8565b6122a8565b005b348015610a7c57600080fd5b50610a85612451565b604051610a929190614206565b60405180910390f35b348015610aa757600080fd5b50610ac26004803603810190610abd91906132de565b612457565b005b610e1060a8610ad391906144be565b81565b6000600b80549050905090565b6000610aee82611c77565b1580610b0357506002610b0083611c13565b14155b9050919050565b600b8181548110610b1a57600080fd5b906000526020600020016000915054906101000a900473ffffffffffffffffffffffffffffffffffffffff1681565b6729a2241af62c000081565b60075481565b60166020528060005260406000206000915054906101000a900473ffffffffffffffffffffffffffffffffffffffff1681565b426008541115610bd3576040517f08c379a0000000000000000000000000000000000000000000000000000000008152600401610bca90614086565b60405180910390fd5b42610e106030610be391906144be565b600854610bf091906142c6565b1015610c31576040517f08c379a0000000000000000000000000000000000000000000000000000000008152600401610c28906140e6565b60405180910390fd5b60026001541415610c77576040517f08c379a0000000000000000000000000000000000000000000000000000000008152600401610c6e906141c6565b60405180910390fd5b6002600181905550610c8833610ae3565b610cc7576040517f08c379a0000000000000000000000000000000000000000000000000000000008152600401610cbe90613ec6565b60405180910390fd5b60006015549050600360009054906101000a900473ffffffffffffffffffffffffffffffffffffffff1673ffffffffffffffffffffffffffffffffffffffff166323b872dd33610d156115ff565b6729a2241af62c000086610d2991906144be565b6040518463ffffffff1660e01b8152600401610d4793929190613c89565b602060405180830381600087803b158015610d6157600080fd5b505af1158015610d75573d6000803e3d6000fd5b505050506040513d601f19601f82011682018060405250810190610d999190613279565b5060005b82811015610e865733601660008385610db691906142c6565b815260200190815260200160002060006101000a81548173ffffffffffffffffffffffffffffffffffffffff021916908373ffffffffffffffffffffffffffffffffffffffff160217905550601860003373ffffffffffffffffffffffffffffffffffffffff1673ffffffffffffffffffffffffffffffffffffffff1681526020019081526020016000208183610e4d91906142c6565b90806001815401808255809150506001900390600052602060002001600090919091909150558080610e7e90614658565b915050610d9d565b5081601760003373ffffffffffffffffffffffffffffffffffffffff1673ffffffffffffffffffffffffffffffffffffffff1681526020019081526020016000206000828254610ed691906142c6565b925050819055508160156000828254610eef91906142c6565b92505081905550506001808190555050565b610e10600c610f1091906144be565b81565b6000601460019054906101000a900460ff16905090565b600c60009054906101000a900460ff1681565b600080610f8b600a60008573ffffffffffffffffffffffffffffffffffffffff1673ffffffffffffffffffffffffffffffffffffffff1681526020019081526020016000206001015461162e565b8092508193505050600080610f9f856126f2565b915091508184610faf91906142c6565b93508083610fbd91906142c6565b92505050915091565b60135481565b600a6020528060005260406000206000915090508060000160009054906101000a900460ff16908060010154908060020160009054906101000a900460ff16905083565b60176020528060005260406000206000915090505481565b601460009054906101000a900460ff1615611078576040517f08c379a000000000000000000000000000000000000000000000000000000000815260040161106f90613f26565b60405180910390fd5b6001601460006101000a81548160ff02191690831515021790555042610e1060306110a391906144be565b6008546110b091906142c6565b11156110f1576040517f08c379a00000000000000000000000000000000000000000000000000000000081526004016110e890614026565b60405180910390fd5b426009541015611136576040517f08c379a000000000000000000000000000000000000000000000000000000000815260040161112d90613f46565b60405180910390fd5b6002600154141561117c576040517f08c379a0000000000000000000000000000000000000000000000000000000008152600401611173906141c6565b60405180910390fd5b60026001819055506000336040516020016111979190613c12565b6040516020818303038152906040528051906020012060001c90506111bb81612766565b505060018081905550565b6111ce61286b565b73ffffffffffffffffffffffffffffffffffffffff166111ec6115ff565b73ffffffffffffffffffffffffffffffffffffffff1614611242576040517f08c379a0000000000000000000000000000000000000000000000000000000008152600401611239906140c6565b60405180910390fd5b600073ffffffffffffffffffffffffffffffffffffffff1660008054906101000a900473ffffffffffffffffffffffffffffffffffffffff1673ffffffffffffffffffffffffffffffffffffffff167f8be0079c531659141344cd1fd0a4f28419497f9722a3daafe3b4186f6b6457e060405160405180910390a360008060006101000a81548173ffffffffffffffffffffffffffffffffffffffff021916908373ffffffffffffffffffffffffffffffffffffffff160217905550565b61130861286b565b73ffffffffffffffffffffffffffffffffffffffff166113266115ff565b73ffffffffffffffffffffffffffffffffffffffff161461137c576040517f08c379a0000000000000000000000000000000000000000000000000000000008152600401611373906140c6565b60405180910390fd5b60008173ffffffffffffffffffffffffffffffffffffffff16476040516113a290613c59565b60006040518083038185875af1925050503d80600081146113df576040519150601f19603f3d011682016040523d82523d6000602084013e6113e4565b606091505b5050905080611428576040517f08c379a000000000000000000000000000000000000000000000000000000000815260040161141f90614046565b60405180910390fd5b5050565b6018602052816000526040600020818154811061144857600080fd5b90600052602060002001600091509150505481565b61146561286b565b73ffffffffffffffffffffffffffffffffffffffff166114836115ff565b73ffffffffffffffffffffffffffffffffffffffff16146114d9576040517f08c379a00000000000000000000000000000000000000000000000000000000081526004016114d0906140c6565b60405180910390fd5b60008290508073ffffffffffffffffffffffffffffffffffffffff1663a9059cbb838373ffffffffffffffffffffffffffffffffffffffff166370a08231306040518263ffffffff1660e01b81526004016115349190613c6e565b60206040518083038186803b15801561154c57600080fd5b505afa158015611560573d6000803e3d6000fd5b505050506040513d601f19601f820116820180604052508101906115849190613307565b6040518363ffffffff1660e01b81526004016115a1929190613cc0565b602060405180830381600087803b1580156115bb57600080fd5b505af11580156115cf573d6000803e3d6000fd5b505050506040513d601f19601f820116820180604052508101906115f39190613279565b50505050565b60125481565b60008060009054906101000a900473ffffffffffffffffffffffffffffffffffffffff16905090565b60155481565b6000806000600d848154811061166d577f4e487b7100000000000000000000000000000000000000000000000000000000600052603260045260246000fd5b906000526020600020906004020190506000841480611690575060008160030154145b156116a2576000809250925050611710565b60008160030154600e546116b691906144be565b82600201546005546116c891906144be565b6116d2919061431c565b905060008260030154600e546116e891906144be565b83600201546006546116fa91906144be565b611704919061431c565b90508181945094505050505b915091565b610e1081565b7f000000000000000000000000000000000000000000000000000000000000000073ffffffffffffffffffffffffffffffffffffffff163373ffffffffffffffffffffffffffffffffffffffff16146117a9576040517f08c379a00000000000000000000000000000000000000000000000000000000081526004016117a090614106565b60405180910390fd5b6117b38282612873565b5050565b600e5481565b6000429050600c60009054906101000a900460ff16611811576040517f08c379a0000000000000000000000000000000000000000000000000000000008152600401611808906141e6565b60405180910390fd5b600a60003373ffffffffffffffffffffffffffffffffffffffff1673ffffffffffffffffffffffffffffffffffffffff16815260200190815260200160002060000160009054906101000a900460ff166118a0576040517f08c379a000000000000000000000000000000000000000000000000000000000815260040161189790613ee6565b60405180910390fd5b600a60003373ffffffffffffffffffffffffffffffffffffffff1673ffffffffffffffffffffffffffffffffffffffff16815260200190815260200160002060020160009054906101000a900460ff1615611930576040517f08c379a000000000000000000000000000000000000000000000000000000000815260040161192790613fe6565b60405180910390fd5b806009541115801561195d5750610e10600c61194c91906144be565b60095461195991906142c6565b8111155b61199c576040517f08c379a0000000000000000000000000000000000000000000000000000000008152600401611993906141a6565b60405180910390fd5b600260015414156119e2576040517f08c379a00000000000000000000000000000000000000000000000000000000081526004016119d9906141c6565b60405180910390fd5b60026001819055506000600a60003373ffffffffffffffffffffffffffffffffffffffff1673ffffffffffffffffffffffffffffffffffffffff1681526020019081526020016000209050600080611a3933610f3d565b9150915060008114158015611a4f575060008214155b611a8e576040517f08c379a0000000000000000000000000000000000000000000000000000000008152600401611a8590614126565b60405180910390fd5b348114611ad0576040517f08c379a0000000000000000000000000000000000000000000000000000000008152600401611ac790613ea6565b60405180910390fd5b60018360020160006101000a81548160ff0219169083151502179055508160076000828254611aff9190614518565b92505081905550600460009054906101000a900473ffffffffffffffffffffffffffffffffffffffff1673ffffffffffffffffffffffffffffffffffffffff1663a9059cbb33846040518363ffffffff1660e01b8152600401611b63929190613cc0565b602060405180830381600087803b158015611b7d57600080fd5b505af1158015611b91573d6000803e3d6000fd5b505050506040513d601f19601f82011682018060405250810190611bb59190613279565b503373ffffffffffffffffffffffffffffffffffffffff167f12cb4648cf3058b17ceeb33e579f8b0bc269fe0843f3900b8e24b6c54871703c8383604051611bfe929190614221565b60405180910390a25050506001808190555050565b6000600a60008373ffffffffffffffffffffffffffffffffffffffff1673ffffffffffffffffffffffffffffffffffffffff168152602001908152602001600020600101549050919050565b60085481565b610e106030611c7491906144be565b81565b6000600a60008373ffffffffffffffffffffffffffffffffffffffff1673ffffffffffffffffffffffffffffffffffffffff16815260200190815260200160002060000160009054906101000a900460ff169050919050565b600d8181548110611ce057600080fd5b9060005260206000209060040201600091509050806000018054611d0390614626565b80601f0160208091040260200160405190810160405280929190818152602001828054611d2f90614626565b8015611d7c5780601f10611d5157610100808354040283529160200191611d7c565b820191906000526020600020905b815481529060010190602001808311611d5f57829003601f168201915b5050505050908060010154908060020154908060030154905084565b60055481565b60196020528060005260406000206000915054906101000a900460ff1681565b600260009054906101000a900473ffffffffffffffffffffffffffffffffffffffff1681565b600281565b600460009054906101000a900473ffffffffffffffffffffffffffffffffffffffff1681565b6060611e19610f13565b611e58576040517f08c379a0000000000000000000000000000000000000000000000000000000008152600401611e4f90614146565b60405180910390fd5b611e6061288d565b905090565b600360009054906101000a900473ffffffffffffffffffffffffffffffffffffffff1681565b610e106018611e9a91906144be565b610e106030611ea991906144be565b611eb391906142c6565b81565b60065481565b6000429050600c60009054906101000a900460ff16611f10576040517f08c379a0000000000000000000000000000000000000000000000000000000008152600401611f07906141e6565b60405180910390fd5b600a60003373ffffffffffffffffffffffffffffffffffffffff1673ffffffffffffffffffffffffffffffffffffffff16815260200190815260200160002060000160009054906101000a900460ff1615611fa0576040517f08c379a0000000000000000000000000000000000000000000000000000000008152600401611f9790613f66565b60405180910390fd5b8060085411158015611fcd5750610e106030611fbc91906144be565b600854611fc991906142c6565b8111155b61200c576040517f08c379a000000000000000000000000000000000000000000000000000000000815260040161200390614186565b60405180910390fd5b818060011115801561201f575060058111155b61205e576040517f08c379a000000000000000000000000000000000000000000000000000000000815260040161205590613f86565b60405180910390fd5b6000600260009054906101000a900473ffffffffffffffffffffffffffffffffffffffff1673ffffffffffffffffffffffffffffffffffffffff166360217267336040518263ffffffff1660e01b81526004016120bb9190613c6e565b60206040518083038186803b1580156120d357600080fd5b505afa1580156120e7573d6000803e3d6000fd5b505050506040513d601f19601f8201168201806040525081019061210b9190613307565b905080600d8381548110612148577f4e487b7100000000000000000000000000000000000000000000000000000000600052603260045260246000fd5b906000526020600020906004020160010154111561219b576040517f08c379a000000000000000000000000000000000000000000000000000000000815260040161219290614006565b60405180910390fd5b600260015414156121e1576040517f08c379a00000000000000000000000000000000000000000000000000000000081526004016121d8906141c6565b60405180910390fd5b6002600181905550600260009054906101000a900473ffffffffffffffffffffffffffffffffffffffff1673ffffffffffffffffffffffffffffffffffffffff1663282d3fdf33610e1060a861223791906144be565b4261224291906142c6565b6040518363ffffffff1660e01b815260040161225f929190613cc0565b600060405180830381600087803b15801561227957600080fd5b505af115801561228d573d6000803e3d6000fd5b5050505061229b3385612a32565b6001808190555050505050565b6122b061286b565b73ffffffffffffffffffffffffffffffffffffffff166122ce6115ff565b73ffffffffffffffffffffffffffffffffffffffff1614612324576040517f08c379a000000000000000000000000000000000000000000000000000000000815260040161231b906140c6565b60405180910390fd5b600073ffffffffffffffffffffffffffffffffffffffff168173ffffffffffffffffffffffffffffffffffffffff161415612394576040517f08c379a000000000000000000000000000000000000000000000000000000000815260040161238b90613f06565b60405180910390fd5b8073ffffffffffffffffffffffffffffffffffffffff1660008054906101000a900473ffffffffffffffffffffffffffffffffffffffff1673ffffffffffffffffffffffffffffffffffffffff167f8be0079c531659141344cd1fd0a4f28419497f9722a3daafe3b4186f6b6457e060405160405180910390a3806000806101000a81548173ffffffffffffffffffffffffffffffffffffffff021916908373ffffffffffffffffffffffffffffffffffffffff16021790555050565b60095481565b61245f61286b565b73ffffffffffffffffffffffffffffffffffffffff1661247d6115ff565b73ffffffffffffffffffffffffffffffffffffffff16146124d3576040517f08c379a00000000000000000000000000000000000000000000000000000000081526004016124ca906140c6565b60405180910390fd5b600c60009054906101000a900460ff1615612523576040517f08c379a000000000000000000000000000000000000000000000000000000000815260040161251a90613fc6565b60405180910390fd5b42811015612566576040517f08c379a000000000000000000000000000000000000000000000000000000000815260040161255d90614066565b60405180910390fd5b80600881905550610e10601861257c91906144be565b610e10603061258b91906144be565b61259591906142c6565b6008546125a291906142c6565b600981905550600554600460009054906101000a900473ffffffffffffffffffffffffffffffffffffffff1673ffffffffffffffffffffffffffffffffffffffff166370a08231306040518263ffffffff1660e01b81526004016126069190613c6e565b60206040518083038186803b15801561261e57600080fd5b505afa158015612632573d6000803e3d6000fd5b505050506040513d601f19601f820116820180604052508101906126569190613307565b1015612697576040517f08c379a000000000000000000000000000000000000000000000000000000000815260040161268e906140a6565b60405180910390fd5b7f537db03a5cf0f67e64e2a7515e45c28a71d041067e165fc95ee2ecde36e6532d6008546009546040516126cc929190614221565b60405180910390a16001600c60006101000a81548160ff02191690831515021790555050565b60008060009050809150601960008473ffffffffffffffffffffffffffffffffffffffff1673ffffffffffffffffffffffffffffffffffffffff16815260200190815260200160002060009054906101000a900460ff161561276157612758600261162e565b80925081935050505b915091565b60006011547f000000000000000000000000000000000000000000000000000000000000000073ffffffffffffffffffffffffffffffffffffffff166370a08231306040518263ffffffff1660e01b81526004016127c49190613c6e565b60206040518083038186803b1580156127dc57600080fd5b505afa1580156127f0573d6000803e3d6000fd5b505050506040513d601f19601f820116820180604052508101906128149190613307565b1015612855576040517f08c379a000000000000000000000000000000000000000000000000000000000815260040161284c90613fa6565b60405180910390fd5b61286460105460115484612bec565b9050919050565b600033905090565b8160128190555080601381905550612889612d4d565b5050565b6060600061289c601554612d72565b90508067ffffffffffffffff8111156128de577f4e487b7100000000000000000000000000000000000000000000000000000000600052604160045260246000fd5b60405190808252806020026020018201604052801561290c5781602001602082028036833780820191505090505b509150600061291f600060155484612d94565b905060005b82811015612a2c5760006016600084848151811061296b577f4e487b7100000000000000000000000000000000000000000000000000000000600052603260045260246000fd5b6020026020010151815260200190815260200160002060009054906101000a900473ffffffffffffffffffffffffffffffffffffffff169050808583815181106129de577f4e487b7100000000000000000000000000000000000000000000000000000000600052603260045260246000fd5b602002602001019073ffffffffffffffffffffffffffffffffffffffff16908173ffffffffffffffffffffffffffffffffffffffff1681525050508080612a2490614658565b915050612924565b50505090565b6001600a60008473ffffffffffffffffffffffffffffffffffffffff1673ffffffffffffffffffffffffffffffffffffffff16815260200190815260200160002060000160006101000a81548160ff02191690831515021790555080600a60008473ffffffffffffffffffffffffffffffffffffffff1673ffffffffffffffffffffffffffffffffffffffff168152602001908152602001600020600101819055506001600d8281548110612b10577f4e487b7100000000000000000000000000000000000000000000000000000000600052603260045260246000fd5b90600052602060002090600402016003016000828254612b3091906142c6565b92505081905550600b829080600181540180825580915050600190039060005260206000200160009091909190916101000a81548173ffffffffffffffffffffffffffffffffffffffff021916908373ffffffffffffffffffffffffffffffffffffffff1602179055503373ffffffffffffffffffffffffffffffffffffffff167ff6c60b059f60c86b2d612b237ac38bd87bc1f68f87600cd360d68351af1ca95f82604051612be09190614206565b60405180910390a25050565b60007f000000000000000000000000000000000000000000000000000000000000000073ffffffffffffffffffffffffffffffffffffffff16634000aea07f0000000000000000000000000000000000000000000000000000000000000000858786604051602001612c5f929190613db6565b6040516020818303038152906040526040518463ffffffff1660e01b8152600401612c8c93929190613ce9565b602060405180830381600087803b158015612ca657600080fd5b505af1158015612cba573d6000803e3d6000fd5b505050506040513d601f19601f82011682018060405250810190612cde9190613279565b506000612d00858430600f60008a815260200190815260200160002054612f9d565b90506001600f600087815260200190815260200160002054612d2291906142c6565b600f600087815260200190815260200160002081905550612d438582612fd9565b9150509392505050565b6001601460016101000a81548160ff021916908315150217905550612d7061300c565b565b60006001606483612d83919061431c565b612d8d91906142c6565b9050919050565b60608167ffffffffffffffff811115612dd6577f4e487b7100000000000000000000000000000000000000000000000000000000600052604160045260246000fd5b604051908082528060200260200182016040528015612e045781602001602082028036833780820191505090505b5090506000601354905060008585612e1c9190614518565b905083811015612e61576040517f08c379a0000000000000000000000000000000000000000000000000000000008152600401612e5890614166565b60405180910390fd5b600060fb905060005b85811015612f925760008884600285612e8391906143a0565b87612e8e91906142c6565b612e9891906146d9565b612ea291906142c6565b90506000805b600184612eb591906142c6565b811015612f2057878181518110612ef5577f4e487b7100000000000000000000000000000000000000000000000000000000600052603260045260246000fd5b6020026020010151831415612f0d5760019150612f20565b8080612f1890614658565b915050612ea8565b5080612f7c5781878481518110612f60577f4e487b7100000000000000000000000000000000000000000000000000000000600052603260045260246000fd5b602002602001018181525050600183612f7991906142c6565b92505b600184612f8991906142c6565b93505050612e6a565b505050509392505050565b600084848484604051602001612fb69493929190613ddf565b6040516020818303038152906040528051906020012060001c9050949350505050565b60008282604051602001612fee929190613c2d565b60405160208183030381529060405280519060200120905092915050565b600061301661288d565b905060005b815181101561316b57600082828151811061305f577f4e487b7100000000000000000000000000000000000000000000000000000000600052603260045260246000fd5b6020026020010151905060006002905061307882611c77565b61308b576130868282612a32565b613156565b600261309683611c13565b14613155576001601960008473ffffffffffffffffffffffffffffffffffffffff1673ffffffffffffffffffffffffffffffffffffffff16815260200190815260200160002060006101000a81548160ff021916908315150217905550600d818154811061312d577f4e487b7100000000000000000000000000000000000000000000000000000000600052603260045260246000fd5b9060005260206000209060040201600301600081548092919061314f90614658565b91905055505b5b5050808061316390614658565b91505061301b565b5050565b60008135905061317e816147c2565b92915050565b600081519050613193816147d9565b92915050565b6000813590506131a8816147f0565b92915050565b6000813590506131bd81614807565b92915050565b6000815190506131d281614807565b92915050565b6000602082840312156131ea57600080fd5b60006131f88482850161316f565b91505092915050565b6000806040838503121561321457600080fd5b60006132228582860161316f565b92505060206132338582860161316f565b9150509250929050565b6000806040838503121561325057600080fd5b600061325e8582860161316f565b925050602061326f858286016131ae565b9150509250929050565b60006020828403121561328b57600080fd5b600061329984828501613184565b91505092915050565b600080604083850312156132b557600080fd5b60006132c385828601613199565b92505060206132d4858286016131ae565b9150509250929050565b6000602082840312156132f057600080fd5b60006132fe848285016131ae565b91505092915050565b60006020828403121561331957600080fd5b6000613327848285016131c3565b91505092915050565b600061333c8383613348565b60208301905092915050565b6133518161454c565b82525050565b6133608161454c565b82525050565b6133776133728261454c565b6146a1565b82525050565b60006133888261425a565b6133928185614288565b935061339d8361424a565b8060005b838110156133ce5781516133b58882613330565b97506133c08361427b565b9250506001810190506133a1565b5085935050505092915050565b6133e48161455e565b82525050565b6133f38161456a565b82525050565b61340a6134058261456a565b6146b3565b82525050565b600061341b82614265565b6134258185614299565b93506134358185602086016145f3565b61343e81614797565b840191505092915050565b613452816145ab565b82525050565b613461816145cf565b82525050565b600061347282614270565b61347c81856142b5565b935061348c8185602086016145f3565b61349581614797565b840191505092915050565b60006134ad6014836142b5565b91507f4e6f742056616c69642045746820416d6f756e740000000000000000000000006000830152602082019050919050565b60006134ed601b836142b5565b91507f416c72656164792050617274696369706174656420496e2049444f00000000006000830152602082019050919050565b600061352d600e836142b5565b91507f4e6f7420726567697374657265640000000000000000000000000000000000006000830152602082019050919050565b600061356d6026836142b5565b91507f4f776e61626c653a206e6577206f776e657220697320746865207a65726f206160008301527f64647265737300000000000000000000000000000000000000000000000000006020830152604082019050919050565b60006135d36016836142b5565b91507f416c72656164792047656e657261746564204f6e6365000000000000000000006000830152602082019050919050565b60006136136013836142b5565b91507f526166666c653a204f7574204f662054696d65000000000000000000000000006000830152602082019050919050565b60006136536012836142b5565b91507f416c7265616479207265676973746572656400000000000000000000000000006000830152602082019050919050565b6000613693600f836142b5565b91507f696e76616c696420506f6f6c206e6f00000000000000000000000000000000006000830152602082019050919050565b60006136d3602b836142b5565b91507f4e6f7420656e6f756768204c494e4b202d2066696c6c20636f6e74726163742060008301527f77697468206661756365740000000000000000000000000000000000000000006020830152604082019050919050565b60006137396013836142b5565b91507f416c726561647920496e697469616c697a6564000000000000000000000000006000830152602082019050919050565b60006137796011836142b5565b91507f416c7265616479205075726368617365640000000000000000000000000000006000830152602082019050919050565b60006137b9601d836142b5565b91507f43616e277420506172746963697061746520696e2074686520506f6f6c0000006000830152602082019050919050565b60006137f96020836142b5565b91507f526166666c653a2050617274696369706174696f6e204469646e277420456e646000830152602082019050919050565b60006138396015836142b5565b91507f556e61626c6520546f205265636f7665722045746800000000000000000000006000830152602082019050919050565b60006138796014836142b5565b91507f49444f2043616e277420426520696e20506173740000000000000000000000006000830152602082019050919050565b60006138b96022836142b5565b91507f526166666c653a2050617274696369706174696f6e204469646e27742042656760008301527f696e0000000000000000000000000000000000000000000000000000000000006020830152604082019050919050565b600061391f601d836142b5565b91507f4e6f7420456e6f75676820546f6b656e7320496e20436f6e74726163740000006000830152602082019050919050565b600061395f6020836142b5565b91507f4f776e61626c653a2063616c6c6572206973206e6f7420746865206f776e65726000830152602082019050919050565b600061399f601b836142b5565b91507f526166666c653a2050617274696369706174696f6e20456e64656400000000006000830152602082019050919050565b60006139df601f836142b5565b91507f4f6e6c7920565246436f6f7264696e61746f722063616e2066756c66696c6c006000830152602082019050919050565b6000613a1f6014836142b5565b91507f56616c7565732043616e2774204265205a65726f0000000000000000000000006000830152602082019050919050565b6000613a5f6016836142b5565b91507f57696e6e6572204e6f74204465636964656420596574000000000000000000006000830152602082019050919050565b6000613a9f600c836142b5565b91507f496e76616c69642053697a6500000000000000000000000000000000000000006000830152602082019050919050565b6000613adf601a836142b5565b91507f4e6f7420696e20526567697374726174696f6e20506572696f640000000000006000830152602082019050919050565b6000613b1f6000836142aa565b9150600082019050919050565b6000613b396012836142b5565b91507f4e6f7420696e2053616c6520506572696f6400000000000000000000000000006000830152602082019050919050565b6000613b79601f836142b5565b91507f5265656e7472616e637947756172643a207265656e7472616e742063616c6c006000830152602082019050919050565b6000613bb96013836142b5565b91507f4e6f7420496e697469616c697a656420596574000000000000000000000000006000830152602082019050919050565b613bf581614594565b82525050565b613c0c613c0782614594565b6146cf565b82525050565b6000613c1e8284613366565b60148201915081905092915050565b6000613c3982856133f9565b602082019150613c498284613bfb565b6020820191508190509392505050565b6000613c6482613b12565b9150819050919050565b6000602082019050613c836000830184613357565b92915050565b6000606082019050613c9e6000830186613357565b613cab6020830185613357565b613cb86040830184613bec565b949350505050565b6000604082019050613cd56000830185613357565b613ce26020830184613bec565b9392505050565b6000606082019050613cfe6000830186613357565b613d0b6020830185613bec565b8181036040830152613d1d8184613410565b9050949350505050565b60006020820190508181036000830152613d41818461337d565b905092915050565b6000602082019050613d5e60008301846133db565b92915050565b6000606082019050613d7960008301866133db565b613d866020830185613bec565b613d9360408301846133db565b949350505050565b6000602082019050613db060008301846133ea565b92915050565b6000604082019050613dcb60008301856133ea565b613dd86020830184613bec565b9392505050565b6000608082019050613df460008301876133ea565b613e016020830186613bec565b613e0e6040830185613357565b613e1b6060830184613bec565b95945050505050565b6000602082019050613e396000830184613449565b92915050565b6000602082019050613e546000830184613458565b92915050565b60006080820190508181036000830152613e748187613467565b9050613e836020830186613bec565b613e906040830185613bec565b613e9d6060830184613bec565b95945050505050565b60006020820190508181036000830152613ebf816134a0565b9050919050565b60006020820190508181036000830152613edf816134e0565b9050919050565b60006020820190508181036000830152613eff81613520565b9050919050565b60006020820190508181036000830152613f1f81613560565b9050919050565b60006020820190508181036000830152613f3f816135c6565b9050919050565b60006020820190508181036000830152613f5f81613606565b9050919050565b60006020820190508181036000830152613f7f81613646565b9050919050565b60006020820190508181036000830152613f9f81613686565b9050919050565b60006020820190508181036000830152613fbf816136c6565b9050919050565b60006020820190508181036000830152613fdf8161372c565b9050919050565b60006020820190508181036000830152613fff8161376c565b9050919050565b6000602082019050818103600083015261401f816137ac565b9050919050565b6000602082019050818103600083015261403f816137ec565b9050919050565b6000602082019050818103600083015261405f8161382c565b9050919050565b6000602082019050818103600083015261407f8161386c565b9050919050565b6000602082019050818103600083015261409f816138ac565b9050919050565b600060208201905081810360008301526140bf81613912565b9050919050565b600060208201905081810360008301526140df81613952565b9050919050565b600060208201905081810360008301526140ff81613992565b9050919050565b6000602082019050818103600083015261411f816139d2565b9050919050565b6000602082019050818103600083015261413f81613a12565b9050919050565b6000602082019050818103600083015261415f81613a52565b9050919050565b6000602082019050818103600083015261417f81613a92565b9050919050565b6000602082019050818103600083015261419f81613ad2565b9050919050565b600060208201905081810360008301526141bf81613b2c565b9050919050565b600060208201905081810360008301526141df81613b6c565b9050919050565b600060208201905081810360008301526141ff81613bac565b9050919050565b600060208201905061421b6000830184613bec565b92915050565b60006040820190506142366000830185613bec565b6142436020830184613bec565b9392505050565b6000819050602082019050919050565b600081519050919050565b600081519050919050565b600081519050919050565b6000602082019050919050565b600082825260208201905092915050565b600082825260208201905092915050565b600081905092915050565b600082825260208201905092915050565b60006142d182614594565b91506142dc83614594565b9250827fffffffffffffffffffffffffffffffffffffffffffffffffffffffffffffffff038211156143115761431061470a565b5b828201905092915050565b600061432782614594565b915061433283614594565b92508261434257614341614739565b5b828204905092915050565b6000808291508390505b6001851115614397578086048111156143735761437261470a565b5b60018516156143825780820291505b8081029050614390856147b5565b9450614357565b94509492505050565b60006143ab82614594565b91506143b68361459e565b92506143e37fffffffffffffffffffffffffffffffffffffffffffffffffffffffffffffffff84846143eb565b905092915050565b6000826143fb57600190506144b7565b8161440957600090506144b7565b816001811461441f576002811461442957614458565b60019150506144b7565b60ff84111561443b5761443a61470a565b5b8360020a9150848211156144525761445161470a565b5b506144b7565b5060208310610133831016604e8410600b841016171561448d5782820a9050838111156144885761448761470a565b5b6144b7565b61449a848484600161434d565b925090508184048111156144b1576144b061470a565b5b81810290505b9392505050565b60006144c982614594565b91506144d483614594565b9250817fffffffffffffffffffffffffffffffffffffffffffffffffffffffffffffffff048311821515161561450d5761450c61470a565b5b828202905092915050565b600061452382614594565b915061452e83614594565b9250828210156145415761454061470a565b5b828203905092915050565b600061455782614574565b9050919050565b60008115159050919050565b6000819050919050565b600073ffffffffffffffffffffffffffffffffffffffff82169050919050565b6000819050919050565b600060ff82169050919050565b60006145b6826145bd565b9050919050565b60006145c882614574565b9050919050565b60006145da826145e1565b9050919050565b60006145ec82614574565b9050919050565b60005b838110156146115780820151818401526020810190506145f6565b83811115614620576000848401525b50505050565b6000600282049050600182168061463e57607f821691505b6020821081141561465257614651614768565b5b50919050565b600061466382614594565b91507fffffffffffffffffffffffffffffffffffffffffffffffffffffffffffffffff8214156146965761469561470a565b5b600182019050919050565b60006146ac826146bd565b9050919050565b6000819050919050565b60006146c8826147a8565b9050919050565b6000819050919050565b60006146e482614594565b91506146ef83614594565b9250826146ff576146fe614739565b5b828206905092915050565b7f4e487b7100000000000000000000000000000000000000000000000000000000600052601160045260246000fd5b7f4e487b7100000000000000000000000000000000000000000000000000000000600052601260045260246000fd5b7f4e487b7100000000000000000000000000000000000000000000000000000000600052602260045260246000fd5b6000601f19601f8301169050919050565b60008160601b9050919050565b60008160011c9050919050565b6147cb8161454c565b81146147d657600080fd5b50565b6147e28161455e565b81146147ed57600080fd5b50565b6147f98161456a565b811461480457600080fd5b50565b61481081614594565b811461481b57600080fd5b5056fea264697066735822122024239d58ff258de054155905d2cdf219342a9d5845a25cac795507da905c11c564736f6c63430008000033",
  "immutableReferences": {
    "2195": [
      {
        "length": 32,
        "start": 10093
      },
      {
        "length": 32,
        "start": 11248
      }
    ],
    "2197": [
      {
        "length": 32,
        "start": 5917
      },
      {
        "length": 32,
        "start": 11308
      }
    ]
  },
  "source": "// SPDX-License-Identifier: MIT\r\npragma solidity ^0.8.0;\r\n\r\nimport \"@chainlink/contracts/src/v0.8/dev/VRFConsumerBase.sol\";\r\nimport \"./IDO.sol\";\r\n\r\nabstract contract Random is VRFConsumerBase {\r\n\r\n    bytes32 internal keyHash;\r\n    uint256 internal fee;\r\n    \r\n    bytes32 public reqId;\r\n    uint256 public randomResult;\r\n\r\n    bool isGeneratedOnce;\r\n    modifier once() {\r\n        require(!isGeneratedOnce, \"Already Generated Once\");\r\n        isGeneratedOnce = true;\r\n        _;\r\n    }\r\n\r\n    constructor () VRFConsumerBase (\r\n        0xb3dCcb4Cf7a26f6cf6B120Cf5A73875B7BBc655B, // VRF Coordinator\r\n        0x01BE23585060835E02B77ef475b0Cc51aA1e0709  // LINK Token\r\n    ) {\r\n        keyHash = 0x2ed0feb3e7fd2022120aa84fab1945545a9f2ffc9076fd6156fa96eaff4c1311;\r\n        fee = 100000000000000000; // 0.1 LINK\r\n    }\r\n\r\n    /** \r\n     * Requests randomness from a user-provided seed\r\n     */\r\n    function _getRandomNumber(uint256 userProvidedSeed) internal returns (bytes32 requestId) {\r\n        require(LINK.balanceOf(address(this)) >= fee, \"Not enough LINK - fill contract with faucet\");\r\n        return requestRandomness(keyHash, fee, userProvidedSeed);\r\n    }\r\n\r\n    /**\r\n     * Callback function used by VRF Coordinator\r\n     */\r\n    function fulfillRandomness(bytes32 requestId, uint256 randomness) internal override {\r\n        reqId = requestId;\r\n        randomResult = randomness;\r\n        _afterGeneration();\r\n    }\r\n\r\n    bool _isFulfilled = false;\r\n    function isFulfilled() public view returns(bool) {\r\n        return _isFulfilled;\r\n    }\r\n\r\n    // Generating Multiple Random Numbers From a Single One\r\n    function _randomList(uint256 _from, uint256 _to, uint256 _size) internal view returns(uint256[] memory rands) {\r\n\r\n        rands = new uint256[](_size);\r\n        uint256 r = randomResult;\r\n        uint256 len = _to - _from;\r\n        \r\n        require(len >= _size, \"Invalid Size\");\r\n\r\n        uint256 i = 251;\r\n        uint256 count = 0;\r\n\r\n        while(count < _size) {\r\n            uint256 rand = (r + i**2) % len + _from;\r\n            bool exists = false;\r\n\r\n            for(uint256 j = 0; j < count + 1; j++) {\r\n                if (rand == rands[j]) {\r\n                    exists = true;\r\n                    break;\r\n                }\r\n            }\r\n\r\n            if(!exists) {\r\n                rands[count] = rand;\r\n                count += 1;\r\n            }\r\n\r\n            i += 1;\r\n        }\r\n    }\r\n\r\n    // This will execute after generation of Random Number\r\n    function _afterGeneration() internal virtual;\r\n\r\n}\r\n\r\ncontract RaffleWrap is IDO, Random {\r\n\r\n    uint256 public ticketsSold; // No of tickets sold\r\n    mapping(uint256 => address) public ticketToOwner; // owner of a ticket\r\n    mapping(address => uint256) public addressToTicketCount; // No Of Tickets Owned By an Address\r\n    mapping(address => uint256[]) public addressToTicketsOwned; // Tickets That an address own\r\n    mapping(address => bool) public hasWonRaffle;\r\n\r\n    uint256 public constant RAFFLE_POOL = 2;\r\n    uint256 public constant ticketPrice = 3 * 10 ** 18; // Price of a ticket(no. of tokens)\r\n\r\n    modifier raffleParticipationPeriod() {\r\n        require(regStarts <= block.timestamp, \"Raffle: Participation Didn't Begin\");\r\n        require(regStarts + regDuration >= block.timestamp, \"Raffle: Participation Ended\");\r\n        _;\r\n    }\r\n\r\n    modifier raffleResultPeriod() {\r\n        require(regStarts + regDuration <= block.timestamp, \"Raffle: Participation Didn't End\");\r\n        require(saleStarts >= block.timestamp, \"Raffle: Out Of Time\");\r\n        _;\r\n    }\r\n\r\n    constructor (\r\n        address _stakerAddress,\r\n        address _nativeTokenAddress,\r\n        address _idoTokenAddress,\r\n        uint256 _idoAmount,\r\n        uint256 _price\r\n    ) IDO(\r\n        _stakerAddress,\r\n        _nativeTokenAddress,\r\n        _idoTokenAddress,\r\n        _idoAmount,\r\n        _price\r\n    ) {\r\n\r\n    }\r\n\r\n    \r\n    // Buy Tickets\r\n    function buyTickets(uint256 _noOfTickets) external raffleParticipationPeriod nonReentrant {\r\n        require(isRaffleEligible(msg.sender), \"Already Participated In IDO\");\r\n        uint256 nextTicket = ticketsSold;\r\n        nativeToken.transferFrom(msg.sender, owner(), _noOfTickets * ticketPrice);\r\n\r\n        for(uint256 i=0; i<_noOfTickets; i++) {\r\n            ticketToOwner[nextTicket + i] = msg.sender;\r\n            addressToTicketsOwned[msg.sender].push(nextTicket + i);\r\n        }\r\n\r\n        addressToTicketCount[msg.sender] += _noOfTickets;\r\n        ticketsSold += _noOfTickets;\r\n    }\r\n\r\n    // Check if Account Is Eligible For Raffle Or Not\r\n    function isRaffleEligible(address account) public view returns(bool) {\r\n        return !getRegistrationStatus(account) || getPoolNo(account) != RAFFLE_POOL;\r\n    }\r\n\r\n    function _raffleAllocation(address account) internal view override returns(uint256 tokens, uint256 price) {\r\n        tokens = price = 0;\r\n        if(hasWonRaffle[account]) {\r\n            (tokens, price) = tokensAndPriceByPoolNo(RAFFLE_POOL);\r\n        }\r\n    }\r\n\r\n    // Generates The Random Winners\r\n    function genRandom() external once raffleResultPeriod nonReentrant {\r\n        uint256 seed = uint256(keccak256(abi.encodePacked(msg.sender)));\r\n        _getRandomNumber(seed);\r\n    }\r\n\r\n    // Function Extended From Random Contract\r\n    function _afterGeneration() internal override {\r\n        _isFulfilled = true;\r\n        _executeRaffle();\r\n    }\r\n\r\n    // Raffle Entry For Winners\r\n    function _executeRaffle() internal {\r\n\r\n        address[] memory list = _getWinners();\r\n        for(uint256 i=0; i<list.length; i++) {\r\n            address account = list[i];\r\n            uint256 _poolNo = RAFFLE_POOL; // Raffle Entry Pool\r\n\r\n            if(!getRegistrationStatus(account)) _register(account, _poolNo);\r\n            else if(getPoolNo(account) != RAFFLE_POOL) {\r\n                hasWonRaffle[account] = true;\r\n                pools[_poolNo].participants++;\r\n            }\r\n        }\r\n    }\r\n\r\n    // Gets The Address Of The Winners\r\n    function _getWinners() internal view returns(address[] memory list) {\r\n        uint256 n = _noOfWinners(ticketsSold);\r\n        list = new address[](n);\r\n        uint256[] memory winners = _randomList(0, ticketsSold, n);\r\n\r\n        for(uint256 i=0; i<n; i++) {\r\n            address winner = ticketToOwner[winners[i]];\r\n            list[i] = winner;\r\n        }\r\n    }\r\n\r\n    function getWinners() external view returns(address[] memory) {\r\n        require(isFulfilled(), \"Winner Not Decided Yet\");\r\n        return _getWinners();\r\n    }\r\n\r\n    // Calculates The Number Of Winners\r\n    function _noOfWinners(uint256 _ticketsSold) internal pure returns(uint256) {\r\n        return _ticketsSold / 100 + 1;\r\n    }\r\n\r\n}",
  "sourcePath": "C:/Users/sudip/Desktop/RealProjects/PolyStarter/contracts/IDOStaker/RaffleWrap.sol",
  "compiler": {
    "name": "solc",
    "version": "0.8.0+commit.c7dfd78e.Emscripten.clang"
  },
  "schemaVersion": "3.3.4",
  "updatedAt": "2021-06-23T14:31:53.117Z",
  "devdoc": {
    "kind": "dev",
    "methods": {
      "owner()": {
        "details": "Returns the address of the current owner."
      },
      "renounceOwnership()": {
        "details": "Leaves the contract without owner. It will not be possible to call `onlyOwner` functions anymore. Can only be called by the current owner. NOTE: Renouncing ownership will leave the contract without an owner, thereby removing any functionality that is only available to the owner."
      },
      "transferOwnership(address)": {
        "details": "Transfers ownership of the contract to a new account (`newOwner`). Can only be called by the current owner."
      }
    },
    "version": 1
  },
  "userdoc": {
    "kind": "user",
    "methods": {},
    "version": 1
  }
}