{
  "contractName": "RaffleWrapTest",
  "abi": [
    {
      "inputs": [
        {
          "internalType": "address",
          "name": "_stakerAddress",
          "type": "address"
        },
        {
          "internalType": "address",
          "name": "_nativeTokenAddress",
          "type": "address"
        },
        {
          "internalType": "address",
          "name": "_idoTokenAddress",
          "type": "address"
        },
        {
          "internalType": "uint256",
          "name": "_idoAmount",
          "type": "uint256"
        },
        {
          "internalType": "uint256",
          "name": "_price",
          "type": "uint256"
        }
      ],
      "stateMutability": "nonpayable",
      "type": "constructor"
    },
    {
      "anonymous": false,
      "inputs": [
        {
          "indexed": false,
          "internalType": "uint256",
          "name": "regStart",
          "type": "uint256"
        },
        {
          "indexed": false,
          "internalType": "uint256",
          "name": "saleStart",
          "type": "uint256"
        }
      ],
      "name": "Initialization",
      "type": "event"
    },
    {
      "anonymous": false,
      "inputs": [
        {
          "indexed": true,
          "internalType": "address",
          "name": "previousOwner",
          "type": "address"
        },
        {
          "indexed": true,
          "internalType": "address",
          "name": "newOwner",
          "type": "address"
        }
      ],
      "name": "OwnershipTransferred",
      "type": "event"
    },
    {
      "anonymous": false,
      "inputs": [
        {
          "indexed": true,
          "internalType": "address",
          "name": "",
          "type": "address"
        },
        {
          "indexed": false,
          "internalType": "uint256",
          "name": "tokens",
          "type": "uint256"
        },
        {
          "indexed": false,
          "internalType": "uint256",
          "name": "price",
          "type": "uint256"
        }
      ],
      "name": "Purchase",
      "type": "event"
    },
    {
      "anonymous": false,
      "inputs": [
        {
          "indexed": true,
          "internalType": "address",
          "name": "account",
          "type": "address"
        },
        {
          "indexed": false,
          "internalType": "uint256",
          "name": "poolNo",
          "type": "uint256"
        }
      ],
      "name": "Registration",
      "type": "event"
    },
    {
      "inputs": [
        {
          "internalType": "address",
          "name": "",
          "type": "address"
        }
      ],
      "name": "addressToTicketCount",
      "outputs": [
        {
          "internalType": "uint256",
          "name": "",
          "type": "uint256"
        }
      ],
      "stateMutability": "view",
      "type": "function"
    },
    {
      "inputs": [
        {
          "internalType": "address",
          "name": "",
          "type": "address"
        },
        {
          "internalType": "uint256",
          "name": "",
          "type": "uint256"
        }
      ],
      "name": "addressToTicketsOwned",
      "outputs": [
        {
          "internalType": "uint256",
          "name": "",
          "type": "uint256"
        }
      ],
      "stateMutability": "view",
      "type": "function"
    },
    {
      "inputs": [],
      "name": "buyNow",
      "outputs": [],
      "stateMutability": "payable",
      "type": "function"
    },
    {
      "inputs": [
        {
          "internalType": "address",
          "name": "account",
          "type": "address"
        }
      ],
      "name": "getPoolNo",
      "outputs": [
        {
          "internalType": "uint256",
          "name": "",
          "type": "uint256"
        }
      ],
      "stateMutability": "view",
      "type": "function"
    },
    {
      "inputs": [
        {
          "internalType": "address",
          "name": "account",
          "type": "address"
        }
      ],
      "name": "getRegistrationStatus",
      "outputs": [
        {
          "internalType": "bool",
          "name": "",
          "type": "bool"
        }
      ],
      "stateMutability": "view",
      "type": "function"
    },
    {
      "inputs": [],
      "name": "iStaker",
      "outputs": [
        {
          "internalType": "contract IStaker",
          "name": "",
          "type": "address"
        }
      ],
      "stateMutability": "view",
      "type": "function"
    },
    {
      "inputs": [],
      "name": "idoToken",
      "outputs": [
        {
          "internalType": "contract IERC20Metadata",
          "name": "",
          "type": "address"
        }
      ],
      "stateMutability": "view",
      "type": "function"
    },
    {
      "inputs": [],
      "name": "idoTokenSum",
      "outputs": [
        {
          "internalType": "uint256",
          "name": "",
          "type": "uint256"
        }
      ],
      "stateMutability": "view",
      "type": "function"
    },
    {
      "inputs": [],
      "name": "idoTotalPrice",
      "outputs": [
        {
          "internalType": "uint256",
          "name": "",
          "type": "uint256"
        }
      ],
      "stateMutability": "view",
      "type": "function"
    },
    {
      "inputs": [
        {
          "internalType": "uint256",
          "name": "time",
          "type": "uint256"
        }
      ],
      "name": "initialize",
      "outputs": [],
      "stateMutability": "nonpayable",
      "type": "function"
    },
    {
      "inputs": [],
      "name": "isFulfilled",
      "outputs": [
        {
          "internalType": "bool",
          "name": "",
          "type": "bool"
        }
      ],
      "stateMutability": "view",
      "type": "function"
    },
    {
      "inputs": [],
      "name": "isInitialized",
      "outputs": [
        {
          "internalType": "bool",
          "name": "",
          "type": "bool"
        }
      ],
      "stateMutability": "view",
      "type": "function"
    },
    {
      "inputs": [],
      "name": "lockDuration",
      "outputs": [
        {
          "internalType": "uint256",
          "name": "",
          "type": "uint256"
        }
      ],
      "stateMutability": "view",
      "type": "function"
    },
    {
      "inputs": [],
      "name": "nativeToken",
      "outputs": [
        {
          "internalType": "contract IERC20Metadata",
          "name": "",
          "type": "address"
        }
      ],
      "stateMutability": "view",
      "type": "function"
    },
    {
      "inputs": [],
      "name": "owner",
      "outputs": [
        {
          "internalType": "address",
          "name": "",
          "type": "address"
        }
      ],
      "stateMutability": "view",
      "type": "function"
    },
    {
      "inputs": [
        {
          "internalType": "uint256",
          "name": "",
          "type": "uint256"
        }
      ],
      "name": "pools",
      "outputs": [
        {
          "internalType": "string",
          "name": "name",
          "type": "string"
        },
        {
          "internalType": "uint256",
          "name": "minNativeToken",
          "type": "uint256"
        },
        {
          "internalType": "uint256",
          "name": "weight",
          "type": "uint256"
        },
        {
          "internalType": "uint256",
          "name": "participants",
          "type": "uint256"
        }
      ],
      "stateMutability": "view",
      "type": "function"
    },
    {
      "inputs": [],
      "name": "randomResult",
      "outputs": [
        {
          "internalType": "uint256",
          "name": "",
          "type": "uint256"
        }
      ],
      "stateMutability": "view",
      "type": "function"
    },
    {
      "inputs": [
        {
          "internalType": "bytes32",
          "name": "requestId",
          "type": "bytes32"
        },
        {
          "internalType": "uint256",
          "name": "randomness",
          "type": "uint256"
        }
      ],
      "name": "rawFulfillRandomness",
      "outputs": [],
      "stateMutability": "nonpayable",
      "type": "function"
    },
    {
      "inputs": [
        {
          "internalType": "address",
          "name": "tokenAddress",
          "type": "address"
        },
        {
          "internalType": "address",
          "name": "to",
          "type": "address"
        }
      ],
      "name": "recoverERC20",
      "outputs": [],
      "stateMutability": "nonpayable",
      "type": "function"
    },
    {
      "inputs": [
        {
          "internalType": "address",
          "name": "to",
          "type": "address"
        }
      ],
      "name": "recoverEth",
      "outputs": [],
      "stateMutability": "nonpayable",
      "type": "function"
    },
    {
      "inputs": [],
      "name": "regDuration",
      "outputs": [
        {
          "internalType": "uint256",
          "name": "",
          "type": "uint256"
        }
      ],
      "stateMutability": "view",
      "type": "function"
    },
    {
      "inputs": [],
      "name": "regStarts",
      "outputs": [
        {
          "internalType": "uint256",
          "name": "",
          "type": "uint256"
        }
      ],
      "stateMutability": "view",
      "type": "function"
    },
    {
      "inputs": [
        {
          "internalType": "uint256",
          "name": "_poolNo",
          "type": "uint256"
        }
      ],
      "name": "register",
      "outputs": [],
      "stateMutability": "nonpayable",
      "type": "function"
    },
    {
      "inputs": [],
      "name": "renounceOwnership",
      "outputs": [],
      "stateMutability": "nonpayable",
      "type": "function"
    },
    {
      "inputs": [],
      "name": "reqId",
      "outputs": [
        {
          "internalType": "bytes32",
          "name": "",
          "type": "bytes32"
        }
      ],
      "stateMutability": "view",
      "type": "function"
    },
    {
      "inputs": [],
      "name": "saleDuration",
      "outputs": [
        {
          "internalType": "uint256",
          "name": "",
          "type": "uint256"
        }
      ],
      "stateMutability": "view",
      "type": "function"
    },
    {
      "inputs": [],
      "name": "saleStarts",
      "outputs": [
        {
          "internalType": "uint256",
          "name": "",
          "type": "uint256"
        }
      ],
      "stateMutability": "view",
      "type": "function"
    },
    {
      "inputs": [],
      "name": "saleStartsAfter",
      "outputs": [
        {
          "internalType": "uint256",
          "name": "",
          "type": "uint256"
        }
      ],
      "stateMutability": "view",
      "type": "function"
    },
    {
      "inputs": [],
      "name": "ticketPrice",
      "outputs": [
        {
          "internalType": "uint256",
          "name": "",
          "type": "uint256"
        }
      ],
      "stateMutability": "view",
      "type": "function"
    },
    {
      "inputs": [
        {
          "internalType": "uint256",
          "name": "",
          "type": "uint256"
        }
      ],
      "name": "ticketToOwner",
      "outputs": [
        {
          "internalType": "address",
          "name": "",
          "type": "address"
        }
      ],
      "stateMutability": "view",
      "type": "function"
    },
    {
      "inputs": [],
      "name": "ticketsSold",
      "outputs": [
        {
          "internalType": "uint256",
          "name": "",
          "type": "uint256"
        }
      ],
      "stateMutability": "view",
      "type": "function"
    },
    {
      "inputs": [
        {
          "internalType": "uint256",
          "name": "_poolNo",
          "type": "uint256"
        }
      ],
      "name": "tokensAndPriceByPoolNo",
      "outputs": [
        {
          "internalType": "uint256",
          "name": "",
          "type": "uint256"
        },
        {
          "internalType": "uint256",
          "name": "",
          "type": "uint256"
        }
      ],
      "stateMutability": "view",
      "type": "function"
    },
    {
      "inputs": [],
      "name": "totalWeight",
      "outputs": [
        {
          "internalType": "uint256",
          "name": "",
          "type": "uint256"
        }
      ],
      "stateMutability": "view",
      "type": "function"
    },
    {
      "inputs": [
        {
          "internalType": "address",
          "name": "newOwner",
          "type": "address"
        }
      ],
      "name": "transferOwnership",
      "outputs": [],
      "stateMutability": "nonpayable",
      "type": "function"
    },
    {
      "inputs": [],
      "name": "unit",
      "outputs": [
        {
          "internalType": "uint256",
          "name": "",
          "type": "uint256"
        }
      ],
      "stateMutability": "view",
      "type": "function"
    },
    {
      "inputs": [
        {
          "internalType": "address",
          "name": "",
          "type": "address"
        }
      ],
      "name": "userlog",
      "outputs": [
        {
          "internalType": "bool",
          "name": "isRegistered",
          "type": "bool"
        },
        {
          "internalType": "uint256",
          "name": "registeredPool",
          "type": "uint256"
        },
        {
          "internalType": "bool",
          "name": "purchased",
          "type": "bool"
        }
      ],
      "stateMutability": "view",
      "type": "function"
    },
    {
      "inputs": [
        {
          "internalType": "uint256",
          "name": "_noOfTickets",
          "type": "uint256"
        }
      ],
      "name": "buyTickets",
      "outputs": [],
      "stateMutability": "nonpayable",
      "type": "function"
    },
    {
      "inputs": [],
      "name": "genRandom",
      "outputs": [],
      "stateMutability": "nonpayable",
      "type": "function"
    },
    {
      "inputs": [
        {
          "internalType": "bytes32",
          "name": "requestId",
          "type": "bytes32"
        },
        {
          "internalType": "uint256",
          "name": "randomness",
          "type": "uint256"
        }
      ],
      "name": "fulfillTest",
      "outputs": [],
      "stateMutability": "nonpayable",
      "type": "function"
    }
  ],
  "bytecode": "0x60c06040526000601260016101000a81548160ff0219169083151502179055506729a2241af62c00006017553480156200003857600080fd5b50604051620050dd380380620050dd83398181016040528101906200005e91906200099a565b738c7382f9d8f56b33781fe506e897a4f1e2d1725573326c977e6efc84e512bb9c30f76e30c160ed06fb868686868660006200009f6200089d60201b60201c565b9050806000806101000a81548173ffffffffffffffffffffffffffffffffffffffff021916908373ffffffffffffffffffffffffffffffffffffffff1602179055508073ffffffffffffffffffffffffffffffffffffffff16600073ffffffffffffffffffffffffffffffffffffffff167f8be0079c531659141344cd1fd0a4f28419497f9722a3daafe3b4186f6b6457e060405160405180910390a3506001808190555084600260006101000a81548173ffffffffffffffffffffffffffffffffffffffff021916908373ffffffffffffffffffffffffffffffffffffffff16021790555083600360006101000a81548173ffffffffffffffffffffffffffffffffffffffff021916908373ffffffffffffffffffffffffffffffffffffffff16021790555082600460006101000a81548173ffffffffffffffffffffffffffffffffffffffff021916908373ffffffffffffffffffffffffffffffffffffffff16021790555081600581905550806006819055506000600360009054906101000a900473ffffffffffffffffffffffffffffffffffffffff1673ffffffffffffffffffffffffffffffffffffffff1663313ce5676040518163ffffffff1660e01b815260040160206040518083038186803b1580156200028057600080fd5b505afa15801562000295573d6000803e3d6000fd5b505050506040513d601f19601f82011682018060405250810190620002bb919062000a1c565b60ff169050600b60405180608001604052806040518060400160405280600481526020017f4e756c6c000000000000000000000000000000000000000000000000000000008152508152602001600081526020016000815260200160008152509080600181540180825580915050600190039060005260206000209060040201600090919091909150600082015181600001908051906020019062000362929190620008a5565b506020820151816001015560408201518160020155606082015181600301555050600b60405180608001604052806040518060400160405280600681526020017f4b6e696768740000000000000000000000000000000000000000000000000000815250815260200183600a620003da919062000aa3565b6064620003e8919062000be0565b81526020016002815260200160008152509080600181540180825580915050600190039060005260206000209060040201600090919091909150600082015181600001908051906020019062000440929190620008a5565b506020820151816001015560408201518160020155606082015181600301555050600b60405180608001604052806040518060400160405280600681526020017f426973686f700000000000000000000000000000000000000000000000000000815250815260200183600a620004b8919062000aa3565b6101f4620004c7919062000be0565b8152602001600381526020016000815250908060018154018082558091505060019003906000526020600020906004020160009091909190915060008201518160000190805190602001906200051f929190620008a5565b506020820151816001015560408201518160020155606082015181600301555050600b60405180608001604052806040518060400160405280600481526020017f526f6f6b00000000000000000000000000000000000000000000000000000000815250815260200183600a62000597919062000aa3565b6103e8620005a6919062000be0565b815260200160048152602001600081525090806001815401808255809150506001900390600052602060002090600402016000909190919091506000820151816000019080519060200190620005fe929190620008a5565b506020820151816001015560408201518160020155606082015181600301555050600b60405180608001604052806040518060400160405280600481526020017f4b696e6700000000000000000000000000000000000000000000000000000000815250815260200183600a62000676919062000aa3565b6107d062000685919062000be0565b815260200160058152602001600081525090806001815401808255809150506001900390600052602060002090600402016000909190919091506000820151816000019080519060200190620006dd929190620008a5565b506020820151816001015560408201518160020155606082015181600301555050600b60405180608001604052806040518060400160405280600581526020017f517565656e000000000000000000000000000000000000000000000000000000815250815260200183600a62000755919062000aa3565b610fa062000764919062000be0565b815260200160068152602001600081525090806001815401808255809150506001900390600052602060002090600402016000909190919091506000820151816000019080519060200190620007bc929190620008a5565b5060208201518160010155604082015181600201556060820151816003015550506014600c819055505050505050508173ffffffffffffffffffffffffffffffffffffffff1660a08173ffffffffffffffffffffffffffffffffffffffff1660601b815250508073ffffffffffffffffffffffffffffffffffffffff1660808173ffffffffffffffffffffffffffffffffffffffff1660601b8152505050507f6e75b569a01ef56d18cab6a8e71e6600d6ce853834d4a5748b720d06f878b3a460001b600e81905550655af3107a4000600f81905550505050505062000d7b565b600033905090565b828054620008b39062000c8c565b90600052602060002090601f016020900481019282620008d7576000855562000923565b82601f10620008f257805160ff191683800117855562000923565b8280016001018555821562000923579182015b828111156200092257825182559160200191906001019062000905565b5b50905062000932919062000936565b5090565b5b808211156200095157600081600090555060010162000937565b5090565b600081519050620009668162000d2d565b92915050565b6000815190506200097d8162000d47565b92915050565b600081519050620009948162000d61565b92915050565b600080600080600060a08688031215620009b357600080fd5b6000620009c38882890162000955565b9550506020620009d68882890162000955565b9450506040620009e98882890162000955565b9350506060620009fc888289016200096c565b925050608062000a0f888289016200096c565b9150509295509295909350565b60006020828403121562000a2f57600080fd5b600062000a3f8482850162000983565b91505092915050565b6000808291508390505b600185111562000a9a5780860481111562000a725762000a7162000cc2565b5b600185161562000a825780820291505b808102905062000a928562000d20565b945062000a52565b94509492505050565b600062000ab08262000c75565b915062000abd8362000c75565b925062000aec7fffffffffffffffffffffffffffffffffffffffffffffffffffffffffffffffff848462000af4565b905092915050565b60008262000b06576001905062000bd9565b8162000b16576000905062000bd9565b816001811462000b2f576002811462000b3a5762000b70565b600191505062000bd9565b60ff84111562000b4f5762000b4e62000cc2565b5b8360020a91508482111562000b695762000b6862000cc2565b5b5062000bd9565b5060208310610133831016604e8410600b841016171562000baa5782820a90508381111562000ba45762000ba362000cc2565b5b62000bd9565b62000bb9848484600162000a48565b9250905081840481111562000bd35762000bd262000cc2565b5b81810290505b9392505050565b600062000bed8262000c75565b915062000bfa8362000c75565b9250817fffffffffffffffffffffffffffffffffffffffffffffffffffffffffffffffff048311821515161562000c365762000c3562000cc2565b5b828202905092915050565b600062000c4e8262000c55565b9050919050565b600073ffffffffffffffffffffffffffffffffffffffff82169050919050565b6000819050919050565b600060ff82169050919050565b6000600282049050600182168062000ca557607f821691505b6020821081141562000cbc5762000cbb62000cf1565b5b50919050565b7f4e487b7100000000000000000000000000000000000000000000000000000000600052601160045260246000fd5b7f4e487b7100000000000000000000000000000000000000000000000000000000600052602260045260246000fd5b60008160011c9050919050565b62000d388162000c41565b811462000d4457600080fd5b50565b62000d528162000c75565b811462000d5e57600080fd5b50565b62000d6c8162000c7f565b811462000d7857600080fd5b50565b60805160601c60a05160601c61432862000db56000396000818161144b015261276a0152600081816124b3015261272e01526143286000f3fe6080604052600436106102305760003560e01c8063907af6c01161012e578063c4f34fab116100ab578063efad76da1161006f578063efad76da1461082e578063f207564e14610859578063f2fde38b14610882578063f3f40af2146108ab578063fe4b84df146108d657610230565b8063c4f34fab14610759578063d0f4b44714610784578063d6cd82bc146107ad578063e1758bd8146107d8578063e76eda861461080357610230565b8063a158226d116100f2578063a158226d1461065b578063a25dd13014610686578063a8af4ff5146106b1578063ac4afa38146106ee578063b6ba81141461072e57610230565b8063907af6c01461059557806394985ddd146105c057806396c82e57146105e95780639c3962f0146106145780639e6e9d0f1461061e57610230565b806351622cd0116101bc578063886f039a11610180578063886f039a146104ad5780638997ce4e146104d65780638da5cb5b146105015780638f15024f1461052c5780638f666ecf1461055757610230565b806351622cd0146103dc57806366a30cb614610419578063715018a6146104305780637504db3e146104475780637acaea9b1461047057610230565b80633711d9fb116102035780633711d9fb146102f1578063385a9c371461031c578063392e53cd1461034757806342619f661461037257806345a28e061461039d57610230565b806304554443146102355780631209b1f6146102605780632b08e8241461028b5780632f366637146102c8575b600080fd5b34801561024157600080fd5b5061024a6108ff565b6040516102579190613d13565b60405180910390f35b34801561026c57600080fd5b50610275610911565b6040516102829190613d13565b60405180910390f35b34801561029757600080fd5b506102b260048036038101906102ad9190612ef2565b610917565b6040516102bf91906137bd565b60405180910390f35b3480156102d457600080fd5b506102ef60048036038101906102ea9190612ef2565b61094a565b005b3480156102fd57600080fd5b50610306610cb8565b6040516103139190613d13565b60405180910390f35b34801561032857600080fd5b50610331610cca565b60405161033e9190613876565b60405180910390f35b34801561035357600080fd5b5061035c610ce1565b6040516103699190613876565b60405180910390f35b34801561037e57600080fd5b50610387610cf4565b6040516103949190613d13565b60405180910390f35b3480156103a957600080fd5b506103c460048036038101906103bf9190612dec565b610cfa565b6040516103d393929190613891565b60405180910390f35b3480156103e857600080fd5b5061040360048036038101906103fe9190612dec565b610d3e565b6040516104109190613d13565b60405180910390f35b34801561042557600080fd5b5061042e610d56565b005b34801561043c57600080fd5b50610445610ef4565b005b34801561045357600080fd5b5061046e60048036038101906104699190612dec565b61102e565b005b34801561047c57600080fd5b5061049760048036038101906104929190612e51565b61115a565b6040516104a49190613d13565b60405180910390f35b3480156104b957600080fd5b506104d460048036038101906104cf9190612e15565b61118b565b005b3480156104e257600080fd5b506104eb611327565b6040516104f891906138c8565b60405180910390f35b34801561050d57600080fd5b5061051661132d565b60405161052391906137bd565b60405180910390f35b34801561053857600080fd5b50610541611356565b60405161054e9190613d13565b60405180910390f35b34801561056357600080fd5b5061057e60048036038101906105799190612ef2565b61135c565b60405161058c929190613d2e565b60405180910390f35b3480156105a157600080fd5b506105aa611443565b6040516105b79190613d13565b60405180910390f35b3480156105cc57600080fd5b506105e760048036038101906105e29190612eb6565b611449565b005b3480156105f557600080fd5b506105fe6114e5565b60405161060b9190613d13565b60405180910390f35b61061c6114eb565b005b34801561062a57600080fd5b5061064560048036038101906106409190612dec565b61192c565b6040516106529190613d13565b60405180910390f35b34801561066757600080fd5b50610670611978565b60405161067d9190613d13565b60405180910390f35b34801561069257600080fd5b5061069b61197e565b6040516106a89190613d13565b60405180910390f35b3480156106bd57600080fd5b506106d860048036038101906106d39190612dec565b611990565b6040516106e59190613876565b60405180910390f35b3480156106fa57600080fd5b5061071560048036038101906107109190612ef2565b6119e9565b6040516107259493929190613987565b60405180910390f35b34801561073a57600080fd5b50610743611ab1565b6040516107509190613d13565b60405180910390f35b34801561076557600080fd5b5061076e611ab7565b60405161077b919061396c565b60405180910390f35b34801561079057600080fd5b506107ab60048036038101906107a69190612eb6565b611add565b005b3480156107b957600080fd5b506107c2611bf9565b6040516107cf9190613951565b60405180910390f35b3480156107e457600080fd5b506107ed611c1f565b6040516107fa9190613951565b60405180910390f35b34801561080f57600080fd5b50610818611c45565b6040516108259190613d13565b60405180910390f35b34801561083a57600080fd5b50610843611c70565b6040516108509190613d13565b60405180910390f35b34801561086557600080fd5b50610880600480360381019061087b9190612ef2565b611c76565b005b34801561088e57600080fd5b506108a960048036038101906108a49190612dec565b612062565b005b3480156108b757600080fd5b506108c061220b565b6040516108cd9190613d13565b60405180910390f35b3480156108e257600080fd5b506108fd60048036038101906108f89190612ef2565b612211565b005b610e1060a861090e9190613f92565b81565b60175481565b60146020528060005260406000206000915054906101000a900473ffffffffffffffffffffffffffffffffffffffff1681565b42600754111561098f576040517f08c379a000000000000000000000000000000000000000000000000000000000815260040161098690613bb3565b60405180910390fd5b42610e10603061099f9190613f92565b6007546109ac9190613d9a565b10156109ed576040517f08c379a00000000000000000000000000000000000000000000000000000000081526004016109e490613c13565b60405180910390fd5b60026001541415610a33576040517f08c379a0000000000000000000000000000000000000000000000000000000008152600401610a2a90613cd3565b60405180910390fd5b6002600181905550610a4433611990565b15610a84576040517f08c379a0000000000000000000000000000000000000000000000000000000008152600401610a7b906139f3565b60405180910390fd5b60006013549050600360009054906101000a900473ffffffffffffffffffffffffffffffffffffffff1673ffffffffffffffffffffffffffffffffffffffff166323b872dd33610ad261132d565b60175486610ae09190613f92565b6040518463ffffffff1660e01b8152600401610afe939291906137d8565b602060405180830381600087803b158015610b1857600080fd5b505af1158015610b2c573d6000803e3d6000fd5b505050506040513d601f19601f82011682018060405250810190610b509190612e8d565b5060005b82811015610c3d5733601460008385610b6d9190613d9a565b815260200190815260200160002060006101000a81548173ffffffffffffffffffffffffffffffffffffffff021916908373ffffffffffffffffffffffffffffffffffffffff160217905550601660003373ffffffffffffffffffffffffffffffffffffffff1673ffffffffffffffffffffffffffffffffffffffff1681526020019081526020016000208183610c049190613d9a565b90806001815401808255809150506001900390600052602060002001600090919091909150558080610c359061412c565b915050610b54565b5081601560003373ffffffffffffffffffffffffffffffffffffffff1673ffffffffffffffffffffffffffffffffffffffff1681526020019081526020016000206000828254610c8d9190613d9a565b925050819055508160136000828254610ca69190613d9a565b92505081905550506001808190555050565b610e10600c610cc79190613f92565b81565b6000601260019054906101000a900460ff16905090565b600a60009054906101000a900460ff1681565b60115481565b60096020528060005260406000206000915090508060000160009054906101000a900460ff16908060010154908060020160009054906101000a900460ff16905083565b60156020528060005260406000206000915090505481565b601260009054906101000a900460ff1615610da6576040517f08c379a0000000000000000000000000000000000000000000000000000000008152600401610d9d90613a53565b60405180910390fd5b6001601260006101000a81548160ff02191690831515021790555042610e106030610dd19190613f92565b600754610dde9190613d9a565b1115610e1f576040517f08c379a0000000000000000000000000000000000000000000000000000000008152600401610e1690613b53565b60405180910390fd5b426008541015610e64576040517f08c379a0000000000000000000000000000000000000000000000000000000008152600401610e5b90613a73565b60405180910390fd5b60026001541415610eaa576040517f08c379a0000000000000000000000000000000000000000000000000000000008152600401610ea190613cd3565b60405180910390fd5b6002600181905550600033604051602001610ec59190613761565b6040516020818303038152906040528051906020012060001c9050610ee9816124ac565b505060018081905550565b610efc6125b1565b73ffffffffffffffffffffffffffffffffffffffff16610f1a61132d565b73ffffffffffffffffffffffffffffffffffffffff1614610f70576040517f08c379a0000000000000000000000000000000000000000000000000000000008152600401610f6790613bf3565b60405180910390fd5b600073ffffffffffffffffffffffffffffffffffffffff1660008054906101000a900473ffffffffffffffffffffffffffffffffffffffff1673ffffffffffffffffffffffffffffffffffffffff167f8be0079c531659141344cd1fd0a4f28419497f9722a3daafe3b4186f6b6457e060405160405180910390a360008060006101000a81548173ffffffffffffffffffffffffffffffffffffffff021916908373ffffffffffffffffffffffffffffffffffffffff160217905550565b6110366125b1565b73ffffffffffffffffffffffffffffffffffffffff1661105461132d565b73ffffffffffffffffffffffffffffffffffffffff16146110aa576040517f08c379a00000000000000000000000000000000000000000000000000000000081526004016110a190613bf3565b60405180910390fd5b60008173ffffffffffffffffffffffffffffffffffffffff16476040516110d0906137a8565b60006040518083038185875af1925050503d806000811461110d576040519150601f19603f3d011682016040523d82523d6000602084013e611112565b606091505b5050905080611156576040517f08c379a000000000000000000000000000000000000000000000000000000000815260040161114d90613b73565b60405180910390fd5b5050565b6016602052816000526040600020818154811061117657600080fd5b90600052602060002001600091509150505481565b6111936125b1565b73ffffffffffffffffffffffffffffffffffffffff166111b161132d565b73ffffffffffffffffffffffffffffffffffffffff1614611207576040517f08c379a00000000000000000000000000000000000000000000000000000000081526004016111fe90613bf3565b60405180910390fd5b60008290508073ffffffffffffffffffffffffffffffffffffffff1663a9059cbb838373ffffffffffffffffffffffffffffffffffffffff166370a08231306040518263ffffffff1660e01b815260040161126291906137bd565b60206040518083038186803b15801561127a57600080fd5b505afa15801561128e573d6000803e3d6000fd5b505050506040513d601f19601f820116820180604052508101906112b29190612f1b565b6040518363ffffffff1660e01b81526004016112cf92919061380f565b602060405180830381600087803b1580156112e957600080fd5b505af11580156112fd573d6000803e3d6000fd5b505050506040513d601f19601f820116820180604052508101906113219190612e8d565b50505050565b60105481565b60008060009054906101000a900473ffffffffffffffffffffffffffffffffffffffff16905090565b60135481565b6000806000600b848154811061139b577f4e487b7100000000000000000000000000000000000000000000000000000000600052603260045260246000fd5b9060005260206000209060040201905060008414806113be575060008160030154145b156113d057600080925092505061143e565b60008160030154600c546113e49190613f92565b82600201546005546113f69190613f92565b6114009190613df0565b905060008260030154600c546114169190613f92565b83600201546006546114289190613f92565b6114329190613df0565b90508181945094505050505b915091565b610e1081565b7f000000000000000000000000000000000000000000000000000000000000000073ffffffffffffffffffffffffffffffffffffffff163373ffffffffffffffffffffffffffffffffffffffff16146114d7576040517f08c379a00000000000000000000000000000000000000000000000000000000081526004016114ce90613c33565b60405180910390fd5b6114e182826125b9565b5050565b600c5481565b6000429050600a60009054906101000a900460ff1661153f576040517f08c379a000000000000000000000000000000000000000000000000000000000815260040161153690613cf3565b60405180910390fd5b600960003373ffffffffffffffffffffffffffffffffffffffff1673ffffffffffffffffffffffffffffffffffffffff16815260200190815260200160002060000160009054906101000a900460ff166115ce576040517f08c379a00000000000000000000000000000000000000000000000000000000081526004016115c590613a13565b60405180910390fd5b600960003373ffffffffffffffffffffffffffffffffffffffff1673ffffffffffffffffffffffffffffffffffffffff16815260200190815260200160002060020160009054906101000a900460ff161561165e576040517f08c379a000000000000000000000000000000000000000000000000000000000815260040161165590613b13565b60405180910390fd5b806008541115801561168b5750610e10600c61167a9190613f92565b6008546116879190613d9a565b8111155b6116ca576040517f08c379a00000000000000000000000000000000000000000000000000000000081526004016116c190613cb3565b60405180910390fd5b60026001541415611710576040517f08c379a000000000000000000000000000000000000000000000000000000000815260040161170790613cd3565b60405180910390fd5b60026001819055506000600960003373ffffffffffffffffffffffffffffffffffffffff1673ffffffffffffffffffffffffffffffffffffffff168152602001908152602001600020905060008061176b836001015461135c565b9150915060008114158015611781575060008214155b6117c0576040517f08c379a00000000000000000000000000000000000000000000000000000000081526004016117b790613c53565b60405180910390fd5b348114611802576040517f08c379a00000000000000000000000000000000000000000000000000000000081526004016117f9906139d3565b60405180910390fd5b60018360020160006101000a81548160ff021916908315150217905550600460009054906101000a900473ffffffffffffffffffffffffffffffffffffffff1673ffffffffffffffffffffffffffffffffffffffff1663a9059cbb33846040518363ffffffff1660e01b815260040161187c92919061380f565b602060405180830381600087803b15801561189657600080fd5b505af11580156118aa573d6000803e3d6000fd5b505050506040513d601f19601f820116820180604052508101906118ce9190612e8d565b503373ffffffffffffffffffffffffffffffffffffffff167f12cb4648cf3058b17ceeb33e579f8b0bc269fe0843f3900b8e24b6c54871703c8383604051611917929190613d2e565b60405180910390a25050506001808190555050565b6000600960008373ffffffffffffffffffffffffffffffffffffffff1673ffffffffffffffffffffffffffffffffffffffff168152602001908152602001600020600101549050919050565b60075481565b610e10603061198d9190613f92565b81565b6000600960008373ffffffffffffffffffffffffffffffffffffffff1673ffffffffffffffffffffffffffffffffffffffff16815260200190815260200160002060000160009054906101000a900460ff169050919050565b600b81815481106119f957600080fd5b9060005260206000209060040201600091509050806000018054611a1c906140fa565b80601f0160208091040260200160405190810160405280929190818152602001828054611a48906140fa565b8015611a955780601f10611a6a57610100808354040283529160200191611a95565b820191906000526020600020905b815481529060010190602001808311611a7857829003601f168201915b5050505050908060010154908060020154908060030154905084565b60055481565b600260009054906101000a900473ffffffffffffffffffffffffffffffffffffffff1681565b601260009054906101000a900460ff1615611b2d576040517f08c379a0000000000000000000000000000000000000000000000000000000008152600401611b2490613a53565b60405180910390fd5b6001601260006101000a81548160ff02191690831515021790555042610e106030611b589190613f92565b600754611b659190613d9a565b1115611ba6576040517f08c379a0000000000000000000000000000000000000000000000000000000008152600401611b9d90613b53565b60405180910390fd5b426008541015611beb576040517f08c379a0000000000000000000000000000000000000000000000000000000008152600401611be290613a73565b60405180910390fd5b611bf582826125b9565b5050565b600460009054906101000a900473ffffffffffffffffffffffffffffffffffffffff1681565b600360009054906101000a900473ffffffffffffffffffffffffffffffffffffffff1681565b610e106018611c549190613f92565b610e106030611c639190613f92565b611c6d9190613d9a565b81565b60065481565b6000429050600a60009054906101000a900460ff16611cca576040517f08c379a0000000000000000000000000000000000000000000000000000000008152600401611cc190613cf3565b60405180910390fd5b600960003373ffffffffffffffffffffffffffffffffffffffff1673ffffffffffffffffffffffffffffffffffffffff16815260200190815260200160002060000160009054906101000a900460ff1615611d5a576040517f08c379a0000000000000000000000000000000000000000000000000000000008152600401611d5190613a93565b60405180910390fd5b8060075411158015611d875750610e106030611d769190613f92565b600754611d839190613d9a565b8111155b611dc6576040517f08c379a0000000000000000000000000000000000000000000000000000000008152600401611dbd90613c93565b60405180910390fd5b8180600111158015611dd9575060058111155b611e18576040517f08c379a0000000000000000000000000000000000000000000000000000000008152600401611e0f90613ab3565b60405180910390fd5b6000600260009054906101000a900473ffffffffffffffffffffffffffffffffffffffff1673ffffffffffffffffffffffffffffffffffffffff166360217267336040518263ffffffff1660e01b8152600401611e7591906137bd565b60206040518083038186803b158015611e8d57600080fd5b505afa158015611ea1573d6000803e3d6000fd5b505050506040513d601f19601f82011682018060405250810190611ec59190612f1b565b905080600b8381548110611f02577f4e487b7100000000000000000000000000000000000000000000000000000000600052603260045260246000fd5b9060005260206000209060040201600101541115611f55576040517f08c379a0000000000000000000000000000000000000000000000000000000008152600401611f4c90613b33565b60405180910390fd5b60026001541415611f9b576040517f08c379a0000000000000000000000000000000000000000000000000000000008152600401611f9290613cd3565b60405180910390fd5b6002600181905550600260009054906101000a900473ffffffffffffffffffffffffffffffffffffffff1673ffffffffffffffffffffffffffffffffffffffff1663282d3fdf33610e1060a8611ff19190613f92565b42611ffc9190613d9a565b6040518363ffffffff1660e01b815260040161201992919061380f565b600060405180830381600087803b15801561203357600080fd5b505af1158015612047573d6000803e3d6000fd5b5050505061205533856125d3565b6001808190555050505050565b61206a6125b1565b73ffffffffffffffffffffffffffffffffffffffff1661208861132d565b73ffffffffffffffffffffffffffffffffffffffff16146120de576040517f08c379a00000000000000000000000000000000000000000000000000000000081526004016120d590613bf3565b60405180910390fd5b600073ffffffffffffffffffffffffffffffffffffffff168173ffffffffffffffffffffffffffffffffffffffff16141561214e576040517f08c379a000000000000000000000000000000000000000000000000000000000815260040161214590613a33565b60405180910390fd5b8073ffffffffffffffffffffffffffffffffffffffff1660008054906101000a900473ffffffffffffffffffffffffffffffffffffffff1673ffffffffffffffffffffffffffffffffffffffff167f8be0079c531659141344cd1fd0a4f28419497f9722a3daafe3b4186f6b6457e060405160405180910390a3806000806101000a81548173ffffffffffffffffffffffffffffffffffffffff021916908373ffffffffffffffffffffffffffffffffffffffff16021790555050565b60085481565b6122196125b1565b73ffffffffffffffffffffffffffffffffffffffff1661223761132d565b73ffffffffffffffffffffffffffffffffffffffff161461228d576040517f08c379a000000000000000000000000000000000000000000000000000000000815260040161228490613bf3565b60405180910390fd5b600a60009054906101000a900460ff16156122dd576040517f08c379a00000000000000000000000000000000000000000000000000000000081526004016122d490613af3565b60405180910390fd5b42811015612320576040517f08c379a000000000000000000000000000000000000000000000000000000000815260040161231790613b93565b60405180910390fd5b80600781905550610e1060186123369190613f92565b610e1060306123459190613f92565b61234f9190613d9a565b60075461235c9190613d9a565b600881905550600554600460009054906101000a900473ffffffffffffffffffffffffffffffffffffffff1673ffffffffffffffffffffffffffffffffffffffff166370a08231306040518263ffffffff1660e01b81526004016123c091906137bd565b60206040518083038186803b1580156123d857600080fd5b505afa1580156123ec573d6000803e3d6000fd5b505050506040513d601f19601f820116820180604052508101906124109190612f1b565b1015612451576040517f08c379a000000000000000000000000000000000000000000000000000000000815260040161244890613bd3565b60405180910390fd5b7f537db03a5cf0f67e64e2a7515e45c28a71d041067e165fc95ee2ecde36e6532d600754600854604051612486929190613d2e565b60405180910390a16001600a60006101000a81548160ff02191690831515021790555050565b6000600f547f000000000000000000000000000000000000000000000000000000000000000073ffffffffffffffffffffffffffffffffffffffff166370a08231306040518263ffffffff1660e01b815260040161250a91906137bd565b60206040518083038186803b15801561252257600080fd5b505afa158015612536573d6000803e3d6000fd5b505050506040513d601f19601f8201168201806040525081019061255a9190612f1b565b101561259b576040517f08c379a000000000000000000000000000000000000000000000000000000000815260040161259290613ad3565b60405180910390fd5b6125aa600e54600f548461272a565b9050919050565b600033905090565b81601081905550806011819055506125cf61288b565b5050565b6001600960008473ffffffffffffffffffffffffffffffffffffffff1673ffffffffffffffffffffffffffffffffffffffff16815260200190815260200160002060000160006101000a81548160ff02191690831515021790555080600960008473ffffffffffffffffffffffffffffffffffffffff1673ffffffffffffffffffffffffffffffffffffffff168152602001908152602001600020600101819055506001600b82815481106126b1577f4e487b7100000000000000000000000000000000000000000000000000000000600052603260045260246000fd5b906000526020600020906004020160030160008282546126d19190613d9a565b925050819055503373ffffffffffffffffffffffffffffffffffffffff167ff6c60b059f60c86b2d612b237ac38bd87bc1f68f87600cd360d68351af1ca95f8260405161271e9190613d13565b60405180910390a25050565b60007f000000000000000000000000000000000000000000000000000000000000000073ffffffffffffffffffffffffffffffffffffffff16634000aea07f000000000000000000000000000000000000000000000000000000000000000085878660405160200161279d9291906138e3565b6040516020818303038152906040526040518463ffffffff1660e01b81526004016127ca93929190613838565b602060405180830381600087803b1580156127e457600080fd5b505af11580156127f8573d6000803e3d6000fd5b505050506040513d601f19601f8201168201806040525081019061281c9190612e8d565b50600061283e858430600d60008a8152602001908152602001600020546128b0565b90506001600d6000878152602001908152602001600020546128609190613d9a565b600d60008781526020019081526020016000208190555061288185826128ec565b9150509392505050565b6001601260016101000a81548160ff0219169083151502179055506128ae61291f565b565b6000848484846040516020016128c9949392919061390c565b6040516020818303038152906040528051906020012060001c9050949350505050565b6000828260405160200161290192919061377c565b60405160208183030381529060405280519060200120905092915050565b60006129296129b3565b905060005b81518110156129af576000828281518110612972577f4e487b7100000000000000000000000000000000000000000000000000000000600052603260045260246000fd5b6020026020010151905060006002905061298b82611990565b61299a5761299982826125d3565b5b505080806129a79061412c565b91505061292e565b5050565b606060006129c2601354612b58565b90508067ffffffffffffffff811115612a04577f4e487b7100000000000000000000000000000000000000000000000000000000600052604160045260246000fd5b604051908082528060200260200182016040528015612a325781602001602082028036833780820191505090505b5091506000612a45600060135484612b7a565b905060005b82811015612b5257600060146000848481518110612a91577f4e487b7100000000000000000000000000000000000000000000000000000000600052603260045260246000fd5b6020026020010151815260200190815260200160002060009054906101000a900473ffffffffffffffffffffffffffffffffffffffff16905080858381518110612b04577f4e487b7100000000000000000000000000000000000000000000000000000000600052603260045260246000fd5b602002602001019073ffffffffffffffffffffffffffffffffffffffff16908173ffffffffffffffffffffffffffffffffffffffff1681525050508080612b4a9061412c565b915050612a4a565b50505090565b60006001606483612b699190613df0565b612b739190613d9a565b9050919050565b60608167ffffffffffffffff811115612bbc577f4e487b7100000000000000000000000000000000000000000000000000000000600052604160045260246000fd5b604051908082528060200260200182016040528015612bea5781602001602082028036833780820191505090505b5090506000601154905060008585612c029190613fec565b905083811015612c47576040517f08c379a0000000000000000000000000000000000000000000000000000000008152600401612c3e90613c73565b60405180910390fd5b600060fb905060005b85811015612d785760008884600285612c699190613e74565b87612c749190613d9a565b612c7e91906141ad565b612c889190613d9a565b90506000805b600184612c9b9190613d9a565b811015612d0657878181518110612cdb577f4e487b7100000000000000000000000000000000000000000000000000000000600052603260045260246000fd5b6020026020010151831415612cf35760019150612d06565b8080612cfe9061412c565b915050612c8e565b5080612d625781878481518110612d46577f4e487b7100000000000000000000000000000000000000000000000000000000600052603260045260246000fd5b602002602001018181525050600183612d5f9190613d9a565b92505b600184612d6f9190613d9a565b93505050612c50565b505050509392505050565b600081359050612d9281614296565b92915050565b600081519050612da7816142ad565b92915050565b600081359050612dbc816142c4565b92915050565b600081359050612dd1816142db565b92915050565b600081519050612de6816142db565b92915050565b600060208284031215612dfe57600080fd5b6000612e0c84828501612d83565b91505092915050565b60008060408385031215612e2857600080fd5b6000612e3685828601612d83565b9250506020612e4785828601612d83565b9150509250929050565b60008060408385031215612e6457600080fd5b6000612e7285828601612d83565b9250506020612e8385828601612dc2565b9150509250929050565b600060208284031215612e9f57600080fd5b6000612ead84828501612d98565b91505092915050565b60008060408385031215612ec957600080fd5b6000612ed785828601612dad565b9250506020612ee885828601612dc2565b9150509250929050565b600060208284031215612f0457600080fd5b6000612f1284828501612dc2565b91505092915050565b600060208284031215612f2d57600080fd5b6000612f3b84828501612dd7565b91505092915050565b612f4d81614020565b82525050565b612f64612f5f82614020565b614175565b82525050565b612f7381614032565b82525050565b612f828161403e565b82525050565b612f99612f948261403e565b614187565b82525050565b6000612faa82613d57565b612fb48185613d6d565b9350612fc48185602086016140c7565b612fcd8161426b565b840191505092915050565b612fe18161407f565b82525050565b612ff0816140a3565b82525050565b600061300182613d62565b61300b8185613d89565b935061301b8185602086016140c7565b6130248161426b565b840191505092915050565b600061303c601483613d89565b91507f4e6f742056616c69642045746820416d6f756e740000000000000000000000006000830152602082019050919050565b600061307c601b83613d89565b91507f416c72656164792050617274696369706174656420496e2049444f00000000006000830152602082019050919050565b60006130bc600e83613d89565b91507f4e6f7420726567697374657265640000000000000000000000000000000000006000830152602082019050919050565b60006130fc602683613d89565b91507f4f776e61626c653a206e6577206f776e657220697320746865207a65726f206160008301527f64647265737300000000000000000000000000000000000000000000000000006020830152604082019050919050565b6000613162601683613d89565b91507f416c72656164792047656e657261746564204f6e6365000000000000000000006000830152602082019050919050565b60006131a2601383613d89565b91507f526166666c653a204f7574204f662054696d65000000000000000000000000006000830152602082019050919050565b60006131e2601283613d89565b91507f416c7265616479207265676973746572656400000000000000000000000000006000830152602082019050919050565b6000613222600f83613d89565b91507f696e76616c696420506f6f6c206e6f00000000000000000000000000000000006000830152602082019050919050565b6000613262602b83613d89565b91507f4e6f7420656e6f756768204c494e4b202d2066696c6c20636f6e74726163742060008301527f77697468206661756365740000000000000000000000000000000000000000006020830152604082019050919050565b60006132c8601383613d89565b91507f416c726561647920496e697469616c697a6564000000000000000000000000006000830152602082019050919050565b6000613308601183613d89565b91507f416c7265616479205075726368617365640000000000000000000000000000006000830152602082019050919050565b6000613348601d83613d89565b91507f43616e277420506172746963697061746520696e2074686520506f6f6c0000006000830152602082019050919050565b6000613388602083613d89565b91507f526166666c653a2050617274696369706174696f6e204469646e277420456e646000830152602082019050919050565b60006133c8601583613d89565b91507f556e61626c6520546f205265636f7665722045746800000000000000000000006000830152602082019050919050565b6000613408601483613d89565b91507f49444f2043616e277420426520696e20506173740000000000000000000000006000830152602082019050919050565b6000613448602283613d89565b91507f526166666c653a2050617274696369706174696f6e204469646e27742042656760008301527f696e0000000000000000000000000000000000000000000000000000000000006020830152604082019050919050565b60006134ae601d83613d89565b91507f4e6f7420456e6f75676820546f6b656e7320496e20436f6e74726163740000006000830152602082019050919050565b60006134ee602083613d89565b91507f4f776e61626c653a2063616c6c6572206973206e6f7420746865206f776e65726000830152602082019050919050565b600061352e601b83613d89565b91507f526166666c653a2050617274696369706174696f6e20456e64656400000000006000830152602082019050919050565b600061356e601f83613d89565b91507f4f6e6c7920565246436f6f7264696e61746f722063616e2066756c66696c6c006000830152602082019050919050565b60006135ae601483613d89565b91507f56616c7565732043616e2774204265205a65726f0000000000000000000000006000830152602082019050919050565b60006135ee600c83613d89565b91507f496e76616c69642053697a6500000000000000000000000000000000000000006000830152602082019050919050565b600061362e601a83613d89565b91507f4e6f7420696e20526567697374726174696f6e20506572696f640000000000006000830152602082019050919050565b600061366e600083613d7e565b9150600082019050919050565b6000613688601283613d89565b91507f4e6f7420696e2053616c6520506572696f6400000000000000000000000000006000830152602082019050919050565b60006136c8601f83613d89565b91507f5265656e7472616e637947756172643a207265656e7472616e742063616c6c006000830152602082019050919050565b6000613708601383613d89565b91507f4e6f7420496e697469616c697a656420596574000000000000000000000000006000830152602082019050919050565b61374481614068565b82525050565b61375b61375682614068565b6141a3565b82525050565b600061376d8284612f53565b60148201915081905092915050565b60006137888285612f88565b602082019150613798828461374a565b6020820191508190509392505050565b60006137b382613661565b9150819050919050565b60006020820190506137d26000830184612f44565b92915050565b60006060820190506137ed6000830186612f44565b6137fa6020830185612f44565b613807604083018461373b565b949350505050565b60006040820190506138246000830185612f44565b613831602083018461373b565b9392505050565b600060608201905061384d6000830186612f44565b61385a602083018561373b565b818103604083015261386c8184612f9f565b9050949350505050565b600060208201905061388b6000830184612f6a565b92915050565b60006060820190506138a66000830186612f6a565b6138b3602083018561373b565b6138c06040830184612f6a565b949350505050565b60006020820190506138dd6000830184612f79565b92915050565b60006040820190506138f86000830185612f79565b613905602083018461373b565b9392505050565b60006080820190506139216000830187612f79565b61392e602083018661373b565b61393b6040830185612f44565b613948606083018461373b565b95945050505050565b60006020820190506139666000830184612fd8565b92915050565b60006020820190506139816000830184612fe7565b92915050565b600060808201905081810360008301526139a18187612ff6565b90506139b0602083018661373b565b6139bd604083018561373b565b6139ca606083018461373b565b95945050505050565b600060208201905081810360008301526139ec8161302f565b9050919050565b60006020820190508181036000830152613a0c8161306f565b9050919050565b60006020820190508181036000830152613a2c816130af565b9050919050565b60006020820190508181036000830152613a4c816130ef565b9050919050565b60006020820190508181036000830152613a6c81613155565b9050919050565b60006020820190508181036000830152613a8c81613195565b9050919050565b60006020820190508181036000830152613aac816131d5565b9050919050565b60006020820190508181036000830152613acc81613215565b9050919050565b60006020820190508181036000830152613aec81613255565b9050919050565b60006020820190508181036000830152613b0c816132bb565b9050919050565b60006020820190508181036000830152613b2c816132fb565b9050919050565b60006020820190508181036000830152613b4c8161333b565b9050919050565b60006020820190508181036000830152613b6c8161337b565b9050919050565b60006020820190508181036000830152613b8c816133bb565b9050919050565b60006020820190508181036000830152613bac816133fb565b9050919050565b60006020820190508181036000830152613bcc8161343b565b9050919050565b60006020820190508181036000830152613bec816134a1565b9050919050565b60006020820190508181036000830152613c0c816134e1565b9050919050565b60006020820190508181036000830152613c2c81613521565b9050919050565b60006020820190508181036000830152613c4c81613561565b9050919050565b60006020820190508181036000830152613c6c816135a1565b9050919050565b60006020820190508181036000830152613c8c816135e1565b9050919050565b60006020820190508181036000830152613cac81613621565b9050919050565b60006020820190508181036000830152613ccc8161367b565b9050919050565b60006020820190508181036000830152613cec816136bb565b9050919050565b60006020820190508181036000830152613d0c816136fb565b9050919050565b6000602082019050613d28600083018461373b565b92915050565b6000604082019050613d43600083018561373b565b613d50602083018461373b565b9392505050565b600081519050919050565b600081519050919050565b600082825260208201905092915050565b600081905092915050565b600082825260208201905092915050565b6000613da582614068565b9150613db083614068565b9250827fffffffffffffffffffffffffffffffffffffffffffffffffffffffffffffffff03821115613de557613de46141de565b5b828201905092915050565b6000613dfb82614068565b9150613e0683614068565b925082613e1657613e1561420d565b5b828204905092915050565b6000808291508390505b6001851115613e6b57808604811115613e4757613e466141de565b5b6001851615613e565780820291505b8081029050613e6485614289565b9450613e2b565b94509492505050565b6000613e7f82614068565b9150613e8a83614072565b9250613eb77fffffffffffffffffffffffffffffffffffffffffffffffffffffffffffffffff8484613ebf565b905092915050565b600082613ecf5760019050613f8b565b81613edd5760009050613f8b565b8160018114613ef35760028114613efd57613f2c565b6001915050613f8b565b60ff841115613f0f57613f0e6141de565b5b8360020a915084821115613f2657613f256141de565b5b50613f8b565b5060208310610133831016604e8410600b8410161715613f615782820a905083811115613f5c57613f5b6141de565b5b613f8b565b613f6e8484846001613e21565b92509050818404811115613f8557613f846141de565b5b81810290505b9392505050565b6000613f9d82614068565b9150613fa883614068565b9250817fffffffffffffffffffffffffffffffffffffffffffffffffffffffffffffffff0483118215151615613fe157613fe06141de565b5b828202905092915050565b6000613ff782614068565b915061400283614068565b925082821015614015576140146141de565b5b828203905092915050565b600061402b82614048565b9050919050565b60008115159050919050565b6000819050919050565b600073ffffffffffffffffffffffffffffffffffffffff82169050919050565b6000819050919050565b600060ff82169050919050565b600061408a82614091565b9050919050565b600061409c82614048565b9050919050565b60006140ae826140b5565b9050919050565b60006140c082614048565b9050919050565b60005b838110156140e55780820151818401526020810190506140ca565b838111156140f4576000848401525b50505050565b6000600282049050600182168061411257607f821691505b602082108114156141265761412561423c565b5b50919050565b600061413782614068565b91507fffffffffffffffffffffffffffffffffffffffffffffffffffffffffffffffff82141561416a576141696141de565b5b600182019050919050565b600061418082614191565b9050919050565b6000819050919050565b600061419c8261427c565b9050919050565b6000819050919050565b60006141b882614068565b91506141c383614068565b9250826141d3576141d261420d565b5b828206905092915050565b7f4e487b7100000000000000000000000000000000000000000000000000000000600052601160045260246000fd5b7f4e487b7100000000000000000000000000000000000000000000000000000000600052601260045260246000fd5b7f4e487b7100000000000000000000000000000000000000000000000000000000600052602260045260246000fd5b6000601f19601f8301169050919050565b60008160601b9050919050565b60008160011c9050919050565b61429f81614020565b81146142aa57600080fd5b50565b6142b681614032565b81146142c157600080fd5b50565b6142cd8161403e565b81146142d857600080fd5b50565b6142e481614068565b81146142ef57600080fd5b5056fea26469706673582212205bb3a19c1cd6f359af0835efd804f2b22df17f44dae5fa5f51e8d5b2498205b864736f6c63430008000033",
  "immutableReferences": {
    "1921": [
      {
        "length": 32,
        "start": 9395
      },
      {
        "length": 32,
        "start": 10030
      }
    ],
    "1923": [
      {
        "length": 32,
        "start": 5195
      },
      {
        "length": 32,
        "start": 10090
      }
    ]
  },
  "source": "// SPDX-License-Identifier: MIT\r\npragma solidity ^0.8.0;\r\n\r\nimport \"@chainlink/contracts/src/v0.8/dev/VRFConsumerBase.sol\";\r\nimport \"./IDO.sol\";\r\n\r\nabstract contract RandomTest is VRFConsumerBase {\r\n\r\n    bytes32 internal keyHash;\r\n    uint256 internal fee;\r\n    \r\n    bytes32 public reqId;\r\n    uint256 public randomResult;\r\n\r\n    bool isGeneratedOnce;\r\n    modifier once() {\r\n        require(!isGeneratedOnce, \"Already Generated Once\");\r\n        isGeneratedOnce = true;\r\n        _;\r\n    }\r\n\r\n    constructor () VRFConsumerBase (\r\n        0x8C7382F9D8f56b33781fE506E897a4F1e2d17255, // VRF Coordinator\r\n        0x326C977E6efc84E512bB9C30f76E30c160eD06FB  // LINK Token\r\n    ) {\r\n        keyHash = 0x6e75b569a01ef56d18cab6a8e71e6600d6ce853834d4a5748b720d06f878b3a4;\r\n        fee = 100000000000000; // 0.0001 LINK\r\n    }\r\n\r\n    /** \r\n     * Requests randomness from a user-provided seed\r\n     */\r\n    function _getRandomNumber(uint256 userProvidedSeed) internal returns (bytes32 requestId) {\r\n        require(LINK.balanceOf(address(this)) >= fee, \"Not enough LINK - fill contract with faucet\");\r\n        return requestRandomness(keyHash, fee, userProvidedSeed);\r\n    }\r\n\r\n    /**\r\n     * Callback function used by VRF Coordinator\r\n     */\r\n    function fulfillRandomness(bytes32 requestId, uint256 randomness) internal override {\r\n        reqId = requestId;\r\n        randomResult = randomness;\r\n        _afterGeneration();\r\n    }\r\n\r\n    bool _isFulfilled = false;\r\n    function isFulfilled() public view returns(bool) {\r\n        return _isFulfilled;\r\n    }\r\n\r\n    // Generating Multiple Random Numbers From a Single One\r\n    function _randomList(uint256 _from, uint256 _to, uint256 _size) internal view returns(uint256[] memory rands) {\r\n\r\n        rands = new uint256[](_size);\r\n        uint256 r = randomResult;\r\n        uint256 len = _to - _from;\r\n        \r\n        require(len >= _size, \"Invalid Size\");\r\n\r\n        uint256 i = 251;\r\n        uint256 count = 0;\r\n\r\n        while(count < _size) {\r\n            uint256 rand = (r + i**2) % len + _from;\r\n            bool exists = false;\r\n\r\n            for(uint256 j = 0; j < count + 1; j++) {\r\n                if (rand == rands[j]) {\r\n                    exists = true;\r\n                    break;\r\n                }\r\n            }\r\n\r\n            if(!exists) {\r\n                rands[count] = rand;\r\n                count += 1;\r\n            }\r\n\r\n            i += 1;\r\n        }\r\n    }\r\n\r\n    // This will execute after generation of Random Number\r\n    function _afterGeneration() internal virtual;\r\n\r\n}\r\n\r\ncontract RaffleWrapTest is IDO, RandomTest {\r\n\r\n    uint256 public ticketsSold; // No of tickets sold\r\n    mapping(uint256 => address) public ticketToOwner; // owner of a ticket\r\n    mapping(address => uint256) public addressToTicketCount; // No Of Tickets Owned By an Address\r\n    mapping(address => uint256[]) public addressToTicketsOwned; // Tickets That an address own\r\n\r\n    uint256 public ticketPrice = 3 * 10 ** 18; // Price of a ticket(no. of tokens)\r\n\r\n    modifier raffleParticipationPeriod() {\r\n        require(regStarts <= block.timestamp, \"Raffle: Participation Didn't Begin\");\r\n        require(regStarts + regDuration >= block.timestamp, \"Raffle: Participation Ended\");\r\n        _;\r\n    }\r\n\r\n    modifier raffleResultPeriod() {\r\n        require(regStarts + regDuration <= block.timestamp, \"Raffle: Participation Didn't End\");\r\n        require(saleStarts >= block.timestamp, \"Raffle: Out Of Time\");\r\n        _;\r\n    }\r\n\r\n    constructor (\r\n        address _stakerAddress,\r\n        address _nativeTokenAddress,\r\n        address _idoTokenAddress,\r\n        uint256 _idoAmount,\r\n        uint256 _price\r\n    ) IDO(\r\n        _stakerAddress,\r\n        _nativeTokenAddress,\r\n        _idoTokenAddress,\r\n        _idoAmount,\r\n        _price\r\n    ) {\r\n\r\n    }\r\n\r\n    \r\n    // Buy Tickets\r\n    function buyTickets(uint256 _noOfTickets) external raffleParticipationPeriod nonReentrant {\r\n        require(!getRegistrationStatus(msg.sender), \"Already Participated In IDO\");\r\n        uint256 nextTicket = ticketsSold;\r\n        nativeToken.transferFrom(msg.sender, owner(), _noOfTickets * ticketPrice);\r\n\r\n        for(uint256 i=0; i<_noOfTickets; i++) {\r\n            ticketToOwner[nextTicket + i] = msg.sender;\r\n            addressToTicketsOwned[msg.sender].push(nextTicket + i);\r\n        }\r\n\r\n        addressToTicketCount[msg.sender] += _noOfTickets;\r\n        ticketsSold += _noOfTickets;\r\n    }\r\n\r\n    // Generates The Random Winners\r\n    function genRandom() external once raffleResultPeriod nonReentrant {\r\n        uint256 seed = uint256(keccak256(abi.encodePacked(msg.sender)));\r\n        _getRandomNumber(seed);\r\n    }\r\n\r\n    function fulfillTest(bytes32 requestId, uint256 randomness) once raffleResultPeriod external {\r\n        fulfillRandomness(requestId, randomness);\r\n    }\r\n\r\n    // Function Extended From Random Contract\r\n    function _afterGeneration() internal override {\r\n        _isFulfilled = true;\r\n        _executeRaffle();\r\n    }\r\n\r\n    // Raffle Entry For Winners\r\n    function _executeRaffle() internal {\r\n\r\n        address[] memory list = _getWinners();\r\n        for(uint256 i=0; i<list.length; i++) {\r\n            address account = list[i];\r\n            uint256 _poolNo = 2; // Raffle Entry Pool\r\n\r\n            if(!getRegistrationStatus(account)) _register(account, _poolNo);\r\n        }\r\n    }\r\n\r\n    // Gets The Address Of The Winners\r\n    function _getWinners() internal view returns(address[] memory list) {\r\n        uint256 n = _noOfWinners(ticketsSold);\r\n        list = new address[](n);\r\n        uint256[] memory winners = _randomList(0, ticketsSold, n);\r\n\r\n        for(uint256 i=0; i<n; i++) {\r\n            address winner = ticketToOwner[winners[i]];\r\n            list[i] = winner;\r\n        }\r\n    }\r\n\r\n    // Calculates The Number Of Winners\r\n    function _noOfWinners(uint256 _ticketsSold) internal pure returns(uint256) {\r\n        return _ticketsSold / 100 + 1;\r\n    }\r\n\r\n}",
  "sourcePath": "C:/Users/sudip/Desktop/RealProjects/PolyStarter/contracts/IDOStaker/RaffleWrapTest.sol",
  "compiler": {
    "name": "solc",
    "version": "0.8.0+commit.c7dfd78e.Emscripten.clang"
  },
  "schemaVersion": "3.3.4",
  "updatedAt": "2021-06-12T16:48:14.800Z",
  "devdoc": {
    "kind": "dev",
    "methods": {
      "owner()": {
        "details": "Returns the address of the current owner."
      },
      "renounceOwnership()": {
        "details": "Leaves the contract without owner. It will not be possible to call `onlyOwner` functions anymore. Can only be called by the current owner. NOTE: Renouncing ownership will leave the contract without an owner, thereby removing any functionality that is only available to the owner."
      },
      "transferOwnership(address)": {
        "details": "Transfers ownership of the contract to a new account (`newOwner`). Can only be called by the current owner."
      }
    },
    "version": 1
  },
  "userdoc": {
    "kind": "user",
    "methods": {},
    "version": 1
  }
}