{
  "contractName": "Staker",
  "abi": [
    {
      "inputs": [
        {
          "internalType": "address",
          "name": "_tokenAddress",
          "type": "address"
        }
      ],
      "stateMutability": "nonpayable",
      "type": "constructor"
    },
    {
      "anonymous": false,
      "inputs": [
        {
          "indexed": true,
          "internalType": "address",
          "name": "account",
          "type": "address"
        },
        {
          "indexed": false,
          "internalType": "uint256",
          "name": "timestamp",
          "type": "uint256"
        },
        {
          "indexed": false,
          "internalType": "uint256",
          "name": "unlockTime",
          "type": "uint256"
        },
        {
          "indexed": false,
          "internalType": "address",
          "name": "locker",
          "type": "address"
        }
      ],
      "name": "Lock",
      "type": "event"
    },
    {
      "anonymous": false,
      "inputs": [
        {
          "indexed": true,
          "internalType": "address",
          "name": "previousOwner",
          "type": "address"
        },
        {
          "indexed": true,
          "internalType": "address",
          "name": "newOwner",
          "type": "address"
        }
      ],
      "name": "OwnershipTransferred",
      "type": "event"
    },
    {
      "anonymous": false,
      "inputs": [
        {
          "indexed": true,
          "internalType": "address",
          "name": "account",
          "type": "address"
        },
        {
          "indexed": false,
          "internalType": "uint256",
          "name": "timestamp",
          "type": "uint256"
        },
        {
          "indexed": false,
          "internalType": "uint256",
          "name": "value",
          "type": "uint256"
        }
      ],
      "name": "Stake",
      "type": "event"
    },
    {
      "anonymous": false,
      "inputs": [
        {
          "indexed": true,
          "internalType": "address",
          "name": "account",
          "type": "address"
        },
        {
          "indexed": false,
          "internalType": "uint256",
          "name": "timestamp",
          "type": "uint256"
        },
        {
          "indexed": false,
          "internalType": "uint256",
          "name": "value",
          "type": "uint256"
        }
      ],
      "name": "Unstake",
      "type": "event"
    },
    {
      "inputs": [],
      "name": "owner",
      "outputs": [
        {
          "internalType": "address",
          "name": "",
          "type": "address"
        }
      ],
      "stateMutability": "view",
      "type": "function"
    },
    {
      "inputs": [],
      "name": "renounceOwnership",
      "outputs": [],
      "stateMutability": "nonpayable",
      "type": "function"
    },
    {
      "inputs": [
        {
          "internalType": "address",
          "name": "newOwner",
          "type": "address"
        }
      ],
      "name": "transferOwnership",
      "outputs": [],
      "stateMutability": "nonpayable",
      "type": "function"
    },
    {
      "inputs": [
        {
          "internalType": "address",
          "name": "account",
          "type": "address"
        }
      ],
      "name": "stakedBalance",
      "outputs": [
        {
          "internalType": "uint256",
          "name": "",
          "type": "uint256"
        }
      ],
      "stateMutability": "view",
      "type": "function"
    },
    {
      "inputs": [
        {
          "internalType": "address",
          "name": "account",
          "type": "address"
        }
      ],
      "name": "unlockTime",
      "outputs": [
        {
          "internalType": "uint256",
          "name": "",
          "type": "uint256"
        }
      ],
      "stateMutability": "view",
      "type": "function"
    },
    {
      "inputs": [
        {
          "internalType": "address",
          "name": "account",
          "type": "address"
        }
      ],
      "name": "isIDO",
      "outputs": [
        {
          "internalType": "bool",
          "name": "",
          "type": "bool"
        }
      ],
      "stateMutability": "view",
      "type": "function"
    },
    {
      "inputs": [
        {
          "internalType": "uint256",
          "name": "value",
          "type": "uint256"
        }
      ],
      "name": "stake",
      "outputs": [],
      "stateMutability": "nonpayable",
      "type": "function"
    },
    {
      "inputs": [
        {
          "internalType": "uint256",
          "name": "value",
          "type": "uint256"
        }
      ],
      "name": "unstake",
      "outputs": [],
      "stateMutability": "nonpayable",
      "type": "function"
    },
    {
      "inputs": [
        {
          "internalType": "address",
          "name": "user",
          "type": "address"
        },
        {
          "internalType": "uint256",
          "name": "unlock_time",
          "type": "uint256"
        }
      ],
      "name": "lock",
      "outputs": [],
      "stateMutability": "nonpayable",
      "type": "function"
    },
    {
      "inputs": [
        {
          "internalType": "bool",
          "name": "status",
          "type": "bool"
        }
      ],
      "name": "halt",
      "outputs": [],
      "stateMutability": "nonpayable",
      "type": "function"
    },
    {
      "inputs": [
        {
          "internalType": "address",
          "name": "account",
          "type": "address"
        }
      ],
      "name": "addIDO",
      "outputs": [],
      "stateMutability": "nonpayable",
      "type": "function"
    }
  ],
  "bytecode": "0x60806040523480156200001157600080fd5b506040516200197e3803806200197e83398181016040528101906200003791906200014e565b6000620000496200012f60201b60201c565b9050806000806101000a81548173ffffffffffffffffffffffffffffffffffffffff021916908373ffffffffffffffffffffffffffffffffffffffff1602179055508073ffffffffffffffffffffffffffffffffffffffff16600073ffffffffffffffffffffffffffffffffffffffff167f8be0079c531659141344cd1fd0a4f28419497f9722a3daafe3b4186f6b6457e060405160405180910390a35080600160006101000a81548173ffffffffffffffffffffffffffffffffffffffff021916908373ffffffffffffffffffffffffffffffffffffffff16021790555050620001c8565b600033905090565b6000815190506200014881620001ae565b92915050565b6000602082840312156200016157600080fd5b6000620001718482850162000137565b91505092915050565b600062000187826200018e565b9050919050565b600073ffffffffffffffffffffffffffffffffffffffff82169050919050565b620001b9816200017a565b8114620001c557600080fd5b50565b6117a680620001d86000396000f3fe608060405234801561001057600080fd5b50600436106100a95760003560e01c806376b467b71161007157806376b467b7146101505780638da5cb5b1461018057806396a38d221461019e578063a694fc3a146101ba578063d91114bd146101d6578063f2fde38b146101f2576100a9565b8063282d3fdf146100ae5780632e17de78146100ca57806360217267146100e6578063715018a61461011657806373b8ff1a14610120575b600080fd5b6100c860048036038101906100c39190610fb9565b61020e565b005b6100e460048036038101906100df9190611047565b6103cc565b005b61010060048036038101906100fb9190610f90565b6106ac565b60405161010d9190611560565b60405180910390f35b61011e6106f5565b005b61013a60048036038101906101359190610f90565b61082f565b6040516101479190611403565b60405180910390f35b61016a60048036038101906101659190610f90565b610885565b6040516101779190611560565b60405180910390f35b6101886108ce565b6040516101959190611388565b60405180910390f35b6101b860048036038101906101b39190610ff5565b6108f7565b005b6101d460048036038101906101cf9190611047565b610990565b005b6101f060048036038101906101eb9190610f90565b610bd9565b005b61020c60048036038101906102079190610f90565b610d20565b005b6004600061021a610ec9565b73ffffffffffffffffffffffffffffffffffffffff1673ffffffffffffffffffffffffffffffffffffffff16815260200190815260200160002060009054906101000a900460ff166102a1576040517f08c379a000000000000000000000000000000000000000000000000000000000815260040161029890611500565b60405180910390fd5b4281116102e3576040517f08c379a00000000000000000000000000000000000000000000000000000000081526004016102da906114c0565b60405180910390fd5b80600360008473ffffffffffffffffffffffffffffffffffffffff1673ffffffffffffffffffffffffffffffffffffffff1681526020019081526020016000205410156103c85780600360008473ffffffffffffffffffffffffffffffffffffffff1673ffffffffffffffffffffffffffffffffffffffff168152602001908152602001600020819055508173ffffffffffffffffffffffffffffffffffffffff167f75784e97e4541f1b3d2c44d8c51b419e33fb6de615033cfc6e6810db54ffa4fe42836103b0610ec9565b6040516103bf939291906115a4565b60405180910390a25b5050565b42600360006103d9610ec9565b73ffffffffffffffffffffffffffffffffffffffff1673ffffffffffffffffffffffffffffffffffffffff168152602001908152602001600020541115610455576040517f08c379a000000000000000000000000000000000000000000000000000000000815260040161044c90611480565b60405180910390fd5b8060026000610462610ec9565b73ffffffffffffffffffffffffffffffffffffffff1673ffffffffffffffffffffffffffffffffffffffff1681526020019081526020016000205410156104de576040517f08c379a00000000000000000000000000000000000000000000000000000000081526004016104d590611540565b60405180910390fd5b6105518160405180606001604052806023815260200161174e6023913960026000610507610ec9565b73ffffffffffffffffffffffffffffffffffffffff1673ffffffffffffffffffffffffffffffffffffffff16815260200190815260200160002054610ed19092919063ffffffff16565b6002600061055d610ec9565b73ffffffffffffffffffffffffffffffffffffffff1673ffffffffffffffffffffffffffffffffffffffff16815260200190815260200160002081905550600160009054906101000a900473ffffffffffffffffffffffffffffffffffffffff1673ffffffffffffffffffffffffffffffffffffffff1663a9059cbb6105e1610ec9565b836040518363ffffffff1660e01b81526004016105ff9291906113da565b602060405180830381600087803b15801561061957600080fd5b505af115801561062d573d6000803e3d6000fd5b505050506040513d601f19601f82011682018060405250810190610651919061101e565b5061065a610ec9565b73ffffffffffffffffffffffffffffffffffffffff167ff960dbf9e5d0682f7a298ed974e33a28b4464914b7a2bfac12ae419a9afeb28042836040516106a192919061157b565b60405180910390a250565b6000600260008373ffffffffffffffffffffffffffffffffffffffff1673ffffffffffffffffffffffffffffffffffffffff168152602001908152602001600020549050919050565b6106fd610ec9565b73ffffffffffffffffffffffffffffffffffffffff1661071b6108ce565b73ffffffffffffffffffffffffffffffffffffffff1614610771576040517f08c379a000000000000000000000000000000000000000000000000000000000815260040161076890611520565b60405180910390fd5b600073ffffffffffffffffffffffffffffffffffffffff1660008054906101000a900473ffffffffffffffffffffffffffffffffffffffff1673ffffffffffffffffffffffffffffffffffffffff167f8be0079c531659141344cd1fd0a4f28419497f9722a3daafe3b4186f6b6457e060405160405180910390a360008060006101000a81548173ffffffffffffffffffffffffffffffffffffffff021916908373ffffffffffffffffffffffffffffffffffffffff160217905550565b6000600460008373ffffffffffffffffffffffffffffffffffffffff1673ffffffffffffffffffffffffffffffffffffffff16815260200190815260200160002060009054906101000a900460ff169050919050565b6000600360008373ffffffffffffffffffffffffffffffffffffffff1673ffffffffffffffffffffffffffffffffffffffff168152602001908152602001600020549050919050565b60008060009054906101000a900473ffffffffffffffffffffffffffffffffffffffff16905090565b6108ff610ec9565b73ffffffffffffffffffffffffffffffffffffffff1661091d6108ce565b73ffffffffffffffffffffffffffffffffffffffff1614610973576040517f08c379a000000000000000000000000000000000000000000000000000000000815260040161096a90611520565b60405180910390fd5b80600560006101000a81548160ff02191690831515021790555050565b600560009054906101000a900460ff16156109e0576040517f08c379a00000000000000000000000000000000000000000000000000000000081526004016109d7906114a0565b60405180910390fd5b60008111610a23576040517f08c379a0000000000000000000000000000000000000000000000000000000008152600401610a1a90611440565b60405180910390fd5b600160009054906101000a900473ffffffffffffffffffffffffffffffffffffffff1673ffffffffffffffffffffffffffffffffffffffff166323b872dd610a69610ec9565b30846040518463ffffffff1660e01b8152600401610a89939291906113a3565b602060405180830381600087803b158015610aa357600080fd5b505af1158015610ab7573d6000803e3d6000fd5b505050506040513d601f19601f82011682018060405250810190610adb919061101e565b50610b358160026000610aec610ec9565b73ffffffffffffffffffffffffffffffffffffffff1673ffffffffffffffffffffffffffffffffffffffff16815260200190815260200160002054610f2690919063ffffffff16565b60026000610b41610ec9565b73ffffffffffffffffffffffffffffffffffffffff1673ffffffffffffffffffffffffffffffffffffffff16815260200190815260200160002081905550610b87610ec9565b73ffffffffffffffffffffffffffffffffffffffff167f5af417134f72a9d41143ace85b0a26dce6f550f894f2cbc1eeee8810603d91b64283604051610bce92919061157b565b60405180910390a250565b610be1610ec9565b73ffffffffffffffffffffffffffffffffffffffff16610bff6108ce565b73ffffffffffffffffffffffffffffffffffffffff1614610c55576040517f08c379a0000000000000000000000000000000000000000000000000000000008152600401610c4c90611520565b60405180910390fd5b600073ffffffffffffffffffffffffffffffffffffffff168173ffffffffffffffffffffffffffffffffffffffff161415610cc5576040517f08c379a0000000000000000000000000000000000000000000000000000000008152600401610cbc906114e0565b60405180910390fd5b6001600460008373ffffffffffffffffffffffffffffffffffffffff1673ffffffffffffffffffffffffffffffffffffffff16815260200190815260200160002060006101000a81548160ff02191690831515021790555050565b610d28610ec9565b73ffffffffffffffffffffffffffffffffffffffff16610d466108ce565b73ffffffffffffffffffffffffffffffffffffffff1614610d9c576040517f08c379a0000000000000000000000000000000000000000000000000000000008152600401610d9390611520565b60405180910390fd5b600073ffffffffffffffffffffffffffffffffffffffff168173ffffffffffffffffffffffffffffffffffffffff161415610e0c576040517f08c379a0000000000000000000000000000000000000000000000000000000008152600401610e0390611460565b60405180910390fd5b8073ffffffffffffffffffffffffffffffffffffffff1660008054906101000a900473ffffffffffffffffffffffffffffffffffffffff1673ffffffffffffffffffffffffffffffffffffffff167f8be0079c531659141344cd1fd0a4f28419497f9722a3daafe3b4186f6b6457e060405160405180910390a3806000806101000a81548173ffffffffffffffffffffffffffffffffffffffff021916908373ffffffffffffffffffffffffffffffffffffffff16021790555050565b600033905090565b6000838311158290610f19576040517f08c379a0000000000000000000000000000000000000000000000000000000008152600401610f10919061141e565b60405180910390fd5b5082840390509392505050565b60008183610f3491906115f7565b905092915050565b600081359050610f4b81611708565b92915050565b600081359050610f608161171f565b92915050565b600081519050610f758161171f565b92915050565b600081359050610f8a81611736565b92915050565b600060208284031215610fa257600080fd5b6000610fb084828501610f3c565b91505092915050565b60008060408385031215610fcc57600080fd5b6000610fda85828601610f3c565b9250506020610feb85828601610f7b565b9150509250929050565b60006020828403121561100757600080fd5b600061101584828501610f51565b91505092915050565b60006020828403121561103057600080fd5b600061103e84828501610f66565b91505092915050565b60006020828403121561105957600080fd5b600061106784828501610f7b565b91505092915050565b6110798161164d565b82525050565b6110888161165f565b82525050565b6000611099826115db565b6110a381856115e6565b93506110b3818560208601611695565b6110bc816116f7565b840191505092915050565b60006110d4602c836115e6565b91507f5374616b65723a207374616b652076616c75652073686f756c6420626520677260008301527f6561746572207468616e203000000000000000000000000000000000000000006020830152604082019050919050565b600061113a6026836115e6565b91507f4f776e61626c653a206e6577206f776e657220697320746865207a65726f206160008301527f64647265737300000000000000000000000000000000000000000000000000006020830152604082019050919050565b60006111a06019836115e6565b91507f5374616b65723a206163636f756e74206973206c6f636b6564000000000000006000830152602082019050919050565b60006111e0601b836115e6565b91507f5374616b65723a204465706f73697473206172652070617573656400000000006000830152602082019050919050565b6000611220601d836115e6565b91507f5374616b65723a20756e6c6f636b20697320696e2074686520706173740000006000830152602082019050919050565b6000611260601e836115e6565b91507f5374616b65723a2063616e6e6f74206265207a65726f206164647265737300006000830152602082019050919050565b60006112a0601a836115e6565b91507f5374616b65723a206f6e6c792049444f732063616e206c6f636b0000000000006000830152602082019050919050565b60006112e06020836115e6565b91507f4f776e61626c653a2063616c6c6572206973206e6f7420746865206f776e65726000830152602082019050919050565b60006113206023836115e6565b91507f5374616b65723a20696e73756666696369656e74207374616b65642062616c6160008301527f6e636500000000000000000000000000000000000000000000000000000000006020830152604082019050919050565b6113828161168b565b82525050565b600060208201905061139d6000830184611070565b92915050565b60006060820190506113b86000830186611070565b6113c56020830185611070565b6113d26040830184611379565b949350505050565b60006040820190506113ef6000830185611070565b6113fc6020830184611379565b9392505050565b6000602082019050611418600083018461107f565b92915050565b60006020820190508181036000830152611438818461108e565b905092915050565b60006020820190508181036000830152611459816110c7565b9050919050565b600060208201905081810360008301526114798161112d565b9050919050565b6000602082019050818103600083015261149981611193565b9050919050565b600060208201905081810360008301526114b9816111d3565b9050919050565b600060208201905081810360008301526114d981611213565b9050919050565b600060208201905081810360008301526114f981611253565b9050919050565b6000602082019050818103600083015261151981611293565b9050919050565b60006020820190508181036000830152611539816112d3565b9050919050565b6000602082019050818103600083015261155981611313565b9050919050565b60006020820190506115756000830184611379565b92915050565b60006040820190506115906000830185611379565b61159d6020830184611379565b9392505050565b60006060820190506115b96000830186611379565b6115c66020830185611379565b6115d36040830184611070565b949350505050565b600081519050919050565b600082825260208201905092915050565b60006116028261168b565b915061160d8361168b565b9250827fffffffffffffffffffffffffffffffffffffffffffffffffffffffffffffffff03821115611642576116416116c8565b5b828201905092915050565b60006116588261166b565b9050919050565b60008115159050919050565b600073ffffffffffffffffffffffffffffffffffffffff82169050919050565b6000819050919050565b60005b838110156116b3578082015181840152602081019050611698565b838111156116c2576000848401525b50505050565b7f4e487b7100000000000000000000000000000000000000000000000000000000600052601160045260246000fd5b6000601f19601f8301169050919050565b6117118161164d565b811461171c57600080fd5b50565b6117288161165f565b811461173357600080fd5b50565b61173f8161168b565b811461174a57600080fd5b5056fe5374616b65723a20696e73756666696369656e74207374616b65642062616c616e6365a264697066735822122016130ac8d96336dafb3347a62c4bb5c8a56b66811d5fe55a272b2fc50608b64d64736f6c63430008000033",
  "immutableReferences": {},
  "source": "// SPDX-License-Identifier: MIT\r\npragma solidity ^0.8.0;\r\n\r\nimport \"@openzeppelin/contracts/utils/Context.sol\";\r\nimport \"@openzeppelin/contracts/token/ERC20/IERC20.sol\";\r\nimport \"@openzeppelin/contracts/utils/math/SafeMath.sol\";\r\nimport \"@openzeppelin/contracts/utils/Address.sol\";\r\nimport \"@openzeppelin/contracts/access/Ownable.sol\";\r\n\r\nimport \"./../interfaces/IStaker.sol\";\r\n\r\ncontract Staker is Ownable, IStaker {\r\n    using SafeMath for uint256;\r\n    using Address for address;\r\n    \r\n    IERC20 _token; \r\n    mapping (address => uint256) _balances;\r\n    mapping (address => uint256) _unlockTime;\r\n    mapping (address => bool) _isIDO;\r\n    bool halted;\r\n\r\n    event Stake(address indexed account, uint256 timestamp, uint256 value);\r\n    event Unstake(address indexed account, uint256 timestamp, uint256 value);\r\n    event Lock(address indexed account, uint256 timestamp, uint256 unlockTime, address locker);\r\n\r\n    constructor(address _tokenAddress) {\r\n        _token = IERC20(_tokenAddress);\r\n    }\r\n\r\n    function stakedBalance(address account) external view override returns (uint256) {\r\n        return _balances[account];\r\n    }\r\n\r\n    function unlockTime(address account) external view override returns (uint256) {\r\n        return _unlockTime[account];\r\n    }\r\n\r\n    function isIDO(address account) external view returns (bool) {\r\n        return _isIDO[account];\r\n    }\r\n\r\n    function stake(uint256 value) external notHalted {\r\n        require(value > 0, \"Staker: stake value should be greater than 0\");\r\n        _token.transferFrom(_msgSender(), address(this), value);\r\n\r\n        _balances[_msgSender()] = _balances[_msgSender()].add(value);\r\n        emit Stake(_msgSender(), block.timestamp, value);\r\n    }\r\n\r\n    function unstake(uint256 value) external lockable {\r\n        require(_balances[_msgSender()] >= value, 'Staker: insufficient staked balance');\r\n\r\n        _balances[_msgSender()] = _balances[_msgSender()].sub(value,\"Staker: insufficient staked balance\");\r\n        _token.transfer(_msgSender(), value);\r\n        emit Unstake(_msgSender(), block.timestamp, value);\r\n    }\r\n\r\n    function lock(address user, uint256 unlock_time) external override {\r\n        require(_isIDO[_msgSender()],\"Staker: only IDOs can lock\");\r\n        require(unlock_time >  block.timestamp, \"Staker: unlock is in the past\");\r\n        if (_unlockTime[user] < unlock_time) {\r\n            _unlockTime[user] = unlock_time;\r\n            emit Lock(user, block.timestamp, unlock_time, _msgSender());\r\n        }\r\n    }\r\n\r\n    function halt(bool status) external onlyOwner {\r\n        halted = status;\r\n    }\r\n\r\n    function addIDO(address account) external onlyOwner {\r\n        require(account != address(0), \"Staker: cannot be zero address\");\r\n        _isIDO[account] = true;\r\n    }\r\n\r\n    modifier onlyIDO() {\r\n        require(_isIDO[_msgSender()],\"Staker: only IDOs can lock\");\r\n        _;\r\n    }\r\n\r\n    modifier lockable() {\r\n        require(_unlockTime[_msgSender()] <=  block.timestamp, \"Staker: account is locked\");\r\n        _;\r\n    }\r\n\r\n    modifier notHalted() {\r\n        require(!halted, \"Staker: Deposits are paused\");\r\n        _;\r\n    }\r\n}",
  "sourcePath": "C:/Users/sudip/Desktop/Real Projects/PolyStarter/contracts/IDOStaker/Staker.sol",
  "compiler": {
    "name": "solc",
    "version": "0.8.0+commit.c7dfd78e.Emscripten.clang"
  },
  "schemaVersion": "3.3.4",
  "updatedAt": "2021-06-03T14:36:28.739Z",
  "devdoc": {
    "kind": "dev",
    "methods": {
      "owner()": {
        "details": "Returns the address of the current owner."
      },
      "renounceOwnership()": {
        "details": "Leaves the contract without owner. It will not be possible to call `onlyOwner` functions anymore. Can only be called by the current owner. NOTE: Renouncing ownership will leave the contract without an owner, thereby removing any functionality that is only available to the owner."
      },
      "transferOwnership(address)": {
        "details": "Transfers ownership of the contract to a new account (`newOwner`). Can only be called by the current owner."
      }
    },
    "version": 1
  },
  "userdoc": {
    "kind": "user",
    "methods": {},
    "version": 1
  }
}